:020000040000FA
:10000000E8190020AD6B0000B16B00001307000081
:1000100000000000000000000000000000000000E0
:10002000000000000000000000000000B56B0000B0
:100030000000000000000000B76B0000E166000057
:10004000BB6B00005D0A0000000000000000000023
:100050000000000000000000554500000000000006
:100060000000000000000000BB6B0000000000006A
:10007000BB6B0000BB6B0000BB6B0000BB6B0000E8
:100080001B660000000000000000000000000000EF
:100090000000000000000000000000000000000060
:1000A000BB6B0000B9670000BB6B000000000000E4
:1000B000370900005F090000BB6B0000BB6B00004C
:1000C00000F002F800F032F80CA030C8083824180C
:1000D0002D18A246671EAB4654465D46AC4201D180
:1000E00000F024F87E460F3E0FCCB6460126334280
:1000F00000D0FB1AA246AB4633431847ACD40000ED
:10010000CCD400000023002400250026103A01D39F
:1001100078C1FBD8520700D330C100D50B607047BF
:100120001FB506F0D9FD1FBD10B510BD06F08CFE41
:100130001146FFF7F5FF00F010FA06F0A4FE03B435
:10014000FFF7F2FF03BC06F0A9FE000001480160C2
:1001500001480047240006400103FF1F30B40C494A
:100160000C684A6823681068C0181060241D121DAE
:100170008C4207D28A4208D20C604A6030BC4000F0
:10018000400870470C00DC3CF6E70A00DC3AF3E775
:1001900080170020F8B503F039FEFE4801780029E9
:1001A0006DD000240470FC49FC4A0868002804D083
:1001B000401E0860002800D11470F9490868002822
:1001C0005DD0F84D2878002801D001230B60F64B54
:1001D00012781B781A4301D0002802D00868401E0C
:1001E0000860086800284AD104F068FC06F00FFA9D
:1001F00006F05DFAED48016880229143016003F04A
:1002000079F903F0B2F9EA48416A402211434162A8
:10021000E8480168E84A4908490011430160E74895
:1002200004610CF090FFE6480078002801D100F04E
:10023000AAFB2878002801D000F0C3FBE14E30690A
:100240000921C906884330610A2006F068FADE4FAA
:1002500000F071FC34610220386030BF3C602878C7
:100260000028F5D100F0F4FB06F032FA06F0C2FAED
:1002700006F0FBF903F0A8F806F0D6F92C70F8BDEB
:1002800070B5C448D14D01780024002905D0047010
:100290002888002801D0401E288003F05AFDCC4851
:1002A000006980072DD5288800282AD1C82006F0AB
:1002B0003CFA04F0F2FB06F0AAF906F0F8F9BB48A4
:1002C000016880229143016003F014F903F04DF9B5
:1002D000B8480168B84A4908490011430160B74865
:1002E00004610CF030FF04F0E9FB00F032FC06F092
:1002F000EFF906F07FFA06F0B8F903F065F806F0BA
:1003000093F9B44D2878012806D10822B24900F0AB
:1003100021FA002800D12C70B04D2878012807D18F
:100320001022AF49022000F015FA002800D12C70ED
:10033000AC4D2878012816D0AB4D287801281BD069
:10034000AA4D2878012820D0A94D2878002809D066
:10035000A849052008700422022000F0FBF90028BB
:1003600000D12C7070BD0322A349022000F0F2F9E5
:100370000028F7D12C7070BD0222A049104600F071
:10038000E9F90028F7D12C7070BD05229C490220A4
:1003900000F0E0F90028F7D12C7099488470C470FF
:1003A000047170BDF8B597484178002972D00025D6
:1003B00045709549954E0888002818D0401E80B297
:1003C0000880002813D13078002802D0012803D0FB
:1003D0000DE003F0ECFE0AE003F044FF8C480078E7
:1003E000002802D004F009F801E004F036F8894949
:1003F0000878401CC0B20870322821D30D706548BF
:100400000124047084490878002819D0401EC0B225
:100410000870002814D1814F3878C0438207804883
:100420000FD10278002A0CD00CF0F5FD7D48047045
:100430003D703078012803D104F03FF87A48057008
:1004400088E07A4A1278D24392070ED10278002AC5
:100450000BD00CF065FE76480178012903D00470BA
:100460000CF016FE76E00570FAE7724A1378DB436B
:100470009B0710D10378002B0DD015700CF050FEA7
:100480006D480178002901D0057000E004700CF07F
:10049000FFFD5FE060E0694A1378DB439B0715D1FD
:1004A0000378002B12D015700CF030FE3E48017816
:1004B000002905D005700CF0EBFD03F06EFF49E05C
:1004C00004700CF0E5FD03F038FF43E05C4B1A7854
:1004D000D743BF0711D10778002F0ED01D700CF045
:1004E0001FFE58480178012903D004700CF0D0FD9C
:1004F00030E005700CF0CCFD2CE0052797430FD1C0
:10050000007800280CD01D700CF00AFE4E480178CF
:10051000012903D004700CF0BBFD1BE00570FAE765
:100520004A480078F12803D0F22801D0F32811D1ED
:10053000307801280ED1464A107800280AD0401E93
:100540001070032008702B485121017089214170DF
:100550002748047001F039FAF8BD06F082FB06F076
:100560003BFB3C491F2008603B4E306A0125284375
:10057000306200F090F9234C0020A070EF03F8895E
:100580003649884200D1A57006F06FF806F0A0F851
:1005900066E00000A60100209C01002080010020F0
:1005A00098010020820100205501002000E0054054
:1005B00000A00440000001400000FA5A00E000E002
:1005C0007F01002000C0054040200340880100203A
:1005D00054020020FA00002041010020FD0000200C
:1005E00004030020FB000020FC000020FE0000208F
:1005F0007D0100208A0100201C010020180100203C
:100600003401002000000020A0010020A4010020EF
:1006100005010020A5010020F900002006010020AE
:10062000F2000020810100207C0100200A0100204E
:10063000090100200B0100205701002008010020C3
:1006400007010020120100200C010020F000002012
:100650007B0100200020044000000640AAAA000000
:1006600005F092F901F09CF906F0ECF8B87A2D4902
:1006700008702D4D2878012801D100F053F9A07899
:10068000002804D009F03BFF0020287001E009F0A9
:1006900001FF06F0AFF82548B061254E254FFE60FA
:1006A000FFF780FE2448A1780078084301D002F0CB
:1006B0009DFD0CF0D0FA2878002804D00128EED156
:1006C000FFF768FDEBE7FFF7DBFDE8E770B50CF03F
:1006D00087FC03F025FF194E3078401CC0B2307003
:1006E000042815D30CF0FDFC00243470012575702E
:1006F0000CF004FD12490878002809D0401EC0B251
:100700000870002804D10F4805700F4844708470A9
:1007100070BDBFF34F8F0E490C48C860BFF34F8FB9
:10072000FEE7000081010020A401002002C00000BB
:10073000AA55FA5A00000140A9010020000000203B
:1007400058010020FB0000201C0100200400FA05D5
:1007500000ED00E0F8B506460D4617464248B100E8
:1007600008180268002A01DB0220F8BD002E03D021
:10077000042E01D8402F01D90420F8BD0068400F95
:10078000042801D00120F8BD3848805D002804D03D
:10079000304600F04CF90320F8BD354808180068D1
:1007A000B84201D20520F8BD701E324980000858B9
:1007B0000090002414E0295D641C285D00020843B9
:1007C000641C295D09040143641C285D000608437C
:1007D000641C0146009800F089FA0098001D009002
:1007E000BC42E8D3F9B2304600F01EFA0020F8BD52
:1007F00070B5234B204C1968228800251F4E481CD9
:10080000002A0CD0012A15D0022A1ED0032A05D1B5
:10081000FF2925D2012109043160186070BDFF292C
:1008200004D2FF2101313160186070BD1D600120CC
:10083000208070BDFF2904D2FF21090431601860B7
:1008400070BD1D600220208070BDFF2904D2FF21F1
:1008500009023160186070BD1D600320208070BDEA
:100860001D60258070BD000018C00540B900002043
:100870004002002030020020CC000020D4000020E4
:10088000D0000020421E032A04D8FC4A80008018B1
:100890008038C167704770B500F0E8FD00F082FF56
:1008A00006F0DFF906F098F9F548016810231943BE
:1008B000016040210120FFF7E5FF80210220FFF7C2
:1008C000E1FFC0210320FFF7DDFFE0210420FFF757
:1008D000D9FFEC484021016080224260C022826042
:1008E000E022C260E8480160436083600821C16083
:1008F0000161E24CE548483C2060022060611F2510
:10090000ED06322005F011FF2561DC48610408384E
:100910004162DF49C162012000F03EFA012000F08F
:100920002CFA70BD10B5D549002048390861012066
:1009300000F02AFA10BD10B51C2000F02DFAD6499F
:10094000D4480862D548016901229204114301612B
:100950001C2000F019FAD2490120087010BD10B512
:100960001D2000F019FACF49CA480862CB48016936
:1009700001229204114301611D2000F005FAC849CB
:100980000120087010BD70B5C3480024C4604461E4
:10099000C04D05621F21C90181611C2000F0FCF9D6
:1009A0001C2000F0EAF9BF48C460446105620121DF
:1009B000C90381611D2000F0EFF91D2000F0DDF971
:1009C00070BD10B5B448002484611C2000F0DCF92F
:1009D000B44884611D2000F0D7F910BD10B5AE48B1
:1009E0000021C1604161AB4901620921C9018161F6
:1009F0001C2000F0D1F91C2000F0BFF910BD01202F
:100A00009E49C00248398860704701209B49800296
:100A10004839886070470120984940024839886009
:100A20007047FF2095490130483988607047042895
:100A30000DD8924A8100303A8918002804D18F4895
:100A400048384068C00102D407204007086070475A
:100A500010B506F006F900F0D7F910BD10B5874CB7
:100A6000483C62680020C043A060002A08D0500FB4
:100A700015D0002A07DAFFF7EBFF00F0A1F93DE0FF
:100A8000FFF7E6FF10BD500002D500F0AEF935E0EB
:100A9000900033D5FFF7DCFF00F0ADF92EE0100237
:100AA000C00E18D0100202D500F007FC26E050025C
:100AB00002D500F046FC21E0900202D500F082FC55
:100AC0001CE0D002800F19D00320C004A0600020D9
:100AD000FFF7ADFF12E01005000F0FD0D00501D5D4
:100AE000FFF79FFF900501D5FFF795FF500501D552
:100AF000FFF78BFF100501D5FFF781FF206810BDC0
:100B000000206949401C8842FCD370471E20401ECB
:100B1000411CFCD1704700B5584A0620483A506144
:100B2000FFF7F4FF05205061FFF7EAFF5069042149
:100B30008843506100BD5D480121C160C168C9069C
:100B4000FCD5022101615B4A594911600021016015
:100B50007047F8B5514C2069022188432061474E07
:100B6000483E706840001ED530690921C906884397
:100B70003061206900270006494D002803DA2F70F4
:100B8000FFF701FF02E02F70FFF728FF0A2005F0B2
:100B9000C6FD3760FFF7CFFF3C483060706840000B
:100BA00002D4FFF755FFF8BD43490420086030BF69
:100BB000FFF74EFF2878002816D02F703F491420E9
:100BC000088021693E48884307D1206901218904B2
:100BD00088432061A068012809D07068400003D5CF
:100BE0002069022108432061FFF732FFF8BDFFF7BB
:100BF00092FFF8BD21494839CA6B012383409A43CB
:100C0000CA637047042805D81C4980003039401851
:100C1000002101607047042805D818498000303948
:100C20004018090701607047042807D8134A80005C
:100C3000303A8018052252078918016070470F4921
:100C4000383148600220C860C8688007FCD48868D2
:100C50001C490860704700B50A46402A34D2401E3D
:100C600008498000085891084018FFF7E8FF9007EE
:100C7000C10E14480068C840C0B200BD48C005405D
:100C800000E005403002002040020020100000B0CB
:100C900004400000FFFF000000A0044054020020B8
:100CA000B8000020008004400A2800000000064030
:100CB0000200FA5A0020064040200340880100202C
:100CC00080000400DC0000200020D6E700B51029D9
:100CD0000AD2401E344A8000105889004018FFF79D
:100CE000AEFF32480068C8E70020C6E7304A5060CF
:100CF00091600120D060D068C007FCD1704730B54A
:100D00000B46402B15D2401E2749800008589908F1
:100D100045182846FFF793FF244804689807C30E38
:100D2000FF20984084431146994021432846FFF70D
:100D3000DDFF30BD102907D2401E1B4B8000185824
:100D4000890040181146D1E77047194A403A90632C
:100D500017480221016001688907FCD4D06B15494E
:100D600008607047124A403A9063D16310480121ED
:100D700001600168C907FCD17047C106C90E012096
:100D800088400D4908607047C106C90E012088409F
:100D90000949803108607047C106C90E01208840AA
:100DA000064908607047000030020020DC00002087
:100DB00080C00540D800002000E100E080E200E0B3
:100DC00010B50020F74AC0439060F7490120086140
:100DD00000208860D060FFF72AFE01242046FFF73C
:100DE00011FF641C042CF9D910BDEF4801690222DF
:100DF000114301617047EC4801690422114301610C
:100E0000E849D00688607047E64801690922D206A1
:100E10001143016101214906816070470120E149C8
:100E200080068860704710B5DF4CA06801280CD19F
:100E3000DE4A002000211154401C0428FBD92079EF
:100E4000012802D8A278002A03D00020FFF7EFFD86
:100E500010BDD74A1154FFF7CDFE206901210904C6
:100E60000843206100210846FFF7DEFE10BD10B5E3
:100E7000CD4CA068012814D12078812811D1207987
:100E800001280ED8CA49095C0020FFF76BFF2069D2
:100E90000121C9030843206101210020FFF7C4FE9E
:100EA00010BD0020FFF7C3FD10BDF8B5BF4DBE4E0D
:100EB0003069800607D5B07810210124002700286A
:100EC00005D0012819D00020FFF7B1FDF8BDB760AB
:100ED0003069084330610127EC553846FFF792FE30
:100EE0007F1C042FF8D930690121090408433061BF
:100EF00000210846FFF798FEF8BDB46030698843CA
:100F0000306100242F55002C0CD02046FFF783FEC3
:100F1000A4480069611EC840C00703D000212046D4
:100F2000FFF782FE641C022CECD930690121090410
:100F30000843306100210846FFF776FEF8BD70B522
:100F4000994DA9680020FFF70DFFA868012806D178
:100F500001242046FFF75FFE641C022CF9D9954856
:100F600000210160286903218903084328610121C8
:100F70000020FFF759FE70BD10B50020FFF757FDA8
:100F800010BD10B5044618061204104309020843A8
:100F9000204310BDF8B5884F3C688348854EC08813
:100FA0003168884200D23060306800281DD00025AA
:100FB000E378A27861782078FFF7E3FF0146A80084
:100FC000FFF7D0FE241D6D1CEDB2102DF0D330685C
:100FD000402815D340210020FFF726FE3868403016
:100FE0003860306840383060F8BD00210846FFF7AF
:100FF0001BFE6C4881690122120711438161F8BD13
:101000003068C1B20020FFF70FFE00203060F8BD4D
:10101000F8B5002400206449684BCA780D798F78B0
:101020000C26014671435E5CB24211D1C9184E785C
:10103000B5420DD18E78B7420AD10C225043C01868
:1010400082885C4802605C4889680160012402E093
:10105000401C1028E4D3002C08D053490869012211
:10106000D20310430861FFF795FFF8BD0020FFF79A
:10107000DEFCF8BD10B54C4801692023994301619D
:1010800001694022114301618178002902D002697F
:101090001A430261017301690122120411430161C3
:1010A00000210846FFF7C0FD10BD70B53E4D287801
:1010B0004406640E000602D50020FFF7B8FC002CA1
:1010C00005D0022C0FD00020FFF7B1FC70BDA8782E
:1010D0000128FBD128693A490843286100210846C4
:1010E000FFF7A2FD70BDA8780028FBD12879400643
:1010F000400E411E0129F5D8A9680129F2D12B4AD9
:101100001154FFF794FC2869012109040843286160
:1011100000210846FFF788FD70BD70B5224D287884
:101120004406640E000602D50020FFF780FC002C68
:101130001AD0022C17D1A878002814D1287940069B
:10114000400E0022194BE10300281ED002280AD8C5
:10115000AC68012C07D11A54286908432861002182
:101160000846FFF761FD70BDA8780128FBD128690A
:101170008021884328612869114980390843286102
:1011800000210846FFF750FD70BD28698006FBD599
:101190001A7028690843286100210846FFF744FDBA
:1011A00070BD000000C0054054020020B9000020BE
:1011B000C8000020C4000020C0000020040000205F
:1011C0008001010070B5B84D28784406640EC0094E
:1011D00001D1FFF72CFC0126F603002C15D0012CC1
:1011E00027D0022CDCD128794006400E0228D7D81F
:1011F000AE49095C0020FFF7B5FD2869304328613E
:1012000002210020FFF710FDCAE72869000604D577
:1012100002210020FFF7A6FD03E000210846FFF7AA
:10122000A1FD28693043286102210020FFF7FCFC62
:10123000B6E7A8680128B3D168790028B0D1287929
:101240000128ADD800210846FFF78CFD28693043FE
:10125000286102210020FFF7E7FCA1E710B59248C2
:101260004078030005F06EFE0C070A250D251013CB
:1012700016191C1F2225FFF7A5FF10BDFFF74DFF14
:1012800010BDFFF712FF10BDFFF7F4FE10BDFFF712
:10129000BFFE10BDFFF770FE10BDFFF750FE10BD82
:1012A000FFF703FE10BDFFF7E2FD10BDFFF7BBFD2A
:1012B00010BD0020FFF7BBFB10BD7CB533207C4C7C
:1012C000C004A0600020FFF7A6FC6068400331D492
:1012D000754C20690321C903884320610020FFF772
:1012E00034FD744D286801900420FFF72EFD286816
:1012F00000900198C0B220700199090A61700199AB
:10130000090CA1700199090EE170009921710099F1
:10131000090A61710099090CE180602108400028E8
:1013200002D0202803D008E0FFF798FF7CBD00F032
:1013300007FA7CBD01208004A0600020FFF777FB46
:101340007CBD70B501205A4E8005B0605A4DA87C16
:10135000022815D10020A8746869584988420DD127
:10136000A8695749884209D10024A0000021FFF74D
:10137000F9FC641C402CF8D3FEF7E8FE0420A874A6
:10138000494C20694F4D40060CD5206940218843C7
:101390002061207BF0600020FFF749FB2069A84313
:1013A0002061FDE6E088002808D02069C00305D44C
:1013B000FFF7F0FD2069A8432061F1E60020FFF768
:1013C00036FBEDE6F8B501213948490581603A4D13
:1013D000A87C384E012819D0686D80050DD5686D40
:1013E0000913884368650020FFF7AFFC3068287058
:1013F000686D01214903084368652B4C206900048E
:1014000025D400210846FFF70FFC29E00024A000A6
:101410000746FFF79AFC306879194861641C102C64
:10142000F5D30220A87468692449884203D1A869C9
:1014300023498842E1D024480122017811430170F8
:10144000224800780428D8D102F000FAD5E71848DD
:101450004168C90104D481690122D2061143816126
:1014600020690121C90388432061F8BD00200F4A8B
:1014700000211154401C0528FBD30020144A1154AC
:10148000401C0428FBD30848017041708170C17072
:1014900001714171C18081600173016901225204AF
:1014A000114301617047000054020020B900002080
:1014B00000C00540D800002068020020AA42895AD6
:1014C000FF7162CC00000100E40000205C010020FC
:1014D000C800002010B5B84A107821281BD1B749A0
:1014E000486D01231B03184348651079012812D861
:1014F0009078002804D14B6D0324A402A3434B65CC
:10150000487410690121090408431061002108464C
:10151000FFF78AFB10BD0020FFF789FA10BD10B558
:10152000A5480178212914D101690122120411432F
:101530000161A2494A6D0123DB021A434A6502791F
:10154000012A06D8C078087400210846FFF76CFB12
:1015500010BD0020FFF76BFA10BD10B597490120B0
:10156000887400210846FFF75FFB10BD10B5924854
:10157000016901221204114301619048416DD211A9
:101580001143416500210846FFF74EFB10BD10B521
:1015900089480178212907D10179002904D1C0782F
:1015A000022805D0032806D00020FFF740FA10BD1E
:1015B000FFF7DCFF10BDFFF7D0FF10BD10B57E4C6C
:1015C0002078A12816D17D48416DC90401D401219C
:1015D0004174217901290DD8417C0020FFF7C2FB1D
:1015E00020690121C9030843206101210020FFF780
:1015F0001BFB10BD0020FFF71AFA10BD10B56E4896
:101600000178A12908D16D494A6D0123DB021A43F3
:101610004A650279002A03D00020FFF708FA10BDBE
:101620000A7C67490A6001690122D2031143016102
:1016300001210020FFF7F8FA10BD10B56149002024
:1016400008605D4801690122D2031143016105214F
:101650000020FFF7E9FA10BDF8B55B4E02213078A3
:10166000084330700024554DA0004119496900918C
:101670000099FFF777FB641CE4B2102CF4D34E48BA
:1016800001690122D2031143016140210020FFF7CB
:10169000CBFA687DAB2806D13078FD210840307048
:1016A0004A4904200870F8BD10B54448017800206C
:1016B000FFF758FB404801690122D2031143016141
:1016C00001210020FFF7B0FA10BD10B53D49002000
:1016D0000860394801690122D203114301610821E0
:1016E0000020FFF7A1FA10BD10B533480178A129F9
:1016F0001FD1816801291CD10179C078002902D04D
:10170000012910D015E0012804D0022805D00328B3
:1017100006D00EE0FFF7D9FF10BDFFF7C5FF10BDE3
:10172000FFF79AFF10BD2549497C012901D1012805
:1017300003D00020FFF77BF910BDFFF77EFF10BD3F
:1017400010B51D484078030005F0FCFB0C19070A92
:101750000D191919191910131619FFF7C5FF10BD26
:10176000FFF74CFF10BDFFF729FF10BDFFF70FFF7C
:1017700010BDFFF7D4FE10BDFFF7ACFE10BD00207A
:10178000FFF755F910BD10B50E49002008600A4852
:1017900001690122D2031143016105210020FFF7F5
:1017A00043FA10BD05487D210174012141740021D7
:1017B00081744165704700005402002068020020D7
:1017C000E0000020C4000020E40000205C010020B4
:1017D000F0B591B00020534A534B544D00244100C2
:1017E00054525C526C52401C80B27E28F7D30120C8
:1017F00004F0C9FF04F00BFF002507273F0301AEEB
:101800000020AA0181008B18DB191B687350401C53
:1018100080B21028F6D30120C003101801AA1021AD
:1018200004F088F86D1CADB2162DE9D3414940484B
:10183000C860002081007450401C80B21028F9D389
:1018400001AA10213C4804F075F8432001AA102198
:10185000400204F06FF8384801AA1021D03004F09B
:1018600069F8872001AA1021000204F063F804F04F
:10187000C7FE11B0F0BDF8B58C46002429490026FA
:1018800065004E53284F7E53284F7E53641CA4B2EC
:101890007E2CF5D30021294C455C6554491C89B246
:1018A0004029F9D3002105E065466D5C8E18A555E9
:1018B000491C89B29942F7D3204A402104F00AF822
:1018C000012800D1FEE7F8BDF8B58646944600240D
:1018D0001448154F154A0026650046537E5356534B
:1018E000641CA4B27E2CF7D30020144A03E00C5CE5
:1018F0001454401C80B29842F9D3704660440446A8
:101900000E4A402103F0E6FF012809D00B4A204689
:1019100040304032402103F0DDFF012801D1FEE7D5
:10192000FEE7F8BD9A090020960A0020920B0020DD
:10193000AA55FA5A0000014080850000E6110020F7
:10194000F8B51420F84EF94D0127401EC0B200240E
:101950003168890600D501243168C90601D5022104
:101960000C43E97AA14204D0022004F00CFFEC728F
:1019700014200028E9D1E87AED49C3070022002BA2
:1019800001D00F7000E00A70E84920394F778307D3
:1019900000D54A774B7F002B00D08A732873F8BD9F
:1019A000E2490020393148700320253908700220AF
:1019B000091F0870DF4901200870DC4906202C311E
:1019C0000870DD4905200870BAE770B50021D648D7
:1019D000026801239206002A00DA01210068C0068D
:1019E00001D502200143D148C27A8A4203D00A229B
:1019F0004273C17270BD417B0029FBD0491EC9B240
:101A000041730029F6D1047B114661400029F1D0D1
:101A10000273CD070024C648002D13D0D10709D08A
:101A200003700BF035FB02F01DFCFEF77BFFC34893
:101A3000047070BD04700BF02BFB02F0B8FBFEF7D6
:101A40002AFF70BD8907FCD5B84920394B7792072A
:101A500000D54C7700780128F3D1487F002802D0C8
:101A600002F0CBFC70BD02F0F8FC70BD704770B5A1
:101A700000240020AD4D3935295C0C43401CC0B218
:101A80000828F9D3A94A0123203A0021002C06D0C6
:101A9000937400202954401CC0B20828FAD30024B3
:101AA0000120A44D2E5C3443401CC0B21028F9D351
:101AB000002C06D0537501202954401CC0B21028B8
:101AC000FAD300240120994D14352E5C3443401C78
:101AD000C0B20328F9D3002C06D0D37401202954B6
:101AE000401CC0B20328FAD3904810304478002C30
:101AF00001D013754170002401208C4D2C352E5CD3
:101B00003443401CC0B20528F9D3002C06D093758D
:101B100001202954401CC0B20528FAD3517270BD6F
:101B2000F0B5824B203B187A1C4601464207E57A05
:101B3000A039520F0124072914D89C741846593033
:101B40000078012D07D07E495933895CFF2251402E
:101B500008401870F0BD7A4B74499A5C39311043D3
:101B60000870F0BD0146B0390E461F2912D8DC744A
:101B70006E4903221431012D04D00A7000204870F0
:101B80008870F0BD6F4B7000185A0A704870000AD8
:101B90008870F0BD0146A839022918D81C75634A1F
:101BA000674C103210463038007A022320185178E2
:101BB000C038012D06D01370007EFF23584001402D
:101BC0005170F0BD1370007E01435170F0BD574B52
:101BD000203B1E46597A59361B7A7718DE08554B3A
:101BE000F318012D13D0002950D0504DBE78203D60
:101BF0006D7A6D1EAE46EDB2AC46864229D100210B
:101C00004A4DB970203DAC74614669723EE0474D63
:101C1000203D052912D200290BD000222B46593332
:101C200005E09E18B6788642D0D0521C92B28A4205
:101C3000F7D3B870491C6972AC74F0BD7828FCD237
:101C40006C753C4804703E495878895C084358706C
:101C5000F0BD0026354F393716E0BD19AD78854205
:101C600010D13249203904E0B819C2788270761C4C
:101C7000B6B27645F8DB0020BA1990708C746046D5
:101C80004872F0BD761CB6B28E42E6D327492039A1
:101C90007828F6D24C752748047029495878895C11
:101CA000FF22514008405870F0BDF8B51F4C207A13
:101CB00000286AD0274644373868401C3860796865
:101CC000884262D300253D602046243026460088A5
:101CD000203EB16C80004018416809010909796013
:101CE000C27869460A70807848700021D30900D014
:101CF000012170231A406B461A700C4B2C33102AAA
:101D000004D0202A20D0302A20D02DE00122B27524
:101D1000064A2C325278002902D002435A7023E03E
:101D200082435A7020E0000000A004400801002017
:101D3000A4010020040300208A0100207C0100206F
:101D4000F6790000B679000018710DE03072024695
:101D5000E03A072A01D840383072F572002901D0E4
:101D60000120F072FFF7DCFEF8490888801C80B281
:101D700008804A88904208D3A079002802D0012820
:101D800004D010E02572FFF772FEF8BDEF4A123A58
:101D90001078401CC0B210705278904203D3257264
:101DA000FFF765FEF8BD6079E94A80008018006C95
:101DB000E74A403280183D600A227A600D8002882E
:101DC00008304A80B064F8BD10B5E048E14A4438B4
:101DD000437E0021002B04D04176C37D012B0CD023
:101DE0000CE0C17501234376DB48018000201154CB
:101DF000401CC0B24028FAD310BDC175C17D11701E
:101E0000007E00280DD0012812D0022818D0032807
:101E1000F2D1872040230022CE490002FFF72BFD9C
:101E200010BD40230022CB49CC48FFF724FD10BD54
:101E3000432040230022C7494002FFF71CFD10BD8C
:101E4000C64840230022C349D030FFF714FD10BD1F
:101E5000F8B5BE4F0024443F797E3846C07A002949
:101E600014D0B97A002911D13A7AAF2A05D0F97D78
:101E7000402903D33C72FFF7A7FFF8BDB54B5A5476
:101E8000491CC9B25854491CF9753C72B44B397A93
:101E90001A780125F02956D0AD2973D0F7296ED0D4
:101EA000D1296DD0EE296CD0A84AAE4B243A1279D4
:101EB000D32994461A786FD0AB4E8D2936786CD0E2
:101EC0008E296BD08F296AD0902969D0912968D04A
:101ED000922967D0EF2975D09C2974D0A34EA44FC6
:101EE000367800963E78DA296ED0DB296DD0974F90
:101EF000443FD0296AD0D82969D0E72968D09D4EBF
:101F0000D62936786FD0D7296ED0D4296DD0D5296F
:101F10006CD03A46127B3A2969D03B2968D03C29DB
:101F200067D03D29A9D10028A7D0872000020078DA
:101F30000028A2D0002AA0D17C703D7303203876FF
:101F40003C72FC75F8BD3C720028FBD0002A0BD017
:101F5000012AF7D11C700BF09BF802F028F9FEF76C
:101F60009AFC0BF0D3F8F8BD1D700BF091F802F05D
:101F700079F9FEF7D7FC0BF0C9F8F8BD02E019E0DB
:101F800029E039E03C72012AF7D17B4E01280AD0C2
:101F900034707A480470F0E73DE06CE087E0A5E03B
:101FA00010E140E162E102F098F90A2004F0EBFB55
:101FB0003570E2E73C720128DFD1F87B002808D0B9
:101FC000FC73DAE775E182E18CE19CE1ABE129E2A7
:101FD00033E2FD73D1E73C720128CED1B87B0128F2
:101FE00008D0BD73C9E72EE239E244E252E260E272
:101FF0006DE27BE2BC73C0E73C720028BDD0604953
:102000000878401CC0B20870032800D30C7008F098
:10201000F5FA3D77B1E73C720028AED059485A49ED
:10202000007809780843A8D16046002802D00BF058
:1020300077F8A2E7012A1BD00120C00300791870AD
:102040000120C00341794B48017008F0D9F94F488D
:10205000057045490878401CC0B20870132800D3A9
:102060000C700AF0D9FC0AF005FD0BF011F884E7BA
:1020700005201870E4E73C7200288CD03A48062E00
:1020800089D0062101700720000301791970417978
:102090003848017008F0B4F93C4805703C480470B9
:1020A0000AF0BAFC0AF0E6FC0AF0F2FF65E73C72BF
:1020B000002886D02C48052E15D005210170072058
:1020C00000030179197041792A48017008F098F9E4
:1020D0002E4805702E4804700AF09EFC0AF0CAFCD7
:1020E0000AF0D6FF49E707210170E8E73C720028B3
:1020F00090D01D480A2E25D0092E4BD00B2E4CD047
:10210000082E4DD0032E4ED0102E4FD0042E50D07E
:10211000112E51D00F2E52D00A210170072000033A
:102120000179197041791348017008F069F917486D
:102130000570174804700AF06FFC0AF09BFC0AF067
:10214000A7FF1AE709210170E8E700002C01002031
:102150008097000014030020D60100208085000035
:10216000A4010020BE010020AD010020B701002025
:10217000A8010020C0010020D3010020860100201A
:10218000AA01002002000020D4010020AF0100209D
:10219000C20100200B210170C0E708210170BDE7DA
:1021A00003210170BAE710210170B7E70421017023
:1021B000B4E711210170B1E70F210170AEE71221E0
:1021C0000170ABE73C7200288CD0FD48002E1CD07B
:1021D000012E1CD00D2E1DD00E2E1ED00C2E1FD069
:1021E000047007200003017919704179F5480170E6
:1021F00008F006F9F4480570F44804700AF00CFC85
:102200000AF038FC0AF044FFB7E60570E9E70D2153
:102210000170E6E70E210170E3E70C210170E0E7B1
:1022200002210170DDE73C7200288AD007200003FC
:10223000017919704179E348017008F0E1F8E2484A
:102240000570DF49087806280AD007280BD0062039
:1022500008700AF0E1FB0AF00DFC0AF019FF8CE6A9
:1022600007200870F5E708200870F2E73C720028A4
:10227000CAD007200003017919704179D148017053
:1022800008F0BEF8D0480570CD49087810280AD06B
:102290000F280BD0102008700AF0BEFB0AF0EAFBF2
:1022A0000AF0F6FE69E60F200870F5E711200870C5
:1022B000F2E73C72C6490878401CC0B20870082892
:1022C00000D30C700AF064FE0AF0E2FE55E63C72A0
:1022D000002899D0BF480178002901D004704CE64D
:1022E00005704AE62246BC4C227200288CD0002E93
:1022F00002D10098401C38703878401E38700AF0BF
:10230000B9FB257739E62146B34C21720028A6D0C7
:10231000761CF0B23870009A904200D939700AF0F9
:10232000A9FB257729E63C72002898D0AB480078B5
:10233000122894D1AA480178002925D00470082ECB
:102340008DD3A848017801292AD0022930D0032949
:1023500037D004293ED021208002052943D0062908
:1023600047D0FF220132072949D008294CD009293A
:1023700051D0002996D1FF2201207E2381329A4933
:10238000C003FFF7A1FAF8E5057098480480002023
:10239000954AFF211154401CC0B27E28FAD3ECE5C7
:1023A000012252027E2390499001FFF78DFAE4E565
:1023B000052201207E23D2018B49C003FFF784FA56
:1023C000DBE5032201207E2312028749C003FFF7C9
:1023D0007BFAD2E5072201207E23D2018249C00385
:1023E000FFF772FAC9E57E2300227F49FFF76CFAF6
:1023F000C3E57E2380227C49FFF766FABDE57E2394
:102400007949FFF761FAB8E580227E237649100208
:10241000FFF75AFAB1E501207E237349C003FFF7A5
:1024200053FAAAE53C720028ADD06848017800292B
:1024300001D00470A1E505709FE53C720028A2D090
:102440003D73FC7599E53C7200289CD05D48052ED3
:1024500099D2761C06705C4805703D778DE53C721C
:10246000002890D05748012E8DD9761E0670564808
:1024700005703D7781E53C72002884D060460028D5
:102480008DD1052A8BD2521C1A7007F0B9FF0AF0C1
:10249000FFFD72E53C72002889D06046002886D195
:1024A000012A84D9521E1A7007F0AAFF0AF0F0FD23
:1024B00063E5002884D04E480078002889D0002A9F
:1024C00087D17C703D733C763C72FC7555E50028E5
:1024D00088D0432040020078002889D0002A87D184
:1024E0007C703D733D763C72FC7546E5002885D0D6
:1024F0003F48C030007C002885D0002A8AD17C70FB
:102500003D73022038763C72FC7536E5F8B5324AE8
:102510000024117A10461E25C07AD2290CD0354BE2
:102520000127354E527C1B78F12916D0F2292FD085
:10253000F32972D0012020E500280BD02F48017824
:10254000002905D00470FFF743F907F0A3FF02E06C
:10255000557400E0547400200FE5012B16D11E497C
:10256000002810D04D742649032008705120307087
:102570008120707023480770234807700AF088FD97
:102580002248047002E0002A00D04C740020F4E4D9
:10259000012B40D1104900283AD04D74184903202E
:1025A00008705120307082207070164807701648ED
:1025B000022101700AF06CFD144804702BE02CE03D
:1025C000AD010020C0010020AF010020C2010020A9
:1025D000AB010020CC010020E8000020A901002070
:1025E000BC010020C30100201C050020D6010020F2
:1025F00080850000A40100208A0100200200002044
:102600007B0100207D010020810100207C01002051
:10261000002A00D04C740020AFE4012B17D1FD49F3
:10262000002811D04D74FC490320087051203070EF
:1026300083207070F9480770F948042101700AF08E
:1026400027FDF848047002E0002A00D04C740020F6
:1026500093E410B50020EF49F34B097AF34A05E003
:1026600044001C5D8C4205D0401CC0B21488A042BE
:10267000F6D3FF2010BDF0B5E64DED4EE87A2C46BE
:102680002034EC4F002854D0FFF7E3FFFF2817D089
:10269000697F002915D0A97A00293DD061780029E9
:1026A00034D0E5494200511849782972D94BC10804
:1026B00051334407E148640F5A5C005D02435A54A9
:1026C000F0BDA97A002916D0A17A00290ED04100C8
:1026D000C91949782972CF4BC10851334407D748EB
:1026E000640F5A5C005D02435A54F0BD41008919E1
:1026F00049782972EFE7A17A002903D04000385CBD
:102700002872F0BD4000305C2872F0BDCC49420018
:10271000511849782972C9E76178002904D041002D
:10272000C548405C2872F0BD4100C548405C287235
:10273000F0BDFFF78EFFFF28FAD0B64AC1088C46DD
:102740005132515C4307BD4A5B0FD25C114223D02A
:102750006B7F002B0DD06378002B17D04300B64859
:10276000181840782872AB48513091436246815422
:10277000F0BDA37A002B04D04000C0194078287225
:10278000F1E74000801940782872ECE74300AC483C
:10279000181840782872E6E7697F002907D0617829
:1027A00000290FD04100A448405C2872F0BDA17AF6
:1027B000002903D04000385C2872F0BD4000305C36
:1027C0002872F0BD41009E48405C2872F0BDF8B50B
:1027D0009C4800260680934801789B48002902D037
:1027E0009A49016002E0FF2191310160894F387AF6
:1027F000002851D0797F3C465934002925D0A328A0
:1028000008D0A22809D0A7280AD0A6280BD046288D
:102810000CD01AE0A220387217E0A320387214E01E
:10282000A620387211E0A72038720EE021203872FD
:102830007848F97A59300078002903D00A210843F2
:10284000207002E0F52108402070FFF714FF397A6C
:1028500001253B46AE2920D06E481E272030E229B4
:1028600026D00222AC293BD0E52951D0AB296DD02E
:10287000E3297DD0D9297CD0E1297BD0E4297AD005
:10288000E62979D0DE2978D0DF2977D0187C1F4659
:10289000002874D0FFF7EBF808E41E72D87A0128FC
:1028A000FAD1187C012801D01D741BE41E7419E4B0
:1028B000D97A00290ED0997A0029F6D001782943D7
:1028C0000170C8438007F0D1614800780128ECD13D
:1028D0005F7407E401784908490001705E7430E4D0
:1028E000D97A00290ED0997A0029F8D001781143BD
:1028F0000170C8438007F2D1554800780128EED115
:102900005F741EE401788908890001705E7418E420
:10291000D87A002814D0987A0028E0D0987F1C46F6
:1029200028439877C0438007D9D14A4801780029C5
:1029300004D00670FEF74CFF07F0ACFD677463E44B
:10294000987F4008400098775E745DE4D87A00284C
:102950001DD0987A0028F2D0987F1C4610439877B3
:10296000C0438007EBD13B48017800290DD007E038
:1029700013E026E039E080E093E0A6E0B9E0CCE0A7
:102980000670FEF725FF07F085FD67743CE4987F2D
:102990008008800098775E7436E4D87A00280AD0E0
:1029A000987A0028CBD0D87F2843D877C0438007B7
:1029B000C5D15F7428E4D87F40084000D8775E74A2
:1029C00022E4D87A00280AD0987A0028B7D0D87F95
:1029D0001043D877C0438007B1D15F7414E4D87F27
:1029E00080088000D8775E740EE4D97A002941D03F
:1029F000D97F042211431C46D97705231A468A43FE
:102A000015492BD00079002899D1087800282FD0BB
:102A10000E7024E4E80000207B0100207D010020EE
:102A2000810100207C010020D3780000FE6F0000AF
:102A3000477800008D7800005F790000F67900008B
:102A400019790000A20100209801002070170000F1
:102A5000A401002002000020D40100200E70F848DC
:102A60000178012902D1037007F0CAFC677419E4E8
:102A70000D7017E4DE775E7414E4D97A00290AD069
:102A8000997A0029F3D0817829438170C84380075F
:102A9000EDD15F7406E481784908490081705E7465
:102AA00014E4D97A00290AD0997A0029F8D08178DB
:102AB00011438170C8438007F2D15F7406E48178C6
:102AC0008908890081705E7409E4D97A00290AD0E6
:102AD000997A0029F8D0C1782943C170C84380078A
:102AE000F2D15F740EE4C17849084900C1705E7488
:102AF00008E4D97A00290AD0997A0029F2D0C1785D
:102B00001143C170C8438007ECD15F740AE4C178F7
:102B100089088900C1705E7404E4FFF7F7FC00289F
:102B2000F4D07E74FFF794F93A7A002AEED0B87B9D
:102B3000012803D0C3480078000605D5A32AE5D0B4
:102B4000A72AE3D0652AE1D0F72108209D2A04D0E6
:102B50009E2A0FD09F2A1AD020E015223A72FA7AC4
:102B6000002A03D021780143217017E022780A401F
:102B7000227013E0FA7A012A05D022780A402270E6
:102B80002B2139720AE0217801432170F8E7FA7AA3
:102B9000012A2BD022780A4022703872397AF8291B
:102BA00008D3FA7BA84B002A24D04907090FC9187B
:102BB00049783972A34909788A0604D53A7AA22A53
:102BC0001DD02B2A1DD0490604D5397AA2291AD046
:102BD0003D291AD0397AAF2919D0F5292ED0F629F6
:102BE00072D09A48007812286FD006E1217801430C
:102BF0002170D2E74907090F595C3972DAE73E7252
:102C000008E43E7206E43E7204E43E7209E43D715B
:102C1000BE72F87A01280FD0387F002802D00AF05F
:102C200037FA3E77787F0028F0D0BD74E671F87AE5
:102C30000028EBD0E57105E4BD72F3E7F97A0129CC
:102C4000F9D1797F002947D0BD748148C571814C85
:102C50002078002826D001F0D9F80A2003F093FD4F
:102C6000BD747B4E0020F0712078002820D001F048
:102C7000CDF80A2003F087FDBD74F5712078002897
:102C80001CD001F0C3F80A2003F07DFDBD740020C4
:102C9000F0712078002819D001F0B8F80A2003F06C
:102CA00072FD05E408226A490120FDF753FDD4E7CF
:102CB000082267490120FDF74DFDDAE70822644943
:102CC0000120FDF747FDDEE72DE092E00822604994
:102CD0000120FDF73FFDE1E7BD745D4908700B2061
:102CE00088705C4C2078002811D001F08FF80A2001
:102CF00003F049FDBD7456480670867020780028A0
:102D00000BD001F083F80A2003F03DFD13E4082204
:102D10004F490120FDF71EFDE9E708224C4901203B
:102D2000FDF718FDEFE7F97A0129EFD1797F002946
:102D300038D00120B874A670E071464D287800287C
:102D40001ED001F063F80A2003F01DFD0120B874C5
:102D50002C21A170E0712878002817D001F056F8D6
:102D60000A2003F010FD0120B874A670E6712878DF
:102D7000002811D001F04AF80A2003F004FD06E40F
:102D8000082233490120FDF7E5FCDCE70822304941
:102D90000120FDF7DFFCE3E708222D490120FDF7C4
:102DA000D9FCE9E7BD742A49087006208870294CCF
:102DB0002078002811D001F029F80A2003F0E3FC64
:102DC000BD74234806708670207800280BD001F06F
:102DD0001DF80A2003F0D7FC1EE408221C4901203C
:102DE000FDF7B8FCE9E7082219490120FDF7B2FC1C
:102DF000EFE7194800780128EED0787E0028EBD163
:102E0000FEF78EFE08E470B50020114D593D69783B
:102E1000491CC9B26970142946D300246C70297BFF
:102E200001291BD0687B00283ED02E462036F07941
:102E3000401CC0B2F071C1073BD0FEF718FE40E065
:102E4000BE0100205D010020A5790000A90100203D
:102E500041010020A4010020BC010020297E00299E
:102E600006D0012906D0022907D0032908D009E09D
:102E7000FB4807E04320400204E0F948D03001E07D
:102E800087200002E97D425C002A0ED040290CD246
:102E9000425C2A72491CC9B2E975405CE872491C5F
:102EA000E975EC76FFF793FC70BD2C73FEF7DFFD40
:102EB00070BD0121E972A96C4008085C2872FEF718
:102EC0002FFEF0790728F3D36C7370BDF8B5E54990
:102ED00001208876E448CA7A0578C879E34FE44946
:102EE0004000C3190978E34C072D03D0E24E082DAA
:102EF00028D072E03D5C5878EB001B191C5CDF4861
:102F0000002A14D00078DE4A401E1055082902D04D
:102F1000FF2904D00FE0204607F06BFD0BE0D948F5
:102F20000079012807D1204607F063FD03E001780E
:102F3000D348891E0155D248015DD348415CD3482E
:102F40000155A9E4002A48D0385C5978715CD04E0C
:102F5000325C0A433254CF4A135C0B4313540120B2
:102F6000174631182039CA7F335C1A43CA771321B8
:102F7000091A3A468D18203D7B5CED7F2B437B542C
:102F8000401CC0B21328ECD30025C148475DC1489E
:102F9000405D07430026F80715D0FF21E80000191F
:102FA000805DBA4A1154B2490978082902D0FF2934
:102FB00003D008E007F01DFD05E0B24909790129B9
:102FC00001D107F016FD7F08761CF6B2062EE2D37B
:102FD0006D1CEDB2132DD8D35EE4092D02D00F2D58
:102FE00025D074E03D5C5878EB001B191C5C002A6E
:102FF00003D0A3480021015512E0A14A0120105539
:10300000082902D0FF2904D00AE0204607F0F1FC8D
:1030100006E09C480079012802D1204607F0E9FC2F
:103020009748015D9848415C9848015534E4002A6E
:103030004DD0385C5A78B25C954B1A54954E325448
:10304000954B1A54954B1A54082902D0FF2906D0E3
:103050000EE0C0000019805C07F0CBFC08E0894955
:103060000979012904D1C0000019805C07F0C1FC76
:10307000002587488949475D8648495D405D07438B
:103080008548405D084307430026F80715D0FF2117
:10309000E8000019805D7D4A1154754909780829B6
:1030A00002D0FF2903D008E007F0A3FC05E0754932
:1030B0000979012901D107F09CFC7F08761CF6B242
:1030C000062EE2D36D1CEDB2132DD2D307E4122DE0
:1030D00002D1644E002A1FD0132DF7D1002AF5D05B
:1030E000385C6B4B3F221A546A490A5400256848E1
:1030F000475D6848405D07430026F80740D0FF2140
:10310000E8000019805D614A11545949097808297D
:103110002DD0FF292ED033E0B27A002A12D000221F
:103120005F4D2D782A42D1D0385C5A78C000001902
:10313000805C5C4A082909D2135CFF2B04D0FF2174
:1031400011540DE00122EBE7115409E0115CFF2955
:103150000AD0491C1154115C082901D3FF211154D4
:1031600051490120087011E400211154F3E707F0E0
:1031700040FC05E043490979012901D107F039FCF8
:103180007F08761CF6B2062EB7D36D1CEDB2132D58
:10319000ADD30FE470B5334C444A6179A06B89001C
:1031A00050500025A571206CC00712D06079A1791C
:1031B000C0004018C0B2E071E572218FC90701D08C
:1031C0000121E1723A49085C2072FFF77FFEFFF7A8
:1031D000FEFAA06B4008A063206C40082064A07930
:1031E000401CC0B2A0710628DDD370BD70B51D4C67
:1031F0000025A078002829D062792C499000095830
:10320000A06B41402164002916D0E17802220029F8
:1032100008D0E36B83420CD1491EC8B2E07000288D
:1032200003D010E0E270E0630DE0E563FFF7B2FF6A
:1032300009E0E270E06306E0E570521CD0B2607114
:10324000112800D36571FFF7DEFDA5700548203019
:10325000417A002902D04572FEF727FD70BD0000BB
:1032600080850000E8000020A9010020B37B000059
:10327000A8010020037D0000F6790000DE7F000039
:1032800018060020700100205E7F0000820F0020E1
:10329000BD040020D0040020E3040020F604002038
:1032A000BC0100201C050020AE010020C00200204F
:1032B0009F770000FE4801218176FE4909780229A6
:1032C0000CD1C079FC4A4000115C80184078FB4A60
:1032D000C9008918085CFA4AFF211154704730B5BB
:1032E000F34B00249C71F74D98798000285898631F
:1032F0005C71188FC00706D058799979C0004018C2
:10330000D871FFF7D7FF986B400898635879401C35
:10331000C0B258711128ECD39879401CC0B2987192
:103320000628E1D330BDF8B5E14CA078002844D0A0
:103330002046E04FC18D3A78481CE24E002580B20D
:10334000012A02D0022A06D019E07D221201914200
:1033500015D2E08513E02178002910D1A179A26B64
:103360008B00F250491CC9B2A171062907D3A5717F
:10337000E085042803D901202070FFF7B0FF3878DA
:10338000022802D12078002816D0A079A16B8200F3
:10339000B1503178012909D131890904090E402938
:1033A00004D1B18A4905490F022907D0401CC0B297
:1033B000A071062800D3A571A57021E4FEF708FAD4
:1033C000C14805614561FEE7C0484168FF2212021D
:1033D00091434160BE484168490A490241607047D3
:1033E000F0B5BA49B2488A1547794C150D15CE1477
:1033F000B7483B0003F0A6FD150C1014181C22283A
:103400002E34393E43484D52575C6064686C0F005F
:10341000486A10434862F0BD486A20434862F0BDE4
:10342000486A28434862F0BD486A30434862F0BDAC
:10343000486A0122120310434862F0BD486A012223
:10344000520310434862F0BD486A012292031043C0
:103450004862F0BD486A0122D20310434862F0BDC1
:10346000416A012211434162F0BD416A02221143C7
:103470004162F0BD416A042211434162F0BD416ADC
:10348000082211434162F0BD416A1022114341629A
:10349000F0BD416A202211434162F0BD416A4022E1
:1034A00011434162F0BD416A802211434162F0BD87
:1034B000416A11434162F0BD416A21434162F0BD5E
:1034C000416A29434162F0BD416A31434162F0BD26
:1034D000426A012109030A434262F0BD7B48016848
:1034E000FF2212029143016079480168490A4902AA
:1034F0000160704775484168FF2212021143416024
:1035000073484168734A11434160704710B5002405
:10351000FFF7F0FFFFF7E2FFFFF762FF052003F080
:103520001DF96D480068000400D501246B4801684E
:10353000090501D502210C430168490501D5042183
:103540000C430168890501D508210C430168C905B0
:1035500001D510210C430068000601D5202004434A
:10356000204610BD70470020704758480168FF2270
:1035700012021143016056480168564A1143016026
:103580007047F0B551494A488A1547794C150D15D1
:10359000CE144F483B0003F0D5FC150C1014181C3A
:1035A00022282E34393E43484D52575C6064686C83
:1035B0000F00486810434860F0BD486820434860E9
:1035C000F0BD486828434860F0BD48683043486013
:1035D000F0BD48680122120310434860F0BD4868FE
:1035E0000122520310434860F0BD48680122920353
:1035F00010434860F0BD48680122D2031043486080
:10360000F0BD4168012211434160F0BD41680222D2
:1036100011434160F0BD4168042211434160F0BD97
:103620004168082211434160F0BD416810221143F6
:103630004160F0BD4168202211434160F0BD416806
:10364000402211434160F0BD416880221143416036
:10365000F0BD416811434160F0BD416821434160C4
:10366000F0BD416829434160F0BD4168314341608C
:10367000F0BD4268012109030A434260F0BDFEB576
:1036800093200002C06B1649884201D00120FEBD84
:1036900007491448CA79805C80000190124A019859
:1036A0008018006C6B46C2B21A7003041D0E1DE038
:1036B000E8000020A9010020B37B0000037D00008A
:1036C000820F0020C002002000C0054000400440DE
:1036D00000600440FF0100000080044000A004409E
:1036E0000000AA55F7760000809000006B465D70E0
:1036F00003021E0E6B469E70000ED8700290002AC8
:103700000BD00C46E07A00272034130003F01AFC9B
:1037100008910721313C455385910120FEBD0122CE
:103720008A75454B012D02D0032D0ED081E0F206A3
:10373000D20E69468A7040490028497802D0114368
:10374000597076E09143597073E0002871D01E7172
:103750006FE0394B0D331A78002802D02A431A70D3
:1037600001E0AA431A70012088740E72002E60D006
:10377000FEBD0122CA74304918394F708F7000287D
:1037800057D04D708E7054E001220A752A491C39B9
:103790004F7001284DD14D704BE0022D09D1012809
:1037A00007D1264A1070264805220270477086709D
:1037B000C7700F723DE0002828D0207A002807D07B
:1037C000FEF755F9A079022824D01B484C3807721F
:1037D0006571A67118481A38077002994170E7712F
:1037E0001849A8004018144A006C4C3A1549403159
:1037F000401801212172134664331F60596011463D
:1038000044310F80038808304B8090640A484C385C
:1038100007720EE027720020FEBD002808D00120AC
:1038200048734F70084B019AD2188A64E071CF71C7
:103830000F720020FEBD7047340100207D01002082
:103840008A01002080970000C090000010B5F74961
:103850000878C20709D0400840000870F44803F017
:103860004FFBF44988600320087010BDF0B5F048A4
:103870001438047D437DED4EEE4A31780027CD07A4
:103880009078002D1ED0EA4D143D49084900317052
:10389000042C01D1022B07D0FF20E875D780977048
:1038A000377097601770F0BD0121E975916829762E
:1038B0000B0A6B760B0CAB76090EE97610210843E8
:1038C0009070EBE78907EED5C006ECD5D7809770EE
:1038D00037709760D7601770F0BD70B5D648017823
:1038E000D44C14342170417861708178A170C17812
:1038F000E170017A2171417A6171817AA171C07A96
:10390000E071CE4800210170E1790125012903D041
:10391000E179022902D002E0057000E0057021780B
:10392000C748002914D02178802911D02178491E58
:1039300001706079C349087006F062FD09F09AF8D9
:10394000A079C1490870C148057006F06CFE70BDD1
:1039500013210170EDE738B5B64C00222271B3494E
:103960000878C30750D0400840000870E280206902
:10397000E16880004018AE4A102101F0DBFF2069A9
:10398000E268800010580090B14882420DD1017861
:10399000038805681B09ED0A2B4305680079AD0C07
:1039A0002B43C00103430B4363700020009B00992D
:1039B0001B04C9B21B0EC918009B1B021B0EC918A1
:1039C000009B1B0EC918A368C918A1602169491C76
:1039D0002161890051580091001DC0B24028E5D3F3
:1039E000E078401EC0B2E07000280DD103202070A6
:1039F0009848824206D19849FF200870FFF76DFF72
:103A00000120207102F0FCFD38BDF0B5874908782F
:103A1000820731D5FD2210400870864C0020E080DE
:103A2000E078864601281FD90021E0688446256990
:103A30006246A80010587E4AC7B2143A5218177549
:103A400003041E0E567503021B0E9375000ED075EF
:103A5000BA19D2181018A2688018A0606D1C2561D0
:103A6000091DC9B24029E2D37046401EC0B2E070C1
:103A7000002801D103202070F0BD6E4BD860D970B2
:103A80001A7070476A4A143A117F527F120211432A
:103A9000814206D965490020087066498870012076
:103AA00070470020704708B500210091172849D0C1
:103AB00012DC132833D008DC052823D0102823D0AB
:103AC000112823D012281BD127E014282FD0152825
:103AD0002FD0162814D133E0F0284AD00ADC554AFA
:103AE000182891783BD019283ED0AB2831D0E02857
:103AF00006D132E0F12840D0F22840D0F32840D05F
:103B0000002008BD012008BD012008BD6A46012132
:103B1000524801F00FFF012008BD012008BD4648B2
:103B20006A4601213C3001F005FF012008BD01205B
:103B300008BD6A4601214A4801F0FCFE012008BD8B
:103B4000012008BD6A460121464801F0F3FE01202C
:103B500008BD02F05CFD012008BD012008BDBF20AA
:103B600001409170012008BD402001439170012067
:103B700008BD09F08DFA012008BD012008BD012013
:103B800008BD012008BDF8B5294914390F7D487DCD
:103B90000B7F497F09020B43244900250A78254CF5
:103BA000D607002E17D0224E143E520852000A703B
:103BB000042F0BD1FFF777FF002807D00120F07505
:103BC000A07811210843A070E580F8BDFF20F075B2
:103BD000A570E580F8BD9207FCD5A278D606F9D588
:103BE000EF263240A270E580104AFD26127832405E
:103BF000142876D00CDC11284ED004DC052833D0F4
:103C000010280DD13CE0122852D0132808D15BE0D7
:103C1000152876D0162871D0172870D0AB286FD011
:103C2000A5700D70A560A5602561F8BDE4000020B9
:103C30007C0200205C01002080970000C20100206F
:103C4000AD010020BE010020C0010020AF01002016
:103C50008090000040930000A80100200F93000016
:103C6000FCA30000BC9000000220FFF70BFF00281F
:103C7000D9D15B1C99B201225048FFF7FEFED2E772
:103C80000A20FFF7FFFE0028CDD15B1C99B201226C
:103C90004B48FFF7F2FEC6E70A700A20FFF7F2FE74
:103CA0000028C0D1022219464548FFF7E6FEBAE7D0
:103CB0001420FFF7E7FE0028B5D15B1C99B2012262
:103CC0004048FFF7DAFEAEE70A701420FFF7DAFE8D
:103CD0000028A8D1022219463A48FFF7CEFEA2E7F3
:103CE000FFE73020FFF7CEFE00289CD15B1C99B285
:103CF00001223548FFF7C1FE95E702E00DE018E02C
:103D000023E00A703120FFF7BDFE00288BD102228C
:103D100019462D48FFF7B1FE85E70120FFF7B2FEF7
:103D2000002880D15B1C99B201222848FFF7A5FE2C
:103D300079E70A700120FFF7A5FE00289FD1022233
:103D400019462248FFF799FE6DE70A70042020709B
:103D500069E710B51E480078030003F0F3F8050486
:103D6000070A0D100600FFF70EFF10BDFFF74DFE0E
:103D700010BDFFF7F0FD10BDFFF778FD10BDFFF798
:103D800065FD10BD10B5124BD888401C80B2D8809C
:103D90007D21090188420FD900200E4A00218400AC
:103DA000A4186161401CC0B21028F8D30A48D98019
:103DB0000170197002F024FC10BD0000009000009A
:103DC000C090000040930000C09700008090000069
:103DD0005C01002068020020E4000020FE49FA2077
:103DE0000880FE4900200870FD48012101724B2126
:103DF000C90041627047F94900200870F849012064
:103E0000C871FF20F4492D3008807047F0B5F5489F
:103E1000F34B0778F4485E78F44CF54D002101220D
:103E2000002F29D0002E27D0EE4E3170466A16435F
:103E3000466209209871A12020800020ED4C265C6C
:103E4000401CEA4C4700E653C0B20828F6D3E868A5
:103E5000C006FCD42868C0242043286028680006D7
:103E6000800F0328FAD0E1480088E8619A61D9619F
:103E70005970C8209870D7E0DF4F3F78002F29D0C5
:103E8000002E27D0DC4E3170466A16434662102061
:103E90009871A22020800120D84C4700265CD34C8A
:103EA000E653401CC0B21028F6D3E868C006FCD424
:103EB0002868C0242043286028680006800F032853
:103EC000FAD0CA480088E8619A61D9615970C8205F
:103ED0009870A9E0CA4F3F78002F22D0002E20D042
:103EE000C74E3170466A1643466203209871A3207C
:103EF0002080C44E7778A780B6786680EC68E406A8
:103F0000FCD42C68C02634432C602C682406A40FF3
:103F1000032CFAD0E8619A61D9615970C820987071
:103F200082E0B94F3F78002F29D0002E27D0B64E1F
:103F30003170466A1643466202209871A4202080A0
:103F40000120B24C4700265CA84CE653401CC0B28E
:103F50000228F6D3E868C006FCD42868C0242043B1
:103F6000286028680006800F0328FAD09F48008840
:103F7000E8619A61D9615970C820987054E0A44FE3
:103F80003F78002F24D0002E22D0A14E317002267F
:103F90009E71A526268061809E4F3F78002F01D01C
:103FA00003276780EC68E406FCD42C68C0273C43F8
:103FB0002C602C682406A40F032CFAD0EE61446A0E
:103FC000144344629A61D9615970C82098702BE0FB
:103FD0005F79002F28D0002E26D05971466A1643EB
:103FE000466203209871A620208000207C4C123469
:103FF000265C401C7D4C4700E653C0B20228F5D336
:10400000E868C006FCD42868C024204328602868DB
:104010000006800F0328FAD074480088E8619A618E
:10402000D9615970C82098701878002814D06F484A
:10403000794F403004884088B12C02D1DD69022DCF
:1040400005D06A4D4035AD88B62C06D00CE019700D
:10405000D9614007400F3870F0BD5A2804D1012DB6
:1040600002D1DE69032E02D0B62C07D00DE0197004
:10407000D961DA72197359739A73F0BD5A2804D151
:10408000022D02D1DE69032E02D0B62C07D00DE03E
:104090001970D9615A73D97219739A73F0BD5A287D
:1040A00004D1042D02D1DE69032E02D0B62C07D034
:1040B0000DE01970D9611A73D97259739A73F0BDF2
:1040C0005A2804D1062D02D1DE69032E02D0B62C67
:1040D00005D00BE01970D961FFF78DFEF0BD5A28AD
:1040E00004D1072D02D1DE69032E02D0B62C04D0F4
:1040F0000AE01970D9619A72F0BD5A2804D10A2DCC
:1041000002D1DE69032E02D0B62C07D00DE0197063
:10411000D961D971998241480170F0BD512804D10B
:10412000772D02D1DE69032E02D0B62C09D00FE024
:1041300039701970D970D96139480170FFF74EFE96
:10414000F0BD512804D1762D02D1DE69032E02D0B4
:10415000B62C0AD010E01970D96119725962304832
:1041600001701A712F481862F0BD512804D1782DC2
:1041700002D1DA69032A02D0B62C08D00EE01970F9
:10418000D961FF209130186259621971F0BD512830
:1041900004D1792D02D1D869032805D0D869032824
:1041A000F4D3D9611970F0BD1970D961F0BDF0B5C3
:1041B0000B4B00251D720C49486A012630434862AA
:1041C00003209871094AA620108058201C461234FA
:1041D00020706670002027E0D6010020BD0100207D
:1041E00078010020FA000020004004405403002021
:1041F00000C0014041010020FD0000200403002018
:10420000FB0000201C010020FC0000201801002001
:1042100054010020F300002068020020CD0100209E
:10422000F900002070170000215C401C4700D153AA
:10423000C0B20228CFD3E148C168C906FCD40168E6
:10424000C0242143016001680906890F0329FAD0BF
:104250001188C1619E61DD615D70C8209870142075
:104260001882F0BD70B5D648416A012319434162F6
:10427000D44A03209071D449A620088051201546C5
:1042800012352870507A012821D0022822D08320AC
:10429000687000202C5C401C46008C53C0B2022881
:1042A000F8D3C648C468E406FCD40468C0252C438F
:1042B000046004682406A40F032CFAD00988C161A5
:1042C00093610020D0615070C820907070BD812033
:1042D0006870DEE782206870DBE770B5B848416A35
:1042E000012319434162B74A03209071B649A620C1
:1042F0000880512015461235287061206870002012
:104300002C5C401C46008C53C0B20228F8D3AB484A
:10431000C468E406FCD40468C0252C430460046827
:104320002406A40F032CFAD00988C16193610020F0
:10433000D0615070C820907070BD70B5A048416ABF
:104340000123194341629F4A032090719E49A62090
:1043500008805120154612352870652068700020AD
:104360002C5C401C46008C53C0B20228F8D3934802
:10437000C468E406FCD40468C0252C4304600468C7
:104380002406A40F032CFAD00988C1619361002090
:10439000D0615070C820907070BD70B58848416A77
:1043A000012319434162874A032090718649A62060
:1043B000088051201546123528706820687000204A
:1043C0002C5C401C46008C53C0B20228F8D37B48BA
:1043D000C468E406FCD40468C0252C430460046867
:1043E0002406A40F032CFAD00988C1619361002030
:1043F000D0615070C820907070BD70B57048416A2F
:104400000123194341626F4A032090716E49A6202F
:1044100008805120154612352870742068700020DD
:104420002C5C401C46008C53C0B20228F8D3634871
:10443000C468E406FCD40468C0252C430460046806
:104440002406A40F032CFAD00988C16193610020CF
:10445000D0615070C820907070BD70B55848416AE6
:10446000012319434162574A032090715649A620FF
:10447000088051201546123528707520687000207C
:104480002C5C401C46008C53C0B20228F8D34B4829
:10449000C468E406FCD40468C0252C4304600468A6
:1044A0002406A40F032CFAD00988C161936100206F
:1044B000D0615070C820907070BD70B54048416A9E
:1044C0000124214341623F4B032098713E4AA620BC
:1044D000108051201D461235287070206870002011
:1044E000295C401C46009153C0B20228F8D33348DF
:1044F000C168C906FCD40168C02529430160016870
:104500000906890F0329FAD01188C1619C61002036
:10451000D8615870C821997014211982187270BD21
:1045200028498878002814D0401EC0B288704A7884
:1045300010430ED10120487021498A6A02438A62E1
:104540001E48016908229143016101690422114357
:104550000161704770B51A4D286801238007042453
:104560001849164A00280FDA506940070BD5D5695B
:10457000C869461CCE61144E4000403635520B705F
:1045800090692043906170BD50694007FBD58E79DA
:104590008869B04206D3A86A1843A8624B7000200D
:1045A000886105E0431C8B6107494000085AD061CF
:1045B000D06990692043906170BD000000C0014047
:1045C00000400440780100205403002070B5FB48EF
:1045D00008250678AA02FA48FA495400330002F086
:1045E000B1FC120A0F161E262C32393F464E545B80
:1045F000626970787EB2416A29434162F24875E08F
:10460000416A402211434162EF482A306EE0416A1C
:104610000122520211434162EB48543066E0416A84
:104620000122120311434162E7487E305EE0486A8E
:1046300010434862E448A83058E0486A2043486282
:10464000E148D23052E0416A012211434162DE4822
:10465000FC304BE0416A102211434162DB4845E0E7
:10466000416A802211434162D8482A303EE0416AC3
:104670000122920211434162D448543036E0416A2B
:1046800011434162D1487E3030E0D148416A29432C
:104690004162CE48A83029E0416A022211434162BA
:1046A000CA48D23022E0416A202211434162C74801
:1046B000FC301BE0416AFF22013211434162C548D0
:1046C00014E0416A0122D20211434162C1482A30FA
:1046D0000CE0416A21434162BE48543006E0486A1A
:1046E0000122D20310434862BA487E30BA49028898
:1046F0000A6242884A6282888A62C288CA620289E1
:104700000A6342894A6382898A63C289CA63B24959
:10471000028A40310A60428A4A60828A8A60C28A7A
:10472000CA60028B0A61428B4A61828B8A61C28BAA
:104730000A62028C4A62428C8A62828CCA62C28C91
:104740000A63008D486370BD00B59C4909780B0071
:1047500002F0F8FB120A0C0F1215181B1E2023265C
:10476000292C2F3234373A3C97482FE096482A308C
:104770002CE09548543029E093487E3026E0934859
:104780007E3823E09148543820E090482A381DE0D4
:104790008E481BE08D482A3018E08C48543015E0D4
:1047A0008A487E3012E08B487E380FE089485438C2
:1047B0000CE088482A3809E0864807E085482A3016
:1047C00004E08448543001E082487E308249028807
:1047D00040310A6042884A6082888A60C288CA6022
:1047E00002890A6142894A6182898A61C289CA61F1
:1047F000028A0A62428A4A62828A8A62C28ACA62D9
:10480000028B0A63428B4A63828B8A63C28BCA63C0
:104810007149008C086200BDF0B56B4A67481446C8
:104820000078FC340126274676036549FC37654D40
:10483000030002F087FB120A1826354451606E7C93
:104840008A99A6B5D3E1F3F1F017002008244300BC
:10485000D35A002B02D04B6A23434B62401CC0B298
:104860001528F4D3F0BD152040244300D35A002B63
:1048700002D04B6A23434B62401CC0B22A28F4D3B7
:10488000F0BD2A20012464024300D35A002B02D039
:104890004B6A23434B62401CC0B23F28F4D3F0BDA7
:1048A0003F20012424034300D35A002B02D04B6A3B
:1048B00023434B62401CC0B25428F4D3F0BD5420B3
:1048C0004100515A002902D0696A31436962401C93
:1048D000C0B26928F4D3F0BD692001239B034100D5
:1048E000515A002902D0696A19436962401CC0B25A
:1048F0007E28F4D3F0BD002001224300E35A002BB0
:1049000002D04B6A13434B62401CC0B21528F4D34B
:10491000F0BD152010234200A25A002A02D04A6A94
:104920001A434A62401CC0B22A28F4D3F0BD2A20A0
:1049300080234200A25A002A02D04A6A1A434A62DD
:10494000401CC0B23F28F4D3F0BD3F2001239B029E
:104950004200A25A002A02D04A6A1A434A62401C04
:10496000C0B25428F4D3F0BD54204200A25A002A09
:1049700002D04A6A32434A62401CC0B26928F4D36A
:10498000F0BD6920124908234200A25A002A02D031
:104990004A6A1A434A62401CC0B27E28F4D3F0BD72
:1049A000002002234200BA5A002A02D04A6A1A435F
:1049B0004A62401CC0B21528F4D3F0BDF0010020BB
:1049C00000800440006004409A090020C00A0020D2
:1049D00000A00440E60B002000200040152020230A
:1049E0004200BA5A002A02D04A6A1A434A62401C5C
:1049F000C0B22A28F4D3E0E72A20FF230133420083
:104A0000BA5A002A02D04A6A1A434A62401CC0B20B
:104A10003F28F4D3D1E71FE00FE0FFE73F20012359
:104A2000DB024200BA5A002A02D04A6A1A434A629A
:104A3000401CC0B25428F4D3BFE7542001239B0389
:104A40004200BA5A002A02D04A6A1A434A62401CFB
:104A5000C0B26928F4D3B0E769200122D203410033
:104A6000795A002902D0696A11436962401CC0B2B8
:104A70007E28F4D3A1E73B484268FF2109020A439C
:104A8000426002680A4302603748426837490A4375
:104A9000426002680A430260704733480168072297
:104AA00052031143016032480168324A11430160E8
:104AB0003148016808221143016070472A480168A3
:104AC000072252039143016029480168294AD243D1
:104AD0001140016028480168082291430160704735
:104AE00010B5264C00202060FFF72EFE2068022122
:104AF0000843206020688007FCD420680121084317
:104B0000206001F091FD01F07BFD10BD704770B594
:104B1000FFF7D4FF01F08DFD194C6078401CC0B246
:104B2000607000250A2810D31648017800290CD19E
:104B300001210170657001F0BAFDFEF745FCFEF73A
:104B4000E5FC11490860FCF791FFFFF7C9FFFFF78B
:104B500063FE2078401CC0B22070122800D325705C
:104B600070BD00000040044000600440FF010000F0
:104B700000800440FB7F000000A0044000200040B3
:104B8000F0010020EA0000202001002010B50B22D7
:104B9000FD21E82001F03EFF01220A21E82001F07A
:104BA00039FF10BD70B50B22FD21E82001F032FF66
:104BB00010220121E82001F02DFFE4220D21E82040
:104BC00001F028FF01220E21E82001F023FFBF227F
:104BD0000F21E82001F01EFF44221421E82001F0FB
:104BE00019FF4C221521E82001F014FF0D22FD21B0
:104BF000E82001F00FFF00207049714C0A5C22543C
:104C0000401CC0B24028F9D3002240231146E820BE
:104C100001F041FF0022FD21E82001F0FBFE00220F
:104C2000A0231146E82001F011FF0020634DAD1EC6
:104C30002946423103E00A5C2254401CC0B22A7863
:104C40009042F8D300222B781146E82001F023FF90
:104C50000122FD21E82001F0DDFE0022A023114603
:104C6000E82001F0F3FE00205449503103E00A5CD3
:104C70002254401CC0B26A789042F8D300226B786C
:104C80001146E82001F007FF70BD10B50B22FD2191
:104C9000E82001F0BFFE00220A21E82001F0BAFE60
:104CA00010BD10B54748426802210A434260416284
:104CB0000A2001F068FDFFF7E8FFFFF773FFFFF739
:104CC00065FF10BDF8B5404C207800280FD00122B8
:104CD000FD21E82001F09EFE3E2380222021E820D5
:104CE00001F0D9FE0020207038490870F8BD00207E
:104CF0003549334B89788C46334949788E46344957
:104D00000A782E4960310C5C3249095D6546002DF8
:104D100001D0314D695C7546002D31D02D4D6700B5
:104D200036352D5D51436E00AD192C4EE419765D7C
:104D3000224F4E43F60A96373F5DDE55274E1F4FF2
:104D4000AD19AE7896374E43F60AE4196778DE550A
:104D50006D78A4784D43E90A1955401CC0B2362835
:104D6000CFD30022FD21E82001F054FE8023002251
:104D70002021E82001F08FFE134801210170F8BDC9
:104D8000144D5143A23D2D5D0C4F4D43EE0A65007D
:104D9000651996377F5DDE550E4E084F363E365DFF
:104DA00096374E43F60AED196F78DE55094E6C3E84
:104DB000345D4C43E10AAC781955CEE72E8E0000E5
:104DC000E6150020006004400A02002015020020C1
:104DD0001B020020A21000205E7F00003C8C00001F
:104DE000FC48FB49827A895CC172C28A4A4311033A
:104DF000090C81824182704700B5F64B0B20587038
:104E0000FF209130D882FFF7EBFFF34901200870B3
:104E100000219970F14A107099710020F04A1154E4
:104E2000401CC0B23628FAD300BD70B5E94C022050
:104E300060700F208001E082FFF7D2FFE64900207A
:104E40000870A070E5490870A071217CE54D4C0008
:104E50000C19295D65196C78E34BE44EE44AAD7892
:104E6000195434541554401CC0B23628F8D30020CD
:104E7000DB49FF220A54401CC0B23628FAD370BD69
:104E800070B5D44B02205870C820D882FFF7A8FF15
:104E9000D148002101709970D0480170997119743E
:104EA0000020D04D4C000C19295D65196C78CE4B53
:104EB000CE4ECF4AAD78195434541554401CC0B26C
:104EC0003628F8D30020C64AFF211154401CC0B236
:104ED0003628FAD370BDF0B5BE4B092058703C207F
:104EE000D882FFF77DFFBC49002008709870987148
:104EF000BA490870002220E00021BE4B5000C018C3
:104F00008646BD48B74C835C58001818265C0019CB
:104F10004778807884467046405CB84C45006353BF
:104F2000B14C2654B14C2754B14C65462554491C0C
:104F3000C9B20229EFD3521CD2B2B14800788242E2
:104F4000DAD30020A64AFF211154401CC0B23628F3
:104F5000FAD3F0BDF0B59F4B0A205870D882FFF706
:104F60003FFF9D490020087098709C490870987117
:104F700000219D4B9D4E9E4FA248405CA24A4C0092
:104F8000125B9E4C45006253A04C2478A24204D38D
:104F900000221A5432543A5409E05400914D121927
:104FA000AC5C1C5452195478345492783A54491CCD
:104FB000C9B23629E0D300208949FF220A54401C97
:104FC000C0B23628FAD3F0BDF0B5824B0520587038
:104FD0001C20D882FFF704FF7F48002606709E70D1
:104FE0009E717E4806701E740020844F7D4D854959
:104FF000095C874A125C92194B00FA525300D2188E
:10500000794BAC5C5C545219784B54785C5493786F
:10501000774A5354401CC0B23628E8D30020704A67
:10502000FF211154401CC0B23628FAD3F0BD00B5A0
:105030006848017A052903D90121C9034978017219
:10504000007A030001F07EFF0A060C0F1215080813
:1050500008080908FFF7B8FF00BDFFF77BFF00BD98
:10506000FFF739FF00BDFFF70BFF00BDFFF7DDFEC7
:1050700000BDFFF7C1FE00BD56486649027B895C52
:10508000417370470020564A00211154401CC0B2A1
:105090003628FAD3704730B5FFF7F4FF4D4C0025A2
:1050A000E5700120C003817A2172C17A6172017BAF
:1050B0002173407BA072207A574940004018407805
:1050C000A073FFF7D9FFFFF7B2FFE570E57330BDBE
:1050D0004048807900280AD00020414A115C00290C
:1050E00001D0491E1154401CC0B23628F6D3704777
:1050F000C8E7F0B500213748404CC5783A4E4148E2
:10510000405C002D12D04200A35A002B1AD05B1E27
:10511000A3523E4B4200A25A1B789A4217D3002258
:105120003254324B1A54324B1A541CE04300E25AA8
:10513000521C92B2E252394F3F88BA42E9D3002260
:10514000E252E6E7354B1B885B1EA352E1E75300B2
:10515000244FD218BB5C3354D219244B57781F54B8
:105160009378234A1354491CC9B23629C7D3F0BDDA
:10517000F0B50023214F26E0002116481D4AC078D3
:1051800084465800821896466246012A48D03A5A08
:10519000002A50D0521E3A527246525C3C5A650068
:1051A0006419104D2E5D104DAE540E4D64190F4D07
:1051B0006678AE54A5780E4CA554491CC9B2022994
:1051C000E2D35B1CDBB20E4800788342D4D3F0BD3F
:1051D000A0D500000E0200200C0200200B020020CF
:1051E000A2100020BCD100000010002036100020CA
:1051F0006C1000200AD500005AD500000E110020C6
:10520000F28F0000D4D4000068D40000FB7F0000BF
:1052100032D40000F68F0000848F0000FE7F000073
:105220003A5A521C92B23A52FE4C2478A242B3D35C
:1052300000223A52B0E7FB4A1278521E3A52ABE7CC
:10524000F0B50021F848C478F84803885B1EF84898
:10525000405C002C0CD0F74E4500725B521C92B2A1
:105260007253F24F3F88BA4209D30022725306E0CC
:10527000F04E4200B55A002D10D06D1EB552ED4AC9
:105280004500525BEC4D2D78AA4209D3EB4D00222C
:105290002A54EB4D2A54EB4D2A540EE0B352EEE75C
:1052A00055005219E84DE54EAF5C37545219E44DA4
:1052B00056782E549578E34A1554491CC9B23629BC
:1052C000C5D300213520421AD948805C002C0CD06F
:1052D000D84D6C352A5C521CD2B22A54D34E368833
:1052E000B24209D300222A5406E0D24D6C352A5C22
:1052F000002A17D0521E2A54D04DD14E2A5C375C5A
:10530000D719D04A125CD7421AD1CA4ACA4F6C3256
:10531000125C3F78BA4207D300222A543254C94D56
:105320002A540DE02B54E7E75700D219C64FBF5C53
:105330002F54C54D5219557835549578C14A155496
:10534000491CC9B23629BDD341E7F0B50021B648A2
:10535000B84CC578B94EB648405C002D18D0420014
:10536000A35A002B20D05B1EA3524200A25AB64F74
:105370005300D218BB5C3354D219B14B57781F5429
:105380009378B04A1354491CC9B23629E3D31EE7B7
:105390004300E25A521C92B2E252A74F3F78BA42FF
:1053A000E3D30022E252E0E7A34B1B785B1EA3523B
:1053B000DBE7F0B500209F4EA44FA2361FE0A449C2
:1053C0000978002909D0315C491CC9B231543A78B6
:1053D000914207D30021315404E0315C002913D0FD
:1053E000491E3154325C9B499B4D895C4200AC5C48
:1053F0009A4B1955521952789954401CC0B2984989
:1054000009788842DBD3E2E63978491E3154E9E76E
:1054100070B58F488749037835220888002B07D05C
:10542000401C80B20880362806D30020088003E0A4
:1054300000280DD0401E088008887D4B195C894CDF
:10544000864D26786E54101A185C2178295470BD48
:105450000A80F1E7F0B500207D49764A0B787B4C55
:105460007C4D7E4FA232002B09D0115C491CC9B281
:1054700011542678B14207D30021115404E0115C85
:10548000002909D0491E1154115C695C3954401C33
:10549000C0B23628E7D39AE62178491E1154F3E7C3
:1054A00070B56149087C401CC0B20874624A127829
:1054B000904201D3002008740020097C624D4C000A
:1054C0000C19295D65196C785C4A5D4E5D4BAD78B1
:1054D000115434541D54401CC0B23628F8D370BD4A
:1054E00051498878401CC0B288705F4A1278904257
:1054F00001D3002088700020584A89781154401C3C
:10550000C0B23628FAD3704710B500204649574A32
:10551000524C497AFF2311542354401CC0B2362800
:10552000F9D310BD70B5404CE07B00283DD16079C7
:1055300000230125002803D06371FFF7C9FDE57141
:10554000207800282CD023706078030001F0FAFC4A
:105550000C070A0D271019131C161F222527FFF709
:10556000D3FF1CE0FFF7BCFF19E0FFF799FF16E03F
:10557000FFF770FF13E0FFF74BFF10E0FFF719FF95
:105580000DE0FFF7E2FE0AE0FFF75AFE07E0FFF743
:10559000EFFD04E0FFF7ADFD01E0FFF7A9FDE571C8
:1055A000E079002801D0FFF78DFB70BD1E49304A1D
:1055B000087A4000135C4B728018407888737047FB
:1055C00030B5194D00236B706420E882FFF708FCAA
:1055D00028480370AB70284901200870AB71002087
:1055E000224A1E4C697AFF2311542354401CC0B236
:1055F0003628F9D330BD30B50B4D0023687801282B
:1056000000D0AB7001246C70FF201930E882FFF7E6
:10561000E7FB1848047018480470AB7100200F496C
:10562000124C2BE0E07F00000E020020F48F0000FF
:10563000D4D400000E110020FB7F000000100020D9
:10564000361000206C100020BCD10000FC7F000050
:10565000C2010020928F00000AD50000A210002095
:10566000F38F0000DE7F0000DF7F0000D8100020F5
:10567000848F00000C0200200B0200206A7A0B5479
:105680002254401CC0B23628F9D330BDF0B5784B57
:10569000042058706420D882FFF7A2FB75490020CF
:1056A00008709870744A012111709871734D744C90
:1056B000744A754E754F5B7A295C21541354715CA2
:1056C0003954401CC0B23628F6D380E5F0B5684E98
:1056D00008207070A020F082FFF782FB654900204F
:1056E00008703074644A01211170B071684F11E084
:1056F0006849634A095C1154674D4300EA5C634C96
:10570000A1545B195B78E1545E4C717AA154E15469
:10571000401CC0B239788842EAD358E530B5544BC2
:10572000062058704B20C000D882FFF759FB514922
:10573000002008709870504A0121117099715049E9
:10574000A2390880554C2078554A504915780D5497
:105750003520205C12780A5400204A4A597A1154A4
:10576000401CC0B23628FAD330BDF0B5404B0720FC
:1057700058703220D882FFF733FB3E490020087072
:1057800098703D49087098710021444D454E685C01
:105790004A003B4B4400B25AA23B1A53424B1B787F
:1057A0009A4207D3414B00221A54414B1A54414BA1
:1057B0001A540CE05300D2183F4F3C4BBC5C1C54B5
:1057C000D2193B4B54781C5493783A4A1354491CD1
:1057D000C9B23629DBD30021354B3520421A2F4878
:1057E000805C304A4C00125D254C363C22542F4CD4
:1057F0001E5C255CAE192F4D2F5CFE4212D12A4E45
:105800003678B24204D3002222541A542A5409E0B2
:1058100056009219284EB75C2754921954781C549C
:1058200092782A54491CC9B23629D6D30020174A87
:10583000FF211154401CC0B23628FAD3C7E40C49EA
:10584000888A401E0004000C888203D1488A88821E
:1058500001200870704706490879401CC0B20871E1
:10586000042803D900200871012048717047000006
:105870000E0200200C0200200B020020FCD30000CE
:10588000B0110020D8100020928F0000A21000203C
:10589000F28F000040D500000AD50000D4D40000EB
:1058A000DE7F00007AD50000FB7F000000100020A2
:1058B000361000206C100020BCD1000031490222BB
:1058C0008A60086188684022104388604868C00781
:1058D000FCD1704730B52B4C63680425AB43636043
:1058E0000123A360206100BF00E000BF6068C00723
:1058F000FBD10CE0107853781B020343907800042E
:105900001843D3781B060343E360121D091F0029C7
:10591000F0D1A06840210843A06000BF00E000BFB4
:105920006068C007FBD16068400701D5012030BD29
:10593000002030BD30B5134B5C680425AC435C607F
:1059400001249C60186100BF00E000BF5868C007D8
:10595000FBD103E001CAD86000BF491E0029F9D17C
:10596000986840210843986000BF00E000BF586875
:10597000C007FBD15868400701D5012030BD002089
:1059800030BD000000200640FE49FD4808600020B0
:105990008860FD4A4A60FE49FC4A0A608860F84A0D
:1059A000C1324A60FB4908600804886050104860B2
:1059B000F349F94859310160F84981600821416093
:1059C0007047F8B5EE49EF48C1310160ED4AF4483F
:1059D000906000245460EE4A116090605460ED4E77
:1059E0003160B0607460EC4A1160906054600A20CD
:1059F00000F0C9FEEB4D6C70AC70EC702C717068EF
:105A00000227384370607762642000F0A7FE306898
:105A10000124C007002800D06C703068400700D512
:105A2000EC70706838437060B762642000F096FED6
:105A30003068C00700D1AC703068400700D42C71CA
:105A4000022070627168014071606878012802D19B
:105A5000A878012803D0E878012802D005E02C704E
:105A600003E02879012800D12C7000206870A8700C
:105A7000E870287170680827384370607762642086
:105A800000F06CFE3068400700D56C703068C006CE
:105A900000D5EC70706838437060B762642000F025
:105AA0005DFE3068400700D4AC703068C00600D49A
:105AB0002C7108207062716801407160687801285B
:105AC00002D1A878012803D0E878012802D005E0A7
:105AD0002C7003E02879012800D12C700020687018
