:020000040000FA
:10000000181A0020AD6B0000B16B0000D106000093
:1000100000000000000000000000000000000000E0
:10002000000000000000000000000000B56B0000B0
:100030000000000000000000B76B0000E166000057
:10004000BB6B0000110A000000000000000000006F
:100050000000000000000000474500000000000014
:100060000000000000000000BB6B0000000000006A
:10007000BB6B0000BB6B0000BB6B0000BB6B0000E8
:100080001B660000000000000000000000000000EF
:100090000000000000000000000000000000000060
:1000A000BB6B0000B9670000BB6B000000000000E4
:1000B000EB08000013090000BB6B0000BB6B0000E5
:1000C00000F002F800F032F80CA030C8083824180C
:1000D0002D18A246671EAB4654465D46AC4201D180
:1000E00000F024F87E460F3E0FCCB6460126334280
:1000F00000D0FB1AA246AB463343184794D5000004
:10010000B4D500000023002400250026103A01D3B6
:1001100078C1FBD8520700D330C100D50B607047BF
:100120001FB506F0D9FD1FBD10B510BD06F08CFE41
:100130001146FFF7F5FF00F0F2F906F0A4FE03B454
:10014000FFF7F2FF03BC06F0A9FE000001480160C2
:1001500001480047240006400103FF1F30B40C494A
:100160000C684A6823681068C0181060241D121DAE
:100170008C4207D28A4208D20C604A6030BC4000F0
:10018000400870470C00DC3CF6E70A00DC3AF3E775
:10019000B0170020F8B503F02FFEFA4801780029C7
:1001A00076D000250570F84AF8491068002804D078
:1001B000401E1060002800D10D70F54A0123108800
:1001C000002806D0401E80B21080002801D1F148DE
:1001D0000370F14A106800285AD0F04E3478002C91
:1001E00001D0136006E0EE4B09781B78194301D16A
:1001F000401E1060106800284AD104F05FFC06F031
:1002000006FA06F054FAE74801688022914301603B
:1002100003F066F903F09FF9E349486A402210436E
:100220004862E2490868E24A40084000104308601A
:10023000E04805610CF0C4FFDF480078002801D1D8
:1002400000F07BFB3078002801D000F094FBDB4FFE
:1002500038690921C906884338610A2006F05FFA27
:10026000D74C00F042FC3D610220206030BF256089
:1002700030780028F5D100F0C5FB06F029FA06F029
:10028000B9FA06F0F2F903F095F806F0CDF93570F9
:10029000F8BD70B5BB48CB4D01780024002905D0CE
:1002A00004702888002801D0401E288003F047FDF4
:1002B000C548006980072DD5288800282AD1C82084
:1002C00006F033FA04F0E9FB06F0A1F906F0EFF9C5
:1002D000B448016880229143016003F001F903F002
:1002E0003AF9B2480168B24A49084900114301602D
:1002F000B04804610CF064FF04F0E0FB00F003FC84
:1003000006F0E6F906F076FA06F0AFF903F052F8D7
:1003100006F08AF9AD4D2878012806D10822AC49AB
:1003200000F0F2F9002800D12C70AA4D287801289D
:1003300007D11022A849022000F0E6F9002800D1D8
:100340002C70A64D2878012816D0A54D28780128B4
:100350001BD0A44D2878012820D0A34D2878002850
:1003600009D0A249052008700422022000F0CCF92F
:10037000002800D12C7070BD03229D49022000F09E
:10038000C3F90028F7D12C7070BD0222994910469C
:1003900000F0BAF90028F7D12C7070BD05229649FB
:1003A000022000F0B1F90028F7D12C709248847037
:1003B000C470047170BDF8B590484178002973D0BD
:1003C000002444708E498F4E0888002818D0401EA3
:1003D00080B20880002813D13078002802D001288C
:1003E00003D00DE003F0DCFE0AE003F034FF8648A2
:1003F0000078002802D003F0F9FF01E004F026F8AD
:1004000082490878401CC0B20870322821D30C7091
:100410005C48012505707E49087800287CD0401E84
:10042000C0B20870002877D17A4F3878C04382076D
:1004300079480FD10278002A0CD00CF023FE7748BF
:1004400004703C703078012866D104F02FF87448AD
:10045000047061E0734A1378DB439B070FD1037884
:10046000002B0CD014700CF098FE6F480178012915
:1004700003D005700CF045FE4EE00470FAE76B4ABD
:100480001378DB439B0716D10378002B13D014702D
:100490000CF079FE42480178002906D004700CF077
:1004A00030FE03F073FF37E038E005700CF029FEF2
:1004B00003F03CFF30E05E4A1378DB439B0711D129
:1004C000007800280ED014700CF067FE59480178AF
:1004D000012903D005700CF014FE1DE004700CF02F
:1004E00010FE19E054480078F12803D0F22801D01A
:1004F000F32811D1307801280ED1504A1078002805
:100500000AD0401E10700320087038485121017035
:10051000892141703448057001F047FAF8BD06F0B2
:10052000A0FB06F059FB46491F200860454E306A83
:1005300001252843306200F088F9304C0020A0707B
:10054000EF03F8894049884200D1A57006F08DF884
:1005500006F0BEF805F018FA01F012FA06F072F98A
:10056000B87A2E490870274D2878012801D100F06B
:10057000B3F9A078002869D009F0BBFF00202870EB
:1005800066E063E0A0010020980100207C010020CB
:100590008A010020C8010020940100207E01002073
:1005A0005601002000E0054000A00440000001408A
:1005B0000000FA5A00E000E07B01002000C0054086
:1005C000402003408401002050020020FA00002057
:1005D00041010020FD00002010030020FB0000204E
:1005E000FC000020FE000020790100208601002090
:1005F0001C01002018010020340100200000002010
:100600009C0100209E010020050100209F01002088
:10061000F900002006010020F20000207D010020EA
:10062000780100200A0100200B01002008010020B1
:100630000701002011010020F000002077010020B8
:100640000020044000000640AAAA000009F022FF92
:1006500006F0D0F82248B061224E234FFE60FFF72B
:10066000AAFE2248A1780078084301D002F0B4FD28
:100670000CF027FB2878002804D00128EED1FFF7E2
:1006800089FDEBE7FFF705FEE8E770B50CF0DEFC4F
:1006900003F03FFF164E3078401CC0B23070042883
:1006A00015D30CF051FD00243470012575700CF049
:1006B00058FD10490878002809D0401EC0B20870C3
:1006C000002804D10C4805700C484470847070BD3B
:1006D000BFF34F8F0B490A48C860BFF34F8FFEE747
:1006E00002C00000AA55FA5A00000140A3010020F0
:1006F0000000002057010020FB0000201C0100200A
:100700000400FA0500ED00E0F8B506460D46174670
:100710004248B10008180268002A01DB0220F8BD37
:10072000002E03D0042E01D8402F01D90420F8BD9B
:100730000068400F042801D00120F8BD3848805DD2
:10074000002804D0304600F04CF90320F8BD3548AD
:1007500008180068B84201D20520F8BD701E324961
:10076000800008580090002414E0295D641C285D76
:1007700000020843641C295D09040143641C285DD0
:1007800000060843641C0146009800F0A0FA009897
:10079000001D0090BC42E8D3F9B2304600F030FAB8
:1007A0000020F8BD70B5234B204C19682288002525
:1007B0001F4E481C002A0CD0012A15D0022A1ED038
:1007C000032A05D1FF2925D20121090431601860CF
:1007D00070BDFF2904D2FF2101313160186070BD66
:1007E0001D600120208070BDFF2904D2FF21090473
:1007F0003160186070BD1D600220208070BDFF292F
:1008000004D2FF2109023160186070BD1D60032011
:10081000208070BD1D60258070BD000018C005409F
:10082000B90000203C0200202C020020CC00002057
:10083000D4000020D0000020421E032A04D8FC4A25
:10084000800080188038C167704770B500F0FEFDE9
:1008500000F098FF06F005FA06F0BEF9F5480168C9
:1008600010231943016040210120FFF7E5FF80219B
:100870000220FFF7E1FFC0210320FFF7DDFFE021A9
:100880000420FFF7D9FFEC4840210160802242603C
:10089000C0228260E022C260E84801604360836059
:1008A0000821C1600161E24CE548483C206002201B
:1008B00060611F25ED06322005F037FF2561DC4819
:1008C000610408384162DF49C162012000F055FA35
:1008D000012000F043FA70BD10B5D5490020483919
:1008E0000861012000F041FA10BD10B51C2000F095
:1008F00044FAD649D4480862D548016901229204D5
:10090000114301611C2000F030FAD2490120087027
:1009100010BD10B51D2000F030FACF49CA4808625A
:10092000CB48016901229204114301611D2000F0AE
:100930001CFAC8490120087010BD70B5C3480024D6
:10094000C4604461C04D05621F21C90181611C2042
:1009500000F013FA1C2000F001FABF48C4604461A3
:1009600005620121C90381611D2000F006FA1D20E6
:1009700000F0F4F970BD10B5B448002484611C2067
:1009800000F0F3F9B44884611D2000F0EEF910BDC9
:1009900010B5AE480021C1604161AB490162092137
:1009A000C90181611C2000F0E8F91C2000F0D6F993
:1009B00010BD01209E49C00248398860704701205F
:1009C0009B4980024839886070470120984940025D
:1009D000483988607047FF20954901304839886060
:1009E000704704280DD8924A8100303A89180028AF
:1009F00004D18F4848384068C00102D4072040071E
:100A00000860704710B506F02CF900F0EDF910BD44
:100A100010B5874C483C62680020C043A060002AA3
:100A200008D0500F15D0002A07DAFFF7EBFF00F0CF
:100A3000B7F93DE0FFF7E6FF10BD500002D500F02A
:100A4000C4F935E0900033D5FFF7DCFF00F0C3F9BF
:100A50002EE01002C00E18D0100202D500F01DFCCE
:100A600026E0500202D500F05CFC21E0900202D5A5
:100A700000F098FC1CE0D002800F19D00320C004C5
:100A8000A0600020FFF7ADFF12E01005000F0FD0AF
:100A9000D00501D5FFF79FFF900501D5FFF795FF22
:100AA000500501D5FFF78BFF100501D5FFF781FF3A
:100AB000206810BD00206949401C8842FCD3704763
:100AC0001E20401E411CFCD1704700B5584A06202C
:100AD000483A5061FFF7F4FF05205061FFF7EAFF45
:100AE000506904218843506100BD5D480121C16007
:100AF000C168C906FCD5022101615B4A59491160F0
:100B0000002101607047F8B5514E316902208143E0
:100B10003161474F483F7868400030D53869092136
:100B2000C90688433861306900240006494D002811
:100B300003DA2C70FFF701FF14E002F03BFC4B4896
:100B40004168821511434160416A1143416248483E
:100B50004168082211434160416A114341622C708F
:100B6000FFF716FF0A2005F0DAFD3C60FFF7BDFF36
:100B7000334838607868400002D4FFF743FFF8BD7F
:100B80003C490420086030BFFFF73CFF287800286C
:100B900016D02C70384914200880316937488843B2
:100BA00007D130690121890488433061B068012888
:100BB00009D07868400003D53069022108433061CC
:100BC000FFF720FFF8BDFFF780FFF8BD184948394F
:100BD000CA6B012383409A43CA637047042805D82F
:100BE0001349800030394018002101607047042803
:100BF00005D80F4980003039401809070160704757
:100C0000042807D80A4A8000303A80180522520783
:100C10008918016070470649383148600220C86071
:100C2000C8688007FCD488681549086070470000D0
:100C300048C0054000E005402C0200203C02002096
:100C4000100000B004400000FFFF000000A00440BE
:100C500050020020B8000020008004400A28000054
:100C6000000006400200FA5A0020064000400440FE
:100C70000060044040200340840100208000040004
:100C8000DC00002000B50A46402A0ED2401E3E4934
:100C90008000085891084018FFF7BDFF9007C10E6B
:100CA0003A480068C840C0B200BD002000BD00B591
:100CB00010290AD2401E344A80001058890040187A
:100CC000FFF7A9FF3148006800BD002000BD304A91
:100CD000506091600120D060D068C007FCD1A5E7CA
:100CE00030B50B46402B15D2401E274980000858CE
:100CF000990845182846FFF78EFF2448046898078E
:100D0000C30EFF2098408443114699402143284652
:100D1000FFF7DDFF30BD102988D2401E1A4B80003E
:100D20001858890040181146D1E77FE7184A403A21
:100D3000906317480221016001688907FCD4D06BD9
:100D40001449086072E7124A403A9063D163104830
:100D5000012101600168C907FCD167E7C106C90E1E
:100D6000012088400C49086060E7C106C90E0120D7
:100D7000884009498031086058E7C106C90E012042
:100D800088400649086051E72C020020DC00002062
:100D900080C00540D800002000E100E080E200E0D3
:100DA00010B50020F74AC0439060F7490120086160
:100DB00000208860D060FFF714FE01242046FFF772
:100DC0000DFF641C042CF9D910BDEF480169022203
:100DD000114301617047EC4801690422114301612C
:100DE000E849D00688607047E64801690922D206C2
:100DF0001143016101214906816070470120E149E9
:100E000080068860704710B5DF4CA06801280CD1BF
:100E1000DE4A002000211154401C0428FBD920790F
:100E2000012802D8A278002A03D00020FFF7D9FDBC
:100E300010BDD74A1154FFF7C9FE206901210904EA
:100E40000843206100210846FFF7DAFE10BD10B507
:100E5000CD4CA068012814D12078812811D12079A7
:100E600001280ED8CA49095C0020FFF76CFF2069F1
:100E70000121C9030843206101210020FFF7C0FEC2
:100E800010BD0020FFF7ADFD10BDF8B5BF4DBE4E43
:100E90003069800607D5B07810210124002700288A
:100EA00005D0012819D00020FFF79BFDF8BDB760E1
:100EB0003069084330610127EC553846FFF78EFE54
:100EC0007F1C042FF8D930690121090408433061DF
:100ED00000210846FFF794FEF8BDB46030698843EE
:100EE000306100242F55002C0CD02046FFF77FFEE8
:100EF000A4480069611EC840C00703D000212046F5
:100F0000FFF77EFE641C022CECD930690121090434
:100F10000843306100210846FFF772FEF8BD70B546
:100F2000994DA9680020FFF70EFFA868012806D197
:100F300001242046FFF75BFE641C022CF9D995487A
:100F400000210160286903218903084328610121E8
:100F50000020FFF755FE70BD10B50020FFF741FDE2
:100F600010BD10B5044618061204104309020843C8
:100F7000204310BDF8B5884F3C688348854EC08833
:100F80003168884200D23060306800281DD00025CA
:100F9000E378A27861782078FFF7E3FF0146A800A4
:100FA000FFF7D1FE241D6D1CEDB2102DF0D330687B
:100FB000402815D340210020FFF722FE386840303A
:100FC0003860306840383060F8BD00210846FFF7CF
:100FD00017FE6C4881690122120711438161F8BD37
:100FE0003068C1B20020FFF70BFE00203060F8BD72
:100FF000F8B5002400206449684BCA780D798F78D1
:101000000C26014671435E5CB24211D1C9184E787C
:10101000B5420DD18E78B7420AD10C225043C01888
:1010200082885C4802605C4889680160012402E0B3
:10103000401C1028E4D3002C08D053490869012231
:10104000D20310430861FFF795FFF8BD0020FFF7BA
:10105000C8FCF8BD10B54C480169202399430161D3
:1010600001694022114301618178002902D002699F
:101070001A430261017301690122120411430161E3
:1010800000210846FFF7BCFD10BD70B53E4D287825
:101090004406640E000602D50020FFF7A2FC002CD7
:1010A00005D0022C0FD00020FFF79BFC70BDA87864
:1010B0000128FBD128693A490843286100210846E4
:1010C000FFF79EFD70BDA8780028FBD12879400667
:1010D000400E411E0129F5D8A9680129F2D12B4AF9
:1010E0001154FFF77EFC2869012109040843286197
:1010F00000210846FFF784FD70BD70B5224D2878A9
:101100004406640E000602D50020FFF76AFC002C9E
:101110001AD0022C17D1A878002814D128794006BB
:10112000400E0022194BE10300281ED002280AD8E5
:10113000AC68012C07D11A542869084328610021A2
:101140000846FFF75DFD70BDA8780128FBD128692E
:101150008021884328612869114980390843286122
:1011600000210846FFF74CFD70BD28698006FBD5BD
:101170001A7028690843286100210846FFF740FDDE
:1011800070BD000000C0054050020020B9000020E2
:10119000C8000020C4000020C0000020040000207F
:1011A0008001010070B5B84D28784406640EC0096E
:1011B00001D1FFF716FC0126F603002C15D0012CF7
:1011C00027D0022CDCD128794006400E0228D7D83F
:1011D000AE49095C0020FFF7B6FD2869304328615D
:1011E00002210020FFF70CFDCAE72869000604D59C
:1011F00002210020FFF7A7FD03E000210846FFF7CA
:10120000A2FD28693043286102210020FFF7F8FC85
:10121000B6E7A8680128B3D168790028B0D1287949
:101220000128ADD800210846FFF78DFD286930431D
:10123000286102210020FFF7E3FCA1E710B59248E6
:101240004078030005F07EFE0C070A250D251013DB
:1012500016191C1F2225FFF7A5FF10BDFFF74DFF34
:1012600010BDFFF712FF10BDFFF7F4FE10BDFFF732
:10127000BFFE10BDFFF770FE10BDFFF750FE10BDA2
:10128000FFF703FE10BDFFF7E2FD10BDFFF7BBFD4A
:1012900010BD0020FFF7A5FB10BD7CB533207C4CB2
:1012A000C004A0600020FFF7A2FC6068400331D4B6
:1012B000754C20690321C903884320610020FFF792
:1012C00035FD744D286801900420FFF72FFD286834
:1012D00000900198C0B220700199090A61700199CB
:1012E000090CA1700199090EE17000992171009912
:1012F000090A61710099090CE18060210840002809
:1013000002D0202803D008E0FFF798FF7CBD00F052
:1013100007FA7CBD01208004A0600020FFF761FB7C
:101320007CBD70B501205A4E8005B0605A4DA87C36
:10133000022815D10020A8746869584988420DD147
:10134000A8695749884209D10024A0000021FFF76D
:10135000FAFC641C402CF8D3FEF7F8FE0420A874B5
:10136000494C20694F4D40060CD5206940218843E7
:101370002061207BF0600020FFF733FB2069A84349
:101380002061FDE6E088002808D02069C00305D46C
:10139000FFF7F0FD2069A8432061F1E60020FFF788
:1013A00020FBEDE6F8B501213948490581603A4D49
:1013B000A87C384E012819D0686D80050DD5686D60
:1013C0000913884368650020FFF7B0FC3068287077
:1013D000686D01214903084368652B4C20690004AE
:1013E00025D400210846FFF70BFC29E00024A000CB
:1013F0000746FFF79BFC306879194861641C102C84
:10140000F5D30220A87468692449884203D1A869E9
:1014100023498842E1D02448012201781143017018
:10142000224800780428D8D102F006FAD5E71848F7
:101430004168C90104D481690122D2061143816146
:1014400020690121C90388432061F8BD00200F4AAB
:1014500000211154401C0528FBD30020144A1154CC
:10146000401C0428FBD30848017041708170C17092
:1014700001714171C18081600173016901225204CF
:10148000114301617047000050020020B9000020A4
:1014900000C00540D800002064020020AA42895AFA
:1014A000FF7162CC00000100E40000205801002020
:1014B000C800002010B5B84A107821281BD1B749C0
:1014C000486D01231B03184348651079012812D881
:1014D0009078002804D14B6D0324A402A3434B65EC
:1014E000487410690121090408431061002108466D
:1014F000FFF786FB10BD0020FFF773FA10BD10B593
:10150000A5480178212914D101690122120411434F
:101510000161A2494A6D0123DB021A434A6502793F
:10152000012A06D8C078087400210846FFF768FB36
:1015300010BD0020FFF755FA10BD10B597490120E6
:10154000887400210846FFF75BFB10BD10B5924878
:10155000016901221204114301619048416DD211C9
:101560001143416500210846FFF74AFB10BD10B545
:1015700089480178212907D10179002904D1C0784F
:10158000022805D0032806D00020FFF72AFA10BD54
:10159000FFF7DCFF10BDFFF7D0FF10BD10B57E4C8C
:1015A0002078A12816D17D48416DC90401D40121BC
:1015B0004174217901290DD8417C0020FFF7C3FB3C
:1015C00020690121C9030843206101210020FFF7A0
:1015D00017FB10BD0020FFF704FA10BD10B56E48D0
:1015E0000178A12908D16D494A6D0123DB021A4314
:1015F0004A650279002A03D00020FFF7F2F910BDF6
:101600000A7C67490A6001690122D2031143016122
:1016100001210020FFF7F4FA10BD10B56149002048
:1016200008605D4801690122D2031143016105216F
:101630000020FFF7E5FA10BDF8B55B4E02213078C7
:10164000084330700024554DA000411949690091AC
:101650000099FFF778FB641CE4B2102CF4D34E48D9
:1016600001690122D2031143016140210020FFF7EB
:10167000C7FA687DAB2806D13078FD21084030706C
:101680004A4904200870F8BD10B54448017800208C
:10169000FFF759FB404801690122D2031143016160
:1016A00001210020FFF7ACFA10BD10B53D49002024
:1016B0000860394801690122D20311430161082100
:1016C0000020FFF79DFA10BD10B533480178A1291D
:1016D0001FD1816801291CD10179C078002902D06D
:1016E000012910D015E0012804D0022805D00328D4
:1016F00006D00EE0FFF7D9FF10BDFFF7C5FF10BD04
:10170000FFF79AFF10BD2549497C012901D1012825
:1017100003D00020FFF765F910BDFFF77EFF10BD75
:1017200010B51D484078030005F00CFC0C19070AA1
:101730000D191919191910131619FFF7C5FF10BD46
:10174000FFF74CFF10BDFFF729FF10BDFFF70FFF9C
:1017500010BDFFF7D4FE10BDFFF7ACFE10BD00209A
:10176000FFF73FF910BD10B50E49002008600A4888
:1017700001690122D2031143016105210020FFF715
:101780003FFA10BD05487D210174012141740021FB
:1017900081744165704700005002002064020020FF
:1017A000E0000020C4000020E400002058010020D8
:1017B000F0B591B00020534A534B544D00244100E2
:1017C00054525C526C52401C80B27E28F7D30120E8
:1017D00004F0D9FF04F01BFF002507273F0301AEEB
:1017E0000020AA0181008B18DB191B687350401C74
:1017F00080B21028F6D30120C003101801AA1021CE
:1018000004F098F86D1CADB2162DE9D3414940485B
:10181000C860002081007450401C80B21028F9D3A9
:1018200001AA10213C4804F085F8432001AA1021A8
:10183000400204F07FF8384801AA1021D03004F0AB
:1018400079F8872001AA1021000204F073F804F04F
:10185000D7FE11B0F0BDF8B58C460024294900260A
:1018600065004E53284F7E53284F7E53641CA4B20C
:101870007E2CF5D30021294C455C6554491C89B266
:101880004029F9D3002105E065466D5C8E18A55509
:10189000491C89B29942F7D3204A402104F01AF832
:1018A000012800D1FEE7F8BDF8B58646944600242D
:1018B0001448154F154A0026650046537E5356536B
:1018C000641CA4B27E2CF7D30020144A03E00C5C05
:1018D0001454401C80B29842F9D3704660440446C8
:1018E0000E4A402103F0F6FF012809D00B4A20469A
:1018F00040304032402103F0EDFF012801D1FEE7E6
:10190000FEE7F8BDCA090020C60A0020C20B00206D
:10191000AA55FA5A000001408085000016120020E6
:10192000F8B51420F84EF94D0127401EC0B200242E
:101930003168890600D501243168C90601D5022124
:101940000C43A97AA14204D0022004F01CFFAC721F
:1019500014200028E9D1A87AED49C3070022002B02
:1019600001D00F7000E00A70E84920394F778307F3
:1019700000D54A774B7F002B00D08A73E872F8BD00
:10198000E2490020393148700320253908700220CF
:10199000091F0870DF4901200870DC4906202C313E
:1019A0000870DD4905200870BAE770B50021D648F7
:1019B000026801239206002A00DA01210068C006AD
:1019C00001D502200143D148827A8A4203D00A22FB
:1019D0000273817270BD017B0029FBD0491EC9B220
:1019E00001730029F6D1C47A114661400029F1D073
:1019F000C272CD070024C648002D13D0D10709D0EC
:101A000003700BF07EFB02F026FCFEF765FFC34877
:101A1000047070BD04700BF074FB02F0C1FBFEF7A4
:101A200014FF70BD8907FCD5B84920394B77920760
:101A300000D54C7700780128F3D1487F002802D0E8
:101A400002F0D4FC70BD02F001FD70BD704770B5AE
:101A500000240020AD4D3935295C0C43401CC0B238
:101A60000828F9D3A94A0123203A0021002C06D0E6
:101A7000937400202954401CC0B20828FAD30024D3
:101A80000120A44D2E5C3443401CC0B21028F9D371
:101A9000002C06D0537501202954401CC0B21028D8
:101AA000FAD300240120994D14352E5C3443401C98
:101AB000C0B20328F9D3002C06D0D37401202954D6
:101AC000401CC0B20328FAD3904810304478002C50
:101AD00001D013754170002401208C4D2C352E5CF3
:101AE0003443401CC0B20528F9D3002C06D09375AE
:101AF00001202954401CC0B20528FAD3517270BD90
:101B0000F0B5824B203B187A1C4601464207E57A25
:101B1000A039520F0124072914D89C741846593053
:101B20000078012D07D07E495933895CFF2251404E
:101B300008401870F0BD7A4B74499A5C39311043F3
:101B40000870F0BD0146B0390E461F2912D8DC746A
:101B50006E4903221431012D04D00A700020487010
:101B60008870F0BD6F4B7000185A0A704870000AF8
:101B70008870F0BD0146A839022918D81C75634A3F
:101B8000674C103210463038007A02232018517802
:101B9000C038012D06D01370007EFF23584001404D
:101BA0005170F0BD1370007E01435170F0BD574B72
:101BB000203B1E46597A59361B7A7718DE08554B5A
:101BC000F318012D13D0002950D0504DBE78203D80
:101BD0006D7A6D1EAE46EDB2AC46864229D100212B
:101BE0004A4DB970203DAC74614669723EE0474D84
:101BF000203D052912D200290BD000222B46593353
:101C000005E09E18B6788642D0D0521C92B28A4225
:101C1000F7D3B870491C6972AC74F0BD7828FCD257
:101C20006C753C4804703E495878895C084358708C
:101C3000F0BD0026354F393716E0BD19AD78854225
:101C400010D13249203904E0B819C2788270761C6C
:101C5000B6B27645F8DB0020BA1990708C746046F5
:101C60004872F0BD761CB6B28E42E6D327492039C1
:101C70007828F6D24C752748047029495878895C31
:101C8000FF22514008405870F0BDF8B51F4CE07974
:101C900000286AD0274644373868401C3860796885
:101CA000884262D300253D602046243026460088C5
:101CB000203EB16C80004018416809010909796033
:101CC000C27869460A70807848700021D30900D034
:101CD000012170231A406B461A700C4B2C33102ACA
:101CE00004D0202A20D0302A20D02DE00122B27545
:101CF000064A2C325278002902D002435A7023E05F
:101D000082435A7020E0000000A004400801002037
:101D10009E01002010030020860100207801002091
:101D2000E2790000A279000018710DE030720246DD
:101D3000E03A072A01D840383072F572002901D004
:101D40000120F072FFF7DCFEF7490888801C80B2A2
:101D500008804A88904208D36079002802D0012880
:101D600004D010E0E571FFF772FEF8BDEE4A123ABA
:101D70001078401CC0B210705278904203D3E571C5
:101D8000FFF765FEF8BD2079E84A80008018006CF6
:101D9000E64A403280183D600A227A600D8002884F
:101DA00008304A80B064F8BD10B5DF48E04A4438D6
:101DB000437E0021002B04D04176C37D012B0CD043
:101DC0000CE0C17501234376DA48018000201154EC
:101DD000401CC0B24028FAD310BDC175C17D11703E
:101DE000007E00280DD0012812D0022818D0032828
:101DF000F2D1872040230022CD490002FFF72BFDBE
:101E000010BD40230022CA49CB48FFF724FD10BD76
:101E1000432040230022C6494002FFF71CFD10BDAD
:101E2000C54840230022C249D030FFF714FD10BD41
:101E3000F8B5BD4E0024443E717E3046C07A00297C
:101E400014D0B17A002911D1327AAF2A05D0F17DB0
:101E5000402903D33472FFF7A7FFF8BDB44B5A549F
:101E6000491CC9B25854491CF1753472B34B317ACC
:101E70001A780125F02966D0E62975D0F72974D0A3
:101E8000D12973D0EE2972D0AD4FD32970D007235A
:101E90003A461B0312788D296BD08E296AD08F2980
:101EA00069D0902968D0912967D0922970D0EF2904
:101EB0006FD09C296ED0A34AA34B12781E78DA29E2
:101EC00069D0DB2968D0A14AA14B12781B78D029B0
:101ED00075D0954E443ED82972D0E72971D0E129BA
:101EE00070D09C4ED62936786DD0D7296CD09A4EBA
:101EF000D429367869D0D52968D08B4E443EDC2968
:101F00006FD0DD296ED0DE296DD0DF296CD0E029BD
:101F10006BD03246127B3A2968D03B2967D03C29E6
:101F200070D03D2999D1002897D0872000020078F1
:101F3000002892D0002A90D1747035730320307637
:101F40003472F475F8BD34720028FBD0002A15D025
:101F5000012AF7D11C700BF0D4F802F021F9FEF73A
:101F600074FC0BF006F9F8BD17E030E040E04AE001
:101F700058E078E091E0ADE015E143E11D700BF031
:101F8000C0F802F068F9FEF7A7FC0BF0F2F8EAE7F8
:101F900059E179E186E190E19EE13472012AE2D1D2
:101FA000614E243E012803D074706C480470DAE757
:101FB00002F08CF90A2004F0E6FB7570D3E79AE191
:101FC00015E21FE224E22EE23AE246E253E23472E4
:101FD0000128C8D1F07B002801D0F473C3E7F57362
:101FE000C1E756E269E27DE291E2A5E2B9E2C6E22A
:101FF00034720128B7D1B07B012801D0B573B2E7A4
:10200000B473B0E7CAE234720028ACD054490878FF
:10201000401CC0B20870032800D30C7008F0E8FA26
:102020003577A0E734724F49097801299BD0002801
:1020300099D00120C003027947490A704179454887
:10204000017008F0DDF9484805703878401CC0B2CE
:102050003870132800D33C700AF040FD0AF048FDA8
:102060000BF04FF87FE73472002890D0062A8ED00C
:10207000062038701979384801705979354801704F
:1020800008F0BEF938480570384804700AF026FD9B
:102090000AF02EFD0BF035F865E73472002886D083
:1020A000052A14D00520387019792B480170597908
:1020B0002848017008F0A4F92B4805702B480470DB
:1020C0000AF00CFD0AF014FD0BF01BF84BE707209B
:1020D0003870E9E73472002891D00A2A48D0092ADA
:1020E00049D00B2A4AD0082A4BD0032A4CD0102AB8
:1020F0004DD0042A4ED0112A4FD00F2A50D00A209A
:10210000387019791448017059791248017008F033
:1021100077F915480570154804700AF0DFFC0AF0DD
:10212000E7FC0AF0EEFF1EE72C010020809700007C
:1021300020030020D0010020808500009E010020A7
:10214000A7010020B1010020A2010020A30100206E
:10215000BE010020BB010020B90100208201002047
:10216000A401002002000020A9010020BD010020E0
:1021700009203870C5E70B203870C2E70820387096
:10218000BFE703203870BCE710203870B9E704209F
:102190003870B6E711203870B3E70F203870B0E719
:1021A00012203870ADE7347200288FD0002A1BD07F
:1021B000012A1BD00D2A1CD00E2A1DD00C2A1ED09D
:1021C0003C701979FD4801705979FD48017008F09B
:1021D00017F9FC480570FC4804700AF07FFC0AF00F
:1021E00087FC0AF08EFFBEE63D70EAE70D203870EE
:1021F000E7E70E203870E4E70C203870E1E70220B2
:102200003870DEE7347200288DD01979EB48017000
:102210005979EB48017008F0F3F8EA48057038780E
:1022200006280AD007280BD0062038700AF056FC82
:102230000AF05EFC0AF065FF95E607203870F5E7C6
:1022400008203870F2E734720028CCD01979DB48C6
:1022500001705979DA48017008F0D2F8D948057050
:10226000387810280AD00F280BD0102038700AF0C8
:1022700035FC0AF03DFC0AF044FF74E60F2038708C
:10228000F5E711203870F2E73472D0490878401C25
:10229000C0B20870082800D30C700AF0AEFE0AF035
:1022A00030FF60E6347200289DD0C94801780029CB
:1022B00001D0047057E6057055E6C64F3C72002801
:1022C00091D0002E01D1521C1A701878401E18703F
:1022D0000AF00EFC3D7746E62146BE4C21720028EE
:1022E000AAD0761CF0B21870904200D919700AF08A
:1022F000FFFB257737E6B7490C7200289CD0122ADD
:102300009AD1B5480178002923D00470082E93D3C0
:10231000012B2AD0022B30D0032B37D0042B3ED0F8
:1023200021208002052B43D0062B47D0FF2201320B
:10233000072B49D0082B4CD0092B51D0002B9CD116
:10234000FF2201207E238132A449C003FFF7ACFAAB
:1023500009E60570A24804800020A04AFF2111541C
:10236000401CC0B27E28FAD3FDE5012252027E2332
:102370009A499001FFF798FAF5E5052201207E239E
:10238000D2019649C003FFF78FFAECE50322012042
:102390007E2312029149C003FFF786FAE3E5072284
:1023A00001207E23D2018D49C003FFF77DFADAE5D3
:1023B0007E2300228949FFF777FAD4E57E23802225
:1023C0008649FFF771FACEE57E238449FFF76CFA60
:1023D000C9E580227E2381491002FFF765FAC2E534
:1023E00001207E237D49C003FFF75EFABBE534720E
:1023F0000028ADD074480178002901D00470B2E5FE
:102400000570B0E534720028A2D03573F475AAE5E2
:10241000347200289CD073480178002901D00470E0
:10242000A1E505709FE56B490C72002890D06448C7
:10243000052E8DD2761C0670624805700D7792E5E8
:1024400064490C7200288FD05D48012E8CD9761E0D
:1024500006705C4805700D7785E55E490C720028B2
:102460008AD05648052E87D2761C067007F0C8FF22
:102470000AF047FE77E557490C72002885D04F488F
:10248000012E8BD9761E067007F0BAFF0AF039FECE
:1024900069E5347200288AD05348012B01D1122AF1
:1024A00085D0057051480470132038700AF016FB6F
:1024B0000AF01EFB0AF025FE55E53472002887D08D
:1024C0004948022B01D1122A89D0022101704748C4
:1024D0000470132038700AF001FB0AF009FB0AF0BF
:1024E00010FE40E53472002889D03F49032B01D10A
:1024F000122A84D0032008703C48047013203870DE
:102500000AF0ECFA0AF0F4FA0AF0FBFD2BE534725B
:10251000002885D03448042B01D1122A8FD0042101
:10252000017032480470132038700AF0D7FA0AF0AC
:10253000DFFA0AF0E6FD16E5347200288CD02A484E
:10254000052B01D1122A87D005210170274804707C
:10255000132038700AF0C2FA0AF0CAFA0AF0D1FD64
:1025600001E5002886D022480078002890D0002A73
:102570008ED17470357334763472F475F3E40028B8
:1025800086D0432040020078002895D0002A93D1BD
:102590007470357335763472F475E4E400288BD0AA
:1025A0001348C030007C002886D0002A84D1747083
:1025B0003573022030763472F475D4E4B90100200A
:1025C000BB010020A9010020BD010020A5010020C1
:1025D000C7010020E8000020B70100204B050020C3
:1025E000D0010020CE010020BE010020A301002068
:1025F00080850000F8B5F74A0024117A10461E25A0
:10260000C07AD2290CD0F44B0127F44E527C1B78AF
:10261000F12916D0F2292FD0F32949D00120A2E4C4
:1026200000280BD0EE480178002905D00470FFF790
:10263000BFF807F02FFF02E0557400E0547400204B
:1026400091E4012B16D1E349002810D04D74E549DF
:10265000032008705120307081207070E2480770AC
:10266000E24807700AF04DFDE148047002E0002ADC
:1026700000D04C74002076E4012B17D1D5490028F6
:1026800011D04D74D749032008705120307082203A
:102690007070D5480770D548022101700AF031FDED
:1026A000D348047002E0002A00D04C7400205AE4A1
:1026B000012B17D1C749002811D04D74C9490320F7
:1026C00008705120307083207070C7480770C74869
:1026D000042101700AF015FDC548047002E0002ACB
:1026E00000D04C7400203EE410B50020B949C14B25
:1026F000097AC14A05E044001C5D8C4205D0401CAB
:10270000C0B21488A042F6D3FF2010BDF0B5B14D81
:10271000BA4EE87A2C462034B94F002854D0FFF73F
:10272000E3FFFF2817D0697F002915D0A97A002977
:102730003DD0E178002934D0B2494200511849789F
:102740002972A44BC10851334407AF48640F5A5C47
:10275000005D02435A54F0BDA97A002916D0617A6F
:1027600000290ED04100C91949782972994BC10836
:1027700051334407A448640F5A5C005D02435A5425
:10278000F0BD4100891949782972EFE7617A002983
:1027900003D04000385C2872F0BD4000305C2872E5
:1027A000F0BD9A494200511849782972C9E7E17889
:1027B000002904D041009348405C2872F0BD4100DC
:1027C0009248405C2872F0BDFFF78EFFFF28FAD0D8
:1027D000804AC1088C465132515C43078A4A5B0FDC
:1027E000D25C114223D06B7F002B0DD0E378002BFD
:1027F00017D0430083481818407828727548513024
:10280000914362468154F0BD637A002B04D04000AE
:10281000C01940782872F1E740008019407828728A
:10282000ECE743007948181840782872E6E7697F9A
:10283000002907D0E17800290FD041007148405CA1
:102840002872F0BD617A002903D04000385C2872FC
:10285000F0BD4000305C2872F0BD41006B48405C28
:102860002872F0BDF8B56A480026068060480178F5
:102870006848002902D06849016002E0FF219131D7
:102880000160544F387A00284BD0797F3C46593448
:10289000002925D0A32808D0A22809D0A7280AD02B
:1028A000A6280BD046280CD01AE0A220387217E0D8
:1028B000A320387214E0A620387211E0A7203872E5
:1028C0000EE0212038724348F97A59300078002907
:1028D00003D00A210843207002E0F521084020704F
:1028E000FFF714FF397A01253B46AE291AD0394843
:1028F0001E272030E22920D00222AD2935D0E5293B
:102900004BD0AC2961D0E32960D0AB295FD0E4295A
:102910005ED0D9295DD0187C1F4600287ED0FFF7F5
:1029200096F860E41E72D87A0128FAD1187C012842
:1029300001D01D7457E41E7455E4D97A00290ED0D5
:10294000997A0029EDD0017829430170C8438007A6
:10295000E7D1214800780128E3D15F7443E401788E
:102960004908490001705E743DE4D97A00290ED00F
:10297000997A0029D5D0017811430170C8438007A6
:10298000CFD1154800780128CBD15F742BE40178B2
:102990008908890001705E7425E4D87A00283ED049
:1029A000987A0028BDD0987F1C4628439877C0436A
:1029B0008007B6D10A480178002904D00670FEF7D6
:1029C000F7FE07F067FD67740DE42EE04BE05EE074
:1029D00071E084E0E80000209E01002086010020D4
:1029E0000200002077010020790100207D010020F5
:1029F00078010020CB780000FE6F000047780000CF
:102A0000897800004F790000E27900000D7900001C
:102A100088010020940100207017000073E0987F67
:102A20004008400098775E7406E4D87A002814D0F5
:102A3000987A0028F8D0987F1C4610439877C043B6
:102A40008007F1D1F9480178002904D00670FEF71B
:102A5000AFFE07F01FFD67740FE4987F80088000C9
:102A600098775E7409E4D87A00280AD0987A00280A
:102A7000F2D0D87F2843D877C0438007ECD15F7469
:102A80000FE4D87F40084000D8775E7409E4D87A14
:102A900000280AD0987A0028F2D0D87F1043D8773F
:102AA000C0438007ECD15F7404E4D87F80088000C5
:102AB000D8775E740FE4D97A00290AD0997A002970
:102AC000F8D0817829438170C8438007F2D15F74C0
:102AD00010E481784908490081705E740AE4D97A6B
:102AE00000290AD0997A0029F2D0817811438170A7
:102AF000C8438007ECD15F742AE481788908890093
:102B000081705E7424E4FFF775FD0028F4D07E74B4
:102B1000FFF78EF93A7A002AEED0B87B012803D06D
:102B2000C3480078000605D5A32AE5D0A72AE3D03C
:102B3000652AE1D0F72108209D2A04D09E2A0FD0D3
:102B40009F2A1AD020E015223A72FA7A002A03D07E
:102B500021780143217017E022780A40227013E0A7
:102B6000FA7A012A05D022780A4022702B21397284
:102B70000AE0217801432170F8E7FA7A012A2BD084
:102B800022780A4022703872397AF82908D3FA7B01
:102B9000A84B002A24D04907090FC918497839726F
:102BA000A34909788A0604D53A7AA22A1DD02B2A8D
:102BB0001DD0490604D5397AA2291AD03D291AD048
:102BC000397AAF2919D0F5292ED0F62972D09A4832
:102BD000007812286FD005E1217801432170D2E7F7
:102BE0004907090F595C3972DAE73E7207E43E7211
:102BF00005E43E7203E43E7203E43D71BE72F87A6E
:102C000001280FD0387F002802D00AF07AFA3E77E8
:102C1000787F0028F0D0BD74E671F87A0028EBD0F8
:102C2000E5710CE4BD72F3E7F97A0129F9D1797FF6
:102C3000002947D0BD748148C571814C2078002897
:102C400026D001F0D9F80A2003F09DFDBD747B4E1B
:102C50000020F0712078002820D001F0CDF80A2063
:102C600003F091FDBD74F571207800281CD001F0AF
:102C7000C3F80A2003F087FDBD740020F0712078AE
:102C8000002819D001F0B8F80A2003F07CFD13E405
:102C900008226A490120FDF737FDD4E70822674979
:102CA0000120FDF731FDDAE7082264490120FDF734
:102CB0002BFDDEE72DE091E0082260490120FDF7C1
:102CC00023FDE1E70121B97420700B20A0705C4D59
:102CD0002878002811D001F08FF80A2003F053FD66
:102CE0000120B8742670A670287800280BD001F057
:102CF00083F80A2003F047FD08E408224F49012029
:102D0000FDF702FDE9E708224C490120FDF7FCFC34
:102D1000EFE7F97A0129EFD1797F002937D0BD7427
:102D20000020A070E571464E307800281DD001F0DB
:102D300063F80A2003F027FDBD742C20A070E57114
:102D40003078002817D001F057F80A2003F01BFD57
:102D5000BD740020A070E0713078002811D001F01F
:102D60004BF80A2003F00FFD08E408223349012044
:102D7000FDF7CAFCDDE7082230490120FDF7C4FC5D
:102D8000E3E708222D490120FDF7BEFCE9E7BD7409
:102D90002A49087006208870294C2078002811D014
:102DA00001F02AF80A2003F0EEFCBD7423480670F7
:102DB0008670207800280BD001F01EF80A2003F05E
:102DC000E2FC2CE408221D490120FDF79DFCE9E707
:102DD00008221A490120FDF797FCEFE7194800780F
:102DE0000128EED0787E0028EBD1FEF789FE16E4AC
:102DF00070B50020114D593D6978491CC9B2697000
:102E0000142947D300246C70297B01291CD0687BCE
:102E100000283FD02E462036B079401CC0B2B07199
:102E2000C1073CD0FEF713FE41E000000200002085
:102E30005901002091790000A301002041010020E8
:102E40009E010020B7010020297E002906D001291B
:102E500006D0022907D0032908D009E0FB4807E083
:102E60004320400204E0F948D03001E0872000020E
:102E7000E97D425C002A0ED040290CD2425C2A72C5
:102E8000491CC9B2E975405CE872491CE975EC76E9
:102E9000FFF7E8FC70BD2C73FEF7D9FD70BD012172
:102EA000E972A96C4008085C2872FEF729FEB07927
:102EB0000728F3D36C7370BDF8B5E5490120887617
:102EC000E448CA7A0578C879E34FE4494000C31959
:102ED0000978E34C072D03D0E24E082D28D072E08C
:102EE0003D5C5878EB001B191C5CDF48002A14D0AD
:102EF0000078DE4A401E1055082902D0FF2904D070
:102F00000FE0204607F0B2FD0BE0D9480079012818
:102F100007D1204607F0AAFD03E00178D348891EB7
:102F20000155D248015DD348415CD3480155F8E4CE
:102F3000002A48D0385C5978715CD04E325C0A4324
:102F40003254CF4A135C0B431354012017463118F7
:102F50002039CA7F335C1A43CA771721091A3A46C7
:102F60008D18203D7B5CED7F2B437B54401CC0B211
:102F70001728ECD30025C148475DC148405D074391
:102F80000026F80715D0FF21E8000019805DBA4A35
:102F90001154B2490978082902D0FF2903D008E06A
:102FA00007F064FD05E0B2490979012901D107F074
:102FB0005DFD7F08761CF6B2062EE2D36D1CEDB2E5
:102FC000172DD8D3ADE4092D02D00F2D25D074E0F4
:102FD0003D5C5878EB001B191C5C002A03D0A34809
:102FE0000021015512E0A14A01201055082902D004
:102FF000FF2904D00AE0204607F038FD06E09C488F
:103000000079012802D1204607F030FD9748015D84
:103010009848415C9848015583E4002A4DD0385CBB
:103020005A78B25C954B1A54954E3254954B1A54BB
:10303000954B1A54082902D0FF2906D00EE0C00093
:103040000019805C07F012FD08E08949097901291F
:1030500004D1C0000019805C07F008FD00258748F6
:103060008949475D8648495D405D07438548405D25
:10307000084307430026F80715D0FF21E800001990
:10308000805D7D4A115475490978082902D0FF29CD
:1030900003D008E007F0EAFC05E075490979012949
:1030A00001D107F0E3FC7F08761CF6B2062EE2D3CE
:1030B0006D1CEDB2172DD2D333E4122D02D1644E24
:1030C000002A1FD0132DA7D1002AA5D0385C6B4B46
:1030D0003F221A546A490A5400256848475D6848E7
:1030E000405D07430026F80740D0FF21E8000019A3
:1030F000805D614A11545949097808292DD0FF296A
:103100002ED033E0B27A002A12D000225F4D2D7803
:103110002A42D1D0385C5A78C0000019805C5C4AE1
:10312000082909D2135CFF2B04D0FF2111540DE0B4
:103130000122EBE7115409E0115CFF290AD0491C78
:103140001154115C082901D3FF2111545149012068
:10315000087003E400211154F3E707F087FC05E051
:1031600043490979012901D107F080FC7F08761CC9
:10317000F6B2062EB7D36D1CEDB2172DADD305E414
:1031800070B5334C444A6179A06B890050500025DA
:10319000A571206CC00712D06079A179C0004018D9
:1031A000C0B2E071E572218FC90701D00121E1723F
:1031B0003A49085C2072FFF77FFEFFF753FBA06BD4
:1031C0004008A063206C40082064A079401CC0B275
:1031D000A0710628DDD370BD70B51D4C0025A07808
:1031E000002829D062792C4990000958A06B4140F1
:1031F0002164002916D0E1780222002908D0E36B6F
:1032000083420CD1491EC8B2E070002803D010E000
:10321000E270E0630DE0E563FFF7B2FF09E0E27002
:10322000E06306E0E570521CD0B26071152800D34F
:103230006571FFF7DDFDA57005482030017A002992
:1032400002D00572FEF721FD70BD000080850000F0
:10325000E8000020A3010020CE7B0000A201002096
:103260001E7D0000E2790000C57F000047060020B7
:103270006C01002080890000B20F0020D8040020DB
:10328000EF040020060500201D050020B7010020E6
:103290004B050020A8010020BC0200209F77000001
:1032A000FE4801218176FE49097802290CD1C079B6
:1032B000FC4A4000115C80184078FB4AC90089181C
:1032C000085CFA4AFF211154704730B5F34B0024D3
:1032D0009C71F74D98798000285898635C71188F1D
:1032E000C00706D058799979C0004018D871FFF707
:1032F000D7FF986B400898635879401CC0B258714A
:103300001528ECD39879401CC0B298710628E1D3F7
:1033100030BDF8B5E14CA078002844D02046E04FFD
:10332000C18D3A78481CE24E002580B2012A02D0B5
:10333000022A06D019E07D221201914215D2E085C1
:1033400013E02178002910D1A179A26B8B00F250F3
:10335000491CC9B2A171062907D3A571E0850428CB
:1033600003D901202070FFF7B0FF3878022802D17E
:103370002078002816D0A079A16B8200B150317856
:10338000012909D131890904090E402904D1B18AE2
:103390004905490F022907D0401CC0B2A071062878
:1033A00000D3A571A57021E4FEF702FAC1480561BA
:1033B0004561FEE7C0484168FF2212029143416027
:1033C000BE484168490B490341607047F0B5BA49AE
:1033D000B2488A1547794C150D15CE14B7483B00F5
:1033E00003F0B0FD150C1014181C22282E34393EA1
:1033F00043484D52575C6064686C0F00486A104344
:103400004862F0BD486A20434862F0BD486A2843DC
:103410004862F0BD486A30434862F0BD486A012204
:10342000120310434862F0BD486A01225203104360
:103430004862F0BD486A0122920310434862F0BD21
:10344000486A0122D20310434862F0BD416A01225A
:1034500011434162F0BD416A022211434162F0BD55
:10346000416A042211434162F0BD416A08221143BE
:103470004162F0BD416A102211434162F0BD416AD0
:10348000202211434162F0BD416A40221143416252
:10349000F0BD416A802211434162F0BD416A11438F
:1034A0004162F0BD416A21434162F0BD416A294356
:1034B0004162F0BD416A31434162F0BD426A01217F
:1034C00009030A434262F0BD7B480168FF221202F1
:1034D0009143016079480168490B490301607047D5
:1034E00075484168FF2212021143416073484168E8
:1034F000734A11434160704710B50024FFF7F0FF95
:10350000FFF7E2FFFFF762FF052003F027F96D48A0
:103510000068000400D501246B480168090501D545
:1035200002210C430168490501D504210C430168BF
:10353000890501D508210C430168C90501D5102171
:103540000C430068000601D520200443204610BD2E
:1035500070470020704758480168FF22120211434B
:10356000016056480168564A114301607047F0B542
:1035700051494A488A1547794C150D15CE144F48C4
:103580003B0003F0DFFC150C1014181C22282E340D
:10359000393E43484D52575C6064686C0F00486880
:1035A00010434860F0BD486820434860F0BD48685B
:1035B00028434860F0BD486830434860F0BD486823
:1035C0000122120310434860F0BD486801225203F3
:1035D00010434860F0BD48680122920310434860E0
:1035E000F0BD48680122D20310434860F0BD416835
:1035F000012211434160F0BD416802221143416044
:10360000F0BD4168042211434160F0BD41680822C9
:1036100011434160F0BD4168102211434160F0BD8B
:103620004168202211434160F0BD416840221143AE
:103630004160F0BD4168802211434160F0BD4168A6
:1036400011434160F0BD416821434160F0BD4168D4
:1036500029434160F0BD416831434160F0BD42689B
:10366000012109030A434260F0BDFEB59320000228
:10367000C06B1649884201D00120FEBD074914489D
:10368000CA79805C80000190124A01988018006C11
:103690006B46C2B21A7003041D0E1DE0E800002044
:1036A000A3010020CE7B00001E7D0000B20F002091
:1036B000BC02002000C005400040044000600440FF
:1036C000FF1F00000080044000A004400000AA5535
:1036D000F7760000809000006B465D7003021E0EBE
:1036E0006B469E70000ED8700290002A0BD00C46DC
:1036F000E07A00272034130003F024FC089107210E
:10370000313C455385910120FEBD01228A75454B10
:10371000012D02D0032D0ED081E0F206D20E6946B3
:103720008A7040490028497802D01143597076E0E8
:103730009143597073E0002871D01E716FE0394BCE
:103740000D331A78002802D02A431A7001E0AA43E8
:103750001A70012088740E72002E60D0FEBD012206
:10376000CA74304918394F708F70002857D04D7087
:103770008E7054E001220A752A491C394F700128C5
:103780004DD14D704BE0022D09D1012807D1264AB9
:10379000107026480522027047708670C7700F723D
:1037A0003DE0002828D0E079002807D0FEF74FF947
:1037B0006079022824D01B484C3807722571667145
:1037C00018481A38077002994170A7711849A80063
:1037D0004018144A006C4C3A1549403140180121F8
:1037E000E171134664331F605960114644310F8004
:1037F000038808304B8090640A484C3807720EE00A
:10380000E7710020FEBD002808D0012048734F70EA
:10381000084B019AD2188A64A071CF710F720020F0
:10382000FEBD704734010020790100208601002090
:1038300080970000C090000010B5F7490878C207D3
:1038400009D0400840000870F44803F059FBF449DF
:1038500088600320087010BDF0B5F0481438047D6E
:10386000437DED4EEE4A31780027CD079078002D4C
:103870001ED0EA4D143D490849003170042C01D195
:10388000022B07D0FF20E875D780977037709760BC
:103890001770F0BD0121E975916829760B0A6B76E6
:1038A0000B0CAB76090EE976102108439070EBE71C
:1038B0008907EED5C006ECD5D78097703770976032
:1038C000D7601770F0BD70B5D6480178D44C143469
:1038D0002170417861708178A170C178E170017ABE
:1038E0002171417A6171817AA171C07AE071CE480B
:1038F00000210170E1790125012903D0E179022934
:1039000002D002E0057000E005702178C748002968
:1039100014D02178802911D02178491E0170607956
:10392000C349087006F06CFD09F0E2F8A079C149BE
:103930000870C148057006F070FE70BD132101705B
:10394000EDE738B5B64C00222271B3490878C307B9
:1039500050D0400840000870E2802069E168800093
:103960004018AE4A102101F0E5FF2069E2688000AE
:1039700010580090B14882420DD101780388056843
:103980001B09ED0A2B4305680079AD0C2B43C001E0
:1039900003430B4363700020009B00991B04C9B2D2
:1039A0001B0EC918009B1B021B0EC918009B1B0E87
:1039B000C918A368C918A1602169491C216189003F
:1039C00051580091001DC0B24028E5D3E078401E58
:1039D000C0B2E07000280DD10320207098488242C8
:1039E00006D19849FF200870FFF76DFF0120207174
:1039F00002F006FE38BDF0B587490878820731D558
:103A0000FD2210400870864C0020E080E078864659
:103A100001281FD90021E068844625696246A80074
:103A200010587E4AC7B2143A5218177503041E0E76
:103A3000567503021B0E9375000ED075BA19D21875
:103A40001018A2688018A0606D1C2561091DC9B2FC
:103A50004029E2D37046401EC0B2E070002801D178
:103A600003202070F0BD6E4BD860D9701A7070477B
:103A70006A4A143A117F527F12021143814206D9D9
:103A80006549002008706649887001207047002051
:103A9000704708B500210091172849D012DC13287F
:103AA00033D008DC052823D0102823D0112823D0B8
:103AB00012281BD127E014282FD015282FD0162824
:103AC00014D133E0F0284AD00ADC554A18289178FE
:103AD0003BD019283ED0AB2831D0E02806D132E0C7
:103AE000F12840D0F22840D0F32840D0002008BD73
:103AF000012008BD012008BD6A460121524801F09D
:103B000019FF012008BD012008BD46486A46012171
:103B10003C3001F00FFF012008BD012008BD6A46BE
:103B200001214A4801F006FF012008BD012008BD1F
:103B30006A460121464801F0FDFE012008BD02F061
:103B400066FD012008BD012008BDBF200140917025
:103B5000012008BD402001439170012008BD09F0FB
:103B6000D0FA012008BD012008BD012008BD0120B8
:103B700008BDF8B5294914390F7D487D0B7F497F71
:103B800009020B43244900250A78254CD607002E4C
:103B900017D0224E143E520852000A70042F0BD147
:103BA000FFF777FF002807D00120F075A0781121DA
:103BB0000843A070E580F8BDFF20F075A570E58092
:103BC000F8BD9207FCD5A278D606F9D5EF2632408B
:103BD000A270E580104AFD2612783240142876D073
:103BE0000CDC11284ED004DC052833D010280DD170
:103BF0003CE0122852D0132808D15BE0152876D07B
:103C0000162871D0172870D0AB286FD0A5700D7012
:103C1000A560A5602561F8BDE400002078020020C1
:103C20005801002080970000BD010020A70100205E
:103C3000B9010020BB010020A901002080900000F4
:103C400040930000A20100200F930000FCA300009D
:103C5000BC9000000220FFF70BFF0028D9D15B1CAD
:103C600099B201225048FFF7FEFED2E70A20FFF783
:103C7000FFFE0028CDD15B1C99B201224B48FFF713
:103C8000F2FEC6E70A700A20FFF7F2FE0028C0D154
:103C9000022219464548FFF7E6FEBAE71420FFF76F
:103CA000E7FE0028B5D15B1C99B201224048FFF71E
:103CB000DAFEAEE70A701420FFF7DAFE0028A8D17A
:103CC000022219463A48FFF7CEFEA2E7FFE730206E
:103CD000FFF7CEFE00289CD15B1C99B2012235482B
:103CE000FFF7C1FE95E702E00DE018E023E00A705F
:103CF0003120FFF7BDFE00288BD1022219462D4846
:103D0000FFF7B1FE85E70120FFF7B2FE002880D162
:103D10005B1C99B201222848FFF7A5FE79E70A70DB
:103D20000120FFF7A5FE00289FD102221946224854
:103D3000FFF799FE6DE70A700420207069E710B55F
:103D40001E480078030003F0FDF80504070A0D1073
:103D50000600FFF70EFF10BDFFF74DFE10BDFFF789
:103D6000F0FD10BDFFF778FD10BDFFF765FD10BD3C
:103D700010B5124BD888401C80B2D8807D21090133
:103D800088420FD900200E4A00218400A4186161E6
:103D9000401CC0B21028F8D30A48D98001701970AD
:103DA00002F02EFC10BD000000900000C09000004A
:103DB00040930000C0970000809000005801002050
:103DC00064020020E4000020FE49FA200880FE4939
:103DD00000200870FD48012101724B21C900416299
:103DE0007047F94900200870F8490120C871FF2088
:103DF000F4492D3008807047F0B5F548F34B07784B
:103E0000F4485E78F44CF54D00210122002F29D0B2
:103E1000002E27D0EE4E3170466A164346620920C6
:103E20009871A12020800020ED4C265C401CEA4CBB
:103E30004700E653C0B20828F6D3E868C006FCD4B1
:103E40002868C0242043286028680006800F0328C3
:103E5000FAD0E1480088E8619A61D9615970C820B8
:103E60009870D7E0DF4F3F78002F29D0002E27D061
:103E7000DC4E3170466A1643466210209871A220CB
:103E800020800120D84C4700265CD34CE653401CD0
:103E9000C0B21028F6D3E868C006FCD42868C02455
:103EA0002043286028680006800F0328FAD0CA48FB
:103EB0000088E8619A61D9615970C8209870A9E0BA
:103EC000CA4F3F78002F22D0002E20D0C74E31702D
:103ED000466A1643466203209871A3202080C44E90
:103EE0007778A780B6786680EC68E406FCD42C6806
:103EF000C02634432C602C682406A40F032CFAD06F
:103F0000E8619A61D9615970C820987082E0B94F10
:103F10003F78002F29D0002E27D0B64E3170466A48
:103F20001643466202209871A42020800120B24CE2
:103F30004700265CA84CE653401CC0B20228F6D3CA
:103F4000E868C006FCD42868C0242043286028689C
:103F50000006800F0328FAD09F480088E8619A6124
:103F6000D9615970C820987054E0A44F3F78002F51
:103F700024D0002E22D0A14E317002269E71A5269B
:103F8000268061809E4F3F78002F01D003276780F5
:103F9000EC68E406FCD42C68C0273C432C602C68F9
:103FA0002406A40F032CFAD0EE61446A1443446241
:103FB0009A61D9615970C82098702BE05F79002F01
:103FC00028D0002E26D05971466A16434662032037
:103FD0009871A620208000207C4C1234265C401C66
:103FE0007D4C4700E653C0B20228F5D3E868C0060E
:103FF000FCD42868C0242043286028680006800F6D
:104000000328FAD074480088E8619A61D961597030
:10401000C82098701878002814D06F48794F403025
:1040200004884088B12C02D1DD69022D05D06A4D8B
:104030004035AD88B62C06D00CE01970D961400728
:10404000400F3870F0BD5A2804D1012D02D1DE692D
:10405000032E02D0B62C07D00DE01970D961DA72A8
:10406000197359739A73F0BD5A2804D1022D02D1E5
:10407000DE69032E02D0B62C07D00DE01970D9618D
:104080005A73D97219739A73F0BD5A2804D1042D4A
:1040900002D1DE69032E02D0B62C07D00DE01970D4
:1040A000D9611A73D97259739A73F0BD5A2804D121
:1040B000062D02D1DE69032E02D0B62C08D00EE008
:1040C0001970D9614B20C000D882FFF78AFEF0BD7D
:1040D0005A2804D1072D02D1DE69032E02D0B62C56
:1040E00004D00AE01970D9619A72F0BD5A2804D13F
:1040F0000A2D02D1DE69032E02D0B62C07D00DE0C6
:104100001970D961D971D9823F480170F0BD512829
:1041100004D1772D02D1DE69032E02D0B62C09D04E
:104120000FE039701970D970D96138480170FFF704
:104130004BFEF0BD512804D1762D02D1DE69032E4D
:1041400002D0B62C09D00FE01970D96119725962EA
:1041500099821A712E481862F0BD512804D1782D29
:1041600002D1DA69032A02D0B62C09D00FE0197007
:10417000D961FF2091301862596299821971F0BD9E
:10418000512804D1792D02D1D869032805D0D869E6
:104190000328F4D3D9611970F0BD1970D961F0BD4D
:1041A000F0B50A4B00251D720A49486A01263043C2
:1041B000486203209871084AA620108058201C46A7
:1041C000123427E0D0010020B80100207401002043
:1041D000FA000020004004406003002000C00140BD
:1041E00041010020FD00002010030020FB00002002
:1041F0001C010020FC0000201801002054010020B8
:10420000F300002064020020C8010020F900002013
:1042100070170000207066700020215C401C470071
:10422000D153C0B20228F8D3E048C168C906FCD413
:104230000168C0242143016001680906890F032930
:10424000FAD01188C1619E61DD615D70C8209870EF
:1042500014201882F0BD70B5D548416A0123194376
:104260004162D44A03209071D349A620088051208E
:10427000154612352870507A012821D0022822D004
:104280008320687000202C5C401C46008C53C0B218
:104290000228F8D3C548C468E406FCD40468C025E5
:1042A0002C43046004682406A40F032CFAD0098868
:1042B000C16193610020D0615070C820907070BDC2
:1042C00081206870DEE782206870DBE770B5B8484F
:1042D000416A012319434162B64A03209071B649ED
:1042E000A62008805120154612352870612068707C
:1042F00000202C5C401C46008C53C0B20228F8D32E
:10430000AA48C468E406FCD40468C0252C430460B1
:1043100004682406A40F032CFAD00988C1619361B4
:104320000020D0615070C820907070BD70B5A0485A
:10433000416A0123194341629E4A032090719E49BC
:10434000A620088051201546123528706520687017
:1043500000202C5C401C46008C53C0B20228F8D3CD
:104360009248C468E406FCD40468C0252C43046069
:1043700004682406A40F032CFAD00988C161936154
:104380000020D0615070C820907070BD70B5884812
:10439000416A012319434162864A0320907186498C
:1043A000A6200880512015461235287068206870B4
:1043B00000202C5C401C46008C53C0B20228F8D36D
:1043C0007A48C468E406FCD40468C0252C43046021
:1043D00004682406A40F032CFAD00988C1619361F4
:1043E0000020D0615070C820907070BD70B57048CA
:1043F000416A0123194341626E4A032090716E495C
:10440000A620088051201546123528707420687047
:1044100000202C5C401C46008C53C0B20228F8D30C
:104420006248C468E406FCD40468C0252C430460D8
:1044300004682406A40F032CFAD00988C161936193
:104440000020D0615070C820907070BD70B5584881
:10445000416A012319434162564A0320907156492B
:10446000A6200880512015461235287075206870E6
:1044700000202C5C401C46008C53C0B20228F8D3AC
:104480004A48C468E406FCD40468C0252C43046090
:1044900004682406A40F032CFAD00988C161936133
:1044A0000020D0615070C820907070BD70B5404839
:1044B000416A0124214341623E4B032098713E4AE8
:1044C000A620108051201D4612352870702068707B
:1044D0000020295C401C46009153C0B20228F8D34A
:1044E0003248C168C906FCD40168C025294301606F
:1044F00001680906890F0329FAD01188C1619C61FE
:104500000020D8615870C82199701421198218723E
:1045100070BD28498878002814D0401EC0B2887029
:104520004A7810430ED10120487021498A6A02431B
:104530008A621E48016908229143016101690422CF
:1045400011430161704770B5194D28680123800738
:1045500004241849154A00280FDA506940070BD582
:10456000D569C869461CCE61134E400040363552AD
:104570000B7090692043906170BD50694007FBD576
:104580008E798869B04206D3A86A1843A8624B7036
:104590000020886105E0431C8B6107494000085AF0
:1045A000D061D06990692043906170BD00C0014026
:1045B00000400440740100206003002070B5F848FA
:1045C00008250678AA02F748F7495400330002F09C
:1045D000B9FC120A0F161E262C32393F464E545B88
:1045E000626970787EB2416A29434162EF4875E0A2
:1045F000416A402211434162EC482A306EE0416A30
:104600000122520211434162E848543066E0416A97
:104610000122120311434162E4487E305EE0486AA1
:1046200010434862E148A83058E0486A2043486295
:10463000DE48D23052E0416A012211434162DB4838
:10464000FC304BE0416A102211434162D84845E0FA
:10465000416A802211434162D5482A303EE0416AD6
:104660000122920211434162D148543036E0416A3E
:1046700011434162CE487E3030E0CE48416A294342
:104680004162CB48A83029E0416A022211434162CD
:10469000C748D23022E0416A202211434162C44817
:1046A000FC301BE0416AFF22013211434162C248E3
:1046B00014E0416A0122D20211434162BE482A300D
:1046C0000CE0416A21434162BB48543006E0486A2D
:1046D0000122D20310434862B7487E30B7490288AE
:1046E0000A6242884A6282888A62C288CA620289F1
:1046F0000A6342894A6382898A63C289CA63AF496D
:10470000028A40310A60428A4A60828A8A60C28A8A
:10471000CA60028B0A61428B4A61828B8A61C28BBA
:104720000A62028C4A62428C8A62828CCA62C28CA1
:104730000A63008D486370BD00B5994909780B0084
:1047400002F000FC120A0C0F1215181B1E20232663
:10475000292C2F3234373A3C94482FE093482A30A2
:104760002CE09248543029E090487E3026E0904872
:104770007E3823E08E48543820E08D482A381DE0EA
:104780008B481BE08A482A3018E08948543015E0ED
:1047900087487E3012E088487E380FE086485438DB
:1047A0000CE085482A3809E0834807E082482A302F
:1047B00004E08148543001E07F487E307F49028820
:1047C00040310A6042884A6082888A60C288CA6032
:1047D00002890A6142894A6182898A61C289CA6101
:1047E000028A0A62428A4A62828A8A62C28ACA62E9
:1047F000028B0A63428B4A63828B8A63C28BCA63D1
:104800006E49028C0A62428C4A62828C8A62C28C35
:10481000CA62008D086300BDF0B5644A6048144662
:104820000078FC340126274676035E49FC375E4D4E
:10483000030002F087FB120A1826354451606E7C93
:104840008A99A6C5D3E1F3F1F017002008244300AC
:10485000D35A002B02D04B6A23434B62401CC0B298
:104860001528F4D3F0BD152040244300D35A002B63
:1048700002D04B6A23434B62401CC0B22A28F4D3B7
:10488000F0BD2A20012464024300D35A002B02D039
:104890004B6A23434B62401CC0B23F28F4D3F0BDA7
:1048A0003F20012424034300D35A002B02D04B6A3B
:1048B00023434B62401CC0B25428F4D3F0BD5420B3
:1048C0004100515A002902D0696A31436962401C93
:1048D000C0B26928F4D3F0BD692001239B034100D5
:1048E000515A002902D0696A19436962401CC0B25A
:1048F0007E28F4D3F0BD002001224300E35A002BB0
:1049000002D04B6A13434B62401CC0B21528F4D34B
:10491000F0BD152010234200A25A002A02D04A6A94
:104920001A434A62401CC0B22A28F4D3F0BD2A20A0
:1049300080234200A25A002A02D04A6A1A434A62DD
:10494000401CC0B23F28F4D3F0BD3F2001239B029E
:104950004200A25A002A02D04A6A1A434A62401C04
:10496000C0B25428F4D3F0BD54204200A25A002A09
:1049700002D04A6A32434A62401CC0B26928F4D36A
:10498000F0BD69200B4908234200A25A002A02D038
:104990004A6A1A434A62401CC0B27E28F4D3F0BD72
:1049A000EA0100200080044000600440CA090020A1
:1049B000F00A002000A00440160C00200020004057
:1049C000002002234200BA5A002A02D04A6A1A433F
:1049D0004A62401CC0B21528F4D3E0E7152020231A
:1049E0004200BA5A002A02D04A6A1A434A62401C5C
:1049F000C0B22A28F4D3D2E72A20FF230133420091
:104A0000BA5A002A02D04A6A1A434A62401CC0B20B
:104A10003F28F4D3C3E71FE00FE0FFE73F20012367
:104A2000DB024200BA5A002A02D04A6A1A434A629A
:104A3000401CC0B25428F4D3B1E7542001239B0397
:104A40004200BA5A002A02D04A6A1A434A62401CFB
:104A5000C0B26928F4D3A2E769200122D203410041
:104A6000795A002902D0696A11436962401CC0B2B8
:104A70007E28F4D393E73B484268FF2109020A43AA
:104A8000426002680A4302603748426837490A4375
:104A9000426002680A430260704733480168072297
:104AA00052031143016032480168324A11430160E8
:104AB0003148016808221143016070472A480168A3
:104AC000072252039143016029480168294AD243D1
:104AD0001140016028480168082291430160704735
:104AE00010B5264C00202060FFF726FE206802212A
:104AF0000843206020688007FCD420680121084317
:104B0000206001F091FD01F07BFD10BD704770B594
:104B1000FFF7D4FF01F08DFD194C6078401CC0B246
:104B2000607000250A2810D31648017800290CD19E
:104B300001210170657001F0BAFDFEF73BFCFEF744
:104B4000DBFC11490860FCF781FFFFF7C9FFFFF7A5
:104B500063FE2078401CC0B22070122800D325705C
:104B600070BD00000040044000600440FF1F0000D2
:104B700000800440FB7F000000A0044000200040B3
:104B8000EA010020EA0000202001002010B50B22DD
:104B9000FD21E82001F03EFF01220A21E82001F07A
:104BA00039FF10BD70B50B22FD21E82001F032FF66
:104BB00010220121E82001F02DFFE4220D21E82040
:104BC00001F028FF01220E21E82001F023FFBF227F
:104BD0000F21E82001F01EFF44221421E82001F0FB
:104BE00019FF4C221521E82001F014FF0D22FD21B0
:104BF000E82001F00FFF00207049714C0A5C22543C
:104C0000401CC0B24028F9D3002240231146E820BE
:104C100001F041FF0022FD21E82001F0FBFE00220F
:104C2000A0231146E82001F011FF0020634DAD1EC6
:104C30002946423103E00A5C2254401CC0B22A7863
:104C40009042F8D300222B781146E82001F023FF90
:104C50000122FD21E82001F0DDFE0022A023114603
:104C6000E82001F0F3FE00205449503103E00A5CD3
:104C70002254401CC0B26A789042F8D300226B786C
:104C80001146E82001F007FF70BD10B50B22FD2191
:104C9000E82001F0BFFE00220A21E82001F0BAFE60
:104CA00010BD10B54748426802210A434260416284
:104CB0000A2001F068FDFFF7E8FFFFF773FFFFF739
:104CC00065FF10BDF8B5404C207800280FD00122B8
:104CD000FD21E82001F09EFE3E2380222021E820D5
:104CE00001F0D9FE0020207038490870F8BD00207E
:104CF0003549334B89788C46334949788E46344957
:104D00000A782E4960310C5C3249095D6546002DF8
:104D100001D0314D695C7546002D31D02D4D6700B5
:104D200036352D5D51436E00AD192C4EE419765D7C
:104D3000224F4E43F60A96373F5DDE55274E1F4FF2
:104D4000AD19AE7896374E43F60AE4196778DE550A
:104D50006D78A4784D43E90A1955401CC0B2362835
:104D6000CFD30022FD21E82001F054FE8023002251
:104D70002021E82001F08FFE134801210170F8BDC9
:104D8000144D5143A23D2D5D0C4F4D43EE0A65007D
:104D9000651996377F5DDE550E4E084F363E365DFF
:104DA00096374E43F60AED196F78DE55094E6C3E84
:104DB000345D4C43E10AAC781955CEE79D8E000076
:104DC0001616002000600440040200200F0200209C
:104DD00015020020D210002080890000BC8C000049
:104DE000FC48FB49827A895CC172C28A4A4311033A
:104DF000090C81824182704700B5F64B0B20587038
:104E0000FF209130D882FFF7EBFFF34901200870B3
:104E100000219970F14A107099710020F04A1154E4
:104E2000401CC0B23628FAD300BD70B5E94C022050
:104E300060700F208001E082FFF7D2FFE64900207A
:104E40000870A070E5490870A071217CE54D4C0008
:104E50000C19295D65196C78E34BE44EE44AAD7892
:104E6000195434541554401CC0B23628F8D30020CD
:104E7000DB49FF220A54401CC0B23628FAD370BD69
:104E800070B5D44B02205870C820D882FFF7A8FF15
:104E9000D148002101709970D0480170997119743E
:104EA0000020D04D4C000C19295D65196C78CE4B53
:104EB000CE4ECF4AAD78195434541554401CC0B26C
:104EC0003628F8D30020C64AFF211154401CC0B236
:104ED0003628FAD370BDF0B5BE4B092058703C207F
:104EE000D882FFF77DFFBC49002008709870987148
:104EF000BA490870002220E00021BE4B5000C018C3
:104F00008646BD48B74C835C58001818265C0019CB
:104F10004778807884467046405CB84C45006353BF
:104F2000B14C2654B14C2754B14C65462554491C0C
:104F3000C9B20229EFD3521CD2B2B14800788242E2
:104F4000DAD30020A64AFF211154401CC0B23628F3
:104F5000FAD3F0BDF0B59F4B0A205870D882FFF706
:104F60003FFF9D490020087098709C490870987117
:104F700000219D4B9D4E9E4FA248405CA24A4C0092
:104F8000125B9E4C45006253A04C2478A24204D38D
:104F900000221A5432543A5409E05400914D121927
:104FA000AC5C1C5452195478345492783A54491CCD
:104FB000C9B23629E0D300208949FF220A54401C97
:104FC000C0B23628FAD3F0BDF0B5824B0520587038
:104FD0001C20D882FFF704FF7F48002606709E70D1
:104FE0009E717E4806701E740020844F7D4D854959
:104FF000095C874A125C92194B00FA525300D2188E
:10500000794BAC5C5C545219784B54785C5493786F
:10501000774A5354401CC0B23628E8D30020704A67
:10502000FF211154401CC0B23628FAD3F0BD00B5A0
:105030006848017A052903D90121C9034978017219
:10504000007A030001F07EFF0A060C0F1215080813
:1050500008080908FFF7B8FF00BDFFF77BFF00BD98
:10506000FFF739FF00BDFFF70BFF00BDFFF7DDFEC7
:1050700000BDFFF7C1FE00BD56486649027B895C52
:10508000417370470020564A00211154401CC0B2A1
:105090003628FAD3704730B5FFF7F4FF4D4C0025A2
:1050A000E5700120C003817A2172C17A6172017BAF
:1050B0002173407BA072207A574940004018407805
:1050C000A073FFF7D9FFFFF7B2FFE570E57330BDBE
:1050D0004048807900280AD00020414A115C00290C
:1050E00001D0491E1154401CC0B23628F6D3704777
:1050F000C8E7F0B500213748404CC5783A4E4148E2
:10510000405C002D12D04200A35A002B1AD05B1E27
:10511000A3523E4B4200A25A1B789A4217D3002258
:105120003254324B1A54324B1A541CE04300E25AA8
:10513000521C92B2E252394F3F88BA42E9D3002260
:10514000E252E6E7354B1B885B1EA352E1E75300B2
:10515000244FD218BB5C3354D219244B57781F54B8
:105160009378234A1354491CC9B23629C7D3F0BDDA
:10517000F0B50023214F26E0002116481D4AC078D3
:1051800084465800821896466246012A48D03A5A08
:10519000002A50D0521E3A527246525C3C5A650068
:1051A0006419104D2E5D104DAE540E4D64190F4D07
:1051B0006678AE54A5780E4CA554491CC9B2022994
:1051C000E2D35B1CDBB20E4800788342D4D3F0BD3F
:1051D00086D60000080200200602002005020020FA
:1051E000D210002042D200003010002066100020B3
:1051F0009C100020F0D5000040D600003E11002099
:10520000F87F0000BAD500004ED50000F37F000003
:1052100018D50000F38F000034D20000F67F0000A4
:105220003A5A521C92B23A52FE4C2478A242B3D35C
:1052300000223A52B0E7FB4A1278521E3A52ABE7CC
:10524000F0B50021F848C478F84803885B1EF84898
:10525000405C002C0CD0F74E4500725B521C92B2A1
:105260007253F24F3F88BA4209D30022725306E0CC
:10527000F04E4200B55A002D10D06D1EB552ED4AC9
:105280004500525BEC4D2D78AA4209D3EB4D00222C
:105290002A54EB4D2A54EB4D2A540EE0B352EEE75C
:1052A00055005219E84DE54EAF5C37545219E44DA4
:1052B00056782E549578E34A1554491CC9B23629BC
:1052C000C5D300213520421AD948805C002C0CD06F
:1052D000D84D6C352A5C521CD2B22A54D34E368833
:1052E000B24209D300222A5406E0D24D6C352A5C22
:1052F000002A17D0521E2A54D04DD14E2A5C375C5A
:10530000D719D04A125CD7421AD1CA4ACA4F6C3256
:10531000125C3F78BA4207D300222A543254C94D56
:105320002A540DE02B54E7E75700D219C64FBF5C53
:105330002F54C54D5219557835549578C14A155496
:10534000491CC9B23629BDD341E7F0B50021B648A2
:10535000B84CC578B94EB648405C002D18D0420014
:10536000A35A002B20D05B1EA3524200A25AB64F74
:105370005300D218BB5C3354D219B14B57781F5429
:105380009378B04A1354491CC9B23629E3D31EE7B7
:105390004300E25A521C92B2E252A74F3F78BA42FF
:1053A000E3D30022E252E0E7A34B1B785B1EA3523B
:1053B000DBE7F0B500209F4EA44FA2361FE0A449C2
:1053C0000978002909D0315C491CC9B231543A78B6
:1053D000914207D30021315404E0315C002913D0FD
:1053E000491E3154325C9B499B4D895C4200AC5C48
:1053F0009A4B1955521952789954401CC0B2984989
:1054000009788842DBD3E2E63978491E3154E9E76E
:1054100070B58F488749037835220888002B07D05C
:10542000401C80B20880362806D30020088003E0A4
:1054300000280DD0401E088008887D4B195C894CDF
:10544000864D26786E54101A185C2178295470BD48
:105450000A80F1E7F0B500207D49764A0B787B4C55
:105460007C4D7E4FA232002B09D0115C491CC9B281
:1054700011542678B14207D30021115404E0115C85
:10548000002909D0491E1154115C695C3954401C33
:10549000C0B23628E7D39AE62178491E1154F3E7C3
:1054A00070B56149087C401CC0B20874624A127829
:1054B000904201D3002008740020097C624D4C000A
:1054C0000C19295D65196C785C4A5D4E5D4BAD78B1
:1054D000115434541D54401CC0B23628F8D370BD4A
:1054E00051498878401CC0B288705F4A1278904257
:1054F00001D3002088700020584A89781154401C3C
:10550000C0B23628FAD3704710B500204649574A32
:10551000524C497AFF2311542354401CC0B2362800
:10552000F9D310BD70B5404CE07B00283DD16079C7
:1055300000230125002803D06371FFF7C9FDE57141
:10554000207800282CD023706078030001F0FAFC4A
:105550000C070A0D271019131C161F222527FFF709
:10556000D3FF1CE0FFF7BCFF19E0FFF799FF16E03F
:10557000FFF770FF13E0FFF74BFF10E0FFF719FF95
:105580000DE0FFF7E2FE0AE0FFF75AFE07E0FFF743
:10559000EFFD04E0FFF7ADFD01E0FFF7A9FDE571C8
:1055A000E079002801D0FFF78DFB70BD1E49304A1D
:1055B000087A4000135C4B728018407888737047FB
:1055C00030B5194D00236B706420E882FFF708FCAA
:1055D00028480370AB70284901200870AB71002087
:1055E000224A1E4C697AFF2311542354401CC0B236
:1055F0003628F9D330BD30B50B4D0023687801282B
:1056000000D0AB7001246C70FF201930E882FFF7E6
:10561000E7FB1848047018480470AB7100200F496C
:10562000124C2BE0C77F000008020020FA7F000028
:10563000BAD500003E110020F37F0000301000209A
:10564000661000209C10002042D20000F47F000071
:10565000BD01002082D40000F0D50000D21000204F
:10566000F97F0000C57F0000C67F00000811002000
:1056700034D2000006020020050200206A7A0B5492
:105680002254401CC0B23628F9D330BDF0B5784B57
:10569000042058706420D882FFF7A2FB75490020CF
:1056A00008709870744A012111709871734D744C90
:1056B000744A754E754F5B7A295C21541354715CA2
:1056C0003954401CC0B23628F6D380E5F0B5684E98
:1056D00008207070A020F082FFF782FB654900204F
:1056E00008703074644A01211170B071684F11E084
:1056F0006849634A095C1154674D4300EA5C634C96
:10570000A1545B195B78E1545E4C717AA154E15469
:10571000401CC0B239788842EAD358E530B5544BC2
:10572000062058704B20C000D882FFF759FB514922
:10573000002008709870504A0121117099715049E9
:10574000A2390880554C2078554A504915780D5497
:105750003520205C12780A5400204A4A597A1154A4
:10576000401CC0B23628FAD330BDF0B5404B0720FC
:1057700058703220D882FFF733FB3E490020087072
:1057800098703D49087098710021444D454E685C01
:105790004A003B4B4400B25AA23B1A53424B1B787F
:1057A0009A4207D3414B00221A54414B1A54414BA1
:1057B0001A540CE05300D2183F4F3C4BBC5C1C54B5
:1057C000D2193B4B54781C5493783A4A1354491CD1
:1057D000C9B23629DBD30021354B3520421A2F4878
:1057E000805C304A4C00125D254C363C22542F4CD4
:1057F0001E5C255CAE192F4D2F5CFE4212D12A4E45
:105800003678B24204D3002222541A542A5409E0B2
:1058100056009219284EB75C2754921954781C549C
:1058200092782A54491CC9B23629D6D30020174A87
:10583000FF211154401CC0B23628FAD3C7E40C49EA
:10584000888A401E0004000C888203D1488A88821E
:1058500001200870704706490879401CC0B20871E1
:10586000042803D900200871012048717047000006
:10587000080200200602002005020020E2D40000F9
:10588000E01100200811002082D40000D210002076
:10589000F87F000026D60000F0D50000BAD5000041
:1058A000C57F000060D60000F37F000030100020AC
:1058B000661000209C10002042D2000031490222D4
:1058C0008A60086188684022104388604868C00781
:1058D000FCD1704730B52B4C63680425AB43636043
:1058E0000123A360206100BF00E000BF6068C00723
:1058F000FBD10CE0107853781B020343907800042E
:105900001843D3781B060343E360121D091F0029C7
:10591000F0D1A06840210843A06000BF00E000BFB4
:105920006068C007FBD16068400701D5012030BD29
:10593000002030BD30B5134B5C680425AC435C607F
:1059400001249C60186100BF00E000BF5868C007D8
:10595000FBD103E001CAD86000BF491E0029F9D17C
:10596000986840210843986000BF00E000BF586875
:10597000C007FBD15868400701D5012030BD002089
:1059800030BD000000200640FE49FD4808600020B0
:105990008860FD4A4A60FE49FC4A0A608860F84A0D
:1059A000C1324A60FB4908600804886050104860B2
:1059B000F349F94859310160F84981600821416093
:1059C0007047F8B5EE49EF48C1310160ED4AF4483F
:1059D000906000245460EE4A116090605460ED4E77
:1059E0003160B0607460EC4A1160906054600A20CD
:1059F00000F0C9FEEB4D6C70AC70EC702C717068EF
:105A00000227384370607762642000F0A7FE306898
:105A10000124C007002800D06C703068400700D512
:105A2000EC70706838437060B762642000F096FED6
:105A30003068C00700D1AC703068400700D42C71CA
:105A4000022070627168014071606878012802D19B
:105A5000A878012803D0E878012802D005E02C704E
:105A600003E02879012800D12C7000206870A8700C
:105A7000E870287170680827384370607762642086
:105A800000F06CFE3068400700D56C703068C006CE
:105A900000D5EC70706838437060B762642000F025
:105AA0005DFE3068400700D4AC703068C00600D49A
:105AB0002C7108207062716801407160687801285B
:105AC00002D1A878012803D0E878012802D005E0A7
:105AD0002C7003E02879012800D12C700020687018
