:020000040000FA
:10000000A8190020156C0000196C000013070000EF
:1000100000000000000000000000000000000000E0
:100020000000000000000000000000001D6C000047
:1000300000000000000000001F6C00004D67000081
:10004000236C00005D0A00000000000000000000BA
:100050000000000000000000BD450000000000009E
:100060000000000000000000236C00000000000001
:10007000236C0000236C0000236C0000236C000044
:100080008766000000000000000000000000000083
:100090000000000000000000000000000000000060
:1000A000236C000021680000236C000000000000A9
:1000B000370900005F090000236C0000236C00007A
:1000C00000F002F800F032F80CA030C8083824180C
:1000D0002D18A246671EAB4654465D46AC4201D180
:1000E00000F024F87E460F3E0FCCB6460126334280
:1000F00000D0FB1AA246AB463343184714D6000083
:1001000034D600000023002400250026103A01D335
:1001100078C1FBD8520700D330C100D50B607047BF
:100120001FB506F00DFE1FBD10B510BD06F0C0FED8
:100130001146FFF7F5FF00F00EFA06F0D8FE03B403
:10014000FFF7F2FF03BC06F0DDFE0000014801608E
:1001500001480047240006400103FF1F30B40C494A
:100160000C684A6823681068C0181060241D121DAE
:100170008C4207D28A4208D20C604A6030BC4000F0
:10018000400870470C00DC3CF6E70A00DC3AF3E775
:1001900040170020F8B503F0E9FEFE480178002979
:1001A00076D000250570FC4AFC491068002804D070
:1001B000401E1060002800D10D70F94A01231088FC
:1001C000002806D0401E80B21080002801D1F548DA
:1001D0000370F54A106800285AD0F44E3478002C89
:1001E00001D0136006E0F24B09781B78194301D166
:1001F000401E1060106800284AD104F097FC06F0F9
:100200003CFA06F08AFAEB480168802291430160CB
:1002100003F027FA03F060FAE749486A40221043E6
:100220004862E6490868E64A400840001043086012
:10023000E44805610DF054F8E3480078002801D146
:1002400000F0A1FB3078002801D000F0BAFBDF4FAE
:1002500038690921C906884338610A2006F095FAF1
:10026000DB4C00F068FC3D610220206030BF25605F
:1002700030780028F5D100F0EBFB06F05FFA06F0CD
:10028000EDFA06F028FA03F05CF906F003FA35708F
:10029000F8BD70B5BF48CF4D01780024002905D0C6
:1002A00004702888002801D0401E288003F001FE39
:1002B000C948006980072DD5288800282AD1C82080
:1002C00006F069FA04F021FC06F0D7F906F025FAE9
:1002D000B848016880229143016003F0C2F903F03D
:1002E000FBF9B6480168B64A490849001143016064
:1002F000B44804610CF0F4FF04F018FC00F029FC91
:1003000006F01CFA06F0AAFA06F0E5F903F019F96E
:1003100006F0C0F9B14D2878012806D10822B0496D
:1003200000F018FA002800D12C70AE4D2878012872
:1003300007D11022AC49022000F00CFA002800D1AD
:100340002C70AA4D2878012816D0A94D28780128AC
:100350001BD0A84D2878012820D0A74D2878002848
:1003600009D0A649052008700422022000F0F2F905
:10037000002800D12C7070BD0322A149022000F09A
:10038000E9F90028F7D12C7070BD02229D49104672
:1003900000F0E0F90028F7D12C7070BD05229A49D1
:1003A000022000F0D7F90028F7D12C70964884700D
:1003B000C470047170BDF8B594484178002977D0B5
:1003C000002444709249934E088800280FD0401EA4
:1003D00080B2088000280AD13078002802D0012895
:1003E00003D004E003F0D1FF01E003F0CFFF8A491E
:1003F0000878401CC0B20870322830D30C706548B1
:10040000012505708549087800280AD0401EC0B231
:100410000870002805D182480078002801D1814861
:10042000047081490878002819D0401EC0B20870B5
:10043000002814D17D4F3878C04382077C480FD103
:100440000278002A0CD00CF0C0FE7A4804703C7090
:10045000307801287CD104F064F87748047077E0A4
:10046000764A1378DB439B070FD10378002B0CD01F
:1004700014700CF01DFF72480178012903D005703B
:100480000CF0E1FE64E00470FAE76E4A1378DB4397
:100490009B0710D10378002B0DD014700CF008FFCF
:1004A00069480178012904D005700CF0CCFE4FE0BA
:1004B00050E00470F9E7654A1378DB439B0715D1D8
:1004C0000078002812D014700CF0F2FE3848017841
:1004D000002905D004700CF0B6FE03F0C2FF37E02F
:1004E00005700CF0B0FE03F08CFF31E0584A107834
:1004F000D92806D0F12819D0F22817D0F32815D022
:1005000026E0CD20107039490D703D4830224270F0
:1005100084703078002802D003F028FD18E00C70B9
:1005200003223749022000F015F911E03078012844
:100530000ED1484A107800280AD0401E10700320BF
:1005400008702E4851210170892141702A48057098
:1005500001F055FAF8BD06F0B8FB06F071FB3E4914
:100560001F2008603D4E306A01252843306200F0AC
:1005700092F9264C0020A070EF03F8893849884290
:1005800000D1A57006F0A7F806F0D8F805F032FA09
:1005900068E00000A40100209C0100207D010020F3
:1005A0008C010020CD010020980100207F01002057
:1005B0005501002000E0054000A00440000001407B
:1005C0000000FA5A00E000E07C01002000C0054075
:1005D000402003408601002058020020FB0000203C
:1005E00041010020FE00002004030020FC00002048
:1005F000FD000020FF0000207A010020880100207B
:100600001C010020180100203401002000000020FF
:10061000A0010020A2010020A30100200B01002066
:1006200079010020D5010020F900002007010020F9
:10063000F20000207E010020780100200D01002042
:100640000C010020080100200A01002009010020FF
:10065000F000002077010020002004400000064048
:10066000AAAA000001F0B6F906F020F9B87A2D49DF
:1006700008702D4D2878012801D100F053F9A07899
:10068000002804D009F035FF0020287001E009F0AF
:1006900001FF06F0E3F82548B061254E254FFE60C6
:1006A000FFF789FE2448A1780078084301D002F0C2
:1006B00085FE0CF083FB2878002804D00128EED1B9
:1006C000FFF768FDEBE7FFF7E4FDE8E770B50CF036
:1006D00060FD03F059FF194E3078401CC0B23070F5
:1006E000042815D30CF0D1FD002434700125757059
:1006F0000CF0D7FD12490878002809D0401EC0B27E
:100700000870002804D10F4805700F4844708470A9
:1007100070BDBFF34F8F0E490C48C860BFF34F8FB9
:10072000FEE700007E010020A201002002C00000C0
:10073000AA55FA5A00000140A7010020000000203D
:1007400056010020FC0000201C0100200400FA05D6
:1007500000ED00E0F8B506460D4617464248B100E8
:1007600008180268002A01DB0220F8BD002E03D021
:10077000042E01D8402F01D90420F8BD0068400F95
:10078000042801D00120F8BD3848805D002804D03D
:10079000304600F04CF90320F8BD354808180068D1
:1007A000B84201D20520F8BD701E324980000858B9
:1007B0000090002414E0295D641C285D00020843B9
:1007C000641C295D09040143641C285D000608437C
:1007D000641C0146009800F0A0FA0098001D0090EB
:1007E000BC42E8D3F9B2304600F030FA0020F8BD40
:1007F00070B5234B204C1968228800251F4E481CD9
:10080000002A0CD0012A15D0022A1ED0032A05D1B5
:10081000FF2925D2012109043160186070BDFF292C
:1008200004D2FF2101313160186070BD1D600120CC
:10083000208070BDFF2904D2FF21090431601860B7
:1008400070BD1D600220208070BDFF2904D2FF21F1
:1008500009023160186070BD1D600320208070BDEA
:100860001D60258070BD000018C00540B900002043
:100870004402002034020020CC000020D4000020DC
:10088000D0000020421E032A04D8FC4A80008018B1
:100890008038C167704770B500F0FEFD00F098FF2A
:1008A00006F013FA06F0CCF9F54801681023194355
:1008B000016040210120FFF7E5FF80210220FFF7C2
:1008C000E1FFC0210320FFF7DDFFE0210420FFF757
:1008D000D9FFEC484021016080224260C022826042
:1008E000E022C260E8480160436083600821C16083
:1008F0000161E24CE548483C2060022060611F2510
:10090000ED06322005F047FF2561DC486104083818
:100910004162DF49C162012000F055FA012000F078
:1009200043FA70BD10B5D54900204839086101204F
:1009300000F041FA10BD10B51C2000F044FAD64971
:10094000D4480862D548016901229204114301612B
:100950001C2000F030FAD2490120087010BD10B5FB
:100960001D2000F030FACF49CA480862CB4801691F
:1009700001229204114301611D2000F01CFAC849B4
:100980000120087010BD70B5C3480024C4604461E4
:10099000C04D05621F21C90181611C2000F013FABE
:1009A0001C2000F001FABF48C460446105620121C7
:1009B000C90381611D2000F006FA1D2000F0F4F942
:1009C00070BD10B5B448002484611C2000F0F3F918
:1009D000B44884611D2000F0EEF910BD10B5AE489A
:1009E0000021C1604161AB4901620921C9018161F6
:1009F0001C2000F0E8F91C2000F0D6F910BD012001
:100A00009E49C00248398860704701209B49800296
:100A10004839886070470120984940024839886009
:100A20007047FF2095490130483988607047042895
:100A30000DD8924A8100303A8918002804D18F4895
:100A400048384068C00102D407204007086070475A
:100A500010B506F03AF900F0EDF910BD10B5874C6D
:100A6000483C62680020C043A060002A08D0500FB4
:100A700015D0002A07DAFFF7EBFF00F0B7F93DE0E9
:100A8000FFF7E6FF10BD500002D500F0C4F935E0D5
:100A9000900033D5FFF7DCFF00F0C3F92EE0100221
:100AA000C00E18D0100202D500F01DFC26E0500246
:100AB00002D500F05CFC21E0900202D500F098FC29
:100AC0001CE0D002800F19D00320C004A0600020D9
:100AD000FFF7ADFF12E01005000F0FD0D00501D5D4
:100AE000FFF79FFF900501D5FFF795FF500501D552
:100AF000FFF78BFF100501D5FFF781FF206810BDC0
:100B000000206949401C8842FCD370471E20401ECB
:100B1000411CFCD1704700B5584A0620483A506144
:100B2000FFF7F4FF05205061FFF7EAFF5069042149
:100B30008843506100BD5D480121C160C168C9069C
:100B4000FCD5022101615B4A594911600021016015
:100B50007047F8B5514E3169022081433161474FEA
:100B6000483F7868400030D538690921C906884374
:100B70003861306900240006494D002803DA2C70E2
:100B8000FFF701FF14E002F0DCFC4B4841688215DE
:100B900011434160416A114341624848416808225B
:100BA00011434160416A114341622C70FFF716FF07
:100BB0000A2005F0EAFD3C60FFF7BDFF33483860CE
:100BC0007868400002D4FFF743FFF8BD3C49042099
:100BD000086030BFFFF73CFF2878002816D02C7043
:100BE00038491420088031693748884307D1306973
:100BF0000121890488433061B068012809D07868F0
:100C0000400003D53069022108433061FFF720FF1F
:100C1000F8BDFFF780FFF8BD18494839CA6B0123BA
:100C200083409A43CA637047042805D8134980005B
:100C300030394018002101607047042805D80F4959
:100C4000800030394018090701607047042807D830
:100C50000A4A8000303A801805225207891801603C
:100C600070470649383148600220C860C86880076C
:100C7000FCD48868154908607047000048C00540EA
:100C800000E005403402002044020020100000B0C3
:100C900004400000FFFF000000A0044058020020B4
:100CA000B8000020008004400A2800000000064030
:100CB0000200FA5A00200640004004400060044050
:100CC000402003408601002080000400DC0000205A
:100CD00000B50A46402A0ED2401E3E498000085800
:100CE00091084018FFF7BDFF9007C10E3A48006811
:100CF000C840C0B200BD002000BD00B510290AD216
:100D0000401E344A8000105889004018FFF7A9FFA0
:100D10003148006800BD002000BD304A506091603D
:100D20000120D060D068C007FCD1A5E730B50B46E4
:100D3000402B15D2401E27498000085899084518B5
:100D40002846FFF78EFF244804689807C30EFF204B
:100D5000984084431146994021432846FFF7DDFF20
:100D600030BD102988D2401E1A4B800018588900C7
:100D700040181146D1E77FE7184A403A9063174878
:100D80000221016001688907FCD4D06B1449086016
:100D900072E7124A403A9063D16310480121016022
:100DA0000168C907FCD167E7C106C90E0120884068
:100DB0000C49086060E7C106C90E01208840094956
:100DC0008031086058E7C106C90E012088400649F5
:100DD000086051E734020020DC00002080C005409C
:100DE000D800002000E100E080E200E010B5002023
:100DF000F74AC0439060F7490120086100208860ED
:100E0000D060FFF714FE01242046FFF70DFF641C9D
:100E1000042CF9D910BDEF48016902221143016188
:100E20007047EC480169042211430161E849D0068A
:100E300088607047E64801690922D20611430161C2
:100E400001214906816070470120E14980068860E0
:100E5000704710B5DF4CA06801280CD1DE4A002095
:100E600000211154401C0428FBD92079012802D804
:100E7000A278002A03D00020FFF7D9FD10BDD74A81
:100E80001154FFF7C9FE20690121090408432061BC
:100E900000210846FFF7DAFE10BD10B5CD4CA06862
:100EA000012814D12078812811D1207901280ED869
:100EB000CA49095C0020FFF76CFF20690121C903C2
:100EC0000843206101210020FFF7C0FE10BD002073
:100ED000FFF7ADFD10BDF8B5BF4DBE4E30698006C1
:100EE00007D5B078102101240027002805D001285B
:100EF00019D00020FFF79BFDF8BDB76030690843AB
:100F000030610127EC553846FFF78EFE7F1C042F19
:100F1000F8D93069012109040843306100210846ED
:100F2000FFF794FEF8BDB460306988433061002457
:100F30002F55002C0CD02046FFF77FFEA4480069F7
:100F4000611EC840C00703D000212046FFF77EFE87
:100F5000641C022CECD9306901210904084330617A
:100F600000210846FFF772FEF8BD70B5994DA968DB
:100F70000020FFF70EFFA868012806D101242046B3
:100F8000FFF75BFE641C022CF9D995480021016033
:100F90002869032189030843286101210020FFF704
:100FA00055FE70BD10B50020FFF741FD10BD10B516
:100FB000044618061204104309020843204310BDDA
:100FC000F8B5884F3C688348854EC08831688842B0
:100FD00000D23060306800281DD00025E378A27868
:100FE00061782078FFF7E3FF0146A800FFF7D1FE04
:100FF000241D6D1CEDB2102DF0D33068402815D3A0
:1010000040210020FFF722FE386840303860306809
:1010100040383060F8BD00210846FFF717FE6C48E5
:1010200081690122120711438161F8BD3068C1B2A4
:101030000020FFF70BFE00203060F8BDF8B500245B
:1010400000206449684BCA780D798F780C260146D8
:1010500071435E5CB24211D1C9184E78B5420DD1D0
:101060008E78B7420AD10C225043C01882885C485F
:1010700002605C4889680160012402E0401C10287D
:10108000E4D3002C08D0534908690122D20310434D
:101090000861FFF795FFF8BD0020FFF7C8FCF8BD19
:1010A00010B54C4801692023994301610169402230
:1010B000114301618178002902D002691A4302615B
:1010C00001730169012212041143016100210846E4
:1010D000FFF7BCFD10BD70B53E4D28784406640E88
:1010E000000602D50020FFF7A2FC002C05D0022C40
:1010F0000FD00020FFF79BFC70BDA8780128FBD122
:1011000028693A490843286100210846FFF79EFDF7
:1011100070BDA8780028FBD128794006400E411EFA
:101120000129F5D8A9680129F2D12B4A1154FFF7FA
:101130007EFC286901210904084328610021084632
:10114000FFF784FD70BD70B5224D28784406640E0B
:10115000000602D50020FFF76AFC002C1AD0022CF2
:1011600017D1A878002814D128794006400E002213
:10117000194BE10300281ED002280AD8AC68012CC4
:1011800007D11A5428690843286100210846FFF74F
:101190005DFD70BDA8780128FBD1286980218843B6
:1011A00028612869114980390843286100210846CF
:1011B000FFF74CFD70BD28698006FBD51A702869C1
:1011C0000843286100210846FFF740FD70BD00007C
:1011D00000C0054058020020B9000020C8000020CF
:1011E000C4000020C0000020040000208001010095
:1011F00070B5B84D28784406640EC00901D1FFF7D8
:1012000016FC0126F603002C15D0012C27D0022C49
:10121000DCD128794006400E0228D7D8AE49095CB7
:101220000020FFF7B6FD2869304328610221002025
:10123000FFF70CFDCAE72869000604D5022100204B
:10124000FFF7A7FD03E000210846FFF7A2FD28698C
:101250003043286102210020FFF7F8FCB6E7A868B8
:101260000128B3D168790028B0D128790128ADD8F8
:1012700000210846FFF78DFD2869304328610221CF
:101280000020FFF7E3FCA1E710B592484078030087
:1012900005F08CFE0C070A250D25101316191C1FCE
:1012A0002225FFF7A5FF10BDFFF74DFF10BDFFF78B
:1012B00012FF10BDFFF7F4FE10BDFFF7BFFE10BD1B
:1012C000FFF770FE10BDFFF750FE10BDFFF703FEE5
:1012D00010BDFFF7E2FD10BDFFF7BBFD10BD002004
:1012E000FFF7A5FB10BD7CB533207C4CC004A0608B
:1012F0000020FFF7A2FC6068400331D4754C2069E0
:101300000321C903884320610020FFF735FD744D98
:10131000286801900420FFF72FFD286800900198AD
:10132000C0B220700199090A61700199090CA1707D
:101330000199090EE170009921710099090A617102
:101340000099090CE18060210840002802D0202883
:1013500003D008E0FFF798FF7CBD00F007FA7CBDE2
:1013600001208004A0600020FFF761FB7CBD70B508
:1013700001205A4E8005B0605A4DA87C022815D134
:101380000020A8746869584988420DD1A869574956
:10139000884209D10024A0000021FFF7FAFC641C58
:1013A000402CF8D3FEF7D2FE0420A874494C2069E3
:1013B0004F4D40060CD52069402188432061207B99
:1013C000F0600020FFF733FB2069A8432061FDE6B1
:1013D000E088002808D02069C00305D4FFF7F0FD9D
:1013E0002069A8432061F1E60020FFF720FBEDE62D
:1013F000F8B501213948490581603A4DA87C384E3D
:10140000012819D0686D80050DD5686D09138843D2
:1014100068650020FFF7B0FC30682870686D012116
:101420004903084368652B4C2069000425D400213A
:101430000846FFF70BFC29E00024A0000746FFF751
:101440009BFC306879194861641C102CF5D302208C
:10145000A87468692449884203D1A869234988424D
:10146000E1D024480122017811430170224800781C
:101470000428D8D102F09AFAD5E718484168C90182
:1014800004D481690122D2061143816120690121BE
:10149000C90388432061F8BD00200F4A0021115480
:1014A000401C0528FBD30020144A1154401C04287A
:1014B000FBD30848017041708170C17001714171A6
:1014C000C1808160017301690122520411430161ED
:1014D0007047000058020020B900002000C00540FD
:1014E000D80000206C020020AA42895AFF7162CC09
:1014F00000000100E400002058010020C800002086
:1015000010B5B84A107821281BD1B749486D01237E
:101510001B03184348651079012812D890780028D9
:1015200004D14B6D0324A402A3434B654874106996
:10153000012109040843106100210846FFF786FBDA
:1015400010BD0020FFF773FA10BD10B5A548017853
:10155000212914D101690122120411430161A24918
:101560004A6D0123DB021A434A650279012A06D833
:10157000C078087400210846FFF768FB10BD002002
:10158000FFF755FA10BD10B5974901208874002166
:101590000846FFF75BFB10BD10B5924801690122B8
:1015A0001204114301619048416DD211114341650C
:1015B00000210846FFF74AFB10BD10B589480178A5
:1015C000212907D10179002904D1C078022805D04A
:1015D000032806D00020FFF72AFA10BDFFF7DCFF32
:1015E00010BDFFF7D0FF10BD10B57E4C2078A128AC
:1015F00016D17D48416DC90401D40121417421797E
:1016000001290DD8417C0020FFF7C3FB206901218F
:10161000C9030843206101210020FFF717FB10BD1B
:101620000020FFF704FA10BD10B56E480178A1291B
:1016300008D16D494A6D0123DB021A434A650279DC
:10164000002A03D00020FFF7F2F910BD0A7C674999
:101650000A6001690122D2031143016101210020C6
:10166000FFF7F4FA10BD10B56149002008605D482D
:1016700001690122D2031143016105210020FFF716
:10168000E5FA10BDF8B55B4E0221307808433070A2
:101690000024554DA0004119496900910099FFF7B8
:1016A00078FB641CE4B2102CF4D34E48016901228B
:1016B000D2031143016140210020FFF7C7FA687D82
:1016C000AB2806D13078FD21084030704A4904200B
:1016D0000870F8BD10B5444801780020FFF759FBA9
:1016E000404801690122D203114301610121002018
:1016F000FFF7ACFA10BD10B53D490020086039482D
:1017000001690122D2031143016108210020FFF782
:101710009DFA10BD10B533480178A1291FD1816809
:1017200001291CD10179C078002902D0012910D0EB
:1017300015E0012804D0022805D0032806D00EE0C9
:10174000FFF7D9FF10BDFFF7C5FF10BDFFF79AFFE8
:1017500010BD2549497C012901D1012803D0002071
:10176000FFF765F910BDFFF77EFF10BD10B51D48EE
:101770004078030005F01AFC0C19070A0D19191915
:10178000191910131619FFF7C5FF10BDFFF74CFF0D
:1017900010BDFFF729FF10BDFFF70FFF10BDFFF7CA
:1017A000D4FE10BDFFF7ACFE10BD0020FFF73FF9DF
:1017B00010BD10B50E49002008600A4801690122D9
:1017C000D2031143016105210020FFF73FFA10BD4C
:1017D00005487D2101740121417400218174416516
:1017E00070470000580200206C020020E00000203A
:1017F000C4000020E400002058010020F0B591B0A2
:101800000020534A534B544D0024410054525C5223
:101810006C52401C80B27E28F7D3012004F0E9FF0F
:1018200004F02BFF002507273F0301AE0020AA018B
:1018300081008B18DB191B687350401C80B2102884
:10184000F6D30120C003101801AA102104F0A8F853
:101850006D1CADB2162DE9D341494048C860002047
:1018600081007450401C80B21028F9D301AA1021C5
:101870003C4804F095F8432001AA1021400204F0EE
:101880008FF8384801AA1021D03004F089F8872059
:1018900001AA1021000204F083F804F0E7FE11B061
:1018A000F0BDF8B58C4600242949002665004E534A
:1018B000284F7E53284F7E53641CA4B27E2CF5D350
:1018C0000021294C455C6554491C89B24029F9D353
:1018D000002105E065466D5C8E18A555491C89B24E
:1018E0009942F7D3204A402104F02AF8012800D178
:1018F000FEE7F8BDF8B58646944600241448154F17
:10190000154A0026650046537E535653641CA4B204
:101910007E2CF7D30020144A03E00C5C1454401CC6
:1019200080B29842F9D37046604404460E4A402182
:1019300004F006F8012809D00B4A20464030403216
:10194000402103F0FDFF012801D1FEE7FEE7F8BDCD
:101950005A090020560A0020520B0020AA55FA5AB4
:101960000000014080850000A6110020F8B5142079
:10197000F74EF84D0127401EC0B200243168890699
:1019800000D501243168C90601D502210C43E97A4A
:10199000A14204D0022004F02CFFEC721420002895
:1019A000E9D1E87AEC49C3070022002B05D00F707B
:1019B000FF21EA4B9131196000E00A70E5492039B6
:1019C0008F77830700D58A778B7F002B00D08A73AF
:1019D0002873F8BDDF4900203931487003202539CC
:1019E00008700220091F0870DD4901200870D949DC
:1019F00006202C310870DB4905200870B6E710B5C9
:101A00000021D348026801239206002A00DA01214E
:101A10000068C00601D502200143CE48C27A8A423E
:101A200003D00A224273C17210BD417B0029FBD052
:101A3000491EC9B241730029F6D1047B11466140A9
:101A40000029F1D00273C807002400281AD0C24828
:101A5000D1070DD003700BF0F6FB02F097FCFEF7F8
:101A600061FFC1480470FF20BC499130086010BD7F
:101A7000BE490C7004700BF0E6FB02F086FCFEF72A
:101A80000AFF10BD8807FCD5B2482038837791073C
:101A9000F7D5847710BD704770B500240020AD4D98
:101AA0003935295C0C43401CC0B20828F9D3A94A37
:101AB0000123203A0021002C06D0D37400202954A1
:101AC000401CC0B20828FAD300240120A44D2E5C8B
:101AD0003443401CC0B21028F9D3002C06D09375B3
:101AE00001202954401CC0B21028FAD30024012040
:101AF000984D14352E5C3443401CC0B20328F9D3F2
:101B0000002C06D0137501202954401CC0B20328B4
:101B1000FAD3904810304478002C01D053754170AE
:101B2000002401208B4D2C352E5C3443401CC0B268
:101B30000528F9D3002C06D0D37501202954401C68
:101B4000C0B20528FAD3517270BDF0B5814B203B6D
:101B5000187A1C4601464207E57AA039520F012443
:101B6000072914D8DC74184659300078012D07D0A5
:101B70007F495933895CFF22514008401870F0BDFD
:101B80007B4B74499A5C393110430870F0BD0146B3
:101B9000B0390E461F2912D81C756E490322143124
:101BA000012D04D00A70002048708870F0BD714B80
:101BB0007000185A0A704870000A8870F0BD01461B
:101BC000A839022918D85C75624A694C103210464F
:101BD0003038007A022320185178C038012D06D001
:101BE0001370007EFF23584001405170F0BD137008
:101BF000007E01435170F0BD564B203B1E46597A82
:101C000059361B7A7718DE08554BF318012D13D07F
:101C1000002950D04F4DBE78203D6D7A6D1EAE46E6
:101C2000EDB2AC46864229D100214A4DB970203D23
:101C3000EC74614669723EE0464D203D052912D2A2
:101C400000290BD000222B46593305E09E18B678A8
:101C50008642D0D0521C92B28A42F7D3B870491C47
:101C60006972EC74F0BD7828FCD2AC753C48047005
:101C70003F495878895C08435870F0BD0026354FBD
:101C8000393716E0BD19AD78854210D13149203978
:101C900004E0B819C2788270761CB6B27645F8DBDB
:101CA0000020BA199070CC7460464872F0BD761C62
:101CB000B6B28E42E6D3274920397828F6D28C7501
:101CC000274804702A495878895CFF22514008400F
:101CD0005870F0BDF8B51F4C607A00286DD02746CB
:101CE00044373868401C38607968884265D30025DD
:101CF0003D602046243026460088203EB16C80009E
:101D000040184168090109097960C27869460A707A
:101D1000807848700021D30900D0012170231A4037
:101D20006B461A700B4B2C33102A04D0202A23D078
:101D3000302A23D030E00122F275064A2C32527844
:101D4000002902D002435A7026E082435A7023E0F1
:101D500000A0044008010020A201002098010020FA
:101D60000403002088010020780100207D0100206C
:101D7000507A0000107A000018710DE030720246AF
:101D8000E03A072A01D840383072F572002901D0B4
:101D90000120F072FFF7D9FEFC490888801C80B250
:101DA00008804A88904208D3E079002802D00128B0
:101DB00004D010E06572FFF76FFEF8BDF34A123AE7
:101DC0001078401CC0B210705278904203D36572F4
:101DD000FFF762FEF8BDA079ED4A80008018006C24
:101DE000EB4A403280183D600A227A600D800288FA
:101DF00008304A80B064F8BD10B5E448E54A44387C
:101E0000837E0021002B04D08176037E012B0CD031
:101E10000CE0017601238376DF4801800020115415
:101E2000401CC0B24028FAD310BD0176017E11706B
:101E3000407E00280DD0012812D0022818D0032897
:101E4000F2D1872040230022D2490002FFF729FD6A
:101E500010BD40230022CF49D048FFF722FD10BD1E
:101E6000432040230022CB494002FFF71AFD10BD5A
:101E7000CA4840230022C749D030FFF712FD10BDE9
:101E8000F8B5C24E0024443EB17E3046C07A0029E7
:101E900014D0B17A002911D1327AAF2A05D0317E1F
:101EA000402903D33472FFF7A7FFF8BDB94B5A544A
:101EB000491CC9B25854491C31763472317A012513
:101EC000F02974D0F7296ED0D1296DD0EE296CD0CD
:101ED000AE4AB34F443A927CD32967D0E62977D0F3
:101EE00007233A461B0312788D2972D08E2971D0B0
:101EF0008F2970D090296FD091296ED092296DD002
:101F0000EF296CD0A74ADA29167869D09F4B443B59
:101F1000DB296ED0A44AA54B12781B78D02969D052
:101F20009A4E443ED8296ED0E7296DD0A04ED629CE
:101F300036786AD0D72969D09E4ED429367870D0A9
:101F4000D5296FD0914E443EE9296CD0EA296BD057
:101F5000EB296AD0EC2969D0DC2968D0DD2967D06B
:101F6000DE2977D0DF2976D0E02975D0E12974D039
:101F70003246127B3A2971D03B2970D03C296FD070
:101F80003D2992D1002890D08720000200780028B7
:101F90008BD0002A89D17470357303207076347227
:101FA0003476F8BD03E026E033E044E059E03472D3
:101FB0000028F6D080490878002812D00128F0D1F6
:101FC0000C700BF040F902F0E0F9FEF764FCE8E772
:101FD00072E07BE094E0B0E013E142E162E182E193
:101FE0008FE10D700BF02FF902F0D0F9FEF79AFC9B
:101FF000D7E792E1A0E134720128D2D1F07B00282A
:1020000005D0F473CDE713E21DE222E22EE2F57370
:10201000C7E734720128C4D1B07B012809D0B57359
:10202000BFE730E23DE24AE250E256E25DE264E2BE
:1020300077E2B473B5E734720028B2D05F4908780C
:10204000401CC0B20870032800D30C7008F0E6FAF8
:102050007577A6E77AE28EE2A2E2B6E2CAE2F1E2A0
:10206000FFE23472002A01D0B4749AE754490A7826
:10207000002A05D00C70FFF7C1FB08F00BFA90E7BF
:1020800000288ED00120C00302794A490A704179A4
:102090004748017008F0B4F94A4805703878401C88
:1020A000C0B23870132800D33C700AF08CFD0AF0DF
:1020B00094FD0BF0C8F874E73472002887D0521CE6
:1020C000D0B2B074042893D9B4746AE7347200288B
:1020D0008ED0022A8CD002203870197935480170D0
:1020E00059793348017008F08BF936480570364845
:1020F00004700AF068FD0AF070FD0BF0A4F850E7D8
:102100003472002884D0052A14D00520387019793B
:102110002848017059792648017008F071F929485A
:102120000570294804700AF04EFD0AF056FD0BF0C8
:102130008AF836E706203870E9E73472002888D03C
:10214000002A43D00C2A44D0082A45D0092A46D078
:102150000D2A47D00E2A48D00F2A49D00A2A4AD041
:102160000B2A4BD03C7019791248017059791048EC
:10217000017008F045F913480570134804700AF01F
:1021800022FD0AF02AFD0BF05EF80AE72C01002080
:102190008097000014030020D801002080850000F3
:1021A000AB010020A6010020A7010020C2010020F1
:1021B000BF010020BD010020A2010020A8010020D5
:1021C00002000020AD010020C10100200C20387069
:1021D000C9E708203870C6E709203870C3E70D202A
:1021E0003870C0E70E203870BDE70F203870BAE7AE
:1021F0000A203870B7E70B203870B4E70720387032
:10220000B1E73472002894D0012A1BD0032A1CD0D5
:10221000112A1DD0122A1ED0102A1FD03D70197904
:10222000FB4801705979FB48017008F0E9F8FA4859
:102230000570FA4804700AF0C6FC0AF0CEFC0BF0F8
:1022400002F8AEE603203870E9E711203870E6E7BF
:1022500012203870E3E710203870E0E7042038706F
:10226000DDE73472002890D01979E9480170597976
:10227000E848017008F0C4F8E7480570387802288B
:102280000AD006280BD0022038700AF09CFC0AF015
:10229000A4FC0AF0D8FF84E606203870F5E7092090
:1022A0003870F2E734720028CBD01979D848017021
:1022B0005979D848017008F0A3F8D74805703878E4
:1022C0000E280AD00B280BD00E2038700AF07BFCA9
:1022D0000AF083FC0AF0B7FF63E60B203870F5E7DD
:1022E0000A203870F2E73472CD490878401CC0B239
:1022F0000870082800D30C700AF023FF0AF0A3FF2F
:102300004FE6C84F3C7200289BD0002E99D0761E15
:1023100016700AF062FC7D7743E627461C461F7262
:1023200000288ED0C048007886428AD2761C16706B
:102330000AF053FC657734E6BA490C720028AAD03B
:10234000122AA8D1B9480178002923D00470082E98
:10235000A1D3012B2AD0022B30D0032B37D0042B52
:102360003ED021208002052B43D0062B47D0FF22F0
:102370000132072B49D0082B4CD0092B51D0002B10
:1023800089D1FF2201207E238132A949C003FFF7B2
:10239000B1FA06E60570A74804800020A44AFF2190
:1023A0001154401CC0B27E28FAD3FAE50122520231
:1023B0007E239F499001FFF79DFAF2E50522012057
:1023C0007E23D2019A49C003FFF794FAE9E503227C
:1023D00001207E2312029649C003FFF78BFAE0E545
:1023E000072201207E23D2019149C003FFF782FA20
:1023F000D7E57E2300228E49FFF77CFAD1E57E23C4
:1024000080228B49FFF776FACBE57E238849FFF7D8
:1024100071FAC6E580227E2385491002FFF76AFA29
:10242000BFE501207E238249C003FFF763FAB8E5C8
:1024300034720028ADD079480178002901D00470A9
:10244000AFE50570ADE534720028A2D0357334765F
:10245000A7E574490C7200289BD06E48052E98D2CF
:10246000761C06706C4805704D779AE56D490C72C4
:1024700000288ED06748012E8BD9761E06706648DC
:1024800005704D778DE567490C7200288DD0604846
:10249000052E8AD2761C067007F0B2FF0AF0D3FE32
:1024A0007FE560490C72002887D05948012E84D9F5
:1024B000761E067007F0A4FF0AF0C5FE71E53472BF
:1024C00000288CD07476FFF797FC6AE534720028F8
:1024D00085D07576FFF790FC63E53472002887D0CD
:1024E00002207076FFF788FC5BE53472002885D007
:1024F00003207076FFF780FC53E53472002888D003
:102500004D48012B01D1122A8AD005704B48047026
:10251000132038700AF057FB0AF05FFB0AF093FEB5
:102520003FE5347200288BD04348022B01D1122A98
:1025300086D00221017041480470132038700AF0DF
:1025400042FB0AF04AFB0AF07EFE2AE534720028BC
:102550008BD03948032B01D1122A86D00321017078
:1025600036480470132038700AF02DFB0AF035FB52
:102570000AF069FE15E53472002891D02E48042B2C
:1025800001D1122A8CD0042101702C480470132030
:1025900038700AF018FB0AF020FB0AF054FE00E540
:1025A000347200288AD02448052B01D1122A85D004
:1025B0000521017021480470132038700AF003FBD4
:1025C0000AF00BFB0AF03FFEEBE4347200288BD0DC
:1025D0001949062B01D1122A86D006200870174807
:1025E0000470132038700AF0EEFA0AF0F6FA0AF0D6
:1025F0002AFED6E4002893D01148007800288FD016
:10260000002A8DD174703573747634723476C8E4D0
:10261000BD010020BF010020AD010020C10100204C
:10262000A9010020E8000020B5010020BB01002026
:10263000DC040020D8010020C2010020A7010020F6
:1026400080850000002895D04320400200780028B3
:1026500090D0002A8ED174703573757634723476CA
:102660009FE4002886D0FB48007C002897D0002AF1
:1026700095D174703573022070763472347690E49C
:10268000F8B5F54900240B7A08461E26C07AD22BED
:102690000DD0F24A0D462035F14F497C1278F12BCE
:1026A00016D0F22B3BD0F32B5FD0012079E4002829
:1026B0000BD0EC480278002A05D00470FFF79EF892
:1026C00007F0E8FE02E04E7400E04C74002068E47D
:1026D000012A22D100281CD0E349012008700AF009
:1026E000B2FDE249012008701F20E870DA48467404
:1026F000DF49032008705120387081207870DD494F
:1027000001200870DC480470DC480470DC48047068
:1027100003E0D148002900D04474002041E4012A9C
:1027200021D100281BD0D048022101700AF08BFD76
:10273000CE48012101701F20E870C7484674CC4A7A
:10274000032010705120387082207870C9480170C1
:10275000C9480470C9480470C948047003E0BE4801
:10276000002900D0447400201BE4012A21D1002854
:102770001BD0BD48042101700AF065FDBB48012152
:1027800001701F20E870B4484674B94A03201070E5
:102790005120387083207870B6480170B6480470B4
:1027A000B6480470B648047003E0AB48002900D076
:1027B000447400200BE410B50020A749B14B097AFE
:1027C000B14A05E044001C5D8C4205D0401CC0B2FB
:1027D0001488A042F6D3FF2010BDF0B59E4DAB4E3D
:1027E000E87A2C462034AA4F002854D0FFF7E3FFA4
:1027F000FF2817D0A97F002915D0A97A00293DD03C
:102800002179002934D0A34942005118497829720E
:10281000914BC108513344079F48640F5A5C005DD7
:1028200002435A54F0BDA97A002916D0A178002994
:102830000ED04100C91949782972874BC10851331C
:1028400044079548640F5A5C005D02435A54F0BD3A
:102850004100891949782972EFE7A178002903D04E
:102860004000385C2872F0BD4000305C2872F0BD3A
:102870008A494200511849782972C9E7217900290B
:1028800004D041008348405C2872F0BD4100834879
:10289000405C2872F0BDFFF78EFFFF28FAD06E4A29
:1028A000C1088C465132515C43077B4A5B0FD25CB6
:1028B000114223D0AB7F002B0DD02379002B17D0F2
:1028C0004300744818184078287263485130914387
:1028D00062468154F0BDA378002B04D04000C0199B
:1028E00040782872F1E74000801940782872ECE7C0
:1028F00043006A48181840782872E6E7A97F002943
:1029000007D0217900290FD041006248405C28722D
:10291000F0BDA178002903D04000385C2872F0BDDA
:102920004000305C2872F0BD41005C48405C287279
:10293000F0BDF8B55A48002606805148017859483C
:10294000002902D05849016002E0FF219131016065
:10295000414D287A00284DD0A97F2C4659340029B2
:1029600025D0A32806D0A22807D0A72808D0A628BB
:1029700009D00AE0A220287207E0A320287204E010
:10298000A620287201E0A7202872287A46280ED1B6
:10299000212028723048E97A59300078002903D084
:1029A0000A210843207002E0F52108402070FFF75B
:1029B00014FF2B46297A0125AE291CD0274F9C29CC
:1029C00024D025482030E32932D00222AC297FD000
:1029D000E52970D0AD296FD0E4296ED0AB296DD038
:1029E000E2296CD0E8296BD02038007C002868D020
:1029F000FFF752F825E41E72D87A0128FAD1187C24
:102A0000012801D01D741CE41E741AE438780128D2
:102A1000F0D1D87A254C012803D0267024480670BE
:102A20000FE401F04EFD0A2003F0E3FE257008E4F8
:102A3000D97A002946D0997A0029DBD041782943F8
:102A40004170C8438007D5D138780128D2D11E20E3
:102A5000587420E440860000E8000020A201002015
:102A600088010020020000207E010020D501002006
:102A7000770100207A0100207D01002080010020E4
:102A8000780100203A790000FC6F0000B678000061
:102A9000F8780000BE790000507A00007C790000D0
:102AA0008A0100209801002070170000D401002046
:102AB000840100200CE023E042E061E075E089E061
:102AC0009DE0B0E041784908490041705E7403E43C
:102AD000D97A00290ED0997A0029F8D0417811438B
:102AE0004170C8438007F2D138780128EFD11E2009
:102AF000587405E441788908890041705E740BE4DC
:102B0000D97A1846002915D0817A0029F7D0C17FDB
:102B100004462943C177C8438007F0D1F8480178BB
:102B2000002904D00670FEF769FE07F0B3FC1E20F2
:102B300060742EE4C17F49084900C177467428E4D7
:102B4000D97A1846002915D0817A0029F1D0C17FA1
:102B500004461143C177C8438007EAD1E8480178A9
:102B6000002904D00670FEF749FE07F093FC1E20F2
:102B700060740EE4C17F89088900C177467408E457
:102B8000D97A00290BD0997A0029D2D0017829432B
:102B90000170C8438007CCD11E20587405E4017829
:102BA0004908490001705E7407E4D97A00290BD006
:102BB000997A0029F8D0017811430170C843800741
:102BC000F2D11E2058740AE4017889088900017046
:102BD0005E7404E4D97A00290BD0997A0029F2D0E6
:102BE000417929434171C8438007ECD11E205874B4
:102BF00004E441794908490041715E7404E4D97ADA
:102C000000290BD0997A0029F8D0417911434171FC
:102C1000C8438007F2D11E20587408E4417989081E
:102C20008900417103E4FFF72BFD0028F5D0B5487A
:102C3000007AD92817D1B348C17A012931D0417C13
:102C4000002931D04674022003F0D3FD4C20A0703F
:102C5000AC484572C5743878002828D001F086F950
:102C6000A8494C200872A7484674FFF709F9A548FF
:102C7000027A002AD1D0817B012903D0A2490978A8
:102C8000090605D5A32AC8D0A72AC6D0652AC4D06C
:102C9000F72308219D2A11D09E2A1CD09F2A27D0D5
:102CA0002DE00A21417409E4CD210172DBE7954949
:102CB000082259310120FDF74DFDD1E7152202729E
:102CC000C27A002A03D022780A43227017E02278C1
:102CD0001A40227013E0C27A012A05D022781A40E5
:102CE00022702B2202720AE022780A432270F8E74F
:102CF000C27A012A2BD022781A4022700172027AFD
:102D0000F82A08D3C37B002B25D05207130F7F4A24
:102D10009A18527802727C4A13789A0604D5027A7D
:102D2000A22A1ED02B2A1ED05A0604D5027AA22A25
:102D30001BD03D2A1BD0027AAF2A1AD0F52A30D0F8
:102D4000F62A74D072490978122971D022E12278CA
:102D50000A432270D2E75207130F6C4AD25C027208
:102D6000D9E7067206E4067204E4067217E40672F6
:102D700015E407460571BE72F87A01280FD0787FF6
:102D8000002802D00AF05FFA7E77B87F0028EDD0E5
:102D9000FD74E671F87A0028E8D0E57114E4BD729C
:102DA000F3E7C27A012AF9D1827F002A4FD00121AC
:102DB0000546C17453485930C1713878002828D06D
:102DC00001F0D4F80A2003F014FD0124EC744D4EF8
:102DD00000205936F0713878002821D001F0C6F86B
:102DE0000A2003F006FDEC74F4713878002820D036
:102DF00001F0BCF80A2003F0FCFCEC740020F07138
:102E0000387800281CD001F0B1F80A2003F0F1FC5A
:102E100026E43C49082259310120FDF79BFCD1E70B
:102E20003849082259310120FDF794FCD8E737E0F2
:102E3000ACE03449082259310120FDF78BFCD9E779
:102E40003049082259310120FDF784FCDDE70122D9
:102E50000546C27421700B20A0703878002811D06C
:102E600001F084F80A2003F0C4FC0120E874267005
:102E7000A670387800280CD001F078F80A2003F00A
:102E8000B8FC13E41F49082259310120FDF762FC08
:102E9000E8E71C49082259310120FDF75BFCEDE70A
:102EA000C27A012AEDD1827F002A47D00121C17464
:102EB000A670E1711748007800282DD001F056F86F
:102EC0000A2003F096FC0F480127C7742C20A0703D
:102ED000E771104D2878002824D001F047F80A2027
:102EE00003F087FC0748C774A670E67128780028AD
:102EF0001ED001F03BF80A2003F07BFC0EE400003A
:102F000002000020E800002059010020007A0000A3
:102F1000A7010020A20100200822F7490120FDF7A7
:102F200019FCCDE70822F4490120FDF713FCD6E790
:102F30000822F1490120FDF70DFCDCE7EE48593885
:102F4000C57421700620A0703878002812D001F0D6
:102F50000DF80A2003F04DFCE7485938C574267077
:102F6000A670387800280BD001F000F80A2003F092
:102F700040FC1FE40822E0490120FDF7EBFBE8E7F5
:102F80000822DD490120FDF7E5FBEFE7DB49097881
:102F90000129EED0807E0028EBD1FEF7D6FD09E4B2
:102FA00070B50020D44D593D6978491CC9B269708B
:102FB000142938D300246C70297B01290DD0687B3B
:102FC000002830D02E462036307A401CC0B23072F5
:102FD000C1072DD0FEF760FD32E0697E002906D0E2
:102FE000012906D0022907D0032908D009E0C448E6
:102FF00007E04320400204E0C148D03001E08720D0
:103000000002297E425C002A0ED040290CD2425C8C
:103010002A72491CC9B22976405CE872491C29769B
:103020002C77FFF786FC70BD2C73FEF735FD70BD65
:103030000121E972A96C4008085C2872FEF785FD41
:10304000307A0728F3D36C7370BDF8B5AA49012014
:103050005939C876AB48CA7A0578C879AA4FAB49BE
:103060004000C3190978AA4C072D03D0A94E082D9A
:1030700028D072E03D5C5878EB001B191C5CA64818
:10308000002A14D00078A54A401E1055082902D005
:10309000FF2904D00FE0204607F076FD0BE0A048A2
:1030A0000079012807D1204607F06EFD03E0017882
:1030B0009A48891E01559948015D9A48415C9A4891
:1030C000015597E4002A48D0385C5978715C974ED6
:1030D000325C0A433254964A135C0B43135401206A
:1030E000174631182039CA7F335C1A43CA77112139
:1030F000091A3A468D18203D7B5CED7F2B437B54AB
:10310000401CC0B21128ECD300258848475D884890
:10311000405D07430026F80715D0FF21E80000199D
:10312000805D814A115479490978082902D0FF2924
:1031300003D008E007F028FD05E079490979012965
:1031400001D107F021FD7F08761CF6B2062EE2D3EE
:103150006D1CEDB2112DD8D34CE4092D02D00F2DEA
:1031600025D074E03D5C5878EB001B191C5C002AEC
:1031700003D06A480021015512E0684A0120105529
:10318000082902D0FF2904D00AE0204607F0FCFC01
:1031900006E063480079012802D1204607F0F4FCDC
:1031A0005E48015D5F48415C5F48015522E4002AAA
:1031B0004DD0385C5A78B25C5C4B1A545C4E325439
:1031C0005C4B1A545C4B1A54082902D0FF2906D0D4
:1031D0000EE0C0000019805C07F0D6FC08E0504902
:1031E0000979012904D1C0000019805C07F0CCFCEA
:1031F00000254E485049475D4D48495D405D0743B5
:103200004C48405D084307430026F80715D0FF21CE
:10321000E8000019805D444A11543C4909780829A6
:1032200002D0FF2903D008E007F0AEFC05E03C49DE
:103230000979012901D107F0A7FC7F08761CF6B2B5
:10324000062EE2D36D1CEDB2112DD2D33FE4122D28
:1032500003D1294E593E002A1FD0132DF6D1002A42
:10326000F4D0385C314B3F221A5431490A540025BE
:103270002E48475D2E48405D07430026F80767D07B
:10328000FF21E8000019805D274A11541F49097881
:1032900008292DD0FF2955D05AE0B27A002A12D041
:1032A0000022164D2D782A42D0D0385C5A78C000C2
:1032B0000019805C214A082909D2135CFF2B04D035
:1032C000FF2111540DE00122EBE7115409E0115CDC
:1032D000FF290AD0491C1154115C082901D3FF2190
:1032E000115417490120087003E400211154F3E739
:1032F00007F04AFC2CE0000041010020BB01002047
:1033000080850000A7010020017C0000A6010020AC
:10331000017D0000507A0000AD7F0000D80500203C
:103320006C0100202D7F0000420F00208704002048
:1033300098040020A9040020BA040020DC04002026
:10334000AC010020F9490979012901D107F01CFCE1
:103350007F08761CF6B2062E90D36D1CEDB2112DAF
:1033600086D306E470B5F24CF24A6179A06B89000D
:1033700050500025A571206CC00712D06079A1794A
:10338000C0004018C0B2E071E572218FC90701D0BA
:103390000121E172E849085C2072FFF756FEFFF751
:1033A000C8FAA06B4008A063206C40082064A07994
:1033B000401CC0B2A0710628DDD370BD70B5DC4CD6
:1033C0000025A078002829D06279DA4990000958B0
:1033D000A06B41402164002916D0E1780222002927
:1033E00008D0E36B83420CD1491EC8B2E0700028BC
:1033F00003D010E0E270E0630DE0E563FFF7B2FF99
:1034000009E0E270E06306E0E570521CD0B2607142
:10341000102800D36571FFF7C3FDA570C4482030A4
:10342000817A002902D08572FEF754FC70BDC04835
:103430000121C176C149097802290CD1C079C04A5D
:103440004000115C80184078BE4AC9008918085CA9
:10345000BD4AFF211154704730B5B54B00249C7113
:10346000B44D98798000285898635C71188FC00714
:1034700006D058799979C0004018D871FFF7D7FF66
:10348000986B400898635879401CC0B25871102856
:10349000ECD39879401CC0B298710628E1D330BDB6
:1034A000F8B5A34CA078002844D02046A34FC18D86
:1034B0003A78481C9F4E002580B2012A02D0022A89
:1034C00006D019E07D221201914215D2E08513E069
:1034D0002178002910D1A179A26B8B00F250491CF0
:1034E000C9B2A171062907D3A571E085042803D9C3
:1034F00001202070FFF7B0FF3878022802D1207831
:10350000002816D0A079A16B8200B1503178012932
:1035100009D131890904090E402904D1B18A49052C
:10352000490F022907D0401CC0B2A071062800D361
:10353000A571A57016E4FEF761F98448056145613F
:10354000FEE783484168FF221202914341608148AF
:103550004168090A090241607047F0B57C49744826
:103560004A1547790C15CD14D6007A483B0003F074
:103570001DFD150C12161A1E22282E34393E434802
:103580004D5257115C6064681100486AFF22013295
:1035900010434862F0BD486A10434862F0BD486A73
:1035A00020434862F0BD486A28434862F0BD486A3B
:1035B00030434862F0BD486A01225203104348621A
:1035C000F0BD486A0122920310434862F0BD486A88
:1035D0000122D20310434862F0BD416A0122114327
:1035E0004162F0BD416A022211434162F0BD416A6D
:1035F000042211434162F0BD416A08221143416235
:10360000F0BD416A102211434162F0BD416A20229F
:1036100011434162F0BD416A402211434162F0BD55
:10362000416A802211434162F0BD416A1143416207
:10363000F0BD416A21434162F0BD416A29434162C4
:10364000F0BD416A31434162F0BD41480168FF224B
:103650001202914301603F480168090A09020160B2
:1036600070473B484168FF221202114341603948CC
:103670004168FF2211434160704710B50024FFF7F5
:10368000F0FFFFF7E2FFFFF768FF052003F09CF86B
:1036900031480068000400D501243048016809055C
:1036A00001D502210C430168490501D504210C43D1
:1036B0000168890501D508210C430168C90501D5B8
:1036C00010210C430068000601D520200443204649
:1036D00010BD7047002070471D480168FF2212028C
:1036E000114301601B480168FF22114301607047CC
:1036F000F0B517490E484A1547790C15CD14D60078
:1037000014483B0003F052FC150C2C3034383C427A
:10371000484E53585D62676C7111767A7E82110053
:103720004868FF22013210434860F0BD6C01002060
:10373000E8000020C40200200E780000A70100204D
:10374000017C0000017D0000420F002000C0054008
:1037500000400440006004400080044000A0044099
:10376000486810434860E0E7486820434860DCE769
:10377000486828434860D8E7486830434860D4E741
:1037800048680122520310434860CEE7486801228E
:10379000920310434860C8E748680122D2031043EF
:1037A0004860C2E74168012211434160BDE74168BA
:1037B000022211434160B8E741680422114341608D
:1037C000B3E74168082211434160AEE74168102227
:1037D00011434160A9E74168202211434160A4E7F9
:1037E00041684022114341609FE7416880221143B4
:1037F00041609AE741681143416096E7416821437F
:10380000416092E74168294341608EE74168314356
:1038100041608AE7FEB593200002C06B5C49884294
:1038200001D00120FEBD5C495A48CA79805C800005
:1038300001905A4A01988018006C6B46C2B21A7007
:1038400003041D0E6B465D7003021E0E6B469E70D8
:10385000000ED8700290002A0BD00C46E07A0027A8
:103860002034130003F0A2FB08910723333E475591
:1038700084910120FEBD0122CA75474B4C33012DB6
:1038800002D0032D0FD080E0F206D20E69468A7076
:1038900041494C314978002802D01143597074E0F5
:1038A0009143597071E000286FD01E716DE03A4B62
:1038B00059331A78002802D02A431A7001E0AA432B
:1038C0001A700120C8740E72002E5ED0FEBD012257
:1038D0000A75314934314F708F70002855D04D70C2
:1038E0008E7052E001224A752B4930314F70012809
:1038F0004BD14D7049E0022D09D1012807D1284A4A
:10390000107028480522027047708670C7700F72C9
:103910003BE0002826D0607A002806D0FEF7BCF8ED
:10392000E079022821D01C480772A571E6711A4877
:10393000323007700299417027721B49A800401865
:10394000006C154A18494031401801216172134634
:1039500064331F605960114644310F80038808307A
:103960004B8090640C4807720FE067720020FEBD28
:10397000002809D0012048734F70084B019A40334A
:10398000D2188A642072CF710F720020FEBD70477A
:103990000000AA5566770000E80000208090000033
:1039A0007A010020880100208097000010B5F749B7
:1039B0000878C20709D0400840000870F44803F0B6
:1039C000D3FAF44988600320087010BDF0B5F048C0
:1039D0001438047D437DED4EEE4A31780027CD0743
:1039E0009078002D1ED0EA4D143D490849003170F1
:1039F000042C01D1022B07D0FF20E875D7809770E7
:103A0000377097601770F0BD0121E97591682976CC
:103A10000B0A6B760B0CAB76090EE9761021084386
:103A20009070EBE78907EED5C006ECD5D78097708C
:103A300037709760D7601770F0BD70B5D6480178C1
:103A4000D44C14342170417861708178A170C178B0
:103A5000E170017A2171417A6171817AA171C07A34
:103A6000E071CE4800210170E1790125012903D0E0
:103A7000E179022902D002E0057000E005702178AA
:103A8000C748002914D02178802911D02178491EF7
:103A900001706079C349087006F0B2FC09F09DF826
:103AA000A079C1490870C148057006F0CCFD70BD11
:103AB00013210170EDE738B5B64C00222271B349ED
:103AC0000878C30750D0400840000870E2802069A1
:103AD000E16880004018AE4A102101F061FF2069C2
:103AE000E268800010580090B14882420DD1017800
:103AF000038805681B09ED0A2B4305680079AD0CA6
:103B00002B43C00103430B4363700020009B0099CB
:103B10001B04C9B21B0EC918009B1B021B0EC9183F
:103B2000009B1B0EC918A368C918A1602169491C14
:103B30002161890051580091001DC0B24028E5D391
:103B4000E078401EC0B2E07000280DD10320207044
:103B50009848824206D19849FF200870FFF76DFF10
:103B60000120207102F082FD38BDF0B58749087848
:103B7000820731D5FD2210400870864C0020E0807D
:103B8000E078864601281FD90021E068844625692F
:103B90006246A80010587E4AC7B2143A52181775E8
:103BA00003041E0E567503021B0E9375000ED0758E
:103BB000BA19D2181018A2688018A0606D1C25616F
:103BC000091DC9B24029E2D37046401EC0B2E07060
:103BD000002801D103202070F0BD6E4BD860D97051
:103BE0001A7070476A4A143A117F527F12021143C9
:103BF000814206D965490020087066498870012015
:103C000070470020704708B500210091172849D05F
:103C100012DC132833D008DC052823D0102823D049
:103C2000112823D012281BD127E014282FD01528C3
:103C30002FD0162814D133E0F0284AD00ADC554A98
:103C4000182891783BD019283ED0AB2831D0E028F5
:103C500006D132E0F12840D0F22840D0F32840D0FD
:103C6000002008BD012008BD012008BD6A460121D1
:103C7000524801F095FE012008BD012008BD4648CC
:103C80006A4601213C3001F08BFE012008BD012075
:103C900008BD6A4601214A4801F082FE012008BDA4
:103CA000012008BD6A460121464801F079FE012045
:103CB00008BD02F0E2FC012008BD012008BDBF20C4
:103CC00001409170012008BD402001439170012006
:103CD00008BD09F0B8FA012008BD012008BD012087
:103CE00008BD012008BDF8B5294914390F7D487D6C
:103CF0000B7F497F09020B43244900250A78254C94
:103D0000D607002E17D0224E143E520852000A70D9
:103D1000042F0BD1FFF777FF002807D00120F075A3
:103D2000A07811210843A070E580F8BDFF20F07550
:103D3000A570E580F8BD9207FCD5A278D606F9D526
:103D4000EF263240A270E580104AFD2612783240FC
:103D5000142876D00CDC11284ED004DC052833D092
:103D600010280DD13CE0122852D0132808D15BE076
:103D7000152876D0162871D0172870D0AB286FD0B0
:103D8000A5700D70A560A5602561F8BDE400002058
:103D9000800200205801002080970000C10100200F
:103DA000AB010020BD010020BF010020AD010020BB
:103DB0008090000040930000A60100200F930000B7
:103DC000FCA30000BC9000000220FFF70BFF0028BE
:103DD000D9D15B1C99B201225048FFF7FEFED2E711
:103DE0000A20FFF7FFFE0028CDD15B1C99B201220B
:103DF0004B48FFF7F2FEC6E70A700A20FFF7F2FE13
:103E00000028C0D1022219464548FFF7E6FEBAE76E
:103E10001420FFF7E7FE0028B5D15B1C99B2012200
:103E20004048FFF7DAFEAEE70A701420FFF7DAFE2B
:103E30000028A8D1022219463A48FFF7CEFEA2E791
:103E4000FFE73020FFF7CEFE00289CD15B1C99B223
:103E500001223548FFF7C1FE95E702E00DE018E0CA
:103E600023E00A703120FFF7BDFE00288BD102222B
:103E700019462D48FFF7B1FE85E70120FFF7B2FE96
:103E8000002880D15B1C99B201222848FFF7A5FECB
:103E900079E70A700120FFF7A5FE00289FD10222D2
:103EA00019462248FFF799FE6DE70A70042020703A
:103EB00069E710B51E480078030003F077F80504A1
:103EC000070A0D100600FFF70EFF10BDFFF74DFEAD
:103ED00010BDFFF7F0FD10BDFFF778FD10BDFFF737
:103EE00065FD10BD10B5124BD888401C80B2D8803B
:103EF0007D21090188420FD900200E4A002184004B
:103F0000A4186161401CC0B21028F8D30A48D980B7
:103F10000170197002F0AAFB10BD000000900000B3
:103F2000C090000040930000C09700008090000007
:103F3000580100206C020020E4000020F9496420B0
:103F40000880F94900200870F84801214172E121F8
:103F5000C90081627047F44900200870F3490120CC
:103F60000872FF20EF492D3008807047F0B5F04807
:103F7000EE490678EF4B4D78EF4CF04F00220120D0
:103F8000002E29D0002D27D0E94D2A705D6A054307
:103F90005D620923CB71A12323800023E84CE55CFB
:103FA0005B1CE54C5E00A553DBB2082BF6D3FB6827
:103FB000DB06FCD43B68C02423433B603B681B0604
:103FC0009B0F032BFAD0DC4B1B88FB61C8610A6294
:103FD0004A70C8238B70D7E0DA4E3678002E29D08D
:103FE000002D27D0D74D2A705D6A05435D621023EE
:103FF000CB71A22323800123D34C5E00E55CCE4C21
:10400000A5535B1CDBB2102BF6D3FB68DB06FCD49C
:104010003B68C02423433B603B681B069B0F032B7C
:10402000FAD0C54B1B88FB61C8610A624A70C8237D
:104030008B70A9E0C54E3678002E22D0002D20D0FE
:10404000C24D2A705D6A05435D620323CB71A323D1
:104050002380BF4D6E78A680AD786580FC68E4064D
:10406000FCD43C68C0252C433C603C682406A40F6B
:10407000032CFAD0FB61C8610A624A70C8238B70B6
:1040800082E0B44E3678002E29D0002D27D0B14DD5
:104090002A705D6A05435D620223CB71A4232380ED
:1040A0000123AD4C5E00E55CA34CA5535B1CDBB269
:1040B000022BF6D3FB68DB06FCD43B68C024234309
:1040C0003B603B681B069B0F032BFAD09A4B1B8867
:1040D000FB61C8610A624A70C8238B7054E09F4E2E
:1040E0003678002E24D0002D22D09C4D2A70022537
:1040F000CD71A52525806280994E3678002E01D09D
:1041000003266680FC68E406FCD43C68C026344381
:104110003C603C682406A40F032CFAD0FD615C6A65
:1041200004435C62C8610A624A70C8238B702BE04A
:104130008E79002E28D0002D26D08A715D6A054325
:104140005D620323CB71A62323800023774C1434B4
:10415000E55C5B1C784C5E00A553DBB2022BF5D30B
:10416000FB68DB06FCD43B68C02423433B603B6810
:104170001B069B0F032BFAD06F4B1B88FB61C8619A
:104180000A624A70C8238B700B78002B14D06A4BDC
:1041900040331C885B88B12C02D10D6A022D05D0FA
:1041A000654D4035AE88B62C07D00DE00A700A6226
:1041B00059076C48490F0170F0BD5A2B04D1012EEC
:1041C00002D10D6A032D02D0B62C07D00DE00A7083
:1041D0000A6248738A73CA730874F0BD5A2B04D1FB
:1041E000022E02D10D6A032D02D0B62C07D00DE0AD
:1041F0000A700A62C8734A738A730874F0BD5A2B36
:1042000004D1042E02D10D6A032D02D0B62C07D0A2
:104210000DE00A700A6288734A73CA730874F0BDAD
:104220005A2B04D1062E02D10D6A032D02D0B62CD2
:1042300008D00EE00A700A624B20C0000883FFF726
:104240008AFEF0BD5A2B04D1072E02D10D6A032D30
:1042500002D0B62C04D00AE00A700A62C872F0BD1F
:104260005A2B04D10A2E02D10D6A032D03D03E4DE4
:10427000B62C07D00DE00A700A620A720A833B4826
:104280000270F0BD512B04D1772E02D10F6A032F9B
:1042900002D0B62C0BD011E0324802700A70CA70FE
:1042A0000A6233480270FFF749FE2A70F0BD512BB5
:1042B00004D1762E02D10F6A032F02D0B62C10D073
:1042C00016E00A700A624A728A62CA8208714A71EA
:1042D000144B1A80144B1A7008732A7025484862D0
:1042E000F0BD512B04D1782E02D10F6A032F02D0DA
:1042F000B62C09D00FE00A700A62FF2091304862A4
:104300008A62CA820A71F0BD512B04D1792E02D182
:104310000B6A032B30D0086A0328F4D30A620A70B0
:10432000F0BD0000D8010020BC0100207401002075
:10433000FB000020004004405403002000C0014066
:1043400041010020FE00002004030020FC000020AA
:104350001C010020FD000020180100205401002055
:10436000F30000206C020020D5010020CD010020C8
:10437000F9000020701700000A700A62A94B1A7039
:10438000A94B1A8048712A70F0BD704770B5A748D4
:10439000416A012319434162A54A0320D071A5490E
:1043A000A62008805120154614352870907A0128DF
:1043B00021D0022822D08320687000202C5C401C71
:1043C00046008C53C0B20228F8D39B48C468E40668
:1043D000FCD40468C0252C43046004682406A40FA0
:1043E000032CFAD00988C161D3610020106250709B
:1043F000C820907070BD81206870DEE782206870F0
:10440000DBE770B58948416A012319434162884A54
:104410000320D0718749A620088051201546143505
:1044200028706520687000202C5C401C46008C536E
:10443000C0B20228F8D38048C468E406FCD40468FB
:10444000C0252C43046004682406A40F032CFAD072
:104450000988C161D361002010625070C82090703B
:1044600070BD70B57148416A012319434162704AB9
:104470000320D0716F49A6200880512015461435BD
:1044800028706820687000202C5C401C46008C530B
:10449000C0B20228F8D36848C468E406FCD40468B3
:1044A000C0252C43046004682406A40F032CFAD012
:1044B0000988C161D361002010625070C8209070DB
:1044C00070BD70B55948416A012319434162584A89
:1044D0000320D0715749A620088051201546143575
:1044E00028706120687000202C5C401C46008C53B2
:1044F000C0B20228F8D35048C468E406FCD404686B
:10450000C0252C43046004682406A40F032CFAD0B1
:104510000988C161D361002010625070C82090707A
:1045200070BD70B54148416A012421434162404B4E
:104530000320D8713F4AA620108051201D46143513
:104540002870702068700020295C401C4600915340
:10455000C0B20228F8D33848C168C906FCD4016843
:10456000C0252943016001680906890F0329FAD093
:104570001188C161DC61002018625870C8219970EF
:1045800014215982587270BD29498878002814D0A6
:10459000401EC0B288704A7810430ED10120487086
:1045A00022498A6A02438A622348016908229143A8
:1045B00001610169042211430161704770B51B4D0F
:1045C000286801238007042419491B4A00280FDAB0
:1045D000506940070BD5D569086A461C0E62154E16
:1045E0004000403635520B7090692043906170BD99
:1045F00050694007FBD5CE79C869B04206D3A86A96
:104600001843A8624B700020C86105E0431CCB61D1
:1046100008494000085AD061D069906920439061F0
:1046200070BD0000D3010020D801002000400440EC
:10463000740100205403002000C0014070B5FB4805
:1046400008250678AA02FA48FA495400330002F015
:10465000ADFC120A10171E262C33393F474F555B0D
:10466000626970787EB2416A012211434162F24868
:1046700074E0416A102211434162EF482A306DE034
:10468000416A802211434162EB48543066E0416A3E
:104690000122920211434162E7487E305EE0416AA6
:1046A00011434162E448A83058E0E448416A294394
:1046B0004162E148D23051E0416A29434162DE481B
:1046C000FC304BE0416A402211434162DC4845E046
:1046D000416A0122520211434162D9482A303DE029
:1046E000416A0122120311434162D548543035E03A
:1046F000486A10434862D2487E302FE0486A20431F
:104700004862CF48A83029E0416A02221143416241
:10471000CB48D23022E0416A202211434162C8488E
:10472000FC301BE0416AFF22013211434162C5485F
:1047300014E0416A0122D20211434162C1482A3089
:104740000CE0416A21434162BE48543006E0486AA9
:104750000122D20310434862BA487E30BA49028827
:104760000A6242884A6282888A62C288CA62028970
:104770000A6342894A6382898A63C289CA63B249E9
:10478000028A40310A60428A4A60828A8A60C28A0A
:10479000CA60028B0A61428B4A61828B8A61C28B3A
:1047A0000A62028C4A62428C8A62828CCA62C28C21
:1047B0000A63008D486370BD00B59C4909780B0001
:1047C00002F0F4FB120A0C0F1215181B1E202326F0
:1047D000292C2F3234373A3C97482FE096482A301C
:1047E0002CE09548543029E093487E3026E09448E8
:1047F0007E3823E09248543820E091482A381DE062
:104800008F481BE08E482A3018E08D48543015E060
:104810008B487E3012E08B487E380FE08948543850
:104820000CE088482A3809E0864807E085482A30A5
:1048300004E08448543001E082487E308249028896
:1048400040310A6042884A6082888A60C288CA60B1
:1048500002890A6142894A6182898A61C289CA6180
:10486000028A0A62428A4A62828A8A62C28ACA6268
:10487000028B0A63428B4A63828B8A63C28BCA6350
:104880007149008C086200BDF0B56B4A6748144658
:104890000078FC340126274676036549FC37654DD0
:1048A000030002F083FB120A18263443505F6D7B2D
:1048B0008A99A6B5D3E1F3F1F01700200124430053
:1048C000D35A002B02D04B6A23434B62401CC0B228
:1048D0001528F4D3F0BD152010244300D35A002B23
:1048E00002D04B6A23434B62401CC0B22A28F4D347
:1048F000F0BD2A2080244300D35A002B02D04B6AFB
:1049000023434B62401CC0B23F28F4D3F0BD3F208C
:104910000124A4024300D35A002B02D04B6A234344
:104920004B62401CC0B25428F4D3F0BD5420430065
:10493000D35A002B02D04B6A33434B62401CC0B2A7
:104940006928F4D3F0BD69203C4908234400145B76
:10495000002C02D04C6A1C434C62401CC0B27E2822
:10496000F4D3F0BD002008224300E35A002B02D00C
:104970004B6A13434B62401CC0B21528F4D3F0BD00
:10498000152040234200A25A002A02D04A6A1A4344
:104990004A62401CC0B22A28F4D3F0BD2A20012369
:1049A0005B024200A25A002A02D04A6A1A434A62B3
:1049B000401CC0B23F28F4D3F0BD3F2001231B03AD
:1049C0004200A25A002A02D04A6A1A434A62401C94
:1049D000C0B25428F4D3F0BD54204100615A0029DC
:1049E00002D0696A31436962401CC0B26928F4D3BD
:1049F000F0BD6920012292034100615A002902D0D2
:104A0000696A11436962401CC0B27E28F4D3F0BDCC
:104A1000002002234200BA5A002A02D04A6A1A43EE
:104A20004A62401CC0B21528F4D3F0BDF201002048
:104A300000800440006004405A09002000A00440A7
:104A4000800A0020A60B0020002000401520202313
:104A50004200BA5A002A02D04A6A1A434A62401CEB
:104A6000C0B22A28F4D3E0E72A20FF230133420012
:104A7000BA5A002A02D04A6A1A434A62401CC0B29B
:104A80003F28F4D3D1E71FE00FE0FFE73F200123E9
:104A9000DB024200BA5A002A02D04A6A1A434A622A
:104AA000401CC0B25428F4D3BFE7542001239B0319
:104AB0004200BA5A002A02D04A6A1A434A62401C8B
:104AC000C0B26928F4D3B0E769200122D2034100C3
:104AD000795A002902D0696A11436962401CC0B248
:104AE0007E28F4D3A1E73B484268FF2109020A432C
:104AF000426002680A43026037484268FF210A4365
:104B0000426002680A430260704733480168072226
:104B100052031143016031480168314A1143016079
:104B20003048016808221143016070472A48016833
:104B3000072252039143016028480168284AD24362
:104B400011400160274801680822914301607047C5
:104B500010B5254C00202060FFF72EFE20680221B2
:104B60000843206020688007FCD4206801210843A6
:104B7000206001F08FFD01F079FD10BD704770B528
:104B8000FFF7D4FF01F08BFD184C6078401CC0B2D9
:104B9000607000250A2810D31548017800290CD12F
:104BA00001210170657001F0B8FDFEF7CAFCFEF747
:104BB00064FD10490860FCF76EFFFFF7C9FFFFF7BF
:104BC00063FE2078401CC0B22070122800D32570EC
:104BD00070BD0000004004400060044000800440BC
:104BE000FB7F000000A0044000200040F2010020F4
:104BF000EA0000202001002010B50B22FD21E82052
:104C000001F03CFF01220A21E82001F037FF10BD2E
:104C100070B50B22FD21E82001F030FF10220121A8
:104C2000E82001F02BFFE4220D21E82001F026FF0F
:104C300001220E21E82001F021FFBF220F21E820F0
:104C400001F01CFF44221421E82001F017FF4C2240
:104C50001521E82001F012FF0D22FD21E82001F0CE
:104C60000DFF00207049714C0A5C2254401CC0B2F8
:104C70004028F9D3002240231146E82001F03FFFED
:104C80000022FD21E82001F0F9FE0022A0231146B8
:104C9000E82001F00FFF0020634DAD1E2946423190
:104CA00003E00A5C2254401CC0B22A789042F8D338
:104CB00000222B781146E82001F021FF0122FD217E
:104CC000E82001F0DBFE0022A0231146E82001F0DD
:104CD000F1FE00205449503103E00A5C2254401C8C
:104CE000C0B26A789042F8D300226B781146E8206F
:104CF00001F005FF70BD10B50B22FD21E82001F089
:104D0000BDFE00220A21E82001F0B8FE10BD10B55A
:104D10004748426802210A43426041620A2001F08A
:104D200068FDFFF7E8FFFFF773FFFFF765FF10BDB2
:104D3000F8B5404C207800280FD00122FD21E82052
:104D400001F09CFE3E2380222021E82001F0D7FEC6
:104D50000020207038490870F8BD00203549334BD9
:104D600089788C46334949788E4634490A782E49E9
:104D700060310C5C3249095D6546002D01D0314D32
:104D8000695C7546002D31D02D4D670036352D5D9F
:104D900051436E00AD192C4EE419765D224F4E43FF
:104DA000F60A96373F5DDE55274E1F4FAD19AE7898
:104DB00096374E43F60AE4196778DE556D78A47885
:104DC0004D43E90A1955401CC0B23628CFD3002202
:104DD000FD21E82001F052FE802300222021E8205E
:104DE00001F08DFE134801210170F8BD144D5143AF
:104DF000A23D2D5D0C4F4D43EE0A650065199637B7
:104E00007F5DDE550E4E084F363E365D96374E437B
:104E1000F60AED196F78DE55094E6C3E345D4C4351
:104E2000E10AAC781955CEE7FE8D0000A6150020EA
:104E3000006004400C020020170200201D02002028
:104E4000621000202D7F0000FC8B0000FC48FB4915
:104E5000827A895CC172C28A4A431103090C818239
:104E60004182704700B5F64B0B205870FF209130FF
:104E7000D882FFF7EBFFF3490120087000219970F9
:104E8000F14A107099710020F04A1154401CC0B2D0
:104E90003628FAD300BD70B5E94C022060700F20AF
:104EA0008001E082FFF7D2FFE64900200870A07081
:104EB000E5490870A071217CE54D4C000C19295D75
:104EC00065196C78E34BE44EE44AAD7819543454D8
:104ED0001554401CC0B23628F8D30020DB49FF220D
:104EE0000A54401CC0B23628FAD370BD70B5D44BFA
:104EF00002205870C820D882FFF7A8FFD1480021AF
:104F000001709970D0480170997119740020D04DCA
:104F10004C000C19295D65196C78CE4BCE4ECF4AEA
:104F2000AD78195434541554401CC0B23628F8D307
:104F30000020C64AFF211154401CC0B23628FAD3C3
:104F400070BDF0B5BE4B092058703C20D882FFF7E9
:104F50007DFFBC490020087098709871BA490870AC
:104F6000002220E00021BE4B5000C0188646BD48FC
:104F7000B74C835C58001818265C00194778807875
:104F800084467046405CB84C45006353B14C26548F
:104F9000B14C2754B14C65462554491CC9B202296D
:104FA000EFD3521CD2B2B14800788242DAD300204B
:104FB000A64AFF211154401CC0B23628FAD3F0BDD6
:104FC000F0B59F4B0A205870D882FFF73FFF9D49EC
:104FD0000020087098709C490870987100219D4BC2
:104FE0009D4E9E4FA248405CA24A4C00125B9E4CD4
:104FF00045006253A04C2478A24204D300221A54E4
:1050000032543A5409E05400914D1219AC5C1C54CE
:1050100052195478345492783A54491CC9B23629FA
:10502000E0D300208949FF220A54401CC0B2362830
:10503000FAD3F0BDF0B5824B052058701C20D88201
:10504000FFF704FF7F48002606709E709E717E4821
:1050500006701E740020844F7D4D8549095C874A87
:10506000125C92194B00FA525300D218794BAC5C87
:105070005C545219784B54785C549378774A535463
:10508000401CC0B23628E8D30020704AFF211154DA
:10509000401CC0B23628FAD3F0BD00B56848017A8A
:1050A000052903D90121C90349780172007A030057
:1050B00001F07CFF0A060C0F121508080808090801
:1050C000FFF7B8FF00BDFFF77BFF00BDFFF739FF1B
:1050D00000BDFFF70BFF00BDFFF7DDFE00BDFFF7D2
:1050E000C1FE00BD56486649027B895C417370472A
:1050F0000020564A00211154401CC0B23628FAD371
:10510000704730B5FFF7F4FF4D4C0025E5700120E6
:10511000C003817A2172C17A6172017B2173407B65
:10512000A072207A5749400040184078A073FFF7DA
:10513000D9FFFFF7B2FFE570E57330BD40488079D5
:1051400000280AD00020414A115C002901D0491EE4
:105150001154401CC0B23628F6D37047C8E7F0B5EA
:1051600000213748404CC5783A4E4148405C002DFC
:1051700012D04200A35A002B1AD05B1EA3523E4B02
:105180004200A25A1B789A4217D300223254324B63
:105190001A54324B1A541CE04300E25A521C92B289
:1051A000E252394F3F88BA42E9D30022E252E6E7A1
:1051B000354B1B885B1EA352E1E75300244FD218E6
:1051C000BB5C3354D219244B57781F549378234A2D
:1051D0001354491CC9B23629C7D3F0BDF0B500231A
:1051E000214F26E0002116481D4AC0788446580009
:1051F000821896466246012A48D03A5A002A50D070
:10520000521E3A527246525C3C5A65006419104D67
:105210002E5D104DAE540E4D64190F4D6678AE5490
:10522000A5780E4CA554491CC9B20229E2D35B1CD7
:10523000DBB20E4800788342D4D3F0BD06D700001D
:10524000100200200E0200200D020020621000203B
:1052500050D30000C00F0020F60F00202C100020BB
:1052600068D60000B8D60000CE100020FE7F0000F7
:1052700032D60000C6D50000FA7F000090D50000AD
:10528000FED60000548F0000FC7F00003A5A521CEA
:1052900092B23A52FE4C2478A242B3D300223A5240
:1052A000B0E7FB4A1278521E3A52ABE7F0B5002144
:1052B000F848C478F84803885B1EF848405C002C26
:1052C0000CD0F74E4500725B521C92B27253F24FF3
:1052D0003F88BA4209D30022725306E0F04E4200E2
:1052E000B55A002D10D06D1EB552ED4A4500525BE7
:1052F000EC4D2D78AA4209D3EB4D00222A54EB4DF8
:105300002A54EB4D2A540EE0B352EEE755005219E1
:10531000E84DE54EAF5C37545219E44D56782E54A3
:105320009578E34A1554491CC9B23629C5D30021E2
:105330003520421AD948805C002C0CD0D84D6C35F1
:105340002A5C521CD2B22A54D34E3688B24209D3B8
:1053500000222A5406E0D24D6C352A5C002A17D070
:10536000521E2A54D04DD14E2A5C375CD719D04AF0
:10537000125CD7421AD1CA4ACA4F6C32125C3F78CB
:10538000BA4207D300222A543254C94D2A540DE0A0
:105390002B54E7E75700D219C64FBF5C2F54C54DB9
:1053A0005219557835549578C14A1554491CC9B2DB
:1053B0003629BDD341E7F0B50021B648B84CC578D1
:1053C000B94EB648405C002D18D04200A35A002BBD
:1053D00020D05B1EA3524200A25AB64F5300D218EF
:1053E000BB5C3354D219B14B57781F549378B04AF1
:1053F0001354491CC9B23629E3D31EE74300E25ACD
:10540000521C92B2E252A74F3F78BA42E3D3002235
:10541000E252E0E7A34B1B785B1EA352DBE7F0B53B
:1054200000209F4EA44FA2361FE0A449097800290E
:1054300009D0315C491CC9B231543A78914207D342
:105440000021315404E0315C002913D0491E31544D
:10545000325C9B499B4D895C4200AC5C9A4B195570
:10546000521952789954401CC0B298490978884220
:10547000DBD3E2E63978491E3154E9E770B58F484D
:105480008749037835220888002B07D0401C80B25A
:105490000880362806D30020088003E000280DD0BD
:1054A000401E088008887D4B195C894C864D267803
:1054B0006E54101A185C2178295470BD0A80F1E7E7
:1054C000F0B500207D49764A0B787B4C7C4D7E4FB1
:1054D000A232002B09D0115C491CC9B211542678A4
:1054E000B14207D30021115404E0115C002909D016
:1054F000491E1154115C695C3954401CC0B23628F5
:10550000E7D39AE62178491E1154F3E770B5614953
:10551000087C401CC0B20874624A1278904201D3E1
:10552000002008740020097C624D4C000C19295D94
:1055300065196C785C4A5D4E5D4BAD7811543454FE
:105540001D54401CC0B23628F8D370BD514988782C
:10555000401CC0B288705F4A1278904201D300208C
:1055600088700020584A89781154401CC0B23628EF
:10557000FAD3704710B500204649574A524C497A31
:10558000FF2311542354401CC0B23628F9D310BD58
:1055900070B5404CE07B00283DD1607900230125A7
:1055A000002803D06371FFF7C9FDE571207800285A
:1055B0002CD023706078030001F0F8FC0C070A0D72
:1055C000271019131C161F222527FFF7D3FF1CE0F5
:1055D000FFF7BCFF19E0FFF799FF16E0FFF770FF38
:1055E00013E0FFF74BFF10E0FFF719FF0DE0FFF7A7
:1055F000E2FE0AE0FFF75AFE07E0FFF7EFFD04E0E6
:10560000FFF7ADFD01E0FFF7A9FDE571E0790028A6
:1056100001D0FFF78DFB70BD1E49304A087A40006B
:10562000135C4B72801840788873704730B5194D01
:1056300000236B706420E882FFF708FC28480370A1
:10564000AB70284901200870AB710020224A1E4C23
:10565000697AFF2311542354401CC0B23628F9D371
:1056600030BD30B50B4D00236878012800D0AB70F9
:1056700001246C70FF201930E882FFF7E7FB18481F
:10568000047018480470AB7100200F49124C2BE0D5
:10569000AF7F000010020020F88F000032D600001B
:1056A000CE100020FA7F0000C00F0020F60F00206F
:1056B0002C10002050D30000FB7F0000C10100200F
:1056C000628F000068D6000062100020FF7F00009B
:1056D000AD7F0000AE7F000098100020548F0000C6
:1056E0000E0200200D0200206A7A0B542254401C46
:1056F000C0B23628F9D330BDF0B5784B04205870CD
:105700006420D882FFF7A2FB7549002008709870CA
:10571000744A012111709871734D744C744A754E1E
:10572000754F5B7A295C21541354715C3954401CC9
:10573000C0B23628F6D380E5F0B5684E0820707008
:10574000A020F082FFF782FB6549002008703074CA
:10575000644A01211170B071684F11E06849634AD1
:10576000095C1154674D4300EA5C634CA1545B191A
:105770005B78E1545E4C717AA154E154401CC0B294
:1057800039788842EAD358E530B5544B0620587032
:105790004B20C000D882FFF759FB51490020087008
:1057A0009870504A0121117099715049A2390880AE
:1057B000554C2078554A504915780D543520205CB9
:1057C00012780A5400204A4A597A1154401CC0B237
:1057D0003628FAD330BDF0B5404B07205870322040
:1057E000D882FFF733FB3E490020087098703D498E
:1057F000087098710021444D454E685C4A003B4B4F
:105800004400B25AA23B1A53424B1B789A4207D328
:10581000414B00221A54414B1A54414B1A540CE08C
:105820005300D2183F4F3C4BBC5C1C54D2193B4B2D
:1058300054781C5493783A4A1354491CC9B23629F7
:10584000DBD30021354B3520421A2F48805C304A8B
:105850004C00125D254C363C22542F4C1E5C255CBE
:10586000AE192F4D2F5CFE4212D12A4E3678B2422D
:1058700004D3002222541A542A5409E056009219E3
:10588000284EB75C2754921954781C5492782A54A5
:10589000491CC9B23629D6D30020174AFF2111541A
:1058A000401CC0B23628FAD3C7E40C49888A401E8F
:1058B0000004000C888203D1488A88820120087085
:1058C000704706490879401CC0B20871042803D902
:1058D000002008710120487170470000100200206C
:1058E0000E0200200D020020C28F00007011002067
:1058F00098100020628F000062100020FE7F0000E0
:105900009ED6000068D6000032D60000AD7F0000B1
:10591000D8D60000FA7F0000C00F0020F60F00204C
:105920002C10002050D30000314902228A60086107
:1059300088684022104388604868C007FCD17047DF
:1059400030B52B4C63680425AB4363600123A3602F
:10595000206100BF00E000BF6068C007FBD10CE021
:10596000107853781B020343907800041843D378CF
:105970001B060343E360121D091F0029F0D1A06834
:1059800040210843A06000BF00E000BF6068C0077E
:10599000FBD16068400701D5012030BD002030BD3B
:1059A00030B5134B5C680425AC435C6001249C60FB
:1059B000186100BF00E000BF5868C007FBD103E0DA
:1059C00001CAD86000BF491E0029F9D1986840215A
:1059D0000843986000BF00E000BF5868C007FBD1D3
:1059E0005868400701D5012030BD002030BD0000BF
:1059F00000200640FE49FD48086000208860FD4AFE
:105A00004A60FE49FC4A0A608860F84AC1324A602E
:105A1000FB4908600804886050104860F349F94861
:105A200059310160F8498160082141607047F8B53B
:105A3000EE49EF48C1310160ED4AF448906000241E
:105A40005460EE4A116090605460ED4E3160B06079
:105A50007460EC4A1160906054600A2000F0C9FE46
:105A6000EB4D6C70AC70EC702C7170680227384391
:105A700070607762642000F0A7FE30680124C007E0
:105A8000002800D06C703068400700D5EC7070685A
:105A900038437060B762642000F096FE3068C0073B
:105AA00000D1AC703068400700D42C7102207062C5
:105AB0007168014071606878012802D1A8780128D6
:105AC00003D0E878012802D005E02C7003E02879A3
:105AD000012800D12C7000206870A870E87028712F
