:020000040000FA
:10000000A8190020C96C0000CD6C00002907000071
:1000100000000000000000000000000000000000E0
:10002000000000000000000000000000D16C000093
:100030000000000000000000D36C00000168000018
:10004000D76C0000710A00000000000000000000F2
:1000500000000000000000007146000000000000E9
:100060000000000000000000D76C0000000000004D
:10007000D76C0000D76C0000D76C0000D76C000074
:100080003B670000000000000000000000000000CE
:100090000000000000000000000000000000000060
:1000A000D76C0000D5680000D76C0000000000008D
:1000B0004B09000073090000D76C0000D76C0000EA
:1000C00000F002F800F032F80CA030C8083824180C
:1000D0002D18A246671EAB4654465D46AC4201D180
:1000E00000F024F87E460F3E0FCCB6460126334280
:1000F00000D0FB1AA246AB4633431847D0D60000C7
:10010000F0D600000023002400250026103A01D379
:1001100078C1FBD8520700D330C100D50B607047BF
:100120001FB506F067FE1FBD10B510BD06F01AFF23
:100130001146FFF7F5FF00F018FA06F032FF03B49E
:10014000FFF7F2FF03BC06F037FF00000148016033
:1001500001480047240006400103FF1F30B40C494A
:100160000C684A6823681068C0181060241D121DAE
:100170008C4207D28A4208D20C604A6030BC4000F0
:10018000400870470C00DC3CF6E70A00DC3AF3E775
:1001900040170020F8B503F0E3FEFE48017800297F
:1001A00076D000250570FC4AFC491068002804D070
:1001B000401E1060002800D10D70F94A01231088FC
:1001C000002806D0401E80B21080002801D1F548DA
:1001D0000370F54A106800285AD0F44E3478002C89
:1001E00001D0136006E0F24B09781B78194301D166
:1001F000401E1060106800284AD104F0F1FC06F09F
:1002000096FA06F0E4FAEB48016880229143016017
:1002100003F023FA03F05CFAE749486A40221043EE
:100220004862E6490868E64A400840001043086012
:10023000E44805610DF051F8E3480078002801D149
:1002400000F0ABFB3078002801D000F0C4FBDF4F9A
:1002500038690921C906884338610A2006F0EFFA97
:10026000DB4C00F072FC3D610220206030BF256055
:1002700030780028F5D100F0F5FB06F0B9FA06F069
:1002800047FB06F082FA03F058F906F05DFA357084
:10029000F8BD70B5BF48CF4D01780024002905D0C6
:1002A00004702888002801D0401E288003F0FBFD40
:1002B000C948006980072DD5288800282AD1C82080
:1002C00006F0C3FA04F07BFC06F031FA06F07FFA80
:1002D000B848016880229143016003F0BEF903F041
:1002E000F7F9B6480168B64A490849001143016068
:1002F000B44804610CF0F1FF04F072FC00F033FC30
:1003000006F076FA06F004FB06F03FFA03F015F962
:1003100006F01AFAB14D2878012806D10822B04912
:1003200000F022FA002800D12C70AE4D2878012868
:1003300007D11022AC49022000F016FA002800D1A3
:100340002C70AA4D2878012816D0A94D28780128AC
:100350001BD0A84D2878012820D0A74D2878002848
:1003600009D0A649052008700422022000F0FCF9FB
:10037000002800D12C7070BD0322A149022000F09A
:10038000F3F90028F7D12C7070BD02229D49104668
:1003900000F0EAF90028F7D12C7070BD05229A49C7
:1003A000022000F0E1F90028F7D12C709648847003
:1003B000C470047170BDF8B59448417800297DD0AF
:1003C000002444709249934E0888002818D0401E9B
:1003D00080B20880002813D13078002802D001288C
:1003E00003D00DE003F0CBFF0AE003F0C9FF8A4819
:1003F0000078002802D004F05EF801E004F08BF8E9
:1004000086490878401CC0B20870322830D30C707E
:100410006048012505708249087800280AD0401EEE
:10042000C0B20870002805D17E480078002801D1AC
:100430007D4804707D490878002819D0401EC0B25C
:100440000870002814D17A4F3878C0438207794861
:100450000FD10278002A0CD00CF0B4FE764804705C
:100460003C70307801287DD104F0B5F873480470F1
:1004700078E0734A1378DB439B070FD10378002B96
:100480000CD014700CF011FF6E480178012903D0D4
:1004900005700CF0D5FE65E00470FAE76A4A13783F
:1004A000DB439B0711D10378002B0ED014700CF0A6
:1004B000FCFE66480178012905D000E054E0057093
:1004C0000CF0BEFE4EE00470FAE7614A1378DB439D
:1004D0009B0715D10078002812D014700CF0E5FEAF
:1004E00033480178002905D004700CF0A9FE03F010
:1004F000B2FF37E005700CF0A3FE03F07CFF31E0A3
:10050000544A1078D92806D0F12819D0F22817D0EB
:10051000F32815D026E0CD20107034490D703848EE
:100520003022427084703078002802D003F018FD29
:1005300018E00C7003223249022000F015F911E096
:10054000307801280ED1444A107800280AD0401E85
:1005500010700320087029485121017089214170D1
:100560002548057001F055FAF8BD06F008FC06F0C4
:10057000C1FB3A491F200860394E306A01252843E3
:10058000306200F092F9214C0020A070EF03F8894E
:10059000344969E0A40100209C0100207D01002075
:1005A0008C010020CD010020980100207F01002057
:1005B0005501002000E0054000A00440000001407B
:1005C0000000FA5A00E000E07C01002000C0054075
:1005D000402003408601002058020020FB0000203C
:1005E00041010020FE00002004030020FC00002048
:1005F000FD000020FF0000207A010020880100207B
:100600001C010020180100203401002000000020FF
:10061000A0010020A201002006010020A30100206B
:100620000B01002079010020D5010020F9000020F5
:1006300007010020F20000207E0100207801002048
:100640000D0100200C010020080100200A010020FB
:1006500009010020F0000020770100200020044064
:1006600000000640AAAA0000884200D1A57006F04A
:100670008CF806F0BDF805F017FA01F0B5F906F0B0
:100680006FF9B87A2C4908702C4D2878012801D1CF
:1006900000F052F9A078002804D009F02AFF0020C9
:1006A000287001E009F0F6FE06F032F92448B06146
:1006B000244E254FFE60FFF77EFE2448A178007887
:1006C000084301D002F076FE0CF082FB2878002867
:1006D00004D00128EED1FFF75DFDEBE7FFF7D9FD70
:1006E000E8E770B50CF052FD03F0A8FF184E307823
:1006F000401CC0B23070042815D30CF0C3FD002498
:100700003470012575700CF0C9FD12490878002875
:1007100009D0401EC0B20870002804D10E480570F0
:100720000E484470847070BDBFF34F8F0D490C4864
:10073000C860BFF34F8FFEE77E010020A2010020BA
:1007400002C00000AA55FA5A00000140A70100208B
:100750000000002056010020FC0000201C010020A9
:100760000400FA0500ED00E0F8B506460D46174610
:100770004248B10008180268002A01DB0220F8BDD7
:10078000002E03D0042E01D8402F01D90420F8BD3B
:100790000068400F042801D00120F8BD3848805D72
:1007A000002804D0304600F04CF90320F8BD35484D
:1007B00008180068B84201D20520F8BD701E324901
:1007C000800008580090002414E0295D641C285D16
:1007D00000020843641C295D09040143641C285D70
:1007E00000060843641C0146009800F0A0FA009837
:1007F000001D0090BC42E8D3F9B2304600F030FA58
:100800000020F8BD70B5234B204C196822880025C4
:100810001F4E481C002A0CD0012A15D0022A1ED0D7
:10082000032A05D1FF2925D201210904316018606E
:1008300070BDFF2904D2FF2101313160186070BD05
:100840001D600120208070BDFF2904D2FF21090412
:100850003160186070BD1D600220208070BDFF29CE
:1008600004D2FF2109023160186070BD1D600320B1
:10087000208070BD1D60258070BD000018C005403F
:10088000B90000204402002034020020CC000020E7
:10089000D4000020D0000020421E032A04D8FC4AC5
:1008A000800080188038C167704770B500F0FEFD89
:1008B00000F098FF06F063FA06F01CFAF5480168AC
:1008C00010231943016040210120FFF7E5FF80213B
:1008D0000220FFF7E1FFC0210320FFF7DDFFE02149
:1008E0000420FFF7D9FFEC484021016080224260DC
:1008F000C0228260E022C260E848016043608360F9
:100900000821C1600161E24CE548483C20600220BA
:1009100060611F25ED06322005F097FF2561DC4858
:10092000610408384162DF49C162012000F055FAD4
:10093000012000F043FA70BD10B5D54900204839B8
:100940000861012000F041FA10BD10B51C2000F034
:1009500044FAD649D4480862D54801690122920474
:10096000114301611C2000F030FAD24901200870C7
:1009700010BD10B51D2000F030FACF49CA480862FA
:10098000CB48016901229204114301611D2000F04E
:100990001CFAC8490120087010BD70B5C348002476
:1009A000C4604461C04D05621F21C90181611C20E2
:1009B00000F013FA1C2000F001FABF48C460446143
:1009C00005620121C90381611D2000F006FA1D2086
:1009D00000F0F4F970BD10B5B448002484611C2007
:1009E00000F0F3F9B44884611D2000F0EEF910BD69
:1009F00010B5AE480021C1604161AB4901620921D7
:100A0000C90181611C2000F0E8F91C2000F0D6F932
:100A100010BD01209E49C0024839886070470120FE
:100A20009B498002483988607047012098494002FC
:100A3000483988607047FF209549013048398860FF
:100A4000704704280DD8924A8100303A891800284E
:100A500004D18F4848384068C00102D407204007BD
:100A60000860704710B506F08AF900F0EDF910BD86
:100A700010B5874C483C62680020C043A060002A43
:100A800008D0500F15D0002A07DAFFF7EBFF00F06F
:100A9000B7F93DE0FFF7E6FF10BD500002D500F0CA
:100AA000C4F935E0900033D5FFF7DCFF00F0C3F95F
:100AB0002EE01002C00E18D0100202D500F01DFC6E
:100AC00026E0500202D500F05CFC21E0900202D545
:100AD00000F098FC1CE0D002800F19D00320C00465
:100AE000A0600020FFF7ADFF12E01005000F0FD04F
:100AF000D00501D5FFF79FFF900501D5FFF795FFC2
:100B0000500501D5FFF78BFF100501D5FFF781FFD9
:100B1000206810BD00206949401C8842FCD3704702
:100B20001E20401E411CFCD1704700B5584A0620CB
:100B3000483A5061FFF7F4FF05205061FFF7EAFFE4
:100B4000506904218843506100BD5D480121C160A6
:100B5000C168C906FCD5022101615B4A594911608F
:100B6000002101607047F8B5514E31690220814380
:100B70003161474F483F7868400030D538690921D6
:100B8000C90688433861306900240006494D0028B1
:100B900003DA2C70FFF701FF14E002F0CEFC4B48A3
:100BA0004168821511434160416A114341624848DE
:100BB0004168082211434160416A114341622C702F
:100BC000FFF716FF0A2005F03AFE3C60FFF7BDFF75
:100BD000334838607868400002D4FFF743FFF8BD1F
:100BE0003C490420086030BFFFF73CFF287800280C
:100BF00016D02C7038491420088031693748884352
:100C000007D130690121890488433061B068012827
:100C100009D07868400003D530690221084330616B
:100C2000FFF720FFF8BDFFF780FFF8BD18494839EE
:100C3000CA6B012383409A43CA637047042805D8CE
:100C400013498000303940180021016070470428A2
:100C500005D80F49800030394018090701607047F6
:100C6000042807D80A4A8000303A80180522520723
:100C70008918016070470649383148600220C86011
:100C8000C8688007FCD48868154908607047000070
:100C900048C0054000E00540340200204402002026
:100CA000100000B004400000FFFF000000A004405E
:100CB00058020020B8000020008004400A280000EC
:100CC000000006400200FA5A00200640004004409E
:100CD00000600440402003408601002080000400A2
:100CE000DC00002000B50A46402A0ED2401E3E49D4
:100CF0008000085891084018FFF7BDFF9007C10E0B
:100D00003A480068C840C0B200BD002000BD00B530
:100D100010290AD2401E344A800010588900401819
:100D2000FFF7A9FF3148006800BD002000BD304A30
:100D3000506091600120D060D068C007FCD1A5E769
:100D400030B50B46402B15D2401E2749800008586D
:100D5000990845182846FFF78EFF2448046898072D
:100D6000C30EFF20984084431146994021432846F2
:100D7000FFF7DDFF30BD102988D2401E1A4B8000DE
:100D80001858890040181146D1E77FE7184A403AC1
:100D9000906317480221016001688907FCD4D06B79
:100DA0001449086072E7124A403A9063D1631048D0
:100DB000012101600168C907FCD167E7C106C90EBE
:100DC000012088400C49086060E7C106C90E012077
:100DD000884009498031086058E7C106C90E0120E2
:100DE00088400649086051E734020020DC000020FA
:100DF00080C00540D800002000E100E080E200E073
:100E000010B50020F74AC0439060F74901200861FF
:100E100000208860D060FFF714FE01242046FFF711
:100E20000DFF641C042CF9D910BDEF4801690222A2
:100E3000114301617047EC480169042211430161CB
:100E4000E849D00688607047E64801690922D20661
:100E50001143016101214906816070470120E14988
:100E600080068860704710B5DF4CA06801280CD15F
:100E7000DE4A002000211154401C0428FBD92079AF
:100E8000012802D8A278002A03D00020FFF7D9FD5C
:100E900010BDD74A1154FFF7C9FE2069012109048A
:100EA0000843206100210846FFF7DAFE10BD10B5A7
:100EB000CD4CA068012814D12078812811D1207947
:100EC00001280ED8CA49095C0020FFF76CFF206991
:100ED0000121C9030843206101210020FFF7C0FE62
:100EE00010BD0020FFF7ADFD10BDF8B5BF4DBE4EE3
:100EF0003069800607D5B07810210124002700282A
:100F000005D0012819D00020FFF79BFDF8BDB76080
:100F10003069084330610127EC553846FFF78EFEF3
:100F20007F1C042FF8D9306901210904084330617E
:100F300000210846FFF794FEF8BDB460306988438D
:100F4000306100242F55002C0CD02046FFF77FFE87
:100F5000A4480069611EC840C00703D00021204694
:100F6000FFF77EFE641C022CECD9306901210904D4
:100F70000843306100210846FFF772FEF8BD70B5E6
:100F8000994DA9680020FFF70EFFA868012806D137
:100F900001242046FFF75BFE641C022CF9D995481A
:100FA0000021016028690321890308432861012188
:100FB0000020FFF755FE70BD10B50020FFF741FD82
:100FC00010BD10B504461806120410430902084368
:100FD000204310BDF8B5884F3C688348854EC088D3
:100FE0003168884200D23060306800281DD000256A
:100FF000E378A27861782078FFF7E3FF0146A80044
:10100000FFF7D1FE241D6D1CEDB2102DF0D330681A
:10101000402815D340210020FFF722FE38684030D9
:101020003860306840383060F8BD00210846FFF76E
:1010300017FE6C4881690122120711438161F8BDD6
:101040003068C1B20020FFF70BFE00203060F8BD11
:10105000F8B5002400206449684BCA780D798F7870
:101060000C26014671435E5CB24211D1C9184E781C
:10107000B5420DD18E78B7420AD10C225043C01828
:1010800082885C4802605C4889680160012402E053
:10109000401C1028E4D3002C08D0534908690122D1
:1010A000D20310430861FFF795FFF8BD0020FFF75A
:1010B000C8FCF8BD10B54C48016920239943016173
:1010C00001694022114301618178002902D002693F
:1010D0001A43026101730169012212041143016183
:1010E00000210846FFF7BCFD10BD70B53E4D2878C5
:1010F0004406640E000602D50020FFF7A2FC002C77
:1011000005D0022C0FD00020FFF79BFC70BDA87803
:101110000128FBD128693A49084328610021084683
:10112000FFF79EFD70BDA8780028FBD12879400606
:10113000400E411E0129F5D8A9680129F2D12B4A98
:101140001154FFF77EFC2869012109040843286136
:1011500000210846FFF784FD70BD70B5224D287848
:101160004406640E000602D50020FFF76AFC002C3E
:101170001AD0022C17D1A878002814D1287940065B
:10118000400E0022194BE10300281ED002280AD885
:10119000AC68012C07D11A54286908432861002142
:1011A0000846FFF75DFD70BDA8780128FBD12869CE
:1011B00080218843286128691149803908432861C2
:1011C00000210846FFF74CFD70BD28698006FBD55D
:1011D0001A7028690843286100210846FFF740FD7E
:1011E00070BD000000C0054058020020B90000207A
:1011F000C8000020C4000020C0000020040000201F
:101200008001010070B5B84D28784406640EC0090D
:1012100001D1FFF716FC0126F603002C15D0012C96
:1012200027D0022CDCD128794006400E0228D7D8DE
:10123000AE49095C0020FFF7B6FD286930432861FC
:1012400002210020FFF70CFDCAE72869000604D53B
:1012500002210020FFF7A7FD03E000210846FFF769
:10126000A2FD28693043286102210020FFF7F8FC25
:10127000B6E7A8680128B3D168790028B0D12879E9
:101280000128ADD800210846FFF78DFD28693043BD
:10129000286102210020FFF7E3FCA1E710B5924886
:1012A0004078030005F08FFE0C070A250D2510136A
:1012B00016191C1F2225FFF7A5FF10BDFFF74DFFD4
:1012C00010BDFFF712FF10BDFFF7F4FE10BDFFF7D2
:1012D000BFFE10BDFFF770FE10BDFFF750FE10BD42
:1012E000FFF703FE10BDFFF7E2FD10BDFFF7BBFDEA
:1012F00010BD0020FFF7A5FB10BD7CB533207C4C52
:10130000C004A0600020FFF7A2FC6068400331D455
:10131000754C20690321C903884320610020FFF731
:1013200035FD744D286801900420FFF72FFD2868D3
:1013300000900198C0B220700199090A617001996A
:10134000090CA1700199090EE170009921710099B1
:10135000090A61710099090CE180602108400028A8
:1013600002D0202803D008E0FFF798FF7CBD00F0F2
:1013700007FA7CBD01208004A0600020FFF761FB1C
:101380007CBD70B501205A4E8005B0605A4DA87CD6
:10139000022815D10020A8746869584988420DD1E7
:1013A000A8695749884209D10024A0000021FFF70D
:1013B000FAFC641C402CF8D3FEF7C8FE0420A87485
:1013C000494C20694F4D40060CD520694021884387
:1013D0002061207BF0600020FFF733FB2069A843E9
:1013E0002061FDE6E088002808D02069C00305D40C
:1013F000FFF7F0FD2069A8432061F1E60020FFF728
:1014000020FBEDE6F8B501213948490581603A4DE8
:10141000A87C384E012819D0686D80050DD5686DFF
:101420000913884368650020FFF7B0FC3068287016
:10143000686D01214903084368652B4C206900044D
:1014400025D400210846FFF70BFC29E00024A0006A
:101450000746FFF79BFC306879194861641C102C23
:10146000F5D30220A87468692449884203D1A86989
:1014700023498842E1D024480122017811430170B8
:10148000224800780428D8D102F08AFAD5E7184813
:101490004168C90104D481690122D20611438161E6
:1014A00020690121C90388432061F8BD00200F4A4B
:1014B00000211154401C0528FBD30020144A11546C
:1014C000401C0428FBD30848017041708170C17032
:1014D00001714171C180816001730169012252046F
:1014E000114301617047000058020020B90000203C
:1014F00000C00540D80000206C020020AA42895A92
:10150000FF7162CC00000100E400002058010020BF
:10151000C800002010B5B84A107821281BD1B7495F
:10152000486D01231B03184348651079012812D820
:101530009078002804D14B6D0324A402A3434B658B
:10154000487410690121090408431061002108460C
:10155000FFF786FB10BD0020FFF773FA10BD10B532
:10156000A5480178212914D10169012212041143EF
:101570000161A2494A6D0123DB021A434A650279DF
:10158000012A06D8C078087400210846FFF768FBD6
:1015900010BD0020FFF755FA10BD10B59749012086
:1015A000887400210846FFF75BFB10BD10B5924818
:1015B000016901221204114301619048416DD21169
:1015C0001143416500210846FFF74AFB10BD10B5E5
:1015D00089480178212907D10179002904D1C078EF
:1015E000022805D0032806D00020FFF72AFA10BDF4
:1015F000FFF7DCFF10BDFFF7D0FF10BD10B57E4C2C
:101600002078A12816D17D48416DC90401D401215B
:101610004174217901290DD8417C0020FFF7C3FBDB
:1016200020690121C9030843206101210020FFF73F
:1016300017FB10BD0020FFF704FA10BD10B56E486F
:101640000178A12908D16D494A6D0123DB021A43B3
:101650004A650279002A03D00020FFF7F2F910BD95
:101660000A7C67490A6001690122D20311430161C2
:1016700001210020FFF7F4FA10BD10B561490020E8
:1016800008605D4801690122D2031143016105210F
:101690000020FFF7E5FA10BDF8B55B4E0221307867
:1016A000084330700024554DA0004119496900914C
:1016B0000099FFF778FB641CE4B2102CF4D34E4879
:1016C00001690122D2031143016140210020FFF78B
:1016D000C7FA687DAB2806D13078FD21084030700C
:1016E0004A4904200870F8BD10B54448017800202C
:1016F000FFF759FB404801690122D2031143016100
:1017000001210020FFF7ACFA10BD10B53D490020C3
:101710000860394801690122D2031143016108219F
:101720000020FFF79DFA10BD10B533480178A129BC
:101730001FD1816801291CD10179C078002902D00C
:10174000012910D015E0012804D0022805D0032873
:1017500006D00EE0FFF7D9FF10BDFFF7C5FF10BDA3
:10176000FFF79AFF10BD2549497C012901D10128C5
:1017700003D00020FFF765F910BDFFF77EFF10BD15
:1017800010B51D484078030005F01DFC0C19070A30
:101790000D191919191910131619FFF7C5FF10BDE6
:1017A000FFF74CFF10BDFFF729FF10BDFFF70FFF3C
:1017B00010BDFFF7D4FE10BDFFF7ACFE10BD00203A
:1017C000FFF73FF910BD10B50E49002008600A4828
:1017D00001690122D2031143016105210020FFF7B5
:1017E0003FFA10BD05487D2101740121417400219B
:1017F0008174416570470000580200206C0200208F
:10180000E0000020C4000020E40000205801002077
:10181000F0B591B00020534A534B544D0024410081
:1018200054525C526C52401C80B27E28F7D3012087
:1018300005F039F804F07BFF002507273F0301AED0
:101840000020AA0181008B18DB191B687350401C13
:1018500080B21028F6D30120C003101801AA10216D
:1018600004F0F8F86D1CADB2162DE9D3414940489B
:10187000C860002081007450401C80B21028F9D349
:1018800001AA10213C4804F0E5F8432001AA1021E8
:10189000400204F0DFF8384801AA1021D03004F0EB
:1018A000D9F8872001AA1021000204F0D3F804F02F
:1018B00037FF11B0F0BDF8B58C4600242949002649
:1018C00065004E53284F7E53284F7E53641CA4B2AC
:1018D0007E2CF5D30021294C455C6554491C89B206
:1018E0004029F9D3002105E065466D5C8E18A555A9
:1018F000491C89B29942F7D3204A402104F07AF872
:10190000012800D1FEE7F8BDF8B5864694460024CC
:101910001448154F154A0026650046537E5356530A
:10192000641CA4B27E2CF7D30020144A03E00C5CA4
:101930001454401C80B29842F9D370466044044667
:101940000E4A402104F056F8012809D00B4A2046DF
:1019500040304032402104F04DF8012801D1FEE72B
:10196000FEE7F8BD5A090020560A0020520B00205D
:10197000AA55FA5A0000014080850000A6110020F7
:10198000F8B51420FB4EFC4D0127401EC0B20024C8
:101990003168890600D501243168C90601D50221C4
:1019A0000C43E97AA14204D0022004F07CFFEC72DF
:1019B00014200028E9D1E87AF049C3070022002B5F
:1019C00005D00F70FF21EE4B9131196000E00A70D5
:1019D000E94920398F77830700D58A778B7F002BE1
:1019E00000D08A732873F8BDE3490020393148706C
:1019F0000320253908700220091F0870E1490120E1
:101A00000870DD4906202C310870DF490520087078
:101A1000B6E770B50021D748026801239206002A74
:101A200000DA01210068C00601D502200143D24836
:101A3000C27A8A4203D00A224273C17270BD417BCE
:101A40000029FBD0491EC9B241730029F6D1047B9D
:101A5000114661400029F1D00273CD070024C74828
:101A6000002D19D0D1070DD003700BF0E9FB02F067
:101A700087FCFEF761FFC5480470FF20C049913024
:101A8000086070BDC2490C7004700BF0D9FB02F005
:101A900076FCFEF70AFF70BD8907FCD5B6492039F0
:101AA0008B77920700D58C7700780128F3D1887F57
:101AB000002802D002F0FFFC70BD02F02CFD70BDCA
:101AC000704770B500240020AB4D3935295C0C43BC
:101AD000401CC0B20828F9D3A74A0123203A0021AC
:101AE000002C06D0D37400202954401CC0B2082812
:101AF000FAD300240120A34D2E5C3443401CC0B215
:101B00001028F9D3002C06D0937501202954401CCD
:101B1000C0B21028FAD300240120974D14352E5C52
:101B20003443401CC0B20328F9D3002C06D01375EF
:101B300001202954401CC0B20328FAD38E4810302B
:101B40004478002C01D053754170002401208A4D47
:101B50002C352E5C3443401CC0B20528F9D3002C30
:101B600006D0D37501202954401CC0B20528FAD3F1
:101B7000517270BDF0B5804B203B187A1C4601466F
:101B80004207E57AA039520F0124072914D8DC74E2
:101B9000184659300078012D07D07E495933895CA9
:101BA000FF22514008401870F0BD7A4B72499A5C90
:101BB000393110430870F0BD0146B0390E461F2977
:101BC00012D81C756C4903221431012D04D00A70FF
:101BD000002048708870F0BD6F4B7000185A0A7072
:101BE0004870000A8870F0BD0146A839022918D84B
:101BF0005C75614A674C103210463038007A022317
:101C000020185178C038012D06D01370007EFF23B4
:101C1000584001405170F0BD1370007E0143517077
:101C2000F0BD554B203B1E46597A59361B7A771822
:101C3000DE08544BF318012D13D0002950D04E4D1F
:101C4000BE78203D6D7A6D1EAE46EDB2AC46864242
:101C500029D10021484DB970203DEC74614669726C
:101C60003EE0454D203D052912D200290BD000222F
:101C70002B46593305E09E18B6788642D0D0521CC8
:101C800092B28A42F7D3B870491C6972EC74F0BD05
:101C90007828FCD2AC753B4804703E495878895C82
:101CA00008435870F0BD0026334F393716E0BD1990
:101CB000AD78854210D13049203904E0B819C27896
:101CC0008270761CB6B27645F8DB0020BA199070A7
:101CD000CC7460464872F0BD761CB6B28E42E6D334
:101CE000254920397828F6D28C7526480470294970
:101CF0005878895CFF22514008405870F0BDF8B513
:101D00001D4C607A00286DD0274644373868401C47
:101D100038607968884265D300253D6020462430CC
:101D200026460088203EB16C8000401841680901B9
:101D300009097960C27869460A7080784870002184
:101D4000D30900D0012170231A406B461A700A4B48
:101D50002C33102A04D0202A23D0302A23D030E07C
:101D60000122F275044A2C325278002916D002431F
:101D70005A7026E000A0044008010020A2010020C3
:101D80009801002004030020880100207801002031
:101D90007D010020F86F0000D67A000082435A705F
:101DA0000FE018710DE030720246E03A072A01D8C0
:101DB00040383072F572002901D00120F072FFF72F
:101DC000D9FEFD490888801C80B208804A8890426C
:101DD00008D3E079002802D0012804D010E0657211
:101DE000FFF76FFEF8BDF44A123A1078401CC0B2FB
:101DF00010705278904203D36572FFF762FEF8BD0F
:101E0000A079EE4A80008018006CEC4A40328018BD
:101E10003D600A227A600D80028808304A80B064F2
:101E2000F8BD10B5E448E64A4438837E0021002B13
:101E300004D08176037E012B0CD00CE001760123C7
:101E40008376E048018000201154401CC0B2402835
:101E5000FAD310BD0176017E1170407E00280DD0AE
:101E6000012812D0022818D00328F2D1872040235D
:101E70000022D3490002FFF71EFD10BD40230022BF
:101E8000CF49D148FFF717FD10BD43204023002262
:101E9000CB494002FFF70FFD10BDCB484023002285
:101EA000C749D030FFF707FD10BDF8B5C24E00247A
:101EB000443EB17E3046C07A002914D0B17A002960
:101EC00011D1327AAF2A05D0317E402903D3347242
:101ED000FFF7A7FFF8BDBA4B5A54491CC9B2585472
:101EE000491C31763472317A0125F02974D0F729F2
:101EF0006ED0D1296DD0EE296CD0AF4AB34F443AA1
:101F0000927CD32967D0E62977D007233A461B0372
:101F100012788D2972D08E2971D08F2970D0902996
:101F20006FD091296ED092296DD0EF296CD0A84A3C
:101F3000A84B12781E78DA2967D0DB2976D0A64A1A
:101F4000A64B12781B78D02971D09B4E443ED829DD
:101F50006ED0E7296DD0E1296CD0A14ED629367814
:101F600069D0D72968D09F4ED42936786FD0D5292B
:101F70006ED0914E443EE9296BD0EA296AD0EB2914
:101F800069D0EC2968D0DC2967D0DD2977D0DE293B
:101F900076D0DF2975D0E02974D03246127B3A29F9
:101FA00071D03B2970D03C296FD03D2992D10028B7
:101FB00090D087200002007800288BD0002A89D199
:101FC000747035730320707634723476F8BD03E094
:101FD00024E034E044E059E034720028F6D082492D
:101FE0000878002812D00128F0D10C700BF028F9E5
:101FF00002F0C5F9FEF759FCE8E772E07BE094E0F7
:10200000B0E016E145E165E185E192E10D700BF08C
:1020100017F902F0B5F9FEF78FFCD7E73472012803
:10202000D4D1F07B002808D0F473CFE790E19EE193
:1020300019E223E228E232E23EE2F573C6E73472A7
:102040000128C3D1B07B012808D0B573BEE740E2B8
:102050004DE25AE260E266E26DE274E2B473B5E723
:1020600034720028B2D061490878401CC0B20870B0
:10207000032800D30C7008F0D1FA7577A6E776E252
:102080008AE29EE2B2E2C6E2EEE2FCE23472002AAA
:1020900001D0B4749AE756490A78002A05D00C702A
:1020A000FFF7B6FB08F0F6F990E700288ED0012084
:1020B000C00302794B490A7041794948017008F020
:1020C0009FF94C4805703878401CC0B2387013280E
:1020D00000D33C700AF081FD0AF089FD0BF0B0F8E6
:1020E00074E73472002887D0521CD0B2B074042830
:1020F00093D9B4746AE7347200288ED0022A8CD047
:1021000002203870197937480170597934480170C4
:1021100008F076F937480570374804700AF05DFD1D
:102120000AF065FD0BF08CF850E73472002885D07A
:10213000052A14D00520387019792A480170597978
:102140002748017008F05CF92A4805702A48047095
:102150000AF043FD0AF04BFD0BF072F836E706205B
:102160003870E9E73472002888D0002A46D00C2A5B
:1021700047D0082A48D0092A49D00D2A4AD00E2A29
:102180004BD00F2A4CD00A2A4DD00B2A4ED03C708F
:1021900019791448017059791148017008F030F923
:1021A00014480570144804700AF017FD0AF01FFD6A
:1021B0000BF046F80AE700002C0100208097000091
:1021C00014030020D801002080850000AB0100200E
:1021D000B5010020A6010020A7010020C2010020B7
:1021E000BF010020BD010020A2010020A8010020A5
:1021F00002000020AD010020C10100200C20387039
:10220000C6E708203870C3E709203870C0E70D2002
:102210003870BDE70E203870BAE70F203870B7E786
:102220000A203870B4E70B203870B1E70720387007
:10223000AEE73472002891D0012A1BD0032A1CD0AB
:10224000112A1DD0122A1ED0102A1FD03D701979D4
:10225000F84801705979F848017008F0D1F8F7484A
:102260000570F74804700AF0B8FC0AF0C0FC0AF0E8
:10227000E7FFABE603203870E9E711203870E6E7A6
:1022800012203870E3E710203870E0E7042038703F
:10229000DDE7347200288DD01979E648017059794C
:1022A000E548017008F0ACF8E44805703878022879
:1022B0000AD006280BD0022038700AF08EFC0AF0F3
:1022C00096FC0AF0BDFF81E606203870F5E709208C
:1022D0003870F2E734720028CBD01979D5480170F4
:1022E0005979D548017008F08BF8D44805703878D2
:1022F0000E280AD00B280BD00E2038700AF06DFC87
:102300000AF075FC0AF09CFF60E60B203870F5E7D8
:102310000A203870F2E73472CA490878401CC0B20B
:102320000870082800D30C700AF008FF0AF088FF34
:102330004CE6C54F3C7200289BD0002E01D1521CA8
:102340001A701878401E18700AF051FC7D773DE62F
:102350002146BD4C217200288BD0761CF0B218703B
:10236000904200D919700AF042FC65772EE6B64912
:102370000C720028A7D0122AA5D1B44801780029F0
:1023800023D00470082E9ED3012B2AD0022B30D0EC
:10239000032B37D0042B3ED021208002052B43D0C5
:1023A000062B47D0FF220132072B49D0082B4CD0F7
:1023B000092B51D0002B86D1FF2201207E238132B0
:1023C000A349C003FFF7A0FA00E60570A148048006
:1023D00000209F4AFF211154401CC0B27E28FAD32E
:1023E000F4E5012252027E2399499001FFF78CFA0D
:1023F000ECE5052201207E23D2019549C003FFF7B9
:1024000083FAE3E5032201207E2312029049C003F0
:10241000FFF77AFADAE5072201207E23D2018C4900
:10242000C003FFF771FAD1E57E2300228849FFF748
:102430006BFACBE57E2380228549FFF765FAC5E577
:102440007E238349FFF760FAC0E580227E2380491E
:102450001002FFF759FAB9E501207E237C49C00339
:10246000FFF752FAB2E534720028ADD07448017813
:10247000002901D00470A9E50570A7E53472002891
:10248000A2D035733476A1E5347200289CD072480E
:102490000178002901D0047098E5057096E56A4935
:1024A0000C72002890D06448052E8DD2761C0670E0
:1024B000624805704D7789E563490C7200288FD01A
:1024C0005D48012E8CD9761E06705C4805704D77EC
:1024D0007CE55D490C7200288AD05648052E87D2CB
:1024E000761C067007F08CFF0AF0AAFE6EE55649CE
:1024F0000C72002885D04F48012E8BD9761E0670AD
:1025000007F07EFF0AF09CFE60E5347200288AD056
:102510007476FFF786FC59E53472002889D0757609
:10252000FFF77FFC52E53472002888D002207076D5
:10253000FFF777FC4AE53472002885D003207076D7
:10254000FFF76FFC42E53472002884D04348012B2A
:1025500001D1122A86D005704148047013203870CA
:102560000AF03BFB0AF043FB0AF06AFE2EE53472E8
:10257000002888D03948022B01D1122A8CD00221A0
:10258000017037480470132038700AF026FB0AF0F7
:102590002EFB0AF055FE19E5347200288BD02F4827
:1025A000032B01D1122A86D0032101702C4804701C
:1025B000132038700AF011FB0AF019FB0AF040FEF4
:1025C00004E53472002891D02448042B01D1122A4A
:1025D0008CD00421017022480470132038700AF056
:1025E000FCFA0AF004FB0AF02BFEEFE43472002838
:1025F0008AD01A48052B01D1122A85D005210170F5
:1026000017480470132038700AF0E7FA0AF0EFFA5E
:102610000AF016FEDAE4002884D012480078002878
:1026200088D0002A86D1747035737476347234760B
:10263000CCE40000BD010020BF010020AD0100205E
:10264000C1010020A9010020E8000020BB010020FA
:10265000DC040020D8010020CC010020C2010020B1
:10266000A701002080850000002894D0432040026C
:10267000007800288FD0002A8DD17470357375765C
:1026800034723476A2E4002885D0FB48007C002810
:1026900096D0002A94D1747035730220707634720B
:1026A000347693E4F8B5F54900240B7A08461E26E3
:1026B000C07AD22B0DD0F24A0D462035F14F497C1D
:1026C0001278F12B16D0F22B3BD0F32B5FD00120E8
:1026D0007CE400280BD0EC480278002A05D0047076
:1026E000FFF796F807F0D6FE02E04E7400E04C7457
:1026F00000206BE4012A22D100281CD0E3490120EC
:1027000008700AF09DFDE249012008701F20E87062
:10271000DA484674DF490320087051203870812060
:102720007870DD4901200870DC480470DC480470D2
:10273000DC48047003E0D148002900D04474002034
:1027400044E4012A21D100281BD0D0480221017085
:102750000AF076FDCE48012101701F20E870C748BD
:102760004674CC4A03201070512038708220787053
:10277000C9480170C9480470C9480470C948047048
:1027800003E0BE48002900D0447400201EE4012A62
:1027900021D100281BD0BD48042101700AF050FD52
:1027A000BB48012101701F20E870B4484674B94A43
:1027B000032010705120387083207870B648017063
:1027C000B6480470B6480470B648047003E0AB48DD
:1027D000002900D0447400200EE410B50020A74961
:1027E000B14B097AB14A05E044001C5D8C4205D02A
:1027F000401CC0B21488A042F6D3FF2010BDF0B533
:102800009E4DAB4EE87A2C462034AA4F002854D077
:10281000FFF7E3FFFF2817D0A97F002915D0A97A79
:1028200000293DD02179002934D0A3494200511814
:1028300049782972914BC108513344079F48640F6E
:102840005A5C005D02435A54F0BDA97A002916D0A3
:10285000A17800290ED04100C91949782972874B07
:10286000C108513344079548640F5A5C005D024328
:102870005A54F0BD4100891949782972EFE7A178CF
:10288000002903D04000385C2872F0BD4000305C65
:102890002872F0BD8A494200511849782972C9E767
:1028A0002179002904D041008348405C2872F0BDA2
:1028B00041008348405C2872F0BDFFF78EFFFF287F
:1028C000FAD06E4AC1088C465132515C43077B4AAC
:1028D0005B0FD25C114223D0AB7F002B0DD023794C
:1028E000002B17D0430074481818407828726348AA
:1028F0005130914362468154F0BDA378002B04D03F
:102900004000C01940782872F1E7400080194078F3
:102910002872ECE743006A48181840782872E6E706
:10292000A97F002907D0217900290FD041006248F2
:10293000405C2872F0BDA178002903D04000385CCB
:102940002872F0BD4000305C2872F0BD41005C4848
:10295000405C2872F0BDF8B55A48002707805148FE
:1029600001785948002902D05849016002E0FF214E
:1029700091310160414D287A00284DD0A97F2C4625
:102980005934002925D0A32806D0A22807D0A7288B
:1029900008D0A62809D00AE0A220287207E0A320C8
:1029A000287204E0A620287201E0A7202872287A65
:1029B00046280ED1212028723048E97A5930007813
:1029C000002903D00A210843207002E0F5210840C5
:1029D0002070FFF714FF2B46297A0125AE291CD061
:1029E000274E9C2924D025482030E32932D00222CA
:1029F000AC297FD0E52970D0AD296FD0E4296ED005
:102A0000AB296DD0E2296CD0E8296BD02038007C4E
:102A1000002868D0FFF755F82BE41F72D87A0128F8
:102A2000FAD1187C012801D01D7422E41F7420E41F
:102A300030780128F0D1D87A254C012803D02770AE
:102A40002448077015E401F096FD0A2003F02BFFDF
:102A500025700EE4D97A002946D0997A0029DBD076
:102A6000417829434170C8438007D5D13078012887
:102A7000D2D11E20587426E440860000E8000020D1
:102A8000A201002088010020020000207E01002019
:102A9000D5010020770100207A0100207D0100206F
:102AA0008001002078010020FA790000F66F000014
:102AB00072790000B6790000827A0000F86F000099
:102AC0003E7A00008A010020980100207017000063
:102AD000D4010020840100200CE023E042E061E00A
:102AE00075E089E09DE0B0E0417849084900417017
:102AF0005F7409E4D97A00290ED0997A0029F8D0B8
:102B0000417811434170C8438007F2D130780128E1
:102B1000EFD11E2058740BE4417889088900417078
:102B20005F7405E4D97A1846002915D0817A002906
:102B3000F1D0C17F04462943C177C8438007EAD159
:102B4000FE480178002904D00770FEF761FE07F007
:102B5000A1FC1E20607409E4C17F49084900C177C7
:102B6000477403E4D97A1846002915D0817A0029E0
:102B7000F1D0C17F04461143C177C8438007EAD131
:102B8000EE480178002904D00770FEF741FE07F0F7
:102B900081FC1E20607417E4C17F89088900C17719
:102BA000477411E4D97A00290BD0997A0029F2D020
:102BB000017829430170C8438007ECD11E20587466
:102BC0000EE401784908490001705F7408E4D97A7D
:102BD00000290BD0997A0029F2D0017811430170B5
:102BE000C8438007ECD11E2058740AE40178890894
:102BF000890001705F7404E4D97A00290BD0997AB6
:102C00000029F2D0417929434171C8438007ECD1B2
:102C10001E20587407E441794908490041715F74E6
:102C200007E4D97A00290BD0997A0029F8D04179A4
:102C300011434171C8438007F2D11E20587403E448
:102C4000417989088900417105E4FFF72BFD0028CF
:102C5000FAD0BB48007AD92817D1B948C17A0129DE
:102C600031D0417C002931D04774022003F01BFE93
:102C70004C20A070B2484572C5743078002828D026
:102C800001F06EF9AE484C210172AD484774FFF770
:102C90000CF9AB48017A0029D6D0827B012A03D0F7
:102CA000A84A1278120605D5A329CDD0A729CBD0E2
:102CB0006529C9D0F72308229D2911D09E291CD04F
:102CC0009F2927D02DE00A2141740FE4CD21017204
:102CD000DBE79B49082259310120FDF745FDD1E78B
:102CE00015210172C17A002903D021781143217086
:102CF00017E021781940217013E0C17A012905D02D
:102D00002178194021702B2101720AE021781143AA
:102D10002170F8E7C17A01291BD021781940217070
:102D20000272017AF82908D3C37B002B15D049071A
:102D30000B0F8549591849780172017AAF2912D0D1
:102D4000F52928D0F62973D080490978122970D046
:102D500018E1217811432170E2E749070B0F7A4906
:102D6000C95C0172E9E706460571B772F07A01287D
:102D70000FD0707F002802D00AF062FA7777B07F18
:102D80000028A2D0F574E771F07A00289DD0E57193
:102D900016E4B572F3E7C17A0129F9D1817F0029E0
:102DA0004FD001210546C17465485930C171307852
:102DB000002828D001F0D4F80A2003F074FD012483
:102DC000EC745F4F00205937F8713078002821D01B
:102DD00001F0C6F80A2003F066FDEC74FC7130784F
:102DE00000281ED001F0BCF80A2003F05CFDEC7452
:102DF0000020F871307800281CD001F0B1F80A20CA
:102E000003F051FD06E44E49082259310120FDF737
:102E1000ABFCD1E74A49082259310120FDF7A4FC57
:102E2000D8E74749082259310120FDF79DFCDBE72F
:102E30002FE0A3E04249082259310120FDF794FC1C
:102E4000DDE73F48C57422700B20A0703078002861
:102E500011D001F085F80A2003F025FD3848C5742B
:102E60002770A770307800280CD001F079F80A207C
:102E700003F019FD06E43249082259310120FDF71B
:102E800073FCE8E72E49082259310120FDF76CFC5C
:102E9000EDE7C17A0129EDD1817F00293CD00121E4
:102EA0000546C1740020A070E171307800281ED062
:102EB00001F056F80A2003F0F6FC0127EF742C20ED
:102EC000A070E7713078002818D001F049F80A2086
:102ED00003F0E9FCEF740020A070E0713078002866
:102EE00013D001F03DF80A2003F0DDFC28E414497A
:102EF000082259310120FDF737FCDBE71049082291
:102F000059310120FDF730FCE1E70D490822593124
:102F10000120FDF729FCE6E701210546C174227076
:102F20000620A070307800281CD001F019F80A2083
:102F300003F0B9FC0120E874277009E002000020CA
:102F4000E800002059010020C67A0000A7010020F7
:102F5000A770307800280BD001F002F80A2003F0A7
:102F6000A2FC13E40822FE490120FDF7FDFBDEE789
:102F70000822FB490120FDF7F7FBEFE7F949097843
:102F80000129EED0807E0028EBD1FEF7F3FD23E48B
:102F900070B50020F24D593D6978491CC9B269707D
:102FA000142938D300246C70297B01290DD0687B4B
:102FB000002830D02E462036307A401CC0B2307205
:102FC000C1072DD0FEF77DFD32E0697E002906D0D5
:102FD000012906D0022907D0032908D009E0E248D8
:102FE00007E04320400204E0DF48D03001E08720C2
:102FF0000002297E425C002A0ED040290CD2425C9D
:103000002A72491CC9B22976405CE872491C2976AB
:103010002C77FFF7A0FC70BD2C73FEF752FD70BD3E
:103020000121E972A96C4008085C2872FEF7A2FD34
:10303000307A0728F3D36C7370BDF8B5C849012006
:103040005939C876C948CA7A0578C879C84FC94974
:103050004000C3190978C84C072D03D0C74E082D6E
:1030600028D072E03D5C5878EB001B191C5CC4480A
:10307000002A14D00078C34A401E1055082902D0F7
:10308000FF2904D00FE0204607F088FD0BE0BE4882
:103090000079012807D1204607F080FD03E0017880
:1030A000B848891E0155B748015DB848415CB84829
:1030B0000155B1E4002A48D0385C5978715CB54EAE
:1030C000325C0A433254B44A135C0B43135401205C
:1030D000174631182039CA7F335C1A43CA77112149
:1030E000091A3A468D18203D7B5CED7F2B437B54BB
:1030F000401CC0B21128ECD30025A648475DA64865
:10310000405D07430026F80715D0FF21E8000019AD
:10311000805D9F4A115497490978082902D0FF29F8
:1031200003D008E007F03AFD05E097490979012945
:1031300001D107F033FD7F08761CF6B2062EE2D3EC
:103140006D1CEDB2112DD8D366E4092D02D00F2DE0
:1031500025D074E03D5C5878EB001B191C5C002AFC
:1031600003D088480021015512E0864A01201055FD
:10317000082902D0FF2904D00AE0204607F00EFDFE
:1031800006E081480079012802D1204607F006FDBB
:103190007C48015D7D48415C7D4801553CE4002A46
:1031A0004DD0385C5A78B25C7A4B1A547A4E32540D
:1031B0007A4B1A547A4B1A54082902D0FF2906D0A8
:1031C0000EE0C0000019805C07F0E8FC08E06E49E2
:1031D0000979012904D1C0000019805C07F0DEFCE8
:1031E00000256C486E49475D6B48495D405D07436B
:1031F0006A48405D084307430026F80715D0FF21C1
:10320000E8000019805D624A11545A49097808297A
:1032100002D0FF2903D008E007F0C0FC05E05A49BE
:103220000979012901D107F0B9FC7F08761CF6B2B3
:10323000062EE2D36D1CEDB2112DD2D309E4122D6E
:1032400003D1474E593E002A1FD0132DF6D1002A34
:10325000F4D0385C4F4B3F221A544F490A54002592
:103260004C48475D4C48405D07430026F80740D076
:10327000FF21E8000019805D454A11543D49097855
:1032800008292DD0FF292ED033E0B27A002A12D09F
:103290000022344D2D782A42D0D0385C5A78C000B4
:1032A0000019805C3F4A082909D2135CFF2B04D027
:1032B000FF2111540DE00122EBE7115409E0115CEC
:1032C000FF290AD0491C1154115C082901D3FF21A0
:1032D00011543549012008700BE400211154F3E723
:1032E00007F05CFC05E028490979012901D107F0C4
:1032F00055FC7F08761CF6B2062EB7D36D1CEDB2D6
:10330000112DADD307E470B5154C284A593C6179AD
:10331000A06B890050500025A571206CC00712D009
:103320006079A179C0004018C0B2E071E572218FC8
:10333000C90701D00121E1721D49085C2072FFF725
:103340007CFEFFF708FBA06B4008A063206C4008E0
:103350002064A079401CC0B2A0710628DDD370BDE6
:1033600041010020BB01002080850000A701002052
:10337000C17C0000A6010020C17D0000F86F0000A4
:10338000ED7F0000D80500206C010020808900003E
:10339000420F00208704002098040020A904002088
:1033A000BA040020DC040020AC010020C40200208C
:1033B000CA78000070B5F94C0025A078002829D003
:1033C0006279F74990000958A06B414021640029B7
:1033D00016D0E1780222002908D0E36B83420CD199
:1033E000491EC8B2E070002803D010E0E270E0632C
:1033F0000DE0E563FFF787FF09E0E270E06306E0B8
:10340000E570521CD0B26071102800D36571FFF7CF
:10341000BFFDA570E1482030817A00299FD08572D8
:10342000FEF76DFC9BE7DD480121C176DD49097897
:1034300002290CD1C079DC4A4000115C8018407828
:10344000DA4AC9008918085CD94AFF21115470472B
:1034500030B5D24B00249C71D14D9879800028580A
:1034600098635C71188FC00706D058799979C000AD
:103470004018D871FFF7D7FF986B400898635879C8
:10348000401CC0B258711028ECD39879401CC0B2CF
:1034900098710628E1D330BDF8B5C04CA07800285B
:1034A00044D02046BF4FC18D3A78481CBC4E002501
:1034B00080B2012A02D0022A06D019E07D22120130
:1034C000914215D2E08513E02178002910D1A1792D
:1034D000A26B8B00F250491CC9B2A171062907D317
:1034E000A571E085042803D901202070FFF7B0FF03
:1034F0003878022802D12078002816D0A079A16B54
:103500008200B1503178012909D131890904090EAD
:10351000402904D1B18A4905490F022907D0401C2E
:10352000C0B2A071062800D3A571A57030E4FEF7E3
:103530006FF9A04805614561FEE79F484168FF2299
:103540001202914341609D484168090A09024160A5
:103550007047F0B5984991484A1547790C15CD1434
:10356000D60096483B0003F02EFD150C12161A1ECD
:1035700022282E34393E43484D5257115C6064680E
:103580001100486AFF22013210434862F0BD486AC8
:1035900010434862F0BD486A20434862F0BD486A63
:1035A00028434862F0BD486A30434862F0BD486A2B
:1035B0000122520310434862F0BD486A012292037F
:1035C00010434862F0BD486A0122D20310434862AA
:1035D000F0BD416A012211434162F0BD416A0222FD
:1035E00011434162F0BD416A042211434162F0BDC2
:1035F000416A082211434162F0BD416A1022114321
:103600004162F0BD416A202211434162F0BD416A2E
:10361000402211434162F0BD416A80221143416260
:10362000F0BD416A11434162F0BD416A21434162EC
:10363000F0BD416A29434162F0BD416A31434162B4
:10364000F0BD5D480168FF221202914301605B48B2
:103650000168090A09020160704757484168FF2262
:1036600012021143416055484168FF2211434160F5
:10367000704710B50024FFF7F0FFFFF7E2FFFFF7F8
:1036800068FF052003F0FAF84D480068000400D5F3
:1036900001244C480168090501D502210C43016849
:1036A000490501D504210C430168890501D508218C
:1036B0000C430168C90501D510210C4300680006C0
:1036C00001D520200443204610BD704700207047DC
:1036D00039480168FF22120211430160374801682E
:1036E000FF22114301607047F0B533492B484A155A
:1036F00047790C15CD14D60030483B0003F063FC2D
:10370000150C12161A1E22282E34393E43486469BD
:103710006E1173777B7F11004868FF2201321043DE
:103720004860F0BD486810434860F0BD48682043D9
:103730004860F0BD486828434860F0BD48683043A1
:103740004860F0BD48680122520310434860F0BD54
:1037500048680122920310434860F0BD4868012286
:10376000D20310434860F0BD41680122114341601B
:10377000F0BD4168022211434160F0BD416804225E
:1037800011434160F0BD4168082211434160F0BD22
:103790004168102211434160F0BD0000E8000020A4
:1037A000C4020020A7010020C17C0000C17D0000F0
:1037B000420F002000C0054000400440006004406B
:1037C0000080044000A00440416820221143416071
:1037D000F0BD4168402211434160F0BD4168802244
:1037E00011434160F0BD416811434160F0BD416843
:1037F00021434160F0BD416829434160F0BD41680B
:1038000031434160F0BDFEB593200002C06B5D49BD
:10381000884201D00120FEBD5C495B48CA79805CCA
:10382000800001905A4A01988018006C6B46C2B221
:103830001A7003041D0E6B465D7003021E0E6B466C
:103840009E70000ED8700290002A0BD00C46E07AD1
:1038500000272034130003F0B6FB08910723333E02
:10386000475584910120FEBD0122CA75474B4C3358
:10387000012D02D0032D0FD080E0F206D20E694652
:103880008A7042494C314978002802D0114359705E
:1038900074E09143597071E000286FD01E716DE0A3
:1038A0003A4B59331A78002802D02A431A7001E0A3
:1038B000AA431A700120C8740E72002E5ED0FEBD9D
:1038C00001220A75314934314F708F70002855D06C
:1038D0004D708E7052E001224A752C4930314F7084
:1038E00001284BD14D7049E0022D09D1012807D1A3
:1038F000284A107028480522027047708670C770E9
:103900000F723BE0002826D0607A002806D0FEF730
:10391000D8F8E079022821D01C480772A571E67119
:103920001A48323007700299417027721B49A8006B
:103930004018006C154A1949403140180121617244
:10394000134664331F605960114644310F80038869
:1039500008304B8090640D4807720FE067720020BA
:10396000FEBD002809D0012048734F70084B019A12
:103970004033D2188A642072CF710F720020FEBDCE
:10398000704700000000AA5522780000E8000020DF
:10399000809000007A0100208801002080970000BC
:1039A00010B5F7490878C20709D0400840000870F0
:1039B000F44803F011FEF44988600320087010BD3C
:1039C000F0B5F0481438047D437DED4EEE4A317871
:1039D0000027CD079078002D1ED0EA4D143D4908F0
:1039E00049003170042C01D1022B07D0FF20E8756B
:1039F000D7809770377097601770F0BD0121E97517
:103A0000916829760B0A6B760B0CAB76090EE9767A
:103A1000102108439070EBE78907EED5C006ECD57E
:103A2000D780977037709760D7601770F0BD70B50A
:103A3000D6480178D44C1434217041786170817873
:103A4000A170C178E170017A2171417A6171817A46
:103A5000A171C07AE071CE4800210170E1790125A1
:103A6000012903D0E179022902D002E0057000E0CB
:103A700005702178C748002914D02178802911D0F9
:103A80002178491E01706079C349087006F0B8FCBE
:103A900009F0ADF8A079C1490870C148057006F079
:103AA000D2FD70BD13210170EDE738B5B64C002290
:103AB0002271B3490878C30750D04008400008700D
:103AC000E2802069E16880004018AE4A102101F0D0
:103AD000C1FF2069E268800010580090B14882421E
:103AE0000DD10178038805681B09ED0A2B43056891
:103AF0000079AD0C2B43C00103430B4363700020DE
:103B0000009B00991B04C9B21B0EC918009B1B0225
:103B10001B0EC918009B1B0EC918A368C918A16009
:103B20002169491C2161890051580091001DC0B2D2
:103B30004028E5D3E078401EC0B2E07000280DD1E7
:103B4000032020709848824206D19849FF200870CF
:103B5000FFF76DFF0120207102F0E2FD38BDF0B5E6
:103B600087490878820731D5FD2210400870864CBD
:103B70000020E080E078864601281FD90021E06817
:103B8000844625696246A80010587E4AC7B2143A96
:103B90005218177503041E0E567503021B0E9375FB
:103BA000000ED075BA19D2181018A2688018A0603B
:103BB0006D1C2561091DC9B24029E2D37046401E23
:103BC000C0B2E070002801D103202070F0BD6E4B20
:103BD000D860D9701A7070476A4A143A117F527FC0
:103BE00012021143814206D96549002008706649D6
:103BF0008870012070470020704708B500210091AF
:103C0000172849D012DC132833D008DC052823D02C
:103C1000102823D0112823D012281BD127E01428E4
:103C20002FD015282FD0162814D133E0F0284AD0F1
:103C30000ADC554A182891783BD019283ED0AB2889
:103C400031D0E02806D132E0F12840D0F22840D02F
:103C5000F32840D0002008BD012008BD012008BD88
:103C60006A460121524801F0F5FE012008BD0120FD
:103C700008BD46486A4601213C3001F0EBFE0120B8
:103C800008BD012008BD6A4601214A4801F0E2FE54
:103C9000012008BD012008BD6A460121464801F007
:103CA000D9FE012008BD02F042FD012008BD01201F
:103CB00008BDBF2001409170012008BD4020014394
:103CC0009170012008BD09F0BBFA012008BD012058
:103CD00008BD012008BD012008BDF8B529491439E7
:103CE0000F7D487D0B7F497F09020B432449002546
:103CF0000A78254CD607002E17D0224E143E5208C3
:103D000052000A70042F0BD1FFF777FF002807D06D
:103D10000120F075A07811210843A070E580F8BD5E
:103D2000FF20F075A570E580F8BD9207FCD5A2785C
:103D3000D606F9D5EF263240A270E580104AFD265E
:103D400012783240142876D00CDC11284ED004DCD6
:103D5000052833D010280DD13CE0122852D013286A
:103D600008D15BE0152876D0162871D0172870D0BE
:103D7000AB286FD0A5700D70A560A5602561F8BD5A
:103D8000E4000020800200205801002080970000FD
:103D9000C1010020AB010020BD010020BF010020B7
:103DA000AD0100208090000040930000A60100209B
:103DB0000F930000FCA30000BC9000000220FFF75E
:103DC0000BFF0028D9D15B1C99B201225048FFF7A4
:103DD000FEFED2E70A20FFF7FFFE0028CDD15B1CD4
:103DE00099B201224B48FFF7F2FEC6E70A700A209B
:103DF000FFF7F2FE0028C0D1022219464548FFF71E
:103E0000E6FEBAE71420FFF7E7FE0028B5D15B1CF9
:103E100099B201224048FFF7DAFEAEE70A7014209B
:103E2000FFF7DAFE0028A8D1022219463A48FFF728
:103E3000CEFEA2E7FFE73020FFF7CEFE00289CD1A0
:103E40005B1C99B201223548FFF7C1FE95E702E0FD
:103E50000DE018E023E00A703120FFF7BDFE0028D6
:103E60008BD1022219462D48FFF7B1FE85E70120CC
:103E7000FFF7B2FE002880D15B1C99B201222848CE
:103E8000FFF7A5FE79E70A700120FFF7A5FE0028DD
:103E90009FD1022219462248FFF799FE6DE70A706A
:103EA0000420207069E710B51E480078030003F075
:103EB0008AF80504070A0D100600FFF70EFF10BD73
:103EC000FFF74DFE10BDFFF7F0FD10BDFFF778FDC9
:103ED00010BDFFF765FD10BD10B5124BD888401C12
:103EE00080B2D8807D21090188420FD900200E4A76
:103EF00000218400A4186161401CC0B21028F8D3CE
:103F00000A48D9800170197002F00AFC10BD000047
:103F100000900000C090000040930000C097000097
:103F200080900000580100206C020020E400002076
:103F3000F94964200880F94900200870F8480121F7
:103F40004172E121C90081627047F4490020087084
:103F5000F34901200872FF20EF492D300880704797
:103F6000F0B5F048EE490678EF4B4D78EF4CF04F46
:103F700000220120002E29D0002D27D0E94D2A70E3
:103F80005D6A05435D620923CB71A1232380002371
:103F9000E84CE55C5B1CE54C5E00A553DBB2082BEE
:103FA000F6D3FB68DB06FCD43B68C02423433B60AC
:103FB0003B681B069B0F032BFAD0DC4B1B88FB6175
:103FC000C8610A624A70C8238B70D7E0DA4E36782F
:103FD000002E29D0002D27D0D74D2A705D6A0543C9
:103FE0005D621023CB71A22323800123D34C5E009A
:103FF000E55CCE4CA5535B1CDBB2102BF6D3FB6803
:10400000DB06FCD43B68C02423433B603B681B06B3
:104010009B0F032BFAD0C54B1B88FB61C8610A625A
:104020004A70C8238B70A9E0C54E3678002E22D086
:10403000002D20D0C24D2A705D6A05435D620323C6
:10404000CB71A3232380BF4D6E78A680AD786580A9
:10405000FC68E406FCD43C68C0252C433C603C680A
:104060002406A40F032CFAD0FB61C8610A624A70CF
:10407000C8238B7082E0B44E3678002E29D0002DF4
:1040800027D0B14D2A705D6A05435D620223CB7172
:10409000A42323800123AD4C5E00E55CA34CA55313
:1040A0005B1CDBB2022BF6D3FB68DB06FCD43B685F
:1040B000C02423433B603B681B069B0F032BFAD0B5
:1040C0009A4B1B88FB61C8610A624A70C8238B70D7
:1040D00054E09F4E3678002E24D0002D22D09C4DE7
:1040E0002A700225CD71A52525806280994E3678EB
:1040F000002E01D003266680FC68E406FCD43C68F0
:10410000C02634433C603C682406A40F032CFAD03C
:10411000FD615C6A04435C62C8610A624A70C8233C
:104120008B702BE08E79002E28D0002D26D08A713E
:104130005D6A05435D620323CB71A62323800023C0
:10414000774C1434E55C5B1C784C5E00A553DBB205
:10415000022BF5D3FB68DB06FCD43B68C024234369
:104160003B603B681B069B0F032BFAD06F4B1B88F1
:10417000FB61C8610A624A70C8238B700B78002B00
:1041800014D06A4B40331C885B88B12C02D10D6A75
:10419000022D05D0654D4035AE88B62C07D00DE018
:1041A0000A700A6259076C48490F0170F0BD5A2B1A
:1041B00004D1012E02D10D6A032D02D0B62C07D0F6
:1041C0000DE00A700A6248738A73CA730874F0BDFE
:1041D0005A2B04D1022E02D10D6A032D02D0B62C27
:1041E00007D00DE00A700A62C8734A738A730874B4
:1041F000F0BD5A2B04D1042E02D10D6A032D02D03A
:10420000B62C07D00DE00A700A6288734A73CA732D
:104210000874F0BD5A2B04D1062E02D10D6A032D6D
:1042200002D0B62C08D00EE00A700A624B20C00003
:104230000883FFF78AFEF0BD5A2B04D1072E02D166
:104240000D6A032D02D0B62C04D00AE00A700A626F
:10425000C872F0BD5A2B04D10A2E02D10D6A032D6B
:1042600003D03E4DB62C07D00DE00A700A620A72E8
:104270000A833B480270F0BD512B04D1772E02D146
:104280000F6A032F02D0B62C0BD011E03248027017
:104290000A70CA700A6233480270FFF749FE2A703A
:1042A000F0BD512B04D1762E02D10F6A032F02D01C
:1042B000B62C10D016E00A700A624A728A62CA826C
:1042C00008714A71144B1A80144B1A7008732A70C3
:1042D00025484862F0BD512B04D1782E02D10F6AD7
:1042E000032F02D0B62C09D00FE00A700A62FF201B
:1042F000913048628A62CA820A71F0BD512B04D1A2
:10430000792E02D10B6A032B30D0086A0328F4D32C
:104310000A620A70F0BD0000D8010020BC01002034
:1043200074010020FB0000200040044054030020E2
:1043300000C0014041010020FE00002004030020D5
:10434000FC0000201C010020FD00002018010020BE
:1043500054010020F30000206C020020D501002051
:10436000CD010020F9000020701700000A700A62D9
:10437000D94B1A70D94B1A8048712A70F0BD70471A
:1043800070B5D748416A012319434162D54A0320D9
:10439000D071D549A62008805120154614352870C3
:1043A000907A012821D0022822D083206870002032
:1043B0002C5C401C46008C53C0B20228F8D3CB487A
:1043C000C468E406FCD40468C0252C430460046877
:1043D0002406A40F032CFAD00988C161D361002000
:1043E00010625070C820907070BD81206870DEE748
:1043F00082206870DBE770B5B948416A0123194330
:104400004162B84A0320D071B749A62008805120E4
:104410001546143528706520687000202C5C401CFF
:1044200046008C53C0B20228F8D3B048C468E406F2
:10443000FCD40468C0252C43046004682406A40F3F
:10444000032CFAD00988C161D3610020106250703A
:10445000C820907070BD70B5A148416A012319430E
:104460004162A04A0320D0719F49A62008805120B4
:104470001546143528706820687000202C5C401C9C
:1044800046008C53C0B20228F8D39848C468E406AA
:10449000FCD40468C0252C43046004682406A40FDF
:1044A000032CFAD00988C161D361002010625070DA
:1044B000C820907070BD70B58948416A01231943C6
:1044C0004162884A0320D0718749A6200880512084
:1044D0001546143528707420687000202C5C401C30
:1044E00046008C53C0B20228F8D38048C468E40662
:1044F000FCD40468C0252C43046004682406A40F7F
:10450000032CFAD00988C161D36100201062507079
:10451000C820907070BD70B57148416A012319437D
:104520004162704A0320D0716F49A6200880512053
:104530001546143528707520687000202C5C401CCE
:1045400046008C53C0B20228F8D36848C468E40619
:10455000FCD40468C0252C43046004682406A40F1E
:10456000032CFAD00988C161D36100201062507019
:10457000C820907070BD70B55948416A0123194335
:104580004162584A0320D0715749A6200880512023
:104590001546143528706120687000202C5C401C82
:1045A00046008C53C0B20228F8D35048C468E406D1
:1045B000FCD40468C0252C43046004682406A40FBE
:1045C000032CFAD00988C161D361002010625070B9
:1045D000C820907070BD70B54148416A01242143E4
:1045E0004162404B0320D8713F4AA62010805120E1
:1045F0001D4614352870702068700020295C401C0E
:1046000046009153C0B20228F8D33848C168C906A1
:10461000FCD40168C0252943016001680906890F9F
:104620000329FAD01188C161DC610020186258703A
:10463000C821997014215982587270BD294988780F
:10464000002814D0401EC0B288704A7810430ED1A2
:104650000120487022498A6A02438A62234801691C
:1046600008229143016101690422114301617047ED
:1046700070B51B4D286801238007042419491B4A83
:1046800000280FDA506940070BD5D569086A461C27
:104690000E62154E4000403635520B709069204333
:1046A000906170BD50694007FBD5CE79C869B042B2
:1046B00006D3A86A1843A8624B700020C86105E0C1
:1046C000431CCB6108494000085AD061D069906909
:1046D0002043906170BD0000D3010020D80100206C
:1046E00000400440740100205403002000C0014039
:1046F00070B5FB4808250678AA02FA48FA49540022
:10470000330002F060FC120A0F161E262C32393FCD
:10471000464E545B626970787EB2416A29434162B9
:10472000F24875E0416A402211434162EF482A3065
:104730006EE0416A0122520211434162EB4854305B
:1047400066E0416A0122120311434162E7487E306C
:104750005EE0486A10434862E448A83058E0486A7E
:1047600020434862E148D23052E0416A01221143BD
:104770004162DE48FC304BE0416A10221143416245
:10478000DB4845E0416A802211434162D8482A3023
:104790003EE0416A0122920211434162D448543002
:1047A00036E0416A11434162D1487E3030E0D14861
:1047B000416A29434162CE48A83029E0416A022279
:1047C00011434162CA48D23022E0416A202211439B
:1047D0004162C748FC301BE0416AFF2201321143AD
:1047E0004162C54814E0416A0122D202114341628C
:1047F000C1482A300CE0416A21434162BE4854302E
:1048000006E0486A0122D20310434862BA487E306B
:10481000BA4902880A6242884A6282888A62C288E9
:10482000CA6202890A6342894A6382898A63C289A9
:10483000CA63B249028A40310A60428A4A60828A67
:104840008A60C28ACA60028B0A61428B4A61828B8B
:104850008A61C28B0A62028C4A62428C8A62828CB2
:10486000CA62C28C0A63008D486370BD00B59C4962
:1048700009780B0002F0A7FB120A0C0F1215181B87
:104880001E202326292C2F3234373A3C97482FE01C
:1048900096482A302CE09548543029E093487E30E1
:1048A00026E093487E3823E09148543820E0904831
:1048B0002A381DE08E481BE08D482A3018E08C48CD
:1048C000543015E08A487E3012E08B487E380FE085
:1048D000894854380CE088482A3809E0864807E0BF
:1048E00085482A3004E08448543001E082487E3014
:1048F0008249028840310A6042884A6082888A6020
:10490000C288CA6002890A6142894A6182898A61D1
:10491000C289CA61028A0A62428A4A62828A8A62B9
:10492000C28ACA62028B0A63428B4A63828B8A63A1
:10493000C28BCA637149008C086200BDF0B56B4A36
:10494000674814460078FC340126274676036549FB
:10495000FC37654D030002F036FB120A1826354479
:1049600051606E7C8A99A6B5D3E1F3F1F01700206F
:1049700008244300D35A002B02D04B6A23434B62D6
:10498000401CC0B21528F4D3F0BD152040244300CC
:10499000D35A002B02D04B6A23434B62401CC0B257
:1049A0002A28F4D3F0BD2A20012464024300D35AFC
:1049B000002B02D04B6A23434B62401CC0B23F28FD
:1049C000F4D3F0BD3F20012424034300D35A002B2D
:1049D00002D04B6A23434B62401CC0B25428F4D32C
:1049E000F0BD54204100515A002902D0696A314378
:1049F0006962401CC0B26928F4D3F0BD692001236C
:104A00009B034100515A002902D0696A1943696227
:104A1000401CC0B27E28F4D3F0BD00200122430028
:104A2000E35A002B02D04B6A13434B62401CC0B2C6
:104A30001528F4D3F0BD152010234200A25A002AF5
:104A400002D04A6A1A434A62401CC0B22A28F4D3F0
:104A5000F0BD2A2080234200A25A002A02D04A6ACE
:104A60001A434A62401CC0B23F28F4D3F0BD3F2035
:104A700001239B024200A25A002A02D04A6A1A432A
:104A80004A62401CC0B25428F4D3F0BD5420420006
:104A9000A25A002A02D04A6A32434A62401CC0B27B
:104AA0006928F4D3F0BD6920124908234200A25AB4
:104AB000002A02D04A6A1A434A62401CC0B27E28C9
:104AC000F4D3F0BD002002234200BA5A002A02D0DB
:104AD0004A6A1A434A62401CC0B21528F4D3F0BD9A
:104AE000F201002000800440006004405A090020C8
:104AF000800A002000A00440A60B002000200040F7
:104B0000152020234200BA5A002A02D04A6A1A43CA
:104B10004A62401CC0B22A28F4D3E0E72A20FF23CF
:104B200001334200BA5A002A02D04A6A1A434A6242
:104B3000401CC0B23F28F4D3D1E71FE00FE0FFE7ED
:104B40003F200123DB024200BA5A002A02D04A6AFF
:104B50001A434A62401CC0B25428F4D3BFE7542021
:104B600001239B034200BA5A002A02D04A6A1A4320
:104B70004A62401CC0B26928F4D3B0E76920012220
:104B8000D2034100795A002902D0696A114369624F
:104B9000401CC0B27E28F4D3A1E73B484268FF2105
:104BA00009020A43426002680A43026037484268C9
:104BB000FF210A43426002680A430260704733489B
:104BC0000168072252031143016031480168314AEC
:104BD00011430160304801680822114301607047A9
:104BE0002A4801680722520391430160284801685E
:104BF000284AD243114001602748016808229143A6
:104C00000160704710B5254C00202060FFF72EFE94
:104C1000206802210843206020688007FCD42068B7
:104C200001210843206001F08FFD01F079FD10BDE6
:104C3000704770B5FFF7D4FF01F08BFD184C60781A
:104C4000401CC0B2607000250A2810D315480178B6
:104C500000290CD101210170657001F0B8FDFEF74B
:104C60006CFCFEF706FD10490860FCF729FFFFF712
:104C7000C9FFFFF763FE2078401CC0B220701228E5
:104C800000D3257070BD0000004004400060044067
:104C900000800440FB7F000000A004400020004092
:104CA000F2010020EA0000202001002010B50B22B4
:104CB000FD21E82001F03CFF01220A21E82001F05B
:104CC00037FF10BD70B50B22FD21E82001F030FF49
:104CD00010220121E82001F02BFFE4220D21E82021
:104CE00001F026FF01220E21E82001F021FFBF2262
:104CF0000F21E82001F01CFF44221421E82001F0DC
:104D000017FF4C221521E82001F012FF0D22FD2192
:104D1000E82001F00DFF00207049714C0A5C22541C
:104D2000401CC0B24028F9D3002240231146E8209D
:104D300001F03FFF0022FD21E82001F0F9FE0022F2
:104D4000A0231146E82001F00FFF0020634DAD1EA7
:104D50002946423103E00A5C2254401CC0B22A7842
:104D60009042F8D300222B781146E82001F021FF71
:104D70000122FD21E82001F0DBFE0022A0231146E4
:104D8000E82001F0F1FE00205449503103E00A5CB4
:104D90002254401CC0B26A789042F8D300226B784B
:104DA0001146E82001F005FF70BD10B50B22FD2172
:104DB000E82001F0BDFE00220A21E82001F0B8FE43
:104DC00010BD10B54748426802210A434260416263
:104DD0000A2001F068FDFFF7E8FFFFF773FFFFF718
:104DE00065FF10BDF8B5404C207800280FD0012297
:104DF000FD21E82001F09CFE3E2380222021E820B6
:104E000001F0D7FE0020207038490870F8BD00205E
:104E10003549334B89788C46334949788E46344935
:104E20000A782E4960310C5C3249095D6546002DD7
:104E300001D0314D695C7546002D31D02D4D670094
:104E400036352D5D51436E00AD192C4EE419765D5B
:104E5000224F4E43F60A96373F5DDE55274E1F4FD1
:104E6000AD19AE7896374E43F60AE4196778DE55E9
:104E70006D78A4784D43E90A1955401CC0B2362814
:104E8000CFD30022FD21E82001F052FE8023002232
:104E90002021E82001F08DFE134801210170F8BDAA
:104EA000144D5143A23D2D5D0C4F4D43EE0A65005C
:104EB000651996377F5DDE550E4E084F363E365DDE
:104EC00096374E43F60AED196F78DE55094E6C3E63
:104ED000345D4C43E10AAC781955CEE74ED300005F
:104EE000A6150020006004400C02002017020020DC
:104EF0001D0200206210002080890000BC8C000090
:104F0000FC48FB49827A895CC172C28A4A43110318
:104F1000090C81824182704700B5F64B0B20587016
:104F2000FF209130D882FFF7EBFFF3490120087092
:104F300000219970F14A107099710020F04A1154C3
:104F4000401CC0B23628FAD300BD70B5E94C02202F
:104F500060700F208001E082FFF7D2FFE649002059
:104F60000870A070E5490870A071217CE54D4C00E7
:104F70000C19295D65196C78E34BE44EE44AAD7871
:104F8000195434541554401CC0B23628F8D30020AC
:104F9000DB49FF220A54401CC0B23628FAD370BD48
:104FA00070B5D44B02205870C820D882FFF7A8FFF4
:104FB000D148002101709970D0480170997119741D
:104FC0000020D04D4C000C19295D65196C78CE4B32
:104FD000CE4ECF4AAD78195434541554401CC0B24B
:104FE0003628F8D30020C64AFF211154401CC0B215
:104FF0003628FAD370BDF0B5BE4B092058703C205E
:10500000D882FFF77DFFBC49002008709870987126
:10501000BA490870002220E00021BE4B5000C018A1
:105020008646BD48B74C835C58001818265C0019AA
:105030004778807884467046405CB84C450063539E
:10504000B14C2654B14C2754B14C65462554491CEB
:10505000C9B20229EFD3521CD2B2B14800788242C1
:10506000DAD30020A64AFF211154401CC0B23628D2
:10507000FAD3F0BDF0B59F4B0A205870D882FFF7E5
:105080003FFF9D490020087098709C4908709871F6
:1050900000219D4B9D4E9E4FA248405CA24A4C0071
:1050A000125B9E4C45006253A04C2478A24204D36C
:1050B00000221A5432543A5409E05400914D121906
:1050C000AC5C1C5452195478345492783A54491CAC
:1050D000C9B23629E0D300208949FF220A54401C76
:1050E000C0B23628FAD3F0BDF0B5824B0520587017
:1050F0001C20D882FFF704FF7F48002606709E70B0
:105100009E717E4806701E740020844F7D4D854937
:10511000095C874A125C92194B00FA525300D2186C
:10512000794BAC5C5C545219784B54785C5493784E
:10513000774A5354401CC0B23628E8D30020704A46
:10514000FF211154401CC0B23628FAD3F0BD00B57F
:105150006848017A052903D90121C90349780172F8
:10516000007A030001F02FFF0A060C0F1215080841
:1051700008080908FFF7B8FF00BDFFF77BFF00BD77
:10518000FFF739FF00BDFFF70BFF00BDFFF7DDFEA6
:1051900000BDFFF7C1FE00BD56486649027B895C31
:1051A000417370470020564A00211154401CC0B280
:1051B0003628FAD3704730B5FFF7F4FF4D4C002581
:1051C000E5700120C003817A2172C17A6172017B8E
:1051D0002173407BA072207A5749400040184078E4
:1051E000A073FFF7D9FFFFF7B2FFE570E57330BD9D
:1051F0004048807900280AD00020414A115C0029EB
:1052000001D0491E1154401CC0B23628F6D3704755
:10521000C8E7F0B500213748404CC5783A4E4148C0
:10522000405C002D12D04200A35A002B1AD05B1E06
:10523000A3523E4B4200A25A1B789A4217D3002237
:105240003254324B1A54324B1A541CE04300E25A87
:10525000521C92B2E252394F3F88BA42E9D300223F
:10526000E252E6E7354B1B885B1EA352E1E7530091
:10527000244FD218BB5C3354D219244B57781F5497
:105280009378234A1354491CC9B23629C7D3F0BDB9
:10529000F0B50023214F26E0002116481D4AC078B2
:1052A00084465800821896466246012A48D03A5AE7
:1052B000002A50D0521E3A527246525C3C5A650047
:1052C0006419104D2E5D104DAE540E4D64190F4DE6
:1052D0006678AE54A5780E4CA554491CC9B2022973
:1052E000E2D35B1CDBB20E4800788342D4D3F0BD1E
:1052F000F08F0000100200200E0200200D0200209E
:1053000062100020A4D40000C00F0020F60F00207F
:105310002C10002050D7000086D70000CE100020AF
:10532000FE7F0000968F0000E4D60000FA7F0000A8
:10533000608F0000E88F0000BC8E0000FC7F000042
:105340003A5A521C92B23A52FE4C2478A242B3D33B
:1053500000223A52B0E7FB4A1278521E3A52ABE7AB
:10536000F0B50021F848C478F84803885B1EF84877
:10537000405C002C0CD0F74E4500725B521C92B280
:105380007253F24F3F88BA4209D30022725306E0AB
:10539000F04E4200B55A002D10D06D1EB552ED4AA8
:1053A0004500525BEC4D2D78AA4209D3EB4D00220B
:1053B0002A54EB4D2A54EB4D2A540EE0B352EEE73B
:1053C00055005219E84DE54EAF5C37545219E44D83
:1053D00056782E549578E34A1554491CC9B236299B
:1053E000C5D300213520421AD948805C002C0CD04E
:1053F000D84D6C352A5C521CD2B22A54D34E368812
:10540000B24209D300222A5406E0D24D6C352A5C00
:10541000002A17D0521E2A54D04DD14E2A5C375C38
:10542000D719D04A125CD7421AD1CA4ACA4F6C3235
:10543000125C3F78BA4207D300222A543254C94D35
:105440002A540DE02B54E7E75700D219C64FBF5C32
:105450002F54C54D5219557835549578C14A155475
:10546000491CC9B23629BDD341E7F0B50021B64881
:10547000B84CC578B94EB648405C002D18D04200F3
:10548000A35A002B20D05B1EA3524200A25AB64F53
:105490005300D218BB5C3354D219B14B57781F5408
:1054A0009378B04A1354491CC9B23629E3D31EE796
:1054B0004300E25A521C92B2E252A74F3F78BA42DE
:1054C000E3D30022E252E0E7A34B1B785B1EA3521A
:1054D000DBE7F0B500209F4EA44FA2361FE0A449A1
:1054E0000978002909D0315C491CC9B231543A7895
:1054F000914207D30021315404E0315C002913D0DC
:10550000491E3154325C9B499B4D895C4200AC5C26
:105510009A4B1955521952789954401CC0B2984967
:1055200009788842DBD3E2E63978491E3154E9E74D
:1055300070B58F488749037835220888002B07D03B
:10554000401C80B20880362806D30020088003E083
:1055500000280DD0401E088008887D4B195C894CBE
:10556000864D26786E54101A185C2178295470BD27
:105570000A80F1E7F0B500207D49764A0B787B4C34
:105580007C4D7E4FA232002B09D0115C491CC9B260
:1055900011542678B14207D30021115404E0115C64
:1055A000002909D0491E1154115C695C3954401C12
:1055B000C0B23628E7D39AE62178491E1154F3E7A2
:1055C00070B56149087C401CC0B20874624A127808
:1055D000904201D3002008740020097C624D4C00E9
:1055E0000C19295D65196C785C4A5D4E5D4BAD7890
:1055F000115434541D54401CC0B23628F8D370BD29
:1056000051498878401CC0B288705F4A1278904235
:1056100001D3002088700020584A89781154401C1A
:10562000C0B23628FAD3704710B500204649574A11
:10563000524C497AFF2311542354401CC0B23628DF
:10564000F9D310BD70B5404CE07B00283DD16079A6
:1056500000230125002803D06371FFF7C9FDE57120
:10566000207800282CD023706078030001F0ABFC78
:105670000C070A0D271019131C161F222527FFF7E8
:10568000D3FF1CE0FFF7BCFF19E0FFF799FF16E01E
:10569000FFF770FF13E0FFF74BFF10E0FFF719FF74
:1056A0000DE0FFF7E2FE0AE0FFF75AFE07E0FFF722
:1056B000EFFD04E0FFF7ADFD01E0FFF7A9FDE571A7
:1056C000E079002801D0FFF78DFB70BD1E49304AFC
:1056D000087A4000135C4B728018407888737047DA
:1056E00030B5194D00236B706420E882FFF708FC89
:1056F00028480370AB70284901200870AB71002066
:10570000224A1E4C697AFF2311542354401CC0B214
:105710003628F9D330BD30B50B4D00236878012809
:1057200000D0AB7001246C70FF201930E882FFF7C5
:10573000E7FB1848047018480470AB7100200F494B
:10574000124C2BE0EF7F000010020020E68F0000DB
:10575000968F0000CE100020FA7F0000C00F0020BE
:10576000F60F00202C100020A4D40000FB7F0000C6
:10577000C1010020CA8E000050D700006210002036
:10578000FF7F0000ED7F0000EE7F000098100020FA
:10579000BC8E00000E0200200D0200206A7A0B541D
:1057A0002254401CC0B23628F9D330BDF0B5784B36
:1057B000042058706420D882FFF7A2FB75490020AE
:1057C00008709870744A012111709871734D744C6F
:1057D000744A754E754F5B7A295C21541354715C81
:1057E0003954401CC0B23628F6D380E5F0B5684E77
:1057F00008207070A020F082FFF782FB654900202E
:1058000008703074644A01211170B071684F11E062
:105810006849634A095C1154674D4300EA5C634C74
:10582000A1545B195B78E1545E4C717AA154E15448
:10583000401CC0B239788842EAD358E530B5544BA1
:10584000062058704B20C000D882FFF759FB514901
:10585000002008709870504A0121117099715049C8
:10586000A2390880554C2078554A504915780D5476
:105870003520205C12780A5400204A4A597A115483
:10588000401CC0B23628FAD330BDF0B5404B0720DB
:1058900058703220D882FFF733FB3E490020087051
:1058A00098703D49087098710021444D454E685CE0
:1058B0004A003B4B4400B25AA23B1A53424B1B785E
:1058C0009A4207D3414B00221A54414B1A54414B80
:1058D0001A540CE05300D2183F4F3C4BBC5C1C5494
:1058E000D2193B4B54781C5493783A4A1354491CB0
:1058F000C9B23629DBD30021354B3520421A2F4857
:10590000805C304A4C00125D254C363C22542F4CB2
:105910001E5C255CAE192F4D2F5CFE4212D12A4E23
:105920003678B24204D3002222541A542A5409E091
:1059300056009219284EB75C2754921954781C547B
:1059400092782A54491CC9B23629D6D30020174A66
:10595000FF211154401CC0B23628FAD3C7E40C49C9
:10596000888A401E0004000C888203D1488A8882FD
:1059700001200870704706490879401CC0B20871C0
:10598000042803D9002008710120487170470000E5
:10599000100200200E0200200D0200202A8F0000BD
:1059A0007011002098100020CA8E000062100020A4
:1059B000FE7F0000CC8F000050D70000968F0000C3
:1059C000ED7F0000A6D70000FA7F0000C00F002086
:1059D000F60F00202C100020A4D400003149022230
:1059E0008A60086188684022104388604868C00760
:1059F000FCD1704730B52B4C63680425AB43636022
:105A00000123A360206100BF00E000BF6068C00701
:105A1000FBD10CE0107853781B020343907800040C
:105A20001843D3781B060343E360121D091F0029A6
:105A3000F0D1A06840210843A06000BF00E000BF93
:105A40006068C007FBD16068400701D5012030BD08
:105A5000002030BD30B5134B5C680425AC435C605E
:105A600001249C60186100BF00E000BF5868C007B7
:105A7000FBD103E001CAD86000BF491E0029F9D15B
:105A8000986840210843986000BF00E000BF586854
:105A9000C007FBD15868400701D5012030BD002068
:105AA00030BD000000200640FE49FD48086000208F
:105AB0008860FD4A4A60FE49FC4A0A608860F84AEC
:105AC000C1324A60FB490860080488605010486091
:105AD000F349F94859310160F84981600821416072
