:020000040000FA
:10000000101A0020816D0000856D00008707000038
:1000100000000000000000000000000000000000E0
:10002000000000000000000000000000896D0000DA
:1000300000000000000000008B6D0000B5680000AB
:100040008F6D0000ED0A00000000000000000000BD
:100050000000000000000000194700000000000040
:1000600000000000000000008F6D00000000000094
:100070008F6D00008F6D00008F6D00008F6D000090
:10008000EF6700000000000000000000000000001A
:100090000000000000000000000000000000000060
:1000A0008F6D00008D6900008F6D00000000000062
:1000B000C7090000EF0900008F6D00008F6D000080
:1000C00000F002F800F032F80CA030C8083824180C
:1000D0002D18A246671EAB4654465D46AC4201D180
:1000E00000F024F87E460F3E0FCCB6460126334280
:1000F00000D0FB1AA246AB4633431847F0D90000A4
:1001000010DA00000023002400250026103A01D355
:1001100078C1FBD8520700D330C100D50B607047BF
:100120001FB506F0C3FE1FBD10B510BD06F0C9FE19
:100130001146FFF7F5FF00F0B2FA06F0E1FE03B456
:10014000FFF7F2FF03BC06F0E5FE00000148016086
:1001500001480047240006400103FF1F30B40C494A
:100160000C684A6823681068C0181060241D121DAE
:100170008C4207D28A4208D20C604A6030BC4000F0
:10018000400870470C00DC3CF6E70A00DC3AF3E775
:10019000A4170020F8B503F077FFFC480178002988
:1001A00067D000250570FA49FA4C0868002808D085
:1001B000401E0860002804D125700AF03EF90AF0BC
:1001C0004DF9F5490868002853D0F44B22781B7884
:1001D0001A4301D1401E08600868F14E002802D081
:1001E0003078002845D004F053FD06F0FAFA06F006
:1001F00048FBEC48016880229143016003F0A9FAB2
:1002000003F005FBE8480168E84A49084900114342
:100210000160E74805610DF06BF9E64800780028B9
:1002200001D100F0F8FB3078002801D000F011FC7B
:10023000E14F38690921C906884338610A2006F070
:1002400058FBDE4C00F0BFFC3D610220206030BF57
:10025000256030780028F5D100F042FC06F022FB42
:1002600006F0B2FB06F0EBFA03F0DDF906F0C6FA91
:100270003570F8BD70B5C548D14D0178002400290E
:1002800005D004702888002801D0401E288003F083
:100290009EFECC48006980072DD5288800282AD1E9
:1002A000C82006F02CFB04F0E2FC06F09AFA06F0F7
:1002B000E8FABC48016880229143016003F049FAE2
:1002C00003F0A5FAB8480168B84A49084900114343
:1002D0000160B74804610DF00BF904F0D9FC00F09F
:1002E00080FC06F0DFFA06F06FFB06F0A8FA03F0D8
:1002F0009AF906F083FAB44D2878012806D108222D
:10030000B24900F06FFA002800D12C70B04D287867
:10031000012807D11022AF49022000F063FA00281B
:1003200000D12C70AC4D2878012816D0AB4D287820
:1003300001281BD0AA4D2878012820D0A94D287863
:10034000002809D0A849052008700422022000F0E6
:1003500049FA002800D12C7070BD0322A349022065
:1003600000F040FA0028F7D12C7070BD0222A0499D
:10037000104600F037FA0028F7D12C7070BD052226
:100380009C49022000F02EFA0028F7D12C709948E1
:100390008470C470047170BDF8B597484178002925
:1003A00072D0002444709549954E088800280FD0DB
:1003B000401E80B2088000280AD13078002802D080
:1003C000012803D004E004F032F801E004F08CF8D6
:1003D0008C490878401CC0B2087032287BD30C705E
:1003E0006A480125057088490878401EC0B2087027
:1003F000002804D185480178002900D00470844F7A
:100400003878002867D0401EC0B23870002862D10A
:1004100080480078C04381077F4810D101780029C7
:100420000DD00CF0C9FF7D4804707A480470307814
:10043000012803D104F023F97948047012E17949C5
:100440000978C94389070ED1017800290BD00DF036
:1004500037F875480178012903D005700CF0E9FFE1
:1004600000E10470FAE771490A78D24392070ED18D
:100470000278002A0BD00C700DF022F86C4801783D
:10048000012902D00570EDE008E10470EAE0694955
:100490000A78D3439B070FD10378002B0CD00C7044
:1004A0000DF00EF864480178002901D0047000E0D6
:1004B00005700CF0BEFFD5E0052393430ED1027802
:1004C000002A0BD00C700CF0FBFF5C48017800296F
:1004D00002D00470C6E0DFE00570C3E058490A7836
:1004E000D243920715D10278002A12D00C700CF07A
:1004F000E7FF2A480178002905D004700CF099FF25
:1005000004F08DF8AEE005700CF093FF04F057F89E
:10051000A8E04C490A78D3439B0706D10378002B07
:1005200003D0494B1B78002B03D0052393430DD0F8
:100530001CE00C700CF0C4FF44480178012903D082
:1005400005700CF076FF8DE00470FAE70278002A5F
:100550000CD00C700CF0B4FF3D480178012903D099
:1005600005700CF066FF7DE00470FAE73949097800
:10057000DE2977D10078002874D00CF0A1FF36482E
:10058000017800296BD004706AE06BE0B0010020B4
:10059000A801002088010020A40100205D010020A6
:1005A0008A01002000E00540000001400000FA5AE6
:1005B00000E000E08701002000C00540402003402B
:1005C0009201002064020020FB000020490100206D
:1005D000FE0000201C030020FC000020FD00002085
:1005E000FF0000208501002094010020240100204C
:1005F000200100203C01002000000020AC01002070
:10060000AE010020AF0100208F0100208E010020EC
:10061000F900002007010020F200002089010020DD
:10062000840100200B0100200C0100200F0100209C
:100630000E0100200D0100205E0100205F0100205E
:100640000901002008010020060100201A010020F5
:1006500014010020F0000020FA000020FFE70570E0
:100660000CF0E7FE4C480078F12803D0F22801D0C6
:10067000F32811D1307801280ED148490878002894
:100680000AD0401E0870032038704548512101707F
:10069000892141704348057001F0DFF9F8BD06F08B
:1006A000CAFB06F083FB40491F2008603F4E306ABA
:1006B00001252843306200F036F93D4C0020A0703F
:1006C000EF03F8893B49884200D1A57006F0B7F8DE
:1006D00006F0E8F805F042FA01F0AAF906F09CF9F4
:1006E000B87A35490870354D2878012801D100F0D5
:1006F00061F9A078002804D009F008FF00202870D4
:1007000001E009F0C7FE06F05FF92D48B0612D4EFB
:100710002D4FFE60FFF740FE2C48A178007808437B
:1007200001D002F0BDFE0CF056FC2878002804D061
:100730000128EED1FFF72EFDEBE7FFF79BFDE8E781
:1007400070B50CF0E9FD03F0CDFF194E3078401C78
:10075000C0B23070042815D30CF096FE002434701B
:10076000012575700CF09CFE19490878002809D005
:10077000401EC0B20870002804D116480570164803
:100780004470847070BDBFF34F8F15491348C86023
:10079000BFF34F8FFEE70000F00000208301002030
:1007A0009401002085010020002004400000064044
:1007B00000000020AAAA000089010020AE0100204C
:1007C00002C00000AA55FA5A00000140B3010020FF
:1007D00060010020FC000020240100200400FA0534
:1007E00000ED00E0F8B506460D4617464248B10058
:1007F00008180268002A01DB0220F8BD002E03D091
:10080000042E01D8402F01D90420F8BD0068400F04
:10081000042801D00120F8BD3848805D002804D0AC
:10082000304600F04CF90320F8BD35480818006840
:10083000B84201D20520F8BD701E32498000085828
:100840000090002414E0295D641C285D0002084328
:10085000641C295D09040143641C285D00060843EB
:10086000641C0146009800F089FA0098001D009071
:10087000BC42E8D3F9B2304600F01EFA0020F8BDC1
:1008800070B5234B204C1968228800251F4E481C48
:10089000002A0CD0012A15D0022A1ED0032A05D125
:1008A000FF2925D2012109043160186070BDFF299C
:1008B00004D2FF2101313160186070BD1D6001203C
:1008C000208070BDFF2904D2FF2109043160186027
:1008D00070BD1D600220208070BDFF2904D2FF2161
:1008E00009023160186070BD1D600320208070BD5A
:1008F0001D60258070BD000018C00540B9000020B3
:100900005002002040020020CC000020D400002033
:10091000D0000020421E032A04D8FC4A8000801820
:100920008038C167704770B500F0E8FD00F082FFC5
:1009300006F081FA06F03AFAF548016810231943E7
:10094000016040210120FFF7E5FF80210220FFF731
:10095000E1FFC0210320FFF7DDFFE0210420FFF7C6
:10096000D9FFEC484021016080224260C0228260B1
:10097000E022C260E8480160436083600821C160F2
:100980000161E24CE548483C2060022060611F257F
:10099000ED06322005F0B3FF2561DC48610408381C
:1009A0004162DF49C162012000F03EFA012000F0FF
:1009B0002CFA70BD10B5D5490020483908610120D6
:1009C00000F02AFA10BD10B51C2000F02DFAD6490F
:1009D000D4480862D548016901229204114301619B
:1009E0001C2000F019FAD2490120087010BD10B582
:1009F0001D2000F019FACF49CA480862CB480169A6
:100A000001229204114301611D2000F005FAC8493A
:100A10000120087010BD70B5C3480024C460446153
:100A2000C04D05621F21C90181611C2000F0FCF945
:100A30001C2000F0EAF9BF48C4604461056201214E
:100A4000C90381611D2000F0EFF91D2000F0DDF9E0
:100A500070BD10B5B448002484611C2000F0DCF99E
:100A6000B44884611D2000F0D7F910BD10B5AE4820
:100A70000021C1604161AB4901620921C901816165
:100A80001C2000F0D1F91C2000F0BFF910BD01209E
:100A90009E49C00248398860704701209B49800206
:100AA0004839886070470120984940024839886079
:100AB0007047FF2095490130483988607047042805
:100AC0000DD8924A8100303A8918002804D18F4805
:100AD00048384068C00102D40720400708607047CA
:100AE00010B506F0A8F900F0D7F910BD10B5874C85
:100AF000483C62680020C043A060002A08D0500F24
:100B000015D0002A07DAFFF7EBFF00F0A1F93DE06E
:100B1000FFF7E6FF10BD500002D500F0AEF935E05A
:100B2000900033D5FFF7DCFF00F0ADF92EE01002A6
:100B3000C00E18D0100202D500F007FC26E05002CB
:100B400002D500F046FC21E0900202D500F082FCC4
:100B50001CE0D002800F19D00320C004A060002048
:100B6000FFF7ADFF12E01005000F0FD0D00501D543
:100B7000FFF79FFF900501D5FFF795FF500501D5C1
:100B8000FFF78BFF100501D5FFF781FF206810BD2F
:100B900000206949401C8842FCD370471E20401E3B
:100BA000411CFCD1704700B5584A0620483A5061B4
:100BB000FFF7F4FF05205061FFF7EAFF50690421B9
:100BC0008843506100BD5D480121C160C168C9060C
:100BD000FCD5022101615B4A594911600021016085
:100BE0007047F8B5514C2069022188432061474E77
:100BF000483E706840001ED530690921C906884307
:100C00003061206900270006494D002803DA2F7063
:100C1000FFF701FF02E02F70FFF728FF0A2005F021
:100C200068FE3760FFF7CFFF3C48306070684000D7
:100C300002D4FFF755FFF8BD43490420086030BFD8
:100C4000FFF74EFF2878002816D02F703F49142058
:100C5000088021693E48884307D120690121890421
:100C600088432061A068012809D07068400003D53E
:100C70002069022108432061FFF732FFF8BDFFF72A
:100C800092FFF8BD21494839CA6B012383409A433A
:100C9000CA637047042805D81C49800030394018C1
:100CA000002101607047042805D8184980003039B8
:100CB0004018090701607047042807D8134A8000CC
:100CC000303A8018052252078918016070470F4991
:100CD000383148600220C860C8688007FCD4886842
:100CE0001C490860704700B50A46402A34D2401EAD
:100CF00008498000085891084018FFF7E8FF90075E
:100D0000C10E14480068C840C0B200BD48C00540CC
:100D100000E005404002002050020020100000B01A
:100D200004400000FFFF000000A004406402002017
:100D3000B8000020008004400A280000000006409F
:100D40000200FA5A00200640402003409201002091
:100D500080000400DC0000200020D6E700B5102948
:100D60000AD2401E344A8000105889004018FFF70C
:100D7000AEFF32480068C8E70020C6E7304A50603E
:100D800091600120D060D068C007FCD1704730B5B9
:100D90000B46402B15D2401E274980000858990861
:100DA00045182846FFF793FF244804689807C30EA8
:100DB000FF20984084431146994021432846FFF77D
:100DC000DDFF30BD102907D2401E1B4B8000185894
:100DD000890040181146D1E77047194A403A90639C
:100DE00017480221016001688907FCD4D06B1549BE
:100DF00008607047124A403A9063D163104801215D
:100E000001600168C907FCD17047C106C90E012005
:100E100088400D4908607047C106C90E012088400E
:100E20000949803108607047C106C90E0120884019
:100E3000064908607047000040020020DC000020E6
:100E400080C00540D800002000E100E080E200E022
:100E500010B50020F74AC0439060F74901200861AF
:100E600000208860D060FFF72AFE01242046FFF7AB
:100E700011FF641C042CF9D910BDEF48016902224E
:100E8000114301617047EC4801690422114301617B
:100E9000E849D00688607047E64801690922D20611
:100EA0001143016101214906816070470120E14938
:100EB00080068860704710B5DF4CA06801280CD10F
:100EC000DE4A002000211154401C0428FBD920795F
:100ED000012802D8A278002A03D00020FFF7EFFDF6
:100EE00010BDD74A1154FFF7CDFE20690121090436
:100EF0000843206100210846FFF7DEFE10BD10B553
:100F0000CD4CA068012814D12078812811D12079F6
:100F100001280ED8CA49095C0020FFF76BFF206941
:100F20000121C9030843206101210020FFF7C4FE0D
:100F300010BD0020FFF7C3FD10BDF8B5BF4DBE4E7C
:100F40003069800607D5B0781021012400270028D9
:100F500005D0012819D00020FFF7B1FDF8BDB7601A
:100F60003069084330610127EC553846FFF792FE9F
:100F70007F1C042FF8D9306901210904084330612E
:100F800000210846FFF798FEF8BDB4603069884339
:100F9000306100242F55002C0CD02046FFF783FE33
:100FA000A4480069611EC840C00703D00021204644
:100FB000FFF782FE641C022CECD930690121090480
:100FC0000843306100210846FFF776FEF8BD70B592
:100FD000994DA9680020FFF70DFFA868012806D1E8
:100FE00001242046FFF75FFE641C022CF9D99548C6
:100FF0000021016028690321890308432861012138
:101000000020FFF759FE70BD10B50020FFF757FD17
:1010100010BD10B504461806120410430902084317
:10102000204310BDF8B5884F3C688348854EC08882
:101030003168884200D23060306800281DD0002519
:10104000E378A27861782078FFF7E3FF0146A800F3
:10105000FFF7D0FE241D6D1CEDB2102DF0D33068CB
:10106000402815D340210020FFF726FE3868403085
:101070003860306840383060F8BD00210846FFF71E
:101080001BFE6C4881690122120711438161F8BD82
:101090003068C1B20020FFF70FFE00203060F8BDBD
:1010A000F8B5002400206449684BCA780D798F7820
:1010B0000C26014671435E5CB24211D1C9184E78CC
:1010C000B5420DD18E78B7420AD10C225043C018D8
:1010D00082885C4802605C4889680160012402E003
:1010E000401C1028E4D3002C08D053490869012281
:1010F000D20310430861FFF795FFF8BD0020FFF70A
:10110000DEFCF8BD10B54C4801692023994301610C
:1011100001694022114301618178002902D00269EE
:101120001A43026101730169012212041143016132
:1011300000210846FFF7C0FD10BD70B53E4D287870
:101140004406640E000602D50020FFF7B8FC002C10
:1011500005D0022C0FD00020FFF7B1FC70BDA8789D
:101160000128FBD128693A49084328610021084633
:10117000FFF7A2FD70BDA8780028FBD128794006B2
:10118000400E411E0129F5D8A9680129F2D12B4A48
:101190001154FFF794FC28690121090408432861D0
:1011A00000210846FFF788FD70BD70B5224D2878F4
:1011B0004406640E000602D50020FFF780FC002CD8
:1011C0001AD0022C17D1A878002814D1287940060B
:1011D000400E0022194BE10300281ED002280AD835
:1011E000AC68012C07D11A542869084328610021F2
:1011F0000846FFF761FD70BDA8780128FBD128697A
:101200008021884328612869114980390843286171
:1012100000210846FFF750FD70BD28698006FBD508
:101220001A7028690843286100210846FFF744FD29
:1012300070BD000000C0054064020020B90000201D
:10124000C8000020C4000020C000002004000020CE
:101250008001010070B5B84D28784406640EC009BD
:1012600001D1FFF72CFC0126F603002C15D0012C30
:1012700027D0022CDCD128794006400E0228D7D88E
:10128000AE49095C0020FFF7B5FD286930432861AD
:1012900002210020FFF710FDCAE72869000604D5E7
:1012A00002210020FFF7A6FD03E000210846FFF71A
:1012B000A1FD28693043286102210020FFF7FCFCD2
:1012C000B6E7A8680128B3D168790028B0D1287999
:1012D0000128ADD800210846FFF78CFD286930436E
:1012E000286102210020FFF7E7FCA1E710B5924832
:1012F0004078030005F062FE0C070A250D25101347
:1013000016191C1F2225FFF7A5FF10BDFFF74DFF83
:1013100010BDFFF712FF10BDFFF7F4FE10BDFFF781
:10132000BFFE10BDFFF770FE10BDFFF750FE10BDF1
:10133000FFF703FE10BDFFF7E2FD10BDFFF7BBFD99
:1013400010BD0020FFF7BBFB10BD7CB533207C4CEB
:10135000C004A0600020FFF7A6FC6068400331D401
:10136000754C20690321C903884320610020FFF7E1
:1013700034FD744D286801900420FFF72EFD286885
:1013800000900198C0B220700199090A617001991A
:10139000090CA1700199090EE17000992171009961
:1013A000090A61710099090CE18060210840002858
:1013B00002D0202803D008E0FFF798FF7CBD00F0A2
:1013C00007FA7CBD01208004A0600020FFF777FBB6
:1013D0007CBD70B501205A4E8005B0605A4DA87C86
:1013E000022815D10020A8746869584988420DD197
:1013F000A8695749884209D10024A0000021FFF7BD
:10140000F9FC641C402CF8D3FEF7A0FE0420A8745D
:10141000494C20694F4D40060CD520694021884336
:101420002061207BF0600020FFF749FB2069A84382
:101430002061FDE6E088002808D02069C00305D4BB
:10144000FFF7F0FD2069A8432061F1E60020FFF7D7
:1014500036FBEDE6F8B501213948490581603A4D82
:10146000A87C384E012819D0686D80050DD5686DAF
:101470000913884368650020FFF7AFFC30682870C7
:10148000686D01214903084368652B4C20690004FD
:1014900025D400210846FFF70FFC29E00024A00016
:1014A0000746FFF79AFC306879194861641C102CD4
:1014B000F5D30220A87468692449884203D1A86939
:1014C00023498842E1D02448012201781143017068
:1014D000224800780428D8D102F0F6FAD5E7184857
:1014E0004168C90104D481690122D2061143816196
:1014F00020690121C90388432061F8BD00200F4AFB
:1015000000211154401C0528FBD30020144A11541B
:10151000401C0428FBD30848017041708170C170E1
:1015200001714171C180816001730169012252041E
:10153000114301617047000064020020B9000020DF
:1015400000C00540D800002078020020AA42895A35
:10155000FF7162CC00000100E40000206401002063
:10156000C800002010B5B84A107821281BD1B7490F
:10157000486D01231B03184348651079012812D8D0
:101580009078002804D14B6D0324A402A3434B653B
:1015900048741069012109040843106100210846BC
:1015A000FFF78AFB10BD0020FFF789FA10BD10B5C8
:1015B000A5480178212914D101690122120411439F
:1015C0000161A2494A6D0123DB021A434A6502798F
:1015D000012A06D8C078087400210846FFF76CFB82
:1015E00010BD0020FFF76BFA10BD10B59749012020
:1015F000887400210846FFF75FFB10BD10B59248C4
:10160000016901221204114301619048416DD21118
:101610001143416500210846FFF74EFB10BD10B590
:1016200089480178212907D10179002904D1C0789E
:10163000022805D0032806D00020FFF740FA10BD8D
:10164000FFF7DCFF10BDFFF7D0FF10BD10B57E4CDB
:101650002078A12816D17D48416DC90401D401210B
:101660004174217901290DD8417C0020FFF7C2FB8C
:1016700020690121C9030843206101210020FFF7EF
:101680001BFB10BD0020FFF71AFA10BD10B56E4805
:101690000178A12908D16D494A6D0123DB021A4363
:1016A0004A650279002A03D00020FFF708FA10BD2E
:1016B0000A7C67490A6001690122D2031143016172
:1016C00001210020FFF7F8FA10BD10B56149002094
:1016D00008605D4801690122D203114301610521BF
:1016E0000020FFF7E9FA10BDF8B55B4E0221307813
:1016F000084330700024554DA000411949690091FC
:101700000099FFF777FB641CE4B2102CF4D34E4829
:1017100001690122D2031143016140210020FFF73A
:10172000CBFA687DAB2806D13078FD2108403070B7
:101730004A4904200870F8BD10B5444801780020DB
:10174000FFF758FB404801690122D20311430161B0
:1017500001210020FFF7B0FA10BD10B53D4900206F
:101760000860394801690122D2031143016108214F
:101770000020FFF7A1FA10BD10B533480178A12968
:101780001FD1816801291CD10179C078002902D0BC
:10179000012910D015E0012804D0022805D0032823
:1017A00006D00EE0FFF7D9FF10BDFFF7C5FF10BD53
:1017B000FFF79AFF10BD2549497C012901D1012875
:1017C00003D00020FFF77BF910BDFFF77EFF10BDAF
:1017D00010B51D484078030005F0F0FB0C19070A0E
:1017E0000D191919191910131619FFF7C5FF10BD96
:1017F000FFF74CFF10BDFFF729FF10BDFFF70FFFEC
:1018000010BDFFF7D4FE10BDFFF7ACFE10BD0020E9
:10181000FFF755F910BD10B50E49002008600A48C1
:1018200001690122D2031143016105210020FFF764
:1018300043FA10BD05487D21017401214174002146
:101840008174416570470000640200207802002026
:10185000E0000020C4000020E4000020640100201B
:10186000F0B591B00020534A534B544D0024410031
:1018700054525C526C52401C80B27E28F7D3012037
:1018800005F06BF804F0ADFF002507273F0301AE1C
:101890000020AA0181008B18DB191B687350401CC3
:1018A00080B21028F6D30120C003101801AA10211D
:1018B00004F02AF96D1CADB2162DE9D34149404818
:1018C000C860002081007450401C80B21028F9D3F9
:1018D00001AA10213C4804F017F9432001AA102165
:1018E000400204F011F9384801AA1021D03004F068
:1018F0000BF9872001AA1021000204F005F904F079
:1019000069FF11B0F0BDF8B58C46002429490026C6
:1019100065004E53284F7E53284F7E53641CA4B25B
:101920007E2CF5D30021294C455C6554491C89B2B5
:101930004029F9D3002105E065466D5C8E18A55558
:10194000491C89B29942F7D3204A402104F0ACF8EF
:10195000012800D1FEE7F8BDF8B58646944600247C
:101960001448154F154A0026650046537E535653BA
:10197000641CA4B27E2CF7D30020144A03E00C5C54
:101980001454401C80B29842F9D370466044044617
:101990000E4A402104F088F8012809D00B4A20465D
:1019A00040304032402104F07FF8012801D1FEE7A9
:1019B000FEE7F8BDBE090020BA0A0020B60B0020E1
:1019C000AA55FA5A00000140808500000A12002042
:1019D000F8B51420FE4EFF4D0127401EC0B2002472
:1019E0003168890600D501243168490601D50221F4
:1019F0000C43E97CA14204D0022004F0AEFFEC7459
:101A000014200028E9D1E87CF349C3070022002B09
:101A100001D00F7000E00A70EE4920398F778307FC
:101A200000D58A778B7F002B00D08A732875F8BD8C
:101A3000E849002041314870032025390870022010
:101A4000091F0870E54901200870E2490620343179
:101A50000870E34905200870BAE710B50021DC489A
:101A6000026801239206002A00DA0121006840067C
:101A700001D502200143D748C27C8A4203D00A2202
:101A80004275C17410BD417D0029FBD0491EC9B209
:101A900041750029F6D1047D114661400029F1D03D
:101AA0000275C8070024002814D0CB48D10709D0FC
:101AB00003700BF0BEFC02F017FDFEF77BFFC94878
:101AC000047010BD04700BF0B4FC02F0B0FCFEF723
:101AD0002AFF10BD8807FCD5BE48203883779107C0
:101AE000F7D5847710BD704770B500240020B94D3C
:101AF0004135295C0C43401CC0B20828F9D3B54AD3
:101B00000123203A0021002C06D0D3740020295450
:101B1000401CC0B20828FAD300240120AF4D2E5C2F
:101B20003443401CC0B21028F9D3002C06D0937562
:101B300001202954401CC0B21028FAD300240120EF
:101B4000A44D1C352E5C3443401CC0B20328F9D38D
:101B5000002C06D0137501202954401CC0B2032864
:101B6000FAD39C4818304478002C01D0537541704A
:101B700000240120974D34352E5C3443401CC0B204
:101B80000528F9D3002C06D0D37501202954401C18
:101B9000C0B20528FAD3517270BDF0B58D4B203B11
:101BA000187A1C4601464207E57AA039520F0124F3
:101BB000072914D8DC74184661300078012D07D04D
:101BC00089496133895CFF22514008401870F0BD9B
:101BD000854B80499A5C413110430870F0BD014645
:101BE000B0390E461F2912D81C757A4903221C31C0
:101BF000012D04D00A70002048708870F0BD7B4B26
:101C00007000185A0A704870000A8870F0BD0146CA
:101C1000A839022918D85C756E4A734C18321046E0
:101C20003838007A022320185178C038012D06D0A8
:101C30001370007EFF23584001405170F0BD1370B7
:101C4000007E01435170F0BD624B203B1E46597A25
:101C500061361B7A7718DE08604BF318012D13D01C
:101C6000002950D05B4DBE78203D6D7A6D1EAE468A
:101C7000EDB2AC46864229D10021564DB970203DC7
:101C8000EC74614669723EE0524D203D052912D246
:101C900000290BD000222B46613305E09E18B67850
:101CA0008642D0D0521C92B28A42F7D3B870491CF7
:101CB0006972EC74F0BD7828FCD2AC7547480470AA
:101CC00049495878895C08435870F0BD0026414F57
:101CD000413716E0BD19AD78854210D13D49203914
:101CE00004E0B819C2788270761CB6B27645F8DB8B
:101CF0000020BA199070CC7460464872F0BD761C12
:101D0000B6B28E42E6D3334920397828F6D28C75A4
:101D10003248047034495878895CFF2251400840A9
:101D20005870F0BDF8B52B4C207C00286BD02746AE
:101D30004C373868401C38607968884263D3002586
:101D40003D6020462C3026460088203E316D8000C4
:101D500040184168090109097960C27869460A702A
:101D6000807848700021D30900D0012170231A40E7
:101D70006B461A70174B3433102A04D0202A0FD028
:101D8000302A0FD01CE00122F275124A3432527808
:101D9000002902D002435A7012E082435A700FE0C9
:101DA00018710DE030720246E03A072A01D8403837
:101DB0003072F572002901D00120F072FFF7EDFEBC
:101DC00004492C310888801C80B208804A880FE0C2
:101DD00000A0044008010020AE0100201C030020E8
:101DE0009401002084010020C87B0000887B000053
:101DF000904208D3A07B002802D0012804D00FE035
:101E00002574FFF771FEF8BDF94A1078401CC0B286
:101E100010705278904203D32574FFF765FEF8BD29
:101E2000607BF44A80008018006CF24A40328018CF
:101E30003D600A227A600D80028808304A80306551
:101E4000F8BD10B5EA48EC4A3A38837E0021002BF1
:101E500004D08176037E012B0CD00CE001760123A7
:101E60008376E648018000201154401CC0B240280F
:101E7000FAD310BD0176017E1170407E00280DD08E
:101E8000012812D0022818D00328F2D1872040233D
:101E90000022D9490002FFF736FD10BD4023002281
:101EA000D549D748FFF72FFD10BD4320402300221E
:101EB000D1494002FFF727FD10BDD1484023002241
:101EC000CD49D030FFF71FFD10BDF8B5C84F002435
:101ED0003A3FB97E3846C07A002914D0B97A002931
:101EE00011D13A7AAF2A05D0397E402903D33C720A
:101EF000FFF7A7FFF8BDC04B5A54491CC9B258544C
:101F0000491C39763C72BF4B397A1A780125F02981
:101F100066D0B74E1A3EE62973D0F72972D0D12980
:101F200071D0EE2970D03246127B0092B64AD32986
:101F300012786AD0B54B072636031B788D296FD0EF
:101F40008E296ED08F296DD090296CD091296BD0BD
:101F500092296AD0E52969D0EF2968D09C2967D0F9
:101F6000AB4BAC4F1B783E78DA2972D0DB2971D0AD
:101F7000A94BAA4F1B78D0299C463B786BD09C4E2E
:101F80003A3ED82968D0E72967D0A54ED6293678B9
:101F900076D0D72975D0964E3A3ED42972D0D5291D
:101FA00071D01322DC296FD0DD296ED03246127B2E
:101FB0003A296BD03B296AD03C2969D03D2999D177
:101FC000002897D0872000020078002892D0002AAD
:101FD00090D1747035730320707634723476F8BD06
:101FE0003C720028FBD0002A10D0012AF7D11C70C7
:101FF0000BF01FFA02F01BFAFEF795FC0BF057FAF4
:10200000F8BD16E02AE033E045E053E01D700BF028
:1020100010FA02F069FAFEF7CDFC0BF048FAEFE790
:1020200081E09BE0B8E024E153E174E195E1A0E1B7
:10203000ADE13C72012AE3D1012803D0B4707948A4
:102040000470DDE702F08BFA0A2004F086FCB5701C
:10205000D6E7A7E1B5E1C3E13FE249E23C720128DE
:10206000CED1F87B002801D0FC73C9E7FD73C7E728
:102070003C720128C4D1B87B01280AD0BD73BFE7E8
:102080003CE248E254E263E272E285E299E2A6E2CF
:10209000B4E2BC73B4E73C720028B1D0624908785E
:1020A000401CC0B20870032800D30C7008F0ADFAD1
:1020B0007D77A5E73C720028A2D05C480178012911
:1020C00009D05B48007800289AD10098002808D0F1
:1020D0000BF0F6F994E70470FFF7C2FB08F0DAF9A9
:1020E0008EE74948012A1BD00121C90309790170F3
:1020F0000120C00341794A48017008F081F94D4838
:10210000057042490878401CC0B20870132800D3FB
:102110000C700AF042FE0AF04AFE0BF08AF96FE7F3
:1021200005210170E4E73C7200288AD03748062B6D
:1021300087D00621017031793348017071793848B0
:10214000017008F05DF93B4805703B4804700AF0E7
:1021500024FE0AF02CFE0BF06CF951E73C720028CB
:1021600085D02A48052B14D00521017031792648E5
:10217000017071792A48017008F042F92D48057004
:102180002D4804700AF009FE0AF011FE0BF051F917
:1021900036E707210170E9E73C72002889D01B4827
:1021A0000A2B4BD0092B4CD00B2B4DD0082B4ED0EB
:1021B000032B4FD0102B50D0042B51D0112B52D0C9
:1021C0000F2B53D00A21017031790F4801707179BA
:1021D0001348017008F014F9164805701648047089
:1021E0000AF0DBFD0AF0E3FD0BF023F908E700003D
:1021F00022010020809700002C030020E401002031
:1022000080850000AE010020CB010020B701002036
:10221000C1010020B2010020B3010020D001002044
:10222000CD0100208B010020B4010020020000201D
:10223000DA010020B9010020CF010020092101703E
:10224000C2E70B210170BFE708210170BCE7032141
:102250000170B9E710210170B6E704210170B3E7FE
:1022600011210170B0E70F210170ADE7122101705B
:10227000AAE73C7200288BD0F948002B1BD0012B19
:102280001BD00D2B1CD00E2B1DD00C2B1ED0047080
:102290003179F44801707179F348017008F0B0F8B1
:1022A000F2480570F24804700AF077FD0AF07FFDED
:1022B0000BF0BFF8A4E60570EAE70D210170E7E72F
:1022C0000E210170E4E70C210170E1E702210170A9
:1022D000DEE73C72002889D03179E24801707179DB
:1022E000E148017008F08CF8E0480570DC49087896
:1022F00006280AD007280BD0062008700AF04DFDEA
:102300000AF055FD0BF095F87AE607200870F5E71E
:1023100008200870F2E73C720028CBD03179D14810
:1023200001707179D048017008F06AF8CF480570E3
:10233000CB49087810280AD00F280BD0102008703D
:102340000AF02BFD0AF033FD0BF073F858E60F206E
:102350000870F5E711200870F2E73C720028A9D058
:10236000C4490878401CC0B208700528A2D30D707B
:1023700046E63C72C0490878401CC0B20870082884
:1023800000D30C700AF0A0FF0BF053F838E63C7253
:1023900000288FD0B9480178002901D004702FE6B9
:1023A00005702DE6B6490C720028ADD0002E02D083
:1023B000761E3E7000E03B700AF0F9FC0BF039F835
:1023C0001EE6AF490C7200289ED09E4202D2761CB7
:1023D0003E7000E03C700AF0EAFC0BF02AF80FE6D1
:1023E000A7490C7200288FD0604612288CD1A548CE
:1023F0000178002923D00470082E85D3012B2AD020
:10240000022B30D0032B37D0042B3ED0212080026A
:10241000052B43D0062B47D0FF220132072B49D092
:10242000082B4CD0092B51D0002B8FD1FF2201203B
:102430007E2381329449C003FFF78EFAE0E50570F0
:10244000924804800020904AFF211154401CC0B2E1
:102450007E28FAD3D4E5012252027E238A499001D4
:10246000FFF77AFACCE5052201207E23D2018649C6
:10247000C003FFF771FAC3E5032201207E23120295
:102480008149C003FFF768FABAE5072201207E23DD
:10249000D2017D49C003FFF75FFAB1E57E23002238
:1024A0007949FFF759FAABE57E2380227649FFF799
:1024B00053FAA5E57E237449FFF74EFAA0E5802282
:1024C0007E2371491002FFF747FA99E501207E2328
:1024D0006D49C003FFF740FA92E534720028ADD091
:1024E00063480178002901D0047089E5057087E50B
:1024F00034720028A2D03573347681E560490C72BD
:1025000000289BD05848052E98D2761C0670574854
:1025100005704D7774E55A490C7200288ED05248E8
:10252000012E8BD9761E0670504805704D7767E5F1
:10253000347200288ED0009800288BD14948052A93
:1025400088D2521C027007F05BFF0AF072FF57E559
:102550003472002886D0009800288CD14148012A86
:1025600089D9521E027007F04BFF0AF062FF47E55F
:102570003472002888D0012B02D1604612288CD0FA
:102580003D704348047036490A700AF006FC0AF0B0
:102590000EFC0AF04EFF33E53472002889D0022B7E
:1025A00002D16046122884D0022038703848047066
:1025B0002B490A700AF0F1FB0AF0F9FB0AF039FF27
:1025C0001EE5002888D033480078002884D0002AEF
:1025D0008BD17470357374763472347610E50028BC
:1025E00085D0432040020078002886D0002A84D17C
:1025F0007470357375763472347601E5002889D0AD
:102600002448C030007C002884D0002A8FD1747008
:1026100035730220707634723476F1E4F8B5184AD6
:102620001E27117A1046C07A0024D2290CD01A4BEA
:102630001A4E527C1B783578F12938D0F22959D0BE
:10264000F3297CD00120DBE400282DD01448017848
:10265000002927D00470FFF703F907F01BFF24E0DF
:10266000B7010020CB010020CD010020B9010020DE
:10267000CF010020E1010020B5010020D901002098
:10268000E8000020C80100203F050020E4010020F0
:10269000B301002080850000AE01002089010020E8
:1026A00002000020577400E054740020A8E4012BBD
:1026B0001ED1002818D0012D01D0F8480470012542
:1026C00035700AF0B6FEF6484774F64903200870E4
:1026D000F5485121017081214170F4480570F4489A
:1026E0000470F448047003E0ED48002A00D04474FC
:1026F000002085E4012B20D100281AD0022D01D022
:10270000E6480470022030700AF093FEE4484774F3
:10271000E44903200870E44851210170822141708E
:10272000E24801210170E2480470E248047004E0CC
:1027300005E0DB48002A00D04474002060E4012B4F
:102740001FD1002819D0042D01D0D44804700420D2
:1027500030700AF06EFED2484774D24803210170EF
:10276000D1485121017083214170D0490120087066
:10277000CF480470CF48047003E0C948002A00D055
:10278000447400203CE410B50020C549CA4B097AC6
:10279000CA4A05E044001C5D8C4205D0401CC0B212
:1027A0001488A042F6D3FF2010BDF0B5BC4DC44E36
:1027B000E87A2C462034C34F002854D0FFF7E3FFBB
:1027C000FF2817D0A97F002915D0A97A00293DD06C
:1027D0002179002934D0BC49420051184978297226
:1027E000AF4BC10859334407B848640F5A5C005DC9
:1027F00002435A54F0BDA97A002916D0A17C0029C1
:102800000ED04100C91949782972A54BC108593326
:102810004407AE48640F5A5C005D02435A54F0BD51
:102820004100891949782972EFE7A17C002903D07A
:102830004000385C2872F0BD4000305C2872F0BD6A
:10284000A3494200511849782972C9E72179002922
:1028500004D041009C48405C2872F0BD41009C4877
:10286000405C2872F0BDFFF78EFFFF28FAD08C4A3B
:10287000C1088C465932515C4307944A5B0FD25CC5
:10288000114223D0AB7F002B0DD02379002B17D022
:1028900043008D4818184078287281485930914378
:1028A00062468154F0BDA37C002B04D04000C019C7
:1028B00040782872F1E74000801940782872ECE7F0
:1028C00043008348181840782872E6E7A97F00295A
:1028D00007D0217900290FD041007B48405C287245
:1028E000F0BDA17C002903D04000385C2872F0BD07
:1028F0004000305C2872F0BD41007548405C287291
:10290000F0BDF8B5734800240480654F387AAF28CD
:1029100006D0632804D0F97A002901D06E490C70E2
:1029200063490A786D49002A02D06D4A0A6002E0C4
:10293000FF2291320A6000284AD0FFF736FFB87CA8
:10294000002804D0387A4B2801D146203872B87F4D
:10295000534E3A4661368446002825D0107AA32883
:1029600008D0A22809D0A7280AD0A6280BD046282C
:102970000CD019E0A220107216E0A320107213E010
:10298000A620107210E0A72010720DE02120107216
:10299000D07A002804D030780A210843307003E050
:1029A0003078F52108403070117A0125AE2907D022
:1029B0003B481E272030FA290DD0AD2928D021E030
:1029C0001472D07A012803D1107C012801D015742B
:1029D0000CE414740AE4D37A002B0ED0937A002B03
:1029E00010D043782B434370DB439B070AD13D4B08
:1029F0001B78012B06D157745CE443785B085B00BD
:102A0000437054740D291CD0254AAC296FD039E08D
:102A1000D17A00290FD0917A0029EDD04178022394
:102A200019434170C8438007E6D12E480078012839
:102A3000E2D157743EE441788908890041705474AA
:102A400038E4174AD37A002B15D0937A002B19D08B
:102A50001346DA7F2A43DA77D243920712D122480B
:102A60000178002904D00470FEF7FAFE07F012FD89
:102A70000B4847741EE40A4AD27F5308084A5B0099
:102A8000D3775474064ADF2945D0AB2957D0E229C1
:102A90006AD006297DD0D9297CD0A1E08801002008
:102AA000E80000208301002094010020850100201F
:102AB000840100208E010020B67A0000EC6F000037
:102AC0002A7A0000707A0000427B0000C87B000078
:102AD000FC7A000096010020E1010020A401002002
:102AE00070170000AE01002002000020FFE7D07A3E
:102AF00000280BD0907A00289CD0D07F0221084378
:102B0000D077C043800795D157741FE4D07FFD2153
:102B10000840D0771AE4D17A00290AD0917A0029A6
:102B2000F3D0017829430170C8438007EDD1577471
:102B30000CE40178490849000170547406E4D17A24
:102B400000290BD0917A0029DFD0017802231943A4
:102B50000170C8438007D8D1577409E40178890807
:102B600089000170547403E4D17A164600291ED0FE
:102B7000017804221143017005231A468A43FB4958
:102B800009D0007B0028E8D1087800280DD00C700F
:102B900005E40FE02DE00C70F5480178012902D121
:102BA000037007F02DFC77740AE40D7008E40470DC
:102BB000747405E46346002B12D0D37A002B0AD03C
:102BC000937A002B0CD0C3782B43C370DB439B0755
:102BD00006D1577403E4C3785B085B00C370547478
:102BE000E02916D0E42928D013293BD0E32952D07C
:102BF0004BE0D17A002907D0917A0029EAD0C17838
:102C000002221143C17019E4C17889088900C1709A
:102C100014E4D17A00290AD0917A0029F3D0C1793D
:102C20002943C171C8438007EDD1577406E4C179C7
:102C300049084900C17154740CE4D17A00290BD0C1
:102C4000917A0029F8D0C17902231943C171C84390
:102C50008007F1D1577405E4C179FD231940C17192
:102C6000547408E4D37A002B0AD0937A002B0CD04A
:102C700043792B434371DB439B0706D1577403E42D
:102C800043795B085B00437154748379002B14D043
:102C90004C2910D011E0D17A002907D0917A00296F
:102CA000EDD0417902221143417107E4417989084D
:102CB0008900417109E449211172AE49897A0029DC
:102CC00013D1AC4A127A4C2A06D1AA4BDB7A002BDC
:102CD00001D0857200E08472A64B492A05D1DA7AC8
:102CE000002A01D0C57200E0C472C27A837A1A4306
:102CF0001FD1A04A127A94464C2A0CD1027A0B4674
:102D0000134308D09B4B49211972002A01D0047249
:102D10000FE005720DE0974A6346492B09D1437ACB
:102D2000194306D04C211172002B01D0447200E0EF
:102D300045729049087ADE2804D08F4F3A78012AEC
:102D400007D008E0C87A002801D04F740FE44C7413
:102D50000DE45328FAD08748007C002802D0FEF703
:102D6000C3FE04E4FFF75AFC0028EFD08148447406
:102D7000FFF7ABF87F48027A002AE7D0817B012970
:102D800003D07E490978090605D5A32ADED0A72AF3
:102D9000DCD0652ADAD0F72308219D2A04D09E2AA8
:102DA0000FD09F2A1AD020E015220272C27A002A80
:102DB00003D032780A43327017E032781A4032700A
:102DC00013E0C27A012A05D032781A4032702B22E1
:102DD00002720AE032780A433270F8E7C27A012AB6
:102DE0002BD032781A4032700172027AF82A08D356
:102DF000C37B002B25D05207130F614A9A185278D3
:102E000002725E4A13789A0604D5027AA22A1ED06C
:102E10002B2A1ED05A0604D5027AA22A1BD03D2A9C
:102E20001BD0027AAF2A1AD0F52A30D0F62A72D0F7
:102E30005449097812296FD020E132780A43327060
:102E4000D2E75207130F4E4AD25C0272D9E70472DE
:102E50002CE404722AE4047228E4047226E407468F
:102E60000571BC72F87A01280FD0787F002802D053
:102E70000AF0DFFA7C77B87F0028E9D0FD74F4719E
:102E8000F87A0028E4D0F57110E4BD72F3E7C27A55
:102E9000012ADDD1827F002A4DD001210546C1746F
:102EA000F17135480078002827D001F0EDF80A20AC
:102EB00003F053FD0127EF740020F0712E4C2078B1
:102EC000002821D001F0E0F80A2003F046FDEF745D
:102ED000F7712078002820D001F0D6F80A2003F0FE
:102EE0003CFDEF740020F071207800281CD001F028
:102EF000CBF80A2003F031FD20E41E49082261319D
:102F00000120FDF76FFCD2E71A4908226131012048
:102F1000FDF768FCD8E743E0ACE0164908226131D0
:102F20000120FDF75FFCD9E7124908226131012039
:102F3000FDF758FCDDE70F48C57431700B20B07009
:102F40003878002820D001F09FF80A2003F005FD12
:102F50000848C5743470B470387800281AD001F06D
:102F600093F80A2003F0F9FC0CE40000DA010020D9
:102F7000CB010020E8000020AE0100206501002008
:102F8000EE6F0000B30100200822FE490120FDF78A
:102F900029FCDAE70822FB490120FDF723FCE0E7E2
:102FA000C27A012AE0D1827F002A3CD00121C1747B
:102FB000B470F171F4480078002822D001F064F870
:102FC0000A2003F0CAFCEF4801276138C7742C209F
:102FD000B070F771EC4D2878002818D001F054F843
:102FE0000A2003F0BAFCE7486138C774B470F47182
:102FF0002878002811D001F047F80A2003F0ADFC32
:10300000E6E40822DF490120FDF7ECFBD8E70822BF
:10301000DC490120FDF7E6FBE2E70822D94901205F
:10302000FDF7E0FBE9E701220546C2743170062096
:10303000B0703878002811D001F026F80A2003F08B
:103040008CFC0120E8743470B470387800280BD000
:1030500001F01AF80A2003F080FCB9E40822C949FB
:103060000120FDF7BFFBE9E70822C6490120FDF773
:10307000B9FBEFE7C54909780129C1D0807E002856
:10308000BED1FEF78AFDA3E470B50020BD4D613DC1
:103090006978491CC9B26970142938D300246C704E
:1030A000297B01290DD0687B002830D02E462036A0
:1030B000F07B401CC0B2F073C1072DD0FEF714FDA9
:1030C00032E0697E002906D0012906D0022907D006
:1030D000032908D009E0AE4807E04320400204E09D
:1030E000AB48D03001E087200002297E425C002AF4
:1030F0000ED040290CD2425C2A72491CC9B22976F2
:10310000405CE872491C29762C77FFF7FAFB70BD0A
:103110002C73FEF7E9FC70BD0121E972296D4008AE
:10312000085C2872FEF739FDF07B0728F3D36C7337
:1031300070BDF8B5934901206139C8769548CA7ABF
:103140000578C879944F95494000C3190978944C83
:10315000072D03D0934E082D28D072E03D5C58789F
:10316000EB001B191C5C9048002A14D000788F4A91
:10317000401E1055082902D0FF2904D00FE0204638
:1031800007F0E9FD0BE08A480079012807D12046C5
:1031900007F0E1FD03E001788448891E015583486A
:1031A000015D8448415C8448015511E4002A48D0FF
:1031B000385C5978715C814E325C0A433254804AE3
:1031C000135C0B4313540120174631182039CA7F72
:1031D000335C1A43CA771421091A3A468D18203DE8
:1031E0007B5CED7F2B437B54401CC0B21428ECD396
:1031F00000257248475D7248405D07430026F80786
:1032000015D0FF21E8000019805D6B4A1154634915
:103210000978082902D0FF2903D008E007F09BFDB8
:1032200005E063490979012901D107F094FD7F0880
:10323000761CF6B2062EE2D36D1CEDB2142DD8D357
:1032400018E4092D02D00F2D25D074E03D5C58788C
:10325000EB001B191C5C002A03D0544800210155C7
:1032600012E0524A01201055082902D0FF2904D04B
:103270000AE0204607F06FFD06E04D48007901287E
:1032800002D1204607F067FD4848015D4948415C8E
:103290004948015539E4002A4DD0385C5A78B25C6F
:1032A000464B1A54464E3254464B1A54464B1A5407
:1032B000082902D0FF2906D00EE0C0000019805C6A
:1032C00007F049FD08E03A490979012904D1C00015
:1032D0000019805C07F03FFD002538483A49475DFA
:1032E0003748495D405D07433648405D0843074322
:1032F0000026F80715D0FF21E8000019805D2E4A4E
:10330000115426490978082902D0FF2903D008E082
:1033100007F021FD05E026490979012901D107F0CF
:103320001AFD7F08761CF6B2062EE2D36D1CEDB2B4
:10333000142DD2D311E4122D03D1124E613E002A76
:1033400044D0132DF6D1002AF4D0385C1B4B3F2219
:103350001A541B490A5400251848475D1848405D17
:1033600007430026F80765D0FF21E8000019805DBB
:10337000114A115409490978082952D0FF2953D01C
:1033800058E0000049010020AE010020C8010020E3
:1033900080850000B3010020927D0000B201002072
:1033A000E27E0000C87B00003E8B00003B06002050
:1033B00078010020BE8A0000A60F0020DB04002058
:1033C000EF0400200305002017050020B27A002A30
:1033D00012D00022FB4D2D782A42ABD0385C5A78AF
:1033E000C0000019805CF84A082909D2135CFF2B41
:1033F00004D0FF2111540DE00122EBE7115409E044
:10340000115CFF290AD0491C1154115C082901D311
:10341000FF211154ED490120087007E400211154E7
:10342000F3E707F098FC05E0E9490979012901D1A2
:1034300007F091FC7F08761CF6B2062E92D36D1C25
:10344000EDB2142D88D306E470B5E24CE24A6179FE
:10345000206C890050500025A571A06CC00712D0C7
:103460006079A179C0004018C0B2E071E572216CAA
:10347000C90701D00121E172D849085C2072FFF729
:1034800058FEFFF73EFA206C40082064A06C40080C
:10349000A064A079401CC0B2A0710628DDD370BD25
:1034A00070B5CC4C0025A078002829D06279CA4993
:1034B00090000958206C4140A164002916D0E178A1
:1034C0000222002908D0636C83420CD1491EC8B285
:1034D000E070002803D010E0E27060640DE06564E5
:1034E000FFF7B2FF09E0E270606406E0E570521C8D
:1034F000D0B26071132800D36571FFF7C5FDA570C8
:10350000B4482030417C002902D04574FEF70AFC03
:1035100070BDB0480121C176B149097802290CD1AA
:10352000C079B04A4000115C80184078AE4AC900AA
:103530008918085CAD4AFF211154704730B5A54B7E
:1035400000249C71A44D98798000285818645C71FF
:10355000186CC00706D058799979C0004018D87106
:10356000FFF7D7FF186C400818645879401CC0B2A8
:1035700058711328ECD39879401CC0B29871062872
:10358000E1D330BDF8B5934CA078002844D0204654
:10359000934FC18E3A78481C8F4E002580B2012A85
:1035A00002D0022A06D019E07D221201914215D2E2
:1035B000E08613E02178002910D1A179226C8B00DC
:1035C000F250491CC9B2A171062907D3A571E08642
:1035D000042803D901202070FFF7B0FF38780228B3
:1035E00002D12078002816D0A079216C8200B15039
:1035F0003178012909D131890904090E402904D102
:10360000B18A4905490F022907D0401CC0B2A071F8
:10361000062800D3A571A5701AE4FEF721F97448B5
:1036200005614561FEE773484168FF22120291433C
:10363000416071484168490B490341607047F0B5EA
:103640006C4964488A1547794C150D15CE146A48A3
:103650003B0003F0B3FC150C1014181C22282E3468
:10366000393E43484D52575C6064686C0F00486AAD
:1036700010434862F0BD486A20434862F0BD486A82
:1036800028434862F0BD486A30434862F0BD486A4A
:103690000122120310434862F0BD486A012252031E
:1036A00010434862F0BD486A012292031043486209
:1036B000F0BD486A0122D20310434862F0BD416A5E
:1036C000012211434162F0BD416A0222114341626D
:1036D000F0BD416A042211434162F0BD416A0822F3
:1036E00011434162F0BD416A102211434162F0BDB5
:1036F000416A202211434162F0BD416A40221143D8
:103700004162F0BD416A802211434162F0BD416ACD
:1037100011434162F0BD416A21434162F0BD416AFB
:1037200029434162F0BD416A31434162F0BD426AC2
:10373000012109030A434262F0BD2E480168FF22BD
:103740001202914301602C480168490B4903016052
:10375000704728484168FF22120211434160264801
:103760004168264A11434160704710B50024FFF7B5
:10377000F0FFFFF7E2FFFFF762FF052003F0D8F844
:103780001F480068000400D501241E48016809058F
:1037900001D502210C430168490501D504210C43E0
:1037A0000168890501D508210C430168C90501D5C7
:1037B00010210C430068000601D520200443204658
:1037C00010BD0000C80100203F050020B801002006
:1037D00078010020E8000020D0020020827900005B
:1037E000B3010020927D0000E27E0000A60F0020C1
:1037F00000C005400040044000600440FF1F00007E
:103800000080044000A00440704700207047A44896
:103810000168FF22120211430160A2480168A24A16
:10382000114301607047F0B59D49A0488A1547795A
:103830004C150D15CE149B483B0003F0BFFB150C37
:103840001014181C22282E34393E43484D52575C20
:103850006064686C0F00486810434860F0BD4868B9
:1038600020434860F0BD486828434860F0BD486880
:1038700030434860F0BD486801221203104348609D
:10388000F0BD48680122520310434860F0BD48680B
:103890000122920310434860F0BD48680122D20320
:1038A00010434860F0BD4168012211434160F0BD02
:1038B0004168022211434160F0BD41680422114376
:1038C0004160F0BD4168082211434160F0BD41688C
:1038D000102211434160F0BD416820221143416034
:1038E000F0BD4168402211434160F0BD4168802233
:1038F00011434160F0BD416811434160F0BD416832
:1039000021434160F0BD416829434160F0BD4168F9
:1039100031434160F0BD4268012109030A4342601E
:10392000F0BDFEB593200002C06B6149884201D012
:103930000120FEBD5D495F48CA79805C800001902E
:103940005D4A01988018006C6B46C2B21A7003047D
:103950001D0E6B465D7003021E0E6B469E70000EC0
:10396000D8700290002A0BD00C46E07A0027203451
:10397000130003F023FB08910723333E475584913E
:103980000120FEBD0122CA75484B5433012D02D0DF
:10399000032D0FD080E0F206D20E69468A704349AB
:1039A00054314978002802D01143597074E0914392
:1039B000597071E000286FD01E716DE03B4B613390
:1039C0001A78002802D02A431A7001E0AA431A701C
:1039D0000120C8740E72002E5ED0FEBD01220A7551
:1039E00032493C314F708F70002855D04D708E7029
:1039F00052E001224A752D4938314F7001284BD1D0
:103A00004D7049E0022D09D1012807D12B4A1070D1
:103A10002B480522027047708670C7700F723BE01A
:103A2000002826D0207C002806D0FEF75DF8A07B79
:103A3000022821D01D4807726573A6731B483A30CF
:103A4000077002994170E7731E49A8004018006C86
:103A5000164A1C49403140180121217413466C3329
:103A60001F60596011464C310F80038808304B802D
:103A700010650E4807720FE027740020FEBD002875
:103A800009D0012048734F700B4B019A4033D21874
:103A90000A65E073CF710F720020FEBD7047000011
:103AA0000040044000600440FF1F0000E8000020C8
:103AB0000000AA55DA7800008090000085010020FF
:103AC000940100208097000010B5F7490878C207DC
:103AD00009D0400840000870F44803F04DFAF4495A
:103AE00088600320087010BDF0B5F0481438047DDC
:103AF000437DED4EEE4A31780027CD079078002DBA
:103B00001ED0EA4D143D490849003170042C01D102
:103B1000022B07D0FF20E875D78097703770976029
:103B20001770F0BD0121E975916829760B0A6B7653
:103B30000B0CAB76090EE976102108439070EBE789
:103B40008907EED5C006ECD5D7809770377097609F
:103B5000D7601770F0BD70B5D6480178D44C1434D6
:103B60002170417861708178A170C178E170017A2B
:103B70002171417A6171817AA171C07AE071CE4878
:103B800000210170E1790125012903D0E1790229A1
:103B900002D002E0057000E005702178C7480029D6
:103BA00014D02178802911D02178491E01706079C4
:103BB000C349087006F024FC09F0F9F8A079C1495E
:103BC0000870C148057006F035FD70BD1321017005
:103BD000EDE738B5B64C00222271B3490878C30727
:103BE00050D0400840000870E2802069E168800001
:103BF0004018AE4A102101F087FF2069E26880007A
:103C000010580090B14882420DD1017803880568B0
:103C10001B09ED0A2B4305680079AD0C2B43C0014D
:103C200003430B4363700020009B00991B04C9B23F
:103C30001B0EC918009B1B021B0EC918009B1B0EF4
:103C4000C918A368C918A1602169491C21618900AC
:103C500051580091001DC0B24028E5D3E078401EC5
:103C6000C0B2E07000280DD1032020709848824235
:103C700006D19849FF200870FFF76DFF01202071E1
:103C800002F0A8FD38BDF0B587490878820731D524
:103C9000FD2210400870864C0020E080E0788646C7
:103CA00001281FD90021E068844625696246A800E2
:103CB00010587E4AC7B2143A5218177503041E0EE4
:103CC000567503021B0E9375000ED075BA19D218E3
:103CD0001018A2688018A0606D1C2561091DC9B26A
:103CE0004029E2D37046401EC0B2E070002801D1E6
:103CF00003202070F0BD6E4BD860D9701A707047E9
:103D00006A4A143A117F527F12021143814206D946
:103D100065490020087066498870012070470020BE
:103D2000704708B500210091172849D012DC1328EC
:103D300033D008DC052823D0102823D0112823D025
:103D400012281BD127E014282FD015282FD0162891
:103D500014D133E0F0284AD00ADC554A182891786B
:103D60003BD019283ED0AB2831D0E02806D132E034
:103D7000F12840D0F22840D0F32840D0002008BDE0
:103D8000012008BD012008BD6A460121524801F00A
:103D9000BBFE012008BD012008BD46486A4601213E
:103DA0003C3001F0B1FE012008BD012008BD6A468B
:103DB00001214A4801F0A8FE012008BD012008BDEC
:103DC0006A460121464801F09FFE012008BD02F02D
:103DD00008FD012008BD012008BDBF2001409170F1
:103DE000012008BD402001439170012008BD09F069
:103DF00020FB012008BD012008BD012008BD0120D5
:103E000008BDF8B5294914390F7D487D0B7F497FDE
:103E100009020B43244900250A78254CD607002EB9
:103E200017D0224E143E520852000A70042F0BD1B4
:103E3000FFF777FF002807D00120F075A078112147
:103E40000843A070E580F8BDFF20F075A570E580FF
:103E5000F8BD9207FCD5A278D606F9D5EF263240F8
:103E6000A270E580104AFD2612783240142876D0E0
:103E70000CDC11284ED004DC052833D010280DD1DD
:103E80003CE0122852D0132808D15BE0152876D0E8
:103E9000162871D0172870D0AB286FD0A5700D7080
:103EA000A560A5602561F8BDE40000208C0200201B
:103EB0006401002080970000CF010020B70100209E
:103EC000CB010020CD010020B9010020809000002E
:103ED00040930000B20100200F930000FCA30000FB
:103EE000BC9000000220FFF70BFF0028D9D15B1C1B
:103EF00099B201225048FFF7FEFED2E70A20FFF7F1
:103F0000FFFE0028CDD15B1C99B201224B48FFF780
:103F1000F2FEC6E70A700A20FFF7F2FE0028C0D1C1
:103F2000022219464548FFF7E6FEBAE71420FFF7DC
:103F3000E7FE0028B5D15B1C99B201224048FFF78B
:103F4000DAFEAEE70A701420FFF7DAFE0028A8D1E7
:103F5000022219463A48FFF7CEFEA2E7FFE73020DB
:103F6000FFF7CEFE00289CD15B1C99B20122354898
:103F7000FFF7C1FE95E702E00DE018E023E00A70CC
:103F80003120FFF7BDFE00288BD1022219462D48B3
:103F9000FFF7B1FE85E70120FFF7B2FE002880D1D0
:103FA0005B1C99B201222848FFF7A5FE79E70A7049
:103FB0000120FFF7A5FE00289FD1022219462248C2
:103FC000FFF799FE6DE70A700420207069E710B5CD
:103FD0001E480078030002F0F1FF0504070A0D10E7
:103FE0000600FFF70EFF10BDFFF74DFE10BDFFF7F7
:103FF000F0FD10BDFFF778FD10BDFFF765FD10BDAA
:1040000010B5124BD888401C80B2D8807D210901A0
:1040100088420FD900200E4A00218400A418616153
:10402000401CC0B21028F8D30A48D980017019701A
:1040300002F0D0FB10BD000000900000C090000016
:1040400040930000C09700008090000064010020B1
:1040500078020020E4000020FE49FA200880FE4992
:1040600000200870FD4801210172E121C900816230
:104070007047F94900200870F8490120C871FF20F5
:10408000F4492D3008807047F0B5F548F34A0678BA
:10409000F44B5578F44CF54F00200121002E27D029
:1040A000002D25D0EE4D28705D6A0D435D62092319
:1040B0009371A12323800023ED4DED5C5B1C5E001A
:1040C000A553DBB2082BF7D3FB68DB06FCD43B68B7
:1040D000C0252B433B603B681B069B0F032BFAD08C
:1040E0002388FB61D16110625070C8239370D5E0C2
:1040F000E04E3678002E29D0002D27D0DD4D2870D7
:104100005D6A0D435D6210239371A2232380012316
:10411000D94C5E00E55CD44CA5535B1CDBB2102B84
:10412000F6D3FB68DB06FCD43B68C02423433B602A
:104130003B681B069B0F032BFAD0CB4B1B88FB6104
:10414000D16110625070C8239370A7E0CB4E3678CF
:10415000002E22D0002D20D0C84D28705D6A0D435E
:104160005D6203239371A3232380C54D6E78A680DF
:10417000AD786580FC68E406FCD43C68C0252C431F
:104180003C603C682406A40F032CFAD0FB61D1618B
:1041900010625070C823937080E0BA4E3678002EBB
:1041A00029D0002D27D0B74D28705D6A0D435D6280
:1041B00002239371A42323800123B34C5E00E55CAA
:1041C000A94CA5535B1CDBB2022BF6D3FB68DB06C4
:1041D000FCD43B68C02423433B603B681B069B0F19
:1041E000032BFAD0A04B1B88FB61D1611062507089
:1041F000C823937052E0A54E3678002E24D0002DAF
:1042000022D0A24D287002259571A52525806080B9
:104210009F4E3678002E01D003266680FC68E406A7
:10422000FCD43C68C02634433C603C682406A40FA0
:10423000032CFAD0FD615C6A0C435C62D1611062B0
:104240005070C823937029E05679002E26D0002D97
:1042500024D050715D6A0D435D6203239371A623E0
:10426000238000237D4D1435ED5C5B1C5E00A5535F
:10427000DBB2022BF6D3FB68DB06FCD43B68C0251F
:104280002B433B603B681B069B0F032BFAD0238814
:10429000FB61D16110625070C82393701378002BBA
:1042A00014D0714B7B4F40331C885B88B12C02D1FA
:1042B000156A022D05D06C4D4035AD88B62C06D060
:1042C0000CE0107010625907490F3970F0BD5A2B7D
:1042D00004D1012D02D1166A032E02D0B62C05D0CE
:1042E0000BE0107010621173D172F0BD5A2B04D123
:1042F000022D02D1166A032E02D0B62C06D00CE095
:104300001070106203201073D172F0BD5A2B04D1CB
:10431000042D02D1166A032E02D0B62C06D00CE072
:104320001070106202201073D172F0BD5A2B04D1AC
:10433000062D02D1166A032E02D0B62C05D00BE052
:1043400010701062FFF795FEF0BD5A2B04D1072DB7
:1043500002D1166A032E02D0B62C04D00AE01070E7
:1043600010629172F0BD5A2B04D10A2D02D1166A47
:10437000032E02D0B62C07D00DE010701062D07161
:10438000108345490870F0BD512B04D1772D02D11F
:10439000166A032E02D0B62C09D00FE038701070C8
:1043A000D07010623D490870FFF756FEF0BD512BEA
:1043B00004D1762D02D1166A032E02D0B62C0DD070
:1043C00013E01070106210729062D08211715073FD
:1043D00091732320D07332485062F0BD512B04D129
:1043E000782D02D1166A032E02D0B62C0CD012E022
:1043F00010701062FF23913353629062D08210716B
:10440000117415490870F0BD512B04D1792D02D1DA
:10441000136A032B05D0116A0329F4D310621070BC
:10442000F0BD1070106251731E490870F0BDF0B5F8
:104430000A4B00251D720B49486A01263043486229
:1044400003209871084AA620108058201C46143476
:10445000207029E0E4010020C90100208001002033
:10446000FB000020004004406C03002000C001401D
:1044700049010020FE0000201C030020FC00002059
:1044800024010020FD000020200100205C0100200C
:10449000F300002078020020DB010020F90000205A
:1044A00070170000CA01002066700020215C401CCB
:1044B0004700D153C0B20228F8D3B148C168C90639
:1044C000FCD40168C0242143016001680906890FFA
:1044D0000329FAD01188C161DE611D625D70C820B8
:1044E000987014205882F0BD70B5A648416A012327
:1044F00019434162A44A03209071A449A620088070
:104500005120154614352870507A012821D00228F0
:1045100022D08320687000202C5C401C46008C5305
:10452000C0B20228F8D39648C468E406FCD40468F4
:10453000C0252C43046004682406A40F032CFAD081
:104540000988C161D361002010625070C82090704A
:1045500070BD81206870DEE782206870DBE770B58F
:104560008848416A012319434162874A03209071B8
:104570008649A620088051201546143528706120F0
:10458000687000202C5C401C46008C53C0B202288E
:10459000F8D37B48C468E406FCD40468C0252C43E7
:1045A000046004682406A40F032CFAD00988C161B2
:1045B000D361002010625070C820907070BD70B53B
:1045C0007048416A0123194341626F4A0320907188
:1045D0006E49A620088051201546143528706520A4
:1045E000687000202C5C401C46008C53C0B202282E
:1045F000F8D36348C468E406FCD40468C0252C439F
:10460000046004682406A40F032CFAD00988C16151
:10461000D361002010625070C820907070BD70B5DA
:104620005848416A012319434162574A0320907157
:104630005649A62008805120154614352870682058
:10464000687000202C5C401C46008C53C0B20228CD
:10465000F8D34B48C468E406FCD40468C0252C4356
:10466000046004682406A40F032CFAD00988C161F1
:10467000D361002010625070C820907070BD70B57A
:104680004048416A0124214341623F4B0320987115
:104690003E4AA620108051201D46143528707020F7
:1046A00068700020295C401C46009153C0B202286B
:1046B000F8D33348C168C906FCD40168C025294332
:1046C000016001680906890F0329FAD01188C161C8
:1046D000DC61002018625870C82199701421598239
:1046E000187270BD28498878002814D0401EC0B2C6
:1046F00088704A7810430ED10120487021498A6A97
:1047000002438A621E4801690822914301610169DE
:10471000042211430161704770B51A4D28680123C6
:10472000800704241849164A00280FDA5069400708
:104730000BD5D569086A461C0E62144E40004036FF
:1047400035520B7090692043906170BD50694007ED
:10475000FBD58E79C869B04206D3A86A1843A8620F
:104760004B700020C86105E0431CCB610749400045
:10477000085AD061D06990692043906170BD0000F3
:1047800000C0014000400440800100206C03002074
:1047900070B5F84808250678AA02F748F74954008A
:1047A000330002F00BFC120A0F161E262C32393F82
:1047B000464E545B626970787EB2416A2943416219
:1047C000EF4875E0416A402211434162EC482A30CB
:1047D0006EE0416A0122520211434162E8485430BE
:1047E00066E0416A0122120311434162E4487E30CF
:1047F0005EE0486A10434862E148A83058E0486AE1
:1048000020434862DE48D23052E0416A012211431F
:104810004162DB48FC304BE0416A102211434162A7
:10482000D84845E0416A802211434162D5482A3088
:104830003EE0416A0122920211434162D148543064
:1048400036E0416A11434162CE487E3030E0CE48C6
:10485000416A29434162CB48A83029E0416A0222DB
:1048600011434162C748D23022E0416A20221143FD
:104870004162C448FC301BE0416AFF22013211430F
:104880004162C24814E0416A0122D20211434162EE
:10489000BE482A300CE0416A21434162BB48543093
:1048A00006E0486A0122D20310434862B7487E30CE
:1048B000B74902880A6242884A6282888A62C2884C
:1048C000CA6202890A6342894A6382898A63C28909
:1048D000CA63AF49028A40310A60428A4A60828ACA
:1048E0008A60C28ACA60028B0A61428B4A61828BEB
:1048F0008A61C28B0A62028C4A62428C8A62828C12
:10490000CA62C28C0A63008D486370BD00B59949C4
:1049100009780B0002F052FB120A0C0F1215181B3B
:104920001E202326292C2F3234373A3C94482FE07E
:1049300093482A302CE09248543029E090487E3049
:1049400026E090487E3823E08E48543820E08D4899
:104950002A381DE08B481BE08A482A3018E0894835
:10496000543015E087487E3012E088487E380FE0EA
:10497000864854380CE085482A3809E0834807E027
:1049800082482A3004E08148543001E07F487E307C
:104990007F49028840310A6042884A6082888A6082
:1049A000C288CA6002890A6142894A6182898A6131
:1049B000C289CA61028A0A62428A4A62828A8A6219
:1049C000C28ACA62028B0A63428B4A63828B8A6301
:1049D000C28BCA636E49028C0A62428C4A62828C24
:1049E0008A62C28CCA62008D086300BDF0B5644A59
:1049F000604814460078FC340126274676035E4959
:104A0000FC375E4D030002F0D9FA120A182635442D
:104A100051606E7C8A99A6C5D3E1F3F1F0170020AE
:104A200008244300D35A002B02D04B6A23434B6225
:104A3000401CC0B21528F4D3F0BD1520402443001B
:104A4000D35A002B02D04B6A23434B62401CC0B2A6
:104A50002A28F4D3F0BD2A20012464024300D35A4B
:104A6000002B02D04B6A23434B62401CC0B23F284C
:104A7000F4D3F0BD3F20012424034300D35A002B7C
:104A800002D04B6A23434B62401CC0B25428F4D37B
:104A9000F0BD54204100515A002902D0696A3143C7
:104AA0006962401CC0B26928F4D3F0BD69200123BB
:104AB0009B034100515A002902D0696A1943696277
:104AC000401CC0B27E28F4D3F0BD00200122430078
:104AD000E35A002B02D04B6A13434B62401CC0B216
:104AE0001528F4D3F0BD152010234200A25A002A45
:104AF00002D04A6A1A434A62401CC0B22A28F4D340
:104B0000F0BD2A2080234200A25A002A02D04A6A1D
:104B10001A434A62401CC0B23F28F4D3F0BD3F2084
:104B200001239B024200A25A002A02D04A6A1A4379
:104B30004A62401CC0B25428F4D3F0BD5420420055
:104B4000A25A002A02D04A6A32434A62401CC0B2CA
:104B50006928F4D3F0BD69200B4908234200A25A0A
:104B6000002A02D04A6A1A434A62401CC0B27E2818
:104B7000F4D3F0BDFE01002000800440006004403A
:104B8000BE090020E40A002000A004400A0C002016
:104B900000200040002002234200BA5A002A02D01E
:104BA0004A6A1A434A62401CC0B21528F4D3E0E7AF
:104BB000152020234200BA5A002A02D04A6A1A431A
:104BC0004A62401CC0B22A28F4D3D2E72A20FF232D
:104BD00001334200BA5A002A02D04A6A1A434A6292
:104BE000401CC0B23F28F4D3C3E71FE00FE0FFE74B
:104BF0003F200123DB024200BA5A002A02D04A6A4F
:104C00001A434A62401CC0B25428F4D3B1E754207E
:104C100001239B034200BA5A002A02D04A6A1A436F
:104C20004A62401CC0B26928F4D3A2E7692001227D
:104C3000D2034100795A002902D0696A114369629E
:104C4000401CC0B27E28F4D393E73B484268FF2162
:104C500009020A43426002680A4302603748426818
:104C600037490A43426002680A430260704733488A
:104C70000168072252031143016032480168324A39
:104C800011430160314801680822114301607047F7
:104C90002A480168072252039143016029480168AC
:104CA000294AD243114001602848016808229143F3
:104CB0000160704710B5264C00202060FFF726FEEB
:104CC000206802210843206020688007FCD4206807
:104CD00001210843206001F091FD01F07BFD10BD32
:104CE000704770B5FFF7D4FF01F08DFD194C607867
:104CF000401CC0B2607000250A2810D31648017805
:104D000000290CD101210170657001F0BAFDFEF798
:104D10008AFCFEF72AFD11490860FCF7E4FEFFF764
:104D2000C9FFFFF763FE2078401CC0B22070122834
:104D300000D3257070BD00000040044000600440B6
:104D4000FF1F000000800440FB7F000000A0044023
:104D500000200040FE010020EA0000202801002081
:104D600010B50B22FD21E82001F03EFF01220A21AF
:104D7000E82001F039FF10BD70B50B22FD21E820BD
:104D800001F032FF10220121E82001F02DFFE42282
:104D90000D21E82001F028FF01220E21E82001F07A
:104DA00023FFBF220F21E82001F01EFF442214211F
:104DB000E82001F019FF4C221521E82001F014FF32
:104DC0000D22FD21E82001F00FFF00207049714CF9
:104DD0000A5C2254401CC0B24028F9D30022402370
:104DE0001146E82001F041FF0022FD21E82001F0FA
:104DF000FBFE0022A0231146E82001F011FF002055
:104E0000634DAD1E2946423103E00A5C2254401C2A
:104E1000C0B22A789042F8D300222B781146E820BD
:104E200001F023FF0122FD21E82001F0DDFE002238
:104E3000A0231146E82001F0F3FE00205449503130
:104E400003E00A5C2254401CC0B26A789042F8D356
:104E500000226B781146E82001F007FF70BD10B505
:104E60000B22FD21E82001F0BFFE00220A21E820EC
:104E700001F0BAFE10BD10B54748426802210A434E
:104E8000426041620A2001F068FDFFF7E8FFFFF78A
:104E900073FFFFF765FF10BDF8B5404C2078002880
:104EA0000FD00122FD21E82001F09EFE3E2380224A
:104EB0002021E82001F0D9FE002020703849087038
:104EC000F8BD00203549334B89788C463349497801
:104ED0008E4634490A782E4960310C5C3249095DAE
:104EE0006546002D01D0314D695C7546002D31D0ED
:104EF0002D4D670036352D5D51436E00AD192C4E9A
:104F0000E419765D224F4E43F60A96373F5DDE5533
:104F1000274E1F4FAD19AE7896374E43F60AE41967
:104F20006778DE556D78A4784D43E90A1955401C21
:104F3000C0B23628CFD30022FD21E82001F054FE74
:104F4000802300222021E82001F08FFE1348012158
:104F50000170F8BD144D5143A23D2D5D0C4F4D43E2
:104F6000EE0A6500651996377F5DDE550E4E084FD7
:104F7000363E365D96374E43F60AED196F78DE55AC
:104F8000094E6C3E345D4C43E10AAC781955CEE7CE
:104F900033D500000A1600200060044018020020EB
:104FA0002302002029020020C6100020BE8A000033
:104FB000FE8D0000FC48FB49827A895CC172C28A7E
:104FC0004A431103090C81824182704700B5F64BB8
:104FD0000B205870FF209130D882FFF7EBFFF34988
:104FE0000120087000219970F14A10709971002019
:104FF000F04A1154401CC0B23628FAD300BD70B537
:10500000E94C022060700F208001E082FFF7D2FFA0
:10501000E64900200870A070E5490870A071217C65
:10502000E54D4C000C19295D65196C78E34BE44E95
:10503000E44AAD78195434541554401CC0B2362893
:10504000F8D30020DB49FF220A54401CC0B23628A6
:10505000FAD370BD70B5D44B02205870C820D882E6
:10506000FFF7A8FFD148002101709970D048017066
:10507000997119740020D04D4C000C19295D6519E7
:105080006C78CE4BCE4ECF4AAD781954345415546B
:10509000401CC0B23628F8D30020C64AFF21115464
:1050A000401CC0B23628FAD370BDF0B5BE4B092003
:1050B00058703C20D882FFF77DFFBC490020087063
:1050C00098709871BA490870002220E00021BE4B08
:1050D0005000C0188646BD48B74C835C580018186D
:1050E000265C00194778807884467046405CB84C4E
:1050F00045006353B14C2654B14C2754B14C65461E
:105100002554491CC9B20229EFD3521CD2B2B1486E
:1051100000788242DAD30020A64AFF211154401CB5
:10512000C0B23628FAD3F0BDF0B59F4B0A205870B4
:10513000D882FFF73FFF9D490020087098709C4976
:105140000870987100219D4B9D4E9E4FA248405C77
:10515000A24A4C00125B9E4C45006253A04C24783E
:10516000A24204D300221A5432543A5409E05400A3
:10517000914D1219AC5C1C545219547834549278E5
:105180003A54491CC9B23629E0D300208949FF228C
:105190000A54401CC0B23628FAD3F0BDF0B5824B99
:1051A000052058701C20D882FFF704FF7F48002696
:1051B00006709E709E717E4806701E740020844F9B
:1051C0007D4D8549095C874A125C92194B00FA5261
:1051D0005300D218794BAC5C5C545219784B54781C
:1051E0005C549378774A5354401CC0B23628E8D3B5
:1051F0000020704AFF211154401CC0B23628FAD357
:10520000F0BD00B56848017A052903D90121C90319
:1052100049780172007A030001F0D0FE0A060C0FF3
:105220001215080808080908FFF7B8FF00BDFFF7C6
:105230007BFF00BDFFF739FF00BDFFF70BFF00BD8F
:10524000FFF7DDFE00BDFFF7C1FE00BD5648664911
:10525000027B895C417370470020564A002111543B
:10526000401CC0B23628FAD3704730B5FFF7F4FFC0
:105270004D4C0025E5700120C003817A2172C17A6E
:105280006172017B2173407BA072207A57494000F4
:1052900040184078A073FFF7D9FFFFF7B2FFE57021
:1052A000E57330BD4048807900280AD00020414A8B
:1052B000115C002901D0491E1154401CC0B236288F
:1052C000F6D37047C8E7F0B500213748404CC578A1
:1052D0003A4E4148405C002D12D04200A35A002BA8
:1052E0001AD05B1EA3523E4B4200A25A1B789A4230
:1052F00017D300223254324B1A54324B1A541CE04A
:105300004300E25A521C92B2E252394F3F88BA42ED
:10531000E9D30022E252E6E7354B1B885B1EA3521D
:10532000E1E75300244FD218BB5C3354D219244B0D
:1053300057781F549378234A1354491CC9B236290D
:10534000C7D3F0BDF0B50023214F26E00021164859
:105350001D4AC07884465800821896466246012A43
:1053600048D03A5A002A50D0521E3A527246525CE5
:105370003C5A65006419104D2E5D104DAE540E4D13
:1053800064190F4D6678AE54A5780E4CA554491C8F
:10539000C9B20229E2D35B1CDBB20E48007883421B
:1053A000D4D3F0BDE4DA00001C0200201A02002071
:1053B00019020020C610002097D6000024100020FB
:1053C0005A1000209010002046DA000096DA000003
:1053D00032110020FA8F000010DA0000A4D900007A
:1053E000F68F00006DD90000DCDA000089D60000DD
:1053F000F88F00003A5A521C92B23A52FE4C24786E
:10540000A242B3D300223A52B0E7FB4A1278521EAE
:105410003A52ABE7F0B50021F848C478F848038861
:105420005B1EF848405C002C0CD0F74E4500725BC8
:10543000521C92B27253F24F3F88BA4209D30022F3
:10544000725306E0F04E4200B55A002D10D06D1E8A
:10545000B552ED4A4500525BEC4D2D78AA4209D376
:10546000EB4D00222A54EB4D2A54EB4D2A540EE00A
:10547000B352EEE755005219E84DE54EAF5C375494
:105480005219E44D56782E549578E34A1554491C28
:10549000C9B23629C5D300213520421AD948805CCB
:1054A000002C0CD0D84D6C352A5C521CD2B22A5438
:1054B000D34E3688B24209D300222A5406E0D24D98
:1054C0006C352A5C002A17D0521E2A54D04DD14E7A
:1054D0002A5C375CD719D04A125CD7421AD1CA4A23
:1054E000CA4F6C32125C3F78BA4207D300222A546A
:1054F0003254C94D2A540DE02B54E7E75700D21916
:10550000C64FBF5C2F54C54D521955783554957808
:10551000C14A1554491CC9B23629BDD341E7F0B57B
:105520000021B648B84CC578B94EB648405C002D4D
:1055300018D04200A35A002B20D05B1EA352420079
:10554000A25AB64F5300D218BB5C3354D219B14B98
:1055500057781F549378B04A1354491CC9B236295E
:10556000E3D31EE74300E25A521C92B2E252A74F25
:105570003F78BA42E3D30022E252E0E7A34B1B7824
:105580005B1EA352DBE7F0B500209F4EA44FA2366E
:105590001FE0A4490978002909D0315C491CC9B22F
:1055A00031543A78914207D30021315404E0315C00
:1055B000002913D0491E3154325C9B499B4D895CB4
:1055C0004200AC5C9A4B1955521952789954401CC0
:1055D000C0B2984909788842DBD3E2E63978491E9F
:1055E0003154E9E770B58F48874903783522088838
:1055F000002B07D0401C80B20880362806D300203C
:10560000088003E000280DD0401E088008887D4BEC
:10561000195C894C864D26786E54101A185C2178D6
:10562000295470BD0A80F1E7F0B500207D49764A23
:105630000B787B4C7C4D7E4FA232002B09D0115C45
:10564000491CC9B211542678B14207D30021115424
:1056500004E0115C002909D0491E1154115C695CF9
:105660003954401CC0B23628E7D39AE62178491E47
:105670001154F3E770B56149087C401CC0B208744E
:10568000624A1278904201D3002008740020097CFD
:10569000624D4C000C19295D65196C785C4A5D4EB1
:1056A0005D4BAD78115434541D54401CC0B23628A3
:1056B000F8D370BD51498878401CC0B288705F4AE9
:1056C0001278904201D3002088700020584A8978CF
:1056D0001154401CC0B23628FAD3704710B50020D0
:1056E0004649574A524C497AFF2311542354401CCF
:1056F000C0B23628F9D310BD70B5404CE07B00280D
:105700003DD1607900230125002803D06371FFF7A4
:10571000C9FDE571207800282CD023706078030043
:1057200001F04CFC0C070A0D271019131C161F2240
:105730002527FFF7D3FF1CE0FFF7BCFF19E0FFF7B9
:1057400099FF16E0FFF770FF13E0FFF74BFF10E043
:10575000FFF719FF0DE0FFF7E2FE0AE0FFF75AFE40
:1057600007E0FFF7EFFD04E0FFF7ADFD01E0FFF715
:10577000A9FDE571E079002801D0FFF78DFB70BD30
:105780001E49304A087A4000135C4B7280184078FA
:105790008873704730B5194D00236B706420E88220
:1057A000FFF708FC28480370AB70284901200870F7
:1057B000AB710020224A1E4C697AFF2311542354F6
:1057C000401CC0B23628F9D330BD30B50B4D002394
:1057D0006878012800D0AB7001246C70FF2019306C
:1057E000E882FFF7E7FB1848047018480470AB71B3
:1057F00000200F49124C2BE0008C00001C020020FE
:10580000FC8F000010DA000032110020F68F00003B
:10581000241000205A1000209010002097D600007D
:10582000F78F0000CF010020D7D8000046DA000033
:10583000C6100020FB8F00003E8B00003F8B000055
:10584000FC10002089D600001A0200201902002056
:105850006A7A0B542254401CC0B23628F9D330BDAA
:10586000F0B5784B042058706420D882FFF7A2FB73
:105870007549002008709870744A01211170987160
:10588000734D744C744A754E754F5B7A295C215484
:105890001354715C3954401CC0B23628F6D380E5ED
:1058A000F0B5684E08207070A020F082FFF782FBF0
:1058B0006549002008703074644A01211170B0718C
:1058C000684F11E06849634A095C1154674D430011
:1058D000EA5C634CA1545B195B78E1545E4C717ACD
:1058E000A154E154401CC0B239788842EAD358E54B
:1058F00030B5544B062058704B20C000D882FFF7BB
:1059000059FB5149002008709870504A01211170CC
:1059100099715049A2390880554C2078554A504910
:1059200015780D543520205C12780A5400204A4A1C
:10593000597A1154401CC0B23628FAD330BDF0B5A4
:10594000404B072058703220D882FFF733FB3E4986
:105950000020087098703D49087098710021444DEE
:10596000454E685C4A003B4B4400B25AA23B1A5376
:10597000424B1B789A4207D3414B00221A54414BA9
:105980001A54414B1A540CE05300D2183F4F3C4B71
:10599000BC5C1C54D2193B4B54781C5493783A4A43
:1059A0001354491CC9B23629DBD30021354B3520AD
:1059B000421A2F48805C304A4C00125D254C363C20
:1059C00022542F4C1E5C255CAE192F4D2F5CFE42DD
:1059D00012D12A4E3678B24204D3002222541A54ED
:1059E0002A5409E056009219284EB75C27549219A0
:1059F00054781C5492782A54491CC9B23629D6D3FB
:105A00000020174AFF211154401CC0B23628FAD397
:105A1000C7E40C49888A401E0004000C888203D128
:105A2000488A888201200870704706490879401C1E
:105A3000C0B20871042803D9002008710120487100
:105A4000704700001C0200201A02002019020020EA
:105A500037D90000D4110020FC100020D7D8000056
:105A6000C6100020FA8F00007CDA000046DA000041
:105A700010DA00003E8B0000B6DA0000F68F00005E
:105A8000241000205A1000209010002097D600000B
:105A9000314902228A600861886840221043886088
:105AA0004868C007FCD1704730B52B4C63680425AB
:105AB000AB4363600123A360206100BF00E000BF2F
:105AC0006068C007FBD10CE0107853781B020343D9
:105AD000907800041843D3781B060343E360121D3B
