:020000040000FA
:10000000B0190020516D0000556D00005907000027
:1000100000000000000000000000000000000000E0
:10002000000000000000000000000000596D00000A
:1000300000000000000000005B6D00008968000007
:100040005F6D0000B90A0000000000000000000021
:100050000000000000000000F94600000000000061
:1000600000000000000000005F6D000000000000C4
:100070005F6D00005F6D00005F6D00005F6D000050
:10008000C367000000000000000000000000000046
:100090000000000000000000000000000000000060
:1000A0005F6D00005D6900005F6D000000000000F2
:1000B00093090000BB0900005F6D00005F6D000048
:1000C00000F002F800F032F80CA030C8083824180C
:1000D0002D18A246671EAB4654465D46AC4201D180
:1000E00000F024F87E460F3E0FCCB6460126334280
:1000F00000D0FB1AA246AB46334318478CD700000A
:10010000ACD700000023002400250026103A01D3BC
:1001100078C1FBD8520700D330C100D50B607047BF
:100120001FB506F0ABFE1FBD10B510BD07F028FAD5
:100130001146FFF7F5FF00F09BFA06F057FF03B4F6
:10014000FFF7F2FF03BC07F03BFA00000148016033
:1001500001480047240006400103FF1F30B40C494A
:100160000C684A6823681068C0181060241D121DAE
:100170008C4207D28A4208D20C604A6030BC4000F0
:10018000400870470C00DC3CF6E70A00DC3AF3E775
:1001900044170020F8B503F02BFFF7480178002939
:1001A0006DD000240470F549F54A0868002804D091
:1001B000401E0860002800D11470F2490868002829
:1001C0005DD0F14D2878002801D001230B60EF4B62
:1001D00012781B781A4301D0002802D00868401E0C
:1001E0000860086800284AD104F03EFD06F0E3FAF2
:1001F00006F031FBE648016880229143016003F07C
:1002000079FA03F0B2FAE348416A402211434162AD
:10021000E1480168E14A4908490011430160E048AA
:1002200004610DF06BF8DF480078002801D100F080
:10023000D8FB2878002801D000F0F1FBDA4E3069B5
:100240000921C906884330610A2006F03CFBD74FDC
:1002500000F09FFC34610220386030BF3C60287899
:100260000028F5D100F022FC06F006FB06F094FB16
:1002700006F0CFFA03F0AEF906F0AAFA2C70F8BD3A
:1002800070B5BD48CA4D01780024002905D004701E
:100290002888002801D0401E288003F04CFEC54865
:1002A000006980072DD5288800282AD1C82006F0AB
:1002B00010FB04F0C8FC06F07EFA06F0CCFAB44855
:1002C000016880229143016003F014FA03F04DFAB3
:1002D000B1480168B14A4908490011430160B0487A
:1002E00004610DF00BF804F0BFFC00F060FC06F0B8
:1002F000C3FA06F051FB06F08CFA03F06BF906F036
:1003000067FAAD4D2878012806D10822AB4900F0E4
:100310004FFA002800D12C70A94D2878012807D168
:100320001022A849022000F043FA002800D12C70C6
:10033000A54D2878012816D0A44D287801281BD077
:10034000A34D2878012820D0A24D2878002809D074
:10035000A149052008700422022000F029FA002893
:1003600000D12C7070BD03229C49022000F020FABD
:100370000028F7D12C7070BD02229949104600F078
:1003800017FA0028F7D12C7070BD0522954902207C
:1003900000F00EFA0028F7D12C7092488470C470D7
:1003A000047170BDF8B59048417800297ED00024D2
:1003B00044708E498E4E0888002818D0401E80B2A6
:1003C0000880002813D13078002802D0012803D0FB
:1003D0000DE004F018F80AE004F016F885480078FB
:1003E000002802D004F0ABF801E004F0D8F882490C
:1003F0000878401CC0B20870322830D30C705E48B8
:10040000012505707D49087800280AD0401EC0B239
:100410000870002805D17A480078002801D1794871
:10042000047079490878002819D0401EC0B20870BD
:10043000002814D1754F3878C043820774480FD113
:100440000278002A0CD00CF0CFFE724804703C7089
:100450003078012803D104F002F96F48047004E1F8
:100460006E4A1378DB439B070FD10378002B0CD027
:1004700014700CF02BFF6A480178012903D0057035
:100480000CF0EFFEF1E00470FAE7664A1378DB4304
:100490009B0711D10378002B0ED014700CF016FFBF
:1004A00061480178012905D0057000E0DFE00CF01B
:1004B000D8FEDAE00470F8E75C4A1378DB439B0768
:1004C00015D10378002B12D014700CF0FFFE2F48CA
:1004D0000178002905D004700CF0C3FE03F0FFFF83
:1004E000C3E005700CF0BDFE03F0C9FFBDE0504A4B
:1004F0001278D24392070CD10278002A09D04D48D5
:100500000178012903D005700CF0E0FEADE0047025
:10051000FAE7494A1378DB439B070DD1007800289E
:100520000AD014700CF0D2FE44480178002901D0A2
:1005300004709AE0057098E0414A1078D92806D0F6
:10054000F1287FD0F2287ED0F3287CD08DE0CD201A
:1005500010701D490D70214830224270847030782F
:10056000002802D003F044FD7FE00C7003221B49F9
:10057000022000F01DF978E0AA010020A00100206F
:10058000850100209C010020870100205D010020E2
:1005900000E0054000A00440000001400000FA5ABD
:1005A00000E000E08401002000C00540402003403E
:1005B0008E0100205C020020FF0000204901002085
:1005C000020100200803002000010020010100209A
:1005D000030100208201002090010020240100205E
:1005E000200100203C01002000000020A401002088
:1005F000A80100200A010020A90100200F0100200D
:1006000081010020DB010020F90000200B01002007
:10061000F20000208601002080010020110100204E
:10062000100100200C0100200E0100200D0100200F
:100630001201002013010020140100205E0100209F
:10064000F0000020FFE7307801280ED1464A1078EC
:1006500000280AD0401E1070032008704348512122
:100660000170892141704248057001F0E0F9F8BD40
:1006700006F0C9FB06F082FB3E491F2008603E4E93
:10068000306A01252843306200F033F93B4C0020EA
:10069000A070EF03F8893A49884200D1A57006F0AE
:1006A000B8F806F0E9F805F043FA01F0ABF906F006
:1006B0009BF9B87A33490870334D2878012801D165
:1006C00000F05EF9A078002804D009F016FF0020A1
:1006D000287001E009F0DEFE06F05EF92B48B061FB
:1006E0002B4E2C4FFE60FFF75DFE2B48A178007863
:1006F000084301D002F082FE0CF07CFB2878002831
:1007000004D00128EED1FFF745FDEBE7FFF7B8FD78
:10071000E8E770B50CF04CFD03F0D4FF174E3078CD
:10072000401CC0B23070042815D30CF0BCFD00246E
:100730003470012575700CF0C2FD18490878002846
:1007400009D0401EC0B20870002804D114480570BA
:1007500014484470847070BDBFF34F8F1349124822
:10076000C860BFF34F8FFEE77F010020900100209B
:10077000820100200020044000000640000000200C
:10078000AAAA000086010020A801002002C00000E3
:10079000AA55FA5A00000140AD0100205F01002077
:1007A00000010020240100200400FA0500ED00E013
:1007B000F8B506460D4617464248B10008180268CB
:1007C000002A01DB0220F8BD002E03D0042E01D840
:1007D000402F01D90420F8BD0068400F042801D043
:1007E0000120F8BD3848805D002804D0304600F074
:1007F0004CF90320F8BD354808180068B84201D20A
:100800000520F8BD701E3249800008580090002471
:1008100014E0295D641C285D00020843641C295D06
:1008200009040143641C285D00060843641C01465A
:10083000009800F089FA0098001D0090BC42E8D3AF
:10084000F9B2304600F01EFA0020F8BD70B5234B17
:10085000204C1968228800251F4E481C002A0CD005
:10086000012A15D0022A1ED0032A05D1FF2925D23C
:10087000012109043160186070BDFF2904D2FF21F5
:1008800001313160186070BD1D600120208070BD95
:10089000FF2904D2FF2109043160186070BD1D607A
:1008A0000220208070BDFF2904D2FF21090231609F
:1008B000186070BD1D600320208070BD1D60258004
:1008C00070BD000018C00540B9000020480200209B
:1008D00038020020CC000020D4000020D0000020EE
:1008E000421E032A04D8FC4A800080188038C16761
:1008F000704770B500F0E8FD00F082FF06F083FA63
:1009000006F03CFAF54801681023194301604021C4
:100910000120FFF7E5FF80210220FFF7E1FFC02162
:100920000320FFF7DDFFE0210420FFF7D9FFEC48AB
:100930004021016080224260C0228260E022C260C9
:10094000E8480160436083600821C1600161E24CB6
:10095000E548483C2060022060611F25ED063220FA
:1009600005F0B7FF2561DC48610408384162DF49C2
:10097000C162012000F03EFA012000F02CFA70BDA7
:1009800010B5D549002048390861012000F02AFA45
:1009900010BD10B51C2000F02DFAD649D4480862CD
:1009A000D548016901229204114301611C2000F025
:1009B00019FAD2490120087010BD10B51D2000F0B1
:1009C00019FACF49CA480862CB480169012292044A
:1009D000114301611D2000F005FAC849012008708B
:1009E00010BD70B5C3480024C4604461C04D0562A9
:1009F0001F21C90181611C2000F0FCF91C2000F0BE
:100A0000EAF9BF48C460446105620121C9038161FC
:100A10001D2000F0EFF91D2000F0DDF970BD10B5CC
:100A2000B448002484611C2000F0DCF9B4488461DF
:100A30001D2000F0D7F910BD10B5AE480021C160EF
:100A40004161AB4901620921C90181611C2000F0AB
:100A5000D1F91C2000F0BFF910BD01209E49C00251
:100A600048398860704701209B4980024839886076
:100A70007047012098494002483988607047FF203C
:100A80009549013048398860704704280DD8924A4A
:100A90008100303A8918002804D18F4848384068CE
:100AA000C00102D4072040070860704710B506F067
:100AB000AAF900F0D7F910BD10B5874C483C626820
:100AC0000020C043A060002A08D0500F15D0002A93
:100AD00007DAFFF7EBFF00F0A1F93DE0FFF7E6FFD3
:100AE00010BD500002D500F0AEF935E0900033D5CE
:100AF000FFF7DCFF00F0ADF92EE01002C00E18D0B9
:100B0000100202D500F007FC26E0500202D500F0EA
:100B100046FC21E0900202D500F082FC1CE0D002ED
:100B2000800F19D00320C004A0600020FFF7ADFFA4
:100B300012E01005000F0FD0D00501D5FFF79FFF81
:100B4000900501D5FFF795FF500501D5FFF78BFF05
:100B5000100501D5FFF781FF206810BD002069490D
:100B6000401C8842FCD370471E20401E411CFCD113
:100B7000704700B5584A0620483A5061FFF7F4FF25
:100B800005205061FFF7EAFF506904218843506156
:100B900000BD5D480121C160C168C906FCD50221C4
:100BA00001615B4A59491160002101607047F8B545
:100BB000514C2169022081432161474E483E7068B3
:100BC00040001FD530690921C9068843306120697A
:100BD00000270006494D002803DA2F70FFF701FFB8
:100BE00002E02F70FFF7FDFE0A2005F06CFE0020EA
:100BF0003060FFF7CEFF3C4830607068400002D4A0
:100C0000FFF754FFF8BD43480227076030BFFFF7E6
:100C10004DFF2878002815D0002028703E49142068
:100C2000088021693D48884306D1206979048843BA
:100C30002061A068012808D07068400002D52069B2
:100C400038432061FFF732FFF8BDFFF792FFF8BD90
:100C500021494839CA6B012383409A43CA637047CC
:100C6000042805D81C498000303940180021016053
:100C70007047042805D81849800030394018090702
:100C800001607047042807D8134A8000303A801862
:100C9000052252078918016070470F4938314860B2
:100CA0000220C860C8688007FCD488681C490860B6
:100CB000704700B50A46402A34D2401E08498000D9
:100CC000085891084018FFF7E8FF9007C10E144834
:100CD0000068C840C0B200BD48C0054000E0054003
:100CE0003802002048020020100000B0044000003C
:100CF000FFFF000000A004405C020020B8000020BC
:100D0000008004400A280000000006400200FA5A51
:100D100000200640402003408E0100208000040097
:100D2000DC0000200020D6E700B510290AD2401EC2
:100D3000344A8000105889004018FFF7AEFF32484F
:100D40000068C8E70020C6E7304A50609160012083
:100D5000D060D068C007FCD1704730B50B46402B3F
:100D600015D2401E27498000085899084518284682
:100D7000FFF793FF244804689807C30EFF209840AC
:100D800084431146994021432846FFF7DDFF30BDDB
:100D9000102907D2401E1B4B8000185889004018AC
:100DA0001146D1E77047194A403A9063174802212B
:100DB000016001688907FCD4D06B15490860704751
:100DC000124A403A9063D1631048012101600168E2
:100DD000C907FCD17047C106C90E012088400D49E2
:100DE00008607047C106C90E01208840094980315A
:100DF00008607047C106C90E012088400649086096
:100E00007047000038020020DC00002080C0054050
:100E1000D800002000E100E080E200E010B50020F2
:100E2000F74AC0439060F7490120086100208860BC
:100E3000D060FFF72AFE01242046FFF711FF641C53
:100E4000042CF9D910BDEF48016902221143016158
:100E50007047EC480169042211430161E849D0065A
:100E600088607047E64801690922D2061143016192
:100E700001214906816070470120E14980068860B0
:100E8000704710B5DF4CA06801280CD1DE4A002065
:100E900000211154401C0428FBD92079012802D8D4
:100EA000A278002A03D00020FFF7EFFD10BDD74A3B
:100EB0001154FFF7CDFE2069012109040843206188
:100EC00000210846FFF7DEFE10BD10B5CD4CA0682E
:100ED000012814D12078812811D1207901280ED839
:100EE000CA49095C0020FFF76BFF20690121C90393
:100EF0000843206101210020FFF7C4FE10BD00203F
:100F0000FFF7C3FD10BDF8B5BF4DBE4E306980067A
:100F100007D5B078102101240027002805D001282A
:100F200019D00020FFF7B1FDF8BDB7603069084364
:100F300030610127EC553846FFF792FE7F1C042FE5
:100F4000F8D93069012109040843306100210846BD
:100F5000FFF798FEF8BDB460306988433061002423
:100F60002F55002C0CD02046FFF783FEA4480069C3
:100F7000611EC840C00703D000212046FFF782FE53
:100F8000641C022CECD9306901210904084330614A
:100F900000210846FFF776FEF8BD70B5994DA968A7
:100FA0000020FFF70DFFA868012806D10124204684
:100FB000FFF75FFE641C022CF9D9954800210160FF
:100FC0002869032189030843286101210020FFF7D4
:100FD00059FE70BD10B50020FFF757FD10BD10B5CC
:100FE000044618061204104309020843204310BDAA
:100FF000F8B5884F3C688348854EC0883168884280
:1010000000D23060306800281DD00025E378A27837
:1010100061782078FFF7E3FF0146A800FFF7D0FED4
:10102000241D6D1CEDB2102DF0D33068402815D36F
:1010300040210020FFF726FE3868403038603068D5
:1010400040383060F8BD00210846FFF71BFE6C48B1
:1010500081690122120711438161F8BD3068C1B274
:101060000020FFF70FFE00203060F8BDF8B5002427
:1010700000206449684BCA780D798F780C260146A8
:1010800071435E5CB24211D1C9184E78B5420DD1A0
:101090008E78B7420AD10C225043C01882885C482F
:1010A00002605C4889680160012402E0401C10284D
:1010B000E4D3002C08D0534908690122D20310431D
:1010C0000861FFF795FFF8BD0020FFF7DEFCF8BDD3
:1010D00010B54C4801692023994301610169402200
:1010E000114301618178002902D002691A4302612B
:1010F00001730169012212041143016100210846B4
:10110000FFF7C0FD10BD70B53E4D28784406640E53
:10111000000602D50020FFF7B8FC002C05D0022CF9
:101120000FD00020FFF7B1FC70BDA8780128FBD1DB
:1011300028693A490843286100210846FFF7A2FDC3
:1011400070BDA8780028FBD128794006400E411ECA
:101150000129F5D8A9680129F2D12B4A1154FFF7CA
:1011600094FC2869012109040843286100210846EC
:10117000FFF788FD70BD70B5224D28784406640ED7
:10118000000602D50020FFF780FC002C1AD0022CAC
:1011900017D1A878002814D128794006400E0022E3
:1011A000194BE10300281ED002280AD8AC68012C94
:1011B00007D11A5428690843286100210846FFF71F
:1011C00061FD70BDA8780128FBD128698021884382
:1011D000286128691149803908432861002108469F
:1011E000FFF750FD70BD28698006FBD51A7028698D
:1011F0000843286100210846FFF744FD70BD000048
:1012000000C005405C020020B9000020C80000209A
:10121000C4000020C0000020040000208001010064
:1012200070B5B84D28784406640EC00901D1FFF7A7
:101230002CFC0126F603002C15D0012C27D0022C03
:10124000DCD128794006400E0228D7D8AE49095C87
:101250000020FFF7B5FD28693043286102210020F6
:10126000FFF710FDCAE72869000604D50221002017
:10127000FFF7A6FD03E000210846FFF7A1FD28695E
:101280003043286102210020FFF7FCFCB6E7A86884
:101290000128B3D168790028B0D128790128ADD8C8
:1012A00000210846FFF78CFD2869304328610221A0
:1012B0000020FFF7E7FCA1E710B592484078030053
:1012C00006F0D2F90C070A250D25101316191C1F5C
:1012D0002225FFF7A5FF10BDFFF74DFF10BDFFF75B
:1012E00012FF10BDFFF7F4FE10BDFFF7BFFE10BDEB
:1012F000FFF770FE10BDFFF750FE10BDFFF703FEB5
:1013000010BDFFF7E2FD10BDFFF7BBFD10BD0020D3
:10131000FFF7BBFB10BD7CB533207C4CC004A06044
:101320000020FFF7A6FC6068400331D4754C2069AB
:101330000321C903884320610020FFF734FD744D69
:10134000286801900420FFF72EFD2868009001987E
:10135000C0B220700199090A61700199090CA1704D
:101360000199090EE170009921710099090A6171D2
:101370000099090CE18060210840002802D0202853
:1013800003D008E0FFF798FF7CBD00F007FA7CBDB2
:1013900001208004A0600020FFF777FB7CBD70B5C2
:1013A00001205A4E8005B0605A4DA87C022815D104
:1013B0000020A8746869584988420DD1A869574926
:1013C000884209D10024A0000021FFF7F9FC641C29
:1013D000402CF8D3FEF7BAFE0420A874494C2069CB
:1013E0004F4D40060CD52069402188432061207B69
:1013F000F0600020FFF749FB2069A8432061FDE66B
:10140000E088002808D02069C00305D4FFF7F0FD6C
:101410002069A8432061F1E60020FFF736FBEDE6E6
:10142000F8B501213948490581603A4DA87C384E0C
:10143000012819D0686D80050DD5686D09138843A2
:1014400068650020FFF7AFFC30682870686D0121E7
:101450004903084368652B4C2069000425D400210A
:101460000846FFF70FFC29E00024A0000746FFF71D
:101470009AFC306879194861641C102CF5D302205D
:10148000A87468692449884203D1A869234988421D
:10149000E1D02448012201781143017022480078EC
:1014A0000428D8D102F0C4FAD5E718484168C90128
:1014B00004D481690122D20611438161206901218E
:1014C000C90388432061F8BD00200F4A0021115450
:1014D000401C0528FBD30020144A1154401C04284A
:1014E000FBD30848017041708170C1700171417176
:1014F000C1808160017301690122520411430161BD
:10150000704700005C020020B900002000C00540C8
:10151000D800002070020020AA42895AFF7162CCD4
:1015200000000100E400002060010020C80000204D
:1015300010B5B84A107821281BD1B749486D01234E
:101540001B03184348651079012812D890780028A9
:1015500004D14B6D0324A402A3434B654874106966
:10156000012109040843106100210846FFF78AFBA6
:1015700010BD0020FFF789FA10BD10B5A54801780D
:10158000212914D101690122120411430161A249E8
:101590004A6D0123DB021A434A650279012A06D803
:1015A000C078087400210846FFF76CFB10BD0020CE
:1015B000FFF76BFA10BD10B5974901208874002120
:1015C0000846FFF75FFB10BD10B592480169012284
:1015D0001204114301619048416DD21111434165DC
:1015E00000210846FFF74EFB10BD10B58948017871
:1015F000212907D10179002904D1C078022805D01A
:10160000032806D00020FFF740FA10BDFFF7DCFFEB
:1016100010BDFFF7D0FF10BD10B57E4C2078A1287B
:1016200016D17D48416DC90401D40121417421794D
:1016300001290DD8417C0020FFF7C2FB2069012160
:10164000C9030843206101210020FFF71BFB10BDE7
:101650000020FFF71AFA10BD10B56E480178A129D5
:1016600008D16D494A6D0123DB021A434A650279AC
:10167000002A03D00020FFF708FA10BD0A7C674952
:101680000A6001690122D203114301610121002096
:10169000FFF7F8FA10BD10B56149002008605D48F9
:1016A00001690122D2031143016105210020FFF7E6
:1016B000E9FA10BDF8B55B4E02213078084330706E
:1016C0000024554DA0004119496900910099FFF788
:1016D00077FB641CE4B2102CF4D34E48016901225C
:1016E000D2031143016140210020FFF7CBFA687D4E
:1016F000AB2806D13078FD21084030704A490420DB
:101700000870F8BD10B5444801780020FFF758FB79
:10171000404801690122D2031143016101210020E7
:10172000FFF7B0FA10BD10B53D49002008603948F8
:1017300001690122D2031143016108210020FFF752
:10174000A1FA10BD10B533480178A1291FD18168D5
:1017500001291CD10179C078002902D0012910D0BB
:1017600015E0012804D0022805D0032806D00EE099
:10177000FFF7D9FF10BDFFF7C5FF10BDFFF79AFFB8
:1017800010BD2549497C012901D1012803D0002041
:10179000FFF77BF910BDFFF77EFF10BD10B51D48A8
:1017A0004078030005F060FF0C19070A0D1919199C
:1017B000191910131619FFF7C5FF10BDFFF74CFFDD
:1017C00010BDFFF729FF10BDFFF70FFF10BDFFF79A
:1017D000D4FE10BDFFF7ACFE10BD0020FFF755F999
:1017E00010BD10B50E49002008600A4801690122A9
:1017F000D2031143016105210020FFF743FA10BD18
:1018000005487D21017401214174002181744165E5
:10181000704700005C02002070020020E000002001
:10182000C4000020E400002060010020F0B591B069
:101830000020534A534B544D0024410054525C52F3
:101840006C52401C80B27E28F7D3012005F06FF85F
:1018500004F0B1FF002507273F0301AE0020AA01D5
:1018600081008B18DB191B687350401C80B2102854
:10187000F6D30120C003101801AA102104F02EF99C
:101880006D1CADB2162DE9D341494048C860002017
:1018900081007450401C80B21028F9D301AA102195
:1018A0003C4804F01BF9432001AA1021400204F037
:1018B00015F9384801AA1021D03004F00FF987201B
:1018C00001AA1021000204F009F904F06DFF11B023
:1018D000F0BDF8B58C4600242949002665004E531A
:1018E000284F7E53284F7E53641CA4B27E2CF5D320
:1018F0000021294C455C6554491C89B24029F9D323
:10190000002105E065466D5C8E18A555491C89B21D
:101910009942F7D3204A402104F0B0F8012800D1C1
:10192000FEE7F8BDF8B58646944600241448154FE6
:10193000154A0026650046537E535653641CA4B2D4
:101940007E2CF7D30020144A03E00C5C1454401C96
:1019500080B29842F9D37046604404460E4A402152
:1019600004F08CF8012809D00B4A20464030403260
:10197000402104F083F8012801D1FEE7FEE7F8BD1D
:101980005E0900205A0A0020560B0020AA55FA5A78
:101990000000014080850000AA110020F8B5142045
:1019A000FA4EFB4D0127401EC0B200243168890663
:1019B00000D501243168C90601D502210C43A97C58
:1019C000A14204D0022004F0B2FFAC74142000281D
:1019D000E9D1A87CEF4AC3070021002B05D017707E
:1019E000FF22ED4B91321A6000E01170AF70820758
:1019F00000D5A970AA78002A02D0E54A203A91734E
:101A0000E874F8BDE24900204131487003202539CF
:101A100008700220091F0870E04901200870DC49A5
:101A2000062034310870DE4905200870B6E770B52D
:101A30000021D648026801239206002A00DA01211B
:101A40000068C00601D502200143D148827C8A4249
:101A500003D00A220275817470BD017D0029FBD07C
:101A6000491EC9B201750029F6D1C47C11466140F6
:101A70000029F1D0C274CE070024C64D002E19D023
:101A8000D0070DD02B700BF0ECFB02F0BDFCFEF785
:101A900077FFC4480470FF20BF499130086070BDD3
:101AA000C14804702C700BF0DCFB02F0ACFCFEF7BC
:101AB00020FF70BD8907FCD58370910700D5847025
:101AC00029780129F5D18078002802D002F037FD6D
:101AD00070BD02F064FD70BD704770B50024002039
:101AE000AB4D4135295C0C43401CC0B20828F9D3EA
:101AF000A74A0123203A0021002C06D0D3750020EC
:101B00002954401CC0B20828FAD300240120A34D58
:101B10002E5C3443401CC0B21028F9D3002C06D0F0
:101B2000937601202954401CC0B21028FAD3002417
:101B30000120974D1C352E5C3443401CC0B2032855
:101B4000F9D3002C06D0137601202954401CC0B2D2
:101B50000328FAD38E4818304478002C01D05376ED
:101B60004170002401208A4D34352E5C3443401CE2
:101B7000C0B20528F9D3002C06D0D3760120295411
:101B8000401CC0B20528FAD3517270BDF0B5804B2D
:101B9000203B187A1C4601464207E57AA039520FCD
:101BA0000124072914D8DC75184661300078012D0E
:101BB00007D07E496133895CFF225140084018708C
:101BC000F0BD7A4B72499A5C413110430870F0BD08
:101BD0000146B0390E461F2912D81C766C490322E3
:101BE0001C31012D04D00A70002048708870F0BDAF
:101BF0006F4B7000185A0A704870000A8870F0BD68
:101C00000146A839022918D85C76614A674C183217
:101C100010463838007A022320185178C038012D38
:101C200006D01370007EFF23584001405170F0BD74
:101C30001370007E01435170F0BD554B203B1E4692
:101C4000597A61361B7A7718DE08544BF318012D48
:101C500013D0002950D04E4DBE78203D6D7A6D1EB8
:101C6000AE46EDB2AC46864229D10021484DB9704E
:101C7000203DEC75614669723EE0454D203D0529E9
:101C800012D200290BD000222B46613305E09E18AA
:101C9000B6788642D0D0521C92B28A42F7D3B8703E
:101CA000491C6972EC75F0BD7828FCD2AC763B48D3
:101CB00004703E495878895C08435870F0BD00268E
:101CC000334F413716E0BD19AD78854210D1304908
:101CD000203904E0B819C2788270761CB6B2764515
:101CE000F8DB0020BA199070CC7560464872F0BDE0
:101CF000761CB6B28E42E6D3254920397828F6D232
:101D00008C762648047029495878895CFF22514016
:101D100008405870F0BDF8B51D4C207C00286DD0EF
:101D200027464C373868401C38607968884265D34C
:101D300000253D6020462C3026460088203E316D2F
:101D4000800040184168090109097960C278694634
:101D50000A70807848700021D30900D001217023D7
:101D60001A406B461A700A4B3433102A04D0202ACA
:101D700023D0302A23D030E00122F276044A3432D4
:101D80005278002916D002435A7026E000A0044081
:101D900008010020A80100209C0100200803002069
:101DA000900100208001002085010020BC7B000004
:101DB0007C7B000082435A700FE018710DE0307296
:101DC0000246E03A072A01D840383072F5720029FD
:101DD00001D00120F072FFF7D9FEF9490888801C74
:101DE00080B208804A88904208D3A07B002802D0A5
:101DF000012804D010E02574FFF76FFEF8BDF04A0B
:101E0000123A1078401CC0B210705278904203D33E
:101E10002574FFF762FEF8BD607BEA4A80008018F7
:101E2000006CE84A403280183D600A227A600D80DA
:101E3000028808304A803065F8BD10B5E048E24AB3
:101E40004C38837F0021002B04D08177037F012B46
:101E50000CD00CE0017701238377DC48018000205F
:101E60001154401CC0B24028FAD310BD0177017F45
:101E70001170407F00280DD0012812D0022818D000
:101E80000328F2D1872040230022CF490002FFF728
:101E900020FD10BD40230022CB49CD48FFF719FD9E
:101EA00010BD432040230022C7494002FFF711FD27
:101EB00010BDC74840230022C349D030FFF709FDB9
:101EC00010BDF8B5BE4A00244C3A917F1046C07A46
:101ED000002914D0917A002911D1137AAF2B05D0A3
:101EE000117F402903D31472FFF7A7FFF8BDB64D49
:101EF0006B54491CC9B26854491C11771472117A89
:101F00000125F02964D0F7297ED0D12972D0AC4EBA
:101F10002C3EEE296FD017463246203A937CAD4ACC
:101F2000D32912780092AC4A76D0E62975D0AB4B13
:101F30008D291B7872D08E2971D08F2970D090296D
:101F40006FD091296ED092296DD0EF296CD0A44B1F
:101F5000A44F1B78DA299C463B7870D0DB296FD0E0
:101F60003746203FD0296CD0D8296BD0E7296AD0DA
:101F7000E12969D013461B78D62977D0D72976D0A6
:101F8000994AD429127873D0D52972D0E92971D011
:101F9000EA2970D0EB296FD0EC296ED03A46127B3B
:101FA0003A296BD03B296AD03C2969D03D299DD183
:101FB00000289BD0872000020078002896D0002AB5
:101FC00094D17C703D73032078773C723C77F8BDE8
:101FD00014720028FBD08549087800280CD001280D
:101FE000F5D10C700BF03DF902F00DFAFEF781FC13
:101FF000F8BD09E01BE02AE00D700BF032F902F0A9
:1020000003FAFEF7BDFCF3E714720128F0D1D07B90
:1020100000280AD0D473EBE733E061E06AE085E0A2
:10202000A3E008E139E15BE17DE1D573E0E71472FB
:102030000128DDD1907B012807D09573D8E780E196
:102040008FE19CE11AE224E229E29473D0E7147252
:102050000028CDD066490878401CC0B2087003281B
:1020600000D30C7008F0DEFA7570C1E722E22CE2B2
:1020700036E242E24EE254E25AE261E268E275E29E
:1020800083E239460028B3D00C72002B01D08C7447
:10209000AEE758480178002905D00470FFF7C6FB69
:1020A00008F0F8F9A4E700980028A1D10120C003A6
:1020B00003794D490B704079107008F0A1F94E4832
:1020C000057046490878401CC0B20870132800D338
:1020D0000C700AF094FD0AF09CFD0BF0C2F887E743
:1020E0003C72002884D05B1CD8B2B87404288AD90A
:1020F000BC747DE73C72002885D03849022B8AD019
:102100000220087007200003037937490B704079DB
:10211000107008F075F938480570384804700AF0F6
:102120006EFD0AF076FD0BF09CF861E73C7200282A
:1021300084D02A48052B15D0052101700720000303
:10214000037929490B704079107008F059F92A4831
:1021500005702A4804700AF052FD0AF05AFD0BF08F
:1021600080F845E706210170E8E73C7200288FD02F
:102170001A48002B44D00C2B45D0082B46D0092BF5
:1021800047D00D2B48D00E2B49D00F2B4AD00A2B0D
:102190004BD00B2B4CD0047007200003037912495D
:1021A0000B704079107008F02BF913480570134834
:1021B00004700AF024FD0AF02CFD0BF052F817E72A
:1021C000340100208097000018030020DE01002069
:1021D00080850000D2010020C5010020B10100204F
:1021E000BB010020AC010020C3010020A801002099
:1021F000AE01002002000020B3010020C701002032
:102200000C210170C8E708210170C5E709210170A0
:10221000C2E70D210170BFE70E210170BCE70F215D
:102220000170B9E70A210170B6E70B210170B3E72D
:1022300007210170B0E73C72002892D0FE48012BC4
:102240001CD0032B1DD0112B1ED0122B1FD0102BF6
:1022500020D00570072000030379F8490B704079FE
:10226000107008F0CDF8F6480570F64804700AF0D2
:10227000C6FC0AF0CEFC0AF0F4FFB9E603210170B7
:10228000E8E711210170E5E712210170E2E7102172
:102290000170DFE704210170DCE73C7200288ED07A
:1022A000072000030379E5490B704079107008F0AE
:1022B000A7F8E3480570E049087802280AD0062804
:1022C0000BD0022008700AF09AFC0AF0A2FC0AF077
:1022D000C8FF8DE606200870F5E709200870F2E7D0
:1022E0003C720028C9D0072000030379D3490B7042
:1022F0004079107008F084F8D1480570CE4908780C
:102300000E280AD00B280BD00E2008700AF077FC9C
:102310000AF07FFC0AF0A5FF6AE60B200870F5E7DB
:102320000A200870F2E73C72C7490878401CC0B226
:102330000870082800D30C700AF012FF0AF091FF11
:1023400056E6C2490C72002897D0002B02D1604695
:10235000401C38703878401E38700AF05AFC75708E
:1023600046E6BA490C72002887D05B1CD8B2387098
:10237000604500D93C700AF04CFC757038E63C7240
:102380000028A6D0B24800781228A2D1B14801781E
:10239000002925D00470082B9BD3AF480178012970
:1023A0002AD0022930D0032937D004293ED0212059
:1023B0008002052943D0062947D0FF220132072990
:1023C00049D008294CD0092951D00029A4D1FF2295
:1023D00001207E238132A149C003FFF7A3FA07E65B
:1023E00005709F48048000209C4AFF211154401C26
:1023F000C0B27E28FAD3FBE5012252027E23974920
:102400009001FFF78FFAF3E5052201207E23D20128
:102410009249C003FFF786FAEAE5032201207E23F2
:1024200012028E49C003FFF77DFAE1E50722012081
:102430007E23D2018949C003FFF774FAD8E57E23D1
:1024400000228649FFF76EFAD2E57E238022834977
:10245000FFF768FACCE57E238049FFF763FAC7E50A
:1024600080227E237D491002FFF75CFAC0E501203F
:102470007E237A49C003FFF755FAB9E53C7200287C
:10248000ADD070480178002901D00470B0E5057026
:10249000AEE53C720028A2D03D733C77A8E53C72C3
:1024A00000289CD000996F48002901D004709FE556
:1024B00005709DE53C72002891D0052B8FD25B1CE6
:1024C00013705F480570757092E53C72002886D0E5
:1024D000012B84D95B1E137059480570757087E510
:1024E0003C72002887D05548052A84D2521C0270BD
:1024F00007F086FF0AF0B5FE7AE53C7200288BD023
:102500004E48012A88D9521E027007F079FF0AF05E
:10251000A8FE6DE53C72002887D07C77FFF78DFC24
:1025200066E53C72002889D07D77FFF786FC5FE581
:102530003C72002888D002207877FFF77EFC57E5B0
:102540003C72002886D003207877FFF776FC4FE5B1
:10255000002884D044480078002887D0002A85D1FC
:102560007C703D737C773C723C7741E5002884D0D9
:10257000432040020078002888D0002A86D17C7051
:102580003D737D773C723C7732E5002886D0364833
:10259000C030007C00288AD0002A88D17C703D732E
:1025A000022078773C723C7722E5F8B52749002471
:1025B0000B7A08461E26C07AD22B0DD02B4A0D4628
:1025C00020352B4F497C1278F12B16D0F22B68D096
:1025D000F32B7DD001200BE500280BD02548027895
:1025E000002A05D00470FFF721F907F053FF02E03D
:1025F0004E7400E04C740020FAE4012A4FD1002808
:1026000049D01D49012008700AF02BFE1B4901200A
:1026100008701F20E8710D4846741949032008709E
:1026200051203870812078701649012008701648B2
:102630000470164804702BE0B1010020C301002093
:10264000B3010020C7010020AF010020E8000020F6
:10265000AD010020C1010020C8010020E0040020DD
:10266000DE010020D201002080850000A8010020AA
:10267000900100200200002086010020DB010020E4
:102680007F010020820100208501002088010020B8
:10269000F748047003E0F748002900D04474002094
:1026A000A6E4012A23D100281DD0F348022101709D
:1026B0000AF0D7FDF148012101701F20E871ED48B3
:1026C0004674EF4A0320107051203870822000E0D9
:1026D0000FE07870EB480170EB480470EB48047031
:1026E000E348047003E0E348002900D0447400206C
:1026F0007EE4012A21D100281BD0DF48042101708B
:102700000AF0AFFDDD48012101701F20E871D948B2
:102710004674DB4A03201070512038708320787093
:10272000D8480170D8480470D8480470D048047064
:1027300003E0D048002900D04474002058E410B5CC
:102740000020CC49D24B097AD24A05E044001C5DF6
:102750008C4205D0401CC0B21488A042F6D3FF20A2
:1027600010BDF0B5C34DCC4EE87A2C46CB4F20348B
:10277000002854D0FFF7E3FFFF2817D0A1780029E5
:1027800015D0A97A00293DD0217A002934D0C44936
:102790004200511849782972B64AC1085932440793
:1027A000C048640F535C005D03435354F0BDA97AE5
:1027B000002916D0A17900290ED04100C919497805
:1027C0002972AC4AC10859324407B648640F535CB9
:1027D000005D03435354F0BD4100891949782972C3
:1027E000EFE7A179002903D04000385C2872F0BDE2
:1027F0004000305C2872F0BDAB4942005118497866
:102800002972C9E7217A002904D04100A448405C1C
:102810002872F0BD4100A448405C2872F0BDFFF76B
:102820008EFFFF28FAD0934AC1088C465932515C7A
:1028300043079C4A5B0FD25C114223D0A378002B44
:102840000DD0237A002B17D04300954818184078F4
:10285000287288485930914362468154F0BDA3796B
:10286000002B04D04000C01940782872F1E74000E6
:10287000801940782872ECE743008B48181840789C
:102880002872E6E7A178002907D0217A00290FD025
:1028900041008348405C2872F0BDA179002903D033
:1028A0004000385C2872F0BD4000305C2872F0BDFA
:1028B00041007D48405C2872F0BDF8B57B4800259A
:1028C00005806B4801787A48002902D07949016077
:1028D00002E0FF2191310160664E307A00285DD020
:1028E00034462034A17827464137002925D0A32833
:1028F00006D0A22807D0A72808D0A62809D00AE029
:10290000A220307207E0A320307204E0A6203072CB
:1029100001E0A7203072307A46280ED12120307293
:102920005448F17A61300078002903D00A21084325
:10293000387002E0F52108403870FFF712FF30468A
:10294000317A0126AE2921D09C292AD0E3293BD017
:102950000223AC2951D0584AE52967D0AD297DD052
:10296000E4297CD0AB297BD0E2297AD0E82979D040
:10297000DC2978D0DD2977D0E02976D0DF2975D021
:10298000E27A002A01D04C2971D06AE10572C17A3D
:10299000012903D1017C012901D006740FE40574DB
:1029A0000DE4464909780129F8D1C07A444C012840
:1029B00003D02570434805705FE401F020FE0A2033
:1029C00003F0B5FF267058E4C17A00290FD0817A50
:1029D0000029F1D0617931436171C9438907EBD195
:1029E000364909780129E7D11E21417445E461790E
:1029F00049084900617145743FE4C17A00290FD04C
:102A0000817A0029D8D0617919436171C943890756
:102A1000D2D12A4909780129CED11E2141742CE452
:102A20006179890889006171457426E4C17A0029B9
:102A30004AD00746807A0028BED0E0783043E07064
:102A4000C0438007B8D11078002804D01570FEF775
:102A5000EDFE07F01FFD1E2078740EE43AE057E00B
:102A60006BE07FE093E0A6E0BAE0CEE0E2E0F6E0E3
:102A700080010020E800002086010020DB0100200A
:102A80007F010020820100208501002088010020B4
:102A9000887A00003A7A0000EE7900003C7A000063
:102AA000207B0000BC7B0000D47A0000A60100203F
:102AB0009C0100207017000002000020A8010020E7
:102AC000DA0100208C010020E17849084900E1701A
:102AD000457421E4C17A002914D00746807A002881
:102AE000F7D0E0781843E070C0438007F1D1107848
:102AF000002804D01570FEF799FE07F0CBFC1E20CD
:102B0000787409E4E17889088900E170457403E488
:102B1000C17A00290BD0817A0029DAD0217931439A
:102B20002171C9438907D4D11E21417408E4217958
:102B3000490849002171457412E4C17A00290BD07B
:102B4000817A0029F8D0217919432171C943890775
:102B5000F2D11E21417403E4217989088900217191
:102B600045740BE4C17A00290BD0817A0029F8D092
:102B7000617A31436172C9438907F2D11E214174E0
:102B80002DE4617A490849006172457427E4C17AED
:102B900000290BD0817A0029F2D0617A1943617241
:102BA000C9438907ECD11E21417418E4607A80087A
:102BB0008000607213E4C17A00290BD0817A002969
:102BC000DED0A17A3143A172C9438907D8D11E2131
:102BD000417404E4A17A49084900A17245740AE4E9
:102BE000C17A00290BD0817A0029F8D0A17A194343
:102BF000A172C9438907F2D11E21417403E4A17A6D
:102C000089088900A172457406E4C17A00290BD0B5
:102C1000817A0029F8D0217B31432173C943890788
:102C2000F2D11E21417409E4217B49084900217336
:102C3000457403E4C17A00290BD0817A0029F2D0CF
:102C4000217B19432173C9438907ECD11E214174AB
:102C500005E4217B890889002173457406E4492134
:102C60000172817A002910D1037A4C2B05D1C27AE6
:102C7000002A01D0467500E04575492B05D1C27A7E
:102C8000002A01D0867500E08575827D437D1A4358
:102C90001CD1027A94464C2A0BD1C27C0B461343BA
:102CA00007D049210172002A01D0C5740EE0C67414
:102CB0000CE06246492A09D1027D114306D04C211D
:102CC0000172002A01D0057500E00675FC48007C01
:102CD000002802D0FEF701FF0EE4FFF766FC002893
:102CE000FAD0F748007AD92818D1F548C17A0129D5
:102CF00033D0417C002933D04574022003F017FE05
:102D00004C20B870EE484672C675EE480078002830
:102D100029D001F06DF9EA484C210172E848457468
:102D2000FFF7CFF8E648007A0028D5D0E44A917B37
:102D3000012903D0E4490978090605D5A328CBD099
:102D4000A728C9D06528C7D0F72308219D2811D00E
:102D50009E281CD09F2827D02DE00A21417404E42E
:102D6000CD210172DAE7D649082261310120FDF751
:102D70001FFDD0E715201072D07A002803D03878D4
:102D80000843387017E038781840387013E0D07A6C
:102D9000012805D03878184038702B2010720AE0CE
:102DA000387808433870F8E7D07A01281CD0387892
:102DB000184038701172107AF82808D3D37B002B92
:102DC00016D04007030FC1481818407810721046FB
:102DD000127AAF2A12D0F52A2BD0F62A72D0BC492B
:102DE000097812296FD010E1387808433870E1E78C
:102DF0004007030FB548C05C1072E8E701210646A2
:102E00000171B572F07A012810D06078002802D0E4
:102E10000AF027FA6570A0780028A0D00120F0758C
:102E2000FD71F17A00299AD0F87139E40120B0726D
:102E3000F1E7C27A012AF8D1A278002A4BD00446E1
:102E4000C675FE719F480078002826D001F0D0F8A2
:102E50000A2003F06CFDE6750020F871994D287882
:102E6000002821D001F0C4F80A2003F060FDE675C7
:102E7000FE71287800281ED001F0BAF80A2003F06D
:102E800056FDE6750020F871287800281CD001F066
:102E9000AFF80A2003F04BFD2AE48949082261318A
:102EA0000120FDF785FCD3E7854908226131012027
:102EB000FDF77EFCD8E78249082261310120FDF749
:102EC00077FCDBE731E09CE07D490822613101209D
:102ED000FDF76EFCDDE701220446C27539700B2058
:102EE000B870784E3078002811D001F081F80A20AF
:102EF00003F01DFD0120E0753D70BD7030780028A5
:102F00000CD001F075F80A2003F011FD16E46C49AD
:102F1000082261310120FDF74BFCE8E768490822EF
:102F200061310120FDF744FCEDE7C27A012AEDD1C1
:102F3000A278002A3CD06248C675BD70FE71614C13
:102F4000207800281FD001F053F80A2003F0EFFC8E
:102F50005B4E0121F1752C20B870F97120780028A2
:102F600018D001F045F80A2003F0E1FC0120F075CB
:102F7000BD70FD712078002813D001F039F80A20C7
:102F800003F0D5FC0AE54E49082261310120FDF726
:102F90000FFCDAE74A49082261310120FDF708FCFD
:102FA000E1E74749082261310120FDF701FCE6E72E
:102FB0004348C67539700620B870424C2078002806
:102FC00011D001F015F80A2003F0B1FC3C48C67599
:102FD0003D70BD70207800280CD001F009F80A205F
:102FE00003F0A5FCDAE43649082261310120FDF73F
:102FF000DFFBE8E73249082261310120FDF7D8FB09
:10300000EDE7344909780129BCD0807F0028B9D187
:10301000FEF7BCFDC2E470B50020294E7178491C52
:10302000C9B27170142938D300257570317B3446CC
:10303000203401290BD0707B00282ED0E07B401C6F
:10304000C0B2E073C1072DD0FEF747FD32E0717FBB
:10305000002906D0012906D0022907D0032908D06B
:1030600009E01D4807E04320400204E01A48D03040
:1030700001E087200002317F425C002A0ED0402907
:103080000CD2425C3272491CC9B23177405CF0729A
:10309000491C31772570FFF710FC70BD3573FEF7C2
:1030A0001CFD70BD0121F172316D4008085C307269
:1030B000FEF76CFDE07B0728F3D3757370BD00004D
:1030C000E8000020A8010020610100206C7B0000C6
:1030D000AD010020C101002080850000F8B5FF4946
:1030E0000120C877FE48CA7A0578C879FD4FFE49A5
:1030F0004000C3190978FD4C072D03D0FC4E082D64
:1031000028D072E03D5C5878EB001B191C5CF94834
:10311000002A14D00078F84A401E1055082902D021
:10312000FF2904D00FE0204607F04BFD0BE0F348E9
:103130000079012807D1204607F043FD03E001781C
:10314000ED48891E0155EC48015DED48415CED48B4
:10315000015523E4002A48D0385C5978715CEA4E66
:10316000325C0A433254E94A135C0B431354012086
:10317000174631182039CA7F335C1A43CA771121A8
:10318000091A3A468D18203D7B5CED7F2B437B541A
:10319000401CC0B21128ECD30025DB48475DDB485A
:1031A000405D07430026F80715D0FF21E80000190D
:1031B000805DD44A1154CC490978082902D0FF29EE
:1031C00003D008E007F0FDFC05E0CC4909790129AE
:1031D00001D107F0F6FC7F08761CF6B2062EE2D38A
:1031E0006D1CEDB2112DD8D306E4092D02D00F2DA0
:1031F00025D074E03D5C5878EB001B191C5C002A5C
:1032000003D0BD480021015512E0BB4A01201055F2
:10321000082902D0FF2904D00AE0204607F0D1FC9B
:1032200006E0B6480079012802D1204607F0C9FC23
:10323000B148015DB248415CB24801550DE4002A35
:103240004DD0385C5A78B25CAF4B1A54AF4E325402
:10325000AF4B1A54AF4B1A54082902D0FF2906D09D
:103260000EE0C0000019805C07F0ABFC08E0A34949
:103270000979012904D1C0000019805C07F0A1FC84
:103280000025A148A349475DA048495D405D07432B
:103290009F48405D084307430026F80715D0FF21EB
:1032A000E8000019805D974A11548F490978082970
:1032B00002D0FF2903D008E007F083FC05E08F4926
:1032C0000979012901D107F07CFC7F08761CF6B250
:1032D000062EE2D36D1CEDB2112DD2D311E4122DC6
:1032E00002D17E4E002A1FD0132DF7D1002AF5D02F
:1032F000385C854B3F221A5484490A540025824881
:10330000475D8248405D07430026F80740D0FF2113
:10331000E8000019805D7B4A115473490978082937
:103320002DD0FF292ED033E0B27A002A12D000220D
:10333000794D2D782A42D1D0385C5A78C0000019D6
:10334000805C764A082909D2135CFF2B04D0FF2148
:1033500011540DE00122EBE7115409E0115CFF2943
:103360000AD0491C1154115C082901D3FF211154C2
:103370006B490120087003E400211154F3E707F0C2
:1033800020FC05E05D490979012901D107F019FC0C
:103390007F08761CF6B2062EB7D36D1CEDB2112D48
:1033A000ADD307E470B54D4C5E4A6179206C89005D
:1033B00050500025A571A06CC00712D06079A1798A
:1033C000C0004018C0B2E071E572216CC90701D09D
:1033D0000121E1725449085C2072FFF77FFEFFF77C
:1033E0006CFA206C40082064A06C4008A064A079AE
:1033F000401CC0B2A0710628DDD35FE670B5374C23
:103400000025A078002829D0627946499000095803
:10341000206C4140A164002916D0E17802220029E5
:1034200008D0636C83420CD1491EC8B2E0700028FA
:1034300003D010E0E27060640DE06564FFF7B2FF56
:1034400009E0E270606406E0E570521CD0B2607181
:10345000102800D36571FFF7DEFDA5701F482030EE
:10346000417C002902D04574FEF755FC26E61B4836
:103470000121C1771A49097802290CD1C079194A6A
:103480004000115C80184078184AC9008918085C0F
:103490001C4AFF211154704730B5104B00249C7119
:1034A000204D98798000285818645C71186CC0070A
:1034B00006D058799979C0004018D871FFF7D7FF26
:1034C000186C400818645879401CC0B25871102814
:1034D000ECD39879401CC0B2987127E0E800002036
:1034E000AD0100206F7D0000AC0100206F7E000068
:1034F000BC7B00008F8A0000DC05002074010020E6
:103500000F8A0000460F00208B0400209C0400203E
:10351000AD040020BE040020C1010020E004002012
:10352000B2010020C8020020467900000628B8D366
:1035300030BDF8B5F94CA078002844D02046F84FAB
:10354000C18E3A78481CF74E002580B2012A02D07D
:10355000022A06D019E07D221201914215D2E0869E
:1035600013E02178002910D1A179226C8B00F25050
:10357000491CC9B2A171062907D3A571E0860428A8
:1035800003D901202070FFF787FF3878022802D185
:103590002078002816D0A079216C8200B1503178B3
:1035A000012909D131890904090E402904D1B18AC0
:1035B0004905490F022907D0401CC0B2A071062856
:1035C00000D3A571A57030E4FEF730F9D648056147
:1035D0004561FEE7D5484168FF22120291434160F0
:1035E000D3484168090A090241607047F0B5CF49E4
:1035F000CA484A1547790C15CD14D600CC483B0073
:1036000004F032F8150C12161A1E22282E34393EF8
:1036100043484D5257115C6064681100486AFF22AC
:10362000013210434862F0BD486A10434862F0BD61
:10363000486A20434862F0BD486A28434862F0BDAA
:10364000486A30434862F0BD486A01225203104381
:103650004862F0BD486A0122920310434862F0BDFF
:10366000486A0122D20310434862F0BD416A012238
:1036700011434162F0BD416A022211434162F0BD33
:10368000416A042211434162F0BD416A082211439C
:103690004162F0BD416A102211434162F0BD416AAE
:1036A000202211434162F0BD416A40221143416230
:1036B000F0BD416A802211434162F0BD416A11436D
:1036C0004162F0BD416A21434162F0BD416A294334
:1036D0004162F0BD416A31434162F0BD93480168E7
:1036E000FF2212029143016091480168090A090210
:1036F000016070478D484168FF221202114341600A
:103700008B484168FF2211434160704710B5002487
:10371000FFF7F0FFFFF7E2FFFFF768FF052003F078
:10372000F1F884480068000400D50124824801684B
:10373000090501D502210C430168490501D5042181
:103740000C430168890501D508210C430168C905AE
:1037500001D510210C430068000601D52020044348
:10376000204610BD70470020704770480168FF2256
:103770001202114301606E480168FF22114301608B
:103780007047F0B5694965484A1547790C15CD145D
:10379000D60067483B0003F067FF150C12161A1E8F
:1037A00022282E34393E43484D5257115C606468DC
:1037B00011004868FF22013210434860F0BD48689C
:1037C00010434860F0BD486820434860F0BD486839
:1037D00028434860F0BD486830434860F0BD486801
:1037E0000122520310434860F0BD48680122920351
:1037F00010434860F0BD48680122D203104348607E
:10380000F0BD4168012211434160F0BD41680222D0
:1038100011434160F0BD4168042211434160F0BD95
:103820004168082211434160F0BD416810221143F4
:103830004160F0BD4168202211434160F0BD416804
:10384000402211434160F0BD416880221143416034
:10385000F0BD416811434160F0BD416821434160C2
:10386000F0BD416829434160F0BD4168314341608A
:10387000F0BDFEB593200002C06B3049884201D0F4
:103880000120FEBD25492E48CA79805C8000019048
:103890002C4A01988018006C6B46C2B21A7003045F
:1038A0001D0E6B465D7003021E0E6B469E70000E71
:1038B000D8700290002A0BD00C46E07A0027203402
:1038C000130003F0D1FE08A8072349535C6A9CA8A3
:1038D0000120FEBD0122CA76104B5433012D02D0C7
:1038E000032D0FD097E0F206D20E69468A700B497D
:1038F00054314978002802D0114359708BE091432C
:10390000597088E0002800D01E7184E0034B6133B9
:103910001A78002818D02A431A7017E0E80000200F
:10392000AD010020C802002000C005400040044056
:10393000006004400080044000A004400000AA553C
:103940009E78000080900000AA431A700120C8757C
:103950000E72002E5FD0FEBD01220A762F494F70F5
:103960008F70002857D04D708E7054E001224A7637
:103970002A49091F4F7001284DD14D704BE0022D8F
:1039800009D1012807D1264A107026480522027065
:1039900047708670C7700F723DE0002828D0207CE9
:1039A000002807D0FEF799F8A07B022824D01B48F6
:1039B0003C3807726573A6731848801E0770029919
:1039C0004170E7731849A8004018144A006C3C3A4B
:1039D0001549403140180121217413466C331F6092
:1039E000596011464C310F80038808304B801065B8
:1039F0000A483C3807720EE027740020FEBD0028FC
:103A000008D0012048734F70084B019AD2180A65FC
:103A1000E073CF710F720020FEBD704724010020BB
:103A2000820100209001002080970000C0900000DB
:103A300010B5F7490878C20709D04008400008705F
:103A4000F44803F0EFFDF44988600320087010BDCE
:103A5000F0B5F0481438047D437DED4EEE4A3178E0
:103A60000027CD079078002D1ED0EA4D143D49085F
:103A700049003170042C01D1022B07D0FF20E875DA
:103A8000D7809770377097601770F0BD0121E97586
:103A9000916829760B0A6B760B0CAB76090EE976EA
:103AA000102108439070EBE78907EED5C006ECD5EE
:103AB000D780977037709760D7601770F0BD70B57A
:103AC000D6480178D44C14342170417861708178E3
:103AD000A170C178E170017A2171417A6171817AB6
:103AE000A171C07AE071CE4800210170E179012511
:103AF000012903D0E179022902D002E0057000E03B
:103B000005702178C748002914D02178802911D068
:103B10002178491E01706079C349087006F070FC75
:103B200009F077F8A079C1490870C148057006F01E
:103B30008EFD70BD13210170EDE738B5B64C002243
:103B40002271B3490878C30750D04008400008707C
:103B5000E2802069E16880004018AE4A102101F03F
:103B6000BDFF2069E268800010580090B148824291
:103B70000DD10178038805681B09ED0A2B43056800
:103B80000079AD0C2B43C00103430B43637000204D
:103B9000009B00991B04C9B21B0EC918009B1B0295
:103BA0001B0EC918009B1B0EC918A368C918A16079
:103BB0002169491C2161890051580091001DC0B242
:103BC0004028E5D3E078401EC0B2E07000280DD157
:103BD000032020709848824206D19849FF2008703F
:103BE000FFF76DFF0120207102F0DEFD38BDF0B55A
:103BF00087490878820731D5FD2210400870864C2D
:103C00000020E080E078864601281FD90021E06886
:103C1000844625696246A80010587E4AC7B2143A05
:103C20005218177503041E0E567503021B0E93756A
:103C3000000ED075BA19D2181018A2688018A060AA
:103C40006D1C2561091DC9B24029E2D37046401E92
:103C5000C0B2E070002801D103202070F0BD6E4B8F
:103C6000D860D9701A7070476A4A143A117F527F2F
:103C700012021143814206D9654900200870664945
:103C80008870012070470020704708B5002100911E
:103C9000172849D012DC132833D008DC052823D09C
:103CA000102823D0112823D012281BD127E0142854
:103CB0002FD015282FD0162814D133E0F0284AD061
:103CC0000ADC554A182891783BD019283ED0AB28F9
:103CD00031D0E02806D132E0F12840D0F22840D09F
:103CE000F32840D0002008BD012008BD012008BDF8
:103CF0006A460121524801F0F1FE012008BD012071
:103D000008BD46486A4601213C3001F0E7FE01202B
:103D100008BD012008BD6A4601214A4801F0DEFEC7
:103D2000012008BD012008BD6A460121464801F076
:103D3000D5FE012008BD02F03EFD012008BD012096
:103D400008BDBF2001409170012008BD4020014303
:103D50009170012008BD09F084FA012008BD0120FE
:103D600008BD012008BD012008BDF8B52949143956
:103D70000F7D487D0B7F497F09020B4324490025B5
:103D80000A78254CD607002E17D0224E143E520832
:103D900052000A70042F0BD1FFF777FF002807D0DD
:103DA0000120F075A07811210843A070E580F8BDCE
:103DB000FF20F075A570E580F8BD9207FCD5A278CC
:103DC000D606F9D5EF263240A270E580104AFD26CE
:103DD00012783240142876D00CDC11284ED004DC46
:103DE000052833D010280DD13CE0122852D01328DA
:103DF00008D15BE0152876D0162871D0172870D02E
:103E0000AB286FD0A5700D70A560A5602561F8BDC9
:103E1000E400002084020020600100208097000060
:103E2000C7010020B1010020C3010020C50100200E
:103E3000B30100208090000040930000AC010020FE
:103E40000F930000FCA30000BC9000000220FFF7CD
:103E50000BFF0028D9D15B1C99B201225048FFF713
:103E6000FEFED2E70A20FFF7FFFE0028CDD15B1C43
:103E700099B201224B48FFF7F2FEC6E70A700A200A
:103E8000FFF7F2FE0028C0D1022219464548FFF78D
:103E9000E6FEBAE71420FFF7E7FE0028B5D15B1C69
:103EA00099B201224048FFF7DAFEAEE70A7014200B
:103EB000FFF7DAFE0028A8D1022219463A48FFF798
:103EC000CEFEA2E7FFE73020FFF7CEFE00289CD110
:103ED0005B1C99B201223548FFF7C1FE95E702E06D
:103EE0000DE018E023E00A703120FFF7BDFE002846
:103EF0008BD1022219462D48FFF7B1FE85E701203C
:103F0000FFF7B2FE002880D15B1C99B2012228483D
:103F1000FFF7A5FE79E70A700120FFF7A5FE00284C
:103F20009FD1022219462248FFF799FE6DE70A70D9
:103F30000420207069E710B51E480078030003F0E4
:103F400093FB0504070A0D100600FFF70EFF10BDD6
:103F5000FFF74DFE10BDFFF7F0FD10BDFFF778FD38
:103F600010BDFFF765FD10BD10B5124BD888401C81
:103F700080B2D8807D21090188420FD900200E4AE5
:103F800000218400A4186161401CC0B21028F8D33D
:103F90000A48D9800170197002F006FC10BD0000BB
:103FA00000900000C090000040930000C097000007
:103FB000809000006001002070020020E4000020DA
:103FC000F74964200880F74900200870F64801216D
:103FD0004172E121C90041627047F2490020087036
:103FE000F14901200872FF20ED492D30088070470B
:103FF000F0B5EE48EC490678ED4B4D78ED4CEE4FC0
:1040000000220120002E29D0002D27D0E74D2A7054
:104010005D6A05435D620923CB71A12323800023E0
:10402000E64CE55C5B1CE34C5E00A553DBB2082B61
:10403000F6D3FB68DB06FCD43B68C02423433B601B
:104040003B681B069B0F032BFAD0DA4B1B88FB61E6
:104050008861CA614A70C8238B70D7E0D84E367821
:10406000002E29D0002D27D0D54D2A705D6A05433A
:104070005D621023CB71A22323800123D14C5E000B
:10408000E55CCC4CA5535B1CDBB2102BF6D3FB6874
:10409000DB06FCD43B68C02423433B603B681B0623
:1040A0009B0F032BFAD0C34B1B88FB618861CA614D
:1040B0004A70C8238B70A9E0C34E3678002E22D0F8
:1040C000002D20D0C04D2A705D6A05435D62032338
:1040D000CB71A3232380BD4D6E78A680AD7865801B
:1040E000FC68E406FCD43C68C0252C433C603C687A
:1040F0002406A40F032CFAD0FB618861CA614A70C0
:10410000C8238B7082E0B24E3678002E29D0002D65
:1041100027D0AF4D2A705D6A05435D620223CB71E3
:10412000A42323800123AB4C5E00E55CA14CA55386
:104130005B1CDBB2022BF6D3FB68DB06FCD43B68CE
:10414000C02423433B603B681B069B0F032BFAD024
:10415000984B1B88FB618861CA614A70C8238B70C9
:1041600054E09D4E3678002E24D0002D22D09A4D5A
:104170002A700225CD71A52525806280974E36785C
:10418000002E01D003266680FC68E406FCD43C685F
:10419000C02634433C603C682406A40F032CFAD0AC
:1041A000FD615C6A04435C628861CA614A70C8232D
:1041B0008B702BE08E79002E28D0002D26D08A71AE
:1041C0005D6A05435D620323CB71A6232380002330
:1041D000754C1434E55C5B1C764C5E00A553DBB279
:1041E000022BF5D3FB68DB06FCD43B68C0242343D9
:1041F0003B603B681B069B0F032BFAD06D4B1B8863
:10420000FB618861CA614A70C8238B700B78002BF0
:1042100014D0684B40331C885B88B12C02D1CD6927
:10422000022D05D0634D4035AE88B62C07D00DE089
:104230000A70CA6159076A48490F0170F0BD5A2BCC
:1042400004D1012E02D1CD69032D02D0B62C07D0A6
:104250000DE00A70CA6148738A73CA730874F0BDAE
:104260005A2B04D1022E02D1CD69032D02D0B62CD7
:1042700007D00DE00A70CA61C8734A738A73087464
:10428000F0BD5A2B04D1042E02D1CD69032D02D0EA
:10429000B62C07D00DE00A70CA6188734A73CA73DE
:1042A0000874F0BD5A2B04D1062E02D1CD69032D1E
:1042B00002D0B62C05D00BE00A70CA61FFF78DFE64
:1042C000F0BD5A2B04D1072E02D1CD69032D02D0A7
:1042D000B62C04D00AE00A70CA61C872F0BD5A2B2D
:1042E00004D10A2E02D1CD69032D03D03D4DB62C49
:1042F00007D00DE00A70CA610A72CA823A48027099
:10430000F0BD512B04D1772E02D1CF69032F02D0FB
:10431000B62C0BD011E0324802700A70CA70CA6124
:1043200032480270FFF74CFE2A70F0BD512B04D1C9
:10433000762E02D1CF69032F02D0B62C11D017E010
:104340000A70CA614A724A62284B1A7008714A712F
:10435000134B1A80134B1A7008732A702448086292
:10436000F0BD512B04D1782E02D1CF69032F02D09A
:10437000B62C08D00EE00A70CA61FF2091300862A6
:104380004A620A71F0BD512B04D1792E02D1CB695A
:10439000032B2FD0C8690328F4D3CA610A70F0BD7B
:1043A000DE010020C20100207C010020FF0000206F
:1043B000004004405803002000C001404901002093
:1043C0000201002008030020000100202401002039
:1043D00001010020200100205C010020F3000020EA
:1043E00070020020DB010020D3010020F900002032
:1043F000701700000A70CA61D94B1A70D94B1A8025
:1044000048712A70F0BD704770B5D748416A0123E2
:1044100019434162D54A0320D071D549A6200880AE
:104420005120154614352870907A012821D0022891
:1044300022D08320687000202C5C401C46008C53E6
:10444000C0B20228F8D3CB48C468E406FCD40468A0
:10445000C0252C43046004682406A40F032CFAD062
:104460000988C16193610020D0615070C8209070AC
:1044700070BD81206870DEE782206870DBE770B570
:10448000B948416A012319434162B84A0320D071F7
:10449000B749A6200880512015461435287065209C
:1044A000687000202C5C401C46008C53C0B202286F
:1044B000F8D3B048C468E406FCD40468C0252C4393
:1044C000046004682406A40F032CFAD00988C16193
:1044D00093610020D0615070C820907070BD70B59D
:1044E000A148416A012319434162A04A0320D071C7
:1044F0009F49A62008805120154614352870682051
:10450000687000202C5C401C46008C53C0B202280E
:10451000F8D39848C468E406FCD40468C0252C434A
:10452000046004682406A40F032CFAD00988C16132
:1045300093610020D0615070C820907070BD70B53C
:104540008948416A012319434162884A0320D07196
:104550008749A620088051201546143528707420FC
:10456000687000202C5C401C46008C53C0B20228AE
:10457000F8D38048C468E406FCD40468C0252C4302
:10458000046004682406A40F032CFAD00988C161D2
:1045900093610020D0615070C820907070BD70B5DC
:1045A0007148416A012319434162704A0320D07166
:1045B0006F49A620088051201546143528707520B3
:1045C000687000202C5C401C46008C53C0B202284E
:1045D000F8D36848C468E406FCD40468C0252C43BA
:1045E000046004682406A40F032CFAD00988C16172
:1045F00093610020D0615070C820907070BD70B57C
:104600005948416A012319434162584A0320D07135
:104610005749A6200880512015461435287061207E
:10462000687000202C5C401C46008C53C0B20228ED
:10463000F8D35048C468E406FCD40468C0252C4371
:10464000046004682406A40F032CFAD00988C16111
:1046500093610020D0615070C820907070BD70B51B
:104660004148416A012421434162404B0320D871F3
:104670003F4AA620108051201D4614352870702016
:1046800068700020295C401C46009153C0B202288B
:10469000F8D33848C168C906FCD40168C02529434D
:1046A000016001680906890F0329FAD01188C161E8
:1046B0009C610020D8615870C821997014215982DA
:1046C000587270BD29498878002814D0401EC0B2A5
:1046D00088704A7810430ED10120487022498A6AB6
:1046E00002438A62234801690822914301610169FA
:1046F000042211430161704770B51B4D28680123E6
:104700008007042419491B4A00280FDA5069400722
:104710000BD5D569C869461CCE61154E40004036A0
:1047200035520B7090692043906170BD506940070D
:10473000FBD5CE798869B04206D3A86A1843A8622F
:104740004B700020886105E0431C8B6108494000E4
:10475000085AD061D06990692043906170BD000013
:10476000D9010020DE010020004004407C0100202F
:104770005803002000C0014070B5FB4808250678AA
:10478000AA02FA48FA495400330002F06DFF120AF7
:104790000F161E262C32393F464E545B62697078E4
:1047A0007EB2416A29434162F24875E0416A402283
:1047B00011434162EF482A306EE0416A0122520201
:1047C00011434162EB48543066E0416A0122120312
:1047D00011434162E7487E305EE0486A1043486218
:1047E000E448A83058E0486A20434862E148D230A3
:1047F00052E0416A012211434162DE48FC304BE045
:10480000416A102211434162DB4845E0416A80223F
:1048100011434162D8482A303EE0416A01229202A7
:1048200011434162D448543036E0416A1143416239
:10483000D1487E3030E0D148416A29434162CE48B8
:10484000A83029E0416A022211434162CA48D230AD
:1048500022E0416A202211434162C748FC301BE03C
:10486000416AFF22013211434162C54814E0416AA6
:104870000122D20211434162C1482A300CE0416A50
:1048800021434162BE48543006E0486A0122D20307
:1048900010434862BA487E30BA4902880A624288A8
:1048A0004A6282888A62C288CA6202890A6342892D
:1048B0004A6382898A63C289CA63B249028A4031E3
:1048C0000A60428A4A60828A8A60C28ACA60028B0F
:1048D0000A61428B4A61828B8A61C28B0A62028CB6
:1048E0004A62428C8A62828CCA62C28C0A63008DE0
:1048F000486370BD00B59C4909780B0002F0B4FE16
:10490000120A0C0F1215181B1E202326292C2F32D9
:1049100034373A3C97482FE096482A302CE09548A7
:10492000543029E093487E3026E093487E3823E0D7
:104930009148543820E090482A381DE08E481BE00A
:104940008D482A3018E08C48543015E08A487E3073
:1049500012E08B487E380FE0894854380CE08848D4
:104960002A3809E0864807E085482A3004E0844870
:10497000543001E082487E308249028840310A602A
:1049800042884A6082888A60C288CA6002890A6155
:1049900042894A6182898A61C289CA61028A0A623D
:1049A000428A4A62828A8A62C28ACA62028B0A6325
:1049B000428B4A63828B8A63C28BCA637149008CC3
:1049C000086200BDF0B56B4A674814460078FC34B5
:1049D0000126274676036549FC37654D030002F042
:1049E00043FE120A1826354451606E7C8A99A6B59A
:1049F000D3E1F3F1F017002008244300D35A002B31
:104A000002D04B6A23434B62401CC0B21528F4D33A
:104A1000F0BD152040244300D35A002B02D04B6A2E
:104A200023434B62401CC0B22A28F4D3F0BD2A2095
:104A3000012464024300D35A002B02D04B6A234363
:104A40004B62401CC0B23F28F4D3F0BD3F2001248C
:104A500024034300D35A002B02D04B6A23434B62FA
:104A6000401CC0B25428F4D3F0BD54204100515A28
:104A7000002902D0696A31436962401CC0B26928CA
:104A8000F4D3F0BD692001239B034100515A002952
:104A900002D0696A19436962401CC0B27E28F4D30F
:104AA000F0BD002001224300E35A002B02D04B6AE4
:104AB00013434B62401CC0B21528F4D3F0BD15203F
:104AC00010234200A25A002A02D04A6A1A434A62BC
:104AD000401CC0B22A28F4D3F0BD2A208023420013
:104AE000A25A002A02D04A6A1A434A62401CC0B243
:104AF0003F28F4D3F0BD3F2001239B024200A25A7D
:104B0000002A02D04A6A1A434A62401CC0B25428A2
:104B1000F4D3F0BD54204200A25A002A02D04A6ABF
:104B200032434A62401CC0B26928F4D3F0BD692008
:104B3000124908234200A25A002A02D04A6A1A43A4
:104B40004A62401CC0B27E28F4D3F0BD002002238C
:104B50004200BA5A002A02D04A6A1A434A62401CEA
:104B6000C0B21528F4D3F0BDF80100200080044045
:104B7000006004405E090020840A002000A0044078
:104B8000AA0B002000200040152020234200BA5A22
:104B9000002A02D04A6A1A434A62401CC0B22A283C
:104BA000F4D3E0E72A20FF2301334200BA5A002A57
:104BB00002D04A6A1A434A62401CC0B23F28F4D36A
:104BC000D1E71FE00FE0FFE73F200123DB024200B7
:104BD000BA5A002A02D04A6A1A434A62401CC0B23A
:104BE0005428F4D3BFE7542001239B034200BA5A50
:104BF000002A02D04A6A1A434A62401CC0B269289D
:104C0000F4D3B0E769200122D2034100795A002988
:104C100002D0696A11436962401CC0B27E28F4D395
:104C2000A1E73B484268FF2109020A43426002684B
:104C30000A43026037484268FF210A434260026823
:104C40000A43026070473348016807225203114348
:104C5000016031480168314A114301603048016800
:104C600008221143016070472A4801680722520355
:104C70009143016028480168284AD24311400160ED
:104C800027480168082291430160704710B5254C00
:104C900000202060FFF72EFE2068022108432060DC
:104CA00020688007FCD4206801210843206001F0BF
:104CB0008FFD01F079FD10BD704770B5FFF7D4FF8F
:104CC00001F08BFD184C6078401CC0B2607000256C
:104CD0000A2810D31548017800290CD10121017050
:104CE000657001F0B8FDFEF775FCFEF70FFD104989
:104CF0000860FCF7F1FEFFF7C9FFFFF763FE2078BD
:104D0000401CC0B22070122800D3257070BD000076
:104D1000004004400060044000800440FB7F00002D
:104D200000A0044000200040F8010020EA0000201C
:104D30002801002010B50B22FD21E82001F03CFFE6
:104D400001220A21E82001F037FF10BD70B50B22C7
:104D5000FD21E82001F030FF10220121E82001F0C0
:104D60002BFFE4220D21E82001F026FF01220E2175
:104D7000E82001F021FFBF220F21E82001F01CFFF5
:104D800044221421E82001F017FF4C221521E820CD
:104D900001F012FF0D22FD21E82001F00DFF00209F
:104DA0007049714C0A5C2254401CC0B24028F9D3AF
:104DB000002240231146E82001F03FFF0022FD21A0
:104DC000E82001F0F9FE0022A0231146E82001F0BE
:104DD0000FFF0020634DAD1E2946423103E00A5CFF
:104DE0002254401CC0B22A789042F8D300222B787B
:104DF0001146E82001F021FF0122FD21E82001F009
:104E0000DBFE0022A0231146E82001F0F1FE002085
:104E10005449503103E00A5C2254401CC0B26A7805
:104E20009042F8D300226B781146E82001F005FF8C
:104E300070BD10B50B22FD21E82001F0BDFE00225F
:104E40000A21E82001F0B8FE10BD10B547484268BD
:104E500002210A43426041620A2001F068FDFFF727
:104E6000E8FFFFF773FFFFF765FF10BDF8B5404C93
:104E7000207800280FD00122FD21E82001F09CFEBF
:104E80003E2380222021E82001F0D7FE0020207060
:104E900038490870F8BD00203549334B89788C4675
:104EA000334949788E4634490A782E4960310C5C82
:104EB0003249095D6546002D01D0314D695C75466A
:104EC000002D31D02D4D670036352D5D51436E00DC
:104ED000AD192C4EE419765D224F4E43F60A9637F3
:104EE0003F5DDE55274E1F4FAD19AE7896374E43C6
:104EF000F60AE4196778DE556D78A4784D43E90A1F
:104F00001955401CC0B23628CFD30022FD21E8201D
:104F100001F052FE802300222021E82001F08DFEC6
:104F2000134801210170F8BD144D5143A23D2D5D80
:104F30000C4F4D43EE0A6500651996377F5DDE55CF
:104F40000E4E084F363E365D96374E43F60AED1943
:104F50006F78DE55094E6C3E345D4C43E10AAC7807
:104F60001955CEE76ED30000AA150020006004405A
:104F7000120200201D0200202302002066100020E3
:104F80000F8A00004F8D0000FC48FB49827A895C43
:104F9000C172C28A4A431103090C8182418270475F
:104FA00000B5F64B0B205870FF209130D882FFF7E8
:104FB000EBFFF3490120087000219970F14A10704D
:104FC00099710020F04A1154401CC0B23628FAD31F
:104FD00000BD70B5E94C022060700F208001E082B6
:104FE000FFF7D2FFE64900200870A070E54908707D
:104FF000A071217CE54D4C000C19295D65196C7878
:10500000E34BE44EE44AAD78195434541554401C33
:10501000C0B23628F8D30020DB49FF220A54401CD6
:10502000C0B23628FAD370BD70B5D44B0220587088
:10503000C820D882FFF7A8FFD148002101709970DD
:10504000D0480170997119740020D04D4C000C1992
:10505000295D65196C78CE4BCE4ECF4AAD78195488
:1050600034541554401CC0B23628F8D30020C64A28
:10507000FF211154401CC0B23628FAD370BDF0B5E0
:10508000BE4B092058703C20D882FFF77DFFBC49F9
:105090000020087098709871BA490870002220E0CA
:1050A0000021BE4B5000C0188646BD48B74C835CFB
:1050B00058001818265C0019477880788446704696
:1050C000405CB84C45006353B14C2654B14C275456
:1050D000B14C65462554491CC9B20229EFD3521C74
:1050E000D2B2B14800788242DAD30020A64AFF212A
:1050F0001154401CC0B23628FAD3F0BDF0B59F4B16
:105100000A205870D882FFF73FFF9D4900200870A1
:1051100098709C490870987100219D4B9D4E9E4F40
:10512000A248405CA24A4C00125B9E4C4500625370
:10513000A04C2478A24204D300221A5432543A5488
:1051400009E05400914D1219AC5C1C54521954786A
:10515000345492783A54491CC9B23629E0D300201D
:105160008949FF220A54401CC0B23628FAD3F0BD48
:10517000F0B5824B052058701C20D882FFF704FF41
:105180007F48002606709E709E717E4806701E74D1
:105190000020844F7D4D8549095C874A125C921935
:1051A0004B00FA525300D218794BAC5C5C54521944
:1051B000784B54785C549378774A5354401CC0B26F
:1051C0003628E8D30020704AFF211154401CC0B299
:1051D0003628FAD3F0BD00B56848017A052903D90D
:1051E0000121C90349780172007A030002F03CFAF8
:1051F0000A060C0F1215080808080908FFF7B8FF7F
:1052000000BDFFF77BFF00BDFFF739FF00BDFFF7D3
:105210000BFF00BDFFF7DDFE00BDFFF7C1FE00BDC7
:1052200056486649027B895C417370470020564AA4
:1052300000211154401CC0B23628FAD3704730B553
:10524000FFF7F4FF4D4C0025E5700120C003817A83
:105250002172C17A6172017B2173407BA072207A36
:105260005749400040184078A073FFF7D9FFFFF777
:10527000B2FFE570E57330BD4048807900280AD060
:105280000020414A115C002901D0491E1154401CE4
:10529000C0B23628F6D37047C8E7F0B500213748CA
:1052A000404CC5783A4E4148405C002D12D0420037
:1052B000A35A002B1AD05B1EA3523E4B4200A25AA7
:1052C0001B789A4217D300223254324B1A54324B75
:1052D0001A541CE04300E25A521C92B2E252394F77
:1052E0003F88BA42E9D30022E252E6E7354B1B88F9
:1052F0005B1EA352E1E75300244FD218BB5C33542A
:10530000D219244B57781F549378234A1354491CBD
:10531000C9B23629C7D3F0BDF0B50023214F26E02E
:10532000002116481D4AC0788446580082189646C7
:105330006246012A48D03A5A002A50D0521E3A52A8
:105340007246525C3C5A65006419104D2E5D104D3A
:10535000AE540E4D64190F4D6678AE54A5780E4CC0
:10536000A554491CC9B20229E2D35B1CDBB20E482A
:1053700000788342D4D3F0BD7ED80000160200200E
:10538000140200201302002066100020C4D4000084
:10539000C40F0020FA0F002030100020DCD70000DE
:1053A0002ED80000D210002012D80000A6D700008E
:1053B0003AD70000668F000004D7000076D80000BE
:1053C000588F0000FE8F00003A5A521C92B23A5297
:1053D000FE4C2478A242B3D300223A52B0E7FB4AF3
:1053E0001278521E3A52ABE7F0B50021F848C47863
:1053F000F84803885B1EF848405C002C0CD0F74E40
:105400004500725B521C92B27253F24F3F88BA420F
:1054100009D30022725306E0F04E4200B55A002D27
:1054200010D06D1EB552ED4A4500525BEC4D2D7803
:10543000AA4209D3EB4D00222A54EB4D2A54EB4DDE
:105440002A540EE0B352EEE755005219E84DE54EEE
:10545000AF5C37545219E44D56782E549578E34A90
:105460001554491CC9B23629C5D300213520421A2A
:10547000D948805C002C0CD0D84D6C352A5C521C6D
:10548000D2B22A54D34E3688B24209D300222A54CB
:1054900006E0D24D6C352A5C002A17D0521E2A54E1
:1054A000D04DD14E2A5C375CD719D04A125CD74216
:1054B0001AD1CA4ACA4F6C32125C3F78BA4207D33B
:1054C00000222A543254C94D2A540DE02B54E7E7E8
:1054D0005700D219C64FBF5C2F54C54D521955788D
:1054E00035549578C14A1554491CC9B23629BDD3E3
:1054F00041E7F0B50021B648B84CC578B94EB6487A
:10550000405C002D18D04200A35A002B20D05B1E17
:10551000A3524200A25AB64F5300D218BB5C335478
:10552000D219B14B57781F549378B04A1354491C81
:10553000C9B23629E3D31EE74300E25A521C92B2A5
:10554000E252A74F3F78BA42E3D30022E252E0E7AB
:10555000A34B1B785B1EA352DBE7F0B500209F4EE8
:10556000A44FA2361FE0A4490978002909D0315C74
:10557000491CC9B231543A78914207D300213154C1
:1055800004E0315C002913D0491E3154325C9B4940
:105590009B4D895C4200AC5C9A4B1955521952786C
:1055A0009954401CC0B2984909788842DBD3E2E69E
:1055B0003978491E3154E9E770B58F488749037837
:1055C00035220888002B07D0401C80B2088036287E
:1055D00006D30020088003E000280DD0401E08807C
:1055E00008887D4B195C894C864D26786E54101ABC
:1055F000185C2178295470BD0A80F1E7F0B50020CD
:105600007D49764A0B787B4C7C4D7E4FA232002B35
:1056100009D0115C491CC9B211542678B14207D394
:105620000021115404E0115C002909D0491E1154D5
:10563000115C695C3954401CC0B23628E7D39AE645
:105640002178491E1154F3E770B56149087C401C6C
:10565000C0B20874624A1278904201D300200874E4
:105660000020097C624D4C000C19295D65196C788D
:105670005C4A5D4E5D4BAD78115434541D54401C52
:10568000C0B23628F8D370BD51498878401CC0B2EA
:1056900088705F4A1278904201D300208870002001
:1056A000584A89781154401CC0B23628FAD3704742
:1056B00010B500204649574A524C497AFF231154ED
:1056C0002354401CC0B23628F9D310BD70B5404CED
:1056D000E07B00283DD1607900230125002803D01C
:1056E0006371FFF7C9FDE571207800282CD0237085
:1056F0006078030001F0B8FF0C070A0D271019139A
:105700001C161F222527FFF7D3FF1CE0FFF7BCFF65
:1057100019E0FFF799FF16E0FFF770FF13E0FFF7BE
:105720004BFF10E0FFF719FF0DE0FFF7E2FE0AE084
:10573000FFF75AFE07E0FFF7EFFD04E0FFF7ADFDCE
:1057400001E0FFF7A9FDE571E079002801D0FFF73E
:105750008DFB70BD1E49304A087A4000135C4B72C5
:10576000801840788873704730B5194D00236B70EE
:105770006420E882FFF708FC28480370AB702849D2
:1057800001200870AB710020224A1E4C697AFF2369
:1057900011542354401CC0B23628F9D330BD30B563
:1057A0000B4D00236878012800D0AB7001246C7089
:1057B000FF201930E882FFF7E7FB1848047018480B
:1057C0000470AB7100200F49124C2BE0518B00008C
:1057D0001602002074D80000A6D70000D2100020C6
:1057E000668F0000C40F0020FA0F00203010002048
:1057F000C4D40000C78F0000C7010020678F0000DD
:10580000DCD70000661000202DD800008F8A000031
:10581000908A00009C100020588F00001402002085
:10582000130200206A7A0B542254401CC0B236285E
:10583000F9D330BDF0B5784B042058706420D8827D
:10584000FFF7A2FB7549002008709870744A012187
:1058500011709871734D744C744A754E754F5B7A24
:10586000295C21541354715C3954401CC0B2362851
:10587000F6D380E5F0B5684E08207070A020F08265
:10588000FFF782FB6549002008703074644A0121EB
:105890001170B071684F11E06849634A095C115496
:1058A000674D4300EA5C634CA1545B195B78E1549B
:1058B0005E4C717AA154E154401CC0B239788842E0
:1058C000EAD358E530B5544B062058704B20C00041
:1058D000D882FFF759FB5149002008709870504A50
:1058E0000121117099715049A2390880554C2078D6
:1058F000554A504915780D543520205C12780A54C9
:1059000000204A4A597A1154401CC0B23628FAD3B2
:1059100030BDF0B5404B072058703220D882FFF7D9
:1059200033FB3E490020087098703D49087098711B
:105930000021444D454E685C4A003B4B4400B25A3E
:10594000A23B1A53424B1B789A4207D3414B002289
:105950001A54414B1A54414B1A540CE05300D218BC
:105960003F4F3C4BBC5C1C54D2193B4B54781C54ED
:1059700093783A4A1354491CC9B23629DBD3002123
:10598000354B3520421A2F48805C304A4C00125D5E
:10599000254C363C22542F4C1E5C255CAE192F4DF5
:1059A0002F5CFE4212D12A4E3678B24204D3002236
:1059B00022541A542A5409E056009219284EB75C12
:1059C0002754921954781C5492782A54491CC9B20D
:1059D0003629D6D30020174AFF211154401CC0B2EB
:1059E0003628FAD3C7E40C49888A401E0004000C0C
:1059F000888203D1488A888201200870704706494E
:105A00000879401CC0B20871042803D9002008712D
:105A10000120487170470000160200201402002087
:105A200013020020C88F0000741100209C10002079
:105A3000678F00006610002012D8000013D8000005
:105A4000DCD70000A6D700008F8A00004ED80000E7
:105A5000668F0000C40F0020FA0F002030100020D5
:105A6000C4D40000314902228A600861886840225B
:105A7000104388604868C007FCD1704730B52B4C94
:105A800063680425AB4363600123A360206100BF0A
:105A900000E000BF6068C007FBD10CE010785378CD
:105AA0001B020343907800041843D3781B0603437A
:105AB000E360121D091F0029F0D1A06840210843AE
:105AC000A06000BF00E000BF6068C007FBD1606855
:105AD000400701D5012030BD002030BD30B5134B4B
