:020000040000FA
:10000000C8190020896D00008D6D0000B507000043
:1000100000000000000000000000000000000000E0
:10002000000000000000000000000000916D0000D2
:100030000000000000000000936D0000BD6800009B
:10004000976D0000010B00000000000000000000A0
:1000500000000000000000002D470000000000002C
:100060000000000000000000976D0000000000008C
:10007000976D0000976D0000976D0000976D000070
:10008000F767000000000000000000000000000012
:100090000000000000000000000000000000000060
:1000A000976D000095690000976D0000000000004A
:1000B000F50900001D0A0000976D0000976D000013
:1000C00000F002F800F032F80CA030C8083824180C
:1000D0002D18A246671EAB4654465D46AC4201D180
:1000E00000F024F87E460F3E0FCCB6460126334280
:1000F00000D0FB1AA246AB463343184708D800008D
:1001000028D800000023002400250026103A01D33F
:1001100078C1FBD8520700D330C100D50B607047BF
:100120001FB506F0C7FE1FBD10B510BD06F0CDFE11
:100130001146FFF7F5FF00F0C9FA06F0E5FE03B43B
:10014000FFF7F2FF03BC06F0E9FE00000148016082
:1001500001480047240006400103FF1F30B40C494A
:100160000C684A6823681068C0181060241D121DAE
:100170008C4207D28A4208D20C604A6030BC4000F0
:10018000400870470C00DC3CF6E70A00DC3AF3E775
:1001900060170020F8B5002403F080FFFC480178C8
:1001A00000297DD000270770FA4AFB491068002813
:1001B00004D0401E1060002800D10F70F74A0126BD
:1001C0001088002806D0401E80B21080002801D17F
:1001D000F3480670F3480268002A72D0F24A127897
:1001E000002A00D00660EF4B1868401E1860EF4BE5
:1001F00009781B7803430B4303D0002861D1002A00
:100200005FD006F0F2FA06F040FBE94D2868802145
:100210008843286004F042FDE6480168E64A490840
:100220004900114301600DF054F8E4480761286863
:1002300080218843286003F001FA03F00CFAE048BB
:1002400003210161DF48C670DF4DE04E03F03FFA45
:1002500028603770DE4801782A68D0070AD03078E5
:10026000DC4BC0004018C0B21870DB4B185C002893
:1002700000D00124500828603078401CC0B2307093
:100280001328E9D3D24A491CC8B21070062800D3FB
:100290001770062006F065FB002CD7D0C24800E09E
:1002A0000FE000780028FDD1C5480761C548C77038
:1002B00006F08EFB06F0FAFA06F0C5FAB948C7490F
:1002C0000160F8BD70B5B248C54D01780024002921
:1002D00005D004702888002801D0401E288003F033
:1002E00080FEC048006980072DD5288800282AD1C3
:1002F000C82006F008FB04F0C0FC06F076FA06F011
:10030000C4FAAB48016880229143016003F008FB06
:1003100003F0FAFAA7480168A74A490849001143BF
:100320000160A64804610CF0D4FF04F0B7FC00F0B3
:1003300054FC06F0BBFA06F04BFB06F084FA03F01F
:1003400071F906F05FFAA84D2878012806D1082235
:10035000A64900F05FFA002800D12C70A44D28783F
:10036000012807D11022A349022000F053FA0028E7
:1003700000D12C70A04D2878012816D09F4D2878E8
:1003800001281BD09E4D2878012820D09D4D28782B
:10039000002809D09C49052008700422022000F0A2
:1003A00039FA002800D12C7070BD03229749022031
:1003B00000F030FA0028F7D12C7070BD0222944969
:1003C000104600F027FA0028F7D12C7070BD0522E6
:1003D0009049022000F01EFA0028F7D12C708D48B9
:1003E0008470C470047170BDF8B5764841780029F6
:1003F00072D0002444708849884E088800280FD0A5
:10040000401E80B2088000280AD13078002802D02F
:10041000012803D004E004F014F801E004F06EF8C1
:100420007F490878401CC0B2087032287DD30C7018
:100430005748012505707B490878401EC0B20870F6
:10044000002804D178480178002900D00470774F43
:100450003878002869D0401EC0B23870002864D1B6
:1004600073480078C0438107724810D10178002991
:100470000DD00CF09BFE704804706D48047030780D
:10048000012803D104F005F96C48047001E16C49BE
:100490000978C94389070ED1017800290BD00CF0E7
:1004A00009FF68480178012903D005700CF0BBFEF4
:1004B000EFE00470FAE764490A78D24392070ED15C
:1004C0000278002A0BD00C700CF0F4FE5F48017823
:1004D000012902D00570DCE0F7E00470D9E05C4946
:1004E0000A78D24392070FD10278002A0CD00C7000
:1004F0000CF0E0FE57480178002901D0047000E0BC
:1005000005700CF090FEC4E053490A78D24392077C
:1005100017D10278002A14D00C700CF0CBFE2348BF
:100520000178002907D0047000E0CCE00CF07BFEDD
:1005300004F07FF8ADE005700CF075FE04F049F8AA
:10054000A7E046490A78D3439B070FD10378002BD5
:100550000CD00C700CF0AEFE41480178012903D09C
:1005600005700CF060FE94E00470FAE705239343F5
:100570007DD10278002A7AD00C700CF09BFE3948AD
:100580000178012971D005700CF04DFE81E06EE01C
:10059000AC010020A401002084010020940100206F
:1005A000D5010020A0010020860100205D0100206F
:1005B00000E00540000001400000FA5A00E000E0C1
:1005C000000006400000002028010020ED0000206F
:1005D000EE000020EF00002082790000701700007C
:1005E0008E0100205402002000010020490100205B
:1005F00003010020D8020020010100200201002098
:10060000040100208101002090010020240100202D
:10061000200100203C010020A8010020AA010020A8
:10062000AB0100208B0100208A010020F90000208E
:100630000C010020F2000020850100208001002034
:1006400010010020110100201201002013010020E0
:10065000FA0000205E0100200E0100200D010020A4
:1006600019010020FF000020FFE704708CE75549C6
:100670000978DE290DD1007800280AD00CF01AFE86
:1006800051480178002901D0047000E005700CF099
:10069000CAFD4C480078F12803D0F22801D0F32895
:1006A00011D1307801280ED14849087800280AD0A5
:1006B000401E08700320387045485121017089217F
:1006C00041704448057001F0DAF9F8BD06F0B7FB57
:1006D00006F070FB40491F200860404E306A01253B
:1006E0002843306200F037F93D4C0020A070EF0342
:1006F000F8893C49884200D1A57006F0A4F806F0BC
:10070000D5F805F035FA01F0A5F906F089F9B87ABF
:1007100035490870354D2878012801D100F062F97B
:10072000A078002804D009F0EDFE0020287001E038
:1007300009F0B0FE06F04CF92D48B0612D4E2E4F59
:10074000FE60FFF751FE2D48A1780078084301D0E4
:1007500002F0A3FE0CF048FB2878002804D0012802
:10076000EED1FFF717FDEBE7FFF7ACFDE8E770B55B
:100770000CF000FD03F0C0FF194E3078401CC0B2F1
:100780003070042815D30CF079FD00243470012555
:1007900075700CF07FFD1A490878002809D0401EBA
:1007A000C0B20870002804D116480570164844707D
:1007B000847070BDBFF34F8F15491448C860BFF3F4
:1007C0004F8FFEE7F00000201A0100207F0100207B
:1007D000900100208101002000200440000006401C
:1007E00000000020AAAA000085010020AA01002024
:1007F00002C00000AA55FA5A00000140AF010020D3
:100800005F01002001010020240100200400FA05FE
:1008100000ED00E0F8B506460D4617464248B10027
:1008200008180268002A01DB0220F8BD002E03D060
:10083000042E01D8402F01D90420F8BD0068400FD4
:10084000042801D00120F8BD3848805D002804D07C
:10085000304600F03EF90320F8BD3548081800681E
:10086000B84201D20520F8BD701E324980000858F8
:100870000090002414E0295D641C285D00020843F8
:10088000641C295D09040143641C285D00060843BB
:10089000641C0146009800F077FA0098001D009053
:1008A000BC42E8D3F9B2304600F00BFA0020F8BDA4
:1008B00070B5234B204C1968228800251F4E481C18
:1008C000002A0CD0012A15D0022A1ED0032A05D1F5
:1008D000FF2925D2012109043160186070BDFF296C
:1008E00004D2FF2101313160186070BD1D6001200C
:1008F000208070BDFF2904D2FF21090431601860F7
:1009000070BD1D600220208070BDFF2904D2FF2130
:1009100009023160186070BD1D600320208070BD29
:100920001D60258070BD000018C00540B900002082
:100930004002002030020020CC000020D400002023
:10094000D0000020421E032A04D8FB4A80008018F1
:100950008038C167704770B500F0E2FD00F07CFFA1
:1009600006F06DFA06F026FAF448016810231943E0
:10097000016040210120FFF7E5FF80210220FFF701
:10098000E1FFC0210320FFF7DDFFE0210420FFF796
:10099000D9FFEB484021016080224260C022826082
:1009A000E022C260E7480160436083600821C160C3
:1009B0000161E14CE448483C2060022060611F2551
:1009C000ED06322005F09FFF2561DB486104083801
:1009D0004162DE49C162012000F032FA012000F0DC
:1009E00028FA70BDD449002048390861D84902204E
:1009F0000860704710B51C2000F022FAD649D5488F
:100A00000862D64801690122920411430161012064
:100A1000CF4A01071160D249087010BD10B51D20E2
:100A200000F00EFACF49CB480862CC480169012298
:100A30009204114301610120C54A41071160C84970
:100A4000087010BD70B5C4480025C5601F21C901DC
:100A50004161C04C046281611C2000F0F1F91C204E
:100A600000F0E7F9BF48C5600121C9034161046294
:100A700081611D2000F0E4F91D2000F0DAF970BD5D
:100A800010B5B5480021C1604161B2490162092138
:100A9000C90181611C2000F0D3F91C2000F0C9F9C4
:100AA00010BD0120A449C002483988607047012068
:100AB000A149800248398860704701209E49400260
:100AC000483988607047FF209B4901304839886069
:100AD000704704280DD8984A8100303A89180028B8
:100AE00004D1954848384068C00102D40720400727
:100AF0000860704710B506F0A2F900F0DFF910BDEC
:100B000010B58D4C483C62680020C043A060002AAC
:100B100008D0500F15D0002A07DAFFF7EBFF00F0DE
:100B2000A9F93DE0FFF7E6FF10BD500002D500F047
:100B3000B6F935E0900033D5FFF7DCFF00F0B5F9EA
:100B40002EE01002C00E18D0100202D500F00FFCEB
:100B500026E0500202D500F04EFC21E0900202D5C2
:100B600000F08AFC1CE0D002800F19D00320C004E2
:100B7000A0600020FFF7ADFF12E01005000F0FD0BE
:100B8000D00501D5FFF79FFF900501D5FFF795FF31
:100B9000500501D5FFF78BFF100501D5FFF781FF49
:100BA000206810BD00207049401C8842FCD370476B
:100BB0001E20401E411CFCD1704700B55E4A062035
:100BC000483A5061FFF7F4FF05205061FFF7EAFF54
:100BD000506904218843506100BDF8B55F4C20691D
:100BE000022188432061544F483F7868400012D565
:100BF00038690921C9068843386102F079FE02F09C
:100C00008FFE204600690A2005F077FE78684000D4
:100C100002D4FFF76FFFF8BD544C0026544D2BE073
:100C20004E4F3869000627D50A2005F09AFE02F0DB
:100C30004EFD504B1860267029781A68D0070DD0E9
:100C400020784D4FC0004018C0B238704B4F385C10
:100C5000002803D041488068012813D0500818604C
:100C60002078401CC0B220701328E6D3491CC8B2BB
:100C70002870062800D32E702F484838406840005E
:100C8000CED4F8BDFFF736FFFFF797FFF8BD2A492E
:100C90004839CA6B012383409A43CA6370470428CA
:100CA00005D825498000303940180021016070477F
:100CB000042805D820498000303940180907016010
:100CC0007047042807D81C4A8000303A8018052253
:100CD000520789180160704717493831486002206F
:100CE000C860C8688007FCD48868254908607047D8
:100CF00000B50A46402A0ED2401E1149800008580D
:100D000091084018FFF7E8FF9007C10E1C480068E3
:100D1000C840C0B200BD002000BD00B5102931D2CE
:100D2000401E074A8000105889004018FFF7D4FF82
:100D30001348006800BD000048C0054000E00540C1
:100D40003002002040020020100000B004400000EB
:100D500080E100E0FFFF000000A0044054020020FA
:100D6000B8000020008004400A280000ED000020A8
:100D7000EE00002028010020EF0000208279000012
:100D8000DC0000200020D5E7314A5060916001204E
:100D9000D060D068C007FCD1704730B50B46402BFF
:100DA00015D2401E2B49800008589908451828463E
:100DB000FFF792FF284804689807C30EFF20984069
:100DC00084431146994021432846FFF7DDFF30BD9B
:100DD000102907D2401E1F4B800018588900401868
:100DE0001146D1E770471A4A403A906318480221E9
:100DF000016001688907FCD4D06B1849086070470E
:100E0000134A403A9063D16311480121016001689F
:100E1000C907FCD1704712480121C160C168C906E9
:100E2000FCD502210161104A0E49116000210160C8
:100E30007047C106C90E012088400C490860704700
:100E4000C106C90E012088400949086070470000AA
:100E500080C0054030020020DC000020D8000020C7
:100E6000000006400200FA5A0020064000E100E0BF
:100E700080E200E010B50020F74AC0439060F749D7
:100E80000120086100208860D060FFF722FE012465
:100E90002046FFF704FF641C042CF9D910BDEF486D
:100EA00001690222114301617047EC480169042283
:100EB00011430161E849D00688607047E64801693E
:100EC0000922D20611430161012149068160704760
:100ED0000120E14980068860704710B5DF4CA068AA
:100EE00001280CD1DE4A002000211154401C0428A6
:100EF000FBD92079012802D8A278002A03D000204B
:100F0000FFF7E7FD10BDD74A1154FFF7C0FE206977
:100F1000012109040843206100210846FFF7D1FEA2
:100F200010BD10B5CD4CA068012814D120788128BF
:100F300011D1207901280ED8CA49095C0020FFF799
:100F40005FFF20690121C9030843206101210020BE
:100F5000FFF7B7FE10BD0020FFF7BBFD10BDF8B5D1
:100F6000BF4DBE4E3069800607D5B07810210124F0
:100F70000027002805D0012819D00020FFF7A9FD7F
:100F8000F8BDB7603069084330610127EC55384639
:100F9000FFF785FE7F1C042FF8D930690121090471
:100FA0000843306100210846FFF78BFEF8BDB460AE
:100FB00030698843306100242F55002C0CD0204626
:100FC000FFF776FEA4480069611EC840C00703D041
:100FD00000212046FFF775FE641C022CECD9306915
:100FE000012109040843306100210846FFF769FE2A
:100FF000F8BD70B5994DA9680020FFF701FFA868FA
:10100000012806D101242046FFF752FE641C022C61
:10101000F9D9954800210160286903218903084313
:10102000286101210020FFF74CFE70BD10B50020A3
:10103000FFF74FFD10BD10B504461806120410430B
:1010400009020843204310BDF8B5884F3C68834827
:10105000854EC0883168884200D2306030680028F0
:101060001DD00025E378A27861782078FFF7E3FFB0
:101070000146A800FFF7C4FE241D6D1CEDB2102D23
:10108000F0D33068402815D340210020FFF719FE27
:10109000386840303860306840383060F8BD002132
:1010A0000846FFF70EFE6C488169012212071143C2
:1010B0008161F8BD3068C1B20020FFF702FE002058
:1010C0003060F8BDF8B5002400206449684BCA7848
:1010D0000D798F780C26014671435E5CB24211D1C6
:1010E000C9184E78B5420DD18E78B7420AD10C227C
:1010F0005043C01882885C4802605C48896801607F
:10110000012402E0401C1028E4D3002C08D05349ED
:1011100008690122D20310430861FFF795FFF8BD6B
:101120000020FFF7D6FCF8BD10B54C48016920231C
:1011300099430161016940221143016181780029CD
:1011400002D002691A43026101730169012212048B
:101150001143016100210846FFF7B3FD10BD70B5D2
:101160003E4D28784406640E000602D50020FFF7A5
:10117000B0FC002C05D0022C0FD00020FFF7A9FCFA
:1011800070BDA8780128FBD128693A490843286135
:1011900000210846FFF795FD70BDA8780028FBD117
:1011A00028794006400E411E0129F5D8A968012979
:1011B000F2D12B4A1154FFF78CFC28690121090454
:1011C0000843286100210846FFF77BFD70BD70B51C
:1011D000224D28784406640E000602D50020FFF751
:1011E00078FC002C1AD0022C17D1A878002814D132
:1011F00028794006400E0022194BE10300281ED03A
:1012000002280AD8AC68012C07D11A54286908436F
:10121000286100210846FFF754FD70BDA878012819
:10122000FBD12869802188432861286911498039C8
:101230000843286100210846FFF743FD70BD286977
:101240008006FBD51A7028690843286100210846EA
:10125000FFF737FD70BD000000C0054054020020BC
:10126000B9000020C8000020C4000020C0000020F9
:10127000040000208001010070B5B84D28784406B4
:10128000640EC00901D1FFF724FC0126F603002CEF
:1012900015D0012C27D0022CDCD128794006400E35
:1012A0000228D7D8AE49095C0020FFF7A9FD2869BC
:1012B0003043286102210020FFF703FDCAE72869B7
:1012C000000604D502210020FFF79AFD03E000216B
:1012D0000846FFF795FD2869304328610221002068
:1012E000FFF7EFFCB6E7A8680128B3D168790028BA
:1012F000B0D128790128ADD800210846FFF780FD3C
:1013000028693043286102210020FFF7DAFCA1E7B9
:1013100010B592484078030005F054FE0C070A25EA
:101320000D25101316191C1F2225FFF7A5FF10BD50
:10133000FFF74DFF10BDFFF712FF10BDFFF7F4FEE2
:1013400010BDFFF7BFFE10BDFFF770FE10BDFFF729
:1013500050FE10BDFFF703FE10BDFFF7E2FD10BD0C
:10136000FFF7BBFD10BD0020FFF7B3FB10BD7CB540
:1013700033207C4CC004A0600020FFF799FC60681B
:10138000400331D4754C20690321C903884320618F
:101390000020FFF728FD744D286801900420FFF716
:1013A00022FD286800900198C0B220700199090AB6
:1013B00061700199090CA1700199090EE170009901
:1013C00021710099090A61710099090CE18060217D
:1013D0000840002802D0202803D008E0FFF798FF3B
:1013E0007CBD00F007FA7CBD01208004A0600020D5
:1013F000FFF76FFB7CBD70B501205A4E8005B060D1
:101400005A4DA87C022815D10020A8746869584953
:1014100088420DD1A8695749884209D10024A0000B
:101420000021FFF7EDFC641C402CF8D3FEF78EFE84
:101430000420A874494C20694F4D40060CD5206902
:10144000402188432061207BF0600020FFF741FBB2
:101450002069A8432061FDE6E088002808D02069C3
:10146000C00305D4FFF7F0FD2069A8432061F1E631
:101470000020FFF72EFBEDE6F8B5012139484905BC
:1014800081603A4DA87C384E012819D0686D8005DE
:101490000DD5686D0913884368650020FFF7A3FC2C
:1014A00030682870686D01214903084368652B4C3A
:1014B0002069000425D400210846FFF702FC29E03A
:1014C0000024A0000746FFF78EFC306879194861B8
:1014D000641C102CF5D30220A87468692449884242
:1014E00003D1A86923498842E1D024480122017828
:1014F00011430170224800780428D8D102F0EEFA96
:10150000D5E718484168C90104D481690122D2068F
:101510001143816120690121C90388432061F8BD1D
:1015200000200F4A00211154401C0528FBD3002045
:10153000144A1154401C0428FBD308480170417020
:101540008170C17001714171C18081600173016955
:10155000012252041143016170470000540200202F
:10156000B900002000C00540D8000020680200201B
:10157000AA42895AFF7162CC00000100E4000020F9
:1015800060010020C800002010B5B84A107821285A
:101590001BD1B749486D01231B03184348651079D7
:1015A000012812D89078002804D14B6D0324A4029E
:1015B000A3434B6548741069012109040843106175
:1015C00000210846FFF77DFB10BD0020FFF781FAE0
:1015D00010BD10B5A5480178212914D10169012257
:1015E000120411430161A2494A6D0123DB021A432F
:1015F0004A650279012A06D8C07808740021084695
:10160000FFF75FFB10BD0020FFF763FA10BD10B5B8
:1016100097490120887400210846FFF752FB10BD4E
:1016200010B59248016901221204114301619048EA
:10163000416DD2111143416500210846FFF741FB7E
:1016400010BD10B589480178212907D101790029F9
:1016500004D1C078022805D0032806D00020FFF767
:1016600038FA10BDFFF7DCFF10BDFFF7D0FF10BD4B
:1016700010B57E4C2078A12816D17D48416DC90453
:1016800001D401214174217901290DD8417C002028
:10169000FFF7B6FB20690121C9030843206101213E
:1016A0000020FFF70EFB10BD0020FFF712FA10BD5F
:1016B00010B56E480178A12908D16D494A6D012302
:1016C000DB021A434A650279002A03D00020FFF7A3
:1016D00000FA10BD0A7C67490A6001690122D20341
:1016E0001143016101210020FFF7EBFA10BD10B595
:1016F0006149002008605D4801690122D20311435D
:10170000016105210020FFF7DCFA10BDF8B55B4E42
:1017100002213078084330700024554DA000411953
:10172000496900910099FFF76BFB641CE4B2102C2F
:10173000F4D34E4801690122D203114301614021D3
:101740000020FFF7BEFA687DAB2806D13078FD2176
:10175000084030704A4904200870F8BD10B544486C
:1017600001780020FFF74CFB404801690122D203B9
:101770001143016101210020FFF7A3FA10BD10B54C
:101780003D4900200860394801690122D203114314
:10179000016108210020FFF794FA10BD10B533480D
:1017A0000178A1291FD1816801291CD10179C07854
:1017B000002902D0012910D015E0012804D0022808
:1017C00005D0032806D00EE0FFF7D9FF10BDFFF7C4
:1017D000C5FF10BDFFF79AFF10BD2549497C0129BF
:1017E00001D1012803D00020FFF773F910BDFFF7E6
:1017F0007EFF10BD10B51D484078030005F0E2FBE8
:101800000C19070A0D191919191910131619FFF7D0
:10181000C5FF10BDFFF74CFF10BDFFF729FF10BD3E
:10182000FFF70FFF10BDFFF7D4FE10BDFFF7ACFEB2
:1018300010BD0020FFF74DF910BD10B50E49002076
:1018400008600A4801690122D203114301610521A0
:101850000020FFF736FA10BD05487D2101740121F3
:1018600041740021817441657047000054020020DA
:1018700068020020E0000020C4000020E4000020F6
:1018800060010020F0B591B00020534A534B544DF5
:101890000024410054525C526C52401C80B27E289D
:1018A000F7D3012005F05DF804F09FFF002507271E
:1018B0003F0301AE0020AA0181008B18DB191B68D1
:1018C0007350401C80B21028F6D30120C0031018BA
:1018D00001AA102104F022F96D1CADB2162DE9D336
:1018E00041494048C860002081007450401C80B2CB
:1018F0001028F9D301AA10213C4804F00FF9432025
:1019000001AA1021400204F009F9384801AA102167
:10191000D03004F003F9872001AA1021000204F05E
:10192000FDF804F05BFF11B0F0BDF8B58C46002463
:101930002949002665004E53284F7E53284F7E5379
:10194000641CA4B27E2CF5D30021294C455C65545F
:10195000491C89B24029F9D3002105E065466D5C38
:101960008E18A555491C89B29942F7D3204A4021C7
:1019700004F0A4F8012800D1FEE7F8BDF8B58646CA
:10198000944600241448154F154A00266500465316
:101990007E535653641CA4B27E2CF7D30020144A05
:1019A00003E00C5C1454401C80B29842F9D370469A
:1019B000604404460E4A402104F080F8012809D012
:1019C0000B4A204640304032402104F077F801288D
:1019D00001D1FEE7FEE7F8BD7A090020760A002073
:1019E000720B0020AA55FA5A0000014080850000C1
:1019F000C6110020F8B51420FE4EFF4D0127401EF1
:101A0000C0B200243168890600D501243168490636
:101A100001D502210C43E97CA14204D0022004F04C
:101A2000A0FFEC7414200028E9D1E87CF34AC30736
:101A30000021002B01D0177000E01170EF708207B9
:101A400000D5E970EA78002A02D0EB4A203A917377
:101A50002875F8BDE8490020413148700320253938
:101A600008700220091F0870E54901200870E2494A
:101A7000062034310870E34905200870BAE770B5D4
:101A80000021DC48026801239206002A00DA0121C5
:101A90000068400601D502200143D748C27C8A4233
:101AA00003D00A224275C17470BD417D0029FBD06C
:101AB000491EC9B241750029F6D1047D1146614025
:101AC0000029F1D00275CD070024002D10D0CB489D
:101AD000D10707D0037002F011FDFEF783FFCA485B
:101AE000047070BD047002F0ACFCFEF734FF70BDF2
:101AF0008907FCD5C3709107F9D5C47070BD7047D4
:101B000070B500240020BC4D4135295C0C43401CBD
:101B1000C0B20828F9D3B84A0123203A0021002C8A
:101B200006D0137600202954401CC0B20828FAD3EE
:101B300000240120B24D2E5C3443401CC0B210285A
:101B4000F9D3002C06D0D37601202954401CC0B212
:101B50001028FAD300240120A74D1C352E5C3443F5
:101B6000401CC0B20328F9D3002C06D053760120C4
:101B70002954401CC0B20328FAD39F481830447837
:101B8000002C01D093764170002401209A4D343509
:101B90002E5C3443401CC0B20528F9D3002C06D07B
:101BA000137701202954401CC0B20528FAD3517282
:101BB00070BDF0B5904B203B187A1C460146420799
:101BC000E57AA039520F0124072914D81C7618464B
:101BD00061300078012D07D08C496133895CFF2288
:101BE000514008401870F0BD884B83499A5C4131E0
:101BF00010430870F0BD0146B0390E461F2912D8B7
:101C00005C767D4903221C31012D04D00A7000202E
:101C100048708870F0BD7E4B7000185A0A7048708A
:101C2000000A8870F0BD0146A839022918D89C76B0
:101C3000714A764C183210463838007A0223201840
:101C40005178C038012D06D01370007EFF23584014
:101C500001405170F0BD1370007E01435170F0BD22
:101C6000654B203B1E46597A61361B7A7718DE0891
:101C7000634BF318012D13D0002950D05E4DBE7870
:101C8000203D6D7A6D1EAE46EDB2AC46864229D13E
:101C90000021594DB970203D2C76614669723EE0B5
:101CA000554D203D052912D200290BD000222B468C
:101CB000613305E09E18B6788642D0D0521C92B2AD
:101CC0008A42F7D3B870491C69722C76F0BD782827
:101CD000FCD2EC764A4804704C495878895C084339
:101CE0005870F0BD0026444F413716E0BD19AD785D
:101CF000854210D14049203904E0B819C278827079
:101D0000761CB6B27645F8DB0020BA1990700C76D6
:101D100060464872F0BD761CB6B28E42E6D33649B4
:101D200020397828F6D2CC7635480470374958786F
:101D3000895CFF22514008405870F0BDF8B52E4C28
:101D4000E07B00286CD027464C373868401C386050
:101D50007968884264D300253D6020462C302646B1
:101D60000088203E316D8000401841680901090952
:101D70007960C27869460A70807848700021D3097A
:101D800000D0012170231A406B461A701A4B34336D
:101D9000102A04D0202A0FD0302A0FD01CE00122B4
:101DA0003277154A34325278002902D002435A70F1
:101DB00012E082435A700FE018710DE03072024653
:101DC000E03A072A01D840383072F572002901D074
:101DD0000120F072FFF7EDFE07492C310888801CC6
:101DE00080B208804A8890421AD3607B002814D0C1
:101DF000012810E000A0044008010020AA010020F2
:101E0000D80200209001002080010020F66F000021
:101E1000987B000004E004D00FE0E573FFF770FE4C
:101E2000F8BDF94A1078401CC0B210705278904248
:101E300003D3E573FFF764FEF8BD207BF34A80000F
:101E40008018006CF14A403280183D600A227A60A6
:101E50000D80028808304A803065F8BD10B5EA4828
:101E6000EB4A3A38C37F0021002B04D0C177437F6F
:101E7000012B0CD00CE041770123C377E5480180AA
:101E800000201154401CC0B24028FAD310BD417745
:101E9000417F1170807F00280DD0012812D00228C8
:101EA00018D00328F2D1872040230022D84900020D
:101EB000FFF73BFD10BD40230022D549D648FFF770
:101EC00034FD10BD432040230022D1494002FFF7DA
:101ED0002CFD10BDD04840230022CD49D030FFF763
:101EE00024FD10BDFEB5C84F00243A3FF97F3846A7
:101EF000C07A002914D0B97A002911D13A7AAF2AD0
:101F000005D0797F402903D33C72FFF7A7FFFEBDC0
:101F1000BF4B5A54491CC9B25854491C79773C727A
:101F2000BE4B397A1A780125F02968D0B64B1A3B96
:101F30000193E62974D0F72973D0D12972D0EE2904
:101F400071D01A46203AD27D0092B54AD329127830
:101F50006AD0B44B072636031B788D296FD08E29A3
:101F60006ED08F296DD090296CD091296BD0922999
:101F70006AD0E52969D0EF2968D09C2967D0AA4B9F
:101F8000AA4F1B783E78DA2974D0DB2973D0A84B8E
:101F9000A84F1B78D0299C463B786DD09A4E3A3E8C
:101FA000D8296AD0E72969D0A34ED62936786ED0D1
:101FB000D7296DD0944E3A3ED4296AD0D52969D01C
:101FC0001322DC2967D0DD2970D03246127B3A29F2
:101FD0006DD03B296CD03C296BD03D2997D100288E
:101FE00095D0872000020078002890D0002A8ED15A
:101FF000747035730320B07734727477FEBD3C7211
:102000000028FBD0002A10D0012AF7D11C700BF059
:102010000AF902F016FAFEF79EFC0BF042F9FEBD3B
:1020200016E02CE03AE047E056E01D700BF0FBF8BC
:1020300002F064FAFEF7D6FC0BF033F9EFE77EE02E
:1020400098E0B5E021E150E171E192E19DE1AAE182
:102050003C72012AE3D1012804D00198C471774869
:102060000470DCE702F085FA0A2004F07AFC01989B
:10207000C571D4E7A2E1B0E1BEE13AE244E23C72CC
:102080000128CCD1F87B002806D0FC73C7E741E2D9
:102090004EE25BE26AE279E2FD73C0E73C7201283E
:1020A000BDD1B87B012805D0BD73B8E782E296E2C6
:1020B000A3E2B1E2BC73B2E73C720028AFD0604942
:1020C0000878401CC0B20870032800D30C7008F0D8
:1020D0006CFA01988570A2E73C7200289FD059489D
:1020E000007801289BD058480078002897D10098A4
:1020F000002802D00BF0DEF891E74948012A1BD0F6
:102100000121C903097901700120C00341794A48BE
:10211000017008F075F94D48057042490878401C77
:10212000C0B20870132800D30C700AF06AFD0AF0E0
:1021300072FD0BF078F872E704210170E4E73C725D
:1021400000288ED03748062B8BD0062101703179BC
:102150003348017071793848017008F051F93B48F3
:1021600005703B4804700AF04CFD0AF054FD0BF07A
:102170005AF854E73C72002888D02A48052B14D01E
:102180000521017031792648017071792A48017062
:1021900008F036F92D4805702D4804700AF031FD1D
:1021A0000AF039FD0BF03FF839E707210170E9E744
:1021B0003C7200288FD01B480A2B4BD0092B4CD0E7
:1021C0000B2B4DD0082B4ED0032B4FD0102B50D0C3
:1021D000042B51D0112B52D00F2B53D00A21017058
:1021E00031790F48017071791348017008F008F9CE
:1021F00016480570164804700AF003FD0AF00BFD3E
:102200000BF011F80BE7000022010020809700007E
:10221000E8020020DE01002080850000AA010020E5
:10222000C5010020B3010020BD010020AE01002047
:10223000AF010020CA010020C70100208701002053
:10224000B001002002000020D4010020B5010020D0
:10225000C901002009210170C2E70B210170BFE70D
:1022600008210170BCE703210170B9E7102101705A
:10227000B6E704210170B3E711210170B0E70F2127
:102280000170ADE712210170AAE73C7200288BD0E3
:10229000FA48002B1BD0012B1BD00D2B1CD00E2B72
:1022A0001DD00C2B1ED004703179F5480170717966
:1022B000F448017008F0A4F8F3480570F34804707E
:1022C0000AF09FFC0AF0A7FC0AF0ADFFA7E6057034
:1022D000EAE70D210170E7E70E210170E4E70C2128
:1022E0000170E1E702210170DEE73C72002889D02D
:1022F0003179E34801707179E248017008F080F8A3
:10230000E1480570DD49087806280AD007280BD077
:10231000062008700AF075FC0AF07DFC0AF083FFC5
:102320007DE607200870F5E708200870F2E73C72A8
:102330000028CBD03179D24801707179D148017031
:1023400008F05EF8D0480570CC49087810280AD00B
:102350000F280BD0102008700AF053FC0AF05BFC29
:102360000AF061FF5BE60F200870F5E711200870A6
:10237000F2E73C720028A9D0C5490878401CC0B2D9
:1023800008700528A2D30D7049E63C72C14908784F
:10239000401CC0B20870082800D30C700AF0C2FEBE
:1023A0000AF041FF3BE63C7200288FD0BA48017822
:1023B000002901D0047032E6057030E6B7490C728E
:1023C0000028ADD0002E02D0761E3E7000E03B709B
:1023D0000AF021FC0AF027FF21E6B0490C72002820
:1023E0009ED09E4202D2761C3E7000E03C700AF005
:1023F00012FC0AF018FF12E6A8490C7200288FD0D0
:10240000604612288CD1A6480178002923D0047098
:10241000082E85D3012B2AD0022B30D0032B37D0A6
:10242000042B3ED021208002052B43D0062B47D021
:10243000FF220132072B49D0082B4CD0092B51D059
:10244000002B8FD1FF2201207E2381329549C003CA
:10245000FFF794FAE3E50570934804800020914A61
:10246000FF211154401CC0B27E28FAD3D7E50122C7
:1024700052027E238B499001FFF780FACFE50522B7
:1024800001207E23D2018749C003FFF777FAC6E512
:10249000032201207E2312028249C003FFF76EFA55
:1024A000BDE5072201207E23D2017E49C003FFF74C
:1024B00065FAB4E57E2300227A49FFF75FFAAEE5BC
:1024C0007E2380227749FFF759FAA8E57E237549D4
:1024D000FFF754FAA3E580227E2372491002FFF72A
:1024E0004DFA9CE501207E236E49C003FFF746FAB2
:1024F00095E534720028ADD064480178002901D0F8
:1025000004708CE505708AE534720028A2D035731A
:10251000747784E561490C7200289BD05948052ED8
:1025200098D2761C0670584805700198857076E53B
:102530005A490C7200288DD05248012E8AD9761E35
:102540000670514805700198857068E5347200285E
:102550008CD00098002889D14948042A86D2521C80
:10256000027007F04DFF0AF05EFE58E53472002855
:1025700084D0009800288AD14148012A87D9521E68
:10258000027007F03DFF0AF04EFE48E53472002865
:1025900086D0012B02D1604612288AD03D70434874
:1025A000047036490A700AF02CFB0AF034FB0AF07A
:1025B0003AFE34E53472002887D0022B02D16046FF
:1025C000122887D002203870384804702B490A70CE
:1025D0000AF017FB0AF01FFB0AF025FE1FE5002892
:1025E00086D03348007800288BD0002A89D17470B7
:1025F0003573B4773472747711E5002889D043209D
:1026000040020078002884D0002A90D1747035737D
:10261000B5773472747702E5002888D02448C0303A
:10262000007C002891D0002A8FD17470357302206D
:10263000B07734727477F2E4F8B5184A1E27117A2D
:102640001046C07A0024D2290CD01A4B1A4E527C64
:102650001B783578F12938D0F22959D0F3297CD06C
:102660000120F8BD00282DD014480178002927D07A
:102670000470FFF707F907F00DFF24E0B301002015
:10268000C5010020C7010020B5010020C9010020BC
:10269000DB010020B1010020D3010020E800002070
:1026A000C3010020FB040020DE010020AF01002058
:1026B00080850000AA010020850100200200002082
:1026C000577400E054740020F8BD012B1ED100287F
:1026D00018D0012D01D0FE480470012535700AF094
:1026E000A2FDFC484774FC4903200870FB485121B7
:1026F000017081214170FA480570FA480470FA4867
:10270000047003E0F348002A00D044740020F8BDB0
:10271000012B20D100281AD0022D01D0EC480470E2
:10272000022030700AF07FFDEA484774EA4903202E
:102730000870EA485121017082214170E848012166
:102740000170E8480470E848047004E005E0E148DE
:10275000002A00D044740020F8BD012B1FD10028AE
:1027600019D0042D01D0DA480470042030700AF02A
:102770005AFDD8484774D84803210170D7485121E1
:10278000017083214170D64901200870D54804703A
:10279000D548047003E0CF48002A00D044740020DC
:1027A000F8BD10B50020CB49D04B097AD04A05E0DE
:1027B00044001C5D8C4205D0401CC0B21488A0426D
:1027C000F6D3FF2010BDF0B5C24DCA4EE87A2C46B4
:1027D000C94F2034002854D0FFF7E3FFFF2817D05B
:1027E000E178002915D0A97A00293DD0617A002925
:1027F00034D0C2494200511849782972B54AC108FB
:1028000059324407BE48640F535C005D0343535480
:10281000F0BDA97A002916D0617C00290ED04100B4
:10282000C91949782972AB4AC10859324407B448DA
:10283000640F535C005D03435354F0BD410089199C
:1028400049782972EFE7617C002903D04000385CA9
:102850002872F0BD4000305C2872F0BDA9494200EA
:10286000511849782972C9E7617A002904D04100DA
:10287000A248405C2872F0BD4100A248405C28722A
:10288000F0BDFFF78EFFFF28FAD0924AC1088C46B0
:102890005932515C43079A4A5B0FD25C114223D0F4
:1028A000E378002B0DD0637A002B17D043009348B8
:1028B00018184078287287485930914362468154ED
:1028C000F0BD637C002B04D04000C0194078287212
:1028D000F1E74000801940782872ECE7430089480E
:1028E000181840782872E6E7E178002907D0617A65
:1028F00000290FD041008148405C2872F0BD617C06
:10290000002903D04000385C2872F0BD4000305CE4
:102910002872F0BD41007B48405C2872F0BDF8B5DC
:102920007948002505806B4E307AAF2806D06328A1
:1029300004D0F17A002901D074490D7069490A78F0
:102940007349002A02D0734A0A6002E0FF229132E2
:102950000A60002849D0FFF736FF5E4C2034A07C87
:10296000002804D0307A4B2801D146203072594FCC
:10297000E0786137002825D0307AA32808D0A22833
:1029800009D0A7280AD0A6280BD046280CD019E0D9
:10299000A220307216E0A320307213E0A62030721D
:1029A00010E0A72030720DE021203072F07A00286C
:1029B00004D038780A210843387003E03878F521CC
:1029C000084038703046317A0126AE2905D00222FF
:1029D000FA290DD0AD2928D022E00572C17A01294B
:1029E00003D1017C012901D00674F8BD0574F8BD3E
:1029F000C37A002B0FD0837A002B11D0A3793343F5
:102A0000A371DB439B070BD1434B1B78012B07D1F1
:102A10001E214174F8BDA3795B085B00A371457466
:102A20000D291BD0AC2943D037E0C17A00290FD043
:102A3000817A0029EED0A1791143A171C943890798
:102A4000E8D1354909780129E4D11E214174F8BD46
:102A5000A17989088900A1714574F8BDC37A002B5A
:102A600016D01C48837A002B17D023793343237167
:102A7000DB439B0711D129480178002904D0057058
:102A8000FEF700FF07F006FD12491E204874F8BD4E
:102A900023795B085B0023714574DF2945D0AB299E
:102AA00058D0E2296BD006297DD0D9297CD0A0E06E
:102AB000C17A002934D0817A0029E8D021791143E4
:102AC0002171C9438907E2D11E214174F8BD00007C
:102AD00084010020E80000207F01002090010020F8
:102AE00081010020800100208A010020B67A0000C8
:102AF000F46F00002A7A0000707A0000427B000028
:102B0000F66F0000FC7A000092010020DB0100203B
:102B1000A001002070170000AA0100200200002080
:102B20002079FD2108402071F8BDC17A00290BD021
:102B3000817A0029F8D0617931436171C9438907ED
:102B4000F2D11E214174F8BD6179490849006171D3
:102B50004574F8BDC17A00290BD0817A0029F8D0DC
:102B6000617911436171C9438907F2D11E21417412
:102B7000F8BD61798908890061714574F8BD07461F
:102B8000C07A00281ED060790421084360710522B4
:102B90008243F84809D0F97D0029EFD10178002956
:102BA0000ED00570F8BD10E02CE00570F2480278F8
:102BB000012A02D1017007F023FC1E207874F1E78E
:102BC0000670EFE765717D74ECE7C37A002B0BD0DC
:102BD000837A002B0DD0237A33432372DB439B0788
:102BE00007D11E214174DDE7237A5B085B00237265
:102BF0004574E02915D0E42928D013293BD0E329D6
:102C000052D04BE0C17A002906D0807A0028C9D082
:102C1000207A10432072C5E7207A80088000207255
:102C2000C0E7C17A00290BD0817A0029BAD0A17AF5
:102C30003143A172C9438907B4D11E214174B1E760
:102C4000A17A49084900A1724574ABE7C17A00290D
:102C50000BD0817A0029A5D0A17A1143A172C94372
:102C600089079FD11E2141749CE7A17AFD22114062
:102C7000A172457496E7C27A002A0BD0827A002AA4
:102C80000CD0827C32438274D243920706D11E213B
:102C9000417487E7827C520852008274E27A002AEB
:102CA00013D04C290FD010E0C17A002906D0817AC8
:102CB000002984D0817C1143817473E7817C890869
:102CC000890081746EE749210172817A002910D14F
:102CD000037A4C2B05D1C27A002A01D0467500E058
:102CE0004575492B05D1C27A002A01D0867500E0CE
:102CF0008575827D437D1A431CD1027A94464C2A05
:102D00000BD1C27C0B46134307D049210172002A24
:102D100001D0C5740EE0C6740CE06246492A09D1A0
:102D2000027D114306D04C210172002A01D00575A5
:102D300000E00675017ADE2904D0904A1278012A53
:102D400008D009E0C17A002902D01E21417429E788
:102D5000457427E7532987D08948007C002802D092
:102D6000FEF7CEFE1EE7FFF767FC002891D08448EF
:102D70004574FFF7B7F88248037A002B89D0817B2E
:102D8000012903D07F490978090605D5A32B94D0E2
:102D9000A72B92D0652B90D0F72208219D2B04D031
:102DA0009E2B0FD09F2B1AD020E015230372C37ADD
:102DB000002B03D03A780A433A7017E03B7813406F
:102DC0003B7013E0C37A012B05D03B7813403B7076
:102DD0002B2202720AE03A780A433A70F8E7C37A83
:102DE000012B2BD03B7813403B700172027AF82AFA
:102DF00008D3C37B002B25D05207130F624A9A18C1
:102E0000527802725F4A13789A0604D5027AA22A8F
:102E10001ED02B2A1ED05A0604D5027AA22A1BD015
:102E20003D2A1BD0027AAF2A1AD0F52A26D0F62ADC
:102E300074D056490978122971D01AE13A780A43B8
:102E40003A70D2E75207130F4F4AD25C0272D9E7A9
:102E50000572A7E60572A5E60572A3E60572A1E66E
:102E600006718572C17A012906D0A0780028F0D0B9
:102E70000AF0D9F9A57095E6867293E6C27A012A1E
:102E8000E7D1E278002A4BD004460676FE713B4833
:102E90000078002826D001F001F90A2003F061FD36
:102EA00026760020F871354D2878002821D001F0D1
:102EB000F5F80A2003F055FD2676FE7128780028E3
:102EC0001ED001F0EBF80A2003F04BFD267600201F
:102ED000F871287800281AD001F0E0F80A2003F0F1
:102EE00040FD5FE62649082261310120FDF792FC92
:102EF000D3E72349082261310120FDF78BFCD8E795
:102F00001F49082261310120FDF784FCDBE71C49E1
:102F1000082261310120FDF77DFCDFE738E0A4E005
:102F200001220446027639700B20B870134E3078B7
:102F3000002811D001F0B2F80A2003F012FD0120A0
:102F400020763D70BD70307800280CD001F0A6F8D6
:102F50000A2003F006FD25E6094908226131012017
:102F6000FDF758FCE8E70649082261310120FDF72A
:102F700051FCEDE7D4010020C5010020AA0100208A
:102F8000E800002061010020887B0000AF010020E4
:102F9000C27A012AA5D1E278002A3CD0FE48067602
:102FA000BD70FE71FD4C207800281FD001F076F82E
:102FB0000A2003F0D6FCF84E012131762C20B8709F
:102FC000F9712078002818D001F068F80A2003F081
:102FD000C8FC01203076BD70FD712078002813D028
:102FE00001F05CF80A2003F0BCFCDBE5EA490822AA
:102FF00061310120FDF70EFCDAE7E7490822613173
:103000000120FDF707FCE1E7E349082261310120D7
:10301000FDF700FCE6E7012204460276397006203F
:10302000B870DE4E3078002811D001F037F80A2051
:1030300003F097FC012020763D70BD7030780028A9
:103040000CD001F02BF80A2003F08BFCAAE5D24942
:10305000082261310120FDF7DDFBE8E7CE490822B7
:1030600061310120FDF7D6FBEDE7CD490978012953
:10307000BBD0C07F0028B8D1FEF79BFD92E570B5AC
:103080000020C54E7178491CC9B27170142938D31B
:1030900000257570317B3446203401290BD0707BBC
:1030A00000282ED0A07B401CC0B2A073C1072DD039
:1030B000FEF726FD32E0B17F002906D0012906D0B7
:1030C000022907D0032908D009E0B64807E04320C9
:1030D000400204E0B348D03001E087200002717F55
:1030E000425C002A0ED040290CD2425C3272491C4C
:1030F000C9B27177405CF072491C71776570FFF757
:103100000EFC70BD3573FEF7FBFC70BD0121F17242
:10311000316D4008085C3072FEF74BFDA07B07283C
:10312000F3D3757370BDF8B59B4901202031087049
:103130009D48203905789848CA7AC0799B4F9C49A8
:103140004000C31909789B4C072D03D09A4E082DD7
:1031500028D072E0385C5B78C0000019C45C9748E6
:10316000002A14D002789648521E0255082902D02F
:10317000FF2904D00FE0204607F022FD0BE0914824
:103180000079012807D1204607F01AFD03E00178F5
:103190008B48891E01558A48015D8B48415C8B48EC
:1031A0000155FFE4002A48D0385C5978715C884E9C
:1031B000325C0A433254874A135C0B431354012098
:1031C000174631182039CA7F335C1A43CA77142155
:1031D000091A3A468D18203D7B5CED7F2B437B54CA
:1031E000401CC0B21428ECD300257948475D7948CB
:1031F000405D07430026F80715D0FF21E8000019BD
:10320000805D724A11546A490978082902D0FF2961
:1032100003D008E007F0D4FC05E06A4909790129E8
:1032200001D107F0CDFC7F08761CF6B2062EE2D362
:103230006D1CEDB2142DD8D3B4E4092D02D00F2D9E
:1032400025D074E0385C5B78C0000019C45C002AAB
:1032500003D05B480021015512E0594A0120105566
:10326000082902D0FF2904D00AE0204607F0A8FC74
:1032700006E054480079012802D1204607F0A0FC5E
:103280004F48015D5048415C504801558AE4002A8E
:103290004DD0385C5A78B25C4D4B1A544D4E325476
:1032A0004D4B1A544D4B1A54082902D0FF2906D011
:1032B0000EE0C0000019805C07F082FC08E0414984
:1032C0000979012904D1C0000019805C07F078FC5D
:1032D00000253F484149475D3E48495D405D074301
:1032E0003D48405D084307430026F80715D0FF21FD
:1032F000E8000019805D354A11542D4909780829E4
:1033000002D0FF2903D008E007F05AFC05E02D4960
:103310000979012901D107F053FC7F08761CF6B228
:10332000062EE2D36D1CEDB2142DD2D33AE4122D49
:1033300002D1194E002A1FD0132DA7D1002AA5D0E3
:10334000385C23493F220A54224B1A540025204856
:10335000475D2048405D07430026F80767D0FF21FE
:10336000E8000019805D194A1154114909780829AB
:1033700054D0FF2955D05AE0B27A002A39D0002221
:10338000074D2D782A42D1D0385C5A78C0000019F8
:10339000805C134A082925E0E8000020AA010020EB
:1033A000C301002080850000AF0100209A7D00004D
:1033B000AE010020CA7E0000F66F0000FD7F000015
:1033C000F705002074010020A98A0000620F002088
:1033D00097040020AB040020BF040020D304002089
:1033E000FB04002009D2135CFF2B04D0FF211154F1
:1033F0000DE00122C4E7115409E0115CFF290AD055
:10340000491C1154115C082901D3FF211154FF49B3
:103410000120087004E400211154F3E707F0D0FB09
:1034200005E0FB490979012901D107F0C9FB7F08B3
:10343000761CF6B2062E90D36D1CEDB2142D86D3F9
:1034400003E470B5F34CF44AA179206C8900505024
:1034500000256571A06CC00712D06079A179C00009
:103460004018C0B2E071E572216CC90701D001219A
:10347000E172EA49085C2072FFF755FEFFF74FFA48
:10348000206C40082064A06C4008A0646079401C57
:10349000C0B260711328DDD370BD70B5DD4C00255E
:1034A000A078002829D0A279DB4990000958206C27
:1034B0004140A164002916D0E1780222002908D0F9
:1034C000636C83420CD1491EC8B2E070002803D05F
:1034D00010E0E27060640DE06564FFF7B2FF09E0A0
:1034E000E270606406E0E570521CD0B2A07106285C
:1034F00000D3A571FFF7C3FDA570C6482030017C3D
:10350000002902D00574FEF719FC70BDC1480121E5
:1035100020300170C248007802280DD1BD48C14A50
:10352000C0794000115C80184078BF4AC9008918F2
:10353000085CBE4AFF211154704730B5B54B0024DA
:103540009C71B54D98798000285818645C71186C8E
:10355000C00706D058799979C0004018D871FFF794
:10356000D5FF186C400818645879401CC0B25871D7
:103570001328ECD39879401CC0B298710628E1D387
:1035800030BDF8B5A34CA078002844D02046A44F05
:10359000C18E3A78481CA04E002580B2012A02D084
:1035A000022A06D019E07D221201914215D2E0864E
:1035B00013E02178002910D1A179226C8B00F25000
:1035C000491CC9B2A171062907D3A571E086042858
:1035D00003D901202070FFF7B0FF3878022802D10C
:1035E0002078002816D0A079216C8200B150317863
:1035F000012909D131890904090E402904D1B18A70
:103600004905490F022907D0401CC0B2A071062805
:1036100000D3A571A5701CE4FEF734F98448056158
:103620004561FEE783484168FF22120291434160F1
:1036300081484168C90AC902416070477F484168B2
:103640000122D203114341607D4841681F22D2010B
:103650001143416070477948416A0122D203114306
:1036600041627748416A1F22D2011143416270478B
:1036700000B56848817972480B0003F0A3FC06048A
:103680000B11171D230A6D48816A0122D2031143D1
:10369000816200BD816A0122D2021143816200BDB4
:1036A000816A012292021143816200BD816A012276
:1036B00052021143816200BD816AFF22013211432F
:1036C000816200BD816A80221143816200BDF8B52C
:1036D0000024FFF7B3FFFFF7BEFFFFF7C9FFFFF7B7
:1036E000A1FF584801256D0200786E002F010028C7
:1036F0006BD0072003F020F94E490868C00500D5BB
:10370000012402200A68920500D5044304200A68B7
:10371000520500D5044308200A68120500D5044369
:1037200010200A68D20400D5044320200A689204BD
:1037300000D5044340200A68520400D50443802089
:103740000968090400D50443FF2001303A490A689A
:10375000D20700D004430868800700D52C430868CE
:10376000400700D534430120C0020A68120700D583
:103770000443012000030A68D20600D50443086808
:10378000800600D53C43012080030A68520600D51C
:1037900004430120C0030A68120600D50443012037
:1037A00000040A68D20500D50443012040040A68D9
:1037B000920500D50443012080040968490500D51D
:1037C0000443FFF748FF20460FE41F480078002815
:1037D00003D0022003F0B0F802E00F2003F0ACF8B1
:1037E00014490868C00500D5012402200A68920522
:1037F00000D5044304200A68520500D5044308207C
:103800000A68120500D5044310201FE0B40100200F
:1038100074010020E8000020C0020020827900002E
:10382000AF0100209A7D0000CA7E0000620F0020D8
:1038300000C0054000400440006004400080044097
:1038400000A0044002000020030000200A68D20407
:1038500000D5044320200A68920400D50443402088
:103860000A68520400D5044380200968090400D581
:103870000443FF2001308F490A68D20700D0044377
:103880000868800700D52C430868400700D53443FA
:103890000120C0020A68120700D50443012000037A
:1038A0000A68D20600D504430868800600D53C4368
:1038B000012080030A68520600D504430120C0039A
:1038C0000A68120600D50443012000040A68D205E4
:1038D00000D50443012040040A68920500D5044342
:1038E000012080040968490500D46AE7044368E7B9
:1038F00071480168FF221202914301606D4801681E
:10390000C90AC902016070476B480168FF221202B0
:103910001143016067480168684A114301607047BC
:1039200065484168FF2212021143416061484168C5
:10393000624A114341607047FEB593200002C06B9C
:103940005F49884201D00120FEBD5F495D48CA79C8
:10395000805C800001905D4A01988018006C6B4685
:10396000C2B21A7003041D0E6B465D7003021E0E78
:103970006B469E70000ED8700290002A0BD00C4649
:10398000E07A00272034130003F01CFB0891072382
:10399000333E475584910120FEBD01220A774A4BF0
:1039A0005433012D02D0032D0FD080E0F206D20E49
:1039B00069468A70444954314978002802D011433D
:1039C000597074E09143597071E000286FD01E71F6
:1039D0006DE03D4B61331A78002802D02A431A70FB
:1039E00001E0AA431A70012008760E72002E5ED004
:1039F000FEBD01224A7634493C314F708F70002859
:103A000055D04D708E7052E001228A762E493831A1
:103A10004F7001284BD14D7049E0022D09D101288A
:103A200007D12B4A10702B48052202704770867010
:103A3000C7700F723BE0002826D0E07B002806D03C
:103A4000FEF75EF8607B022821D01F4807722573BD
:103A500066731D483A30077002994170A7731E497A
:103A6000A8004018006C184A1B4940314018012139
:103A7000E17313466C331F60596011464C310F805F
:103A8000038808304B8010650F4807720FE0E7731A
:103A90000020FEBD002809D0012048734F700B4B59
:103AA000019A4033D2180A65A073CF710F720020BB
:103AB000FEBD70470060044000400440FF07000066
:103AC0000000AA55DA780000E8000020809000008D
:103AD00081010020900100208097000010B5F74977
:103AE0000878C20709D0400840000870F44803F085
:103AF00047FAF44988600320087010BDF0B5F0481B
:103B00001438047D437DED4EEE4A31780027CD0711
:103B10009078002D1ED0EA4D143D490849003170BF
:103B2000042C01D1022B07D0FF20E875D7809770B5
:103B3000377097601770F0BD0121E975916829769B
:103B40000B0A6B760B0CAB76090EE9761021084355
:103B50009070EBE78907EED5C006ECD5D78097705B
:103B600037709760D7601770F0BD70B5D648017890
:103B7000D44C14342170417861708178A170C1787F
:103B8000E170017A2171417A6171817AA171C07A03
:103B9000E071CE4800210170E1790125012903D0AF
:103BA000E179022902D002E0057000E00570217879
:103BB000C748002914D02178802911D02178491EC6
:103BC00001706079C349087006F01AFC09F023F807
:103BD000A079C1490870C148057006F0FBFC70BDB2
:103BE00013210170EDE738B5B64C00222271B349BC
:103BF0000878C30750D0400840000870E280206970
:103C0000E16880004018AE4A102101F087FF20696A
:103C1000E268800010580090B14882420DD10178CE
:103C2000038805681B09ED0A2B4305680079AD0C74
:103C30002B43C00103430B4363700020009B00999A
:103C40001B04C9B21B0EC918009B1B021B0EC9180E
:103C5000009B1B0EC918A368C918A1602169491CE3
:103C60002161890051580091001DC0B24028E5D360
:103C7000E078401EC0B2E07000280DD10320207013
:103C80009848824206D19849FF200870FFF76DFFDF
:103C90000120207102F0A2FD38BDF0B587490878F7
:103CA000820731D5FD2210400870864C0020E0804C
:103CB000E078864601281FD90021E06884462569FE
:103CC0006246A80010587E4AC7B2143A52181775B7
:103CD00003041E0E567503021B0E9375000ED0755D
:103CE000BA19D2181018A2688018A0606D1C25613E
:103CF000091DC9B24029E2D37046401EC0B2E0702F
:103D0000002801D103202070F0BD6E4BD860D9701F
:103D10001A7070476A4A143A117F527F1202114397
:103D2000814206D9654900200870664988700120E3
:103D300070470020704708B500210091172849D02E
:103D400012DC132833D008DC052823D0102823D018
:103D5000112823D012281BD127E014282FD0152892
:103D60002FD0162814D133E0F0284AD00ADC554A67
:103D7000182891783BD019283ED0AB2831D0E028C4
:103D800006D132E0F12840D0F22840D0F32840D0CC
:103D9000002008BD012008BD012008BD6A460121A0
:103DA000524801F0BBFE012008BD012008BD464875
:103DB0006A4601213C3001F0B1FE012008BD01201E
:103DC00008BD6A4601214A4801F0A8FE012008BD4D
:103DD000012008BD6A460121464801F09FFE0120EE
:103DE00008BD02F002FD012008BD012008BDBF2072
:103DF00001409170012008BD4020014391700120D5
:103E000008BD09F010FA012008BD012008BD0120FD
:103E100008BD012008BDF8B5294914390F7D487D3A
:103E20000B7F497F09020B43244900250A78254C62
:103E3000D607002E17D0224E143E520852000A70A8
:103E4000042F0BD1FFF777FF002807D00120F07572
:103E5000A07811210843A070E580F8BDFF20F0751F
:103E6000A570E580F8BD9207FCD5A278D606F9D5F5
:103E7000EF263240A270E580104AFD2612783240CB
:103E8000142876D00CDC11284ED004DC052833D061
:103E900010280DD13CE0122852D0132808D15BE045
:103EA000152876D0162871D0172870D0AB286FD07F
:103EB000A5700D70A560A5602561F8BDE400002027
:103EC0007C0200206001002080970000C9010020D2
:103ED000B3010020C5010020C7010020B50100206A
:103EE0008090000040930000AE0100200F9300007E
:103EF000FCA30000BC9000000220FFF70BFF00288D
:103F0000D9D15B1C99B201225048FFF7FEFED2E7DF
:103F10000A20FFF7FFFE0028CDD15B1C99B20122D9
:103F20004B48FFF7F2FEC6E70A700A20FFF7F2FEE1
:103F30000028C0D1022219464548FFF7E6FEBAE73D
:103F40001420FFF7E7FE0028B5D15B1C99B20122CF
:103F50004048FFF7DAFEAEE70A701420FFF7DAFEFA
:103F60000028A8D1022219463A48FFF7CEFEA2E760
:103F7000FFE73020FFF7CEFE00289CD15B1C99B2F2
:103F800001223548FFF7C1FE95E702E00DE018E099
:103F900023E00A703120FFF7BDFE00288BD10222FA
:103FA00019462D48FFF7B1FE85E70120FFF7B2FE65
:103FB000002880D15B1C99B201222848FFF7A5FE9A
:103FC00079E70A700120FFF7A5FE00289FD10222A1
:103FD00019462248FFF799FE6DE70A700420207009
:103FE00069E710B51E480078030002F0EBFF0504F6
:103FF000070A0D100600FFF70EFF10BDFFF74DFE7C
:1040000010BDFFF7F0FD10BDFFF778FD10BDFFF705
:1040100065FD10BD10B5124BD888401C80B2D88009
:104020007D21090188420FD900200E4A0021840019
:10403000A4186161401CC0B21028F8D30A48D98086
:104040000170197002F0CAFB10BD00000090000062
:10405000C090000040930000C097000080900000D6
:104060006001002068020020E4000020FE49FA20E0
:104070000880FE4900200870FD4801210172E121FD
:10408000C90081627047F94900200870F849012091
:10409000C871FF20F4492D3008807047F0B5F5480D
:1040A000F34A0678F44B5578F44CF54F0020012183
:1040B000002E27D0002D25D0EE4D28705D6A0D43CF
:1040C0005D6209239371A12323800023ED4DED5CF4
:1040D0005B1C5E00A553DBB2082BF7D3FB68DB0645
:1040E000FCD43B68C0252B433B603B681B069B0F01
:1040F000032BFAD02388FB61D16110625070C82372
:104100009370D5E0E04E3678002E29D0002D27D0D0
:10411000DD4D28705D6A0D435D6210239371A2230B
:1041200023800123D94C5E00E55CD44CA5535B1C75
:10413000DBB2102BF6D3FB68DB06FCD43B68C02453
:1041400023433B603B681B069B0F032BFAD0CB4BF2
:104150001B88FB61D16110625070C8239370A7E087
:10416000CB4E3678002E22D0002D20D0C84D28709E
:104170005D6A0D435D6203239371A3232380C54DC4
:104180006E78A680AD786580FC68E406FCD43C6857
:10419000C0252C433C603C682406A40F032CFAD0B5
:1041A000FB61D16110625070C823937080E0BA4EF9
:1041B0003678002E29D0002D27D0B74D28705D6AA3
:1041C0000D435D6202239371A42323800123B34C2A
:1041D0005E00E55CA94CA5535B1CDBB2022BF6D359
:1041E000FB68DB06FCD43B68C02423433B603B6890
:1041F0001B069B0F032BFAD0A04B1B88FB61D161E0
:1042000010625070C823937052E0A54E3678002E8D
:1042100024D0002D22D0A24D287002259571A5250D
:10422000258060809F4E3678002E01D00326668060
:10423000FC68E406FCD43C68C02634433C603C681F
:104240002406A40F032CFAD0FD615C6A0C435C6267
:10425000D16110625070C823937029E05679002E06
:1042600026D0002D24D050715D6A0D435D6203237A
:104270009371A623238000237D4D1435ED5C5B1CD8
:104280005E00A553DBB2022BF6D3FB68DB06FCD441
:104290003B68C0252B433B603B681B069B0F032BF1
:1042A000FAD02388FB61D16110625070C8239370EB
:1042B0001378002B14D0714B7B4F40331C885B88E4
:1042C000B12C02D1156A022D05D06C4D4035AD8858
:1042D000B62C06D00CE0107010625907490F3970E7
:1042E000F0BD5A2B04D1012D02D1166A032E02D043
:1042F000B62C05D00BE0107010621173D172F0BDB6
:104300005A2B04D1022D02D1166A032E02D0B62CEC
:1043100006D00CE01070106203201073D172F0BD53
:104320005A2B04D1042D02D1166A032E02D0B62CCA
:1043300006D00CE01070106202201073D172F0BD34
:104340005A2B04D1062D02D1166A032E02D0B62CA8
:1043500005D00BE010701062FFF795FEF0BD5A2BF0
:1043600004D1072D02D1166A032E02D0B62C04D038
:104370000AE0107010629172F0BD5A2B04D10A2D20
:1043800002D1166A032E02D0B62C07D00DE01070B1
:104390001062D071108345490870F0BD512B04D1D3
:1043A000772D02D1166A032E02D0B62C09D00FE069
:1043B00038701070D07010623D490870FFF756FEDB
:1043C000F0BD512B04D1762D02D1166A032E02D0F6
:1043D000B62C0DD013E01070106210729062D08273
:1043E0001171507391732320D07332485062F0BD25
:1043F000512B04D1782D02D1166A032E02D0B62C8F
:104400000CD012E010701062FF239133536290625F
:10441000D0821071117415490870F0BD512B04D170
:10442000792D02D1136A032B05D0116A0329F4D325
:1044300010621070F0BD1070106251731E49087048
:10444000F0BDF0B50A4B00251D720B49486A0126E4
:104450003043486203209871084AA62010805820F3
:104460001C461434207029E0DE010020C401002025
:104470007C010020000100200040044028030020AF
:1044800000C001404901002003010020D8020020A3
:104490000101002024010020020100202001002051
:1044A0005C010020F300002068020020D5010020FC
:1044B000F900002070170000DC0100206670002069
:1044C000215C401C4700D153C0B20228F8D3B14848
:1044D000C168C906FCD40168C02421430160016899
:1044E0000906890F0329FAD01188C161DE611D62B6
:1044F0005D70C820987014205882F0BD70B5A64831
:10450000416A012319434162A44A03209071A449DE
:10451000A62008805120154614352870507A0128AD
:1045200021D0022822D08320687000202C5C401CFF
:1045300046008C53C0B20228F8D39648C468E406FB
:10454000FCD40468C0252C43046004682406A40F2E
:10455000032CFAD00988C161D36100201062507029
:10456000C820907070BD81206870DEE7822068707E
:10457000DBE770B58848416A012319434162874AE5
:10458000032090718649A6200880512015461435D5
:1045900028706120687000202C5C401C46008C5301
:1045A000C0B20228F8D37B48C468E406FCD404688F
:1045B000C0252C43046004682406A40F032CFAD001
:1045C0000988C161D361002010625070C8209070CA
:1045D00070BD70B57048416A0123194341626F4A4A
:1045E000032090716E49A62008805120154614358D
:1045F00028706520687000202C5C401C46008C539D
:10460000C0B20228F8D36348C468E406FCD4046846
:10461000C0252C43046004682406A40F032CFAD0A0
:104620000988C161D361002010625070C820907069
:1046300070BD70B55848416A012319434162574A19
:10464000032090715649A620088051201546143544
:1046500028706820687000202C5C401C46008C5339
:10466000C0B20228F8D34B48C468E406FCD40468FE
:10467000C0252C43046004682406A40F032CFAD040
:104680000988C161D361002010625070C820907009
:1046900070BD70B54048416A0124214341623F4BDF
:1046A000032098713E4AA620108051201D461435E3
:1046B0002870702068700020295C401C46009153CF
:1046C000C0B20228F8D33348C168C906FCD40168D7
:1046D000C0252943016001680906890F0329FAD022
:1046E0001188C161DC61002018625870C82199707E
:1046F00014215982187270BD28498878002814D076
:10470000401EC0B288704A7810430ED10120487014
:1047100021498A6A02438A621E480169082291433C
:1047200001610169042211430161704770B51A4D9E
:1047300028680123800704241849164A00280FDA44
:10474000506940070BD5D569086A461C0E62144EA5
:104750004000403635520B7090692043906170BD27
:1047600050694007FBD58E79C869B04206D3A86A64
:104770001843A8624B700020C86105E0431CCB6160
:1047800007494000085AD061D06990692043906180
:1047900070BD000000C00140004004407C010020CA
:1047A0002803002070B5FD4808250678AA02FC48B9
:1047B000FC495400330002F005FC120A0F161E26B5
:1047C0002C32393F464E545B626970787EB2416A42
:1047D00029434162F44875E0416A40221143416235
:1047E000F1482A306EE0416A0122520211434162CF
:1047F000ED48543066E0416A0122120311434162E0
:10480000E9487E305EE0486A10434862E648A830D6
:1048100058E0486A20434862E348D23052E0416A97
:10482000012211434162E048FC304BE0416A102212
:1048300011434162DD4845E0416A802211434162F3
:10484000DA482A303EE0416A012292021143416275
:10485000D648543036E0416A11434162D3487E3035
:1048600030E0D348416A29434162D048A83029E06A
:10487000416A022211434162CC48D23022E0416AAF
:10488000202211434162C948FC301BE0416AFF22EB
:10489000013211434162C74814E0416A0122D20249
:1048A00011434162C3482A300CE0416A214341620E
:1048B000C048543006E0486A0122D20310434862DF
:1048C000BC487E30BC4902880A6242884A628288BB
:1048D0008A62C288CA6202890A6342894A638289FB
:1048E0008A63C289CA63B449028A40310A60428A33
:1048F0004A60828A8A60C28ACA60028B0A61428BDD
:104900004A61828B8A61C28B0A62028C4A62428C43
:104910008A62828CCA62C28C0A63008D486370BD51
:1049200000B59E4909780B0002F04CFB120A0C0FEF
:104930001215181B1E202326292C2F3234373A3CFF
:1049400099482FE098482A302CE09748543029E0C5
:1049500095487E3026E095487E3823E093485438C9
:1049600020E092482A381DE090481BE08F482A300A
:1049700018E08E48543015E08C487E3012E08D48A7
:104980007E380FE08B4854380CE08A482A3809E01A
:10499000884807E087482A3004E08648543001E020
:1049A00084487E308449028840310A6042884A60E7
:1049B00082888A60C288CA6002890A6142894A6123
:1049C00082898A61C289CA61028A0A62428A4A620B
:1049D000828A8A62C28ACA62028B0A63428B4A63F3
:1049E000828B8A63C28BCA637349028C0A62428CCF
:1049F0004A62808C886200BDF0B56B4A67481446F5
:104A00000078FC340126274676036549FC37654D5E
:104A1000030002F0D7FA120A1826354451606E7C62
:104A20008A99A6B5D3E1F3F1F017002008244300DA
:104A3000D35A002B02D04B6A23434B62401CC0B2B6
:104A40001528F4D3F0BD152040244300D35A002B81
:104A500002D04B6A23434B62401CC0B22A28F4D3D5
:104A6000F0BD2A20012464024300D35A002B02D057
:104A70004B6A23434B62401CC0B23F28F4D3F0BDC5
:104A80003F20012424034300D35A002B02D04B6A59
:104A900023434B62401CC0B25428F4D3F0BD5420D1
:104AA0004100515A002902D0696A31436962401CB1
:104AB000C0B26928F4D3F0BD692001239B034100F3
:104AC000515A002902D0696A19436962401CC0B278
:104AD0007E28F4D3F0BD002001224300E35A002BCE
:104AE00002D04B6A13434B62401CC0B21528F4D36A
:104AF000F0BD152010234200A25A002A02D04A6AB3
:104B00001A434A62401CC0B22A28F4D3F0BD2A20BE
:104B100080234200A25A002A02D04A6A1A434A62FB
:104B2000401CC0B23F28F4D3F0BD3F2001239B02BC
:104B30004200A25A002A02D04A6A1A434A62401C22
:104B4000C0B25428F4D3F0BD54204200A25A002A27
:104B500002D04A6A32434A62401CC0B26928F4D388
:104B6000F0BD6920124908234200A25A002A02D04F
:104B70004A6A1A434A62401CC0B27E28F4D3F0BD90
:104B8000002002234200BA5A002A02D04A6A1A437D
:104B90004A62401CC0B21528F4D3F0BDF8010020D1
:104BA00000800440006004407A090020A00A002030
:104BB00000A00440C60B0020002000401520202348
:104BC0004200BA5A002A02D04A6A1A434A62401C7A
:104BD000C0B22A28F4D3E0E72A20FF2301334200A1
:104BE000BA5A002A02D04A6A1A434A62401CC0B22A
:104BF0003F28F4D3D1E71FE00FE0FFE73F20012378
:104C0000DB024200BA5A002A02D04A6A1A434A62B8
:104C1000401CC0B25428F4D3BFE7542001239B03A7
:104C20004200BA5A002A02D04A6A1A434A62401C19
:104C3000C0B26928F4D3B0E769200122D203410051
:104C4000795A002902D0696A11436962401CC0B2D6
:104C50007E28F4D3A1E73D484268FF2109020A43B8
:104C6000426002680A4302603948426839490A438F
:104C7000426002680A4302607047354801680722B3
:104C800052031143016034480168344A1143016002
:104C90003348016808221143016070472C480168BD
:104CA00007225203914301602B4801682B4AD243EB
:104CB000114001602A480168082291430160704751
:104CC00010B5284C00202060FFF72AFE2068022142
:104CD0000843206020688007FCD420680121084335
:104CE000206001F08FFD01F079FD10BD704770B5B7
:104CF000FFF7D4FF01F08BFD1B4C6078401CC0B265
:104D0000607000250A2815D318480178002911D1B0
:104D100001210170657001F0B8FDFEF7E9FDFEF7B5
:104D2000FFFDFEF7E5FD022001F006FEFEF7CFFCD9
:104D30000F490860FFF7C4FFFFF75EFE2078401CB4
:104D4000C0B22070122800D3257070BD004004400E
:104D500000600440FF07000000800440FB7F00006B
:104D600000A0044000200040F8010020EA000020DC
:104D70002801002010B50B22FD21E82001F038FFAA
:104D800001220A21E82001F033FF10BD70B50B228B
:104D9000FD21E82001F02CFF10220121E82001F084
:104DA00027FFE4220D21E82001F022FF01220E213D
:104DB000E82001F01DFFBF220F21E82001F018FFBD
:104DC00044221421E82001F013FF4C221521E82091
:104DD00001F00EFF0D22FD21E82001F009FF002067
:104DE0007049714C0A5C2254401CC0B24028F9D36F
:104DF000002240231146E82001F03BFF0022FD2164
:104E0000E82001F0F5FE0022A0231146E82001F081
:104E10000BFF0020634DAD1E2946423103E00A5CC2
:104E20002254401CC0B22A789042F8D300222B783A
:104E30001146E82001F01DFF0122FD21E82001F0CC
:104E4000D7FE0022A0231146E82001F0EDFE00204D
:104E50005449503103E00A5C2254401CC0B26A78C5
:104E60009042F8D300226B781146E82001F001FF50
:104E700070BD10B50B22FD21E82001F0B9FE002223
:104E80000A21E82001F0B4FE10BD10B54748426881
:104E900002210A43426041620A2001F062FDFFF7ED
:104EA000E8FFFFF773FFFFF765FF10BDF8B5404C53
:104EB000207800280FD00122FD21E82001F098FE83
:104EC0003E2380222021E82001F0D3FE0020207024
:104ED00038490870F8BD00203549334B89788C4635
:104EE000334949788E4634490A782E4960310C5C42
:104EF0003249095D6546002D01D0314D695C75462A
:104F0000002D31D02D4D670036352D5D51436E009B
:104F1000AD192C4EE419765D224F4E43F60A9637B2
:104F20003F5DDE55274E1F4FAD19AE7896374E4385
:104F3000F60AE4196778DE556D78A4784D43E90ADE
:104F40001955401CC0B23628CFD30022FD21E820DD
:104F500001F04EFE802300222021E82001F089FE8E
:104F6000134801210170F8BD144D5143A23D2D5D40
:104F70000C4F4D43EE0A6500651996377F5DDE558F
:104F80000E4E084F363E365D96374E43F60AED1903
:104F90006F78DE55094E6C3E345D4C43E10AAC78C7
:104FA0001955CEE752D30000C6150020006004401A
:104FB0000A020020150200201B020020821000209F
:104FC000A98A0000E68D0000FC48FB49827A895CD2
:104FD000C172C28A4A431103090C8182418270471F
:104FE00000B5F64B0B205870FF209130D882FFF7A8
:104FF000EBFFF3490120087000219970F14A10700D
:1050000099710020F04A1154401CC0B23628FAD3DE
:1050100000BD70B5E94C022060700F208001E08275
:10502000FFF7D2FFE64900200870A070E54908703C
:10503000A071217CE54D4C000C19295D65196C7837
:10504000E34BE44EE44AAD78195434541554401CF3
:10505000C0B23628F8D30020DB49FF220A54401C96
:10506000C0B23628FAD370BD70B5D44B0220587048
:10507000C820D882FFF7A8FFD1480021017099709D
:10508000D0480170997119740020D04D4C000C1952
:10509000295D65196C78CE4BCE4ECF4AAD78195448
:1050A00034541554401CC0B23628F8D30020C64AE8
:1050B000FF211154401CC0B23628FAD370BDF0B5A0
:1050C000BE4B092058703C20D882FFF77DFFBC49B9
:1050D0000020087098709871BA490870002220E08A
:1050E0000021BE4B5000C0188646BD48B74C835CBB
:1050F00058001818265C0019477880788446704656
:10510000405CB84C45006353B14C2654B14C275415
:10511000B14C65462554491CC9B20229EFD3521C33
:10512000D2B2B14800788242DAD30020A64AFF21E9
:105130001154401CC0B23628FAD3F0BDF0B59F4BD5
:105140000A205870D882FFF73FFF9D490020087061
:1051500098709C490870987100219D4B9D4E9E4F00
:10516000A248405CA24A4C00125B9E4C4500625330
:10517000A04C2478A24204D300221A5432543A5448
:1051800009E05400914D1219AC5C1C54521954782A
:10519000345492783A54491CC9B23629E0D30020DD
:1051A0008949FF220A54401CC0B23628FAD3F0BD08
:1051B000F0B5824B052058701C20D882FFF704FF01
:1051C0007F48002606709E709E717E4806701E7491
:1051D0000020844F7D4D8549095C874A125C9219F5
:1051E0004B00FA525300D218794BAC5C5C54521904
:1051F000784B54785C549378774A5354401CC0B22F
:105200003628E8D30020704AFF211154401CC0B258
:105210003628FAD3F0BD00B56848017A052903D9CC
:105220000121C90349780172007A030001F0CAFE26
:105230000A060C0F1215080808080908FFF7B8FF3E
:1052400000BDFFF77BFF00BDFFF739FF00BDFFF793
:105250000BFF00BDFFF7DDFE00BDFFF7C1FE00BD87
:1052600056486649027B895C417370470020564A64
:1052700000211154401CC0B23628FAD3704730B513
:10528000FFF7F4FF4D4C0025E5700120C003817A43
:105290002172C17A6172017B2173407BA072207AF6
:1052A0005749400040184078A073FFF7D9FFFFF737
:1052B000B2FFE570E57330BD4048807900280AD020
:1052C0000020414A115C002901D0491E1154401CA4
:1052D000C0B23628F6D37047C8E7F0B5002137488A
:1052E000404CC5783A4E4148405C002D12D04200F7
:1052F000A35A002B1AD05B1EA3523E4B4200A25A67
:105300001B789A4217D300223254324B1A54324B34
:105310001A541CE04300E25A521C92B2E252394F36
:105320003F88BA42E9D30022E252E6E7354B1B88B8
:105330005B1EA352E1E75300244FD218BB5C3354E9
:10534000D219244B57781F549378234A1354491C7D
:10535000C9B23629C7D3F0BDF0B50023214F26E0EE
:10536000002116481D4AC078844658008218964687
:105370006246012A48D03A5A002A50D0521E3A5268
:105380007246525C3C5A65006419104D2E5D104DFA
:10539000AE540E4D64190F4D6678AE54A5780E4C80
:1053A000A554491CC9B20229E2D35B1CDBB20E48EA
:1053B00000788342D4D3F0BDFAD800000E0200205A
:1053C0000C0200200B02002082100020A8D4000054
:1053D000E00F0020161000204C10002058D80000CC
:1053E000A9D80000EE100020FF8F000022D8000096
:1053F000B4D70000FD8F00007ED70000F2D8000077
:10540000EF8F000020D800003A5A521C92B23A5254
:10541000FE4C2478A242B3D300223A52B0E7FB4AB2
:105420001278521E3A52ABE7F0B50021F848C47822
:10543000F84803885B1EF848405C002C0CD0F74EFF
:105440004500725B521C92B27253F24F3F88BA42CF
:1054500009D30022725306E0F04E4200B55A002DE7
:1054600010D06D1EB552ED4A4500525BEC4D2D78C3
:10547000AA4209D3EB4D00222A54EB4D2A54EB4D9E
:105480002A540EE0B352EEE755005219E84DE54EAE
:10549000AF5C37545219E44D56782E549578E34A50
:1054A0001554491CC9B23629C5D300213520421AEA
:1054B000D948805C002C0CD0D84D6C352A5C521C2D
:1054C000D2B22A54D34E3688B24209D300222A548B
:1054D00006E0D24D6C352A5C002A17D0521E2A54A1
:1054E000D04DD14E2A5C375CD719D04A125CD742D6
:1054F0001AD1CA4ACA4F6C32125C3F78BA4207D3FB
:1055000000222A543254C94D2A540DE02B54E7E7A7
:105510005700D219C64FBF5C2F54C54D521955784C
:1055200035549578C14A1554491CC9B23629BDD3A2
:1055300041E7F0B50021B648B84CC578B94EB64839
:10554000405C002D18D04200A35A002B20D05B1ED7
:10555000A3524200A25AB64F5300D218BB5C335438
:10556000D219B14B57781F549378B04A1354491C41
:10557000C9B23629E3D31EE74300E25A521C92B265
:10558000E252A74F3F78BA42E3D30022E252E0E76B
:10559000A34B1B785B1EA352DBE7F0B500209F4EA8
:1055A000A44FA2361FE0A4490978002909D0315C34
:1055B000491CC9B231543A78914207D30021315481
:1055C00004E0315C002913D0491E3154325C9B4900
:1055D0009B4D895C4200AC5C9A4B1955521952782C
:1055E0009954401CC0B2984909788842DBD3E2E65E
:1055F0003978491E3154E9E770B58F4887490378F7
:1056000035220888002B07D0401C80B2088036283D
:1056100006D30020088003E000280DD0401E08803B
:1056200008887D4B195C894C864D26786E54101A7B
:10563000185C2178295470BD0A80F1E7F0B500208C
:105640007D49764A0B787B4C7C4D7E4FA232002BF5
:1056500009D0115C491CC9B211542678B14207D354
:105660000021115404E0115C002909D0491E115495
:10567000115C695C3954401CC0B23628E7D39AE605
:105680002178491E1154F3E770B56149087C401C2C
:10569000C0B20874624A1278904201D300200874A4
:1056A0000020097C624D4C000C19295D65196C784D
:1056B0005C4A5D4E5D4BAD78115434541D54401C12
:1056C000C0B23628F8D370BD51498878401CC0B2AA
:1056D00088705F4A1278904201D3002088700020C1
:1056E000584A89781154401CC0B23628FAD3704702
:1056F00010B500204649574A524C497AFF231154AD
:105700002354401CC0B23628F9D310BD70B5404CAC
:10571000E07B00283DD1607900230125002803D0DB
:105720006371FFF7C9FDE571207800282CD0237044
:105730006078030001F046FC0C070A0D27101913CE
:105740001C161F222527FFF7D3FF1CE0FFF7BCFF25
:1057500019E0FFF799FF16E0FFF770FF13E0FFF77E
:105760004BFF10E0FFF719FF0DE0FFF7E2FE0AE044
:10577000FFF75AFE07E0FFF7EFFD04E0FFF7ADFD8E
:1057800001E0FFF7A9FDE571E079002801D0FFF7FE
:105790008DFB70BD1E49304A087A4000135C4B7285
:1057A000801840788873704730B5194D00236B70AE
:1057B0006420E882FFF708FC28480370AB70284992
:1057C00001200870AB710020224A1E4C697AFF2329
:1057D00011542354401CC0B23628F9D330BD30B523
:1057E0000B4D00236878012800D0AB7001246C7049
:1057F000FF201930E882FFF7E7FB184804701848CB
:105800000470AB7100200F49124C2BE0FF7F0000A9
:105810000E020020F0D8000022D80000EE10002078
:10582000FD8F0000E00F0020161000204C1000201B
:10583000A8D40000FE8F0000C9010020E8D60000B7
:1058400058D8000082100020A8D80000FD7F00007A
:10585000FE7F0000B8100020EF8F00000C02002037
:105860000B0200206A7A0B542254401CC0B2362826
:10587000F9D330BDF0B5784B042058706420D8823D
:10588000FFF7A2FB7549002008709870744A012147
:1058900011709871734D744C744A754E754F5B7AE4
:1058A000295C21541354715C3954401CC0B2362811
:1058B000F6D380E5F0B5684E08207070A020F08225
:1058C000FFF782FB6549002008703074644A0121AB
:1058D0001170B071684F11E06849634A095C115456
:1058E000674D4300EA5C634CA1545B195B78E1545B
:1058F0005E4C717AA154E154401CC0B239788842A0
:10590000EAD358E530B5544B062058704B20C00000
:10591000D882FFF759FB5149002008709870504A0F
:105920000121117099715049A2390880554C207895
:10593000554A504915780D543520205C12780A5488
:1059400000204A4A597A1154401CC0B23628FAD372
:1059500030BDF0B5404B072058703220D882FFF799
:1059600033FB3E490020087098703D4908709871DB
:105970000021444D454E685C4A003B4B4400B25AFE
:10598000A23B1A53424B1B789A4207D3414B002249
:105990001A54414B1A54414B1A540CE05300D2187C
:1059A0003F4F3C4BBC5C1C54D2193B4B54781C54AD
:1059B00093783A4A1354491CC9B23629DBD30021E3
:1059C000354B3520421A2F48805C304A4C00125D1E
:1059D000254C363C22542F4C1E5C255CAE192F4DB5
:1059E0002F5CFE4212D12A4E3678B24204D30022F6
:1059F00022541A542A5409E056009219284EB75CD2
:105A00002754921954781C5492782A54491CC9B2CC
:105A10003629D6D30020174AFF211154401CC0B2AA
:105A20003628FAD3C7E40C49888A401E0004000CCB
:105A3000888203D1488A888201200870704706490D
:105A40000879401CC0B20871042803D900200871ED
:105A500001204871704700000E0200200C02002057
:105A60000B02002048D7000090110020B810002041
:105A7000E8D6000082100020FF8F00008ED80000C2
:105A800058D8000022D80000FD7F0000CAD80000CE
:105A9000FD8F0000E00F0020161000204C100020A9
:105AA000A8D40000314902228A6008618868402237
:105AB000104388604868C007FCD1704730B52B4C54
:105AC00063680425AB4363600123A360206100BFCA
:105AD00000E000BF6068C007FBD10CE0107853788D
