:020000040000FA
:10000000181A0020CD6A0000D16A0000C90600005D
:1000100000000000000000000000000000000000E0
:10002000000000000000000000000000D56A000091
:100030000000000000000000D76A00000166000018
:10004000DB6A0000F9090000000000000000000069
:1000500000000000000000006744000000000000F5
:100060000000000000000000DB6A0000000000004B
:10007000DB6A0000DB6A0000DB6A0000DB6A00006C
:100080003B650000000000000000000000000000D0
:100090000000000000000000000000000000000060
:1000A000DB6A0000D9660000DB6A00000000000087
:1000B000D3080000FB080000DB6A0000DB6A0000D8
:1000C00000F002F800F032F80CA030C8083824180C
:1000D0002D18A246671EAB4654465D46AC4201D180
:1000E00000F024F87E460F3E0FCCB6460126334280
:1000F00000D0FB1AA246AB4633431847C4D40000D5
:10010000E4D400000023002400250026103A01D387
:1001100078C1FBD8520700D330C100D50B607047BF
:100120001FB506F069FD1FBD10B510BD06F01CFE21
:100130001146FFF7F5FF00F0E9F906F034FE03B4CD
:10014000FFF7F2FF03BC06F039FE00000148016032
:1001500001480047240006400103FF1F30B40C494A
:100160000C684A6823681068C0181060241D121DAE
:100170008C4207D28A4208D20C604A6030BC4000F0
:10018000400870470C00DC3CF6E70A00DC3AF3E775
:10019000B0170020F8B503F01FFEFE4801780029D3
:1001A00076D000250570FC4AFC491068002804D070
:1001B000401E1060002800D10D70F94A01231088FC
:1001C000002806D0401E80B21080002801D1F548DA
:1001D0000370F54A106800285AD0F44E3478002C89
:1001E00001D0136006E0F24B09781B78194301D166
:1001F000401E1060106800284AD104F0EFFB06F0A2
:1002000096F906F0E4F9EB48016880229143016019
:1002100003F056F903F08FF9E749486A402210438A
:100220004862E6490868E64A400840001043086012
:10023000E44805610CF0CEFFE3480078002801D1C6
:1002400000F06FFB3078002801D000F088FBDF4F12
:1002500038690921C906884338610A2006F0EFF998
:10026000DB4C00F036FC3D610220206030BF256091
:1002700030780028F5D100F0B9FB06F0B9F906F0A6
:1002800049FA06F082F903F085F806F05DF9357059
:10029000F8BD70B5BF48CF4D01780024002905D0C6
:1002A00004702888002801D0401E288003F037FD04
:1002B000C948006980072DD5288800282AD1C82080
:1002C00006F0C3F904F079FB06F031F906F07FF986
:1002D000B848016880229143016003F0F1F803F00F
:1002E0002AF9B6480168B64A490849001143016035
:1002F000B44804610CF06EFF04F070FB00F0F7FBF3
:1003000006F076F906F006FA06F03FF903F042F837
:1003100006F01AF9B14D2878012806D10822B04913
:1003200000F0E6F9002800D12C70AE4D28780128A5
:1003300007D11022AC49022000F0DAF9002800D1E0
:100340002C70AA4D2878012816D0A94D28780128AC
:100350001BD0A84D2878012820D0A74D2878002848
:1003600009D0A649052008700422022000F0C0F937
:10037000002800D12C7070BD0322A149022000F09A
:10038000B7F90028F7D12C7070BD02229D491046A4
:1003900000F0AEF90028F7D12C7070BD05229A4903
:1003A000022000F0A5F90028F7D12C70964884703F
:1003B000C470047170BDF8B594484178002970D0BC
:1003C000002444709249934E088800280FD0401EA4
:1003D00080B2088000280AD13078002802D0012895
:1003E00003D004E003F0CCFE01E003F024FF8A49CF
:1003F0000878401CC0B20870322821D30C706548C0
:10040000012505708549087800287CD0401EC0B2BF
:100410000870002877D1824F3878C043820781481E
:100420000FD10278002A0CD00CF03EFE7E480470FA
:100430003C703078012866D103F0C8FF7B48047017
:1004400061E07B4A1378DB439B070FD10378002BD5
:100450000CD014700CF0ADFE76480178012903D061
:1004600005700CF05FFE4EE00470FAE7724A1378F4
:10047000DB439B0716D10378002B13D014700CF0CC
:100480008FFE4B480178002905D004700CF04AFE1D
:1004900003F06CFF37E005700CF044FE03F036FF0C
:1004A00031E032E0654A1378DB439B0711D10078D5
:1004B00000280ED014700CF07CFE614801780129F0
:1004C00003D005700CF02EFE1DE004700CF02AFE27
:1004D00019E05C480078F12803D0F22801D0F32815
:1004E00011D1307801280ED1574A107800280AD04F
:1004F000401E10700320087040485121017089216E
:1005000041703D48057001F044FAF8BD06F039FB32
:1005100006F0F2FA4D491F2008604D4E306A012561
:100520002843306200F085F9384C0020A070EF03BA
:10053000F8894849884200D1A57006F026F806F0EF
:1005400057F805F0B1F901F00FFA06F00BF9B87A97
:10055000354908702F4D2878012801D100F0B0F9F5
:10056000A078002804D009F0C4FF0020287001E022
:1005700009F090FF06F0CEF83748B061374E0F4FC4
:10058000FE60FFF718FF3648A178007808436BD06B
:1005900068E069E0A0010020980100207C010020B3
:1005A0008A010020C9010020940100207E01002062
:1005B0005601002000E0054000A00440000001407A
:1005C0000000FA5A00E000E07B01002000C0054076
:1005D000402003408401002050020020FA00002047
:1005E00041010020FD00002010030020FB0000203E
:1005F000FC000020FE000020790100208601002080
:100600001C010020180100203401002000000020FF
:100610009C0100209E0100209F010020F900002085
:1006200006010020F20000207D010020780100205A
:100630000A0100200B010020080100200701002012
:1006400011010020F000002077010020002004406C
:1006500000000640AAAA000002C00000AA55FA5AEB
:10066000A301002002F0A8FD0CF027FB2878002849
:1006700004D0012884D1FFF78DFD81E7FFF709FE43
:100680007EE770B50CF0F4FC03F0D3FE124E307828
:10069000401CC0B23070042815D30CF065FD002456
:1006A0003470012575700CF06BFD0C49087800283A
:1006B00009D0401EC0B20870002804D10848057057
:1006C00008484470847070BDBFF34F8F07490648D7
:1006D000C860BFF34F8FFEE70000002057010020E5
:1006E000FB0000201C0100200400FA0500ED00E0E2
:1006F000F8B506460D4617464248B100081802688C
:10070000002A01DB0220F8BD002E03D0042E01D800
:10071000402F01D90420F8BD0068400F042801D003
:100720000120F8BD3848805D002804D0304600F034
:100730004CF90320F8BD354808180068B84201D2CA
:100740000520F8BD701E3249800008580090002432
:1007500014E0295D641C285D00020843641C295DC7
:1007600009040143641C285D00060843641C01461B
:10077000009800F0A0FA0098001D0090BC42E8D359
:10078000F9B2304600F030FA0020F8BD70B5234BC6
:10079000204C1968228800251F4E481C002A0CD0C6
:1007A000012A15D0022A1ED0032A05D1FF2925D2FD
:1007B000012109043160186070BDFF2904D2FF21B6
:1007C00001313160186070BD1D600120208070BD56
:1007D000FF2904D2FF2109043160186070BD1D603B
:1007E0000220208070BDFF2904D2FF210902316060
:1007F000186070BD1D600320208070BD1D602580C5
:1008000070BD000018C00540B90000203C02002067
:100810002C020020CC000020D4000020D0000020BA
:10082000421E032A04D8FC4A800080188038C16721
:10083000704770B500F0FEFD00F098FF06F0A1F9DA
:1008400006F05AF9F5480168102319430160402168
:100850000120FFF7E5FF80210220FFF7E1FFC02123
:100860000320FFF7DDFFE0210420FFF7D9FFEC486C
:100870004021016080224260C0228260E022C2608A
:10088000E8480160436083600821C1600161E24C77
:10089000E548483C2060022060611F25ED063220BB
:1008A00005F0D3FE2561DC48610408384162DF4968
:1008B000C162012000F055FA012000F043FA70BD3A
:1008C00010B5D549002048390861012000F041FAEF
:1008D00010BD10B51C2000F044FAD649D448086277
:1008E000D548016901229204114301611C2000F0E6
:1008F00030FAD2490120087010BD10B51D2000F05B
:1009000030FACF49CA480862CB48016901229204F3
:10091000114301611D2000F01CFAC8490120087034
:1009200010BD70B5C3480024C4604461C04D056269
:100930001F21C90181611C2000F013FA1C2000F066
:1009400001FABF48C460446105620121C9038161A5
:100950001D2000F006FA1D2000F0F4F970BD10B55E
:10096000B448002484611C2000F0F3F9B448846189
:100970001D2000F0EEF910BD10B5AE480021C16099
:100980004161AB4901620921C90181611C2000F06C
:10099000E8F91C2000F0D6F910BD01209E49C002E4
:1009A00048398860704701209B4980024839886037
:1009B0007047012098494002483988607047FF20FD
:1009C0009549013048398860704704280DD8924A0B
:1009D0008100303A8918002804D18F48483840688F
:1009E000C00102D4072040070860704710B506F028
:1009F000C8F800F0EDF910BD10B5874C483C6268AE
:100A00000020C043A060002A08D0500F15D0002A53
:100A100007DAFFF7EBFF00F0B7F93DE0FFF7E6FF7D
:100A200010BD500002D500F0C4F935E0900033D578
:100A3000FFF7DCFF00F0C3F92EE01002C00E18D063
:100A4000100202D500F01DFC26E0500202D500F095
:100A50005CFC21E0900202D500F098FC1CE0D00282
:100A6000800F19D00320C004A0600020FFF7ADFF65
:100A700012E01005000F0FD0D00501D5FFF79FFF42
:100A8000900501D5FFF795FF500501D5FFF78BFFC6
:100A9000100501D5FFF781FF206810BD00206949CE
:100AA000401C8842FCD370471E20401E411CFCD1D4
:100AB000704700B5584A0620483A5061FFF7F4FFE6
:100AC00005205061FFF7EAFF506904218843506117
:100AD00000BD5D480121C160C168C906FCD5022185
:100AE00001615B4A59491160002101607047F8B506
:100AF000514E3169022081433161474F483F786848
:100B0000400030D538690921C90688433861306909
:100B100000240006494D002803DA2C70FFF701FF7E
:100B200014E002F037FC4B484168821511434160E4
:100B3000416A1143416248484168082211434160BB
:100B4000416A114341622C70FFF716FF0A2005F03D
:100B500076FD3C60FFF7BDFF3348386078684000A1
:100B600002D4FFF743FFF8BD3C490420086030BFC2
:100B7000FFF73CFF2878002816D02C703849142045
:100B8000088031693748884307D1306901218904D9
:100B900088433061B068012809D07868400003D5E7
:100BA0003069022108433061FFF720FFF8BDFFF7ED
:100BB00080FFF8BD18494839CA6B012383409A4326
:100BC000CA637047042805D813498000303940189B
:100BD000002101607047042805D80F498000303992
:100BE0004018090701607047042807D80A4A8000A6
:100BF000303A80180522520789180160704706496B
:100C0000383148600220C860C8688007FCD4886812
:100C1000154908607047000048C0054000E00540E5
:100C20002C0200203C020020100000B00440000014
:100C3000FFFF000000A0044050020020B800002088
:100C4000008004400A280000000006400200FA5A12
:100C50000020064000400440006004404020034063
:100C60008401002080000400DC00002000B50A465A
:100C7000402A0ED2401E3E49800008589108401874
:100C8000FFF7BDFF9007C10E3A480068C840C0B2E8
:100C900000BD002000BD00B510290AD2401E344A14
:100CA0008000105889004018FFF7A9FF31480068FC
:100CB00000BD002000BD304A506091600120D0602E
:100CC000D068C007FCD1A5E730B50B46402B15D244
:100CD000401E274980000858990845182846FFF704
:100CE0008EFF244804689807C30EFF209840844371
:100CF0001146994021432846FFF7DDFF30BD1029FA
:100D000088D2401E1A4B800018588900401811469E
:100D1000D1E77FE7184A403A906317480221016003
:100D200001688907FCD4D06B1449086072E7124A45
:100D3000403A9063D1631048012101600168C907FE
:100D4000FCD167E7C106C90E012088400C49086044
:100D500060E7C106C90E012088400949803108605A
:100D600058E7C106C90E012088400649086051E7CE
:100D70002C020020DC00002080C00540D8000020AC
:100D800000E100E080E200E010B50020F74AC04337
:100D90009060F7490120086100208860D060FFF76B
:100DA00014FE01242046FFF70DFF641C042CF9D922
:100DB00010BDEF4801690222114301617047EC4800
:100DC0000169042211430161E849D0068860704737
:100DD000E64801690922D206114301610121490651
:100DE000816070470120E14980068860704710B536
:100DF000DF4CA06801280CD1DE4A002000211154EC
:100E0000401C0428FBD92079012802D8A278002AA6
:100E100003D00020FFF7D9FD10BDD74A1154FFF7CA
:100E2000C9FE206901210904084320610021084608
:100E3000FFF7DAFE10BD10B5CD4CA068012814D123
:100E40002078812811D1207901280ED8CA49095C5F
:100E50000020FFF76CFF20690121C90308432061CE
:100E600001210020FFF7C0FE10BD0020FFF7ADFDFF
:100E700010BDF8B5BF4DBE4E3069800607D5B078BD
:100E8000102101240027002805D0012819D00020B6
:100E9000FFF79BFDF8BDB76030690843306101275B
:100EA000EC553846FFF78EFE7F1C042FF8D93069C9
:100EB000012109040843306100210846FFF794FE30
:100EC000F8BDB46030698843306100242F55002C90
:100ED0000CD02046FFF77FFEA4480069611EC84081
:100EE000C00703D000212046FFF77EFE641C022CC1
:100EF000ECD930690121090408433061002108461A
:100F0000FFF772FEF8BD70B5994DA9680020FFF794
:100F10000EFFA868012806D101242046FFF75BFEDA
:100F2000641C022CF9D9954800210160286903212D
:100F300089030843286101210020FFF755FE70BD99
:100F400010B50020FFF741FD10BD10B5044618068E
:100F50001204104309020843204310BDF8B5884F1E
:100F60003C688348854EC0883168884200D2306032
:100F7000306800281DD00025E378A27861782078B9
:100F8000FFF7E3FF0146A800FFF7D1FE241D6D1C0B
:100F9000EDB2102DF0D33068402815D34021002049
:100FA000FFF722FE386840303860306840383060E3
:100FB000F8BD00210846FFF717FE6C488169012241
:100FC000120711438161F8BD3068C1B20020FFF7FC
:100FD0000BFE00203060F8BDF8B500240020644905
:100FE000684BCA780D798F780C26014671435E5C98
:100FF000B24211D1C9184E78B5420DD18E78B742A0
:101000000AD10C225043C01882885C4802605C48B8
:1010100089680160012402E0401C1028E4D3002C00
:1010200008D0534908690122D20310430861FFF731
:1010300095FFF8BD0020FFF7C8FCF8BD10B54C487F
:101040000169202399430161016940221143016133
:101050008178002902D002691A4302610173016993
:10106000012212041143016100210846FFF7BCFD73
:1010700010BD70B53E4D28784406640E000602D5BA
:101080000020FFF7A2FC002C05D0022C0FD000207E
:10109000FFF79BFC70BDA8780128FBD128693A496D
:1010A0000843286100210846FFF79EFD70BDA8781F
:1010B0000028FBD128794006400E411E0129F5D8B1
:1010C000A9680129F2D12B4A1154FFF77EFC286947
:1010D000012109040843286100210846FFF784FD27
:1010E00070BD70B5224D28784406640E000602D506
:1010F0000020FFF76AFC002C1AD0022C17D1A87828
:10110000002814D128794006400E0022194BE10333
:1011100000281ED002280AD8AC68012C07D11A5426
:1011200028690843286100210846FFF75DFD70BD6E
:10113000A8780128FBD12869802188432861286983
:10114000114980390843286100210846FFF74CFD0A
:1011500070BD28698006FBD51A702869084328618C
:1011600000210846FFF740FD70BD000000C00540AB
:1011700050020020B9000020C8000020C400002058
:10118000C0000020040000208001010070B5B84DAF
:1011900028784406640EC00901D1FFF716FC012629
:1011A000F603002C15D0012C27D0022CDCD1287995
:1011B0004006400E0228D7D8AE49095C0020FFF750
:1011C000B6FD28693043286102210020FFF70CFD9D
:1011D000CAE72869000604D502210020FFF7A7FD11
:1011E00003E000210846FFF7A2FD2869304328618B
:1011F00002210020FFF7F8FCB6E7A8680128B3D168
:1012000068790028B0D128790128ADD80021084696
:10121000FFF78DFD28693043286102210020FFF788
:10122000E3FCA1E710B592484078030005F01AFEF0
:101230000C070A250D25101316191C1F2225FFF770
:10124000A5FF10BDFFF74DFF10BDFFF712FF10BD4A
:10125000FFF7F4FE10BDFFF7BFFE10BDFFF770FEF5
:1012600010BDFFF750FE10BDFFF703FE10BDFFF7E6
:10127000E2FD10BDFFF7BBFD10BD0020FFF7A5FB91
:1012800010BD7CB533207C4CC004A0600020FFF76B
:10129000A2FC6068400331D4754C20690321C90366
:1012A000884320610020FFF735FD744D28680190C8
:1012B0000420FFF72FFD286800900198C0B220702D
:1012C0000199090A61700199090CA1700199090E2F
:1012D000E170009921710099090A61710099090C66
:1012E000E18060210840002802D0202803D008E0D7
:1012F000FFF798FF7CBD00F007FA7CBD0120800459
:10130000A0600020FFF761FB7CBD70B501205A4E44
:101310008005B0605A4DA87C022815D10020A87421
:101320006869584988420DD1A8695749884209D14E
:101330000024A0000021FFF7FAFC641C402CF8D325
:10134000FEF704FF0420A874494C20694F4D400665
:101350000CD52069402188432061207BF06000206B
:10136000FFF733FB2069A8432061FDE6E0880028F1
:1013700008D02069C00305D4FFF7F0FD2069A84319
:101380002061F1E60020FFF720FBEDE6F8B5012132
:101390003948490581603A4DA87C384E012819D05A
:1013A000686D80050DD5686D091388436865002058
:1013B000FFF7B0FC30682870686D012149030843CD
:1013C00068652B4C2069000425D400210846FFF7EE
:1013D0000BFC29E00024A0000746FFF79BFC3068C7
:1013E00079194861641C102CF5D30220A87468692F
:1013F0002449884203D1A86923498842E1D024487E
:101400000122017811430170224800780428D8D1C4
:1014100002F002FAD5E718484168C90104D481698D
:101420000122D2061143816120690121C903884349
:101430002061F8BD00200F4A00211154401C0528EE
:10144000FBD30020144A1154401C0428FBD3084845
:10145000017041708170C17001714171C180816002
:1014600001730169012252041143016170470000B8
:1014700050020020B900002000C00540D800002024
:1014800064020020AA42895AFF7162CC0000010068
:10149000E400002058010020C800002010B5B84A20
:1014A000107821281BD1B749486D01231B0318432D
:1014B00048651079012812D89078002804D14B6D26
:1014C0000324A402A3434B65487410690121090455
:1014D0000843106100210846FFF786FB10BD00207D
:1014E000FFF773FA10BD10B5A5480178212914D172
:1014F00001690122120411430161A2494A6D0123CD
:10150000DB021A434A650279012A06D8C0780874BA
:1015100000210846FFF768FB10BD0020FFF755FAD1
:1015200010BD10B597490120887400210846FFF7C7
:101530005BFB10BD10B592480169012212041143F2
:1015400001619048416DD211114341650021084667
:10155000FFF74AFB10BD10B589480178212907D152
:101560000179002904D1C078022805D0032806D0CB
:101570000020FFF72AFA10BDFFF7DCFF10BDFFF7D0
:10158000D0FF10BD10B57E4C2078A12816D17D4823
:10159000416DC90401D401214174217901290DD87B
:1015A000417C0020FFF7C3FB20690121C9030843E8
:1015B000206101210020FFF717FB10BD0020FFF77D
:1015C00004FA10BD10B56E480178A12908D16D4903
:1015D0004A6D0123DB021A434A650279002A03D0CF
:1015E0000020FFF7F2F910BD0A7C67490A60016923
:1015F0000122D2031143016101210020FFF7F4FA17
:1016000010BD10B56149002008605D4801690122E4
:10161000D2031143016105210020FFF7E5FA10BD57
:10162000F8B55B4E02213078084330700024554DE8
:10163000A0004119496900910099FFF778FB641CEB
:10164000E4B2102CF4D34E4801690122D2031143B5
:10165000016140210020FFF7C7FA687DAB2806D161
:101660003078FD21084030704A4904200870F8BDE8
:1016700010B5444801780020FFF759FB4048016944
:101680000122D2031143016101210020FFF7ACFACE
:1016900010BD10B53D49002008603948016901229C
:1016A000D2031143016108210020FFF79DFA10BD0C
:1016B00010B533480178A1291FD1816801291CD1B7
:1016C0000179C078002902D0012910D015E0012845
:1016D00004D0022805D0032806D00EE0FFF7D9FF7A
:1016E00010BDFFF7C5FF10BDFFF79AFF10BD2549DC
:1016F000497C012901D1012803D00020FFF765F9B9
:1017000010BDFFF77EFF10BD10B51D4840780300E7
:1017100005F0A8FB0C19070A0D191919191910134E
:101720001619FFF7C5FF10BDFFF74CFF10BDFFF7FF
:1017300029FF10BDFFF70FFF10BDFFF7D4FE10BD4E
:10174000FFF7ACFE10BD0020FFF73FF910BD10B54C
:101750000E49002008600A4801690122D2031143A2
:10176000016105210020FFF73FFA10BD05487D21EA
:1017700001740121417400218174416570470000AA
:101780005002002064020020E0000020C40000207D
:10179000E400002058010020F0B591B00020534A29
:1017A000534B544D0024410054525C526C52401C27
:1017B00080B27E28F7D3012004F075FF04F0B7FE55
:1017C000002507273F0301AE0020AA0181008B18E6
:1017D000DB191B687350401C80B21028F6D301201F
:1017E000C003101801AA102104F034F86D1CADB22A
:1017F000162DE9D341494048C8600020810074504B
:10180000401C80B21028F9D301AA10213C4804F0F2
:1018100021F8432001AA1021400204F01BF83848A7
:1018200001AA1021D03004F015F8872001AA102158
:10183000000204F00FF804F073FE11B0F0BDF8B52B
:101840008C4600242949002665004E53284F7E53BC
:10185000284F7E53641CA4B27E2CF5D30021294C62
:10186000455C6554491C89B24029F9D3002105E043
:1018700065466D5C8E18A555491C89B29942F7D30F
:10188000204A402103F0B6FF012800D1FEE7F8BD51
:10189000F8B58646944600241448154F154A00268C
:1018A000650046537E535653641CA4B27E2CF7D376
:1018B0000020144A03E00C5C1454401C80B298428F
:1018C000F9D37046604404460E4A402103F092FF6B
:1018D000012809D00B4A204640304032402103F015
:1018E00089FF012801D1FEE7FEE7F8BDCA09002003
:1018F000C60A0020C20B0020AA55FA5A0000014077
:101900008085000016120020F8B51420FE4EFF4D11
:101910000127401EC0B200243168890600D5012489
:101920003168C90601D502210C43A97AA14204D02D
:10193000022004F0B8FEAC7214200028E9D1A87A85
:10194000F349C3070022002B01D00F7000E00A709A
:10195000EE4920394F77830700D54A774B7F002B1C
:1019600000D08A73E872F8BDE84900203931487028
:101970000320253908700220091F0870E54901205D
:101980000870E24906202C310870E34905200870F0
:10199000BAE710B50021DC48026801239206002A4C
:1019A00000DA01210068C00601D502200143D748B2
:1019B000827A8A4203D00A220273817210BD017BAF
:1019C0000029FBD0491EC9B201730029F6D1C47A9F
:1019D000114661400029F1D0C272C80700240028D6
:1019E00014D0CB48D10709D003700BF09BFB02F059
:1019F00022FCFEF765FFC948047010BD04700BF0AF
:101A000091FB02F0BDFBFEF714FF10BD8807FCD56B
:101A1000BE48203843779107F7D5447710BD70470B
:101A200070B500240020B94D3935295C0C43401CA9
:101A3000C0B20828F9D3B54A0123203A0021002C6E
:101A400006D0937400202954401CC0B20828FAD351
:101A500000240120AF4D2E5C3443401CC0B210283E
:101A6000F9D3002C06D0537501202954401CC0B274
:101A70001028FAD300240120A44D14352E5C3443E1
:101A8000401CC0B20328F9D3002C06D0D374012027
:101A90002954401CC0B20328FAD39C481030447823
:101AA000002C01D01375417000240120974D2C3576
:101AB0002E5C3443401CC0B20528F9D3002C06D05C
:101AC000937501202954401CC0B20528FAD35172E5
:101AD00070BDF0B58D4B203B187A1C46014642077D
:101AE000E57AA039520F0124072914D89C741846AE
:101AF00059300078012D07D089495933895CFF227C
:101B0000514008401870F0BD854B80499A5C3931CE
:101B100010430870F0BD0146B0390E461F2912D897
:101B2000DC747A4903221431012D04D00A7000209C
:101B300048708870F0BD7B4B7000185A0A7048706E
:101B4000000A8870F0BD0146A839022918D81C7512
:101B50006E4A734C103210463038007A0223201837
:101B60005178C038012D06D01370007EFF235840F5
:101B700001405170F0BD1370007E01435170F0BD03
:101B8000624B203B1E46597A59361B7A7718DE087D
:101B9000604BF318012D13D0002950D05B4DBE7857
:101BA000203D6D7A6D1EAE46EDB2AC46864229D11F
:101BB0000021564DB970203DAC74614669723EE01B
:101BC000524D203D052912D200290BD000222B4670
:101BD000593305E09E18B6788642D0D0521C92B296
:101BE0008A42F7D3B870491C6972AC74F0BD78288A
:101BF000FCD26C754748047049495878895C0843A1
:101C00005870F0BD0026414F393716E0BD19AD7848
:101C1000854210D13D49203904E0B819C27882705C
:101C2000761CB6B27645F8DB0020BA1990708C7439
:101C300060464872F0BD761CB6B28E42E6D3334998
:101C400020397828F6D24C753248047034495878D7
:101C5000895CFF22514008405870F0BDF8B52B4C0C
:101C6000E07900286BD0274644373868401C38603C
:101C70007968884263D300253D602046243026469B
:101C80000088203EB16C80004018416809010909B4
:101C90007960C27869460A70807848700021D3095B
:101CA00000D0012170231A406B461A70174B2C3359
:101CB000102A04D0202A0FD0302A0FD01CE0012295
:101CC000B275124A2C325278002902D002435A705F
:101CD00012E082435A700FE018710DE03072024634
:101CE000E03A072A01D840383072F572002901D055
:101CF0000120F072FFF7EDFE044924310888801CB2
:101D000080B208804A880FE000A00440080100204B
:101D10009E01002010030020860100207801002091
:101D2000F86F0000BE780000904208D36079002868
:101D300002D0012804D00FE0E571FFF771FEF8BD75
:101D4000F74A1078401CC0B210705278904203D30A
:101D5000E571FFF765FEF8BD2079F24A8000801832
:101D6000006CF04A403280183D600A227A600D8093
:101D7000028808304A80B064F8BD10B5E848EA4AE5
:101D80003238437E0021002B04D04176C37D012BE5
:101D90000CD00CE0C17501234376E448018000209B
:101DA0001154401CC0B24028FAD310BDC175C17D8A
:101DB0001170007E00280DD0012812D0022818D002
:101DC0000328F2D1872040230022D7490002FFF7E1
:101DD00036FD10BD40230022D349D548FFF72FFD23
:101DE00010BD432040230022CF494002FFF727FDCA
:101DF00010BDCF4840230022CB49D030FFF71FFD54
:101E000010BDF8B5C64E0024323E717E3046C07A11
:101E1000002914D0B17A002911D1327AAF2A05D025
:101E2000F17D402903D33472FFF7A7FFF8BDBE4B05
:101E30005A54491CC9B25854491CF1753472BD4BEF
:101E4000317A1A780125F02966D0E62975D0F7296C
:101E500074D0D12973D0EE2972D0B74FD32970D066
:101E600007233A461B0312788D296BD08E296AD03E
:101E70008F2969D0902968D0912967D0922970D094
:101E8000EF296FD09C296ED0AC4ADA2916786BD036
:101E9000A34B323BDB2968D0A94AAA4B12781B78A6
:101EA000D0296ED09E4E323ED8296BD0E7296AD019
:101EB000A54ED629367867D0D72975D0A34ED42918
:101EC000367872D0D52971D0954E323EDC296ED04D
:101ED000DD296DD0DE296CD0DF296BD0E0296AD0F6
:101EE000E12969D03246127B3A2970D03B296FD064
:101EF0003C296ED03D2999D1002897D08720000237
:101F00000078002892D0002A90D174703573032095
:101F100030763472F475F8BD34720028FBD0002A94
:101F200015D0012AF7D11C700BF0FCF802F028F94B
:101F3000FEF77FFC0BF02BF9F8BD17E02CE03EE03C
:101F40004AE058E078E091E0ADE014E142E11D7034
:101F50000BF0E8F802F06FF9FEF7B2FC0BF017F99E
:101F6000EAE758E178E185E18FE19AE13472012AEC
:101F7000E2D16B4E123E012807D074707448047091
:101F8000DAE79DE118E222E227E202F08FF90A2067
:101F900004F089FB7570CFE734720128CCD1F07B57
:101FA00000280AD0F473C7E724E230E23DE24AE2B7
:101FB0005DE271E285E299E2ADE2F573BCE734726D
:101FC0000128B9D1B07B012804D0B573B4E7B7E2DA
:101FD000C4E2EFE2B473AFE734720028ACD05D49DD
:101FE0000878401CC0B20870032800D30C7008F0B9
:101FF000FFFA3577A0E734725749097801299BD059
:10200000002899D00120C003027950490A70417913
:102010004D48017008F0F4F9504805703878401CBC
:10202000C0B23870132800D33C700AF053FD0AF098
:102030005BFD0BF077F87FE73472002890D0062A1A
:102040008ED00620387019794048017059793E4881
:10205000017008F0D5F941480570414804700AF054
:1020600039FD0AF041FD0BF05DF865E73472002898
:1020700086D0052A14D005203870197933480170AC
:1020800059793148017008F0BBF93448057034487B
:1020900004700AF01FFD0AF027FD0BF043F84BE730
:1020A00007203870E9E73472002887D00A2A24D044
:1020B000092A25D00B2A26D0082A27D0032A28D07F
:1020C000102A29D0042A4DD0112A4ED00F2A4FD0E1
:1020D0000A20387019791D48017059791A48017021
:1020E00008F08EF91D4805701D4804700AF0F2FCD6
:1020F0000AF0FAFC0BF016F81EE709203870E9E741
:102100000B203870E6E708203870E3E703203870CA
:10211000E0E710203870DDE704203870DAE70000CF
:102120001A0100208097000020030020D001002029
:10213000808500009E010020A7010020A201002050
:10214000A3010020BE010020BB010020B901002036
:1021500082010020A401002002000020A90100202B
:10216000BD01002011203870B4E70F203870B1E7AE
:1021700012203870AEE73472002890D0002A1BD0AD
:10218000012A1BD00D2A1CD00E2A1DD00C2A1ED0CD
:102190003C701979F94801705979F948017008F0D3
:1021A0002FF9F8480570F84804700AF093FC0AF01B
:1021B0009BFC0AF0B7FFBFE63D70EAE70D203870E0
:1021C000E7E70E203870E4E70C203870E1E70220E2
:1021D0003870DEE7347200288ED01979E748017034
:1021E0005979E748017008F00BF9E648057038782E
:1021F00006280AD007280BD0062038700AF06AFC9F
:102200000AF072FC0AF08EFF96E607203870F5E7B8
:1022100008203870F2E734720028CCD01979D748FA
:1022200001705979D648017008F0EAF8D548057070
:10223000387810280AD00F280BD0102038700AF0F8
:1022400049FC0AF051FC0AF06DFF75E60F2038706A
:10225000F5E711203870F2E73472CC490878401C59
:10226000C0B20870082800D30C700AF0D9FE0AF03A
:1022700059FF61E6347200289DD0C54801780029D5
:1022800001D0047058E6057056E6C24F3C72002833
:1022900091D0002E8FD0761E16700AF025FC3D7767
:1022A0004AE627461C461F72002884D0BA480078A8
:1022B0008642A9D2761C16700AF016FC25773BE6FA
:1022C000B4490C7200289FD0122A9DD1B3480178DE
:1022D000002923D00470082E96D3012B2AD0022B7C
:1022E00030D0032B37D0042B3ED021208002052B89
:1022F00043D0062B47D0FF220132072B49D0082BB1
:102300004CD0092B51D0002B9FD1FF2201207E23DE
:102310008132A349C003FFF7BBFA0DE60570A1485F
:10232000048000209E4AFF211154401CC0B27E2828
:10233000FAD301E6012252027E2399499001FFF768
:10234000A7FAF9E5052201207E23D2019449C003B2
:10235000FFF79EFAF0E5032201207E231202904946
:10236000C003FFF795FAE7E5072201207E23D2019B
:102370008B49C003FFF78CFADEE57E2300228849F3
:10238000FFF786FAD8E57E2380228549FFF780FA99
:10239000D2E57E238249FFF77BFACDE580227E23BA
:1023A0007F491002FFF774FAC6E501207E237C49BD
:1023B000C003FFF76DFABFE534720028ADD0724854
:1023C0000178002901D00470B6E50570B4E53472D7
:1023D0000028A2D03573F475AEE56E490C72002862
:1023E0009BD06748052E98D2761C0670654805700C
:1023F0000D77A1E567490C7200288ED06048012E48
:102400008BD9761E06705F4805700D7794E561499B
:102410000C7200288DD05948052E8AD2761C067081
:1024200007F0EEFF0AF07EFE86E55A490C7200289E
:1024300087D05248012E84D9761E067007F0E0FF3F
:102440000AF070FE78E5347200288CD05648012BD3
:1024500001D1122A87D005705448047013203870B7
:102460000AF038FB0AF040FB0AF05CFE64E53472C7
:10247000002887D04C48022B01D1122A88D0022193
:1024800001704A480470132038700AF023FB0AF0E8
:102490002BFB0AF047FE4FE53472002884D04248F7
:1024A000032B01D1122A86D0032101703F4804700A
:1024B000132038700AF00EFB0AF016FB0AF032FE09
:1024C0003AE53472002887D03748042B01D1122A0C
:1024D0008FD00421017035480470132038700AF041
:1024E000F9FA0AF001FB0AF01DFE25E53472002816
:1024F0008CD02D48052B01D1122A87D005210170DF
:102500002A480470132038700AF0E4FA0AF0ECFA52
:102510000AF008FE10E53472002885D02248062B08
:1025200001D1122A8ED00621017020480470132098
:1025300038700AF0CFFA0AF0D7FA0AF0F3FDFBE49C
:10254000002893D01A48007800288FD0002A8DD117
:102550007470357334763472F475EDE4002885D0E8
:10256000432040020078002895D0002A93D174704F
:10257000357335763472F475DEE40000B90100205D
:10258000BB010020A9010020BD010020A501002001
:10259000C7010020E8000020B1010020B7010020A1
:1025A0004B050020D0010020BE010020A301002027
:1025B00080850000002898D0FE48007C002894D038
:1025C000002A92D174703573022030763472F4751B
:1025D000B2E4F8B5F84A0024117A10461E25C07AF4
:1025E000D2290CD0F54B0127F54E527C1B78F129EE
:1025F00016D0F2292FD0F32949D001209CE40028DD
:102600000BD0F0480178002905D00470FFF7C4F81A
:1026100007F040FF02E0557400E0547400208BE4A2
:10262000012B16D1E449002810D04D74E64903204F
:1026300008705120307081207070E4480770E448C1
:1026400007700AF06FFDE348047002E0002A00D032
:102650004C74002070E4012B17D1D749002811D009
:102660004D74D94903200870512030708220707059
:10267000D6480770D648022101700AF053FDD548AC
:10268000047002E0002A00D04C74002054E4012BB6
:1026900017D1C949002811D04D74CB4903200870C7
:1026A0005120307083207070C8480770C8480421DA
:1026B00001700AF037FDC748047002E0002A00D01C
:1026C0004C74002038E410B50020BB49C24B097A95
:1026D000C24A05E044001C5D8C4205D0401CC0B2DB
:1026E0001488A042F6D3FF2010BDF0B5B24DBC4E09
:1026F000E87A2C462034BB4F002854D0FFF7E3FF84
:10270000FF2817D0697F002915D0A97A00293DD06C
:10271000E178002934D0B44942005118497829722F
:10272000A54BC10851334407B048640F5A5C005DA3
:1027300002435A54F0BDA97A002916D0617A0029C3
:102740000ED04100C919497829729B4BC1085133F9
:102750004407A648640F5A5C005D02435A54F0BD1A
:102760004100891949782972EFE7617A002903D07D
:102770004000385C2872F0BD4000305C2872F0BD2B
:102780009B494200511849782972C9E7E17800292C
:1027900004D041009448405C2872F0BD4100944848
:1027A000405C2872F0BDFFF78EFFFF28FAD0824A06
:1027B000C1088C465132515C43078C4A5B0FD25C96
:1027C000114223D06B7F002B0DD0E378002B17D064
:1027D0004300854818184078287277485130914353
:1027E00062468154F0BD637A002B04D04000C019CA
:1027F00040782872F1E74000801940782872ECE7B1
:1028000043007B48181840782872E6E7697F002962
:1028100007D0E17800290FD041007348405C28724E
:10282000F0BD617A002903D04000385C2872F0BD09
:102830004000305C2872F0BD41006D48405C287259
:10284000F0BDF8B56B4800260680624801786A48FA
:10285000002902D06949016002E0FF219131016045
:10286000554F387A00284BD0797F3C46593400299F
:1028700025D0A32808D0A22809D0A7280AD0A628A6
:102880000BD046280CD01AE0A220387217E0A32003
:10289000387214E0A620387211E0A72038720EE0DA
:1028A000212038724448F97A59300078002903D041
:1028B0000A210843207002E0F52108402070FFF74C
:1028C00014FF397A01253B46AE291AD03A481E2713
:1028D0002030E22920D00222AD2935D0E5294BD085
:1028E000AC2961D0E32960D0AB295FD0E4295ED068
:1028F000D9295DD0187C1F4600285AD0FFF790F8E0
:1029000059E41E72D87A0128FAD1187C012801D026
:102910001D7450E41E744EE4D97A00290ED0997AC1
:102920000029EDD0017829430170C8438007E7D121
:10293000224800780128E3D15F743CE4017849081B
:10294000490001705E7436E4D97A00290ED0997A74
:102950000029D5D0017811430170C8438007CFD139
:10296000164800780128CBD15F7424E401788908E7
:10297000890001705E741EE4D87A002840D0987AED
:102980000028BDD0987F1C4628439877C043800715
:10299000B6D10C480178002904D00670FEF7FCFE81
:1029A00007F078FD677406E430E04DE060E073E026
:1029B00086E099E040860000E80000209E010020AB
:1029C000860100200200002077010020790100200C
:1029D0007D01002078010020EE770000F66F0000F6
:1029E0006E770000AE7700006E780000F86F000090
:1029F0002E7800008801002094010020701700004C
:102A0000987F4008400098775E741EE4D87A0028CA
:102A100014D0987A0028F8D0987F1C4610439877F5
:102A2000C0438007F1D1F9480178002904D006702D
:102A3000FEF7B2FE07F02EFD677406E4987F80086B
:102A4000800098775E7414E4D87A00280AD0987AC7
:102A50000028F8D0D87F2843D877C0438007F2D128
:102A60005F7406E4D87F40084000D8775E7409E4BC
:102A7000D87A00280AD0987A0028F8D0D87F104356
:102A8000D877C0438007F2D15F7409E4D87F80080B
:102A90008000D8775E7403E4D97A00290AD0997A45
:102AA0000029F2D0817829438170C8438007ECD196
:102AB0005F7404E481784908490081705E742CE4F5
:102AC000D97A00290AD0997A0029F8D0817811435F
:102AD0008170C8438007F2D15F741EE48178890851
:102AE000890081705E7418E4FFF773FD0028E6D05A
:102AF0007E74FFF786F93A7A002AE0D0B87B012885
:102B000003D0C3480078000605D5A32AD7D0A72A4A
:102B1000D5D0652AD3D0F72108209D2A04D09E2A3B
:102B20000FD09F2A1AD020E015223A72FA7A002A92
:102B300003D021780143217017E022780A402270E7
:102B400013E0FA7A012A05D022780A4022702B215C
:102B500039720AE0217801432170F8E7FA7A012AF4
:102B60002BD022780A4022703872397AF82908D39B
:102B7000FA7BA84B002A24D04907090FC9184978C5
:102B80003972A34909788A0604D53A7AA22A1DD057
:102B90002B2A1DD0490604D5397AA2291AD03D29FD
:102BA0001AD0397AAF2919D0F5292ED0F62972D04A
:102BB0009948007812286FD005E1217801432170EF
:102BC000D2E74907090F595C3972DAE73E7203E42C
:102BD0003E720EE43E720CE43E720AE43D71BE7237
:102BE000F87A01280FD0387F002802D00AF09AFA2C
:102BF0003E77787F0028ECD0BD74E671F87A002823
:102C0000E7D0E57110E4BD72F3E7F97A0129F9D153
:102C1000797F002947D0BD748048C571804C2078E9
:102C2000002826D001F0D8F80A2003F03CFDBD743E
:102C30007A4E0020F0712078002820D001F0CCF8E6
:102C40000A2003F030FDBD74F571207800281CD0F7
:102C500001F0C2F80A2003F026FDBD740020F071D7
:102C60002078002819D001F0B7F80A2003F01BFDE6
:102C700011E4082269490120FDF73AFDD4E7082252
:102C800066490120FDF734FDDAE708226349012097
:102C9000FDF72EFDDEE72DE091E008225F490120DF
:102CA000FDF726FDE1E70121B97420700B20A0702B
:102CB0005B4D2878002811D001F08EF80A2003F02F
:102CC000F2FC0120B8742670A670287800280BD07A
:102CD00001F082F80A2003F0E6FC06E408224F49DE
:102CE0000120FDF705FDE9E708224C490120FDF729
:102CF000FFFCEFE7F97A0129EFD1797F002937D07E
:102D0000BD740020A070E571454E307800281DD0BC
:102D100001F062F80A2003F0C6FCBD742C20A070FC
:102D2000E5713078002817D001F056F80A2003F03A
:102D3000BAFCBD740020A070E0713078002811D07A
:102D400001F04AF80A2003F0AEFC06E408223349F9
:102D50000120FDF7CDFCDDE7082230490120FDF719
:102D6000C7FCE3E708222D490120FDF7C1FCE9E794
:102D7000BD742A49087006208870294C20780028E4
:102D800011D001F029F80A2003F08DFCBD7423480E
:102D900006708670207800280BD001F01DF80A20FC
:102DA00003F081FC14E408221C490120FDF7A0FC7B
:102DB000E9E7082219490120FDF79AFCEFE71948D5
:102DC00000780128EED0787E0028EBD1FEF781FE56
:102DD00014E470B50020114D593D6978491CC9B201
:102DE0006970142946D300246C70297B01291BD0FB
:102DF000687B00283ED02E462036B079401CC0B2F9
:102E0000B071C1073BD0FEF70BFE40E0020000208E
:102E100059010020AE780000A301002041010020EC
:102E20009E010020B7010020297E002906D001293B
:102E300006D0022907D0032908D009E0FB4807E0A3
:102E40004320400204E0F948D03001E0872000022E
:102E5000E97D425C002A0ED040290CD2425C2A72E5
:102E6000491CC9B2E975405CE872491CE975EC7609
:102E7000FFF7E7FC70BD2C73FEF7D2FD70BD01219A
:102E8000E972A96C4008085C2872FEF722FEB0794E
:102E90000728F3D36C7370BDF8B5E5490120887637
:102EA000E448CA7A0578C879E34FE4494000C31979
:102EB0000978E34C072D03D0E24E082D28D072E0AC
:102EC0003D5C5878EB001B191C5CDF48002A14D0CD
:102ED0000078DE4A401E1055082902D0FF2904D090
:102EE0000FE0204607F0BDFD0BE0D948007901282E
:102EF00007D1204607F0B5FD03E00178D348891ECD
:102F00000155D248015DD348415CD3480155F7E4EF
:102F1000002A48D0385C5978715CD04E325C0A4344
:102F20003254CF4A135C0B43135401201746311817
:102F30002039CA7F335C1A43CA771721091A3A46E7
:102F40008D18203D7B5CED7F2B437B54401CC0B231
:102F50001728ECD30025C148475DC148405D0743B1
:102F60000026F80715D0FF21E8000019805DBA4A55
:102F70001154B2490978082902D0FF2903D008E08A
:102F800007F06FFD05E0B2490979012901D107F089
:102F900068FD7F08761CF6B2062EE2D36D1CEDB2FA
:102FA000172DD8D3ACE4092D02D00F2D25D074E015
:102FB0003D5C5878EB001B191C5C002A03D0A34829
:102FC0000021015512E0A14A01201055082902D024
:102FD000FF2904D00AE0204607F043FD06E09C48A4
:102FE0000079012802D1204607F03BFD9748015D9A
:102FF0009848415C9848015582E4002A4DD0385CDD
:103000005A78B25C954B1A54954E3254954B1A54DB
:10301000954B1A54082902D0FF2906D00EE0C000B3
:103020000019805C07F01DFD08E089490979012934
:1030300004D1C0000019805C07F013FD002587480B
:103040008949475D8648495D405D07438548405D45
:10305000084307430026F80715D0FF21E8000019B0
:10306000805D7D4A115475490978082902D0FF29ED
:1030700003D008E007F0F5FC05E07549097901295E
:1030800001D107F0EEFC7F08761CF6B2062EE2D3E3
:103090006D1CEDB2172DD2D332E4122D02D1644E45
:1030A000002A1FD0132DA7D1002AA5D0385C6B4B66
:1030B0003F221A546A490A5400256848475D684807
:1030C000405D07430026F80740D0FF21E8000019C3
:1030D000805D614A11545949097808292DD0FF298A
:1030E0002ED033E0B27A002A12D000225F4D2D7824
:1030F0002A42D1D0385C5A78C0000019805C5C4A02
:10310000082909D2135CFF2B04D0FF2111540DE0D4
:103110000122EBE7115409E0115CFF290AD0491C98
:103120001154115C082901D3FF2111545149012088
:10313000087008E400211154F3E707F092FC05E061
:1031400043490979012901D107F08BFC7F08761CDE
:10315000F6B2062EB7D36D1CEDB2172DADD304E435
:1031600070B5334C444A6179A06B890050500025FA
:10317000A571206CC00712D06079A179C0004018F9
:10318000C0B2E071E572218FC90701D00121E1725F
:103190003A49085C2072FFF77FFEFFF752FBA06BF5
:1031A0004008A063206C40082064A079401CC0B295
:1031B000A0710628DDD370BD70B51D4C0025A07828
:1031C000002829D062792C4990000958A06B414011
:1031D0002164002916D0E1780222002908D0E36B8F
:1031E00083420CD1491EC8B2E070002803D010E021
:1031F000E270E0630DE0E563FFF7B2FF09E0E27023
:10320000E06306E0E570521CD0B26071152800D36F
:103210006571FFF7DEFDA57005482030017A0029B1
:1032200002D00572FEF71AFD70BD00008085000017
:10323000E8000020A3010020E27A0000A2010020A3
:10324000327C0000F86F0000597F00004706002024
:103250006C010020D97E0000B20F0020D8040020AD
:10326000EF040020060500201D050020B701002006
:103270004B050020A8010020BC020020C6760000FB
:10328000FE4801218176FE49097802290CD1C079D6
:10329000FC4A4000115C80184078FB4AC90089183C
:1032A000085CFA4AFF211154704730B5F34B0024F3
:1032B0009C71F74D98798000285898635C71188F3D
:1032C000C00706D058799979C0004018D871FFF727
:1032D000D7FF986B400898635879401CC0B258716A
:1032E0001528ECD39879401CC0B298710628E1D318
:1032F00030BDF8B5E14CA078002844D02046E04F1E
:10330000C18D3A78481CE24E002580B2012A02D0D5
:10331000022A06D019E07D221201914215D2E085E1
:1033200013E02178002910D1A179A26B8B00F25013
:10333000491CC9B2A171062907D3A571E0850428EB
:1033400003D901202070FFF7B0FF3878022802D19E
:103350002078002816D0A079A16B8200B150317876
:10336000012909D131890904090E402904D1B18A02
:103370004905490F022907D0401CC0B2A071062898
:1033800000D3A571A57022E4FEF706FAC1480561D5
:103390004561FEE7C0484168FF2212029143416047
:1033A000BE484168490B490341607047F0B5BA49CE
:1033B000B2488A1547794C150D15CE14B7483B0015
:1033C00003F050FD150C1014181C22282E34393E21
:1033D00043484D52575C6064686C0F00486A104364
:1033E0004862F0BD486A20434862F0BD486A2843FD
:1033F0004862F0BD486A30434862F0BD486A012225
:10340000120310434862F0BD486A01225203104380
:103410004862F0BD486A0122920310434862F0BD41
:10342000486A0122D20310434862F0BD416A01227A
:1034300011434162F0BD416A022211434162F0BD75
:10344000416A042211434162F0BD416A08221143DE
:103450004162F0BD416A102211434162F0BD416AF0
:10346000202211434162F0BD416A40221143416272
:10347000F0BD416A802211434162F0BD416A1143AF
:103480004162F0BD416A21434162F0BD416A294376
:103490004162F0BD416A31434162F0BD426A01219F
:1034A00009030A434262F0BD7B480168FF22120211
:1034B0009143016079480168490B490301607047F5
:1034C00075484168FF221202114341607348416808
:1034D000734A11434160704710B50024FFF7F0FFB5
:1034E000FFF7E2FFFFF762FF052003F0C7F86D4822
:1034F0000068000400D501246B480168090501D566
:1035000002210C430168490501D504210C430168DF
:10351000890501D508210C430168C90501D5102191
:103520000C430068000601D520200443204610BD4E
:1035300070470020704758480168FF22120211436B
:10354000016056480168564A114301607047F0B562
:1035500051494A488A1547794C150D15CE144F48E4
:103560003B0003F07FFC150C1014181C22282E348D
:10357000393E43484D52575C6064686C0F004868A0
:1035800010434860F0BD486820434860F0BD48687B
:1035900028434860F0BD486830434860F0BD486843
:1035A0000122120310434860F0BD48680122520313
:1035B00010434860F0BD4868012292031043486000
:1035C000F0BD48680122D20310434860F0BD416855
:1035D000012211434160F0BD416802221143416064
:1035E000F0BD4168042211434160F0BD41680822EA
:1035F00011434160F0BD4168102211434160F0BDAC
:103600004168202211434160F0BD416840221143CE
:103610004160F0BD4168802211434160F0BD4168C6
:1036200011434160F0BD416821434160F0BD4168F4
:1036300029434160F0BD416831434160F0BD4268BB
:10364000012109030A434260F0BDFEB59320000248
:10365000C06B1649884201D00120FEBD07491448BD
:10366000CA79805C80000190124A01988018006C31
:103670006B46C2B21A7003041D0E1DE0E800002064
:10368000A3010020E27A0000327C0000B20F00208B
:10369000BC02002000C0054000400440006004401F
:1036A000FF1F00000080044000A004400000AA5555
:1036B0001E760000809000006B465D7003021E0EB7
:1036C0006B469E70000ED8700290002A0BD00C46FC
:1036D000E07A00272034130003F0C4FB089107218F
:1036E000313C455385910120FEBD01228A75454B31
:1036F000012D02D0032D0ED081E0F206D20E6946D4
:103700008A7040490028497802D01143597076E008
:103710009143597073E0002871D01E716FE0394BEE
:103720000D331A78002802D02A431A7001E0AA4308
:103730001A70012088740E72002E60D0FEBD012226
:10374000CA74304918394F708F70002857D04D70A7
:103750008E7054E001220A752A491C394F700128E5
:103760004DD14D704BE0022D09D1012807D1264AD9
:10377000107026480522027047708670C7700F725D
:103780003DE0002828D0E079002807D0FEF748F96E
:103790006079022824D01B484C3807722571667165
:1037A00018481A38077002994170A7711849A80083
:1037B0004018144A006C4C3A154940314018012118
:1037C000E171134664331F605960114644310F8024
:1037D000038808304B8090640A484C3807720EE02A
:1037E000E7710020FEBD002808D0012048734F700B
:1037F000084B019AD2188A64A071CF710F72002011
:10380000FEBD7047340100207901002086010020B0
:1038100080970000C090000010B5F7490878C207F3
:1038200009D0400840000870F44803F0F9FAF44960
:1038300088600320087010BDF0B5F0481438047D8E
:10384000437DED4EEE4A31780027CD079078002D6C
:103850001ED0EA4D143D490849003170042C01D1B5
:10386000022B07D0FF20E875D780977037709760DC
:103870001770F0BD0121E975916829760B0A6B7606
:103880000B0CAB76090EE976102108439070EBE73C
:103890008907EED5C006ECD5D78097703770976052
:1038A000D7601770F0BD70B5D6480178D44C143489
:1038B0002170417861708178A170C178E170017ADE
:1038C0002171417A6171817AA171C07AE071CE482B
:1038D00000210170E1790125012903D0E179022954
:1038E00002D002E0057000E005702178C748002989
:1038F00014D02178802911D02178491E0170607977
:10390000C349087006F07CFD09F0EEF8A079C149C2
:103910000870C148057006F080FE70BD132101706B
:10392000EDE738B5B64C00222271B3490878C307D9
:1039300050D0400840000870E2802069E1688000B3
:103940004018AE4A102101F085FF2069E26880002E
:1039500010580090B14882420DD101780388056863
:103960001B09ED0A2B4305680079AD0C2B43C00100
:1039700003430B4363700020009B00991B04C9B2F2
:103980001B0EC918009B1B021B0EC918009B1B0EA7
:10399000C918A368C918A1602169491C216189005F
:1039A00051580091001DC0B24028E5D3E078401E78
:1039B000C0B2E07000280DD10320207098488242E8
:1039C00006D19849FF200870FFF76DFF0120207194
:1039D00002F0A6FD38BDF0B587490878820731D5D9
:1039E000FD2210400870864C0020E080E07886467A
:1039F00001281FD90021E068844625696246A80095
:103A000010587E4AC7B2143A5218177503041E0E96
:103A1000567503021B0E9375000ED075BA19D21895
:103A20001018A2688018A0606D1C2561091DC9B21C
:103A30004029E2D37046401EC0B2E070002801D198
:103A400003202070F0BD6E4BD860D9701A7070479B
:103A50006A4A143A117F527F12021143814206D9F9
:103A60006549002008706649887001207047002071
:103A7000704708B500210091172849D012DC13289F
:103A800033D008DC052823D0102823D0112823D0D8
:103A900012281BD127E014282FD015282FD0162844
:103AA00014D133E0F0284AD00ADC554A182891781E
:103AB0003BD019283ED0AB2831D0E02806D132E0E7
:103AC000F12840D0F22840D0F32840D0002008BD93
:103AD000012008BD012008BD6A460121524801F0BD
:103AE000B9FE012008BD012008BD46486A460121F3
:103AF0003C3001F0AFFE012008BD012008BD6A4640
:103B000001214A4801F0A6FE012008BD012008BDA0
:103B10006A460121464801F09DFE012008BD02F0E1
:103B200006FD012008BD012008BDBF2001409170A5
:103B3000012008BD402001439170012008BD09F01B
:103B4000F1FA012008BD012008BD012008BD0120B7
:103B500008BDF8B5294914390F7D487D0B7F497F91
:103B600009020B43244900250A78254CD607002E6C
:103B700017D0224E143E520852000A70042F0BD167
:103B8000FFF777FF002807D00120F075A0781121FA
:103B90000843A070E580F8BDFF20F075A570E580B2
:103BA000F8BD9207FCD5A278D606F9D5EF263240AB
:103BB000A270E580104AFD2612783240142876D093
:103BC0000CDC11284ED004DC052833D010280DD190
:103BD0003CE0122852D0132808D15BE0152876D09B
:103BE000162871D0172870D0AB286FD0A5700D7033
:103BF000A560A5602561F8BDE400002078020020E2
:103C00005801002080970000BD010020A70100207E
:103C1000B9010020BB010020A90100208090000014
:103C200040930000A20100200F930000FCA30000BD
:103C3000BC9000000220FFF70BFF0028D9D15B1CCD
:103C400099B201225048FFF7FEFED2E70A20FFF7A3
:103C5000FFFE0028CDD15B1C99B201224B48FFF733
:103C6000F2FEC6E70A700A20FFF7F2FE0028C0D174
:103C7000022219464548FFF7E6FEBAE71420FFF78F
:103C8000E7FE0028B5D15B1C99B201224048FFF73E
:103C9000DAFEAEE70A701420FFF7DAFE0028A8D19A
:103CA000022219463A48FFF7CEFEA2E7FFE730208E
:103CB000FFF7CEFE00289CD15B1C99B2012235484B
:103CC000FFF7C1FE95E702E00DE018E023E00A707F
:103CD0003120FFF7BDFE00288BD1022219462D4866
:103CE000FFF7B1FE85E70120FFF7B2FE002880D183
:103CF0005B1C99B201222848FFF7A5FE79E70A70FC
:103D00000120FFF7A5FE00289FD102221946224874
:103D1000FFF799FE6DE70A700420207069E710B57F
:103D20001E480078030003F09DF80504070A0D10F3
:103D30000600FFF70EFF10BDFFF74DFE10BDFFF7A9
:103D4000F0FD10BDFFF778FD10BDFFF765FD10BD5C
:103D500010B5124BD888401C80B2D8807D21090153
:103D600088420FD900200E4A00218400A418616106
:103D7000401CC0B21028F8D30A48D98001701970CD
:103D800002F0CEFB10BD000000900000C0900000CB
:103D900040930000C0970000809000005801002070
:103DA00064020020E4000020FE49FA200880FE4959
:103DB00000200870FD48012101724B21C9004162B9
:103DC0007047F94900200870F8490120C871FF20A8
:103DD000F4492D3008807047F0B5F548F34B07786B
:103DE000F4485E78F44CF54D00210122002F29D0D3
:103DF000002E27D0EE4E3170466A164346620920E7
:103E00009871A12020800020ED4C265C401CEA4CDB
:103E10004700E653C0B20828F6D3E868C006FCD4D1
:103E20002868C0242043286028680006800F0328E3
:103E3000FAD0E1480088E8619A61D9615970C820D8
:103E40009870D7E0DF4F3F78002F29D0002E27D081
:103E5000DC4E3170466A1643466210209871A220EB
:103E600020800120D84C4700265CD34CE653401CF0
:103E7000C0B21028F6D3E868C006FCD42868C02475
:103E80002043286028680006800F0328FAD0CA481B
:103E90000088E8619A61D9615970C8209870A9E0DA
:103EA000CA4F3F78002F22D0002E20D0C74E31704D
:103EB000466A1643466203209871A3202080C44EB0
:103EC0007778A780B6786680EC68E406FCD42C6826
:103ED000C02634432C602C682406A40F032CFAD08F
:103EE000E8619A61D9615970C820987082E0B94F31
:103EF0003F78002F29D0002E27D0B64E3170466A69
:103F00001643466202209871A42020800120B24C02
:103F10004700265CA84CE653401CC0B20228F6D3EA
:103F2000E868C006FCD42868C024204328602868BC
:103F30000006800F0328FAD09F480088E8619A6144
:103F4000D9615970C820987054E0A44F3F78002F71
:103F500024D0002E22D0A14E317002269E71A526BB
:103F6000268061809E4F3F78002F01D00327678015
:103F7000EC68E406FCD42C68C0273C432C602C6819
:103F80002406A40F032CFAD0EE61446A1443446261
:103F90009A61D9615970C82098702BE05F79002F21
:103FA00028D0002E26D05971466A16434662032057
:103FB0009871A620208000207C4C1234265C401C86
:103FC0007D4C4700E653C0B20228F5D3E868C0062E
:103FD000FCD42868C0242043286028680006800F8D
:103FE0000328FAD074480088E8619A61D961597051
:103FF000C82098701878002814D06F48794F403046
:1040000004884088B12C02D1DD69022D05D06A4DAB
:104010004035AD88B62C06D00CE01970D961400748
:10402000400F3870F0BD5A2804D1012D02D1DE694D
:10403000032E02D0B62C07D00DE01970D961DA72C8
:10404000197359739A73F0BD5A2804D1022D02D105
:10405000DE69032E02D0B62C07D00DE01970D961AD
:104060005A73D97219739A73F0BD5A2804D1042D6A
:1040700002D1DE69032E02D0B62C07D00DE01970F4
:10408000D9611A73D97259739A73F0BD5A2804D141
:10409000062D02D1DE69032E02D0B62C08D00EE028
:1040A0001970D9614B20C000D882FFF78AFEF0BD9D
:1040B0005A2804D1072D02D1DE69032E02D0B62C76
:1040C00004D00AE01970D9619A72F0BD5A2804D15F
:1040D0000A2D02D1DE69032E02D0B62C07D00DE0E6
:1040E0001970D961D971D9823F480170F0BD51284A
:1040F00004D1772D02D1DE69032E02D0B62C09D06F
:104100000FE039701970D970D96138480170FFF724
:104110004BFEF0BD512804D1762D02D1DE69032E6D
:1041200002D0B62C09D00FE01970D961197259620A
:1041300099821A712E481862F0BD512804D1782D49
:1041400002D1DA69032A02D0B62C09D00FE0197027
:10415000D961FF2091301862596299821971F0BDBE
:10416000512804D1792D02D1D869032805D0D86906
:104170000328F4D3D9611970F0BD1970D961F0BD6D
:10418000F0B50A4B00251D720A49486A01263043E2
:10419000486203209871084AA620108058201C46C7
:1041A000123427E0D0010020B80100207401002063
:1041B000FA000020004004406003002000C00140DD
:1041C00041010020FD00002010030020FB00002022
:1041D0001C010020FC0000201801002054010020D8
:1041E000F300002064020020C9010020F900002033
:1041F00070170000207066700020215C401C470092
:10420000D153C0B20228F8D3B048C168C906FCD463
:104210000168C0242143016001680906890F032950
:10422000FAD01188C1619E61DD615D70C82098700F
:1042300014201882F0BD70B5A548416A01231943C6
:104240004162A44A03209071A349A620088051200E
:10425000154612352870507A012821D0022822D024
:104260008320687000202C5C401C46008C53C0B238
:104270000228F8D39548C468E406FCD40468C02535
:104280002C43046004682406A40F032CFAD0098888
:10429000C16193610020D0615070C820907070BDE2
:1042A00081206870DEE782206870DBE770B588489F
:1042B000416A012319434162864A0320907186496D
:1042C000A62008805120154612352870612068709C
:1042D00000202C5C401C46008C53C0B20228F8D34E
:1042E0007A48C468E406FCD40468C0252C43046002
:1042F00004682406A40F032CFAD00988C1619361D5
:104300000020D0615070C820907070BD70B57048AA
:10431000416A0123194341626E4A032090716E493C
:10432000A620088051201546123528706520687037
:1043300000202C5C401C46008C53C0B20228F8D3ED
:104340006248C468E406FCD40468C0252C430460B9
:1043500004682406A40F032CFAD00988C161936174
:104360000020D0615070C820907070BD70B5584862
:10437000416A012319434162564A0320907156490C
:10438000A6200880512015461235287068206870D4
:1043900000202C5C401C46008C53C0B20228F8D38D
:1043A0004A48C468E406FCD40468C0252C43046071
:1043B00004682406A40F032CFAD00988C161936114
:1043C0000020D0615070C820907070BD70B540481A
:1043D000416A0124214341623E4B032098713E4AC9
:1043E000A620108051201D4612352870702068705C
:1043F0000020295C401C46009153C0B20228F8D32B
:104400003248C168C906FCD40168C025294301604F
:1044100001680906890F0329FAD01188C1619C61DE
:104420000020D8615870C82199701421198218721F
:1044300070BD28498878002814D0401EC0B288700A
:104440004A7810430ED10120487021498A6A0243FC
:104450008A621E48016908229143016101690422B0
:1044600011430161704770B5194D28680123800719
:1044700004241849154A00280FDA506940070BD563
:10448000D569C869461CCE61134E4000403635528E
:104490000B7090692043906170BD50694007FBD557
:1044A0008E798869B04206D3A86A1843A8624B7017
:1044B0000020886105E0431C8B6107494000085AD1
:1044C000D061D06990692043906170BD00C0014007
:1044D00000400440740100206003002070B5F848DB
:1044E00008250678AA02F748F7495400330002F07D
:1044F000B9FC120A10171E262C33393F474F555B63
:10450000626970787EB2416A012211434162EF48CC
:1045100074E0416A102211434162EC482A306DE098
:10452000416A802211434162E848543066E0416AA2
:104530000122920211434162E4487E305EE0416A0A
:1045400011434162E148A83058E0E148416A2943FB
:104550004162DE48D23051E0416A29434162DB4882
:10456000FC304BE0416A402211434162D94845E0AA
:10457000416A0122520211434162D6482A303DE08D
:10458000416A0122120311434162D248543035E09E
:10459000486A10434862CF487E302FE0486A204383
:1045A0004862CC48A83029E0416A022211434162A6
:1045B000C848D23022E0416A202211434162C548F6
:1045C000FC301BE0416AFF22013211434162C248C4
:1045D00014E0416A0122D20211434162BE482A30EE
:1045E0000CE0416A21434162BB48543006E0486A0E
:1045F0000122D20310434862B7487E30B74902888F
:104600000A6242884A6282888A62C288CA620289D1
:104610000A6342894A6382898A63C289CA63AF494D
:10462000028A40310A60428A4A60828A8A60C28A6B
:10463000CA60028B0A61428B4A61828B8A61C28B9B
:104640000A62028C4A62428C8A62828CCA62C28C82
:104650000A63008D486370BD00B5994909780B0065
:1046600002F000FC120A0C0F1215181B1E20232644
:10467000292C2F3234373A3C94482FE093482A3083
:104680002CE09248543029E090487E3026E0914852
:104690007E3823E08F48543820E08E482A381DE0C9
:1046A0008C481BE08B482A3018E08A48543015E0CB
:1046B00088487E3012E088487E380FE086485438BB
:1046C0000CE085482A3809E0834807E082482A3010
:1046D00004E08148543001E07F487E307F49028801
:1046E00040310A6042884A6082888A60C288CA6013
:1046F00002890A6142894A6182898A61C289CA61E2
:10470000028A0A62428A4A62828A8A62C28ACA62C9
:10471000028B0A63428B4A63828B8A63C28BCA63B1
:104720006E49028C0A62428C4A62828C8A62C28C16
:10473000CA62008D086300BDF0B5644A6048144643
:104740000078FC340126274676035E49FC375E4D2F
:10475000030002F087FB120A18263443505F6D7B7A
:104760008A99A6C5D3E1F3F1F01700200124430094
:10477000D35A002B02D04B6A23434B62401CC0B279
:104780001528F4D3F0BD152010244300D35A002B74
:1047900002D04B6A23434B62401CC0B22A28F4D398
:1047A000F0BD2A2080244300D35A002B02D04B6A4C
:1047B00023434B62401CC0B23F28F4D3F0BD3F20DE
:1047C0000124A4024300D35A002B02D04B6A234396
:1047D0004B62401CC0B25428F4D3F0BD54204300B7
:1047E000D35A002B02D04B6A33434B62401CC0B2F9
:1047F0006928F4D3F0BD6920354908234400145BCF
:10480000002C02D04C6A1C434C62401CC0B27E2873
:10481000F4D3F0BD002008224300E35A002B02D05D
:104820004B6A13434B62401CC0B21528F4D3F0BD51
:10483000152040234200A25A002A02D04A6A1A4395
:104840004A62401CC0B22A28F4D3F0BD2A200123BA
:104850005B024200A25A002A02D04A6A1A434A6204
:10486000401CC0B23F28F4D3F0BD3F2001231B03FE
:104870004200A25A002A02D04A6A1A434A62401CE5
:10488000C0B25428F4D3F0BD54204100615A00292D
:1048900002D0696A31436962401CC0B26928F4D30E
:1048A000F0BD6920012292034100615A002902D023
:1048B000696A11436962401CC0B27E28F4D3F0BD1E
:1048C000EA0100200080044000600440CA09002082
:1048D00000A00440F00A0020160C00200020004038
:1048E000002002234200BA5A002A02D04A6A1A4320
:1048F0004A62401CC0B21528F4D3E0E715202023FB
:104900004200BA5A002A02D04A6A1A434A62401C3C
:10491000C0B22A28F4D3D2E72A20FF230133420071
:10492000BA5A002A02D04A6A1A434A62401CC0B2EC
:104930003F28F4D3C3E71FE00FE0FFE73F20012348
:10494000DB024200BA5A002A02D04A6A1A434A627B
:10495000401CC0B25428F4D3B1E7542001239B0378
:104960004200BA5A002A02D04A6A1A434A62401CDC
:10497000C0B26928F4D3A2E769200122D203410022
:10498000795A002902D0696A11436962401CC0B299
:104990007E28F4D393E73B484268FF2109020A438B
:1049A000426002680A4302603748426837490A4356
:1049B000426002680A430260704733480168072278
:1049C00052031143016032480168324A11430160C9
:1049D0003148016808221143016070472A48016884
:1049E000072252039143016029480168294AD243B2
:1049F0001140016028480168082291430160704716
:104A000010B5264C00202060FFF726FE206802210A
:104A10000843206020688007FCD4206801210843F7
:104A2000206001F091FD01F07BFD10BD704770B575
:104A3000FFF7D4FF01F08DFD194C6078401CC0B227
:104A4000607000250A2810D31648017800290CD17F
:104A500001210170657001F0BAFDFEF79BFCFEF7C5
:104A60003BFD11490860FCF7DAFFFFF7C9FFFFF7CC
:104A700063FE2078401CC0B22070122800D325703D
:104A800070BD00000040044000600440FF1F0000B3
:104A900000800440FB7F000000A004400020004094
:104AA000EA010020EA0000202001002010B50B22BE
:104AB000FD21E82001F03EFF01220A21E82001F05B
:104AC00039FF10BD70B50B22FD21E82001F032FF47
:104AD00010220121E82001F02DFFE4220D21E82021
:104AE00001F028FF01220E21E82001F023FFBF2260
:104AF0000F21E82001F01EFF44221421E82001F0DC
:104B000019FF4C221521E82001F014FF0D22FD2190
:104B1000E82001F00FFF00207049714C0A5C22541C
:104B2000401CC0B24028F9D3002240231146E8209F
:104B300001F041FF0022FD21E82001F0FBFE0022F0
:104B4000A0231146E82001F011FF0020634DAD1EA7
:104B50002946423103E00A5C2254401CC0B22A7844
:104B60009042F8D300222B781146E82001F023FF71
:104B70000122FD21E82001F0DDFE0022A0231146E4
:104B8000E82001F0F3FE00205449503103E00A5CB4
:104B90002254401CC0B26A789042F8D300226B784D
:104BA0001146E82001F007FF70BD10B50B22FD2172
:104BB000E82001F0BFFE00220A21E82001F0BAFE41
:104BC00010BD10B54748426802210A434260416265
:104BD0000A2001F068FDFFF7E8FFFFF773FFFFF71A
:104BE00065FF10BDF8B5404C207800280FD0012299
:104BF000FD21E82001F09EFE3E2380222021E820B6
:104C000001F0D9FE0020207038490870F8BD00205E
:104C10003549334B89788C46334949788E46344937
:104C20000A782E4960310C5C3249095D6546002DD9
:104C300001D0314D695C7546002D31D02D4D670096
:104C400036352D5D51436E00AD192C4EE419765D5D
:104C5000224F4E43F60A96373F5DDE55274E1F4FD3
:104C6000AD19AE7896374E43F60AE4196778DE55EB
:104C70006D78A4784D43E90A1955401CC0B2362816
:104C8000CFD30022FD21E82001F054FE8023002232
:104C90002021E82001F08FFE134801210170F8BDAA
:104CA000144D5143A23D2D5D0C4F4D43EE0A65005E
:104CB000651996377F5DDE550E4E084F363E365DE0
:104CC00096374E43F60AED196F78DE55094E6C3E65
:104CD000345D4C43E10AAC781955CEE7CC8D000029
:104CE0001616002000600440040200200F0200207D
:104CF00015020020D2100020D97E0000FC8B00009D
:104D0000FC48FB49827A895CC172C28A4A4311031A
:104D1000090C81824182704700B5F64B0B20587018
:104D2000FF209130D882FFF7EBFFF3490120087094
:104D300000219970F14A107099710020F04A1154C5
:104D4000401CC0B23628FAD300BD70B5E94C022031
:104D500060700F208001E082FFF7D2FFE64900205B
:104D60000870A070E5490870A071217CE54D4C00E9
:104D70000C19295D65196C78E34BE44EE44AAD7873
:104D8000195434541554401CC0B23628F8D30020AE
:104D9000DB49FF220A54401CC0B23628FAD370BD4A
:104DA00070B5D44B02205870C820D882FFF7A8FFF6
:104DB000D148002101709970D0480170997119741F
:104DC0000020D04D4C000C19295D65196C78CE4B34
:104DD000CE4ECF4AAD78195434541554401CC0B24D
:104DE0003628F8D30020C64AFF211154401CC0B217
:104DF0003628FAD370BDF0B5BE4B092058703C2060
:104E0000D882FFF77DFFBC49002008709870987128
:104E1000BA490870002220E00021BE4B5000C018A3
:104E20008646BD48B74C835C58001818265C0019AC
:104E30004778807884467046405CB84C45006353A0
:104E4000B14C2654B14C2754B14C65462554491CED
:104E5000C9B20229EFD3521CD2B2B14800788242C3
:104E6000DAD30020A64AFF211154401CC0B23628D4
:104E7000FAD3F0BDF0B59F4B0A205870D882FFF7E7
:104E80003FFF9D490020087098709C4908709871F8
:104E900000219D4B9D4E9E4FA248405CA24A4C0073
:104EA000125B9E4C45006253A04C2478A24204D36E
:104EB00000221A5432543A5409E05400914D121908
:104EC000AC5C1C5452195478345492783A54491CAE
:104ED000C9B23629E0D300208949FF220A54401C78
:104EE000C0B23628FAD3F0BDF0B5824B0520587019
:104EF0001C20D882FFF704FF7F48002606709E70B2
:104F00009E717E4806701E740020844F7D4D854939
:104F1000095C874A125C92194B00FA525300D2186E
:104F2000794BAC5C5C545219784B54785C54937850
:104F3000774A5354401CC0B23628E8D30020704A48
:104F4000FF211154401CC0B23628FAD3F0BD00B581
:104F50006848017A052903D90121C90349780172FA
:104F6000007A030001F07EFF0A060C0F12150808F4
:104F700008080908FFF7B8FF00BDFFF77BFF00BD79
:104F8000FFF739FF00BDFFF70BFF00BDFFF7DDFEA8
:104F900000BDFFF7C1FE00BD56486649027B895C33
:104FA000417370470020564A00211154401CC0B282
:104FB0003628FAD3704730B5FFF7F4FF4D4C002583
:104FC000E5700120C003817A2172C17A6172017B90
:104FD0002173407BA072207A5749400040184078E6
:104FE000A073FFF7D9FFFFF7B2FFE570E57330BD9F
:104FF0004048807900280AD00020414A115C0029ED
:1050000001D0491E1154401CC0B23628F6D3704757
:10501000C8E7F0B500213748404CC5783A4E4148C2
:10502000405C002D12D04200A35A002B1AD05B1E08
:10503000A3523E4B4200A25A1B789A4217D3002239
:105040003254324B1A54324B1A541CE04300E25A89
:10505000521C92B2E252394F3F88BA42E9D3002241
:10506000E252E6E7354B1B885B1EA352E1E7530093
:10507000244FD218BB5C3354D219244B57781F5499
:105080009378234A1354491CC9B23629C7D3F0BDBB
:10509000F0B50023214F26E0002116481D4AC078B4
:1050A00084465800821896466246012A48D03A5AE9
:1050B000002A50D0521E3A527246525C3C5A650049
:1050C0006419104D2E5D104DAE540E4D64190F4DE8
:1050D0006678AE54A5780E4CA554491CC9B2022975
:1050E000E2D35B1CDBB20E4800788342D4D3F0BD20
:1050F000F67F0000080200200602002005020020C2
:10510000D210002048D2000030100020661000208D
:105110009C1000202AD500007AD500003E11002006
:10512000EA7F0000F4D4000088D40000E67F00008D
:10513000B88F0000EE7F0000D87F0000E87F0000FD
:105140003A5A521C92B23A52FE4C2478A242B3D33D
:1051500000223A52B0E7FB4A1278521E3A52ABE7AD
:10516000F0B50021F848C478F84803885B1EF84879
:10517000405C002C0CD0F74E4500725B521C92B282
:105180007253F24F3F88BA4209D30022725306E0AD
:10519000F04E4200B55A002D10D06D1EB552ED4AAA
:1051A0004500525BEC4D2D78AA4209D3EB4D00220D
:1051B0002A54EB4D2A54EB4D2A540EE0B352EEE73D
:1051C00055005219E84DE54EAF5C37545219E44D85
:1051D00056782E549578E34A1554491CC9B236299D
:1051E000C5D300213520421AD948805C002C0CD050
:1051F000D84D6C352A5C521CD2B22A54D34E368814
:10520000B24209D300222A5406E0D24D6C352A5C02
:10521000002A17D0521E2A54D04DD14E2A5C375C3A
:10522000D719D04A125CD7421AD1CA4ACA4F6C3237
:10523000125C3F78BA4207D300222A543254C94D37
:105240002A540DE02B54E7E75700D219C64FBF5C34
:105250002F54C54D5219557835549578C14A155477
:10526000491CC9B23629BDD341E7F0B50021B64883
:10527000B84CC578B94EB648405C002D18D04200F5
:10528000A35A002B20D05B1EA3524200A25AB64F55
:105290005300D218BB5C3354D219B14B57781F540A
:1052A0009378B04A1354491CC9B23629E3D31EE798
:1052B0004300E25A521C92B2E252A74F3F78BA42E0
:1052C000E3D30022E252E0E7A34B1B785B1EA3521C
:1052D000DBE7F0B500209F4EA44FA2361FE0A449A3
:1052E0000978002909D0315C491CC9B231543A7897
:1052F000914207D30021315404E0315C002913D0DE
:10530000491E3154325C9B499B4D895C4200AC5C28
:105310009A4B1955521952789954401CC0B2984969
:1053200009788842DBD3E2E63978491E3154E9E74F
:1053300070B58F488749037835220888002B07D03D
:10534000401C80B20880362806D30020088003E085
:1053500000280DD0401E088008887D4B195C894CC0
:10536000864D26786E54101A185C2178295470BD29
:105370000A80F1E7F0B500207D49764A0B787B4C36
:105380007C4D7E4FA232002B09D0115C491CC9B262
:1053900011542678B14207D30021115404E0115C66
:1053A000002909D0491E1154115C695C3954401C14
:1053B000C0B23628E7D39AE62178491E1154F3E7A4
:1053C00070B56149087C401CC0B20874624A12780A
:1053D000904201D3002008740020097C624D4C00EB
:1053E0000C19295D65196C785C4A5D4E5D4BAD7892
:1053F000115434541D54401CC0B23628F8D370BD2B
:1054000051498878401CC0B288705F4A1278904237
:1054100001D3002088700020584A89781154401C1C
:10542000C0B23628FAD3704710B500204649574A13
:10543000524C497AFF2311542354401CC0B23628E1
:10544000F9D310BD70B5404CE07B00283DD16079A8
:1054500000230125002803D06371FFF7C9FDE57122
:10546000207800282CD023706078030001F0FAFC2B
:105470000C070A0D271019131C161F222527FFF7EA
:10548000D3FF1CE0FFF7BCFF19E0FFF799FF16E020
:10549000FFF770FF13E0FFF74BFF10E0FFF719FF76
:1054A0000DE0FFF7E2FE0AE0FFF75AFE07E0FFF724
:1054B000EFFD04E0FFF7ADFD01E0FFF7A9FDE571A9
:1054C000E079002801D0FFF78DFB70BD1E49304AFE
:1054D000087A4000135C4B728018407888737047DC
:1054E00030B5194D00236B706420E882FFF708FC8B
:1054F00028480370AB70284901200870AB71002068
:10550000224A1E4C697AFF2311542354401CC0B216
:105510003628F9D330BD30B50B4D0023687801280B
:1055200000D0AB7001246C70FF201930E882FFF7C7
:10553000E7FB1848047018480470AB7100200F494D
:10554000124C2BE05B7F000008020020EC7F000083
:10555000F4D400003E110020E67F0000301000204F
:10556000661000209C10002048D20000E77F000059
:10557000BD010020228F00002AD50000D21000209B
:10558000EB7F0000597F00005A7F000008110020C7
:10559000D87F000006020020050200206A7A0B5422
:1055A0002254401CC0B23628F9D330BDF0B5784B38
:1055B000042058706420D882FFF7A2FB75490020B0
:1055C00008709870744A012111709871734D744C71
:1055D000744A754E754F5B7A295C21541354715C83
:1055E0003954401CC0B23628F6D380E5F0B5684E79
:1055F00008207070A020F082FFF782FB6549002030
:1056000008703074644A01211170B071684F11E064
:105610006849634A095C1154674D4300EA5C634C76
:10562000A1545B195B78E1545E4C717AA154E1544A
:10563000401CC0B239788842EAD358E530B5544BA3
:10564000062058704B20C000D882FFF759FB514903
:10565000002008709870504A0121117099715049CA
:10566000A2390880554C2078554A504915780D5478
:105670003520205C12780A5400204A4A597A115485
:10568000401CC0B23628FAD330BDF0B5404B0720DD
:1056900058703220D882FFF733FB3E490020087053
:1056A00098703D49087098710021444D454E685CE2
:1056B0004A003B4B4400B25AA23B1A53424B1B7860
:1056C0009A4207D3414B00221A54414B1A54414B82
:1056D0001A540CE05300D2183F4F3C4BBC5C1C5496
:1056E000D2193B4B54781C5493783A4A1354491CB2
:1056F000C9B23629DBD30021354B3520421A2F4859
:10570000805C304A4C00125D254C363C22542F4CB4
:105710001E5C255CAE192F4D2F5CFE4212D12A4E25
:105720003678B24204D3002222541A542A5409E093
:1057300056009219284EB75C2754921954781C547D
:1057400092782A54491CC9B23629D6D30020174A68
:10575000FF211154401CC0B23628FAD3C7E40C49CB
:10576000888A401E0004000C888203D1488A8882FF
:1057700001200870704706490879401CC0B20871C2
:10578000042803D9002008710120487170470000E7
:10579000080200200602002005020020828F00007F
:1057A000E011002008110020228F0000D2100020FC
:1057B000EA7F000060D500002AD50000F4D4000084
:1057C000597F00009AD50000E67F000030100020CD
:1057D000661000209C10002048D2000031490222AF
:1057E0008A60086188684022104388604868C00762
:1057F000FCD1704730B52B4C63680425AB43636024
:105800000123A360206100BF00E000BF6068C00703
:10581000FBD10CE0107853781B020343907800040E
:105820001843D3781B060343E360121D091F0029A8
:10583000F0D1A06840210843A06000BF00E000BF95
:105840006068C007FBD16068400701D5012030BD0A
:10585000002030BD30B5134B5C680425AC435C6060
:1058600001249C60186100BF00E000BF5868C007B9
:10587000FBD103E001CAD86000BF491E0029F9D15D
:10588000986840210843986000BF00E000BF586856
:10589000C007FBD15868400701D5012030BD00206A
:1058A00030BD000000200640FE49FD480860002091
:1058B0008860FD4A4A60FE49FC4A0A608860F84AEE
:1058C000C1324A60FB490860080488605010486093
:1058D000F349F94859310160F84981600821416074
:1058E0007047F8B5EE49EF48C1310160ED4AF44820
:1058F000906000245460EE4A116090605460ED4E58
:105900003160B0607460EC4A1160906054600A20AD
:1059100000F0C9FEEB4D6C70AC70EC702C717068CF
:105920000227384370607762642000F0A7FE306879
:105930000124C007002800D06C703068400700D5F3
:10594000EC70706838437060B762642000F096FEB7
:105950003068C00700D1AC703068400700D42C71AB
:10596000022070627168014071606878012802D17C
:10597000A878012803D0E878012802D005E02C702F
:1059800003E02879012800D12C7000206870A870ED
:10599000E870287170680827384370607762642067
:1059A00000F06CFE3068400700D56C703068C006AF
:1059B00000D5EC70706838437060B762642000F006
:1059C0005DFE3068400700D4AC703068C00600D47B
:1059D0002C7108207062716801407160687801283C
:1059E00002D1A878012803D0E878012802D005E088
:1059F0002C7003E02879012800D12C7000206870F9
:105A0000A870E870287170680127BF033843706080
:105A10007762642000F032FE3068C00600D56C70FA
:105A20003068000400D5EC70706838437060B7626D
:105A3000642000F023FE3068C00600D4AC703068EB
:105A4000000400D42C717762706838407060687808
:105A5000012802D1A878012803D0E878012802D0D3
:105A600005E02C7003E02879012800D12C70002774
:105A70006F70AF70EF702F717168202001437160FB
:105A80007062642000F0FAFD3068000400D56C708C
:105A90003068400600D5EC707168202001437160C9
:105AA000B062642000F0EAFD3068000400D4AC70FD
:105AB0003068400600D42C7120207062716801406B
:105AC00071606878012802D1A878012803D0E878AD
:105AD000012802D005E02C7003E02879012800D1CC
