:020000040000FA
:1000000068150020B5010000B9010000F9260000C4
:1000100000000000000000000000000000000000E0
:10002000000000000000000000000000BD01000012
:100030000000000000000000BF010000C10100003E
:10004000C17F0000F5CE00000000000000000000AD
:100050000000000000000000C301000000000000DC
:100060000000000000000000192700000000000050
:10007000C3010000C3010000C3010000C51A000055
:10008000A51C0000000000000000000000000000AF
:100090000000000000000000000000000000000060
:1000A000C3010000C3010000C30100000000000004
:1000B000C3010000E1BD0000C3010000C301000056
:1000C00000F002F800F042F80CA030C808382418FC
:1000D0002D18A246671EAB4654465D46AC4201D180
:1000E00000F034F87E460F3E0FCCB6460126334270
:1000F00000D0FB1AA246AB4633431847E4E10000A8
:1001000004E20000103A02D378C878C1FAD8520746
:1001100001D330C830C101D504680C6070470000BD
:100120000023002400250026103A01D378C1FBD813
:10013000520700D330C100D50B6070471FB5C046D1
:10014000C04600F063F81FBD10B510BD00F016F9F1
:100150001146FFF7F3FF0DF0EBFA00F02EF903B4B0
:10016000FFF7F2FF03BC00F033F900000148016023
:1001700001480047240006400103FF1F30B40C492A
:100180000C684A6823681068C0181060241D121D8E
:100190008C4207D28A4208D20C604A6030BC4000D0
:1001A000400870470C00DC3CF6E70A00DC3AF3E755
:1001B000FC12002006480047FEE7FEE7FEE7FEE7E8
:1001C000FEE7FEE703480449024A044B704700007B
:1001D000C10000006813002068150020681300208B
:1001E0000B4A30B511460B4C60310B46DC3B0CC161
:1001F000372106E0020C8D0012185A51064A50436E
:1002000000190A46491E002AF4DC30BD0120E7E748
:100210009C120020E119D666CD0D010000220309D1
:100220008B422CD3030A8B4211D300239C464EE011
:1002300003460B433CD4002243088B4231D30309CD
:100240008B421CD3030A8B4201D394463FE0C3097F
:100250008B4201D3CB01C01A524183098B4201D397
:100260008B01C01A524143098B4201D34B01C01A82
:10027000524103098B4201D30B01C01A5241C308FA
:100280008B4201D3CB00C01A524183088B4201D369
:100290008B00C01A524143088B4201D34B00C01A55
:1002A0005241411A00D201465241104670475DE06A
:1002B000CA0F00D04942031000D3404253400022ED
:1002C0009C4603098B422DD3030A8B4212D3FC2296
:1002D000890112BA030A8B420CD3890192118B4215
:1002E00008D3890192118B4204D389013AD092112B
:1002F00000E08909C3098B4201D3CB01C01A5241E6
:1003000083098B4201D38B01C01A524143098B42AE
:1003100001D34B01C01A524103098B4201D30B0197
:10032000C01A5241C3088B4201D3CB00C01A5241BC
:1003300083088B4201D38B00C01A5241D9D24308A3
:100340008B4201D34B00C01A5241411A00D20146E0
:10035000634652415B10104601D34042002B00D54A
:100360004942704763465B1000D3404201B500200C
:10037000C046C04602BD704770477047754600F0E2
:1003800023F8AE46050069465346C008C0008546BE
:1003900018B020B5FFF716FF60BC00274908B64625
:1003A0000026C0C5C0C5C0C5C0C5C0C5C0C5C0C584
:1003B000C0C5403D49008D4670470446C046C04612
:1003C0002046FFF7CCFE00000048704704130020D1
:1003D00001491820ABBEFEE726000200704700006E
:1003E0000849097804229143064A1170002005E06B
:1003F0000549095C054A1154411CC8B24028F7DB85
:1004000070470000CD000020405F0000A8010020E0
:1004100014490988491C134A1180114609887D2214
:10042000120191421DDD002005E0002182000E4BEB
:100430009950411CC8B21028F7DB00210B4A1170FB
:10044000084A11800A4A11600A4A11700A4A11705A
:100450000849097802221143064A11700221074A0D
:1004600011707047E40000202C0D0020E2000020F5
:100470000C000020CD0000207F0000208000002024
:1004800008480068084908600220C870EC2008711C
:10049000AC2048710548006801214903084303491D
:1004A00008607047EC0C00202C0D00208400002018
:1004B000F1B58EB000200D9007E000200D99890065
:1004C000FA4A50500D98401C0D900D981028F4D306
:1004D0000E98952874D028DC222872D012DC1428BB
:1004E00070D008DC10284CD011286CD0132801D013
:1004F00001F0FFF9E5E0152878D0162877D02028FC
:10050000F6D1A9E34F2801D101F053F906DC2728E1
:100510006ED030286DD03128EAD1D9E3912869D046
:10052000932868D09428E3D1BAE2B02801D100F032
:10053000A6FF0FDCA0380828DAD243007B449B8852
:100540005B009F447D04D609AF041C054205E60507
:100550008706BE06C42801D101F0EAF80ADCB128FA
:1005600001D100F0F2FFC12801D101F0A0F9C328A8
:10057000BED1AEE3CE2801D101F05EF9CF28B7D1CC
:10058000F5E3CB48006810281ED1C9480068C74968
:1005900008603420C87004200D9008E0C5480D990B
:1005A000405CC2490D9A88540D98401C0D900D98DE
:1005B0003828F3D3C0480178BC48203001760DE0DC
:1005C000CCE2B9E3F0E017E0B9480068B749086049
:1005D0000220C870EC20087101204871B7480068FB
:1005E000012149030843B5490860F4E31CE138E1FF
:1005F000F2E3F2E37AE1E0E1AD48447880780590F7
:10060000012C03D0022C01D0032C48D1A84800684B
:10061000A6490860012C04D0022C05D0032C09D176
:1006200005E0A748039006E0A648039003E0A6482B
:10063000039000E000BF00BF059800280FD10D9087
:1006400009E00D990398415C0D98001D974A1154DB
:100650000D98401C0D900D983C28F2D329E0059888
:10066000012811D100200D900AE003983C300D992B
:10067000415C0D98001D8D4A11540D98401C0D9041
:100680000D982428F1D314E0894800688749086050
:100690000220C870EC2008710120487109E08448EC
:1006A0000068824908600220C870EC2008710120AF
:1006B0004871824800680121490308437F49086066
:1006C00093E77B484078F02108400411784840784F
:1006D0000007000F059076488078C706FF0E012CB2
:1006E00003D0022C01D0032C4CD1714800686F4913
:1006F0000860012C04D0022C05D0032C09D105E0A0
:100700007248029006E07248029003E0714802903D
:1007100000E000BF00BF0598002811D10D900BE04C
:10072000F901029808180D99415C0D98001D5F4A67
:1007300011540D98401C0D900D983C28F0D32BE0DF
:100740000598012813D100200D900CE0F9010298C2
:1007500008183C300D99415C0D98001D534A115406
:100760000D98401C0D900D982428EFD314E05048AC
:1007700000684E4908600220C870EC200871012012
:10078000487109E04A480068484908600220C8707A
:10079000EC20087101204871484800680121490394
:1007A00008434649086020E741484478012C03D0BB
:1007B000022C01D0032C25D13D4800683B4908603C
:1007C000012C04D0022C05D0032C09D105E04248AD
:1007D000049006E04148049003E04148049000E0A2
:1007E00000BF00BF04200D9008E00D990498405C04
:1007F0002E490D9A88540D98401C0D900D9809288B
:10080000F3D309E02A480068284908600220C8702C
:10081000EC20087101204871284800680121490333
:10082000084326490860E0E6214800681F4908603F
:100830001F480068152805D10120C8702948007894
:10084000087106E002201949C870EC2008710120E7
:1008500048711A4800680121490308431749086094
:10086000C3E613480068114908601148006816285B
:100870000CD10120C8701C480068002802D0AA20B2
:1008800008710AE055200949087106E0022007496D
:10089000C870EC20087101204871084800680121E7
:1008A00049030843054908609FE600002C0D00201D
:1008B000EC0C002014E10000000CFF1F840000205D
:1008C000406E0000C06E0000406F0000C06F00006E
:1008D0004080000040900000805E0000C05E00008C
:1008E000005F0000405F0000D4E00000F948447859
:1008F00080780590012C02D1F74803901BE0022C70
:1009000002D1F648039016E0032C02D1F44803907C
:1009100011E0F0480068F34908600220C870EC203C
:10092000087101204871F04800680121490308431B
:10093000ED49086059E6059800280FD10D9009E0AF
:10094000E4490D98001D085CE8490D9A88540D98FB
:10095000401C0D900D983C28F2D32BE005980128FF
:1009600016D100200D900AE0DA490D98001D095CAF
:10097000DE4A0D983C3011540D98401C0D900D9896
:100980002428F1D3D94A0221039801F089FB11E010
:10099000D0480068D34908600220C870EC20087174
:1009A00001204871D0480068012149030843CE491D
:1009B00008601AE6FFF764FD17E6C6484078F021A4
:1009C00008400411C34840780007000F0590C14853
:1009D0008078C706FF0E012C02D1C54802901BE0AB
:1009E000022C02D1C348029016E0032C02D1C24867
:1009F000029011E0B7480068BA4908600220C87048
:100A0000EC20087101204871B748006801214903B2
:100A10000843B5490860E8E5059800280FD10D9016
:100A200009E0AC490D98001D085CB0490D9A885446
:100A30000D98401C0D900D983C28F2D32DE00598A0
:100A4000012818D100200D900AE0A2490D98001D40
:100A5000095CA64A0D983C3011540D98401C0D902D
:100A60000D982428F1D3FA01029950189F4A0221C7
:100A700001F016FB11E0974800689A4908600220CF
:100A8000C870EC2008710120487197480068012166
:100A90004903084394490860A7E5FFF7F1FCA4E582
:100AA0008C4800680C908B484478012C02D1934804
:100AB00004901BE0022C02D19148049016E0032C14
:100AC00002D19048049011E082480068854908608E
:100AD0000220C870EC20087101204871824800682B
:100AE000012149030843804908607EE57948046094
:100AF00002461021049801F027FB83480078A042A9
:100B000015D18248046004200D9008E071480D99C9
:100B1000405C7E490D9A88540D98401C0D900D98AC
:100B20000928F3D3794A1021774801F00DFB6E486C
:100B300000680121890308436B490860002074495B
:100B40000870694800680121090408436649086083
:100B500060490C980860FFF793FC46E55D48007912
:100B600001280FD100200D9008E064480D99405CE9
:100B700066490D9A88540D98401C0D900D98402898
:100B8000F3D339E05348007902280FD100200D90AB
:100B900008E05B480D99405C5C490D9A88540D98BB
:100BA000401C0D900D984028F3D325E0494800796A
:100BB00003280FD100200D9008E052480D99405CA9
:100BC00052490D9A88540D98401C0D900D9840285C
:100BD000F3D311E03F480068424908600220C87022
:100BE000EC200871012048713F4800680121490349
:100BF00008433D490860F8E4444A1021424801F0A6
:100C0000A3FA444800780621084342490870364850
:100C10000068414908433449086000200D900CE009
:100C200000203B490D9A88543C490D9A88543C4910
:100C30000D9A88540D98401C0D900D980F28EFD9EF
:100C40000020384908702848006837490843264979
:100C50000860FFF715FCC8E41E484478012C03D057
:100C6000022C01D0032C21D11A4800681D490860CC
:100C7000012C04D0022C04D0032C06D103E02B4E0F
:100C800004E02B4E02E02B4E00E000BF00BF00202E
:100C90000D9007E00D98315C001D124A11540D981B
:100CA000401C0D900D983C28F4D309E009480068D9
:100CB0000C4908600220C870EC20087101204871BE
:100CC00009480068012149030843074908608CE48A
:100CD00066E3FDE3EC0C0020406E0000C06E0000F7
:100CE000406F00002C0D002084000020200F002009
:100CF000C06F00004080000040900000805E000057
:100D0000C05E0000005F0000405F0000A8010020FE
:100D1000DF0E0020CD00002020000100D00E0020BA
:100D2000840E00209100002000400001006A0000B5
:100D3000C06B0000806D0000FB484078F021084047
:100D40000411F94840784007400F0690012C03D069
:100D5000022C01D0032C41D1F3480068F34908600C
:100D6000012C05D0022C05D0032C07D104E0F6E3BA
:100D7000EF4E04E0EF4E02E0EF4E00E000BF00BF98
:100D80000698062813DA00200D900CE03C21069806
:100D9000484380190D99415C0D98001DE34A115498
:100DA0000D98401C0D900D983C28EFD320E00020BA
:100DB0000D900CE03C210698484380190D99415C48
:100DC0000D98001DD94A11540D98401C0D900D9896
:100DD0001828EFD30CE03CE212E07FE2D248006832
:100DE000D24908600220C870EC20087101204871C7
:100DF000D2480068012149030843D04908605FE4F4
:100E0000C9480068272809D1C7480068C749086051
:100E10000120C870CA480078486009E0C2480068EC
:100E2000C24908600220C870EC2008710120487196
:100E3000C2480068012149030843C04908603FE4F3
:100E4000B9484078012807D1B7480079092801D16D
:100E5000BC4E18E0BC4E16E0B3484078022807D1DB
:100E6000B1480079092801D1B84E0CE0B84E0AE02B
:100E7000AD484078032806D1AB480079092801D154
:100E8000B44E00E0B44EA84A121D1021304601F0C5
:100E90005BF9FFF7F5FAB148007806210843AF493E
:100EA00008700DE4AE480068012149030843AC49CD
:100EB0000860AC48007801210843AA4908709A48A4
:100EC00040784007400F0690A5480068012149037B
:100ED0000840002825D00698002822D1A0480068A4
:100EE000C900084000281CD19D48006808439C495F
:100EF000086000200D900FE000209B490D9A885457
:100F00009A490D9A88549A490D9A885499490D9A8C
:100F100088540D98401C0D90FF2181310D98884216
:100F2000EAD300200D900DE07F490D98001D095C6B
:100F30003C22069850430D9A80188F4A11540D9800
:100F4000401C0D900D983C28EED385480068012187
:100F50004903084000280FD0069806280CD100202D
:100F6000864908807E4800680121C90308437C49FE
:100F70000860042082490870FFF782FA13E46A4887
:100F80004078F0210840041101200D90012C01D17E
:100F9000674E09E0022C01D1664E05E0032C01D119
:100FA000654E01E000200D900D9801280AD1724A8B
:100FB0000621304601F074F868480078062108439D
:100FC00066490870FFF75CFA2DE457480079552808
:100FD0007ED1624800780121084360490870524878
:100FE0004078012828D1032040040AF0DDFF612069
:100FF00000030AF0D9FF312040030AF0D5FF632037
:1010000000030AF0D1FF192080030AF0CDFF65200C
:1010100000030AF0C9FF332040030AF0C5FF672030
:1010200000030AF0C1FF0D20C0030AF0BDFF6920D4
:1010300000030AF0B9FF6BE03B484078022828D152
:10104000352040030AF0B0FF6B2000030AF0ACFF2C
:101050001B2080030AF0A8FF6D2000030AF0A4FF04
:10106000372040030AF0A0FF6F2000030AF09CFF26
:10107000072000040AF098FF712000030AF094FF93
:10108000392040030AF090FF732000030AF08CFF20
:101090003EE02548407803283AD11D2080030AF01D
:1010A00083FF752000030AF07FFF3B2040030AF016
:1010B0007BFF772000030AF077FF0F20C0030AF0C0
:1010C00073FF792000030AF06FFF3D20400300E02A
:1010D0000EE00AF069FF7B2000030AF065FF1F2085
:1010E00080030AF061FF7D2000030AF05DFF0FE03E
:1010F0000D480079AA280BD1184800784008400014
:1011000016490870084600780621084313490870FC
:101110009FE005484078F02108400411012C31D1AE
:10112000032040040B9038E0EC0C00202C0D002034
:1011300080680000406A0000006C0000840000200D
:10114000C06D000040A00000006A000080A0000008
:10115000C06B0000C0A00000806D0000CD0000202A
:101160000C000020E2000020340B0020B406002018
:10117000B40900203408002010050020E4000020FD
:1011800051000020022C03D1352040030B9004E0D5
:10119000032C02D11D2080030B90F74840784007B4
:1011A000400F069000200D900DE0F3490D98001DB2
:1011B000095C3C22069850430D9A8018EF4A11545E
:1011C0000D98401C0D900D983C28EED306980628EB
:1011D0003DD1E9488078C007C00F00281BD0E64900
:1011E0008978491EFF22813251430B9A8818E34ABD
:1011F000FF2101310AF0E6FFDF498978491EFF220D
:10120000813251430B9A8918C81DF930DC4A80217C
:101210000AF0D8FF1BE0D8498978491EFF228132A5
:1012200051430B9A8818D54A80210AF0CBFFD24946
:101230008978491EFF22813251430B9A891808464A
:101240008030CE4A8032FF2101310AF0BBFFFFF728
:1012500017F960E3C8480079AA2813D1C948007873
:1012600006210843C7490870C7480068012149039F
:101270008843C5490860C548007840084000C34914
:1012800008701DE0BC480079552819D1BE48006897
:10129000012149030843BC490860BC48007801218A
:1012A0000843BA4908700020B9490880B949087054
:1012B000B9490870B9490880B9490880B949087026
:1012C00029E3AD4A121D1021B74800F03DFFB64892
:1012D0000078B6490876FFF7D3F81CE3A6484478AF
:1012E000807805072D0FA4480068B1490860012CDB
:1012F00002D1B04801901AE0022C02D1AE48019010
:1013000015E0032C02D1AD48019010E09A48006826
:10131000A74908600220C870EC20087101204871BC
:10132000A7480068012149030843A54908600D2D1D
:1013300017DA00200D9010E0681E0101081A8100E4
:10134000019808180D99890041580D98401C80009B
:10135000974A11500D98401C0D900D980F28EBD313
:1013600016E000200D9010E0681E0101081A8100AF
:10137000019808180D99890041580D98401C80006B
:101380008B4A11500D98401C0D900D980C28EBD3F2
:101390008B48006801214903084389490860BAE283
:1013A00075484078C0210840841173484078C706CA
:1013B000FF0E71488078401EC5B26F4800687C49B6
:1013C0000860012C02D1002008901BE0022C02D101
:1013D0002004089016E0032C03D10120800408901B
:1013E00010E065480068724908600220C870EC206F
:1013F00008710120487172480068012149030843BF
:101400006F490860052D19DA00200D9012E03A03AB
:10141000089952183C21694351180D9A9200881876
:101420000AF0F4FD0D99491C8900614A50500D984D
:10143000401C0D900D980F28E9D318E000200D9066
:1014400012E03A03089952183C21694351180D9A49
:10145000920088180AF0DAFD0D99491C8900544A57
:1014600050500D98401C0D900D980528E9D3544814
:101470000068012149030843514908604BE23E4896
:101480004478012C02D14B4801901AE0022C02D181
:101490004948019015E0032C02D14848019010E022
:1014A00035480068424908600220C870EC20087185
:1014B000012048714248006801214903084340491E
:1014C00008602D48807805072D0F0D2D16DA00E0F5
:1014D000FAE000200D900DE027490D98001D095CF1
:1014E000681E3C2250430D9A8018364A11540D98BC
:1014F000401C0D900D983C28EED316E006980D2860
:1015000013DB00200D900DE01B490D98001D095CB8
:10151000681E3C2250430D9A80182A4A11540D9897
:10152000401C0D900D983028EED30D2D0AD1254A80
:101530000C21019800F0B4FD124800780421084302
:1015400010490870FEF79CFFE5E10B484078C02188
:1015500008408411012C03D100200A9046E049E1A3
:10156000022C02D120040A9040E0032C2CD101204F
:1015700080040A903AE00000EC0C002010050020E6
:1015800010060020CD0000200C000020E20000200A
:10159000E40000205200002053000020380000200A
:1015A0003A00002051000020C06D000028010020FA
:1015B0002C0D0020805F000080620000806500002C
:1015C00084000020200F0020D4480068D44908601F
:1015D0000220C870EC20087101204871D1480068D1
:1015E000012149030843CF49086094E1CB48407882
:1015F000C706FF0EC9488078401EC5B2C748C078EC
:10160000079007983C2801DD3C200790002D04D16D
:101610003A030A9950180AF0C7FC052D10DC002087
:101620000D9009E0BD490D98001D085CBE490D9A5A
:1016300088540D98401C0D900D9907988142F1D364
:10164000042D0CDA39030A9809183C20684308185D
:101650000990B54A3C2109980AF0B4FD31E0042D07
:101660001ED139030A9809183C20684308180990CC
:101670000798102805DCAC4A079909980AF0A2FDE2
:101680001FE0A94A102109980AF09CFD079810381C
:1016900081B2A54A1032099810300AF093FD10E08B
:1016A000052D0ED139030A9809183C206843081803
:1016B00009900798142804DC9B4A079909980AF0B6
:1016C00081FDFEF7DDFE26E19448447840689749A5
:1016D00088421BD101F084FE012C05D1944A0C21D3
:1016E000944800F0DDFC0EE0022C05D1904A0C215C
:1016F000914800F0D5FC06E0032C04D18C4A0C2163
:101700008E4800F0CDFCFEF7BBFE10E08348006879
:10171000834908600220C870EC20087101204871DC
:10172000804800680121490308437E490860F2E0CF
:101730007A48447840687D49884228D101F050FEBB
:10174000012C05D17E4A10217E4800F0FDFC0EE000
:10175000022C05D17C4A10217C4800F0F5FC06E003
:10176000032C04D17A4A10217A4800F0EDFCFF20C6
:101770000D900DAA1021784800F0E6FCFEF780FEDF
:1017800076480078062108437449087010E06348E1
:101790000068634908600220C870EC2008710120CD
:1017A0004871604800680121490308435D490860A9
:1017B000B1E05A4800686A49884209D15748006830
:1017C000574908600120C87066480078087109E030
:1017D00052480068524908600220C870EC20087125
:1017E000012048714F4800680121490308434D49D1
:1017F000086090E0494800685B4988420AD1474840
:1018000000790D900DAA0121564800F09DFCFEF7CD
:1018100037FE10E041480068414908600220C87066
:10182000EC200871012048713E48006801214903FD
:1018300008433C4908606EE0384800684A49FF3177
:10184000884222D135480079C007C00F002806D051
:1018500046480078022108434449087005E043489F
:10186000007802218843414908702C480079022100
:101870000840002803D001203D49087202E0002002
:101880003B490872FEF7FCFD10E02448006824493B
:1018900008600220C870EC200871012048712148BE
:1018A00000680121490308431E49086033E01B48D2
:1018B0000068304988420AD1184840682E49884259
:1018C00005D101202D490870FEF7DAFD10E013481C
:1018D0000068134908600220C870EC2008710120DC
:1018E0004871104800680121490308430D49086008
:1018F00011E00A4800680A4908600220C870EC201C
:101900000871002048710748006801214903084315
:101910000449086000BF00BF0FB0F0BDEC0C002010
:101920002C0D002084000020200F0020095116E615
:1019300040580000805F0000806200008065000069
:10194000405C0000006A0000805C0000C06B00008A
:10195000C05C0000806D0000C06D0000CD00002064
:101960004FB00000000CFF1FCF3000016C0D0020B5
:10197000A8010020C100000416171211C0000020A9
:1019800070B53B480078022188433949087003F05C
:10199000F5FD38480078012804D002280AD0032831
:1019A00018D10FE03448807A002801D0324D00E091
:1019B000324D10E03248807A002801D0304D00E0EE
:1019C000304D08E03048807A002801D02E4D00E0EC
:1019D0002E4D00E000BF00BF002408E028782C490D
:1019E0000855287B2B4908556D1C601C84B2402C7F
:1019F000F4DB2848007800280BD025480078092817
:101A000007D023480078002803D0214800782149D6
:101A10000870214800781E49087600240AE000205A
:101A20001E4908551E4908551E4908551E490855A6
:101A3000601C84B2FF2081308442F0DB002404E08B
:101A400000201A490855601C84B2602CF8DB002085
:101A50001749088017490880174908701749087006
:101A60001749087003F0A2F903F0F2F970BD000005
:101A7000CD000020405F000040A00000006A000090
:101A800080A00000C06B0000C0A00000806D0000BE
:101A90002801002068010020C06D0000340B0020E8
:101AA000B4060020B409002034080020E80100201A
:101AB000380000203A00002052000020530000208F
:101AC0005100002010B56348806A01210843614934
:101AD000886261480078002817D06048C06A800793
:101AE000C00F002803D000205D4908800DE05C484D
:101AF0000088401C5A49088008460088FF21C331ED
:101B0000884202D100205449087056480078C00726
:101B1000C00F002801D0FEF77BFC5348006801216C
:101B200089060840002805D050480088401C4F49CD
:101B3000088002E000204D4908804D480078C00729
:101B4000C00F00287BD14B480068401C4949086001
:101B5000084600684849884205D900204549086080
:101B600001204649087040480068012108433E4969
:101B7000086043480078C007C00F002805D0084619
:101B8000006802210843384908603E480068012186
:101B900049030840002809D13B480088401C3A49C5
:101BA00008803A480088401C384908803848007846
:101BB00014303549098888421FDC364800780028EF
:101BC00015D13048006838210840002815D12D482B
:101BD0000068082108432B49086000202A49088032
:101BE00001202C49087000202B49087005E0254889
:101BF000006804210843234908602848007814300D
:101C000022490988884221DC25480078002817D11C
:101C10001C4800680721C9010840002816D119484E
:101C20000068802108431749086000201749088090
:101C300001201B49087000201749087006E007E0E2
:101C400010480068402108430E49086003F054FB27
:101C500010BD0000800000407E0000200000064013
:101C60007C000020E200002084000020CA00002048
:101C7000CD0000204C000020B80B000050000020D8
:101C8000AB0000200C000020380000203A000020AB
:101C900018000020520000205100002019000020F0
:101CA00053000020FEB5CD4FCD48806A01210906C2
:101CB0000843CB498862CB480078C007C00F002892
:101CC00015D0C9480078401CC749087008460078FC
:101CD0000E280BDBC348006840084000C14908607B
:101CE0000846006808210843BE49086075E1BD4800
:101CF0000068022108400028F8D0BC480068401C59
:101D0000BA49086008460078002827D0B84800780B
:101D1000022823D1FEF732FA5F210090FEF788FAFD
:101D2000CEB27007400F0190B248007A401CC1B299
:101D3000B048017208304654FEF720FA5F21009047
:101D4000FEF776FACEB27007400F0190A948007AEC
:101D5000401CC1B2A748017208304654A34800781D
:101D60000007000F042805D0A04800780007000FE6
:101D70000A284BD19E480078032847D1FEF7FEF988
:101D80005F210090FEF754FACEB27007400F019029
:101D9000002438E09748005D002833D19648C07889
:101DA000042820D1FEF7EAF907210090FEF740FA57
:101DB000CDB26807C00E385C610061188D4A403AA8
:101DC00050546807C00E385A0004000E61006118B4
:101DD000891848706807C00E38580002000E61006C
:101DE000611889188870F820304001994018400027
:101DF0008249085A01127F481530015501211538D2
:101E0000015502E0641C152CC4D300BF774800784C
:101E10000007000F04280BD0744800780007000F5B
:101E20000A2805D0714800780007000F0E2842D11B
:101E30006F48007804283ED1FEF7A0F919210090E0
:101E4000FEF7F6F9CEB2002432E06A48005D0028C1
:101E50002DD16948C078042820D1FEF78FF90721D9
:101E60000090FEF7E5F9CDB26807C00E385C61005E
:101E70006118604A403A50546807C00E385A00044E
:101E8000000E61006118891848706807C00E385844
:101E90000002000E61006118891888705848815D41
:101EA00054481530015501211538015502E0641CD4
:101EB000152CCAD300BF4B480068102108400028E9
:101EC00008D04A480068FF212D31884202D3002003
:101ED0004649086045480068FF212D3188427CD37F
:101EE00000204249086042480078042805DA40484A
:101EF0000078401C3E49087002E000203C49087010
:101F000002F0CEFF3A48007803000BF0C9FB05044D
:101F100016293D506400002037490870F0204870B1
:101F20000320384908704870022088700320C87068
:101F3000FF20087608F0BEFF4EE000202E49087012
:101F4000F020487002202F490870082048700020B7
:101F500088700320C870FF20087603F017FC3BE070
:101F6000002028490870F020487004202249087099
:101F700010204870002088700420C870FF2021497C
:101F8000087608F09BFC27E000201E490870F0202E
:101F90004870052018490870487000208870042097
:101FA000C870FF201749087603F014FC14E00020E5
:101FB00014490870F02113482030C17606200E49DC
:101FC000087020204870002088700420C87003F03A
:101FD00035FF01E001E000BF00BFFEBD14DC0000E2
:101FE00080200040880000204400002040000020A5
:101FF000450000200D0400206801002052DB000095
:1020000050DC000028010020002911D1094A126883
:1020100010231A40002A05D0064A12689A43054B3D
:102020001A6005E0034A126810231A43014B1A6034
:10203000704700008800002010B516480068802115
:102040008843803013490860BF20134988601348D3
:10205000114980310860032000030F49C861022044
:10206000086000BF0C480068022108400028F9D130
:102070000948006801210843074908600121102030
:1020800009F072FE102009F015FE102009F026FE5E
:1020900010BD000000E0054000200040A8610000E5
:1020A00007B582B0002000903CE010210191254846
:1020B00040680421884323494860012088606846BD
:1020C00000788001029940181E49086100BF00E0B5
:1020D00000BF1C484068C007C00F0028F8D109E0C5
:1020E00010681849C86000BF121D68460079401E7C
:1020F000C1B20191684600790028F1D11148806889
:10210000402108430F49886000BF00E000BF0D4830
:102110004068C007C00F0028F8D168460078401C0E
:10212000C1B200916846007803998842BDD3054842
:10213000406804210840002802D0012005B000BDFD
:102140000020FBE70020064007B581B01068009032
:102150001C484068042188431A494860012088606F
:102160000198086100BF00E000BF16484068C00742
:10217000C00F0028F8D107E010681249C86000BFFE
:10218000121D0298401E029002980028F4D10D48BA
:102190008068402108430B49886000BF00E000BF11
:1021A00008484068C007C00F0028F8D105484068BB
:1021B00004210840002802D0012004B000BD002006
:1021C000FBE700000020064010B512480078A12867
:1021D0001BD11148406D0121C90208430E494865D1
:1021E0000C480079002810D10846017C00200BF033
:1021F0007DFA084800690121C903084305490861BF
:10220000012100200AF000FD10BD00200AF024FD8D
:1022100000BFF9E7D80C00206C0D002010B5144861
:102220000078A1281ED11348406D01210903084000
:10223000002802D101200F4948740D480079002878
:1022400010D10C48417C00200BF050FA084800697E
:102250000121C903084306490861012100200AF051
:10226000D3FC10BD00200AF0F7FC00BFF9E7000026
:10227000D80C00206C0D002010B51E480078A12855
:1022800033D11C488068C0B201282ED1194800798A
:10229000002814D11748C078012802D100F086F830
:1022A00010BD1448C078022802D100F043F9F7E7C6
:1022B0001048C078032818D100F01EF8F0E70D4848
:1022C0000079012806D10B48C07801280DD100F013
:1022D000BFF8E5E707480079022806D10548C0782D
:1022E000032802D100F008F8DAE700200AF0B4FC75
:1022F00000BFD5E7D80C002038B529480078022166
:10230000084327490870084600780821084000283B
:102310001ED023480078884321490870002409E032
:10232000A100204840580090A00000990BF0DEF971
:10233000601CC4B2102CF3DB1B4800690121C903E7
:10234000084319490861402100200AF05DFC26E09D
:10235000002405E00021A20012488150601CC4B294
:10236000102CF7DBFF210F481438C175002409E059
:10237000A1000C4840580090A00000990BF0B6F95D
:10238000601CC4B2102CF3DB074800690121C903AB
:10239000084305490861402100200AF035FC38BD9A
:1023A0007F000020800D0020D80C002010B50024F4
:1023B0002248807800283CD1214800680121890208
:1023C0000840002810D01F4800781F4A10430146DB
:1023D00020460BF08BF91D49201D0BF087F90821D1
:1023E00000200AF011FC27E01648C0780006154AC4
:1023F000927812041043134A127810430146204683
:102400000BF074F90F48C07900060E4A9279120455
:1024100010430C4A5279120210430A4A12791043AF
:102420000146201D0BF062F9082100200AF0ECFBA8
:1024300002E000200AF010FC10BD0000D80C0020C3
:1024400084000020DF0E00200000010101010101D5
:1024500010B5002432488078012825D13148807891
:102460000006304A5278120410432E4A12781202A3
:102470001043411C20460BF039F92A4880790006A8
:10248000284A527912041043264A12791202104344
:10249000244AD27810430146201D0BF027F9082169
:1024A00000200AF0B1FB3AE01D48807802280BD1E9
:1024B0001D4800780002811C20460BF017F902210C
:1024C00000200AF0A1FB2AE01548807803280FD1EC
:1024D000164840780004154A127812021043C11CB5
:1024E00020460BF003F9032100200AF08DFB16E0D3
:1024F0000B48807804280FD10D48407800040C4A1E
:10250000127812021043011D20460BF0EFF8032150
:1025100000200AF079FB02E000200AF09DFB10BDCC
:10252000D80C0020950000209B0000209C0000207B
:102530009E00002010B50848017800200BF0D6F866
:10254000064800690121C9030843044908610121C3
:1025500000200AF059FB10BD6C0D0020D80C0020A3
:1025600010B525480078212840D123480069012171
:1025700009040843204908612048406D0121C9022F
:1025800008431E4948651C48007900282ED11A4886
:10259000C07808740846007C002806D118480068F6
:1025A00008218843164908601BE015480068082187
:1025B000084313490860084600680121C90388439D
:1025C0000F49086000F00CFF0D4800680121090464
:1025D00088430B4908600846006820218843084961
:1025E0000860002108460AF00FFB10BD00200AF029
:1025F00033FB00BFF9E70000D80C00206C0D002071
:102600008400002010B517480078212825D11648ED
:10261000406D0121090308431349486511480079B9
:1026200000281AD10F488078002806D10846406D4E
:102630000321890288430C4948650A4880780A4981
:1026400048740848006901210904084305490861E4
:10265000002108460AF0D8FA10BD00200AF0FCFA62
:1026600000BFF9E7D80C00206C0D002010B50F4812
:102670000078212815D10D480079002803D00B4897
:10268000007902280DD10948C078022802D100F053
:102690001BF810BD0548C078032802D100F008F8E7
:1026A000F7E700200AF0D8FA00BFF2E7D80C0020C4
:1026B00010B5012003498874002108460AF0A4FAE5
:1026C00010BD00006C0D002010B509480069012103
:1026D00009040843064908610648406D0121490282
:1026E000084304494865002108460AF08DFA10BDE8
:1026F000D80C00206C0D002000BFBFF34F8F0448A2
:102700000449C860BFF34F8F00BF00BFFEE7000061
:102710000400FA0500ED00E04D484068FF2101315A
:102720000840002819D04A484068C9010843484970
:10273000486008460068891588434549086008468E
:1027400000688915884340184149086008460068B8
:10275000202108433E49086079E03D48406808214F
:10276000084000280CD03A4840680903084338491B
:10277000486000203749088001203749087066E02A
:10278000334840680121C90308433149486008467D
:10279000406822280ED0242834D0302839D0FF3881
:1027A000213800283DD108460068202108432849E7
:1027B00008604BE029480078002807D128480078B5
:1027C000234988600120254908701AE025480068DF
:1027D000002810D023480068401E22490860224883
:1027E0001C490988405C1A4988601A480088401CC6
:1027F0001849088005E0164800681021084314496C
:10280000086023E01248006810210843104908605E
:102810001CE0164800780E49886000200F490870B7
:1028200014E00B480068FF21013188430849086023
:10283000084600688915884340180549086008461D
:102840000068202108430249086000BF00BF7047AC
:102850000080014000000020080000200900002046
:102860005700002004000020340B002056000020F8
:1028700010B51448006801214905884340181149E2
:1028800008601320104908621420486200200F4994
:1028900008800D480068FF210131884340180A492B
:1028A000086000210A2009F023FA0A200121814052
:1028B000074A116000BF00BF01218140054A116035
:1028C00000BF10BD00E00540008001400000002076
:1028D00080E200E000E100E00FB5684600780C49B6
:1028E0000870684680880B4908700B4800682021F2
:1028F0000843094908600948028000200849087017
:102900000848036000BF064800780028FBD00FBDD0
:1029100056000020570000200080014000000020E9
:1029200008000020040000200F4800684008400014
:102930000D4908600846006808210840002811D0A9
:102940000A480078401E09490870084600780028A7
:1029500008D10748007C0870034800680421084338
:1029600001490860704700008400002090000020AA
:102970006C0D00200246B03AD0B20E4A527C002ABA
:1029800017D000290BD142000B4B9A5C0B4B1A70ED
:102990004200094B9A5A1212084B5A7003E0002267
:1029A000064B1A705A70064A126880231A43044B69
:1029B0001A6070476C0D002014E000009C0000209D
:1029C00084000020002907D1164A126801231B0346
:1029D0001A43144B1A6024E0124A126801231B03A5
:1029E0009A43104B1A601A46126801239B069A43B9
:1029F0000C4B1A6000220C4B1A705A709A700B4ADA
:102A00001278002A03D1094A5278002A09D00022FC
:102A1000064B1A705A70034A126880231A43014BFE
:102A20001A60704784000020A80000209C0000204D
:102A300070B505460C46002C44D12348007AC007E7
:102A4000C00F002803D000201F49087202E00120B7
:102A50001D4908721C4A083201211C48FFF774FB0B
:102A60001A4808380078012804D0022809D0032821
:102A700015D10DE0154A083A10211548FFF764FBFF
:102A80000EE0124A083A10211248FFF75DFB07E0FA
:102A90000E4A083A10211048FFF756FB00E000BF2D
:102AA00000BF0E4800680121890308430B490860F4
:102AB00000200B49087009480068012109040843F7
:102AC0000649086070BD0000A8010020485F0000B2
:102AD000805E0000C05E0000005F000084000020F7
:102AE000DF0E002070B50A460446F03CE0B2440018
:102AF000174D2C5B23124400285D002A14D1154C7D
:102B0000247801259D402C43124D2C70C110CC001F
:102B1000041BE0B24C1C2C5D012585402C43E5B222
:102B20000C4E4C1C355512E00A4C247801259D4072
:102B3000AC43084D2C70C110CC00041BE0B24C1CFF
:102B40002D5D01248440A543024E4C1C355570BDBB
:102B500064E00000B20E002010B50346E03BD8B29E
:102B600000292CD1002A22D12C4B1B7A012B04D115
:102B7000072801D0032800D110BD294B1B78012460
:102B800084402343264C2370264B1B78062B42DCC3
:102B9000254B1B68012424042343234C2360234634
:102BA0001B680124A402A3431F4C236033E01F4B86
:102BB0001B780124844023431C4C23702BE0002A03
:102BC00022D1164B1B7A012B04D1072801D00328F0
:102BD00000D1D1E7124B1B7801248440A343104C51
:102BE0002370104B1B78062B15DC0F4B1B68012440
:102BF000240423430C4C236023461B680124A402B5
:102C0000A343094C236006E0084B1C780123834052
:102C10009C43064B1C7000BFAEE70000A8010020DB
:102C2000DF0E00209100002084000020930E002081
:102C300070B505460E46002E5AD12E48017828461A
:102C4000A73881424AD0A82D04D0A92D0DD0AA2D95
:102C500021D115E0002405E02748005D27490855EB
:102C6000601CC4B2402CF7DB16E0002405E02448C9
:102C7000005D22490855601CC4B2402CF7DB0BE014
:102C8000002405E01F48005D1C490855601CC4B2C3
:102C9000402CF7DB00E000BF00BF184A10211548A8
:102CA000FFF752FA184800780621084316490870C1
:102CB000164800681649084314490860002408E0D3
:102CC0000020144908551449085514490855601C3A
:102CD000C4B20F2CF4DD0020114908702846A73833
:102CE00010490870094800680F49084307490860FF
:102CF00070BD0000405F0000805E0000A801002061
:102D0000C05E0000005F0000CD00002084000020B5
:102D100020000100DF0E0020D00E0020840E0020D5
:102D200091000020A400002000400001A42800D150
:102D3000E82000290CD10D4A107001220B4B5A706B
:102D40000B4A126801235B061A43094B1A600BE019
:102D5000064A10700222054B5A70054A1268012378
:102D60005B061A43024B1A6070470000A20E002057
:102D700084000020F0B50C461346002C77D1604D3E
:102D80002D7A012D3BD15E4D2D79ED07ED0F002DF4
:102D900008D05C4D2D7844263540002D02D02B28DC
:102DA00000D1F0BD564D6D79ED07ED0F002D08D027
:102DB000544D2D7844263540002D02D03D2800D1B9
:102DC000EFE74F4DAD79ED07ED0F002D08D04D4DDC
:102DD0002D7822263540002D02D02B2800D1E0E7A7
:102DE000474DED79ED07ED0F002D08D0454D2D78BD
:102DF00011263540002D02D0292800D1D1E7002B23
:102E000024D102210FE03F4D6D5C002D09D13D4DD5
:102E100068543D4D2D680126360435433A4E3560E1
:102E200003E04D1CE9B20829EDDB00BF082965D19C
:102E3000C210D500451BE8B2344E551C755D012605
:102E400086403543314E571CF55557E0012B55D17F
:102E5000C210D500451BE8B22D4E551C755D0126EC
:102E6000864035432A4E571CF55547E0FFE7002BB7
:102E700035D1022122E0234D6D5C85421CD1002515
:102E8000204E7554204D2D680126360435431E4EC4
:102E900035600AE01B4E4D1C755D755435466D5C02
:102EA000002D00D103E04D1CE9B20829F2DB00BF80
:102EB0000025144EF57103E04D1CE9B20829DADB58
:102EC00000BFC210D500451BE8B2104E551C755D01
:102ED00001268640B5430D4E571CF5550EE0012BDB
:102EE0000CD1C210D500451BE8B2094E551C755DCA
:102EF00001268640B543064E571CF55500BF50E7E6
:102F0000A8010020DF0E002084000020840E002095
:102F1000930E00200246A13AD0B20A4A527C002AFF
:102F20000FD0002904D101228240074B1A7002E021
:102F30000022054B1A70054A126840231A43034BBE
:102F40001A6070476C0D00209B0000208400002058
:102F5000F8B505460E46ECB22F12002C00D1F8BD94
:102F6000F02C04DB31462046FFF7BCFD69E0E02C85
:102F700005DB3A4631462046FFF7EEFD61E0D92CED
:102F800011DB3148006802210840002804D0314696
:102F90002046FFF739F854E048243A4631462046A7
:102FA000FFF7E8FE4DE0D62C0ADB27480068022137
:102FB0000840002845D13146204600F08BFE40E015
:102FC000D42C0AD12048006802210840002838D1BA
:102FD0003146204600F034FD33E0B02C04DB3146AE
:102FE0002046FFF7C7FC2CE0A82C10DB1648006831
:102FF00002210840002824D1144800680903084031
:1030000000281ED131462046FFF712FE19E0A72CFA
:1030100004D131462046FFF70BFD12E0A42C04D169
:1030200031462046FFF7CEFC0BE0A12C04DB3146F5
:103030002046FFF76FFF04E03A4631462046FFF78F
:1030400099FE00BF8BE70000880000200C000020E4
:1030500030B503460A461C01284D601900214AE09C
:10306000048803252D032C40002C08D001252D03B6
:10307000641B0CD0641B1DD0641B37D122E00124DB
:103080008C401440002C01D01D4C04802FE0012402
:103090008C401440002C0AD00488641E04800488EC
:1030A000E4B2002C05D103246403048001E0002471
:1030B00004801CE001248C401440002C01D1114CF0
:1030C000048014E001248C401440002C03D001241F
:1030D0006403048009E00488641E04800488E4B268
:1030E000002C02D10124A403048000E000BF00BF33
:1030F000801C4C1CE1B20829B2DB30BDC40D00209D
:103100000510000012300000F8B5A24F002000901A
:1031100034E0684600780001C419002527E02088C3
:10312000002801D1A41C20E0208801218903084047
:10313000002818D068460078C0002843C6B220880E
:1031400049100840002808D0208849008843208082
:103150000021304600F0EAF905E00221304600F097
:10316000E5F900202080A41C00BF681CC5B2082D12
:10317000D5DB68460078401CC1B2009168460078F3
:103180000C28C6DB844800680821084000287DD050
:103190008148006802210840002878D17D48008AD3
:1031A000032149030840002811D07A484030008AA2
:1031B000084000280BD077488030008A084000285B
:1031C00005D076480068401C7449086008E07248E1
:1031D0000068082188437049086000206F49086032
:1031E0006E4800686E49884250D3002069490882C1
:1031F00000216848403001824030018269480068FF
:1032000069490843674908600020009012E00021E6
:10321000664A684600781154654A68460078115439
:1032200000226449684600780A5468460078401CC9
:10323000C1B20091684600780F28E8DD00200090B8
:1032400009E000215C4A684600781154684600781D
:10325000401CC1B20091684600780628F1DB0020CE
:103260004E4908604C480068082188434A49086074
:103270000846006802210843474908600120009081
:103280006A4601214D48FEF75FFF01E074E01BE054
:1032900007F070FF07F06EFF02F070F901F000FE1A
:1032A00000204749087047490870F0204870032003
:1032B000454908704870022088700320C870FF20BC
:1032C000087607F0F7FD57E03248008A03214903EA
:1032D0000840002811D02F484030008A08400028BC
:1032E0000BD02C488030008A0840002805D02B489D
:1032F0000068401C2949086008E027480068082148
:103300008843254908600020244908602348006854
:103310002E49884230D30020204908601E480068AA
:10332000082188431C490860084600680221884338
:1033300019490860084600684008400008602448B1
:103340000068400840002249086022480068802147
:10335000884320490860002000906A4601211748F0
:10336000FEF7F2FE07F006FF07F004FF1A480078A8
:1033700006210843184908700A4800680121C90459
:103380000840002803D003201449087001E000F031
:1033900047FCF8BDC40D0020880000203C00002040
:1033A000282300008400002020000100DF0E002000
:1033B000D00E0020840E0020A20E0020D4E00000D9
:1033C000450000206801002028010020102700008F
:1033D0000020004000E00540CD00002081000020DA
:1033E000064800684008400004490860002004497D
:1033F0000880012189074860704700008400002090
:1034000038000020002004E00021054A1154411C2E
:10341000C8B20F28F8DB0021024A11707047000083
:10342000930E00209700002000B51E480078002869
:103430000ED11D4800680121C90488431A4908605B
:10344000002018490870194908701949087025E0CA
:1034500017480078C007C00F00280DD01548007825
:10346000124909780843134908701148007801216E
:1034700048400F49087011E00E4800780B49097860
:1034800088430C4908700A480078012148400849DF
:10349000087004480078401E0249087000F0C0FB24
:1034A00000BD000094000020840000209200002055
:1034B000930000209500002030B5002203681B0215
:1034C0001C0E23000AF0ECF808130507090B0D0F7A
:1034D0001113CD220CE0B7220AE0B62208E0B52293
:1034E00006E0E22204E0EA2202E0E92200E000BF76
:1034F00000BF00290AD10B4D2A7013126B700A4BC2
:103500001B6880252B43084D2B6009E00023054DE7
:103510002B706B70044B1B6880252B43024D2B6076
:1035200030BD00009C00002084000020F3B589B06D
:103530000646F9480590F948815D0491815D029144
:10354000F8203040C01008907007400F0790F448F2
:10355000007804280BD10A98002808D1F148007A95
:10356000401CC1B2EF4801720830465449E1EC48B2
:103570000078062873D10A980028FBD1002496E031
:10358000E848005D00286BD1E548C07804282BD1BD
:10359000FCF7F4FD07210190FCF74AFEC9B2039144
:1035A0006846007B4007C10E0598405C61006118C9
:1035B000DC4A403A50546846007B4007C10E0598EB
:1035C000405A0004000E610061188918487068466E
:1035D000007B4007C10E059840580002000E6100B4
:1035E00061188918887053E0CD48C078022838D116
:1035F000CC482038C07FC007C00F002813D0C8486F
:10360000C07961006118C74A403A5054C448007AF2
:103610006100611889184870C148407A61006118DA
:103620008918887012E0BE48007961006118BD4AAF
:10363000403A5054BA48407961006118891848707E
:10364000B74880796100611889188870B5482038BA
:10365000C07F01214840B3492039C87718E02AE0EB
:1036600023E0AF48C078012812D1AD48007961004D
:103670006118AC4A403A5054A94840796100611839
:1036800089184870A6488079610061188918887087
:10369000F820304007994018A349095CA14815302B
:1036A000015501211538015504E0601CC4B2152CE8
:1036B00000DA65E7A5E09A4800780528FAD10A986B
:1036C0000028F7D1002498E09648005D00287DD1BD
:1036D0009348C07804282BD1FCF750FD07210190B6
:1036E000FCF7A6FDC9B203916846007B4007C10EF6
:1036F0000598405C610061188A4A403A5054684617
:10370000007B4007C10E0598405A0004000E61007E
:103710006118891848706846007B4007C10E0598FB
:1037200040580002000E610061188918887053E04B
:103730007B48C078022836D17A482038C07FC0073D
:10374000C00F002813D07648C07961006118754A0F
:10375000403A50547248007A6100611889184870E4
:103760006F48407A610061188918887012E06C48CF
:103770000079610061186B4A403A505468484079BA
:103780006100611889184870654880796100611886
:103790008918887063482038C07F012148406149FA
:1037A0002039C87718E05E48C078012814D15C48F9
:1037B0000079610061185B4A403A5054584840799A
:1037C0006100611889184870554800E013E080795D
:1037D0006100611889188870F820304007994018F6
:1037E00040005249085A01124E4815300155012136
:1037F0001538015504E0601CC4B2152C00DA63E7EB
:1038000000BF4B4800680121890708434849086008
:1038100008460068012189070840002870D0454902
:103820000898085C012207998A401040002805D0BA
:103830006846007A0A9900F0A3FD02906846007A73
:103840000A99FFF773FA3C480078012804D002284F
:1038500004D0032806D103E0384D04E0384D02E0DF
:10386000384D00E000BF00BF7000401C80004519CB
:103870006846007C4107490F01208840C0B206908D
:103880006846007CC7102B490898085C01220799FC
:103890008A401040002870D06846007C0A9900F0E9
:1038A000E3FC04902848C05D06990840002805D133
:1038B0002648C05D0699084000285FD10A98022872
:1038C00005D12148C15D069881431F48C15528781C
:1038D000012804D0022842D0FF2847D145E028889B
:1038E0000004000E012806D002280AD003280DD0BB
:1038F000042832D12CE028460A9900F085F92CE002
:1039000083E028460A9900F007FC26E028460A9939
:10391000FFF7D2FD21E0000014DC000074E000009D
:10392000680100200D040020F2DA000052DB0000E4
:1039300084000020DCDF0000405F0000805F0000AA
:103940008062000080650000A5000020A800002023
:1039500028460A9900F0EAFC00BF00BF0CE0281FCF
:1039600029460A9A00F028FA06E005E06846007C3D
:103970000A99FFF7EDFA00BF5BE00EE00A98022813
:1039800005D12D48C15D069881432B48C155684635
:10399000007C0A99FFF7DCFA4BE02878012804D074
:1039A000022824D0FF2829D127E028880004000E0F
:1039B000012806D0022809D003280CD0042814D1ED
:1039C0000EE028460A9900F01FF90EE028460A99F1
:1039D00000F0A2FB09E028460A99FFF76DFD04E01C
:1039E00028460A9900F0A2FC00BF00BF0CE0281F87
:1039F00029460A9A00F0E0F906E005E06846007CF6
:103A00000A99FFF7A5FA00BF13E00C490898095C72
:103A10000122079882401140002905D06846007CA9
:103A20000A9900F021FC04906846007C0A99FFF78F
:103A30008FFA0BB0F0BD0000A8000020DCDF000012
:103A4000002907D1084A126801239B061A43064B36
:103A50001A6007E0022905D1034A12684B069A430F
:103A6000014B1A6070470000840000203EB5022020
:103A70005B494860002088600846006802210843CE
:103A80005749086000205749486088605649486097
:103A90008860564948601520400488605448007882
:103AA000C007C00F002805D0524800680121084314
:103AB000504908600020029004E000F06DFC02987C
:103AC000401C029002986428F7D34B4C00200290CF
:103AD0004FE00020019046E00298012802D10198B1
:103AE00000283DD00298052802D10198002837D03F
:103AF0000298092802D10198002831D002980001CB
:103B0000001901994900405A03214903084000283F
:103B100026D0002037490860009006E00020009978
:103B2000490060520098401C009000986028F5D32E
:103B300002202B4948600020886008460068022166
:103B400008432749086000202649486088602649C4
:103B500048608860254948601520400488603EBD63
:103B60000198401C019001980828B5D30298401C88
:103B7000029002980C28ACD31F4C2046008A0321E7
:103B800049030840002811D020464030008A0840F0
:103B900000280BD020468030008A0840002805D03D
:103BA00014480068012108431249086002200C49AA
:103BB00048600020886008460068022108430849E0
:103BC00008600020074948608860074948608860AD
:103BD0000649486015204004886000BFBFE7000028
:103BE00000400440006004400080044000A0044005
:103BF000D4E0000088000020C40D002010B5FFF7BD
:103C000035FF00F0B9F810BD70B504460D462068C8
:103C10000002060E29463046FFF79AF970BD0000F3
:103C200085B000210191029103910491009100203F
:103C30001BE01E49095C1E4A125C11431D4A125CBE
:103C4000114301AA115401A9095C1B4A125C91425B
:103C500005D01A49096820221143184A116001A9A8
:103C6000095C154A1154411CC8B20F28E1DB144904
:103C70000978144A127811436A4611701178124A71
:103C80001278914206D00D4909680122920411432D
:103C90000A4A1160694609780B4A117000210B4AE3
:103CA000117002210A4A117005B07047840E00207D
:103CB000930E0020B20E0020D00E002084000020C1
:103CC00095000020A1000020990000208100002024
:103CD0008000002070B504460D46002D28D1D62C5A
:103CE00002D0D72C1CD10DE01248007EC02805DA86
:103CF0001048007E40300F49087602E0FF200D4951
:103D000008760EE00B48007E3F2805DD0948007E5E
:103D100040380849087602E000200649087600E0AD
:103D200000BF00BF034A183201210348FEF70CFA16
:103D300070BD000028010020C06D00000D48006823
:103D4000022108430B490860084600680121C903A5
:103D5000084308490860084600680121C903084370
:103D600004490860084600680121084301490860C9
:103D7000704700000080044000B50E4840680221F2
:103D800008430C494860084640680121C9030843BC
:103D900008494860084640680121C90308430549AD
:103DA0004860084640680121084302494860FFF71F
:103DB000C5FF00BD0080044070B504460E461546A0
:103DC000002D52D136480078C007C00F002834D1EA
:103DD0003449206808603449306808603148006818
:103DE000FF210904084001214904884206D12C48DA
:103DF0000078042108432A4908700EE02948006829
:103E0000FF210904084003210904884205D1244800
:103E100000781021084322490870214800780121C8
:103E200008431F49087008460078022108431C49CE
:103E3000087000201D49087030E0194800780421FE
:103E4000084000282AD0174920680968884225D1EF
:103E500000201349087013490860FFF7D3FAFFF7F1
:103E6000DFFE00201149087018E0022D16D10C4821
:103E7000007810210840002810D00A4920680968FD
:103E800088420BD100200649087006490860FFF7F8
:103E9000B9FAFFF7C5FE00200449087070BD0000A4
:103EA000AB000020AC000020B00000208200002009
:103EB000F8B500263748007808210840002818D1B6
:103EC0003448007808433349087033490968334A55
:103ED0001268881808F09AF800906846007846063C
:103EE000760E6846047880210C400098000C2C491E
:103EF0000860012E26D0022E02D0032E34D113E00A
:103F0000002C07D06846407826490978084325499F
:103F1000087006E0684641782248007888432149C5
:103F2000087000F045F820E0684640781E49487067
:103F30001E4800680121890408431C49086000F0FC
:103F400037F812E068464078C51DF935002C04D0DA
:103F500000212846FEF7FCFF03E002212846FEF779
:103F6000F7FF00F025F800E000BF00BF0C48006834
:103F7000002806D1074800780821884305490870C1
:103F800004E007480068401E05490860FFF748FE46
:103F9000F8BD0000AB000020BC000020B4000020F1
:103FA000C4000020A100002099000020840000200F
:103FB00010B52D480068401E2B490860084600686F
:103FC000002848D129480078002804D027480078E4
:103FD000401E2649087026480068FF210904084051
:103FE000040C002C06D0012C11D0022C22D0032C62
:103FF0002CD125E000201E4908601E490870FFF7FB
:1040000001FAFFF70DFE00201B49087022E0174857
:104010000078002808D11749087015490860FFF793
:10402000F1F9FFF7FDFD01E0FFF7ECF9002012497F
:1040300008700FE0FFF7F4FD00200F49087009E059
:10404000FFF7EEFD00200C49087003E000200A494C
:10405000087000BF07E009480068001D07490860B4
:1040600002200549087010BDB8000020C8000020DB
:10407000AC000020AB00002082000020B400002033
:104080001C480078012804D0022806D003280ED14D
:1040900008E00020184908600AE0012040041649A1
:1040A000086005E0012080041349086000E000BFBB
:1040B00000BF12480068000E000311490860114853
:1040C00000880004000E10490860104800780221A2
:1040D0000840002809D00D48007888430B49087033
:1040E00008480068000E0A49087002200949087053
:1040F00070470000405F0000BC000020B0000020BE
:10410000B4000020AC000020B8000020AB0000206C
:10411000C80000208200002010B503681B021A0EA0
:10412000130009F0BDFA0A91061626364656606D50
:104130007A91002906D1464B1B7801242343444C35
:10414000237005E0424B1B785B085B00404C2370FA
:104150007BE0002906D13E4B1B78022423433C4CD4
:10416000237005E03A4B1B780224A343384C23709C
:104170006BE0002906D1364B1B7804242343344CD2
:10418000237005E0324B1B780424A343304C23708A
:104190005BE0002906D12E4B1B78082423432C4CCE
:1041A000237005E02A4B1B780824A343284C237076
:1041B0004BE0002906D1264B1B7810242343244CC6
:1041C000237005E0224B1B781024A343204C23705E
:1041D0003BE0002903D100231D4C237002E00023A3
:1041E0001B4C237031E0002909D10123194C637065
:1041F000194B1B680124A4042343174C236024E0BB
:10420000002909D1FF23134C6370134B1B68012451
:10421000A4042343104C236017E0002913D10E4B54
:104220001B680124E4042340002B0CD10A4B1B68BB
:104230002343094C23600223084C23700123084CBC
:104240002370084C237000E000BF00BF10BD0000C9
:104250009500002099000020840000209400002098
:10426000920000209300002030B50B4645076D0FEB
:104270000124AC40E2B2C110002B19D1134C2468C8
:1042800001252D032C40002C09D0114C645C1443F3
:104290000F4D6C5444000F4D2C5B201215E00E4C5A
:1042A000645C14430C4D6C5444000A4D285D0CE0D2
:1042B000074C645C1440002C04D04400054D2C5B7A
:1042C000201202E04400034D285D30BD8400002030
:1042D000A8000020E8DF0000A500002010B50120A4
:1042E0008007006801210843890708600B480068BF
:1042F0000B210840002805D0094800680121084327
:1043000007490860074800680749084305490860ED
:104310000C2000F0C1F801F031F910BD8800002038
:10432000002000400000014001A0AF05002912D18B
:104330000422104B1A7002681202120E5A700268A0
:10434000120E0D4B1A700D4A126801235B021A43BC
:104350000A4B1A600CE00022064B1A705A70064B8A
:104360001A70064A126801235B021A43034B1A6053
:10437000704700009E000020A40000208400002060
:10438000002903D14200034B985C02E04200014B3C
:10439000985C7047E8DF00001FB500200390009094
:1043A000019002903548806835490840334988605B
:1043B0003448406880218843324948603248406828
:1043C0003249084030494860002447E02B484068A3
:1043D000FF21C90008432949486008460068FF21B9
:1043E000C90008432549086008464068FF21C90004
:1043F0008843224948601420604325494018C16819
:1044000014206043224A80184068016014206043F1
:10441000114608580068142161438918C968084387
:10442000142161435158086014480068C008C04313
:104430006946085514206043114608580068142145
:1044400061438918C9688843142161435158086041
:104450006A46115DE0B2FEF7FBFD641C0C2CB5D37F
:104460000848806803218903084306498860064894
:10447000806808490843044988601FBD00800440E3
:104480003F00C03F00A004400060044007C0FFFFA1
:10449000ECDE0000C0FFFF0F10B501460C290FDA5B
:1044A00014224A43114B9A58126814234B430F4C61
:1044B0001B19DB689A4314234B43E3581A6014E03A
:1044C000002010E014224243084B9A58126814232B
:1044D0004343064C1B19DB689A4314234343E358B8
:1044E0001A60421CD0B20C28ECDB10BDECDE0000E0
:1044F00010B501460C290BDA14224A430D4BD21891
:10450000D36814224A430B4C12195268136010E00E
:1045100000200CE014224243064BD218D368142228
:104520004243044C121952681360421CD0B20C284A
:10453000F0DB10BDECDE000010B501460C290FDAEF
:1045400014224A43114B9A58126814234B430F4CC0
:104550001B19DB681A4314234B43E3581A6014E019
:10456000002010E014224243084B9A58126814238A
:104570004343064C1B19DB681A4314234343E35897
:104580001A60421CD0B20C28ECDB10BDECDE00003F
:104590001848406808218843164948600846406822
:1045A0001021884313494860084640682021884309
:1045B0001049486008464068402188430D494860DA
:1045C00008464068802188430A4948600846406898
:1045D000891588430749486008464068491588435B
:1045E0000449486008464068091588430149486005
:1045F00070470000008004401B488068C021884349
:1046000019498860084680680321090288431649D1
:1046100088600846806803218902884312498860BF
:10462000084680680321090388430F4988600846CB
:1046300080680321890388430B49886008468068A5
:1046400003210904884308498860084680680321DB
:104650008904884304498860084680680321090565
:1046600088430149886070470080044010B50C20E1
:10467000FFF762FF0C20FFF73BFFFFF789FFFFF713
:10468000BBFF142008F0ECFFC5202449087001236B
:104690000022FE21A020FEF71FF901230022FE21A7
:1046A000B420FEF719F903201C49087001230022E9
:1046B000FD21A020FEF710F901230022FD21B420E6
:1046C000FEF70AF90020154908700123002211465F
:1046D000A020FEF701F9012300221146B420FEF7C5
:1046E000FBF80F484068012108430D49486001204C
:1046F0008862FFF723FB0120800700684008400024
:104700000121890708600748006840084000054902
:10471000086005480549086010BD0000340B002002
:1047200000400440002000400000FA5A0000014010
:1047300010B5144800684021884340301149086092
:104740000120810788601048086203204861022028
:10475000086000BF0120800700680221084000288F
:10476000F8D1480700680121084389070860012142
:104770000F2007F0F9FA0F2007F09CFA0F2007F03E
:10478000ADFA10BD00E00540C05D0000274800788C
:10479000C007C00F002807D0254800680121C903C1
:1047A00088432349086006E0214800680121C903C5
:1047B00008431F4908601D4800780221084000286E
:1047C00005D01B48006888431949086005E018486F
:1047D0000068022108431649086014480078042143
:1047E0000840002806D01248006849038843104951
:1047F000086006E00E4800680121C90308430C491F
:1048000008600C48007AC007C00F002806D008488E
:104810000068400840000649086005E00448006858
:104820000121084302490860704700006C0D002018
:1048300000800440A801002010B5354800688021A0
:10484000084000280BD032480068C0218843304916
:10485000086000202F4908700620487026E02C4888
:104860000068FF210131084000280CD0284800686A
:10487000FF214131884326490860062025490870F8
:104880000C20487012E022480068012149020840CB
:1048900000280BD01E4800680921890188431C4963
:1048A00008600C201B490870122048701A480078D4
:1048B000042804D0052805D0062809D105E005F014
:1048C00085FF06E005F01CFC03E005F061FD00E05B
:1048D00000BF00BF0F480078002806D10C480068D0
:1048E000FF21013108430A4908600A480078062878
:1048F00006D10748006801214902084304490860BD
:10490000044800780C2802D100200449087010BD2A
:104910000C00002048000020680100205300002007
:1049200010B53A4800680821084000280BD03748E5
:1049300000680C218843354908600020344908701C
:104940000620487024E03148006810210840002803
:104950000BD02E480068142188432C49086006209B
:104960002B4908700C20487012E02848006820216C
:10497000084000280BD0254800682421884323499B
:1049800008600C20224908701220487000E010BD19
:1049900020480078030008F083FE0A180F09121956
:1049A00019190C06151906F053F910E001F0A8F9D1
:1049B0000DE005F0E9FF0AE006F0F6F807E006F082
:1049C000A7F904E000F04CFE01E000E000BF00BFEA
:1049D0000F480078002805D10C48006810210843D2
:1049E0000A4908600A480078062805D10748006887
:1049F0002021084305490860054800780C2802D1A9
:104A000000200549087000BFC1E700000C0000202D
:104A100046000020280100205200002010B501208F
:104A200007490870012300221146A020FDF754FF1A
:104A3000012300221146B420FDF74EFF10BD0000F7
:104A4000340B002010B50446C52016490870012318
:104A50000022FE21A020FDF73FFF01230022FE21BE
:104A6000B420FDF739FF03200E490870012300220E
:104A7000FD21A020FDF730FF01230022FD21B420FD
:104A8000FDF72AFF07480470012300221946A020E1
:104A9000FDF722FF012300221946B420FDF71CFF79
:104AA00010BD0000340B002070B5404C2478002C61
:104AB00002D1002120220CE03C4C2478062C02D1AB
:104AC0002021402205E0394C24780C2C01D14021D2
:104AD0006022374C246802252C40002C65D0084603
:104AE00061E0344C245C002C5BD030280CDA324C72
:104AF000245C324D2C60324C245C324D2C60324CA4
:104B0000245C324D2C6014E00446303C2A4D2C5D70
:104B1000C0342A4D2C600446303C294D2C5DC034F5
:104B2000284D2C600446303C274D2C5DC034274D69
:104B30002C60204C245C6400254D6319254C234DCA
:104B40002D68645D1D886C43A403240E224D1F4E06
:104B50003668AC551F4C194D2D68645D1D886C433B
:104B6000A403240E1C4D154E3668AC55194C154D3A
:104B70002D68645D1D886C43A403240E164D114EF0
:104B80003668AC55154C2478042C05D1094C245CAE
:104B9000A41E084D2C5404E0064C245CA41F054DB3
:104BA0002C54441CA0B290429BDB70BD48000020F6
:104BB0000C000020E8010020F4D700001C000020B9
:104BC00024D800002000002054D800002400002039
:104BD000D8D80000B4090020B406002068010020E5
:104BE00010B5704A125C130008F05AFD0705274201
:104BF0006686A3CAD900420083186A4A433A9A18C3
:104C00005378684A093AD2799A18D3B24200841884
:104C1000644A433AA2185370624A093A137AD27925
:104C20009B1A420084185F4A433AA2185278934272
:104C300002DC01235B4A1354B2E042008318594A54
:104C4000433AD35C3A32D2799A1AD3B242008418EA
:104C5000544A433A135542008318524A433AD35CAC
:104C60003A32D279934202DC02234E4A135497E03F
:104C7000420083184B4A433A9A189378494A093AB2
:104C8000D2799A18D3B242008418464A433AA218FD
:104C90009370444A093A137AD279540012199B1A34
:104CA000420084183F4A433AA2189278934202DCA9
:104CB00003233C4A135473E042008318394A433AB1
:104CC0009A185378374A093AD2799A1AD3B24200DD
:104CD0008418344A433AA218537042008318314A68
:104CE000433A9A1853782F4A093AD279934202DC10
:104CF00004232C4A135453E042008318294A433AB0
:104D0000D35C3A32D2799A18D3B242008418254A39
:104D1000433A13553A32137AD2799B1A42008418D7
:104D2000204A433A125D934202DC05231D4A135484
:104D300036E0420083181B4A433A9A189378194A7E
:104D4000093AD2799A1AD3B242008418154A433AE2
:104D5000A218937042008318124A433A9A18937823
:104D6000104A093AD279934209DC002342008418A0
:104D70000C4A433AA218937006230A4A13540FE0D0
:104D8000094A125C521C084B1A541A46125C0A2A31
:104D900004DD00221A540023024A135400E000BF2D
:104DA00000BF10BDD60200207802002010B52548B3
:104DB0000078030008F074FC0A361E0E26363636DC
:104DC00016062E368820FFF73DFE06F009FB05F09B
:104DD0006DFF34E08820FFF735FE06F001FB00F0A0
:104DE000D5FC2CE0C820FFF72DFE06F0F9FA05F0FF
:104DF0009BFE24E08820FFF725FE06F0F1FA05F07F
:104E0000FFFE1CE0FF20FFF71DFE06F0E9FA06F0AA
:104E100051F814E08820FFF715FE06F0E1FA00F0E3
:104E200097FC0CE0002405E00020074908550749DD
:104E30000855641CFF2081308442F5D300BF00BFB9
:104E400010BD000028010020340B00203408002091
:104E500010B510480078042804D0052805D006288D
:104E600009D105E005F02AFD12E000F0B3FC0FE0E7
:104E700000F0E4FF0CE0002405E00020064908559E
:104E800006490855641CFF2081308442F5D300BFD9
:104E900000BF10BD68010020B4060020B409002046
:104EA000002009E00021104A1154104A1154104A00
:104EB0001154104A1154401CFF2181318842F1D312
:104EC000002003E000210C4A1154401C8C28F9D327
:104ED00000210A4A11800A4A11800A4A11700A4ABE
:104EE00011700A4A11707047340B0020B40600207C
:104EF000B409002034080020E80100203800002018
:104F00003A000020520000205300002051000020F1
:104F100007480068074909684018074908600448BD
:104F20000068044908600448006801490860704747
:104F300030000020340000202C00002010B5414A31
:104F40001279414B1B5C5B00404CE35A5A4392037D
:104F5000130E420084183C4A433A1355394A527999
:104F6000394B1B5C5B00394CE35A5A439203130ED6
:104F700042008418344A433AA2185370314A937954
:104F8000314A125C5200314CA25A53439A03130E19
:104F9000420084182C4A433AA2189370294AD278C6
:104FA000022A42D1274AD379274A125C5200284C60
:104FB000A25A53439A124300C418234B433B1B5D30
:104FC0001A43D3B2420084181F4A433A13551D4A6C
:104FD000137A1D4A125C52001D4CA25A53439A1276
:104FE0004300C418184B433BE3185B781A43D3B211
:104FF00042008418144A433AA2185370114A527A54
:10500000114B1B5C5B00124CE35A5A439212430053
:10501000C4180D4B433BE3189B781A43D3B24200AC
:105020008418094A433AA2189370074A125C521C2A
:10503000D3B2054A1354125C142A02DD0023024A3B
:10504000135410BD28010020D602002084D800008F
:10505000AED80000F0B505460F469348405D0028E5
:1050600004D001287CD002287BD1CBE0002F03D0D4
:10507000032F01D0052F4DD1680029188A484338E5
:105080000E1868002918884843380818441C2078EE
:105090003C2806DA217884480938C079081820703D
:1050A0001CE02078E6280EDA21787F480938C0799C
:1050B000C01C0818207031787B480938C079401E20
:1050C000081A30700AE078480938007A2070317880
:1050D00075480938C079001D081A30703178724857
:1050E0000938C079001D814262DA002030706E48B4
:1050F0000938007A20706C48405D032803D10021F4
:105100006948415554E06848405D401CC1B266485A
:1051100041554DE068002918634843380E1868006F
:105120002918614843380818841C20783C2806DA7E
:1051300021785D480938C079081820701DE0207872
:10514000C8280FDA217858480938C079C01C0818D7
:105150002070317854480938C079081A30700CE052
:1051600027E09DE050480938007A207031784E4899
:105170000938C079001D081A307031784A4809385A
:10518000C079001D814213DA00203070464809388A
:10519000007A20704448405D032803D10021424832
:1051A000415505E04048405D401CC1B23E48415574
:1051B00077E0002F03D0032F01D0052F0CD168001A
:1051C0002918394843380818461C680029183648F9
:1051D00043380818841C0BE068002918324843380B
:1051E0000818861C680029182F4843380818441CE2
:1051F0002D480938037A093042192146304600F01B
:1052000055F84EE068002918274843380818461C0E
:1052100068002918244843380C18002F03D0032FA6
:1052200001D0052F0AD1680029181F4843380818F3
:10523000861C680029181C4843380C182078B428AC
:1052400007DA217818480938C079C01D081820707D
:105250000AE015480938007A207031781248093878
:10526000C079801C081A307031780F480938C0792D
:10527000C01C814213DA002030700B480938007AD4
:1052800020700948405D022803D10021064841559D
:1052900005E00548405D401CC1B20348415500E0AF
:1052A00000BF00BFF0BD0000D602002030B50C7872
:1052B0009C420BDA0D780F4CE479A41C2C190C706D
:1052C00005780C4CE479A41C2C1B04700578094C5F
:1052D000E479A41CA5420CDAFF240C7000240470AD
:1052E0001478032C02D10024147002E01478641C9A
:1052F000147030BDCD02002000B59B48007803003B
:1053000008F0CEF9140B253F59738DA7AFB7C6CE61
:10531000D6DEE6F5FDF2F1F0EFEE944800680121EB
:105320004903084000280AD19148007800280DD090
:105330008E480068042108438C49086006E08B48C9
:1053400000680121890308438849086000E1874813
:10535000006801214903084000280AD184480078E8
:1053600000280DD081480068042108437F49086067
:1053700006E07E4800680121890308437B490860F4
:10538000E6E07A48006801214903084000280AD174
:105390007748007800280DD074480068042108433D
:1053A0007249086006E071480068012189030843DA
:1053B0006E490860CCE06D4800680121490308404F
:1053C00000280AD16B48007800280DD06748006893
:1053D000402108436549086006E0644800680121EF
:1053E0008903084361490860B2E060480068012110
:1053F0004903084000280AD15E48007800280DD0F3
:105400005A480068402108435849086006E0574858
:1054100000680121890308435449086098E0534813
:10542000006801214903084000280AD1514800784A
:1054300000280DD04D480068402108434B490860C2
:1054400006E04A480068012189030843474908608B
:105450007EE046480068012189020843434908600C
:1054600076E0424800680121C90208433F490860CC
:105470006EE03E4800680121090308433B4908608B
:105480003D480078002802D101203B4908705FE0C8
:10549000364800680121090308433449086057E091
:1054A00032480068012109030843304908604FE091
:1054B0002E4800680121090308432C49086047E091
:1054C0002A480068012109030843284908603FE091
:1054D000264800680121090308432449086037E091
:1054E00035E02CE023E01AE011E008E0FFE71F4878
:1054F00000680121090308431C49086028E01B4893
:1055000000680121090308431849086020E0174892
:1055100000680121090308431449086018E0134892
:1055200000680121090308431049086010E00F4892
:1055300000680121090308430C49086008E00B4892
:1055400000680121090308430849086000E000BF22
:1055500000BF05480078142804DA03480078401C8E
:105560000149087000BD0000510000200C0000201F
:1055700052000020530000201000002008B53648DB
:1055800040680121084334494860012048620A20EC
:1055900008F054F8C5203149087001230022FE218B
:1055A000A020FDF799F901230022FE21B420FDF788
:1055B00093F903202949087001230022FD21A0202E
:1055C000FDF78AF901230022FD21B420FDF784F9BB
:1055D000FF20FFF737FAFFF721FA05F0DFFE002082
:1055E000009006E03F201D49009A88540098401C16
:1055F000009000981828F5D3182300221146A02007
:10560000FDF76AF90F201549C8744875C875182345
:1056100000221146B420FDF75FF905F0E1FE0020FD
:10562000009006E000200D49009A88540098401C24
:105630000090FF21813100988842F3D3C0230022DB
:105640001146A020FDF748F9C02300221146B420DE
:10565000FDF742F908BD000000400440340B002073
:10566000F8B535480078012804D0022805D0032871
:1056700009D105E003256D0406E035256D0303E03F
:105680001D25AD0300E000BF00BF2C4800780028B6
:105690000AD12B490978FF2281325143481900224F
:1056A000C02106F015FD20E02448007806280BD123
:1056B000234909788201514349190846C030C02264
:1056C000114606F005FD10E01C4800780C280CD1AE
:1056D0001B480078401C1A49087008460078497831
:1056E000884202DB00201649087014480078002820
:1056F00002D1002680270DE010480078062802D14C
:105700008026770006E00D4800780C2802D1FF269D
:105710000136470134460BE00A48005D00900A4814
:10572000017E00984143081208490855601C84B264
:10573000BC42F1DBF8BD0000405F000046000020E5
:105740008D020020100500202801002034080020D0
:105750000A4840780A49087000200A4908600A4946
:1057600008700648807A002802D10120487003E0C2
:105770000248807A044948707047000028010020E0
:10578000180000200C0000208D02002010B50C48ED
:1057900040780C49087000200B49086000210B4834
:1057A00041718171C17100200949087001F028FB25
:1057B0000348C078032801D105F034FE10BD000075
:1057C00028010020180000200C000020CD0200203D
:1057D0002800002010B514484078144908700020B3
:1057E0001349086008460068022108431049086010
:1057F000002404E000200F490855601C84B2FF20FB
:1058000041308442F6DB002405E0FF2109484030A6
:105810000155601C84B2152CF7DB0348C0780428BE
:1058200001D100F009F810BD680100201900002026
:105830000C000020CD030020704700000000000095
:105840000000000000000000000000000000000058
:105850000000000000000000000000000000000048
:105860000000000000000000000000000000000038
:105870000000000000000000000000000000000028
:105B40000100000000000000000000000000000054
:105B50000000000000000000000000000000000045
:105B60000000000000000000000000000000000035
:105B70000000000000000000000000000000000025
:105B80000200000000000000000000000000000013
:105B90000000000000000000000000000000000005
:105BA00000000000000000000000000000000000F5
:105BB00000000000000000000000000000000000E5
:105BC00003000000000000000000000000000000D2
:105BD00000000000000000000000000000000000C5
:105BE00000000000000000000000000000000000B5
:105BF00000000000000000000000000000000000A5
:105C00000100000000000000000000000000000093
:105C10000000000000000000000000000000000084
:105C20000000000000000000000000000000000074
:105C30000000000000000000000000000000000064
:105C4000031002030000000000000000000000003C
:105C50000000000000000000FF0000000000000045
:105C60000000000000000000000000000000000034
:105C70000000000000000000000000000000000024
:105C800007100003000000000000000000000000FA
:105C90000000000000000000FF0000000000000005
:105CA00000000000000000000000000000000000F4
:105CB00000000000000000000000000000000000E4
:105CC00000000000000000000000000006100004BA
:105CD0000000000000000000FF00000000000000C5
:105CE00000000000000000000000000000000000B4
:105CF00000000000000000000000000000000000A4
:105D0000F0B585B047488079400047490F5A474869
:105D1000407812283ED14348407900282AD0414893
:105D20008079002806DD3F488079401EC1B23D4899
:105D300081712FE000213B48817141713C48C0785E
:105D4000022805D13748C079012148403549C8713A
:105D50003748C07803281DD136480078401C3549A3
:105D6000087008460078072801DB0020087005F05D
:105D700059FB0FE02B4880794F2806DA29488079B3
:105D8000401CC1B22748817104E0012125484171BE
:105D90004F2181712348C079410040182149403981
