:020000040000FA
:1000000068140020C95D0000CD5D0000A50200005D
:1000100000000000000000000000000000000000E0
:10002000000000000000000000000000D15D0000A2
:100030000000000000000000D35D0000D55D00005E
:10004000830200008120000000000000000000008A
:100050000000000000000000D75D0000000000006C
:100060000000000000000000D75D0000000000005C
:10007000D75D0000D75D0000D75D0000113C000097
:100080009B3D000000000000000000000000000098
:100090000000000000000000000000000000000060
:1000A000D75D0000D75D0000D75D000000000000B4
:1000B000D75D0000A71F0000D75D0000D75D0000DE
:1000C00000F002F800F042F80CA030C808382418FC
:1000D0002D18A246671EAB4654465D46AC4201D180
:1000E00000F034F87E460F3E0FCCB6460126334270
:1000F00000D0FB1AA246AB46334318478CB1000030
:10010000ACB10000103A02D378C878C1FAD85207CF
:1001100001D330C830C101D504680C6070470000BD
:100120000023002400250026103A01D378C1FBD813
:10013000520700D330C100D50B6070471FB5C046D1
:10014000C04605F06DFE1FBD10B510BD0AF02CFBBA
:100150001146FFF7F3FF00F02DF807F03EFA03B465
:10016000FFF7F2FF03BC07F03FFA0000014801600F
:1001700001480047240006400103FF1F30B40C492A
:100180000C684A6823681068C0181060241D121D8E
:100190008C4207D28A4208D20C604A6030BC4000D0
:1001A000400870470C00DC3CF6E70A00DC3AF3E755
:1001B000FC11002007F034F903F0FBFF00F096F883
:1001C0003E480078082803D13D483E49086002E0D7
:1001D00000203C49086000F0F9FF03F0E3FC03F065
:1001E000EEFC01F09FFE38480078C007C00F0028E1
:1001F00008D035480068042108433349086007F0F7
:1002000062FF02E001203149087039E0304831498D
:10021000C8602E48007803000AF008FB0705080BA9
:100220000E14112A2D0003F00BFA28E003F035FA22
:1002300025E003F0CFFB22E004F0F6FD1FE004F020
:100240003FFF1CE0204800680421084000280CD033
:100250001D48006802210840002802D001F058FA29
:1002600005E002201949087001E001F051FA06E0AA
:1002700009F041FE03E001201449087000BF00BFEF
:10028000C4E7002001218140134A116000BF1348D8
:10029000C06A002802D001201149087003200F49CC
:1002A000C862704700BFBFF34F8F0E480E49C86049
:1002B000BFF34F8F00BF00BFFEE70000800BFF1FA2
:1002C00001005A5A78000020740000206C000020C1
:1002D000AA55FA5A0000014080E200E00000064002
:1002E0006A0000200400FA0500ED00E0B64800684E
:1002F0000121090388434018B3490860B3480068E6
:100300000F2109028843072109024018AF490860FC
:100310000846006808218843AC4908600846006820
:1003200002218843A94908600846006804218843DF
:10033000A649086008468068000A00020B30886001
:10034000002048600846006801218904884340185D
:100350009E490860C8149E49486280009D494862D1
:1003600002209D49486208464068022108439A4994
:10037000486098484068012149030843954948600E
:1003800093484068C9140843914948608F48006801
:10039000C0218843C0308D4908600846006A400883
:1003A0004000401C08620846006840084000401CAD
:1003B0000860704730B5854C2468C025AC43C03414
:1003C000824D2C60002B04D0012B0AD0022B12D1BD
:1003D0000CE00124E4027E4DAC62A4007D4DAC62D1
:1003E0000AE00124E4027A4DAC6205E001246403D2
:1003F000784DAC6200BF00BF00BF00BF734CE46823
:10040000E407E40F002CF9D0202404436F4DEC6185
:100410002C46E161E26100BF6C4CE468E406E40F45
:10042000002CF9D1002B04D0012B0AD0022B12D1C1
:100430000CE00124E402664D6C62A400654D6C6220
:100440000AE00124E402624D6C6205E001246403C9
:10045000604D6C6200BF00BF00BF30BD70B5044688
:100460005A4D2D68C026B543C035584E3560002B17
:1004700004D0012B0AD0022B12D10CE00125ED0291
:10048000534EB562AD00534EB5620AE00125ED0250
:100490004F4EB56205E001256D034E4EB56200BFBB
:1004A00000BF00BF00BF494DED68ED07ED0F002D07
:1004B000F9D020252543454EF5613546E9610020F8
:1004C0000CE000BF414DED68ED07ED0F002DF9D0B8
:1004D000424D2D5C3D4EF561451CA8B29042F0DBCB
:1004E00000BF3A4DED68ED06ED0F002DF9D1002B60
:1004F00004D0012B0AD0022B12D10CE00125ED0211
:10050000334E7562AD00334E75620AE00125ED028F
:100510002F4E756205E001256D032E4E756200BFFA
:1005200000BF00BF70BDF0B5059C284E3668C027DF
:10053000BE43C036254F3E60012C02D0022C0AD1AA
:1005400004E00126F602224FBE6205E00126760392
:10055000204FBE6200BF00BF00BF00BF1B4EF66849
:10056000F607F60F002EF9D020260643174FFE613E
:100570003E46F16115460CE000BF144EF668F607E2
:10058000F60F002EF9D0154E765D104FFE616E1CF1
:10059000B5B29D42F0DB00BF0C4EF668F606F60FD2
:1005A000002EF9D1012C02D0022C0AD104E0012640
:1005B000F602074F7E6205E001267603054F7E6254
:1005C00000BF00BF00BFF0BD00E0054000C001401B
:1005D00000A004400060044000400440E10C002002
:1005E00010B5FA4A5278FA4B1B5C5B00F94CE35A9F
:1005F0005A439203130E42008418F54A433A1355A6
:10060000F24A9278F24B1B5C5B00F24CE35A5A437D
:100610009203130E42008418ED4A433AA218537015
:10062000EA4AD278EA4B1B5C5B00EA4CE35A5A4335
:100630009203130E42008418E54A433AA2189370BD
:10064000E24A2032527FD207D20F002A42D0DF4A3C
:100650005279DF4B1B5C5B00DF4CE35A5A4392122A
:100660004300C418DA4B433B1B5D1A43D3B242002C
:100670008418D74A433A1355D44A9379D44A125C22
:100680005200D54CA25A53439A124300C418D04B7F
:10069000433BE3185B781A43D3B242008418CC4A38
:1006A000433AA2185370C94AD379C94A125C52001E
:1006B000C94CA25A53439A124300C418C44B433B3B
:1006C000E3189B781A43D3B242008418C04A433AD5
:1006D000A2189370BE4A125C521CD3B2BC4A135487
:1006E000125C142A02DD0023B94A135410BD30B540
:1006F0000C78782C07DA0D78B54C093CE479083C85
:100700002C190C7010E00C78E62C07DA0D78B04C40
:10071000093CE47908342C190C7005E00578AC4CE0
:10072000093CE4792C1B04700578A94C093CE47958
:10073000A41CA5420CDAFF240C7000240470147869
:10074000022C02D10024147002E01478641C14708E
:1007500030BD30B50D789E4C093CE4791C1BA54298
:1007600006DA0D789A4C093CE4792C190C7005E0F6
:100770000578974C093CE4792C1B04700578944C5F
:10078000093CE479A41CA5420CDAFF240C70002477
:1007900004701478022C02D10024147002E0147842
:1007A000641C147030BDF0B504460D468848005DE9
:1007B000002804D0012829D0022877D14FE0012D4C
:1007C00003D0032D01D0042D0BD1600021188048E7
:1007D00043380E18600021187D4843380818471C1C
:1007E0000AE0600021187A4843380E18600021188A
:1007F000774843380818871C75480938037A093048
:10080000021939463046FFF772FF50E0012D03D040
:10081000032D01D0042D0CD1600021186C48433801
:100820000818461C60002118694843380818871CBE
:100830000BE060002118664843380818861C6000E9
:100840002118634843380818471C61480938037A5F
:100850000930021939463046FFF77BFF27E0600078
:1008600021185B4843380818461C60002118584876
:1008700043380F18012D03D0032D01D0042D0AD1C8
:1008800060002118524843380818861C600021185F
:100890004F4843380F184E480938037A0930021977
:1008A00039463046FFF723FF01E0FFE700BF00BFF6
:1008B000F0BD10B5464A125C130009F0B7FF0705FA
:1008C0002742668FAACEDE0042008318404A433A90
:1008D0009A1853783E4A093AD2799A18D3B242000C
:1008E00084183B4A433AA2185370394A093A137A9A
:1008F000D2799B1A42008418354A433AA21852789A
:10090000934202DC0123324A1354B7E042008318B9
:100910002F4A433AD35C3A32D2799A1AD3B2420080
:1009200084182B4A433A135542008318284A433A05
:10093000D35C3A32D279934202DC0223244A135424
:100940009CE042008318224A433A9A189378204A3E
:10095000093AD2799A18D3B2420084181C4A433A11
:10096000A21893701A4A093A137AD27954001219CC
:100970009B1A42008418164A433AA218927893426E
:1009800002DC0323124A135478E042008318104A11
:10099000433A9A1853780E4A093AD2799A1AD3B23E
:1009A000420084180A4A433AA2185370420083183E
:1009B000074A433A9A185378054A093AD27993423A
:1009C00002DC0423024A135458E000001C010020FA
:1009D000CA0200203AA9000064A90000420083185E
:1009E000FD4AD35C3A32D2799A18D3B242008418C5
:1009F000F94A13553A32137AD2799B1A4200841875
:100A0000F54A125D934203DC0523F34A4332135443
:100A100034E042008318F04A9A189378EE4A3A324A
:100A2000D2799A1AD3B242008418EB4AA218937072
:100A300042008318E84A9A189378E74A3A32D27902
:100A4000934209DC002342008418E34AA218937001
:100A50000623E14A4332135410E0E04A125C521C70
:100A6000DE4B1A541A46125C0A2A05DD00221A547B
:100A70000023D94A4332135400E000BF00BF10BD29
:100A80007047D74800788000D649085CD249891F52
:100A9000C8700870D24800788000D249085A000413
:100AA000010ECD48801F01714170CD480078800053
:100AB000CC4908580002010EC748801F417181705F
:100AC0007047C9484078C449891F0870C648807873
:100AD0004870C548C0788870C3484079C870C2481B
:100AE0008179BD48801F0171BF48C179BA48801F14
:100AF0004171704710B5002403E00020BB49085540
:100B0000641CA02CF9D30023A02219461846FFF735
:100B1000A5FC0023A02219460120FFF79FFC10BD71
:100B20000FB568460078FF284FD068460078462801
:100B300012DAAF4968460078085CAE490860AE49F1
:100B400068460078085CAD490860AD4968460078A1
:100B5000085CAC49086017E0684600784638A4494C
:100B6000085CF030A3490860684600784638A2491E
:100B7000085CF030A1490860684600784638A04912
:100B8000085CF0309F49086097482030807E6946B5
:100B90000979484300129C49964A12688854924841
:100BA0002030817E6846007A414308129649934A74
:100BB000126888548C482030807E6946097B4843FF
:100BC000001291498F4A126888540FBD70B5FF28F2
:100BD00041D04E248D4D2C5446280CDA844C245C94
:100BE000844D2C60844C245C844D2C60844C245CAB
:100BF000844D2C6014E00446463C7D4D2C5DF03461
:100C00007C4D2C600446463C7B4D2C5DF0347B4D86
:100C10002C600446463C7A4D2C5DF034794D2C60B6
:100C2000714C2034A47E4C432412794D714E3668A9
:100C3000AC556D4C2034A47E54432512744C6F4E39
:100C40003668A555684C2034A47E5C432412704D50
:100C50006C4E3668AC5570BD70B5FF2849D046283B
:100C60000CDA634C245C634D2C60634C245C634D54
:100C70002C60634C245C634D2C6014E00446463CBD
:100C80005B4D2C5DF0345B4D2C600446463C5A4D68
:100C90002C5DF034594D2C600446463C584D2C5D7B
:100CA000F034584D2C60D22903DA0C461E34E1B2E0
:100CB00000E0FF21F02A00DDFF22F02B00DDFF2302
:100CC000494C2034A47E4C4324124F4D494E366883
:100CD000AC55454C2034A47E54432412474E36680C
:100CE000AC55414C2034A47E5C432412454E3668FA
:100CF000AC5570BD70B5474C2478002C02D1002152
:100D00002E220CE0434C2478072C02D12E215D22A8
:100D100005E0404C24780E2C01D15D218C223E4C04
:100D2000246802252C40002C7ED008468CE0374CED
:100D3000245C002C79D046280CDA2D4C245C2D4DF7
:100D40002C602D4C245C2D4D2C602D4C245C2D4DA5
:100D50002C6014E00446463C254D2C5DF034254DB6
:100D60002C600446463C244D2C5DF034234D2C6011
:100D70000446463C224D2C5DF034224D2C60234C21
:100D8000245C6400254D6319214C1E4D2D68645D63
:100D90001D886C43A403240E214D1A4E3668AC55B1
:100DA0001B4C144D2D68645D1D886C43A403240EF8
:100DB0001B4D104E3668AC55154C104D2D68645DBA
:100DC0001D886C43A403240E154D0C4E3668AC559B
:100DD000144C2478042C29E0870200206C020020A7
:100DE00020000020E8AD00001C010020E10C0020E4
:100DF00068A8000014000020AEA800001800002021
:100E0000F4A800001C00002021090020DC010020C3
:100E1000010B00203A000020040000208EA90000F1
:100E2000410700205C01002011E00BE005D1A64C39
:100E3000245CA41EA44D2C5404E0A34C245CA41FE9
:100E4000A14D2C54441CA0B2904200DA6FE770BD53
:100E5000002009E000219D4A11549D4A11549D4AE9
:100E600011549D4A1154401CFF21E1318842F1D3B5
:100E7000002003E00021944A1154401C8C28F9D32F
:100E80000021964A1170964A1180964A1180964A1E
:100E90001170964A1170964A117070479548006813
:100EA000954909684018C01C944908609148006839
:100EB00091490860914800688E490860704700B504
:100EC0008B480078030009F0B1FC0E08223C5670F4
:100ED0008AA4ACBAC9D1D9E1E9F2894800680121F4
:100EE0004904084000280AD17F48007800280DD026
:100EF00083480068042108438149086006E080486F
:100F000000680121890308437D490860D0E07C48DE
:100F1000006801214904084000280AD1724800787D
:100F200000280DD076480068042108437449086001
:100F300006E073480068012189030843704908608E
:100F4000B6E06F48006801214904084000280AD132
:100F50006548007800280DD06948006804210843DE
:100F60006749086006E06648006801218903084374
:100F7000634908609CE06248006801214904084018
:100F800000280AD15948007800280DD05C48006834
:100F9000402108435A49086006E059480068012189
:100FA000890308435649086082E0554800680121DA
:100FB0004904084000280AD14C48007800280DD088
:100FC0004F480068402108434D49086006E04C48FE
:100FD00000680121890308434949086068E04848DE
:100FE000006801214904084000280AD13F480078E0
:100FF00000280DD04248006840210843404908605D
:1010000006E03F4800680121890308433C49086025
:101010004EE03B48006801218902084338490860D6
:1010200046E037480068012149040840002805D1FE
:1010300033480068891108433149086038E0304876
:1010400000680121090308432D49086023480078FE
:10105000002802D101202149087029E028480068B1
:101060000121090308432649086021E0244800685B
:101070000121090308432249086019E0204800685B
:101080000121090308431E49086011E01C4800685B
:101090000121090308431A49086009E0184800685B
:1010A0000121090308431649086001E0FFE700BF7A
:1010B00000BF0F4800780E2804DA0D480078401C65
:1010C0000B49087000BD0000DC010020E10C00208D
:1010D00041070020010B002021090020080000200A
:1010E0009E000020A00000203D0000203E000020C7
:1010F0003C000020280000202C00002024000020BC
:101100000400002010B50123FD2208211846FFF736
:1011100051F90123FD220A211846FFF74BF901235B
:10112000FD220C211846FFF745F910BD10B502232A
:10113000D72208210120FFF73DF90223D7220A21F7
:101140000120FFF737F90223D7220C210120FFF7F6
:1011500031F910BD10B501237F220D210020FFF7CA
:1011600029F901237F220F210020FFF723F9012312
:101170007F2219461846FFF71DF910BD10B501234F
:10118000BF2209211846FFF715F90123BF220B21C1
:101190001846FFF70FF90123BF220D211846FFF76C
:1011A00009F910BD10B50123BF2203211846FFF72E
:1011B00001F90123BF2205211846FFF7FBF801239F
:1011C000BF2207211846FFF7F5F810BD08B599486A
:1011D00040688021084397494860802048620A207F
:1011E00004F06CF800231A460A210B20FFF7E2F8FE
:1011F0000023102201210B20FFF7DCF80023E4225A
:101200000D210B20FFF7D6F8002301220E210B2021
:10121000FFF7D0F80023442214210B20FFF7CAF86F
:101220000023402215210B20FFF7C4F80023A7223A
:101230000F210B20FFF7BEF8FFF75CFC00200090A9
:1012400008E07D480099405C7C49009A88540098E9
:10125000401C009000984028F3D3002340221946F8
:101260000D20FFF7FBF8002301220A210B20FFF7D6
:10127000A1F800231A4605210B20FFF79BF8002355
:101280001A4609210B20FFF795F80020009006E090
:1012900000206A49009A88540098401C00900098E9
:1012A0001028F5D30023102219461846FFF7D6F868
:1012B0000023102219460120FFF7D0F800200090EB
:1012C00008E05F480099405C5C49009A88540098A7
:1012D000401C009000981028F3D3002310221946D8
:1012E0001846FFF7BBF80020009008E05548009929
:1012F000405C5249009A88540098401C0090009825
:101300001028F3D30023102219460120FFF7A6F876
:101310004D48007800900098002811D000980128CE
:101320000ED0009812280BD00098182808D00098EA
:101330001A2805D000981B2802D000981C2808D134
:10134000FFF730FFFFF7DEFEFFF718FFFFF7EEFEB7
:1013500031E0009802281AD00098032817D000988E
:10136000042814D00098052811D0009806280ED023
:10137000009813280BD00098142808D000981D2836
:1013800005D000981E2802D000981F2806D1FFF72C
:10139000E1FEFFF7F3FEFFF7C9FE0CE00098072817
:1013A00004D1FFF7D7FEFFF7C1FE04E0009808283C
:1013B00001D1FFF7A7FE25480068C0210840C028DA
:1013C00035D022480068084080280CD11F4840686A
:1013D000402108431D494860084600684021884371
:1013E0001A49086023E019480068C02108404028D5
:1013F0000CD11648406880210843144948600846CB
:101400000068802188431149086010E00F48006897
:10141000C021084000280AD10C48406808430B4905
:10142000486008460068C02188430849086000F009
:101430003AFA08BD00A00440A6AA0000E10C002072
:1014400048A8000058A80000800BFF1F004004407F
:1014500008B5FB480068012109038843F849086082
:10146000F8480078030009F0E1F907620511242F1C
:101470003C5462000120502300222021009010469D
:10148000FFF751F80220EF49087051E00120802356
:101490005022702100900020FFF745F80120A02382
:1014A000802220210090FFF73EF80320E5490870D4
:1014B0003EE00120F023A02240210090FFF733F806
:1014C0000420E049087033E00220FF234133F0227A
:1014D000202100900020FFF726F80520D949087048
:1014E00026E00220FF237133FF2241327021009059
:1014F0000020FFF718F80220FF239133FF227132FA
:10150000202100900120FFF70EF80620CD49087039
:101510000EE00220FF23E133FF22913240210090B0
:101520000120FFF700F80020C649087000E000BF66
:1015300000BF0220C449087008BD10B5C04800684B
:101540008021084000280BD0BD480068C021884396
:10155000BB4908600020BD4908700720487028E09A
:10156000B7480068FF210131084000280CD0B4487A
:101570000068FF2141318843B14908600720B34921
:1015800008700E20487014E0AD480068012149023F
:10159000084000280CD0AA48006809218901884326
:1015A000A74908600E20A94908701520487000E07E
:1015B00010BDA7480078042804D0052805D00628C7
:1015C00009D105E003F09DFF06E005F0DCFC03E037
:1015D00006F0F0F800E000BF00BF9C48007800284B
:1015E00006D197480068FF210131084394490860FB
:1015F00096480078072806D19148006801214902E1
:1016000008438F490860914800780E2802D10020D5
:101610009049087000BFCBE710B5894800680821E1
:10162000084000280BD0864800680C218843844974
:1016300008600020854908700720487024E0804831
:1016400000681021084000280BD07D480068142154
:1016500088437B49086007207C4908700E20487049
:1016600012E0774800682021084000280BD0744819
:10167000006824218843724908600E20734908706D
:101680001520487000E010BD73480078032819D079
:1016900006DC00281CD0012811D0022819D108E04E
:1016A000072809D0082810D0802812D104F083FA26
:1016B00010E003F030FE0DE004F03DF90AE004F024
:1016C0003AFA07E004F025F804E004F0DCFA01E05F
:1016D00000E000BF00BF5D480078002805D15848F1
:1016E00000681021084356490860584800780728C8
:1016F00005D15348006820210843514908605348E8
:1017000000780E2802D100205449087000BFBAE7C3
:1017100070B5534D534E54488068000A00020B3098
:101720005149886046480068092189030840884279
:1017300009D1434800680121890388434049086072
:1017400005F0BFFDABE03E480068042108400028DA
:1017500002D0FFF761FFA2E039480068402108404D
:10176000002802D0FFF7E9FE99E035480068012122
:101770008902084000280FD031480068884330496A
:101780000860002403E0285D3055601C84B2FF200F
:10179000E1308442F7DB82E0294800680121C90278
:1017A0000840002872D02648006888432449086011
:1017B000002441E02D48005D00283BD0462C0CDA87
:1017C0002B48005D2B4908602B48005D2B490860C1
:1017D0002B48005D2B49086014E020464638244918
:1017E000085CF03023490860204646382249085CEE
:1017F000F03022490860204646382149085CF03024
:101800002049086020481F490968405C15491D4A65
:10181000126888541C4817490968405C1149154AE8
:1018200012688854184815490968415C0D48134AE4
:1018300012688154601C84B28C2CBBDB2FE025E045
:1018400004000020080000206C0000203A00002066
:101850005C0100203E0000201C0100203D00002013
:1018600021090020E10C002000C00140DC01002023
:1018700068A8000014000020AEA800001800002096
:10188000F4A800001C000020410700204B4800681D
:10189000012109030840002801D0FFF7D9FD0220EB
:1018A0004749087070BD10B5002404E00020454988
:1018B0000855601C84B2FF20E1308442F6DB00232F
:1018C0001A4605210B20FEF775FD00231A46092153
:1018D0000B20FEF76FFD10BD10B53B4800780728C0
:1018E00011D006DC012811D0022809D0032816D116
:1018F0000FE0082810D0802811D104F04FF91BE028
:1019000003F0EEFC18E003F0D7FF15E004F0ECF86C
:1019100012E003F069FE0FE004F0A0F90CE00024EF
:1019200005E000202749085528490855641CFF2078
:10193000E1308442F5D300BF00BF10BD10B524488C
:101940000078042804D005280FD0062827D119E0F4
:101950001D480078002805D10023BF220F210B204D
:10196000FEF728FD03F076FD26E0174800780028F2
:1019700005D10023BF220F210B20FEF71BFD05F030
:10198000DFFA19E010480078002805D10023BF22B3
:101990000F210B20FEF70EFD05F0F2FE0CE00024F7
:1019A00005E000200B4908550B490855641CFF2031
:1019B000E1308442F5D300BF00BF10BD0400002019
:1019C0006C000020E10C00201C01002021090020F7
:1019D0005C01002041070020010B002070B5FE4D86
:1019E000FD48243084682868C00FC007002801D152
:1019F000022070BD2868400F40070121C9078842B6
:101A000067D1F648407800285ED1F5480068090D96
:101A10000840002824D1F2480068491008400028F6
:101A20001ED0EF48006889018843ED4908600846E8
:101A300000680121C9020843E9490860E9480078C3
:101A4000E94A10430146204600F0E8FCE749201D22
:101A500000F0E4FC0821012000F092FC0020C8E71F
:101A6000DF48006801210904084000282AD0DC482A
:101A700000688843DA490860DA48C0780006D94A25
:101A8000927812041043D74A127810430146204638
:101A900000F0C4FCD348C0790006D24A92791204FF
:101AA0001043D04A527912021043CE4A12791043A1
:101AB0000146201D00F0B2FC0821012000F060FC6E
:101AC000002096E7012094E7012000F0B0FA0320FF
:101AD0008FE701208DE7F8B5BF4F3F1DBE4824308A
:101AE000C4683868C00FC007002800D1F8BD386846
:101AF000400F40070121C907884272D1B74880785A
:101B000000286FD1B6480068490B0840002818D05B
:101B1000B34800688843B2490860B54800780002BD
:101B2000411C204600F07AFCB1484178201D00F0AD
:101B300075FC0020AE4948700521022000F020FC11
:101B400048E1A748006840210840002810D0A44878
:101B500000688843A2490860A64800780002811CFA
:101B6000204600F05BFC0221084600F009FC31E150
:101B70009B48006880210840002814D098480068DD
:101B80008843974908609C48407800049A4A127834
:101B900012021043C11C204600F040FC0321022029
:101BA00000F0EEFB16E18E4800680121C9050840EF
:101BB000002818D08A4800688843894908608F48FF
:101BC00000780004C11DFF31FF31204600F026FCE3
:101BD0000021201D00F022FC0821022000F0D0FB93
:101BE000F8E01EE11AE17E4800680121090608407C
:101BF000002824D07A4800688843794908608048E2
:101C00000068002804D0012804D0022806D103E08F
:101C1000002504E0012502E0022500E000BF00BF2E
:101C20002804C11DFE31204600F0F8FB0021201DD4
:101C300000F0F4FB0821022000F0A2FBCAE0684893
:101C40000068012149060840002829D0644800683E
:101C50008843634908606B4840780006694A1278F7
:101C600012041043012292028018411D204600F008
:101C7000D5FB644840790006624A12791204104389
:101C8000604AD278120210435E4A927810430146AD
:101C9000201D00F0C3FB0821022000F071FB99E039
:101CA0004F480068012149030840002817D04C48DC
:101CB000006888434A4908605348007800040322BA
:101CC00052028018411D204600F0A8FB0021201D73
:101CD00000F0A4FB0821022000F052FB7AE040480B
:101CE00000680121C9060840002822D03C4800684D
:101CF00088433B49086045480079C007C00F002869
:101D000001D0012600E000263006404A127A120473
:101D10001043072212028018411D204600F07EFB6E
:101D20000021201D00F07AFB0821022000F028FB92
:101D300050E02B480068012189030840002817D093
:101D4000274800688843264908603148807E00049F
:101D50000122D2028018411D204600F05FFB0021C5
:101D6000201D00F05BFB0821022000F009FB31E0A0
:101D70001B480068012109070840002811D01848B5
:101D800000688843164908602249204600F046FB57
:101D90000021201D00F042FB0821022000F0F0FA93
:101DA00018E00F480068012189070840002811D079
:101DB0000B48006888430A4908601749204600F02C
:101DC0002DFB1549A731201D00F028FB082102201A
:101DD00000F0D6FA8AE600001CC00540440000204E
:101DE00070000020DF10002000000101010101014E
:101DF0008B0000208D0000208E0000209600002027
:101E0000405F00007D000020970000209C01002022
:101E10003C0100200505000005ACACAC022000F040
:101E200006F900BF62E670B53A4D3A481C300469C5
:101E30002868C00FC007002801D1022070BD2868A3
:101E4000400F40070121C907884261D13248C0785C
:101E5000002858D13148006820210840002850D07F
:101E60002E48006888432D4908602D48C078000638
:101E70002B4A927812041043294A527812021043D6
:101E8000274A127810430146204600F0C7FA24483A
:101E9000C0790006224A927912041043204A5279EE
:101EA000120210431E4A127910430146201D00F011
:101EB000B5FA1B48C07A0006194A927A12041043F8
:101EC000174A527A12021043154A127A10430146F9
:101ED0002046083000F0A2FA1148807B0004104A26
:101EE000527B120210430E4A127B104301462046D9
:101EF0000C3000F093FA0F21032000F041FA00208B
:101F00009CE701209AE7032000F091F8032095E771
:101F1000012093E724C00540440000207000002009
:101F2000D010002070B500F0F8FF01F06DFBF7480D
:101F3000006810210843F5490860012000F0E0FA2C
:101F4000012000F0D6FA4020F14988608020C86066
:101F5000C0200861E0204861EE4C402020608020D5
:101F60006060C020A060E020E060EB4C402020607A
:101F700008206060A060E0602061E848E4494039E2
:101F80000860022048611F25ED0608200543322025
:101F900003F094F9DE4840380561E148DC49C86245
:101FA0004007486270BD10B51D2000F0A9FADD4859
:101FB000DD490862DD480069012189040843DB49E5
:101FC00008611D2001218140D94A116000BF10BD68
:101FD00010B50020D449C860D6484861D14808628D
:101FE000D44888611D2000F08BFA1D2000F081FA92
:101FF00010BD0120C002C6494039886070470120E9
:102000008002C349403988607047CB48007804217A
:102010008843C949087001204002BD4940398860A1
:102020007047FF200130BA49403988607047042862
:1020300000D97047B64A283A8300D118002808D141
:10204000B34A403A526801231B061A40002A00D0C6
:10205000EFE7072252070A6000BFEAE710B5B7486A
:10206000006801210843B5490860B54800680007C9
:10207000000F052801D005F0D3F900F07EFA10BD5D
:1020800010B5A348403844680020C043A0494039F7
:102090008860002C02D1FFF7E1FF10BD012040074E
:1020A000204000280ED0FFF7D9FF00F05BFA012096
:1020B00000062040002805D0022003F0D9F800F0E7
:1020C00058FDEAE701208006204000280BD0904808
:1020D00040380068012189070840002803D0081112
:1020E0008B4940398860A00F8007002816D0E00F88
:1020F000C00700280AD0FFF7B1FF00F015FA914899
:102100000068042188438F49086053E0012080075C
:10211000204000284ED000F01EFA4BE01F20C004E3
:102120002040002825D00120C0052040002802D0F2
:1021300000F01FFD3EE0012080052040002802D075
:1021400000F070FD36E0012040052040002802D05C
:1021500000F0C0FD2EE00320C0042040002829D05C
:102160000320C0046A49403988600020FFF75FFF00
:1021700020E00F200002204000281BD0FF2001306B
:102180002040002801D0FFF74CFF012040022040F2
:10219000002801D0FFF739FF0120800220400028ED
:1021A00001D0FFF72CFF0120C0022040002801D001
:1021B000FFF71FFF00BF70E7002000E0401C6249EE
:1021C0008842FBD370471E2000BF0146401E0029F5
:1021D000FBD1704700B506204D4940394861FFF7F3
:1021E000F2FF05204A4940394861FFF7E5FF4848BA
:1021F000403840690421884345494039486100BD61
:1022000001204E49C8600020086150484C490860D0
:1022100000BF4A48C068102108401028F9D147483B
:1022200000684B49084045490860704710B53F4871
:102230000069022188433D49086146480078012829
:1022400000D110BD00240BE043484449C860304829
:102250004038406889030840002800D1F1E7641C39
:102260003F488442F0D32A48403800690921C90612
:1022700088432749403908612C480069802108407B
:10228000002801D0FFF7A4FE0A2003F00FF8FFF7A3
:10229000B7FF1F48403840680121890708400028DF
:1022A00002D1FFF7DBFECCE704202E49086030BFE7
:1022B000FFF7D4FE1D4800692B49084088420DD124
:1022C0001A480069012189048843184908610846B1
:1022D0008068012802D1FFF77DFFB2E700BFB0E7B9
:1022E0000B494039C96B012282409143084A403A68
:1022F000D1637047042800D97047054A283A830003
:10230000D11800220A6000BFF6E7000000E0054097
:1023100040C00540C40E0020D40E0020100000F084
:1023200004400000FFFF000000800440E80E002091
:1023300080E100E01F8000006B00002000000640EC
:102340000020064074000020145000000000FA5ADB
:10235000FEFFFF0F6A000020AA55FA5A0000014054
:10236000E07509004020034080000400042800D9E3
:102370007047674A8300D11812070A6000BFF7E769
:1023800010B5042800D910BD614B84001A1905232B
:102390005B070B43136000BFF5E75D496831486098
:1023A00002215B4A6832D16000BF59496831C9686F
:1023B000022211400029F8D1554968318968554AEF
:1023C0001160704770B506460B46402B10D2701E48
:1023D000800051490858990844182046FFF7DDFF4E
:1023E0009807C10E4B480068C840C5B2284670BD6A
:1023F0000020FCE770B506460B46102B0CD2701E71
:10240000800045490858990044182046FFF7C5FF49
:1024100040480568284670BD0020FCE73C4A683209
:102420005060916001223A4B6833DA6000BF384A4D
:102430006832D268D207D20F002AF8D17047F8B5B7
:1024400006460C461746402C1BD2701E80003249AF
:102450000858A108401800900098FFF79EFF2D48EB
:102460000568A007C10EFF208840294681430D461C
:10247000A007C10E38468840054329460098FFF75B
:10248000CDFFF8BDF0B505460C461646102C09D216
:10249000681E800020490858A10047183146384678
:1024A000FFF7BCFFF0BD1A49283188630221184AA2
:1024B0006832116000BF1649683109680222114074
:1024C0000029F8D112492831C96B144A11607047AC
:1024D0000F4A28329063D16301220D4B68331A6092
:1024E00000BF0B4A68321268D207D20F002AF8D117
:1024F0007047C206D20E01219140094A116070470F
:10250000C206D20E01219140064A116070470000B8
:1025100018C0054060000020C40E002058000020B4
:1025200000E100E080E200E010B50020C043FB497C
:1025300088600120FA49086100208860F749C86076
:10254000FFF775FD012403E02046FFF7D3FE641C6E
:10255000042CF9D910BDF248006902210843F04962
:1025600008617047EE48006904210843EC4908619E
:1025700001204007E94988607047E848006909215F
:10258000C9060843E5490861012040068860704794
:1025900001208006E1498860704770B5E048806896
:1025A000012823D1DF4D002402E000202855641CBF
:1025B000042CFAD9DA480079032817DCD848807847
:1025C000002813D1D6490979D74A5054D4490879FB
:1025D000FFF786FED2480069012109040843D0496B
:1025E000086100210846FFF7CBFE70BD0020FFF711
:1025F0001EFD00BFF9E710B5C948806801281BD14E
:10260000C7480078812817D1C5480079032813DC12
:10261000C3480079C4490C5C21460020FFF758FFED
:10262000BF4800690121C9030843BD490861012170
:102630000020FFF7A5FE10BD0020FFF7F8FC00BF4B
:10264000F9E770B5B74DB648006920210840002869
:102650005AD0B348807800281DD1B1498860084617
:10266000006910210843AE490861012405E00120FA
:1026700028552046FFF73EFE641C042CF7D9A848D5
:102680000069012109040843A549086100210846A1
:10269000FFF776FE70BDA2488078012834D1A049AA
:1026A0008860A2494874A24800680121490708438C
:1026B0009F4908609A480069102188439849086139
:1026C000002413E000202855002C0ED02046FFF7F0
:1026D0004DFE92480069611EC840C007C00F002827
:1026E00003D000212046FFF74BFE641C042CE9D9DF
:1026F0008B480069012109040843894908610021C8
:102700000846FFF73DFEC5E70020FFF790FC00BF3D
:10271000C0E710B5824881680020FFF7D9FE8048E5
:102720008068012807D1012403E02046FFF71EFE40
:10273000641C042CF9D900207E490860784800699F
:102740000321890308437649086101210020FFF72E
:1027500017FE10BD10B50020FFF769FC10BDF0B5E5
:1027600004461D062D0E2D061604FF273F043E408D
:1027700035430E023F123E403543E6B2354328460C
:10278000F0BDF8B56C4804686548C08869490968B7
:10279000884203D26248C08866490860654800687C
:1027A000002804D100210846FFF7EAFD2DE00025AE
:1027B0000DE0E378A27861782078FFF7D0FF064635
:1027C000A8003146FFF784FE241D681CC5B2102DF9
:1027D000EFDB5848006840280ED340210020FFF767
:1027E000CFFD5548006840305349086051480068A3
:1027F00040385049086008E04E480068C1B20020E7
:10280000FFF7BEFD00204B490860F8BD70B50025FC
:10281000002428E04248C1780C206043474A105CFD
:1028200081421FD13E4801790C20604380184078D6
:10283000814217D13A4881780C2060438018807813
:1028400081420FD10C2060431146401880883949DD
:1028500008600C20604311464018806836490860C3
:10286000012502E0641C122CD4D300BF002D03D13B
:102870000020FFF7DCFB70BD294800690121C90376
:10288000084327490861FFF77CFF00BFF3E710B555
:1028900023480069202188432149086108460069CE
:1028A000402108431E49086108468078002805D069
:1028B00008460069202108431949086118488078B2
:1028C000174908730846006901210904084314499F
:1028D000086100210846FFF753FD10BD70B5104890
:1028E000007845066D0E0E480078802108400028CB
:1028F00002D00020FFF79BFB002D23D108488078F1
:10290000012844D1064800690D490843044908617B
:1029100000210846FFF734FD70BD000000C00540EF
:10292000E80E00204400002054000020FC0E00208F
:1029300070000020500000204C00002024B0000057
:1029400080010100022D1FD1FC48807800281ED193
:10295000FA4800794406640E002C18D0042C16D8CE
:10296000F6488068012812D1F54908552046FFF73E
:102970005EFBF2480069E9030843F0490861002161
:102980000846FFF7FDFCC7E70020FFF750FB00BF3C
:10299000C2E770B5E948007845066D0EE748007853
:1029A00080210840002802D00020FFF740FB002DC6
:1029B00014D1E2488078012845D1E048006980219F
:1029C0008843DE49086108460069DE490843DB495F
:1029D000086100210846FFF7D3FC70BD022D32D1FB
:1029E000D648807800282ED1D44800794406640E59
:1029F000002C13D1D148006920210840002822D0A2
:102A00000020CF490870CD480069E9030843CB494D
:102A1000086100210846FFF7B3FCDEE7042C12D85A
:102A2000C648806801280ED10020C5490855C34812
:102A30000069012109040843C049086100210846D2
:102A4000FFF79EFCC9E700BFC7E770B5BB48007839
:102A50004406640EB948007880210840802802D0DE
:102A60000020FFF7E4FA002C1AD1B4480069802155
:102A70000840002804D002210020FFF729FD03E0D0
:102A800000210846FFF724FDAC4800690121C90375
:102A90000843AA49086102210020FFF771FC70BDBC
:102AA000012C1AD1A548806801282FD1A34840796C
:102AB00000282BD1A1480079032827DC00210846F3
:102AC000FFF706FD9D480069E10308439B49086143
:102AD00002210020FFF754FCE1E7022C16D19748B1
:102AE000007945066D0E042D10D89548465D314697
:102AF0000020FFF7EDFC91480069A10308438F49CE
:102B0000086102210020FFF73BFCC8E700BFC6E7D1
:102B100010B58A484078030007F088FE0C070A25A4
:102B20000D25101316191C1F2225FFF78EFF1EE01E
:102B3000FFF72FFF1BE0FFF7D1FE18E0FFF7A7FE1E
:102B400015E0FFF763FE12E0FFF704FE0FE0FFF76A
:102B5000E0FD0CE0FFF775FD09E0FFF74CFD06E036
:102B6000FFF71BFD03E00020FFF761FA00BF00BF85
:102B700010BD1CB53320C004734988600020FFF7E6
:102B8000F5FB71484068012189040840002840D1C4
:102B90006A4800690321C903884368490861002025
:102BA000FFF781FC6948006801900420FFF77BFC77
:102BB000664800680090614901980870FF21090289
:102BC00001980840000A5D494870FF2109040198F6
:102BD0000840000C594988700198000EC870009890
:102BE0000871FF21090200980840000A5349487102
:102BF0000098000CC8800846047860210C40002C26
:102C000002D1FFF785FF1CBD202C06D100F0A7FCE8
:102C1000F9E7012080044C4988600020FFF707FA9B
:102C200000BFF0E710B5012080054749886048489B
:102C3000807C02281AD100204549887408464069E2
:102C4000444988420FD142488069434988420AD1A9
:102C5000002404E0A0000021FFF73AFC641C402C93
:102C6000F8D3FDF783FA04203949887433480069A2
:102C700040210840002813D03048006988432F497C
:102C800008610846007B3049C8600020FFF7CFF993
:102C90002A4800690121090488432849086110BDB8
:102CA0002648C088002810D0244800690121090462
:102CB0000840002809D1FFF764FD20480069012180
:102CC000090488431D490861E9E70020FFF7AFF9CF
:102CD00000BFE4E738B5012040051B4988601C4867
:102CE000807C01287ED1002000900DE000998800B2
:102CF000FFF7D9FB1548016800988200144814308A
:102D000081500098401C009000981028EED30220BB
:102D10000F498874084640690E49884204D10C481E
:102D200080690D4988427DD00C4800680121090462
:102D30000840002840D00020009020E0E80E00204D
:102D4000440000200001010000C0054058000020A0
:102D5000FC0E0020AA55A55AFF0033CC0400002029
:102D60007F480099405C7F497F4A128888547E489A
:102D70000088401C7C4908800098401C0090009806
:102D80004028EDD37848008809218901884213DB67
:102D900000207549088075480068012109048843AE
:102DA00072490860084600680121C90308436F4959
:102DB000086004206E4908706E480078C007C00F94
:102DC000002863D16648143840696B49884213D1A2
:102DD000012163481438C175122101762121417601
:102DE000002100E059E08176644801785C4814389D
:102DF000C176082062490870594814384069614911
:102E0000884221D156481438007E00906A4601213C
:102E10005A4802F0A5F9012151481438C175122110
:102E2000017600E029E02121417600218176534896
:102E300001784B481438C176504A0121524802F0BB
:102E40008FF908204E49087045481438007D042841
:102E500042D143491439487D07F074F80446002CE8
:102E60000CD001213E481438C17505F059F90020F5
:102E7000464908700820424908702DE0FF21384873
:102E80001438C17500203B49087025E03C480078A3
:102E9000012108433A4908701EE031481438406D5A
:102EA000012149020840002816D02D481438406DF1
:102EB00088432B49143948650020FFF7F4FA344859
:102EC00000682749143908700846406D01214903FC
:102ED00008432349143948652E4800690121C90374
:102EE0000840002804D100210846FFF749FA0CE009
:102EF00029484068012109060840002805D12648D4
:102F00008069C90008432449886122480069012179
:102F1000C90388431F49086138BD002003E0002130
:102F20001E4A1154401C0528F9D3002003E000215B
:102F30001B4A1154401C0428F9D30021154A117072
:102F400051709170D17011715171D1809160117374
:102F5000114609690122520411430E4A116170475A
:102F6000100F002001050020400000200400002078
:102F70003C000020BD00002012055A00800BFF1FFE
:102F80006B00002012E75A0058BB0000BC00002074
:102F900058000020E80E002000C00540440000203A
:102FA0005400002010B5FE480078212825D1FD48A6
:102FB000406D012109030843FA494865F848007942
:102FC00000281AD1F6488078002806D10846406DBE
:102FD000032189028843F3494865F1488078F14923
:102FE0004874EF480069012109040843EC4908616D
:102FF00000210846FFF7C4F910BD0020FFF717F8BD
:1030000000BFF9E710B5E6480078212840D1E44830
:103010000069012109040843E1490861E148406D64
:103020000121C9020843DF494865DD4800790028CD
:103030002ED1DB48C07808740846007C002806D1F1
:10304000D948006808218843D74908601BE0D64862
:10305000006808210843D449086008460068012137
:10306000C9038843D049086005F05AF8CE48006883
:10307000012109048843CC490860084600682021E2
:103080008843C949086000210846FFF779F910BD57
:103090000020FEF7CCFF00BFF9E710B50120C149C1
:1030A000887400210846FFF76BF910BD10B5BC48C5
:1030B0000069012109040843B9490861B948406D14
:1030C000012149020843B749486500210846FFF736
:1030D00057F910BD10B5B2480078212815D1B04875
:1030E0000079002803D0AE48007903280DD1AC4800
:1030F000C078022802D1FFF7D9FF10BDA848C078D8
:10310000032802D1FFF7C9FFF7E70020FEF78FFF82
:1031100000BFF2E710B5A2480078A1281ED1A1484F
:10312000406D012109030840002802D101209D497A
:1031300048749B480079002810D19A48417C0020AF
:10314000FFF7C6F9964800690121C903084394496D
:10315000086101210020FFF713F910BD0020FEF7E0
:1031600066FF00BFF9E710B58D480078A1281BD194
:103170008C48406D0121C90208438A494865884846
:103180000079002810D10846017C0020FFF7A0F943
:10319000834800690121C90308438149086101216D
:1031A0000020FFF7EDF810BD0020FEF740FF00BF44
:1031B000F9E738B57D480078022108437B4908705B
:1031C000084600780821084000281FD0774800787A
:1031D00088437649087000240AE0A1007148143041
:1031E00040580090A0000099FFF772F9601CC4B22B
:1031F000102CF2DB6A4800690121C90308436849C1
:10320000086140210020FFF7BBF827E0002406E01A
:103210000021A200634814308150601CC4B2102CFD
:10322000F6DBFF215F48C17500240AE0A1005D487C
:10323000143040580090A0000099FFF749F9601C35
:10324000C4B2102CF2DB564800690121C9030843BF
:103250005349086140210020FFF792F838BD10B5AE
:1032600000244F48807800284AD15148C078000691
:103270004F4A9278120410434D4A5278120210437A
:103280004B4A1278104301462046FFF721F948487F
:10329000C0790006464A927912041043444A527992
:1032A00012021043424A127910430146201DFFF7D3
:1032B0000FF93F48C07A00063D4A927A1204104343
:1032C0003B4A527A12021043394A127A104301469D
:1032D00020460830FFF7FCF83548807B0004344A6C
:1032E000527B12021043324A127B104301462046A1
:1032F0000C30FFF7EDF80F210020FFF741F802E056
:103300000020FEF794FE10BD10B5002424488078FC
:10331000012825D1274880780006264A52781204D1
:103320001043244A127812021043411C2046FFF732
:10333000CFF82048807900061E4A527912041043C3
:103340001C4A1279120210431A4AD27810430146DD
:10335000201DFFF7BDF808210020FFF711F85BE002
:103360000F48807802280BD1134800780002811C96
:103370002046FFF7ADF802210020FFF701F84BE0EF
:1033800007488078032820D10C48407800040B4A75
:10339000127812021043C11C2046FFF799F80FE083
:1033A000E80E0020FC0E0020700000206B000020C2
:1033B000D0100020870000208D0000208E0000200B
:1033C00003210020FEF7DCFF26E0944880780428E3
:1033D0000FD1934840780004914A127812021043AA
:1033E000011D2046FFF774F803210020FEF7C8FFF7
:1033F00012E08A48807805280BD18A4800780002BC
:10340000411D2046FFF764F804210020FEF7B8FFB5
:1034100002E00020FEF70BFE10BD10B582480178D7
:103420000020FFF755F87D4800690121C9030843D2
:103430007A49086101210020FEF7A2FF10BD10B5F6
:1034400000247648807800283CD178480068012123
:1034500089020840002810D075480078754A10434A
:1034600001462046FFF734F87349201DFFF730F876
:1034700008210020FEF784FF27E06D48C078000691
:103480006B4A927812041043694A1278104301463D
:103490002046FFF71DF86648C0790006644A927915
:1034A00012041043624A527912021043604A1279A0
:1034B00010430146201DFFF70BF808210020FEF7FE
:1034C0005FFF02E00020FEF7B2FD10BD10B55348CB
:1034D0000078A1283ED151488068C0B2012839D176
:1034E0004E480079002814D14C48C078012802D1F8
:1034F000FFF7A5FF10BD4948C078022802D1FFF7A9
:103500008CFFF7E74548C078032823D1FFF751FE29
:10351000F0E742480079012806D14048C0780128E8
:1035200018D1FFF7F1FEE5E73C480079022806D103
:103530003A48C07801280DD1FFF791FEDAE7374805
:103540000079032806D13548C078032802D1FFF757
:1035500030FECFE70020FEF76AFD00BFCAE710B5D6
:103560002E484078030007F061F90C19070A0D197D
:103570001919191910131619FFF7A8FF12E0FFF710
:10358000F2FD0FE0FFF7C6FD0CE0FFF7A3FD09E039
:10359000FFF738FD06E0FFF705FD03E00020FEF72A
:1035A00046FD00BF00BF10BD10B5002023490860D4
:1035B0001A4800690121C903084318490861082114
:1035C0000020FEF7DDFE10BD10B500201B4908608D
:1035D000124800690121C903084310490861052107
:1035E0000020FEF7CDFE10BD10B500201349086085
:1035F0000A4800690121C9030843084908610521F7
:103600000020FEF7BDFE10BD7D2007490874012093
:10361000487400208874486570470000E80E002058
:103620009000002096000020FC0E0020700000207A
:10363000DF10002000000101010101015000002005
:1036400010B5FDF72BFCFE480078C007C00F00281E
:1036500022D1FB48006804210840002804D0002043
:10366000F849086101208860F7480078C007C00F5A
:1036700000280ED00020F5490860F14800680821B4
:103680008843EF4908600846006802210843EC4976
:1036900008600120EE49087010BD10B5FDF7FEFB73
:1036A000E848006902210840002805D004F0CAFE5D
:1036B000FEF7BCFD04F03AFFE2488068C007C00F87
:1036C00000282ED004F0D5FCDF480078C007C00FDA
:1036D000002819D0FDF7BCFB0020DE490870DE4948
:1036E0000870F021DC482030C1760320DB490870E7
:1036F0000121DA4820300176FF2181760021C17650
:10370000017701F071FF05E0D548007806210843F4
:10371000D34908700220CE490870D248006802F0F0
:1037200069FB10BD38B5002403E00020CE490855E0
:10373000641C102CF9D30023102219461846FCF7FC
:103740008DFE0023102219460120FCF787FEC74892
:103750000068012149020843C4490860084600681E
:1037600089150843C14908600846006809150843DF
:10377000BE490860962001F0A1FD002432E0462CED
:103780000CD2BB48005DBB490860BB48005DBB492B
:103790000860BB48005DBB49086014E0204646381D
:1037A000B349085CF030B349086020464638B24956
:1037B000085CF030B149086020464638B049085CE2
:1037C000F030B0490860FF20A749AA4A126888541F
:1037D0000020AA4A126888540021A348A94A126806
:1037E0008154641C8C2CCAD3012080230022202108
:1037F00000901046FCF797FE0120F0238022202144
:103800000090FCF790FE0220FF237133F02220216C
:1038100000900020FCF787FE0220FF23E133FF2207
:103820007132202100900120FCF77DFE002404E08D
:103830009548005D8C490855641C102CF8D3002372
:10384000102219461846FCF709FE002404E08F48B0
:10385000005D85490855641C102CF8D30023102204
:1038600019460120FCF7FAFD804800680121490251
:1038700088437E49086008460068891588437B496B
:103880000860084600680915884378490860962052
:1038900001F014FD38BD70B500257D488068000A30
:1038A00000020B307A4988602A460121664801F0FF
:1038B00057FC0020624908607648006840084000D4
:1038C0007449086074480068802188437249086020
:1038D000724A1021724801F043FC724A102172486A
:1038E00001F03EFC714A1021714801F039FC714A27
:1038F0001021714801F034FC70487149C860714A68
:103900000A21714801F065FC6C486D49C8606D4A38
:103910000A216E4801F05DFC68486949C860694A3F
:103920000A216B4801F055FC6A4A02216A4801F0FD
:1039300050FC62486249C860684A0B21684801F03F
:1039400048FC684A0221684801F043FCFFF7EAFEA0
:10395000FFF7E8FE002404E0002043490855601CFE
:1039600084B2102CF8DB0023102219461846FCF70D
:1039700075FD0023102219460120FCF76FFD3B481E
:103980000068012149020843384908600846006878
:103990008915084335490860084600680915084339
:1039A00032490860642001F089FC2D480078062126
:1039B00008432B4908704D48006801210907084356
:1039C0004A49086032488068000A0002401C3049B9
:1039D000886070BD10B51B480069022108400028AE
:1039E00005D118488068C007C00F002803D1012006
:1039F0001749087010BDFDF751FA3D4800883D4950
:103A0000884219D100203A490880384800680121CD
:103A10008906884335490860114800780121084328
:103A20000F49087004F07CFBFFF735FF0C48007865
:103A3000400840000A4908702C48006804215BE0F7
:103A400074000020E80E0020C0B300003000002009
:103A50006C000020390000205C0100201C010020C7
:103A6000BD00002024000020E10C002000A0044044
:103A700068A8000014000020AEA800001800002074
:103A8000F4A800001C00002048A8000058A800006E
:103A900000C001400020004000E0054000B40000EC
:103AA000805E000040B40000C05E000080B40000F2
:103AB000005F0000C0B40000405F0000AA55FA5A41
:103AC0000000014000B50000805F000000620000BF
:103AD0008064000080B700004069000000B800006A
:103AE000C0690000C0BA0000C06E00007000002075
:103AF000BA00002088130000084000280BD0394885
:103B000000688843374908600846006801210904B5
:103B1000084334490860FDF761FFFDF7DCFFFEF75D
:103B200082F905F067FA304800780421084000283F
:103B300001D006F08FFD2C480078022108400028B3
:103B400008D02A488068000A00020B3027498860A4
:103B500006F0CDFC24480078C007C00F002802D032
:103B6000062023490870234800682349084000289C
:103B700002D004201E4908701A480068022108403B
:103B8000002802D005201A49087016480078C0079E
:103B9000C00F002804D005F0F0F903201449087084
:103BA00000BF27E7022015498862002001218140DB
:103BB000134A116000BF0420104908637047114880
:103BC000114908600020114988600E483E300E49B6
:103BD0008860084600680B49491C08430A49086088
:103BE0007047000070000020BD00002000C00140B0
:103BF0006C00002004000020449C000000000640EF
:103C000000E100E00000FA5A0000014000E0054039
:103C100010B5FE48806A01210843FC498862FC48CF
:103C20000078002817D0FB48C06A8007C00F002822
:103C300003D00020F84908800DE0F7480088401CB8
:103C4000F549088008460088FF21C331884202D127
:103C50000020EF490870F1480078C007C00F002825
:103C600001D006F00FFDEE480068012189060840EA
:103C7000002805D0EB480088401CEA49088002E093
:103C80000020E8490880E8480078C007C00F0028F5
:103C900072D1E348006801210843E1490860E34824
:103CA0000078C007C00F002805D008460068022130
:103CB0000843DB490860DE480068012149040840E8
:103CC000002809D1DB480088401CDA490880DA481E
:103CD0000088401CD8490880D84800781030D54961
:103CE0000988884226DCD648007800281CD1D048B4
:103CF00000683821084000280FD1CD48006808210D
:103D00000843CB4908600020CA4908800120CC49FB
:103D100008700020CB4908700CE0C54800680421F9
:103D20000843C349086005E0C1480068042108430E
:103D3000BF490860C44800781030BF4909888842EC
:103D400028DCC248007800281ED1B9480068072145
:103D5000C9010840002810D1B548006880210843F7
:103D6000B34908600020B44908800120B7490870B1
:103D70000020B44908700DE00EE0AD480068042151
:103D80000843AB49086005E0A948006840210843A2
:103D9000A7490860FDF793F810BDFEB5AC4EAD48DD
:103DA000806A012109060843AA498862AA48007866
:103DB000C007C00F002815D0A8480078401CA749AC
:103DC0000870084600780E280BDBA34800684008FE
:103DD0004000A149086008460068082108439E4940
:103DE0000860E5E19C480068022108400028F8D0FE
:103DF0009B480068401C9A490860084600780028E3
:103E000033D09848007802282FD1FCF7B7F9A021C9
:103E1000009003F03FFBCDB26F077F0FF8202840E2
:103E2000C01940009049085A01129048007A401C7D
:103E3000C2B28E48027208308154FCF79FF9A0216B
:103E4000009003F027FBCDB26F077F0FF8202840CA
:103E5000C01940008449085A01128448007A401C65
:103E6000C2B282480272083081547D48007800074F
:103E7000000F04280BD07A4800780007000F0A28AA
:103E800005D0774800780007000F0F284DD17548FE
:103E90000078032849D1FCF771F9A021009003F0C4
:103EA000F9FACDB26F077F0F00243BE06F48005D49
:103EB000002836D16E48407E012824D1FCF75EF9F7
:103EC0000721009003F0E6FAC9B201916846007933
:103ED0008000305C61006118644A403A5054684682
:103EE00000798000305A0004000E610061188918C2
:103EF000487068460079800030580002000E61006A
:103F0000611889188870F8202840C0194000564967
:103F1000085A01125548153001550121153801552F
:103F200002E0641C152CC1D300BF4D480078000787
:103F3000000F042811D04A4800780007000F072816
:103F40000BD0474800780007000F0A2805D04448E6
:103F500000780007000F0E2846D142480078042858
:103F600042D1FCF70BF91F21009003F093FACDB278
:103F7000002436E03D48005D002831D13C48407EB9
:103F8000012824D1FCF7FAF80721009003F082FA07
:103F9000C9B20191684600798000305C6100611807
:103FA000324A403A5054684600798000305A000442
:103FB000000E610061188918487068460079800019
:103FC00030580002000E6100611889188870294875
:103FD000415D26481530015501211538015502E093
:103FE000641C152CC6D300BF1B4800681021084074
:103FF000002808D01A480068FF212D31884202D3DA
:104000000020174908601648006835E0800000402D
:104010006A0000200000064068000020D200002056
:1040200070000020BA000020BD000020A200002087
:10403000040000209E000020A000002010000020AE
:104040003D0000203C000020110000203E00002028
:10405000C8AD00008020004074000020380000201F
:10406000340000203900002088AC0000010400204A
:104070007C01002004AE0000FF212D3188427BD35B
:104080000020FE490860FE480078042805DAFC4854
:104090000078401CFA49087002E00020F8490870D6
:1040A000F848007801210843F6490870FCF7D0FE73
:1040B000F3480078030006F0B9FB050424394C608E
:1040C00073000020F0490870F021EF482030C176DD
:1040D0000320EE4908700121EC4820300176FF21D1
:1040E00081760021C17601770120C002E84948624B
:1040F0008000E84948620220E749486201F074FA0A
:104100004FE00020E0490870F021DF482030C17600
:104110000220DE4908700121DC4820300176FF21B1
:1041200081760521C17601F0DBF83AE00020D7491D
:104130000870F021D5482030C1760420D24908709B
:104140000121D148203041761021C17601F082F959
:1041500027E00020CD490870F021CC482030C176FE
:104160000520C94908700121C74820304176102137
:10417000C17602F0E5FE14E01AE00020C3490870A1
:10418000F021C2482030C1760620BF4908700121C5
:10419000BD48203041762021C17603F0F1FA00E0DD
:1041A00000BF00BFB748007840084000B54908701C
:1041B000FEBD10B503F0BFFF04F0FEFE10BD85B0DC
:1041C00000210191029103910491009100201BE0D4
:1041D000B249095CB24A125C1143B24A125C114303
:1041E00001AA115401A9095CAF4A125C914205D0A1
:1041F000AE49096820221143AC4A116001A9095C4B
:10420000A94A1154411CC8B20F28E1DBA84909781A
:10421000A84A127811436A4611701178A64A12789A
:10422000914206D0A14909680122920411439F4A94
:10423000116069460978A04A117000219F4A1170E7
:1042400002219F4A117005B0704700B59D48007863
:1042500000280ED1954800680121C904884393497C
:1042600008600020974908709749087097490870BE
:1042700025E096480078C007C00F00280DD08C4874
:104280000078914909780843894908708F48007877
:10429000012148408D49087011E0854800788A491D
:1042A000097888438249087088480078012148408D
:1042B0008649087083480078401E82490870FFF7DD
:1042C0007EFF00BDF8B505460E46ECB22F12002C5D
:1042D00000D1F8BDF02C04DB3146204604F04CF947
:1042E00063E0E02C05DB3A463146204604F07AF9DB
:1042F0005BE0D92C11DB76480068022108400028D9
:1043000004D03146204604F012FC4EE048243A46E0
:104310003146204604F024FB47E0D62C0ADB6C48EB
:1043200000680221084000283FD13146204604F0B1
:1043300013FC3AE0D42C0AD16548006802210840F9
:10434000002832D13146204604F048FC2DE0B02C44
:1043500004DB3146204604F0A6F926E0A82C0ADB4F
:104360005B4800680221084000281ED131462046E3
:1043700004F0E9F919E0A72C04D13146204604F0F5
:104380004CFA12E0A42C04D13146204604F0ABF9DB
:104390000BE0A12C04DB3146204604F0C9FA04E00E
:1043A0003A463146204604F0DBFA00BF91E730B5CB
:1043B0000B4645076D0F0124AC40E2B2C110002B43
:1043C00019D13A4C246801252D032C40002C09D02A
:1043D000404C645C14433F4D6C5444003E4D2C5B98
:1043E000201215E03D4C645C14433C4D6C54440079
:1043F000394D285D0CE0374C645C1440002C04D02F
:104400004400354D2C5B201202E04400324D285D03
:1044100030BD002903D142002F4B985C02E04200DE
:104420002D4B985C7047F3B589B005462C48059034
:104430002C48415D0491415D03912B4800682B4954
:1044400088420BD16846007CE62801D18820049080
:104450006846007C312801D189200490F82028404A
:10446000C01008906F077F0F07480078042848D1D4
:104470000A98002845D11E48007A3BE0340000200D
:1044800039000020BD0000205C0100201C0100203C
:1044900000A004400060044000400440941000204C
:1044A000A3100020B2100020D010002070000020C7
:1044B00087000020930000208B0000206D0000206A
:1044C0006C00002086000020840000208500002071
:1044D000740000209B00002024BD000098000020F4
:1044E000C8AD0000B0BD00007800002001005A5A9D
:1044F00001040020401CC1B2F74801720830455445
:1045000008E1F648007806287FD10A9800287CD177
:10451000002477E0F048005D002871D1EF4820309A
:10452000407E012828D1FBF729FE0721019002F0E7
:10453000B1FFC9B202916846007A81000598405CDB
:1045400061006118E44A403A50546846007A81009C
:104550000598405A0004000E6100611889184870DF
:104560006846007A8100059840580002000E6100FC
:1045700061188918887035E0D7482038C07FC00797
:10458000C00F002813D0D548407961006118D24A85
:10459000403A5054D14880796100611889184870B8
:1045A000CE48C079610061188918887012E0CB4844
:1045B000407861006118C84A403A5054C748807832
:1045C0006100611889184870C448C078610061189A
:1045D00089188870C0482038C07F01214840BE49F2
:1045E0002039C877F8202840C019BD49095CBA486D
:1045F0001530015501211538015505E005E0FFE7AB
:10460000601CC4B2152C85DB84E0B4480078052812
:10461000FAD10A9800287DD1002478E0AE48005DE8
:10462000002872D1AD482030407E012828D1FBF708
:10463000A5FD0721019002F02DFFC9B20291684645
:10464000007A81000598405C61006118A24A403AF6
:1046500050546846007A81000598405A0004000EC4
:1046600061006118891848706846007A81000598D1
:1046700040580002000E610061188918887035E00A
:1046800095482038C07FC007C00F002813D093483A
:10469000407961006118904A403A50548F488079BF
:1046A00061006118891848708C48C07961006118F0
:1046B0008918887012E08948407861006118864A3C
:1046C000403A5054854880786100611889184870D4
:1046D0008248C07861006118891888707E48203847
:1046E000C07F012148407C492039C877F820284004
:1046F000C01940007B49085A01127748153001550E
:1047000001211538015504E0FFE7601CC4B2152CE7
:1047100084DB00BF74480068012149070840002875
:1047200072D072490898085C0121B94008400028FD
:1047300005D06846007B0A99FFF76BFE0390684638
:10474000007B0A9904F0D7F969480068002804D072
:10475000012804D0022806D103E0664E05E0664E2B
:1047600003E0664E01E0664E00BF00BF06210898D8
:104770004843C019800086196846007C4107490FEC
:1047800001208840C0B207906846007CC0100690A7
:1047900056490898085C0121B940084000285BD0C0
:1047A0006846007C0A99FFF702FE04905549069876
:1047B000085C07990840002806D153490698085C10
:1047C00007990840002836D10A98022807D14D4998
:1047D0000698085C079988434A4A069950543078ED
:1047E0000007000F030006F021F8071F050A101F3D
:1047F000151A1F0030460A9904F003FA1AE03046F1
:104800000A9904F040FA15E051E030460A9904F0A4
:10481000B3FA0FE030460A9904F0E3FA0AE03046B2
:104820000A9904F019FB05E06846007C0A99FFF735
:1048300049FD00BF4EE00A98022807D13249069888
:10484000095C07988143304A069811546846007CF9
:104850000A99FFF737FD3DE030780007000F0300AD
:1048600005F0E4FF071E050A0F1E14191E0030464E
:104870000A9904F0C6F919E030460A9904F003FADF
:1048800014E030460A9904F077FA0FE030460A99AE
:1048900004F0A7FA0AE030460A9904F0DDFA05E0D0
:1048A0006846007C0A99FFF70DFD00BF12E00F4932
:1048B0000898085C0121B9400840002805D06846E6
:1048C000007C0A99FFF773FD04906846007C0A9902
:1048D000FFF7F8FC0BB0F0BD010400205C010020E4
:1048E000E8AB000088AC00007000002010BD0000A4
:1048F000405F0000805F00000062000080640000F4
:10490000C0B40000980000209B0000207CB5FE4E43
:104910000020019038E068460079000184190025E4
:104920002BE02088002801D1A41C24E0208801214C
:104930008903084000281CD068460079C00028433D
:10494000C1B200912088012149030840002809D004
:104950002088490088432080002168460078FFF7BE
:1049600062FD06E0022168460078FFF75CFD00204A
:104970002080A41C00BF681CC5B2062DD1DB684690
:104980000079401CC1B20191684600791428C2DB4D
:10499000DE4800680821084000287DD0DB48006818
:1049A00002210840002878D1D748008C0321490310
:1049B0000840002811D0D4484030008C084000281E
:1049C0000BD0D1488030008C0840002805D0D0485A
:1049D0000068401CCE49086002E00020CC49086015
:1049E000CB480068CB49884257D30020C649088489
:1049F0000021C5484030018440300184C648006829
:104A0000C6490843C44908600020019011E0002114
:104A1000C34A684600791154C24A68460079115465
:104A2000C14A68460079115468460079401CC1B2F9
:104A30000191684600790F28E9DD0020019009E026
:104A40000021BA4A68460079115468460079401C32
:104A5000C1B20191684600790628F1DB0020AC491B
:104A60000860AA48006808218843A84908600846E9
:104A7000006802210843A54908600120019001AAAD
:104A80000121AB4800F06CFBAA488068000A0002D4
:104A90000B30A849886001E033E091E0A648007837
:104AA00001210843A4490870FEF73CFEFEF73AFED8
:104AB000FCF78CFBFCF7CCF90020A0490870A0495A
:104AC0000870F0219E482030C17603209D4908706F
:104AD00001219C4820300176FF2181760021C1769A
:104AE000017700F081FD93488068000A0002401CB5
:104AF0009049886090480078400840008E490870CE
:104B00005EE08248006802210840002858D07E48B4
:104B1000008C09030840002811D07B484030008CED
:104B2000084000280BD078488030008C08400028CE
:104B300005D077480068401C7549086002E00020F5
:104B400073490860724800687F49884238D3002062
:104B50006F4908606D480068022188436B4908600E
:104B6000084600684008400008607848006840082F
:104B7000400076490860764800688021884374497F
:104B800008600020019001AA0121694800F0E8FABC
:104B900068488068000A00020B3066498860FEF7AA
:104BA000C1FDFEF7BFFD63488068000A0002401C9B
:104BB0006049886060480078062108435E490870B3
:104BC000554800680121C9040840002803D003208B
:104BD0006049087001E0FFF7F2FA7CBD30B503468A
:104BE0000A461C01484D601900214AE0048803254B
:104BF0002D032C40002C08D001252D03641B0CD064
:104C0000641B1DD0641B37D122E001248C4014406A
:104C1000002C01D0504C04802FE001248C40144023
:104C2000002C0AD00488641E04800488E4B2002C9E
:104C300005D103246403048001E0002404801CE007
:104C400001248C401440002C01D1444C048014E019
:104C500001248C401440002C03D001246403048000
:104C600009E00488641E04800488E4B2002C02D1A8
:104C70000124A403048000E000BF00BF801C4C1C82
:104C8000E1B20629B2DB30BD10B586B00020059038
:104C90001421684601F0EAF831488068314908403B
:104CA0002F49886030484068202188432E49486059
:104CB0002B4840687F2149018843294948602B4897
:104CC0004068032189028843284948602848406891
:104CD0002849084026494860002486E0204840686A
:104CE000254908431E494860084600682249084390
:104CF0001B490860084640681F49C94308401849D5
:104D000048601420604339E0540F002074000020F4
:104D10003000002028230000700000202000010047
:104D2000DF100020D0100020941000207D00002013
:104D3000C0B3000000C00140BD00002039000020C9
:104D40005C0100201C010020102700000020004012
:104D500000E005406D00002005100000123000004A
:104D60000080044000FCFF3F00A0044000400440DD
:104D70000060044007E0FFFF1F800000E149401889
:104D8000C16814206043DF4A801840680160142025
:104D90006043114608580068142161438918C968A6
:104DA00008431421614351580860D7480068400007
:104DB000C0210843D4490968C90B0843C043694668
:104DC00008551420604311460858006814216143B7
:104DD0008918C968884314216143515808606A469C
:104DE000115DE0B2FFF7FAFE641C142C00D275E7E7
:104DF000C6488068032189020843C4498860C248C4
:104E00008068C3490843C0498860C24880680F2150
:104E100009050843BF498860BF488068BF49084307
:104E2000BD49886006B010BD10B5BD488068000A55
:104E30000002401CBA498860BA480078002804D0B3
:104E4000012808D003280CD108E0FFF71DFF01203E
:104E5000B449087009E0FFF759FD06E0FFF7F5F9DE
:104E600003E00120B049087000BF00BF10BD10B5BD
:104E7000AE480068002804D0012806D002280ED1D0
:104E800008E00020AA4908600AE001200004A849BF
:104E9000086005E001204004A549086000E000BF6B
:104EA00000BFA4480068FF2109020840040AA100CD
:104EB0009F4A12681143084603F037F89E4908607C
:104EC0009B4909689C4A12681143084603F02DF873
:104ED0009A490860984800680830974908609848DF
:104EE000007802210840002809D0954800788843BE
:104EF000934908708F480068000E924908708E48E8
:104F000000689149884203D08B480068002807D187
:104F100000208B4908708749086003F090FF10BD9E
:104F200002208A49087000BFF9E710B5834800687D
:104F3000401E8249086008460068002845D1814823
:104F40000078002804D07F480078401E7D49087012
:104F500078480068FF2109040840040C002C06D0A2
:104F6000012C11D0022C22D0032C2CD125E00020C2
:104F7000704908607249087003F061FFFFF71FF97C
:104F80000020724908701FE06E480078002808D1A0
:104F90006B4908706749086003F051FFFFF70FF98C
:104FA00001E003F04CFF0020684908700CE0FFF7B7
:104FB00006F900206549087006E0FFF700F90020B7
:104FC0006249087000E000BF07E05B480068001D10
:104FD0005949086002205D49087010BDF8B558486D
:104FE00000780821084000281AD155480078084365
:104FF000534908704E4909684F4A126811430846E0
:1050000002F093FF00906846C078702108400511B7
:105010006846C47880210C40009880B24C490860F2
:10502000012D04D0022D16D0032D34D121E0002C07
:1050300007D0684680784749097808434549087091
:1050400006E0684681784348007888434149087003
:10505000FFF76BFF20E0684680783F4948703F4883
:1050600000680121890408433C490860FFF75DFF9F
:1050700012E068468078C61DF936002C04D0002165
:105080003046FFF71FF903E002213046FFF71AF917
:10509000FFF74BFF00E000BF00BF2D48006800286D
:1050A00006D127480078082188432549087004E084
:1050B00027480068401E26490860FFF780F8F8BDC1
:1050C00010B5264800680221884324490860144826
:1050D0008068000A0002401C114988601B48007863
:1050E000002802D0022806D102E0FFF7C0FE03E04C
:1050F000FFF774FF00E000BF00BF02200A490870FC
:1051000010BD000080BB00000080044000A00440EF
:1051100000FCFF000040044000600440C0FFFF03AB
:1051200000C001406D0000206C000020405F0000C6
:10513000B0000020A4000020A8000020AC00002047
:10514000A2000020B8000020FFFFFF3F6E000020FB
:10515000B4000020930000208B000020700000208D
:1051600018B5034610680090404840680424A043E6
:105170003E4C60600120A0602046036100BF00E05B
:1051800000BF3A484068C007C00F0028F8D105E0CA
:10519000364C1068E06000BF121D491E0029F7D18F
:1051A0003248806840242043304CA06000BF00E0BB
:1051B00000BF2E484068C007C00F0028F8D12B4818
:1051C000406804242040002801D0012018BD0020A0
:1051D000FCE71EB503460020009039E01068009CF3
:1051E000A401001902901020019020484068042476
:1051F000A0431E4C60600120A06000988001C01890
:10520000206100BF00E000BF18484068C007C00F21
:105210000028F8D107E0154C1068E06000BF121DAF
:105220000198401E019001980028F4D10F48806831
:10523000402420430D4CA06000BF00E000BF0B489D
:105240004068C007C00F0028F8D10098401C0090AB
:1052500000988842C2D305484068042420400028B2
:1052600001D001201EBD0020FCE700000020064008
:105270005021484300BF0146401E0029FBD1704722
:1052800000B5034605E014481449C8606420FFF7E0
:10529000EFFF18465B1E0028F5D100BD06214843EC
:1052A00000BF0146401E0029FBD1704750214843F2
:1052B00000BF0146401E0029FBD1704700B50346E0
:1052C00005E005480549C8606420FFF7EFFF184670
:1052D0005B1E0028F5D100BDAA55FA5A0000014016
:1052E00010B55448C07E54490870002053490860E6
:1052F0000021534841718171C171002051490870EA
:10530000FBF7DFFB4B48007EC007C00F002801D031
:10531000FBF7B7FB10BDF0B585B049488079400078
:1053200049490F5A4948407815283BD144484079AB
:10533000002827D042488079002806DD404880793F
:10534000401EC1B23E4881712CE000213C48817171
:105350004171C079012148403949C8713548007E02
:10536000C007C00F00281DD036480078401C3549C2
:10537000087008460078072801DB00200870FBF75A
:1053800080FB0FE02E4880794F2806DA2C48807980
:10539000401CC1B22A48817104E0012128484171B2
:1053A0004F2181712648C079410040182449403975
:1053B000085C78438003000E03902148C0794100C7
:1053C00040181F4940394018407878438003000E48
:1053D00002901B48C07941004018194940394018D3
:1053E000807878438003000E0190184800780028E8
:1053F00002D100252A260CE014480078072802D1A3
:105400002A25542605E0114800780E2801D154259C
:105410007E262C4609E00E48005D0090019B029A12
:105420000399FBF77DFB601CC4B2B442F3DB05B00B
:10543000F0BD00003C01002010000020040000200E
:10544000C1020020200000208EA900003A000020A8
:105450006AAB000038B55E4C5E48C07E5E4908709D
:1054600000215E488171C17100205D4908600846D5
:105470000068022108435A49086000215748017218
:10548000C17154482038407854494039C870087078
:1054900050482038817851484038017141704D485A
:1054A0002038C1784D484038417181704948407E6C
:1054B000C007C00F002823D0FAF760FE0546072179
:1054C00001F0E8FFC9B20091684600788000205CD6
:1054D00042494039C8700870684600788000205AF8
:1054E0000004010E3D484038017141706846007863
:1054F000800020580002010E384840384171817008
:1055000038BDF8B5324D3548007A00285CD001240A
:1055100053E0324E0836365DF8273E402F4F0837AD
:105520003F5D7F077F0FF61976002E4FB85D2B4E3B
:10553000F6797700F619294F403FF619B378274ED0
:10554000F6797700F619254F403FF6197278234E09
:10555000F6797700F619214F403FB95DFBF736FB2E
:105560001E48C079012148401C49C8711948407E35
:10557000012820D1FAF702FE0646072101F08AFF32
:10558000C9B20091684600788000285C3946C8702E
:105590000870684600788000285A0004010E3846DA
:1055A0000171417068460078800028580002010EA1
:1055B000384641718170601CC4B20848007AA0422C
:1055C000A7DA002105480172FBF794FBF8BD000043
:1055D000C8AD00007C010020110000200104002063
:1055E0000400002088AC0000F8B50023BF220F2182
:1055F0000B20FAF7DFFE0020A4490860A448C07E13
:10560000A4490870A248017FA34841710F21C171CC
:10561000FF2101729E48007EC007C00F002862D0A3
:105620009D484079012803D09B48407900280AD141
:105630009A4E771CB01C009097484079152148433A
:105640009749451829E094484079032803D09248A7
:10565000407902280FD18E48C07E14308D490870E1
:10566000904E771CB01C00908B4840791521484320
:105670008B49451811E088484079052803D08648B1
:105680004079042809D1884E771CB01C00908248CC
:1056900040791521484382494518002420E06000E4
:1056A0002018315C600022187B483A388154600031
:1056B0002018395C6000221877483A381018417079
:1056C000600021180098415C6000221872483A3846
:1056D00010188170295D704809300155601CC4B2F2
:1056E000152CDCDB14E06A48C07E14306949087070
:1056F00069484079152148436C494518002405E064
:10570000295D654809300155601CC4B2152CF7DBD2
:10571000F8BDF8B560484079032803D05E48407969
:1057200002285CD1002457E05948007EC007C00F12
:10573000002826D05E48057819E06600A719564E65
:105740003A3EBE19B3786600A719534E3A3EBE19C9
:1057500072786600A719504E3A3EF15D06266E43F8
:105760003619544FB85DFBF777FA681CC5B250483C
:105770004078A842E1DC484841792046FBF713F81D
:1057800028E04B48057819E06600A719424E3A3EDA
:10579000BE19B3786600A7193F4E3A3EBE1972781B
:1057A0006600A7193C4E3A3EF15D06266E43361957
:1057B000404FB85DFBF7B4F9681CC5B23C4840786F
:1057C000A842E1DC3A484078152803D120460099E8
:1057D000FAF706FF601CC4B2062CA5DB55E034487E
:1057E00004784EE02A48007EC007C00F002823D06E
:1057F000002519E06600A719274E3A3EBE19B37876
:105800006600A719244E3A3EBE1972786600A719A1
:10581000214E3A3EF15D062666437619254FB85D66
:10582000FBF77EF9681CC5B2062DE3DB1A48417907
:105830002046FAF7B8FF22E0002519E06600A71914
:10584000154E3A3EBE19B3786600A719124E3A3E7D
:10585000BE1972786600A7190F4E3A3EF15D062612
:1058600066437619134FB85DFBF75AF9681CC5B249
:10587000062DE3DB084841792046FAF7B1FE601CAB
:10588000C4B20B484078A042ACDCF8BD0400002054
:105890003C01002010000020C1020020FCB00000EC
:1058A0008CB100003BB100004DB100000AB2000015
:1058B0003A0000206AAB000010B50023B7220F2188
:1058C0000B20FAF777FD8048C07E804908700020E1
:1058D0007F49086004217F48C171FF2101720121C5
:1058E000417100218171FBF7ECF87748007EC00719
:1058F000C00F00281ED000241AE07648017A60000C
:10590000221874483A3881540021600022187148E6
:105910003A3810184170600022186E483A38101852
:1059200081706D4801556B4809300155601CC4B247
:10593000152CE2DB10BDFEB5664880794000674952
:105940000E5A644880793B21081A400063490F5A77
:105950005D48007EC007C00F002830D06048047842
:1059600028E000251DE0610063185A493A395918AA
:10597000897801916100631856493A3959184A7873
:105980006100631853493A39C95C009106216143AB
:105990004919544B585C019B0099FBF75DF9681C51
:1059A000C5B2062DDFDB4B4841792046FAF781FF6F
:1059B000601CC4B24A484078A042D2DC82E0484829
:1059C000047853E000251CE06000211841483A3873
:1059D00008188378600021183E483A380818427841
:1059E000600021183B483A38405C01900620604333
:1059F00040193C49085C00900199FBF791F8681C3C
:105A0000C5B2062DE0DB3348403800787043314999
:105A10004039C978794340188003010E600022188C
:105A20002C483A388154801F4078704329494039C6
:105A30000979794340188003010E60002218254837
:105A40003A38101841702348403880787043214913
:105A500040394979794340188003010E60002218CB
:105A60001C483A3810188170601CC4B21C48407839
:105A7000A042A7DC1A484078152823D11548407960
:105A800000280FD013488079002806DD114880795E
:105A9000401EC1B20F48817114E000210D48817190
:105AA00041710FE00B4880793B2806DA094880797C
:105AB000401CC1B20748817104E0012105484171D1
:105AC0003B218171FEBD00003C0100201000002040
:105AD00004000020C10200206C0200202EAA000059
