:020000040000FA
:10000000B0150020D1660000D5660000450700004D
:1000100000000000000000000000000000000000E0
:10002000000000000000000000000000D966000091
:100030000000000000000000DB66000041630000DB
:10004000DF660000270B0000000000000000000039
:1000500000000000000000008F55000000000000BC
:100060000000000000000000DF660000000000004B
:10007000DF660000DF660000DF660000DF6600006C
:1000800053620000000000000000000000000000BB
:100090000000000000000000000000000000000060
:1000A000DF66000025640000DF660000000000003D
:1000B000070A0000310A0000DF660000DF6600006A
:1000C00000F002F800F032F80CA030C8083824180C
:1000D0002D18A246671EAB4654465D46AC4201D180
:1000E00000F024F87E460F3E0FCCB6460126334280
:1000F00000D0FB1AA246AB4633431847E87D000008
:10010000087E00000023002400250026103A01D3B9
:1001100078C1FBD8520700D330C100D50B607047BF
:100120001FB506F087FB1FBD10B510BD06F03AFCE9
:100130001146FFF7F5FF00F073FA06F052FC03B426
:10014000FFF7F2FF03BC06F057FC00000148016016
:1001500001480047240006400103FF1F30B40C494A
:100160000C684A6823681068C0181060241D121DAE
:100170008C4207D28A4208D20C604A6030BC4000F0
:10018000400870470C00DC3CF6E70A00DC3AF3E775
:100190004413002010B504F034FEFB48007800281A
:1001A0007ED00020F8490870F848006800280AD07E
:1001B000F6480068401EF5490860084600680028B7
:1001C00001D1F3490870F348008800280BD0F148AA
:1001D0000088401EEF49088008460088002802D1A8
:1001E0000120ED490870ED48006800287FD0EB48F9
:1001F0000068401EE949086008460068002876D17A
:1002000005F04CFD06F01DF806F080F8E4480068A3
:1002100080218843E249086004F0ADF904F0F2F966
:10022000E048806A402188434030DE4988620846C1
:10023000806A202188432030DA4988620846806A33
:10024000202188432030D7498862D748406A491521
:1002500088434018D44948620846406A09158843D3
:100260004018D14948620846406AC914884340187A
:10027000CD4948620846406A012109038843401875
:10028000C94948620EF03AFAC84800684008400080
:10029000C7490843C54908600020C649086100E015
:1002A00025E000F0DAFBC44800690921C90688434B
:1002B000C14908610A2006F065F800F0E2FC002060
:1002C000BD4908610220BD49086030BF00200860B8
:1002D00000F023FC06F02CF806F0CAF805F0E3FF66
:1002E00004F026F805F0BCFFB548AC49086010BD25
:1002F00010B5A548007800280BD00020A24908704E
:10030000B0480088002804D0AE480088401EAD499F
:100310000880A9484068012189070840002804D1C5
:10032000A54840680840002835D0A6480088002825
:1003300031D1C82006F02EF805F0B0FC05F081FFA1
:1003400005F0E4FF964800688021884394490860DE
:1003500004F011F904F056F99148006880218843AF
:100360008F49086091480068400840009049084360
:100370008E49086000208F4908610EF0BFF900F037
:1003800094FC05F0D5FF06F073F805F08CFF03F040
:10039000CFFF05F065FF8C480078012807D10822BF
:1003A0008A4900F0F9F9002801D187490870884886
:1003B0000078012808D110228649022000F0ECF9CB
:1003C000002801D18249087083480078012809D1AA
:1003D00003228249022000F0DFF9002832D17E4951
:1003E00008702FE07E480078012809D102227D495B
:1003F000104600F0D1F9002824D17949087021E095
:100400007948007801280ED106227849022000F0B0
:10041000C3F9002816D17449087074498870C870EF
:10042000087148710EE07248007800280AD0052053
:10043000704908700422022000F0AEF9002801D1B2
:100440006B49087010BD10B56B48007800287DD04E
:100450000020694908706948008800282AD0674848
:100460000088401E6549088008460088002821D180
:1004700063480078002802D104F027FF1AE06048A2
:100480000078012816D104F067FF5E480078002844
:1004900010D0142005F0ADFF05205B490870032043
:1004A0005A4908705120534908708920487001202A
:1004B0004F49087056480078401C55490870084656
:1004C000007832285CDB0020087001202E4908707B
:1004D0004B48007800280FD14E480068002808D00B
:1004E0004C480068401E4B49086000204A4908708B
:1004F00002E00120484908704348007800283FD0B6
:1005000041480078401E404908700846007800289D
:1005100036D142480078D22804D10DF04EFF04F0C5
:10052000C7FF2DE03D480078F32811D03B48007804
:10053000F4280DD039480078F52809D037480078DC
:10054000AB2805D035480078AC2800E01AE017D178
:100550002B480078012813D12C48007800280FD0B0
:100560002A480078401E294908700520264908704D
:100570005120204908708920487001201C490870CA
:1005800001F0B4FC10BD0000EA010020D8010020F9
:10059000E5010020EC01002042020020DC010020E7
:1005A00000E0054000A0044000600440000001405D
:1005B0000000FA5A00E000E000C00540402003407F
:1005C000B80B0000E60100205E010020630100205E
:1005D000610100200E0300205F0100206B0100205C
:1005E000600100206E0100206201002070010020E7
:1005F000C4010020C501002002000020EE010020FF
:10060000E80100205501002056010020D5010020FE
:10061000E9010020E0010020430200203A0100200F
:1006200006F0C4F806F06AF84C48006A0121084355
:100630004A4908621F204A49086000F08FF90020EB
:10064000484908700120C00380894749884202D187
:1006500001204449087005F026FE05F069FE05F00A
:10066000B5FD40480078002806D00DF0CAFEFF20F6
:10067000F53005F08FFE01E009F022FF01F020FCCB
:1006800005F05EFF05F0F4FE3848344988613848CB
:100690000078012801D100F0ADF928E0354836494D
:1006A000C860FFF7D0FE35480078002806D02D48F6
:1006B0000078002802D103F0E4FD05E02948007825
:1006C000002801D003F0DDFD0DF063FC04F023FBF6
:1006D00027480078002802D0012806D102E0FFF761
:1006E00007FE03E0FFF756FD00E000BF00BFD5E7BF
:1006F00010B50DF043FE0DF09EFD04F020FF2048E4
:100700000078401C1E49087008460078022805DB66
:1007100001201C4908700020194908701A48007807
:10072000401C1949087008460078042809DB0DF0C0
:10073000A1FF0020144908700120144908700DF031
:10074000A8FF10BD00BFBFF34F8F11481149C8600B
:10075000BFF34F8F00BF00BFFEE700000000064060
:100760000020044055010020AAAA000002C0000099
:10077000E8010020AA55FA5A00000140F0010020CB
:1007800001000020A0010020000000200200002045
:100790000400FA0500ED00E0FEB505460E461746DA
:1007A0006248A9004018029002980068C00FC00774
:1007B000002801D10220FEBD002D03D0042D01D858
:1007C000402F01D90420F6E702980068400F400747
:1007D0000121C90788423FD15548405D002836D1E4
:1007E000A80054494018029002980068B84201D20B
:1007F0000520E0E7681E80004F490858009000245B
:100800001DE0A0080190305D0190641C305D000285
:10081000019908430190641C305D0004019908436C
:100820000190641C305D0006019908430190641C2E
:100830000199009800F08AFB0098001D0090BC42CE
:10084000DFD3F9B2284600F032FB0020B3E7284698
:1008500000F04CF90320AEE70120ACE737480088F0
:10086000002806D001281BD0022830D0032859D1F7
:1008700044E033480068FF2809D2FF2001303149A5
:1008800008602F480068401C2D49086007E00020E0
:100890002B49086029480088401C2849088042E00C
:1008A00027480068FF2809D2FF2000042549086076
:1008B00023480068401C2249086007E000202049C6
:1008C00008601E480088401C1C4908802BE01C481A
:1008D0000068FF2809D2FF2000021A490860184862
:1008E0000068401C1649086007E0002014490860B1
:1008F00012480088401C1149088014E01048006824
:10090000FF2809D2012000040E4908600C48006845
:10091000401C0B49086004E00020094908600749B1
:10092000088000E000BF00BF7047000018C005400D
:10093000BC0000208002002070020020D0000020B7
:10094000D4000020D8000020002806D0042804D8B5
:10095000F74A83009B18803BD967704770B500F059
:10096000E4FF01F0B9F905F021FF05F0C7FEF148F9
:10097000006810210843EF49086040210120FFF77B
:10098000E3FF80210220FFF7DFFFC0210320FFF7F4
:10099000DBFFE0210420FFF7D7FFE74C4020206079
:1009A00080206060C020A060E020E060E34C402038
:1009B000206010206060A0600820E0602061E048B6
:1009C000DB4948390860022048611F25ED063220C6
:1009D00005F0E0FCD648483805614004D4490839A0
:1009E0004862D848C862012000F02AFB012000F0CC
:1009F00018FB70BD10B50020CD49483908610120B1
:100A000000F016FB10BD10B51C2000F019FBCE48FD
:100A1000CE490862CE480069012189040843CC49C7
:100A200008611C2000F004FB0120CA49087010BDB9
:100A300010B51D2000F004FBC348C7490862C44834
:100A40000069012189040843C14908611D2000F0A3
:100A5000EFFA0120BF49087010BD10B50020BB4956
:100A6000C8604861B84808621F20C00188611C2026
:100A700000F0E6FA1C2000F0D4FA0020B649C86065
:100A80004861B14808620120C00388611D2000F060
:100A9000D7FA1D2000F0C5FA10BD10B50020AB49F3
:100AA000C8604861A84808620920C00188611C200C
:100AB00000F0C6FA1C2000F0B4FA10BD0120C002FC
:100AC0009B4948398860704701208002984948391D
:100AD0008860704701204002954948398860704716
:100AE000FF2001309249483988607047042800D9B6
:100AF00070478F4A303A8300D118002808D18C4AB9
:100B0000483A526801231B061A40002A00D0EFE73A
:100B1000072252070A6000BFEAE710B505F046FE5B
:100B200000F0DBFA10BD10B5814848384468002059
:100B3000C0437F4948398860002C02D1FFF7EDFFA0
:100B400010BD600F400700281AD0E00FC007002832
:100B500004D0FFF7E2FF00F097FA5DE00120800784
:100B60002040002802D000F0A6FA55E001204007FE
:100B70002040002850D0FFF7D0FF00F0A3FA4BE050
:100B80001F20C0042040002825D00120C00520409F
:100B9000002802D000F097FD3EE0012080052040B3
:100BA000002802D000F0E8FD36E00120400520409A
:100BB000002802D000F038FE2EE00320C0042040C0
:100BC000002829D00320C0045949483988600020F2
:100BD000FFF78CFF20E00F200002204000281BD0F0
:100BE000FF2001302040002801D0FFF779FF0120CD
:100BF00040022040002801D0FFF76CFF0120800256
:100C00002040002801D0FFF75FFF0120C0022040F4
:100C1000002801D0FFF752FF204601218906084035
:100C200043494839096801229207114008400028C9
:100C300001D000F05DFA00BF82E7002000E0401C18
:100C400046498842FBD370471E2000BF0146401E24
:100C50000029FBD1704700B5062035494839486165
:100C6000FFF7F2FF0520324948394861FFF7E5FFF9
:100C70002F4848384069042188432D494839486144
:100C800000BD01203649C86000BF3548C06810214A
:100C900008401028F9D10220314908613148324911
:100CA000086000202E490860704710B52748806A08
:100CB000402188434030254988620846806A2021C7
:100CC00088432030214988620846806A2021884371
:100CD00020301E4988622548406A491588434018DB
:100CE000224948620846406A0915884340181F494E
:100CF00048620846406AC914884340181B49486244
:100D00000846406A01210903884340181749486290
:100D10000F480069022188430D490861044848389A
:100D20004068012189070840002821D110BD00003A
:100D300048C0054000E0054070020020800200200D
:100D4000100000B004400000FFFF000000A00440BD
:100D500094020020B8000020008004400A2800000F
:100D6000000006400200FA5A0020064000600440DD
:100D7000B74800690921C9068843B5490861B548E3
:100D8000006980210840002805D00020B249087081
:100D9000FFF763FE23E003F0CBFAB0484068FF2181
:100DA000013188434018AD4948600846406A8915BA
:100DB00088434018A9494862A948406808218843E7
:100DC0000830A74948600846406A0821884308302F
:100DD000A34948620020A0490870FFF75EFE0A2080
:100DE00005F0D0FA00209A490860FFF74AFF9D48B5
:100DF0009749086008464068012189070840002893
:100E000002D1FFF78AFE10BD04209749086030BF69
:100E1000FFF783FE1420954908808F48007800284A
:100E200023D000208C4908708A4800699049084006
:100E300088420DD18748006901218904884385498A
:100E4000086108468068012802D1FFF704FFDAE74D
:100E50007F484068012189070840002805D07D4867
:100E60000069022108437B490861FFF756FE00BF75
:100E7000C9E77749C96B012282409143744AD16323
:100E80007047042800D97047714A18328300D1187E
:100E900000220A6000BFF6E7042800D970476C4AB8
:100EA00018328300D11812070A6000BFF6E710B5A8
:100EB000042800D910BD664B183384001A19052385
:100EC0005B070B43136000BFF4E761498031486062
:100ED00002215F4A8032D16000BF5D498031C9681C
:100EE000022211400029F8D1594980318968614AAC
:100EF0001160704770B506460B46402B10D2701E2D
:100F000080005D490858990844182046FFF7DDFF26
:100F10009807C10E57480068C840C5B2284670BD42
:100F20000020FCE770B506460B46102B0CD2701E55
:100F3000800051490858990044182046FFF7C5FF22
:100F40004C480568284670BD0020FCE7404A8032C6
:100F50005060916001223E4B8033DA6000BF3C4A12
:100F60008032D268D207D20F002AF8D17047F8B584
:100F700006460C461746402C1BD2701E80003E4988
:100F80000858A108401800900098FFF79EFF3948C4
:100F90000568A007C10EFF208840294681430D4601
:100FA000A007C10E38468840054329460098FFF740
:100FB000CDFFF8BDF0B505460C461646102C09D2FB
:100FC000681E80002C490858A10047183146384651
:100FD000FFF7BCFFF0BD1E494031886302211C4A67
:100FE0008032116000BF1A49803109680222114025
:100FF0000029F8D116494031C96B204A1160704769
:10100000134A40329063D1630122114B80331A603E
:1010100000BF0F4A80321268D207D20F002AF8D1DF
:101020007047C206D20E01219140154A11607047E7
:10103000C206D20E01219140114A803211607047E0
:10104000C206D20E012191400E4A11607047000085
:1010500000C0054094020020B80000200040044079
:1010600000600440100000B040200340E601002072
:1010700080000400E400002070020020DC0000205A
:1010800000E100E080E200E010B50020C043FA4932
:1010900088600120F949086100208860F649C8602D
:1010A000FFF724FD012403E02046FFF7EAFE641C5D
:1010B000042CF9D910BDF148006902210843EF4919
:1010C00008617047ED48006904210843EB49086155
:1010D00001204007E84988607047E7480069092116
:1010E000C9060843E449086101204006886070474A
:1010F00001208006E0498860704770B5DF4880684D
:10110000012823D1DE4D002402E000202855641C74
:10111000042CFAD9D9480079012817DCD7488078FF
:10112000002813D1D5490979D64A5054D3490879B2
:10113000FFF79FFED1480069012109040843CF4908
:10114000086100210846FFF7B2FE70BD0020FFF7DE
:10115000CDFC00BFF9E710B5C848806801281BD155
:10116000C6480078812817D1C4480079012813DCCB
:10117000C2480079C3490C5C21460020FFF740FFBC
:10118000BE4800690121C9030843BC490861012127
:101190000020FFF78CFE10BD0020FFF7A7FC00BF6A
:1011A000F9E770B5B64DB548006920210840002820
:1011B00051D0B248807800281DD1B04988600846D7
:1011C000006910210843AD490861012405E00120B0
:1011D00028552046FFF755FE641C042CF7D9A74874
:1011E0000069012109040843A44908610021084657
:1011F000FFF75DFE70BDA148807801282BD19F4983
:10120000886008460069102188439C4908610024D1
:1012100013E000202855002C0ED02046FFF73CFE9E
:1012200095480069611EC840C007C00F002803D060
:1012300000212046FFF73BFE641C022CE9D98F48B1
:1012400000690121090408438C490861002108460E
:10125000FFF72DFECEE70020FFF748FC00BFC9E7EF
:1012600010B5864881680020FFF7CAFE8348806871
:10127000012807D1012403E02046FFF70DFE641C7E
:10128000022CF9D90020804908607C4800690321BC
:10129000890308437949086101210020FFF707FE0F
:1012A00010BD10B50020FFF721FC10BDF0B50446BD
:1012B0001D062D0E2D061604FF273F043E40354324
:1012C0000E023F123E403543E6B235432846F0BD9C
:1012D000F8B56E4804686948C0886B490968884257
:1012E00003D26648C08868490860674800680028DB
:1012F0000BD100210846FFF7DAFD5F488069012124
:10130000090708435C4988612DE000250DE0E3787A
:10131000A27861782078FFF7C9FF0646A800314619
:10132000FFF76EFE241D681CC5B2102DEFDB56487A
:10133000006840280ED340210020FFF7B8FD534835
:1013400000684030514908604F48006840384E49B5
:10135000086008E04C480068C1B20020FFF7A7FD14
:10136000002049490860F8BD70B50025002428E038
:101370004248C1780C206043454A105C81421FD12D
:101380003E4801790C20604380184078814217D193
:101390003A4881780C2060438018807881420FD1D0
:1013A0000C206043114640188088374908600C20A3
:1013B000604311464018806834490860012502E006
:1013C000641C102CD4D300BF002D03D10020FFF7E4
:1013D0008DFB70BD294800690121C90308432749D5
:1013E0000861FFF775FF00BFF3E710B523480069F8
:1013F00020218843214908610846006940210843AB
:101400001E49086108468078002805D00846006912
:101410002021084319490861184880781749087342
:1014200008460069012109040843144908610021A4
:101430000846FFF73CFD10BD70B510480078450622
:101440006D0E0E48007880210840002802D0002050
:10145000FFF74CFB002D1FD108488078012840D1B0
:10146000064800690B490843044908610021084601
:10147000FFF71DFD70BD000000C005409402002074
:10148000BC000020CC000020C8000020C4000020C8
:101490000400002080010100022D1FD1FB4880784C
:1014A00000281ED1F94800794406640E002C18D09B
:1014B000022C16D8F5488068012812D1F449085545
:1014C0002046FFF713FBF1480069E9030843EF49A1
:1014D000086100210846FFF7EAFCCBE70020FFF790
:1014E00005FB00BFC6E770B5E848007845066D0EFD
:1014F000E648007880210840002802D00020FFF74D
:10150000F5FA002D14D1E1488078012845D1DF4853
:10151000006980218843DD49086108460069DD498A
:101520000843DA49086100210846FFF7C0FC70BD96
:10153000022D32D1D548807800282ED1D3480079A9
:101540004406640E002C13D1D048006920210840C5
:10155000002822D00020CE490870CC480069E90359
:101560000843CA49086100210846FFF7A0FCDEE7EE
:10157000022C12D8C548806801280ED10020C44929
:101580000855C2480069012109040843BF490861A0
:1015900000210846FFF78BFCC9E700BFC7E770B51D
:1015A000BA4800784406640EB848007880210840A4
:1015B000802802D00020FFF799FA002C1AD1B348F6
:1015C000006980210840002804D002210020FFF794
:1015D00017FD03E000210846FFF712FDAB48006944
:1015E0000121C9030843A949086102210020FFF72E
:1015F0005EFC70BD012C1AD1A448806801282FD14F
:10160000A248407900282BD1A0480079012827DC86
:1016100000210846FFF7F4FC9C480069E1030843F9
:101620009A49086102210020FFF741FCE1E7022C02
:1016300016D19648007945066D0E022D10D89448B3
:10164000465D31460020FFF7DBFC90480069A103AE
:1016500008438E49086102210020FFF728FCC8E7F3
:1016600000BFC6E710B589484078030005F018FAB6
:101670000C070A250D25101316191C1F2225FFF72C
:101680008EFF1EE0FFF72FFF1BE0FFF7D5FE18E0EF
:10169000FFF7ABFE15E0FFF767FE12E0FFF701FE74
:1016A0000FE0FFF7DDFD0CE0FFF77BFD09E0FFF742
:1016B00052FD06E0FFF721FD03E00020FFF716FAD8
:1016C00000BF00BF10BD1CB53320C0047249886044
:1016D0000020FFF7E1FB70484068012189040840C1
:1016E000002840D1694800690321C903884367493C
:1016F00008610020FFF76FFC684800680190042033
:10170000FFF769FC6548006800906049019808701F
:10171000FF21090201980840000A5C494870FF2136
:10172000090401980840000C584988700198000E7F
:10173000C87000980871FF21090200980840000A4B
:10174000524948710098000CC8800846047860210E
:101750000C40002C02D1FFF785FF1CBD202C06D1C8
:1017600000F085FAF9E7012080044B4988600020E9
:10177000FFF7BCF900BFF0E710B50120800546492E
:1017800088604748807C02281AD100204449887428
:1017900008464069434988420FD14148806942491F
:1017A00088420AD1002404E0A0000021FFF728FCB1
:1017B000641C402CF8D3FEF7C9FC04203849887417
:1017C0003248006940210840002813D02F480069A2
:1017D00088432E4908610846007B2F49C8600020D5
:1017E000FFF784F929480069012109048843274942
:1017F000086110BD2548C088002810D02348006922
:10180000012109040840002809D1FFF761FD1F48A4
:1018100000690121090488431C490861E9E70020A7
:10182000FFF764F900BFE4E710B5012040051A494D
:1018300088601B48807C01283CD1002409E0A0007E
:10184000FFF7C9FB15480168A20015481430815004
:10185000641C102CF3D30220114988740846406997
:101860001049884204D10E4880690F4988423BD014
:101870000E480078012108430C4908700C48007894
:10188000042831D102F0DEFE2EE000009402002098
:10189000BC0000200001010000C00540DC00002069
:1018A000A8020020AA42895AFF7162CC2C010020B4
:1018B000AC0100202E48406D01214902084000285B
:1018C00012D02B48406D8843294948650020FFF716
:1018D00082FB28480068264908700846406D0121AF
:1018E0004903084322494865234800690121C90387
:1018F0000840002804D100210846FFF7D8FA0CE080
:101900001E484068012109060840002805D11B48EF
:101910008069C90008431949886117480069012195
:10192000C90388431449086110BD002003E0002169
:10193000134A1154401C0528F9D3002003E000216C
:10194000104A1154401C0428F9D300210A4A11708E
:1019500051709170D17011715171D180916011737A
:1019600011460969012252041143034A116170476B
:10197000A8020020DC0000209402002000C00540E6
:10198000BC000020CC00002010B5D84800782128E9
:1019900025D1D748406D012109030843D449486542
:1019A000D248007901281ADCD0488078002806D176
:1019B0000846406D032189028843CD494865CB48DC
:1019C0008078CB494874C94800690121090408435B
:1019D000C649086100210846FFF769FA10BD0020DA
:1019E000FFF784F800BFF9E710B5C0480078212858
:1019F00019D1BE480069012109040843BB490861A7
:101A0000BB48406D0121C9020843B9494865B74840
:101A10000079012807DCB548C07808740021084621
:101A2000FFF745FA10BD0020FFF760F800BFF9E7A7
:101A300010B50120AE49887400210846FFF737FA37
:101A400010BD10B5A9480069012109040843A74940
:101A50000861A748406D012149020843A44948652F
:101A600000210846FFF723FA10BD10B59F48007803
:101A7000212811D19D48007900280DD19B48C078BC
:101A8000022802D1FFF7DDFF10BD9848C078032877
:101A900002D1FFF7CDFFF7E70020FFF727F800BFDF
:101AA000F2E710B591480078A1281ED19048406D0A
:101AB000012109030840002802D101208C49487403
:101AC0008A480079012810DC8948417C0020FFF712
:101AD00097FA864800690121C903084383490861D0
:101AE00001210020FFF7E3F910BD0020FEF7FEFF03
:101AF00000BFF9E710B57D480078A1281BD17C48CC
:101B0000406D0121C9020843794948657748007949
:101B1000004300280FD10846007C764908607348CE
:101B200000690121C90308437049086101210020AF
:101B3000FFF7BDF910BD0020FEF7D8FF00BFF9E7A1
:101B400010B500206C490860684800690121C9038C
:101B500008436649086105210020FFF7A8F910BD78
:101B600038B56648007802210843644908700024AB
:101B70000AE0A1005E48143040580090A00000998F
:101B8000FFF73EFA601CC4B2102CF2DB5748006924
:101B90000121C90308435549086140210020FFF78E
:101BA00086F95348407DAB2808D15448007802217B
:101BB00088435249087004205149087038BD10B557
:101BC0004B4801780020FFF71BFA484800690121C3
:101BD000C90308434549086101210020FFF767F95F
:101BE00010BD10B50020444908604048006901213B
:101BF000C90308433D49086108210020FFF757F950
:101C000010BD10B539480078A1282BD1374880681D
:101C1000012827D135480079002814D13348C078ED
:101C2000012802D1FFF7DDFF10BD3048C07802283F
:101C300002D1FFF7C4FFF7E72C48C078032811D181
:101C4000FFF78EFFF0E72948007901280AD12848DC
:101C5000407C012806D12548C078012802D1FFF731
:101C60006FFFE1E70020FEF741FF00BFDCE710B5A2
:101C70001E484078030004F013FF0C19070A0D19E1
:101C80001919191910131619FFF7BBFF12E0FFF706
:101C900031FF0FE0FFF705FF0CE0FFF7E6FE09E07C
:101CA000FFF7A2FE06E0FFF76FFE03E00020FEF75D
:101CB0001DFF00BF00BF10BD10B500200E49086019
:101CC0000A4800690121C903084308490861052140
:101CD0000020FFF7ECF810BD7D20054908740120B5
:101CE0004874002088744865704700009402002002
:101CF000A8020020EC000020C80000202C010020D9
:101D0000AC01002030B591B000240BE00020610050
:101D10004D4A505261004D4A505261004C4A505257
:101D2000601C84B27E2CF1DB052004F062FB0025F0
:101D300018E000240AE0A000072109034018A901C7
:101D40004058A10001AA5050601C84B2102CF2DB54
:101D5000A9010122D203881801AA102104F0FDF97B
:101D6000681C85B2162DE4DB3A483B49C860002464
:101D700005E00020A10001AA5050601C84B2102C84
:101D8000F7DB01AA1021354804F0E7F901AA102178
:101D90004320400204F0E1F901AA1021304804F088
:101DA000DCF901AA10218720000204F0D6F911B055
:101DB00030BDFFB581B005460E461746002404E04D
:101DC000285D28490855601C84B2402CF8DB0024AB
:101DD00005E0305DE119234A5054601C84B2049838
:101DE0008442F6DB1F4A4021284604F075F9012899
:101DF00001D100BFFEE705B0F0BDFFB581B00546DB
:101E00000F461646002404E0385D16490855601C4C
:101E100084B204988442F7DBA819124A402104F0E6
:101E20005BF9012801D100BFFEE7A919084640303F
:101E30000C4A4032402104F04FF9012801D100BF83
:101E4000FEE705B0F0BD00006C090020680A002024
:101E5000640B0020AA55FA5A00000140808500005A
:101E600080860000660E002070B5142500BF681E35
:101E7000C5B20024FB48006810210840002801D1A9
:101E800001200443F8480078A04205D0022004F065
:101E9000B0FAF54804701425002DE8D1F248007816
:101EA000C007C00F002803D00120F049087002E0ED
:101EB0000020EE490870EC480078ED49087070BDCC
:101EC00010B50020EB4948700320EB490870022050
:101ED000EA4908700120EA4908700620E9490870BB
:101EE0000520E9490870FFF7BFFF10BD10B50024B9
:101EF000DC48006810210840002801D1012004437B
:101F0000E24800680121C9030840002801D10220ED
:101F10000443D5480078A04205D00A20DC49087067
:101F2000D148047044E0DA480078002800D110BDA0
:101F3000D7480078401ED649087008460078002827
:101F400036D1C9480078CA49097848400446002C6F
:101F500000D1ECE7C4480078C5490870E007C00F1D
:101F6000002816D0C0480078C007C00F002807D04E
:101F70000120BE49087003F0EFF9FEF73BFD08E0D1
:101F80000020C4490870B949087003F09EF9FEF7B3
:101F9000E5FC0220204002280AD1B3480078022143
:101FA0000840002802D00CF087FB01E00CF093FB06
:101FB00000BFBCE710B5B848007800285CD0B7482F
:101FC000B7490978405CB74909784840B649087074
:101FD0000846007800283ED0B4480078002807D191
:101FE0000220B2490870AF480078B149087040E05B
:101FF000AF480078AB490978884224D1AB480078D3
:10200000401EAA49087008460078002831D1A84926
:102010000870A4480078A149A14A1278885408465B
:10202000007B0E210840042823D19C48C07A8006FA
:10203000800E20281DD1FFF765FE08F041FA002030
:102040009C49087015E0022098490870954800786E
:10205000974908700DE00020944908709048007876
:10206000401C8F49087008460078112801DB0020C9
:10207000087000208849087010BD0021002004E08D
:102080007C4A125C1143421CD0B20828F8DB0029BC
:102090000BD00122884B1A70002004E00022754BFF
:1020A0001A54421CD0B20828F8DB0021012004E0B9
:1020B000734A125C1143421CD0B21028F8DB00298D
:1020C0000BD001227D4B1A70012004E000226C4BE2
:1020D0001A54421CD0B21028F8DB0021012004E081
:1020E000654A125C1143421CD0B20328F8DB002978
:1020F0000BD00122724B1A70012004E000225E4BCB
:102100001A54421CD0B20328F8DB5C4A5278002AE9
:1021100005D001226B4B1A700022584B5A700021D7
:10212000012004E0574A125C1143421CD0B205283A
:10213000F8DB00290BD00122634B1A70012004E068
:102140000022504B1A54421CD0B20528F8DB002262
:102150005E4B1A7070475E490978A02924DB5C4900
:102160000978A72920DC0121534A117059490978BF
:1021700001290BD13F490978554A12785207520F6D
:10218000554B9A5C11433B4A117048E13949097833
:102190004F4A12785207520F4F4B9A5CFF235A4016
:1021A0001140344A11703AE149490978B0291EDBDF
:1021B00047490978CF291ADC0121414A1170454964
:1021C000097801290CD142490978B0394900434ABC
:1021D000505A0321284A11705070011291701EE16B
:1021E0000321254A117000215170917017E138497F
:1021F0000978A82928DB36490978AA2924DC012195
:10220000304A11703349097801290DD102211B4A46
:102210001170114649782E4A1278A83A2E4B9A5CD2
:102220001143164A5170FAE00221144A1170114606
:102230004978274A1278A83A274B9A5CFF235A40DC
:1022400011400E4A5170EAE02249097801297DD1F6
:102250001E490978052961DA1C49097800294DD001
:10226000002047E000A004405A010020E8010020BF
:102270005C010020630100206B0100206E01002042
:102280000E03002070010020C501002000800440E2
:102290005D010020E5010020310100200003002045
:1022A00037010020320100203401002035010020D8
:1022B00033010020550100205E0100206101002053
:1022C0005F01002060010020620100203B0100202E
:1022D0003A0100204D010020F06F0000B06F0000B7
:1022E000811CF84A515CF84A1278914200D170473B
:1022F000411C88B2F54909788842F1DBF2490A7835
:10230000F2490978891CEF4B5A54F0490978491C65
:10231000EE4A11700121EE4A117080E0EA49097815
:1023200078297CDA0121EB4A1170EB4A1170E649F9
:102330000978C910491C515CE34A12785207520FC0
:10234000E64B9A5C1143E04A127800E004E0D210B8
:10235000521CE14B995462E0DC490978002941D0D4
:10236000DA490978891CD74A515CD74A12789142D8
:102370000ED10022D5490978891CD24B5A5401212B
:10238000D34A1170D1490978491ED04A117029E009
:10239000002023E0811CCB4A515CCB4A1278914249
:1023A0001AD107E0C11CC74A525C811CC54B5A5464
:1023B000411C88B2C5490978491E8142F2DC0022DD
:1023C000811CC04B5A540121C14A1170BF49097880
:1023D000491EBE4A11708AE7411C88B2BB49097880
:1023E0008842D7DBB8490978782918DA0121B94A37
:1023F0001170B94A1170B4490978C910491C515C6F
:10240000B14A12785207520FB44B9A5CFF235A40DC
:102410001140AD4A1278D210521CAF4B995400BFF4
:1024200065E718B5AE480078002800D118BDAD4862
:102430000068401CAB49086008460068496888424B
:102440007CD30020A7490860A74800888000A749DE
:1024500009684018406800010009A2494860A24884
:1024600000888000A14909684018C1786846017059
:102470009D48008880009D49096840188178684619
:1024800041700024007880210840802800D1012478
:102490006846017870200140684601700078102875
:1024A00014D1012092490870002C07D0914840783F
:1024B0006946497808438F4948702DE08D48407837
:1024C0006946497888438B49487025E0684600781A
:1024D000202804D168464078864908711CE0684687
:1024E0000078302818D16846407877490870084647
:1024F0000078E02807DB08460078E72803DC084678
:1025000000784038087000207B490870002C01D00A
:1025100001200870FFF71FFE73480088801C724975
:10252000088008460088498888423CDB7348007868
:10253000002804D16A490870FFF79FFD33E06F4817
:10254000007801280FD16E480078401C6C49087053
:10255000084600784978884205DB00206049087009
:10256000FFF78BFD62E767480078800066494018F6
:10257000006C5E49086008460068634940314018B5
:102580005A4908600020574908600A204860002026
:1025900055490880554800680088488053480068BD
:1025A00008305249086000BF40E738B59320000268
:1025B000C06B5649884201D0012038BD5448554966
:1025C0000978405C850054482818046C68460470FB
:1025D0002004010E684641702002010E6846817099
:1025E000210EC1700078002801D10120E5E768467E
:1025F0000078030004F054FA08FD05335496A4BC97
:10260000FCFD01203A49087068464078012819D13C
:1026100068468078C106C90E6846817036480078E1
:10262000002807D033484078694689780843314903
:10263000487013E02F4840786946897888432D49CF
:1026400048700BE068464078032807D12A48007894
:10265000002803D06846807826490871F1E02648B2
:102660000078002807D01748007869464978084361
:102670001449087006E01348007869464978884391
:1026800010490870012012490870684680780E4988
:10269000087008460078002801D001208DE7D0E0BE
:1026A00001201E49087000201D494870887012489A
:1026B0000078002805D068464078487068468078E1
:1026C0008870BEE0630100203A0100203B01002039
:1026D0005E010020610100200E030020F06F000069
:1026E00095010020980100208C010020900100201D
:1026F00062010020700100204D01002084010020B3
:102700008501002083010020809700000000AA5569
:10271000D26C000039010020809000005F01002091
:102720006B0100200120F74908700020F64948702D
:10273000F6480078012802D168464078487080E069
:102740006846407802280FD1F048007801280BD164
:10275000EF4908700520EF4908700020487068466E
:10276000807888700020C8700020EB49087068E00D
:10277000E6480078002847D0E848007800280CD0C8
:10278000FFF77BFCE6480078022803D10020E349EC
:10279000087012E70020E049087068464078E14977
:1027A000087068468078DE4908700020DE490870AD
:1027B0006846C07848700020DC490870D948007825
:1027C0008000DB494018006CDA4908600846006860
:1027D000D74940314018D74908600120CF490870D7
:1027E0000020D5490860012048600020D34901E05D
:1027F0000EE025E00880CF48006800884880CD487A
:1028000000680830CB4908600020C349087018E010
:10281000BE48007800280FD00120C9490870002068
:10282000C8490870C8482818C24908600120BF4933
:1028300008700020C54908700020B749087000E002
:1028400000BF00BF0020B8E610B5C14800780028DE
:1028500011D10120BF490870BD4908700020BE4950
:102860000880002404E00020BC490855601CC4B264
:10287000402CF8DB2FE00020B5490870B8480078FC
:10288000002806D140230022B449B648FFF791FA48
:1028900021E0B3480078012807D140230022AF4946
:1028A00043204002FFF785FA15E0AD480078022882
:1028B00006D140230022A949AB48FFF77AFA0AE083
:1028C000A7480078032806D140230022A349872087
:1028D0000002FFF76EFA10BD10B59D480078002881
:1028E0002BD0A2480078002827D18B480078AF2849
:1028F00000D110BD97480078402805DB00208649AC
:102900000870FFF7A1FFF4E7834800789349914AE4
:10291000127888548F480078401C8E4908707B4894
:1029200001788E488B4A127881548A480078401C7E
:102930008849087000207849087077480078F228A4
:1029400026D10020744908707048007800280ED005
:102950008748007800280BD10120854908700BF0CA
:10296000FCFD02F0F9FCFEF745F80BF09CFE32E2AC
:102970007F4800780128FAD100207D4908700BF0CB
:10298000ECFD02F0A2FCFDF7E9FF0BF08CFEEEE798
:1029900061480078AE2812D100205F4908705B487A
:1029A00000780028E3D073480078012803D1002084
:1029B00070490870DBE701206E490870D7E7564878
:1029C0000078F72812D10020534908704F4800784A
:1029D0000028CCD068480078002803D1012066493F
:1029E0000870C4E7002064490870C0E74A480078CE
:1029F000D12812D1002048490870444800780028A6
:102A0000B5D05E480078012803D100205B490870EA
:102A1000ADE7012059490870A9E73F480078D3285D
:102A20002AD100203C4908703848007800289ED000
:102A300007200003007952490870072000034079FD
:102A40005049087007F0DCFC01204F4908704F48DE
:102A50000078401C4D49087008460078132801DBB7
:102A60000020087000204A4908700BF096FC0BF01B
:102A700098F80BF072FD7AE727480078F62816D10F
:102A800000202549087021480078002892D041484C
:102A90000078401C3F49087008460078092801DB8F
:102AA000002008700BF0D6FB0BF057FD5FE71A48CB
:102AB00000788D287DD100201749087013480078D0
:102AC00000288ED00720000300792D4908700720C8
:102AD000000340792B49087007F092FC01202A4935
:102AE00008702A480078002803D10120274908707F
:102AF00055E02648007801284ED10220234908706D
:102B00004DE056E0600100206E0100204D010020E4
:102B1000C4010020C50100203A01002095010020D9
:102B20008401002083010020850100209401002001
:102B30008097000090010020980100208C01002067
:102B40005101002079010020C090000039010020CF
:102B50007801002076010020180200201E030020CA
:102B60007701002080850000808600004C01002055
:102B7000E8010020540100205301002052010020F0
:102B80001B0200201D020020F4010020F2010020A1
:102B900016020020F10100200020FC4908700020EE
:102BA000FB4908700BF0F9FB0AF0FBFF0BF0D5FCBA
:102BB000DDE6F84800788E2832D10020F54908700B
:102BC000F54800780028F3D0072000030079F34986
:102BD0000870072000034079F149087007F010FCE5
:102BE0000120F0490870E94800780A2803D109203B
:102BF000E64908700AE0E5480078092803D10B206F
:102C0000E249087002E00A20E04908700020E0492B
:102C100008700BF0C2FB0AF0C4FF0BF09EFCA6E6A6
:102C2000DC4800788F2832D10020DA490870DA4871
:102C300000780028BCD0072000030079D74908702D
:102C4000072000034079D649087007F0D9FB01201E
:102C5000D4490870CD480078042803D10320CB491B
:102C600008700AE0C9480078032803D10520C74945
:102C7000087002E00420C54908700020C4490870AB
:102C80000BF08BFB0AF08DFF0BF067FCF2E3C14801
:102C90000078902832D10020BE490870BE480078E4
:102CA000002885D0072000030079BC490870072060
:102CB00000034079BA49087007F0A2FB0120B94926
:102CC0000870B24800780E2803D10C20AF49087074
:102CD0000AE0AE4800780C2803D10D20AB490870FB
:102CE00002E00E20A94908700020A94908700BF0E5
:102CF00054FB0AF056FF0BF030FCBBE3A54800780C
:102D0000912832D10020A3490870A34800780028F8
:102D100085D0072000030079A04908700720000330
:102D200040799F49087007F06BFB01209D490870AE
:102D300096480078062803D10720944908700AE0D5
:102D400092480078072803D108209049087002E0D3
:102D500006208E49087000208D4908700BF01DFB7D
:102D60000AF01FFF0BF0F9FB84E38A4800789228F1
:102D700032D100208749087087480078002885D024
:102D80000720000300798549087007200003407977
:102D90008349087007F034FB0120824908707B48A2
:102DA0000078102803D10F20784908700AE077488E
:102DB00000780F2803D111207449087002E0102018
:102DC000724908700020724908700BF0E6FA0AF0A8
:102DD000E8FE0BF0C2FB4DE36E4800789C2812D150
:102DE00000206C4908706C480078002885D06E4837
:102DF0000078002803D000206B4908703AE30120D6
:102E00006949087036E363480078DA281AD100204F
:102E100060490870604800780028A5D063480078B1
:102E200063490978884203DB00206049087004E0A8
:102E30005E480078401C5D4908700AF0B2FE0BF055
:102E40008CFB17E353480078D0287AD100205149F1
:102E5000087051480078002886D05648007812281B
:102E6000B9D14B48007800280FD10120484908709B
:102E7000002051490880002404E0FF204F490855F4
:102E8000601CC4B27E2CF8DBF4E2002040490870DC
:102E900046480078082800DA2BE5494800780128E0
:102EA00006D17E2342024549C003FEF7A6FFE1E2B8
:102EB00043480078022807D17E230522D2013F49EA
:102EC0008003FEF79AFFD5E23D480078032807D13A
:102ED0007E23020239490120C003FEF78EFFC9E2BA
:102EE00037480078042807D17E230722D2013349CE
:102EF0004003FEF782FFBDE231480078052807D184
:102F00007E2300222D4921208002FEF776FFB1E2C8
:102F10002B480078062807D17E23802227492120CC
:102F20008002FEF76AFFA5E225480078072809D14C
:102F30007E23FF220132214921208002FEF75DFF1E
:102F400098E23FE01E480078082806D17E238022C0
:102F50001A490003FEF751FF8CE21948007809284E
:102F600007D17E23FF2201321449D001FEF745FF2D
:102F700080E213480078002886D17E23FF22813228
:102F80000E490120C003FEF738FF73E2F201002072
:102F9000160200203A0100204D0100201B020020F3
:102FA0001D020020F4010020410200200302002045
:102FB00004020020F001002018020020FE0400207E
:102FC00021020020FD480078D8280AD10020FB49C2
:102FD0000870FB48007800288DD00120F94908705E
:102FE00048E2F6480078D9280AD10020F349087051
:102FF000F348007800288AD00020F249087039E2AE
:10300000EE480078E7280DD10020EC490870EC4824
:103010000078002887D00120EB4908700020EB4998
:10302000087027E2E5480078D72818D10020E34946
:103030000870E348007800288ED0E5480078012821
:103040000ADDE3480078401EE14908700120E149AB
:1030500008700BF082FA0DE20BF025FB0AE2D7486C
:103060000078D62818D10020D4490870D4480078B8
:1030700000288AD0D648007805280ADAD448007893
:10308000401CD34908700120D24908700BF065FA42
:10309000F0E10BF008FBEDE1C8480078D42817D127
:1030A0000020C6490870C6480078002898D0CA4851
:1030B0000078052809DAC8480078401CC64908701D
:1030C00007F09EF90BF049FAD4E10BF0ECFAD1E1EC
:1030D000BA480078D52814D10020B8490870B848FB
:1030E000007800288BD0BC480078012887DDBA48DA
:1030F0000078401EB849087007F082F90BF02DFAED
:10310000B8E1AE48007893280CD10020AB49087094
:10311000AB480078002884D00020B0490870FFF741
:1031200093FBA7E1A548007894280CD10020A3497F
:103130000870A348007800288DD00120A7490870A6
:10314000FFF782FB96E19D48007895280CD100207E
:103150009A4908709A480078002899D002209F491F
:103160000870FFF771FB85E19448007896280CD130
:1031700000209249087092480078002888D00320E7
:1031800096490870FFF760FB74E18C480078DC28F2
:103190001ED100208949087089480078002893D002
:1031A0008F480078012803D18E48007812288BD0F0
:1031B00001208B49087000208A49087013208A4931
:1031C00008700BF0EAF80AF0ECFC0BF0C6F951E1DC
:1031D0007A480078DD281ED10020784908707848A8
:1031E000007800288CD07E480078022803D17D48E2
:1031F0000078122884D0022079490870002079498B
:1032000008701320784908700BF0C7F80AF0C9FC61
:103210000BF0A3F92EE169480078DE281ED10020CA
:10322000664908706648007800288BD06C480078A2
:10323000032803D16B480078122894D003206849F2
:1032400008700020674908701320674908700BF068
:10325000A4F80AF0A6FC0BF080F90BE157480078BF
:10326000DF281ED1002055490870554800780028F5
:1032700016D05B480078042803D15A4800781228F9
:103280000ED00420564908700020564908701320BB
:10329000554908700BF081F80AF083FC0BF05DF9DA
:1032A000E8E046480078E0281ED100204349087035
:1032B00043480078002816D049480078052803D1F3
:1032C0004848007812280ED0052045490870002093
:1032D000444908701320444908700BF05EF80AF066
:1032E00060FC0BF03AF9C5E034480078E1281ED1C3
:1032F00000203249087032480078002816D038483B
:103300000078062803D13748007812280ED006200E
:10331000334908700020334908701320324908707F
:103320000BF03BF80AF03DFC0BF017F9A2E0234844
:103330000078E2281ED1002020490870204800783B
:10334000002816D026480078072803D125480078A1
:1033500012280ED007202249087000202149087049
:103360001320214908700BF018F80AF01AFC0BF032
:10337000F4F87FE011480078E32837D100200F49A6
:1033800008700F480078002874D015480078082885
:1033900003D11448007812286CD008201049087016
:1033A00000201049087013200F4908700AF0F5FF3B
:1033B0000AF0F7FB0BF0D1F85CE000003A010020C6
:1033C0004D0100201F020020500100207601002046
:1033D0001D020020F40100201B02002077010020C4
:1033E00021020020F0010020F2010020FB480078BB
:1033F000E4281ED10020F9490870F9480078002817
:1034000038D0F8480078092803D1F7480078122806
:1034100030D00920F34908700020F34908701320C8
:10342000F24908700AF0B9FF0AF0BBFB0BF095F8FF
:1034300020E0EA480078E5281CD10020E749087020
:10344000E7480078002815D0E6480078002803D126
:10345000E548007812280DD00020E2490870E249C2
:1034600008701320E14908700AF097FF0AF099FBF1
:103470000BF073F800BF0FE510B5D8480078D228DC
:1034800018D1D748007800280FD0D94800780028F4
:1034900007D00020D6490870FEF734FC07F010F87A
:1034A00006E01E20D349087002E00020D1490870D0
:1034B000002010BDC9480078F32825D1CE480078F7
:1034C000012870D1C6480078002818D00120CB49C7
:1034D00008700BF042F81E20C64908700320C84946
:1034E00008705120C7490870812048700120C649E2
:1034F00008700020C54908700BF0D5F802E00020E4
:10350000BC4908700020D4E7B4480078F42825D1DD
:10351000B94800780128D4D1B1480078002818D0E3
:103520000220B64908700BF018F81E20B149087047
:103530000320B34908705120B249087082204870B6
:103540000120B14908700020B04908700BF0ABF8B9
:1035500002E00020A74908700020AAE79F480078F1
:10356000F52826D1A4480078012876D19C48007817
:10357000002819D00420A14908700AF0EEFF1E208F
:103580009C49087003209E49087051209D4908708D
:103590008320487001209C49087000209B490870D6
:1035A0000BF081F803E058E00020924908700020F9
:1035B0007FE78A480078AB2825D18F48007801281A
:1035C0004BD187480078002818D008208B49087014
:1035D0000AF0C3FF1E20874908700320884908703D
:1035E000512088490870842048700120864908705D
:1035F0000020864908700BF056F802E000207D4953
:103600000870002055E775480078AC2825D17A4825
:103610000078012821D172480078002818D01020A5
:10362000764908700AF099FF1E207249087003203D
:103630007349087051207349087085204870012033
:10364000714908700020714908700BF02CF802E0F5
:1036500000206849087000202BE7012029E700219D
:103660000AE048006A4A105C5C4A1278904201D134
:1036700008467047481CC1B2664800888142F0DBAA
:10368000FF20F6E700B5FFF7EAFF0346FF2B00D166
:1036900000BD5348007800284CD05F4800780028CF
:1036A0001CD15E480078002804D0012808D00228E8
:1036B00012D10BE058005649085C484908700CE0EC
:1036C00058005749085C4549087006E058005549BC
:1036D000085C4249087000E000BF7DE04F48007878
:1036E000002804D0012809D0022815D10DE0580087
:1036F000474940184078394908700EE05800484959
:10370000401840783549087007E05800454940188E
:1037100040783249087000E000BF00BFD81042492D
:10372000085C5907490F414A515C0843D9103E4A89
:10373000505451E039480078002804D0012808D0BE
:10374000022812D10BE058003149085C2349087067
:103750000CE058003249085C2049087006E0580027
:103760003049085C1D49087000E000BF00BFD81058
:103770002D49085C5907490F2C4A515C0840002824
:103780002AD026480078002804D0012809D0022831
:1037900015D10DE058001E49401840780F490870B7
:1037A0000EE058001E49401840780C49087007E0A8
:1037B00058001C49401840780849087000E000BFD4
:1037C00000BFD8101849085C5907490F174A515CC7
:1037D0008843D910144A505400BF59E73A010020D9
:1037E0004D01002021020020F0010020F201002004
:1037F0005501002056010020E8010020580100205A
:10380000D5010020C5010020C4010020E5010020F1
:103810007E6E0000DE6E00004C0100205901002089
:10382000E06E0000406F000044010020F06F0000D7
:1038300010B5FC48FC4908600020FC490870FC48B1
:1038400000781F2805D1FB480078002801D006F039
:1038500037FEF9480078002878D0FFF713FFFFF70C
:103860000BFE002800D110BDFFF736F8F2480078B3
:10387000002800D1F7E7F148007800280ED0EE4884
:103880000078A32803D1A220EB49087006E0EA489B
:103890000078A22802D1A320E7490870E848007800
:1038A00001280ED1E4480078A32800D1DBE7E248E4
:1038B0000078A72800D1D6E7DF480078652800D136
:1038C000D1E7DD4800789D2811D1DA480078012839
:1038D0000CD1DC480078401CDA49087008460078B2
:1038E000032801DB00200870FEF7C7FBBBE7D248C6
:1038F00000789F280BD1CF480078002803D0012002
:10390000D149087002E00020CF490870ABE7CA48EF
:1039100000780F280AD1CC480078002871D0C5481B
:103920000078002801D00AF0B0FD9CE7C24800787A
:103930009E2815D1BF48007801280DD1C3480078D2
:10394000002804D00020C149087003E0A6E101204E
:10395000BE490870FEF791FB0020B749087082E766
:10396000B5480078DB282AD1B2480078002825D055
:103970000AF099FE0120B14908700AF0EEFD00201E
:10398000AF490870002404E00020B1490855601CCC
:10399000C4B2082CF8DBAF480078002805D1082213
:1039A000AB490120FCF7F8FE05E0AA4800780128A1
:1039B00001D101F03EFD0A2002F01BFD53E79E48B5
:1039C0000078AD2828D19B480078002823D00AF041
:1039D0006AFE0020994908700AF0BFFD002404E047
:1039E00000209B490855601CC4B2082CF8DB99489C
:1039F0000078002806D1082295490120FCF7CCFE6A
:103A000006E021E093480078012801D101F011FD82
:103A10000A2002F0EEFC26E787480078EB2813D155
:103A200084480078012806D1894800780821084395
:103A30008749087005E086480078F72108408449E6
:103A4000087008207C4908708348007840210840AD
:103A5000002804D1FEF7A9FD002800D103E77F4824
:103A600000782021084000280FD073480078A22851
:103A700003D1002070490870F5E66F4800782B28C4
:103A800003D100206C490870EDE6744800784021AD
:103A9000084000280FD068480078A22803D10020F1
:103AA00065490870DFE6644800783D2803D10020AE
:103AB00061490870D7E660480078A52809D15D48BB
:103AC0000078012802D16649087002E000206449AC
:103AD00008705E48007800283ED0574800783828A3
:103AE00003D152205449087036E0534800786528C5
:103AF00003D15120504908702EE04F480078A42887
:103B000003D14F204C49087026E04B480078A62886
:103B100003D15020484908701EE0474800785228D9
:103B200003D138204449087016E0434800785128F2
:103B300003D16520404908700EE03F4800784F28C7
:103B400003D1A4203C49087006E03B480078502887
:103B500002D1A620384908703748007852280FD182
:103B60003F48007800280BD132480078002803D065
:103B700001203C4908701CE000203A49087018E018
:103B80002D480078522814D135480078002810D0EC
:103B90003448007800280CD138202749087025487F
:103BA0000078012802D13049087002E000202E4937
:103BB000087021480078522811D12948007800283F
:103BC0000DD129480078002809D01A48007800282B
:103BD00005D138201849087000202349087016487C
:103BE0000078AF2848D100201349087001201F49F0
:103BF000087000201E4908700E480078012800D186
:103C000008700E48007800280BD001201949087070
:103C100000200F49C87107480078002801D0012012
:103C2000C87120E6B80B0000E0010020430200202C
:103C3000F00100204D0100203A0100205701002032
:103C40005201002059010020820100207E01002045
:103C500063010020E8010020AE010020AD0100203A
:103C60007F0100208101002080010020360100201A
:103C70004C0100205E010020F7480078122804D192
:103C8000F6480078012800D1EDE5F54800780028D5
:103C900002D0FEF7F2F9E6E5FEF75DFA00BFE2E5D5
:103CA00010B50024EF480078401CEE490870084623
:103CB0000078142866DB00200870EB4800780128A3
:103CC0003AD1EA480078002801D1E94C12E0E748EF
:103CD0000078012802D1432464020BE0E348007815
:103CE000022801D1E34C05E0E0480078032801D127
:103CF00087242402E0480078205C002816D0DE48A3
:103D00000078205CDD490870DB480078401CDA4907
:103D1000087008460078205CD9490870D6480078B9
:103D2000401CD5490870FFF783FD2BE00020CE49E9
:103D30000870FEF7A2F925E0D2480078002821D0CB
:103D4000D1480078401CD049087008460078C00768
:103D5000C00F002802D0FEF790F90CE00120C849FE
:103D60000870C94800784010C8490968085CC34910
:103D70000870FEF7F0F9C4480078072802DB00203D
:103D8000C049087010BD70B50120C1490870B24823
:103D90000078072836D1BF4800784000BE490C5C47
:103DA000BC480078400040184578E000BB49401806
:103DB000445DB3480078002818D0B9480078401E08
:103DC000B8490855B8480078082803D1204607F0BC
:103DD00098F810E0B4480078FF280CD1B348007977
:103DE000012808D1204607F08CF804E0AC480078A0
:103DF000801EAC490855AB48005DAD49085CAD4933
:103E00000855F4E19448007808286CD19C48007863
:103E1000002868D09F48007840009F490D5C9D486D
:103E20000078400040184478A348045DA348405DF2
:103E30002043A2494855A248405D2043A049485527
:103E4000012416E0601E9D49085C095D0843611E5F
:103E50009A4A50540E20001B9949085C0E21091BF8
:103E6000491E974A515C08430E21091B5054601C9F
:103E7000C4B20E2CE6DB002432E09048005D90498D
:103E8000095D08430546002626E0E807C00F002824
:103E90001FD0FF20E100814A8918895D854A50546E
:103EA00081480078082806D1E1007C4A8918885D9D
:103EB00007F027F80DE07C480078FF2809D17B48FF
:103EC0000079012805D1E100744A8918885D07F05E
:103ED00018F86D10701CC6B2062ED6DB601CC4B27A
:103EE0000E2CCADB83E15C480078092832D169488E
:103EF0000078400068490C5C664800784000401833
:103F00004578E00065494018445D5D480078002828
:103F100003D000206349085515E001206149085588
:103F200061480078082803D1204606F0EAFF0AE03D
:103F30005D480078FF2806D15C480079012802D14D
:103F4000204606F0DEFF5748005D5949085C594994
:103F500008554CE1404800780F286FD14848007858
:103F600000286BD04B48007840004B490D5C494815
:103F700000784000401844784F48045D4F4844554D
:103F80004F4844554F4844554F484455464800789B
:103F9000082806D1E900414A8918085D06F0B1FFFA
:103FA0000DE041480078FF2809D1404800790128F8
:103FB00005D1E900394A8918085D06F0A2FF0024FE
:103FC00038E03E48005D3E49095D08433D49095DD2
:103FD00008433D49095D08430546002626E0E807F9
:103FE000C00F00281FD0FF20E1002C4A8918895DEE
:103FF000304A50542C480078082806D1E100274A5E
:104000008918885D06F07DFF0DE027480078FF28BD
:1040100009D126480079012805D1E1001F4A8918F5
:10402000885D06F06EFF6D10701CC6B2062ED6DBE2
:10403000601CC4B20E2CC4DBD9E0FFE70648007850
:10404000122875D10E480078002871D003480078F6
:1040500001283BD13BE00000F001002016020020C7
:104060005401002079010020500100207701002038
:104070008085000080860000760100203A01002043
:104080004D010020510100209401002090010020EA
:104090007A01002039010020A87B0000887C000004
:1040A000D0780000FA05002003020020A4010020BF
:1040B00050780000DA0D0020F06F0000B8040020F6
:1040C000C6040020D4040020E20400200020FA49A5
:1040D0000978002901D1012100E0002108400028D1
:1040E00036D0F64800784000F5490C5CF34800787B
:1040F000400040184578E000F2494018445DF2481D
:10410000007808280CDAF148005DFF2804D1EE4859
:104110000078EE49085518E0FF20EC49085514E0F6
:10412000EA48005DFF2804D10020E849085505E071
:104130000FE0E648005D401CE4490855E348005D97
:10414000082802DBFF20E14908550120E0490870FA
:104150004DE0E0480078132849D1DF480078002876
:1041600045D0D64800784000D5490D5CD34800784A
:104170004000401844783F20D8494855D849485510
:10418000002432E0D548005DD549095D0843054665
:10419000002626E0E807C00F00281FD0FF20E1001E
:1041A000C84A8918895DCF4A5054C7480078082802
:1041B00006D1E100C34A8918885D06F0A2FE0DE031
:1041C000C1480078FF2809D1C7480079012805D1E6
:1041D000E100BC4A8918885D06F093FE6D10701CE2
:1041E000C6B2062ED6DB601CC4B20E2CCADB70BD74
:1041F00010B5BE480078BE49BE4A127888540020E7
:10420000BD49087038E0BD480078C007C00F0028DD
:1042100023D0B8480078C000B74909784018A749AA
:1042200008700020AC490870B548B6490860AF482E
:104230000078C007C00F002802D00120A6490870EE
:10424000FFF7A1FDB0489D490978405CAF4908706F
:104250000020AF490870FFF7EBFAA448007840103F
:10426000A2490870A54800784010A4490870A248E7
:104270000078401CA04908709F4800780828C2DBDD
:1042800010BD10B5A3480078002847D09848994938
:104290000978405C95490978484098490870084673
:1042A0000078002827D09C480078002807D10220F9
:1042B000994908708D4800789849087029E0974816
:1042C00000788A49097888420DD193480078401EC9
:1042D000914908700846007800281AD18F49087063
:1042E000FFF786FF15E002208B4908707F480078B1
:1042F0008A4908700DE00020874908707D480078E1
:10430000401C7C490870084600780E2801DB00201C
:104310000870FFF7C5FC00207E49087080480078CF
:10432000002804D000207E490870FEF77AF810BDFE
:104330007C484068FF21090288437A4948607A48EE
:104340004068400A400278494860704700B56948B3
:104350000078030002F0A4FB150C151E273039422B
:104360004B545C646C747C848C949DA6ECF5FE00CC
:104370006C48406AFF21013188434018694948620E
:10438000E9E06848406A01214902884340186549CC
:104390004862E0E06348406A01218902884340188E
:1043A00060494862D7E05F48406A0121C9028843FA
:1043B00040185C494862CEE05A48406A012109032E
:1043C0008843401857494862C5E05648406A012171
:1043D00049038843401853494862BCE05148406A49
:1043E00001218903884340184E494862B3E04D4893
:1043F000406A0121C903884340184A494862AAE03B
:104400004948406A40084000401C47494862A2E0D1
:104410004548406A02218843801C434948629AE02B
:104420004148406A04218843001D3F49486292E0A8
:104430003D48406A0821884308303B4948628AE089
:104440003948406A1021884310303749486282E079
:104450003548406A202188432030334948627AE059
:104460003148406A4021884340302F49486272E019
:104470002D48406A8021884380302B4948626AE099
:104480002948406AFF210131884340182649486283
:1044900061E02548406A01214902884340182249C9
:1044A000486258E02048406A012189028843401848
:1044B0001D4948624FE04DE04C01002039010020C9
:1044C000A87B0000887C000003020020FE0400207E
:1044D000F3010020F00100204D010020B80400206D
:1044E000C6040020DA0D0020A401002032010020C3
:1044F0000003002037010020380100203401002093
:10450000B80B0000DC0100207A6D00003A010020A9
:104510007B01002031010020350100203301002003
:10452000A0010020004004400060044009E0FFE7D3
:104530003F48406A0121C902884340183C4948620B
:1045400009E03B48406A0121090388434018384983
:10455000486200E000BF00BF00BD36480068FF2190
:10456000090288433349086031480068400A400224
:104570002F49086070472F484068FF21090208430F
:104580002C4948602A4840682B490843284948601C
:10459000704710B50024FFF7EEFFFFF7DEFFFFF7CF
:1045A000D5FE0A2001F00BFF244800680121C90252
:1045B0000840002801D0022004432048006801215F
:1045C00089020840002801D0042004431B480068E9
:1045D000012149020840002801D00820044317485F
:1045E0000068FF2101310840002801D01020044359
:1045F0001248006880210840002801D02020044390
:10460000204610BD0B480068FF21090208430949F4
:104610000860074800680849084305490860704772
:1046200007480078002801D105490870704700004C
:104630000060044000400440FF01000000A004406E
:104640001602002010B5F8480078C007C00F0028F7
:104650000DD0F548007840084000F3490870F34851
:1046600002F0FCF9F24908600320F249087010BD1D
:10467000EE4A143A107D517DEB4A1278D207D20FE0
:10468000002A41D0E94A143A107D517DE64A127859
:1046900052085200E44B1A70042825D1022923D174
:1046A0000123E24A143AD375E14A1378DF4A143AF7
:1046B0001376DF4A12881204130EDC4A143A53763A
:1046C000DB4A12681202130ED84A143A9376D84A7B
:1046D0001268130ED54A143AD376D74A12781023AB
:1046E0001A43D54B1A7003E0FF23D04A143AD3750E
:1046F0000022D24B1A80D04B1A70CB4B1A70CC4B85
:104700001A60CC4B1A7020E0C74A127802231A4074
:10471000002A1AD0C84A127810231A40002A14D04E
:104720000022C64B1A80C44B1A70BF4B1A70C04B84
:104730001A60C34B1A60C14B1A80BF4B1A70BA4B38
:104740001A70BB4B1A60BB4B1A70704710B5BD484E
:104750000078BD490870BB4840784870B9488078F7
:104760008870B848C078C870B648007A0871B548F3
:10477000407A4871B348807A8871B248C07AC8716B
:104780000020B2490870B048C079012801D10870F2
:1047900006E0AD48C079022802D10120AB4908707B
:1047A000A9480078002803D0A7480078802803D1C2
:1047B0001320A749087004E0A3480078401EA449CC
:1047C0000870A1484079A349087005F019FE09F066
:1047D000E8F99D488079A049087001209F49087038
:1047E00005F0AEFE10BD38B500209D4908708E481A
:1047F0000078C007C00F002871D08B4800784008AF
:1048000040008949087000208C4908809549096852
:1048100089008B4A12688818844A102101F09DFC97
:1048200090480068800086490968085800908448CC
:1048300000688D49884213D10C4620788B49087056
:10484000208800092168C90A08432168890C0843A7
:104850002179C901084385490978084383490870CB
:1048600000251FE00098C0B200990904090E401805
:1048700000990902090E41180098000E08186C49A9
:10488000096840186A49086076480068401C754904
:104890000860084600688000694909680858009067
:1048A000281DC5B2402DDDDB71480078401E7049DF
:1048B000087008460078002811D103205D4908706F
:1048C0005F4800686B49884207D1FF206A49087039
:1048D000FFF73CFF01206249087001F0A5FC38BDDC
:1048E00010B5514A127802231A40002A45D04E4A88
:1048F00012789A434C4B1A700022504B1A805C4A33
:104900001278012A2DDD002129E0564A1268920012
:104910004B4B1B689858454A50540204140E434AA6
:104920004B1CD4540202140E404A8B1CD454040E67
:10493000CB1CD454C2B203041B0ED21803021B0EAC
:10494000D318020E9A183A4B1B68D218384B1A60CB
:10495000444A1268521C434B1A600A1DD1B24029C6
:10496000D3DB434A1278521E414B1A701A46127812
:10497000002A02D103222F4B1A7010BD10B5304B04
:1049800018603B4C21702B4B1A7010BD0146274814
:104990001438007F254B143B5B7F1B0218430246F3
:1049A0008A4206DD0020204B1870234B187001202E
:1049B00070470020FCE738B5044600200090172C13
:1049C00073D012DC132C5DD008DC052C20D0102C09
:1049D00020D0112C20D0122C72D151E0142C58D0A0
:1049E000152C58D0162C6BD15DE0F02C69D008DC6A
:1049F000182C6AD0192C73D0AB2C5DD0E02C5FD171
:104A000061E0F12C78D0F22C78D0F32C7AD177E0D9
:104A1000012038BD0120FCE76A460121174801F05A
:104A20009CFB0120F5E700002C010020BC020020C7
:104A3000B0010020AC010020AE010020C001002028
:104A4000B401002080970000A40100201F02002074
:104A5000F20100201B0200201D020020F4010020B2
:104A6000BD010020B801002080900000AD010020B1
:104A7000BC01002040930000030200200F930000BF
:104A80000120C6E76A460121C24801F066FB012009
:104A9000BFE70120BDE76A460121BF4801F05DFB89
:104AA0000120B6E701E00120B3E76A460121BB48D7
:104AB00001F053FB0120ACE701F0C3FB0120A8E7A4
:104AC00020E015E001E00120A3E7B548007840218F
:104AD0008843B349087001209BE701E00CE00DE03A
:104AE000AF48007840210843AD490870012090E7A5
:104AF00009F033FD01208CE701208AE7012088E7D7
:104B0000012086E7002084E770B5A648067D457D34
:104B1000007FA449497F090208430446A24800785F
:104B2000C007C00F00282BD09E48067D457D007F22
:104B30009C49497F0902084304469B480078400885
:104B4000400099490870042E11D12846FFF733FF21
:104B500000280CD001219348C1759148007811219B
:104B600008438F490870002090490880D2E0FF2157
:104B70008C48C17500208A4908708C490880C9E0BA
:104B800089480078022108400028EFD08448007846
:104B9000102108400028E9D08148007888438049E6
:104BA0000870002081490880142D5CD00CDC112D88
:104BB0002BD004DC052D10D0102D71D119E0122D51
:104BC00034D0132DF9D13DE0152D58D0162D6AD0D3
:104BD000172D74D0AB2DF0D182E00220FFF7D6FE66
:104BE000002805D1601C81B201227148FFF7C6FE82
:104BF0008AE00A20FFF7CAFE002805D1601C81B2B6
:104C000001226C48FFF7BAFE7EE067480078022177
:104C10008843654908700A20FFF7B8FE002804D1D0
:104C2000022221466348FFF7A9FE6DE01420FFF73A
:104C3000ADFE002805D1601C81B201225E48FFF75D
:104C40009DFE61E05848007802218843564908706B
:104C50001420FFF79BFE002804D10222214656486B
:104C6000FFF78CFE50E03020FFF790FE002805D1C2
:104C7000601C81B201225148FFF780FE44E04A489F
:104C8000007802218843484908703120FFF77EFEF2
:104C9000002804D1022221464848FFF76FFE33E086
:104CA00028E000E00BE00120FFF770FE002805D1AE
:104CB000601C81B201224248FFF760FE24E03A48BE
:104CC000007802218843384908700120FFF75EFE12
:104CD000002804D1022221463948FFF74FFE13E095
:104CE00031480078022188432F4908700420354953
:104CF000087009E000202D490880294908702A49D8
:104D000008703149086000BF00BF00202E490860CC
:104D10002E49086070BD10B52A480078030001F0E4
:104D2000BFFE0504070A0D101300FFF7EDFE0CE0AF
:104D3000FFF7D6FD09E0FFF756FD06E0FFF798FC08
:104D400003E0FFF77FFC00E010BD00BF00BFFBE702
:104D500010B516480088401C144908800846008891
:104D60007D210901884213DD002406E00021A20014
:104D70000C4814308150601CC4B2102CF6DB0020AB
:104D80000A490880084908700E49087001F04CFA79
:104D900010BD0000BC970000FCA30000BC90000008
:104DA000AE010020A80200202C010020C00100203C
:104DB00000900000C090000040930000C0970000E9
:104DC00080900000AC010020B0010020B80100205C
:104DD0003220FE4908800020FD4908700120FD496D
:104DE00008704B20C000FC49086070470020F8495B
:104DF00008700120F9490870FF202D30F349088020
:104E0000704700B5F648006802210840002845D1E7
:104E1000F4480078002842D0F348007800283ED0BB
:104E20000020F0490870EE48406A01210843EC492F
:104E300048620920ED490870A120ED490880002250
:104E400007E0EC48815C501C4000E94B1952501CB3
:104E5000C2B2082AF5DB00BFE748C068102108404D
:104E60001028F9D0E4480068C0210843E2490860EE
:104E700000BFE1480068C0210840C028F9D0DC48E4
:104E80000088DD49C8610120DC4908600020DC4958
:104E90000860D5490870C820DA49087012E1DA487C
:104EA0000078002841D0D048007800283DD000206C
:104EB000D5490870CA48406A01210843C849486278
:104EC0001020CA490870A220C9490880012206E0C2
:104ED000CE48805C5100C64B5852501CC2B2102ABA
:104EE000F6DB00BFC448C068102108401028F9D084
:104EF000C1480068C0210843BF49086000BFBE48E0
:104F00000068C0210840C028F9D0B9480088BA49D3
:104F1000C8610120B94908600020B9490860B24958
:104F20000870C820B7490870CCE0B948007800285C
:104F30003CD0AD480078002838D00020B449087033
:104F4000A748406A01210843A54948620320A749B0
:104F50000870A320A6490880AE4840788880AD48F4
:104F60008078488000BFA448C068102108401028FD
:104F7000F9D0A1480068C02108439F49086000BFDC
:104F80009D480068C0210840C028F9D09848008892
:104F90009949C86101209949086000209849086032
:104FA00091490870C820974908708BE09A480078AA
:104FB000002841D08C48007800283DD00020964938
:104FC00008708748406A01210843854948620220E9
:104FD00086490870A42086490880012206E08F488F
:104FE000805C5100824B5852501CC2B2022AF6DB40
:104FF00000BF8148C068102108401028F9D07E48C1
:105000000068C02108437C49086000BF7A480068F6
:10501000C0210840C028F9D0754800887649C86189
:105020000120764908600020754908606E490870C3
:10503000C8207449087045E079480078002841D0BC
:105040006948007800283DD0002075490870644800
:10505000406A01210843624948620320634908709D
:10506000A62063490880002207E06E48815C501C3E
:1050700040005F4B1952501CC2B2022AF5DB00BF40
:105080005D48C068102108401028F9D05A480068CF
:10509000C02108435849086000BF57480068C02134
:1050A0000840C028F9D0524800885349C8610120FF
:1050B000524908600020524908604B490870C820D6
:1050C0005049087058480078002812D05748008886
:1050D000B1280FD14A48006802280BD1002052495C
:1050E000087047490860514880784007400F504990
:1050F0000870E9E04D480088B62817D14B48408831
:105100005A2813D14948808806280FD13C480068A6
:1051100003280BD1002044490870394908604B200E
:10512000C00044490880FFF761FECDE03F48008899
:10513000B62817D13D4840885A2813D13B4880886B
:105140000A280FD12E48006803280BD100203649C9
:1051500008702B4908602149087036490880364993
:105160000870B1E031480088B62817D12F48408830
:105170005A2813D12D48808807280FD1204800686D
:1051800003280BD10020284908701D490860012020
:105190002949087032202949086095E02348008891
:1051A000B62854D121484088512850D11F488088C2
:1051B00077284CD112480068032848D100201A49AA
:1051C00008701F4908700E4908603BE01802002073
:1051D0001A020020E5010020D8010020E40100208F
:1051E000004004405E010020D3010020C7010020E0
:1051F0005E0300206301002000C00140C8010020C0
:10520000CC010020D4010020610100200E03002009
:105210005F0100206B010020600100206E01002072
:10522000C4010020C5010020D00100209E03002001
:10523000A8020020EC01002042020020DC01002036
:10524000D5010020FB490870FFF7C2FD3CE0FA4899
:105250000088B62819D1F8484088512815D1F64859
:105260008088762811D1F548006803280DD10020E8
:10527000F3490870F1490860F2490870F249086082
:10528000EC490870F14908701EE0EB480088B62828
:1052900011D1E948408851280DD1E7488088782805
:1052A00009D1E6480068032805D10020E4490870C8
:1052B000E249086008E0E1480068032804D90020BA
:1052C000DE490860DE49087000BD0021DD4A11702A
:1052D000DF49496A01221143DD4A51620321DD4A57
:1052E0001170A621DC4A11805821DC4A117001217D
:1052F0005170002007E0D9490A5C411C4900D64B97
:105300005A52411CC8B20228F5DB00BFD449C96813
:10531000102211401029F9D0D1490968C022114347
:10532000CF4A116000BFCE490968C0221140C02990
:10533000F9D0C9490988CA4AD1610121C94A116015
:105340000021BE4A1160C84A1170C821C74A1170B5
:105350001421C74A11807047BD49496A012211438F
:10536000BB4A51620321BB4A1170A621BA4A11807F
:10537000C0490978012905D15121B84A117081210C
:10538000517026E0BB490978022905D15121B34A61
:105390001170822151701CE0B6490978042905D1A9
:1053A0005121AE4A11708321517012E0B149097840
:1053B000082905D15121A94A11708421517008E0B2
:1053C000AC490978102904D15121A44A11708521D2
:1053D0005170002007E0A1490A5C411C49009E4B26
:1053E0005A52411CC8B20228F5DB00BF9C49C9686B
:1053F000102211401029F9D099490968C02211439F
:10540000974A116000BF96490968C0221140C0291F
:10541000F9D091490988924AD1610121914A1160DC
:105420000021864A1160904A1170C8218F4A11707C
:1054300070470021904A11708549496A0122114341
:10544000834A51620921834A1170A121824A118045
:10545000002007E089490A5C411C49007E4B5A52F2
:10546000411CC8B20828F5DB00BF7D49C96810227D
:1054700011401029F9D07A490968C0221143784AAD
:10548000116000BF76490968C0221140C029F9D0D7
:1054900071490988724AD1610121724A1160002163
:1054A000664A1160704A1170C821704A11707047C5
:1054B0006749496A01221143654A51620321654ADD
:1054C0001170A621644A11805121644A1170702123
:1054D0005170002007E061490A5C411C49005E4BA5
:1054E0005A52411CC8B20228F5DB00BF5C49C968AA
:1054F000102211401029F9D059490968C0221143DE
:10550000574A116000BF56490968C0221140C0299E
:10551000F9D051490988524AD1610121514A11609B
:105520000021464A1160504A1170C8214F4A11703B
:1055300014214F4A11800021424A117070474B4894
:105540000078002822D049480078401E474908705A
:1055500008460078002819D143480078002815D162
:105560000120414908703A48806A012108433849BE
:1055700088623B4800690821884339490861084628
:10558000006904218843001D35490861704710B542
:105590002F4909680222114000291CD0304949696D
:1055A00004221140002944D02D49C9698AB22349F7
:1055B0000B680968491C214C216059001E4B5A5246
:1055C00001211F4A11702649896904229143091D4E
:1055D000234A91612DE022494969042211400029A2
:1055E00027D0204909681B4A127891420CD31849E8
:1055F000896A01221143164A916201211A4A1170E7
:105600000021184A11600AE016490A680968491C15
:10561000144B19605100104A515A114AD161104976
:10562000C969C8B20E49896904229143091D0C4A0F
:10563000916110BD560100209E030020CC01002086
:10564000D0010020E5010020D8010020D501002074
:1056500000400440C70100205E030020C501002077
:1056600000C00140C8010020D3010020D401002067
:10567000E6010020580100205E01002063010020A7
:1056800000B5F74909780B0001F00AFA120A131D58
:1056900028333E49525C66717C868F99A4AFBAC5A7
:1056A000F049496A02229143891CEE4A5162EE4850
:1056B000B2E0EC49496A202291432031E94A516223
:1056C000E9482A30A8E0E749496AFF2201329143BC
:1056D0008918E44A5162E44854309DE0E149496A3E
:1056E0000122D20291438918DE4A5162DE487E309F
:1056F00092E0DC49496A0122920391438918D94A10
:105700005162D948A83087E0D849496A0122D203BA
:1057100091438918D54A5162D348D2307CE0D149AF
:10572000496A49084900491CCE4A5162D04873E091
:10573000CC49496A102291431031CA4A5162CC487F
:105740002A3069E0C749496A802291438031C54ABD
:105750005162C74854305FE0C249496A012292024F
:1057600091438918BF4A5162C1487E3054E0BD4917
:10577000496A0122520391438918BA4A5162BC48CE
:10578000A83049E0BB49496A082291430831B94A27
:105790005162B748D2303FE0B249496A082291438A
:1057A0000831B04A5162B44836E0AE49496A4022F5
:1057B00091434031AB4A5162AF482A302CE0A949AD
:1057C000496A0122520291438918A64A5162AA48A5
:1057D000543021E0A349496A0122120391438918F8
:1057E000A04A5162A4487E3016E0A049496A0122CD
:1057F0005203914389189D4A51629F48A8300BE09B
:105800009A49496A0122920391438918974A516241
:105810009948D23000E000BD00BF0188974A11606E
:105820004188516081889160C188D160018911618E
:105830004189516181899161C189D161018A116276
:10584000418A5162818A9162C18AD162018B11635E
:10585000418B5163818B9163C18BD163018C874AEA
:10586000403A1162418C5162818C9162C18CD1624B
:10587000018D116300BFCEE700B5794909780B00AF
:1058800001F00EF9120A0C0F1215181B1D20232609
:10589000292C2E3134373A3D734831E072482A3092
:1058A0002EE0714854302BE06F487E3028E06E487F
:1058B000A83025E06C48D23022E06D4820E06C48EA
:1058C0002A301DE06A4854301AE069487E3017E0FB
:1058D0006748A83014E06648D23011E066480FE00F
:1058E00065482A300CE06448543009E062487E3054
:1058F00006E06148A83003E05F48D23000E000BF16
:1059000000BF01885D4A11604188516081889160C3
:10591000C188D16001891161418951618189916199
:10592000C189D161018A1162418A5162818A916281
:10593000C18AD162018B1163418B5163818B916369
:10594000C18BD163018C4D4A403A116200BD00B554
:10595000434909780B0001F0A3F8120A1D3044589E
:105960006C80A4B7CADEFAF8F7F6F5F4F3F200207B
:105970000DE041003C4A515A002906D03949496A94
:1059800002229143891C374A5162411CC8B2152832
:10599000EFDB66E115200DE04100334A515A002942
:1059A00006D03049496A2022914320312D4A516264
:1059B000411CC8B22A28EFDB53E12A200EE0410047
:1059C000294A515A002907D02649496AFF22013243
:1059D00091438918234A5162411CC8B23F28EEDB2B
:1059E0003FE13F200EE041001F4A515A002907D0F5
:1059F0001C49496A0122D20291438918194A51620D
:105A0000411CC8B25428EEDB2BE154200EE04100CB
:105A1000154A515A002907D01249496A01229203B6
:105A2000914389180F4A5162411CC8B26928EEDBC4
:105A300017E169200EE041000B4A515A002907D0B6
:105A40000A49496A0122D20391438918074A5162DF
:105A5000411CC8B27E28EEDB03E100201EE00000FE
:105A600068020020008004406C09002000600440AF
:105A7000680A002000A00440640B00204020004081
:105A80004100FC4A515A002906D0FB49496A49089D
:105A90004900491CF84A5162411CC8B21528EFDB85
:105AA000DFE015200DE04100F24A515A002906D0EE
:105AB000F149496A102291431031EF4A5162411C69
:105AC000C8B22A28EFDBCCE02A200DE04100E94AE9
:105AD000515A002906D0E849496A80229143803111
