:020000040000FA
:10000000C8060020D9000000E1000000F105000052
:1000100000000000000000000000000000000000E0
:10002000000000000000000000000000E5000000EB
:100030000000000000000000E7000000614D00002B
:10004000EB000000F10700000000000000000000CD
:1000500000000000000000000000000000000000A0
:100060000000000000000000000000000000000090
:1000700000000000C733000000000000EB0000009B
:10008000EB0000001D4D000000000000000000001B
:100090000000000000000000000000000000000060
:1000A00000000000794D0000EB000000000000009F
:1000B000EB00000033070000EB000000EB00000045
:1000C0000348854604F0C0FF004800477304000061
:1000D000C806002070472200044800470448004733
:1000E000FEE7FEE7FEE7FEE7FEE7FEE70178000039
:1000F000C1000000004800470900FF1FF8B502F0EA
:100100006FFEF848017800297ED000240470F64A7A
:10011000F6491068002806D0401E1060002802D161
:100120000C70F3480470F34A1078002808D0401E81
:10013000C0B21070002803D1EF480460EF4804708B
:10014000EF4A01261088002813D0401E80B210808C
:1001500000280ED1EB485123037089234370EA48ED
:100160000670EA4B1878002803D0401E1870022051
:100170001080E74D2868002856D0E648007800280F
:1001800000D02E60E44A09781278114301D000288B
:1001900002D02868401E28602868002844D104F056
:1001A000B9FD04F0B1FDDD48046104F0A0FC02F0EB
:1001B00094FC02F0C8FCDA480168DA4A49084900B0
:1001C00011430160642004F026FD00F0C8FAD6480F
:1001D0000461C660C168C906FCD5D44E30690927E0
:1001E000FF06B8433061CF48D149801C086003F056
:1001F000DCF93461CF480221016030BF0460C5489A
:1002000000780028FDD100E00EE000F0E0FA30694F
:100210003843306104F09CFD04F0D1FD02F0B3FBE3
:1002200004F04AFDC4482860F8BD70B5AD48C34924
:1002300002780024002A05D004700888002801D024
:10024000401E0880BE480069800718D5088800282D
:1002500015D1C82004F0DFFC04F05CFD04F054FD6F
:10026000AF480168AF4A490849001143016000F0F6
:1002700043FB04F0A4FD04F06BFD04F01DFDB14D43
:100280002878012806D10822AF4900F0BFF90028DC
:1002900000D12C70AD4D2878012807D11022AC492F
:1002A000022000F0B3F9002800D12C70A94D287865
:1002B00001280CD0A84D2878012807D10222A7498F
:1002C000104600F0A3F9002800D12C7070BD032265
:1002D000A349022000F09AF90028F7D12C7070BDD4
:1002E000F8B5A0488178002975D00025857004F004
:1002F00037FB9D499D4E0888002818D0401E80B2CB
:100300000880002813D13078002802D0012803D0BB
:100310000DE002F0E0FE0AE002F0DEFE9448007814
:10032000002802D002F017FF01E002F06AFF9149B5
:100330000878401CC0B20870322821D30D7069487B
:10034000012404708C490878002819D0401EC0B2DE
:100350000870002814D1894F3878C0438207884834
:100360000FD10278002A0CD004F099FA8548047065
:100370003D703078012879D102F0D6FF82480570AF
:1003800074E0824A1378DB439B070FD10378002B7C
:100390000CD0157004F01FFB7D480178012903D0B3
:1003A000047004F0AEFA61E00570FAE7794A137858
:1003B000DB439B0716D10378002B13D0157004F094
:1003C0000AFB55480178002906D0057004F099FA17
:1003D00002F079FF4AE04BE0047004F092FA02F078
:1003E00041FF43E06C4A1378DB439B070DD1037850
:1003F000002B0AD0157004F0EEFA68480178002945
:1004000001D0057032E0047030E0654A1378DB43B8
:100410009B0711D1007800280ED0157004F0DBFA8C
:1004200060480178012903D0047004F06AFA1DE0E5
:10043000057004F066FA19E05B480078972803D04D
:10044000982801D0992811D1307801280ED12F4A4F
:10045000107800280AD0401E107003200870294828
:1004600051210170892141702748047001F060F822
:10047000F8BD04F0B7FD00F01FF92B4C206A0121F4
:100480000843206204F018FC04F099FC04F060FCBE
:1004900004F0D8FB03F001F801F03CF804F014FD7F
:1004A0004248A061314C2078012801D100F038F990
:1004B0003F4D1B4E3F4F0EE002F058FA03F0A5FFF0
:1004C0002078002802D0012805D102E0FFF7ADFE18
:1004D00001E0FFF713FEF560FFF702FF3878002810
:1004E000ECD0E9E7960000208C000020700000208E
:1004F00074000020750000208400002068000020A7
:10050000920000207A0000206D0000206B00002087
:1005100088000020770000206400002000E000E058
:10052000000001400000FA5A0000064000C00540EB
:100530000020064040200340701700007800002093
:10054000140100203C0000205C0000203F0000203F
:10055000910100203D0000203E00002047000020C7
:10056000490000200000002090000020940000209E
:1005700033000020950000203400002035000020CA
:100580002C000020760000206C00002039000020A4
:1005900038000020370000203A00002065000020CD
:1005A000360000203B0000202A00002002C000008E
:1005B000AA55FA5A9800002070B5114C6078401C7A
:1005C000C0B26070042812D30025657004F04BF9A6
:1005D00004F0BAF902F0DCFE2078401CC0B22070B2
:1005E000042804D325700120A07004F0EDF970BD3B
:1005F000BFF34F8F04490348C860BFF34F8FFEE736
:10060000000000200400FA0500ED00E0F8B5064601
:100610000D4617462448B10008180268002A01DB7D
:100620000220F8BD002E03D0042E01D8402F01D99E
:100630000420F8BD0068400F042801D00120F8BD57
:100640001A48805D002804D0304600F0AFF803203F
:10065000F8BD174808180068B84201D20520F8BD57
:10066000701E1449800008580090002414E0295D91
:10067000641C285D00020843641C295D09040143D1
:10068000641C285D00060843641C0146009800F0C5
:10069000D7F90098001D0090BC42E8D3F9B230466B
:1006A00000F092F90020F8BD18C0054004000020B9
:1006B00000010020F0000020F8B500F076FD00F009
:1006C000EAFEF7480168102211430160F54C402111
:1006D000A1608023E360C0252561E0266661F248C1
:1006E000016043608560C660F04801600821416098
:1006F0008260C1600161EB4DED48403D28600226FB
:100700006E611F27FF06322004F057FA2F61E94877
:10071000E06240076062E8480660E8480660F8BDAD
:10072000E049002040390861E44902208031086036
:10073000704730B50124E04960070860FF22E049B6
:10074000F9320A62DF4A1369C5122B431361002292
:100750008A61DA4980310860DB48047030BDD848CE
:100760000021C1604161491E0162FF21F9318161AF
:10077000D14980030860D149086070470120C94908
:10078000C0024039886070470120C6498002403964
:10079000886070470120C349400240398860704733
:1007A000FF20C049013040398860704704280DD8C7
:1007B000BC4A8100283A8918002804D1B948403839
:1007C0004068C00102D4072040070860704710B598
:1007D000BE480168012211430160BD48006800075E
:1007E000000F052801D004F0FDFB00F0C5F910BD95
:1007F00070B5AC4D403D6C680020C043A860002C33
:100800000DD0A0000ED5FFF7E2FF00F0ACF9E0013B
:1008100008D5022004F0B8F900F001FC70BDFFF724
:10082000D6FF70BD2868A00F0BD0002C04DAFFF7AC
:10083000CEFF00F07DF970BD6000FCD500F08DF9B1
:1008400070BD2002C00E18D0200202D500F0E7FBD8
:1008500070BD600202D500F026FC70BDA00202D57A
:1008600000F062FC70BDE002800FFBD00320C004EA
:10087000A8600020FFF79AFF70BD2005000FFBD095
:10088000E00501D5FFF78CFFA00501D5FFF782FF3A
:10089000600501D5FFF778FF2005EDD5FFF76EFF66
:1008A00070BD00208B49401C8842FCD370471E203D
:1008B000401E411CFCD1704700B57A4A0620403AE0
:1008C0005061FFF7F4FF05205061FFF7EAFF506920
:1008D00004218843506100BD7C480121C160002192
:1008E00001617B4A7C491160C168C906FCD5016879
:1008F0007A4A114001607047F8B5724C20690227AE
:10090000B8432061674D403D6868400022D502F041
:100910004CFE04F0ECF802F0E0F802F014F9704834
:10092000002606615E4A10688021884310602869AD
:100930000921C9068843286163480670FFF70FFF45
:100940000A2004F034F9FFF7C7FF6868400002D4BA
:10095000FFF73DFFF8BD6348076030BFFFF737FF83
:10096000594801780029F5D0067021695E4888430E
:1009700007D120690121890488432061A0680128EA
:1009800005D05A4914200880FFF796FFF8BDFFF7FD
:1009900093FFF8BD43494039CA6B012383409A4312
:1009A000CA637047042805D83E498000283940189A
:1009B000002101607047042805D83A498000283991
:1009C0004018090701607047042807D8354A80009D
:1009D000283A80180522520789180160704731496A
:1009E000403148600220C860C8688007FCD488682D
:1009F0003F490860704700B50A46402A0ED2401EA3
:100A000029498000085891084018FFF7E8FF90072F
:100A1000C10E37480068C840C0B200BD002000BD0C
:100A200000B510290AD2401E1F4A800010588900C4
:100A30004018FFF7D4FF2E48006800BD002000BD1D
:100A4000184A4032506091600120D060D068C007E1
:100A5000FCD1704730B50B46402B15D2401E1249D1
:100A600080000858990845182846FFF7B8FF204825
:100A700004689807C30EFF209840844311469940AC
:100A800021432846FFF7DCFF30BD102932D2401E3B
:100A9000054B80001858890040181146D0E7000027
:100AA00000E0054040C00540F000002000010020AB
:100AB000100000B00440000080E200E000E100E02F
:100AC00000800440140100200300002000000640C4
:100AD00000200640145000000000FA5AFEFFFF0FED
:100AE00000E000E040200340800004007800002087
:100AF0001C00002070470C4A90630B4802214030D4
:100B0000016001688907FCD4D06B08490860704710
:100B1000054A9063D16304480121403001600168B7
:100B2000C907FCD17047000040C0054018000020F4
:100B300010B50020FE4AC0439060FE4901200861C4
:100B400000208860D060FFF731FE01242046FFF7C7
:100B500029FF641C042CF9D910BDF6480169022252
:100B6000114301617047F348016904221143016197
:100B7000EF49D00688607047ED4801690922D20626
:100B80001143016101214906816070470120E84954
:100B900080068860704710B5E64CA06801280CD12B
:100BA000E54A002000211154401C0428FBD920797B
:100BB000012802D8A278002A03D00020FFF7F6FD12
:100BC00010BDDE4A1154FFF7E5FE2069012109043A
:100BD0000843206100210846FFF7F6FE10BD10B55E
:100BE000D44CA068012814D12078812811D1207913
:100BF00001280ED8D149095C0020FFF789FF206940
:100C00000121C9030843206101210020FFF7DCFE18
:100C100010BD0020FFF7CAFD10BDF8B5C64DC54E8A
:100C20003069800607D5B0781021012400270028FC
:100C300005D0012819D00020FFF7B8FDF8BDB76036
:100C40003069084330610127EC553846FFF7AAFEAA
:100C50007F1C042FF8D93069012109040843306151
:100C600000210846FFF7B0FEF8BDB4603069884344
:100C7000306100242F55002C0CD02046FFF79BFE3E
:100C8000AB480069611EC840C00703D00021204660
:100C9000FFF79AFE641C022CECD93069012109048B
:100CA0000843306100210846FFF78EFEF8BD70B59D
:100CB000A04DA9680020FFF72BFFA868012806D1E6
:100CC00001242046FFF777FE641C022CF9D99C48CA
:100CD000002101602869032189030843286101215B
:100CE0000020FFF771FE70BD10B50020FFF75EFD1C
:100CF00010BD10B50446180612041043090208433B
:100D0000204310BDF8B58F4F3C688A488C4EC08890
:100D10003168884200D23060306800281DD000253C
:100D2000E378A27861782078FFF7E3FF0146A80016
:100D3000FFF7EEFE241D6D1CEDB2102DF0D33068D0
:100D400040280FD340210020FFF73EFE3868403096
:100D50003860306840383060F8BD00210846FFF741
:100D600033FEF8BD3068C1B20020FFF72DFE002031
:100D70003060F8BDF8B5002400206E49724BCA7887
:100D80000D798F780C26014671435E5CB24211D119
:100D9000C9184E78B5420DD18E78B7420AD10C22CF
:100DA0005043C018828866480260664889680160BE
:100DB000012402E0401C1028E4D3002C08D05D4937
:100DC00008690122D20310430861FFF79BFFF8BDB9
:100DD0000020FFF7EBFCF8BD10B556480169202351
:100DE0009943016101694022114301618178002921
:100DF00002D002691A4302610173016901221204DF
:100E00001143016100210846FFF7DEFD10BD70B5FA
:100E1000484D28784406640E000602D50020FFF7EE
:100E2000C5FC002C05D0022C0FD00020FFF7BEFC23
:100E300070BDA8780128FBD128694449084328617E
:100E400000210846FFF7C0FD70BDA8780028FBD13F
:100E500028794006400E411E0129F5D8A9680129CC
:100E6000F2D1354A1154FFF7A1FC28690121090488
:100E70000843286100210846FFF7A6FD70BD70B544
:100E80002C4D28784406640E000602D50020FFF79A
:100E90008DFC002C1AD0022C17D1A878002814D170
:100EA00028794006400E0022234BE10300281ED083
:100EB00002280AD8AC68012C07D11A5428690843C3
:100EC000286100210846FFF77FFD70BDA878012842
:100ED000FBD1286980218843286128691B49803912
:100EE0000843286100210846FFF76EFD70BD2869A0
:100EF0008006FBD51A70286908432861002108463E
:100F0000FFF762FD70BD70B50A4D28784406640E87
:100F1000C00901D1FFF74AFC0126F603002C26D0B8
:100F2000012C38D0022C21D128794006400E0FE048
:100F300000C005401401002004000020140000201F
:100F4000100000200C0000206C5200008001010005
:100F500002280BD8A349095C0020FFF7D9FD2869B6
:100F60003043286102210020FFF72EFD70BD286963
:100F7000000604D502210020FFF7CAFD03E000218E
:100F80000846FFF7C5FD286930432861022100208B
:100F9000FFF71AFD70BDA8680128FBD16879002809
:100FA000F8D128790128F5D800210846FFF7B0FDCF
:100FB00028693043286102210020FFF705FD70BD3C
:100FC00010B589484078030004F050F80C070A2552
:100FD0000D25101316191C1F2225FFF794FF10BDB5
:100FE000FFF74DFF10BDFFF712FF10BDFFF7F4FE36
:100FF00010BDFFF7BFFE10BDFFF776FE10BDFFF777
:1010000056FE10BDFFF709FE10BDFFF7E8FD10BD4D
:10101000FFF7C1FD10BD0020FFF7C8FB10BD7CB578
:101020003320724CC004A0600020FFF7C4FC60684D
:10103000400331D46C4C20690321C90388432061EB
:101040000020FFF758FD6A4D286801900420FFF743
:1010500052FD286800900198C0B220700199090AD9
:1010600061700199090CA1700199090EE170009954
:1010700021710099090A61710099090CE1806021D0
:101080000840002802D0202803D008E0FFF798FF8E
:101090007CBD00F0CEF97CBD01208004A060002062
:1010A000FFF784FB7CBD70B50120504E8005B06019
:1010B000504DA87C022815D10020A87468694E49BB
:1010C00088420DD1A8694D49884209D10024A00069
:1010D0000021FFF71DFD641C402CF8D3FFF70AF830
:1010E0000420A874404C2069454D40060CD5206969
:1010F000402188432061207BF0600020FFF756FBF1
:101100002069A843206170BDE088002808D02069CC
:10111000C00305D4FFF7F6FD2069A843206170BD28
:101120000020FFF743FB70BDF8B501212F484905AA
:101130008160304DA87C2E4E012819D0686D800545
:101140000DD5686D0913884368650020FFF7D3FC4F
:1011500030682870686D0121490308436865224C96
:101160002069000412D400210846FFF72DFC16E088
:101170000024A0000746FFF7BEFC306879194861DB
:10118000641C102CF5D30220A874E8E717484168C6
:10119000C90104D481690122D20611438161206909
:1011A0000121C90388432061F8BD00200D4A0021B8
:1011B0001154401C0528FBD30020124A1154401C36
:1011C0000428FBD30848017041708170C17001711F
:1011D0004171C18081600173016901225204114390
:1011E00001617047040000201401002000C0054088
:1011F0001800002028010020AA42895AFF7162CC01
:10120000000001001400002010B5A74A1078212822
:101210001BD1A649486D01231B031843486510796B
:10122000012812D89078002804D14B6D0324A40221
:10123000A3434B65487410690121090408431061F8
:1012400000210846FFF7C0FB10BD0020FFF7AEFAF3
:1012500010BD10B594480178212914D101690122EB
:1012600012041143016191494A6D0123DB021A43C3
:101270004A650279012A06D8C07808740021084618
:10128000FFF7A2FB10BD0020FFF790FA10BD10B5CC
:1012900086490120887400210846FFF795FB10BDA0
:1012A00010B58148016901221204114301617F4890
:1012B000416DD2111143416500210846FFF784FBBF
:1012C00010BD10B578480178212907D1017900298E
:1012D00004D1C078022805D0032806D00020FFF7EB
:1012E00065FA10BDFFF7DCFF10BDFFF7D0FF10BDA2
:1012F00010B56D4C2078A12816D16C48416DC904F9
:1013000001D401214174217901290DD8417C0020AB
:10131000FFF7FEFB20690121C90308432061012179
:101320000020FFF751FB10BD0020FFF73FFA10BD72
:1013300010B55D4C2078A12808D15C48416D012290
:10134000D202114341652179002903D00020FFF723
:101350002DFA10BD017C0020FFF7DAFB2069012186
:10136000C9030843206101210020FFF72DFB10BDB8
:1013700010B54F49002008604B4801690122D20393
:101380001143016105210020FFF71EFB10BD10B5C0
:1013900000210846FFF718FB10BD10B5434801783F
:1013A0000020FFF7B5FB404801690122D203114339
:1013B000016101210020FFF707FB10BD10B53C497A
:1013C00000200860384801690122D20311430161FD
:1013D00008210020FFF7F8FA10BD10B53248017857
:1013E000A1291FD1816801291CD10179C078002968
:1013F00002D0012910D015E0012804D0022805D020
:10140000032806D00EE0FFF7D9FF10BDFFF7C5FF98
:1014100010BDFFF7BCFF10BD2449497C012901D153
:10142000012803D00020FFF7C1F910BDFFF7A0FF8E
:1014300010BD10B51C484078030003F017FE0C19CE
:10144000070A0D191919191910131619FFF7C5FFF5
:1014500010BDFFF76DFF10BDFFF74AFF10BDFFF78E
:1014600030FF10BDFFF7F5FE10BDFFF7CDFE10BD3C
:101470000020FFF79BF910BD10B50D490020086052
:10148000094801690122D2031143016105210020AD
:10149000FFF79AFA10BD05487D21017401214174BE
:1014A000002181744165704714010020280100204B
:1014B00010000020F8B51420F74EF84D0127401E0B
:1014C000C0B200243168490600D5012431680906FC
:1014D00001D502210C432979A14204D0022003F056
:1014E0009AFB2C7114200028E9D12879EC49C30714
:1014F0000022002B01D00F7000E00A70E74920396C
:10150000CF74830700D5CA74CB7C002B00D0CA737C
:101510006871F8BDE14900201C314870032013397F
:1015200008700220891E0870DE4901200870C1E79A
:10153000F8B50020D8490A68520600D5012009688C
:10154000090601D502210843D44C2179814203D0F8
:101550000A21A1712071F8BDA0790028FBD0401E9E
:10156000C0B2A0710028F6D160790D464540002D2B
:10157000F1D06171E8070026C94F002813D0C807D1
:101580000AD00120387003F0BCF901F0A5FDFFF787
:10159000C7F8C548067006E03E7003F0B2F901F0E6
:1015A0009AFDFFF789F8A807D5D5BC480121203856
:1015B000C1742179890700D5C67439780129CAD147
:1015C000C07C002802D001F0C6FDF8BD01F019FE74
:1015D000F8BD30B5B348B14B1138203BDA79815CA6
:1015E0009878414019710024002915D059790222B8
:1015F00000290BD0DD7885420BD1491EC8B2587145
:10160000002802D1DC700120587030BD5A71D870AA
:1016100030BD5A71D87030BD5C71521CD0B2D871D7
:101620001128F8D3DC7130BD10B59C489D498378F2
:1016300000221031002B10D0827002780A7040789E
:10164000002816D001281CD0022822D0032803D15C
:101650004022964801F07BFB10BD0270012383708D
:101660009348028000200A54401CC0B23C28FAD3A0
:1016700010BD8C49192040221031800201F067FB17
:1016800010BD8849894840221031803801F05FFB45
:1016900010BD8449C92040221031C00101F057FB20
:1016A00010BDF8B57D4A002417469378203F397B5A
:1016B000787B9C46002B1DD000291BD1BD7AAF2D15
:1016C0000DD03A2D0BD03B2D09D03C2D07D03D2D10
:1016D00005D013783C2B03D3BC7203F07CF9F8BD22
:1016E0005B1CDBB26F4E1036F5545B1CDBB2137023
:1016F000F054BC7263460125002B03D0002901D0B1
:1017000001284FD00128EAD1B87A4D2867D09C280B
:1017100074D0684BE728197878D0F2286BD0664BE4
:10172000D3281E7868D0E82867D0E92872D0EA2844
:1017300071D06249EB2809788C46614909786BD0F1
:10174000EC286AD0ED2869D0EE2868D05D4ED0280C
:10175000377873D0514E203ED82870D0D9286FD01A
:10176000F1286ED0584ED72836786BD0D6286AD05C
:10177000564ED428367867D0D5287DD093287CD093
:1017800094287BD095287AD0962879D0DC2878D0F8
:10179000DD2877D0DE2876D0DF28A0D1484804297C
:1017A00072D17EE2B87A932806D0942808D0952882
:1017B0000AD096280DD010E05470FFF735FF0CE0EA
:1017C0005570FFF731FF08E002205070FFF72CFF43
:1017D00003E003205070FFF727FFBC72F8BD01291A
:1017E000FCD1BC72B87C002801D0BC74F8BDBD74BB
:1017F000F8BD03E00AE015E027E071E03448017825
:10180000002901D00470F3E70570F1E7002907D043
:101810001C70EDE776E089E09CE00EE121E134E127
:101820001D70E5E7BC722B490878401CC0B20870F7
:10183000092800D30C7002F0ADFED9E739E1A3E12D
:10184000A6E1A9E1ACE1BFE1D2E1BC720029CFD1B0
:10185000761CF0B21870112800D31C7031204002A1
:10186000C2781A490A7001791748017001F0F6FD33
:1018700019480570194808E0C6E1D1E1D4E1D7E183
:10188000DBE1DFE1EDE1FCE10DE2047002F009FDD6
:1018900003F037F8ACE7000000A00440400000204F
:1018A00094000020910100206C000020C064000022
:1018B000BE000020B10000209D000020AF000020ED
:1018C000AE00002098000020AB000020A9000020FE
:1018D000B000002099000020AD000020B2000020E0
:1018E000BC72002E09D0012E09D01C70FE48047075
:1018F00002F0D7FC03F005F87AE71D70F6E719202F
:101900001870F3E7BC72022E0AD0042E0BD002200E
:101910001870F548047002F0C4FC02F0F2FF67E7AB
:1019200004201870F5E703201870F2E7BC720D2E42
:101930000AD00B2E0BD00D201870EB48047002F06B
:10194000B0FC02F0DEFF53E70B201870F5E70C2027
:101950001870F2E7BC72112E02D01120187067E0E7
:10196000E2486246002A15D0047001291DD00229E0
:1019700021D0032926D004292BD0052930D00629CF
:1019800035D007293AD008293FD0092944D0002969
:1019900048D04DE00570D64804800020D5490C544D
:1019A000401CC0B21328FAD322E71822D149D248EA
:1019B00001F0CDF93CE0D0481822CE49203001F0AA
:1019C000C6F935E0C5201822CA49C00101F0BFF9A7
:1019D0002EE0C9481822C749603001F0B8F927E065
:1019E000C5481822C349803001F0B1F920E0C2484F
:1019F0001822C049A03001F0AAF919E0632018228A
:101A0000BC49000201F0A3F912E0BB481822B94911
:101A1000E03001F09CF90BE01822B649B74801F01C
:101A200096F905E0B5481822B249203001F08FF947
:101A300002F037FC02F065FFDAE6BC72082E0AD02D
:101A4000092E0BD008201870A748047002F029FC5A
:101A500002F057FFCCE609201870F5E70A2018704D
:101A6000F2E7BC720E2E0AD00F2E0BD00E2018708B
:101A70009D48047002F015FC02F043FFB8E60F2009
:101A80001870F5E710201870F2E7BC72052E0AD026
:101A9000072E0BD0052018709348047002F001FC4B
:101AA00002F02FFFA4E607201870F5E70620187053
:101AB000F2E793488472132FBED18C486246002A05
:101AC0001BD00470012922D0022926D003292BD053
:101AD000042930D0052935D006293AD007293FD02E
:101AE000082944D0092949D00029A5D183481822C2
:101AF0008049203001F02BF97AE602F075FF0020D2
:101B00007C490C54401CC0B21328FAD370E618224A
:101B10007849794801F01BF96AE677481822754937
:101B2000203001F014F963E6C52018227149C00184
:101B300001F00DF95CE6704818226E49603001F042
:101B400006F955E66C4818226A49803001F0FFF822
:101B50004EE66A4818226749603801F0F8F847E60F
:101B6000632018226349000201F0F1F840E663485F
:101B700018226049203801F0EAF839E618225D4958
:101B80005E4801F0E4F833E6B472574805702FE67A
:101B9000B472554804702BE6B472B573147027E61E
:101BA00057488472574C012E0BD9761E2670564822
:101BB000057002F0A6FE207801289DD102F00BFFEF
:101BC00016E602F008FF13E64D4884724D4C052ED0
:101BD0000BD2761C26704C48057002F092FE2078DD
:101BE000052889D102F0F7FE02E602F0F4FEFFE5D7
:101BF000434884724548052E88D2761C067001F051
:101C00002DFC02F07EFEF3E53D4884723F48012E34
:101C100089D9761E067001F021FC02F072FEE7E51C
:101C20005470FFF701FDE3E55570FFF7FDFCDFE5BC
:101C300002205070FFF7F8FCDAE503205070FFF740
:101C4000F3FCD5E53248012901D1132F87D0057067
:101C5000304804701120187002F023FB02F051FE8E
:101C6000C6E52B48022901D1132F86D0022101702D
:101C7000284804701120187002F013FB02F041FE96
:101C8000B6E52348032901D1132F84D00321017025
:101C9000204804701120187002F003FB02F031FE9E
:101CA000A6E5132F8CD0042101701A48047011206E
:101CB000187002F0F6FA02F024FE99E5F8B5104922
:101CC00000248B7A08461E25407BD22B28D0124A4E
:101CD0000126124F097D1278972B28D0982B42D0DD
:101CE000992B5DD0012083E5B2000020AF000020D9
:101CF000BE000020D40200204062000040630000CB
:101D000020000020AB000020AD000020A900002032
:101D1000AE00002098000020940000207A000020EF
:101D2000002801D00D7500E00C75002060E5012A47
:101D300017D1002811D0FA48067002F0E2FDF948E8
:101D40000575F9490320087051203870812078709A
:101D5000F6480670F648047003E0F248002900D007
:101D60000475002044E5012A18D1002812D0EC485F
:101D70000221017002F0C5FDEA480575EA48032119
:101D800001705120387082207870E8480670E84869
:101D9000047003E0E348002900D00475002027E523
:101DA000012A18D1002812D0DD480421017002F068
:101DB000A8FDDC480575DC49032008705120387007
:101DC00083207870D9480670D948047003E0D5485C
:101DD000002900D0047500200AE510B50020D14983
:101DE000D44B897AD44A05E044001C5D8C4205D06E
:101DF000401CC0B21488A042F6D3FF2010BDF0B53D
:101E0000C84CCE4D607BCE4ECE4F002852D0FFF74F
:101E1000E4FFFF2817D0E17C002915D0217B0029A1
:101E20003CD0217E002934D0C7494200511849785E
:101E3000A172BC4AC10834324407C448640F535CE1
:101E4000005D03435354F0BD217B002916D0E17E91
:101E500000290ED0410089194978A172B14AC10800
:101E600034324407B948640F535C005D0343535454
:101E7000F0BD410049194978A172EFE7E17E0029E0
:101E800003D04000305CA072F0BD4000285CA0721E
:101E9000F0BD4100C9194978A172CAE7217E002925
:101EA00004D04100A848405CA072F0BD4000385CFE
:101EB000A072F0BDFFF791FFFF28FAD0994AC10840
:101EC0008C463432515C4307A04A5B0FD25C11420E
:101ED00022D0E37C002B0DD0237E002B17D04300B3
:101EE000994818184078A0728E4834309143624661
:101EF0008154F0BDE37E002B04D04000801940786F
:101F0000A072F1E7400040194078A072ECE7400071
:101F1000C0194078A072E7E7E17C002907D0217E54
:101F200000290FD041008848405CA072F0BDE17EDE
:101F3000002903D04000305CA072F0BD4000285C56
:101F4000A072F0BD4000385CA072F0BDF8B58048CA
:101F500000260680764801787E48002902D07E4916
:101F6000016002E0FF21913101606E4FB87A0028D4
:101F700065D0F97C3D463C35002925D0A32808D002
:101F8000A22809D0A7280AD0A6280BD046280CD012
:101F90001AE0A220B87217E0A320B87214E0A620BD
:101FA000B87211E0A720B8720EE02120B8725D4827
:101FB000797B3C300078002903D00A21084328703F
:101FC00002E0F52108402870FFF719FFB87A0124D4
:101FD0003A46AE282CD01E21E52833D0AC2845D077
:101FE000E32858D0AB286AD05C4FE22876D0AD28E1
:101FF00075D0E42874D0E62873D0E02872D0E128A8
:1020000071D0FFF75BFE002819D046480675FFF730
:1020100048FB4448837A002B11D09A2B7BD0D12BDC
:102020007AD0F7220821862B77D0872B76D041E112
:10203000507B012803D1507C012801D0547429E43D
:10204000567427E4507B00280AD0107B0028F6D075
:10205000507D20435075C0438007F0D1117519E4BD
:10206000507D400840005075167513E4507B0028E1
:102070000BD0107B0028E2D0507D0223184350750E
:10208000C0438007DBD1117504E4507D80088000D7
:102090005075167530E4507B00280AD0107B00285C
:1020A000F8D0907D20439075C0438007F2D1117520
:1020B00022E4907D40084000907516751CE4507B2A
:1020C000002811D0107B0028E4D0907D0223184313
:1020D0009075C0438007DDD111750DE40AE045E03D
:1020E0005CE06FE083E096E0907D80088000907572
:1020F000167514E4507B002832D0107B0028F8D0ED
:10210000D07D2043D075C0438007F2D138780128B4
:10211000EFD1117503E494E0AEE0B7E0C3E0000056
:1021200076000020200000206B0000206D000020C1
:102130006C00002050540000D6000000C85300007E
:102140000C54000094540000D85400006C5500005A
:1021500092000020880000207017000094000020EA
:10216000D07D40084000D07516751DE4507B0028D6
:102170000ED0107B0028F8D0D07D02231843D075F4
:10218000C0438007F1D138780128EED111750BE4F6
:10219000D07D80088000D075167505E4507B00283E
:1021A0000AD0107B0028E0D0507E20435076C043F8
:1021B0008007DAD111753FE4507E40084000507628
:1021C000167539E4507B00280BD0107B0028F2D024
:1021D000507E022318435076C0438007EBD111751F
:1021E0002AE4507E800880005076167524E4507BE7
:1021F00000280AD0107B0028DDD0907E2043907606
:10220000C0438007D7D1117516E4907E4008400086
:102210009076167510E4F74A507B00280BD0107B9F
:102220000028C8D0907E022318439076C0438007D0
:10223000C1D111750EE4907E8008800090761675ED
:1022400008E48672407B0128F4D13878002809D050
:102250000128EFD13E7002F054FB00F03CFFFEF786
:102260002BFA0BE43C7002F04CFB00F035FFE24827
:102270000670FEF755FA15E4417B0129FBD1C17BBD
:10228000012901D0C4730DE4C6730BE4437B012B19
:1022900005D02B7813402B702B2282720AE02A780B
:1022A0000A432A70F8E7437B012B07D02B781340B1
:1022B0002B708172C27B012A04D00AE02A780A437B
:1022C0002A70F6E7827AA32AD5D0A72AD3D0652A26
:1022D000D1D0827AF72A16D0F82A08D3037C002BB3
:1022E0001BD05207130FC54A9A1852788272827A0D
:1022F000AF2A18D0F32A25D0F42A6ED0C049097825
:1023000013296BD008E1417B0129B4D1017C00295C
:1023100001D0067407E4047405E45207130FB74AAA
:10232000D25C8272E3E784710673417B012900D19C
:102330000473C27C002AEDD00477EE710029E9D045
:10234000EC7105E4427B012AFBD1C27C002A4DD00E
:10235000012104460177E971AA480078002827D0B6
:1023600000F03EFD0A2002F056FC012727770020EE
:10237000E871A44E3078002821D000F031FD0A2009
:1023800002F049FC2777EF71307800281ED000F06A
:1023900027FD0A2002F03FFC27770020E871307803
:1023A00000281CD000F01CFD0A2002F034FC07E4D9
:1023B000904908223C310120FEF728F9D2E78D49E7
:1023C00008223C310120FEF721F9D8E7894908228B
:1023D0003C310120FEF71AF9DBE72FE098E0854950
:1023E00008223C310120FEF711F9DDE7814804772E
:1023F00029700B20A8703878002811D000F0F0FC6C
:102400000A2002F008FC7B4804772E70AE70387802
:1024100000280CD000F0E4FC0A2002F0FCFB06E4EB
:10242000744908223C310120FEF7F0F8E8E77149D1
:1024300008223C310120FEF7E9F8EDE7427B012A52
:10244000EDD1C27C002A3BD0012104460177AE7059
:10245000E971387800281ED000F0C2FC0A2002F092
:10246000DAFB012020772C21A970E8713878002848
:1024700018D000F0B5FC0A2002F0CDFB0120207737
:10248000AE70EE713878002813D000F0A9FC0A2055
:1024900002F0C1FB04E4574908223C310120FEF759
:1024A000B5F8DBE7534908223C310120FEF7AEF8CE
:1024B000E1E7504908223C310120FEF7A7F8E6E7A2
:1024C0004C48047729700620A8703878002811D06D
:1024D00000F086FC0A2002F09EFB464804772E702E
:1024E000AE70387800280CD000F07AFC0A2002F098
:1024F00092FB1BE43F4908223C310120FEF786F89D
:10250000E8E73C4908223C310120FEF77FF8EDE77F
:102510003D4909780129ECD0364B2933B02A10D334
:10252000032119704477407B012802D05E709E70B1
:1025300018E4B03A35495000085A5870000A9870AB
:1025400010E43349A82A17D3847702241C70437BF4
:1025500028482730012B08D08918C039097E4378D4
:10256000FF2251400B40437019E48918C039437869
:10257000097E0B43437012E4A02A13D30477407BF7
:10258000012808D05207520F895C2878FF22514059
:102590000840287003E45207520F2878895C0843EA
:1025A000287019E4437B012B0FD01248C07A002811
:1025B0005DD0104B3C331B189D7895423BD10D4D9F
:1025C0009E702C77401EE87251E0C37A052B21D211
:1025D000002B09D0002105E06E18B6789642E0D0B5
:1025E000491C89B29942F7D3E9188A705B1CC372FF
:1025F000047724E520000020720000201C55000014
:102600009800002094000020AF0000202C5500000E
:102610006C5500003B78012BEBD0782AE9D2C477C7
:10262000F9480470D30818185207520F4378895C90
:102630000B43437003E5002317E0F44DED18AD782C
:10264000954210D1F14D2F463C3F04E0E918CA787D
:102650008A705B1C9BB28342F8D3E9188E703C777A
:10266000401EF872EBE45B1C9BB28342E5D3E74863
:102670003C38782ABDD23B78012BBAD0C477E248E7
:102680000470D30818185207520F895C4378FF2250
:1026900051400B404370D2E470B50020DB4B3C3B13
:1026A0001978491CC9B219701E2929D300241C703D
:1026B000997B012924D1194620314A78002A06D075
:1026C000012A07D0022A07D0032A08D009E01920DE
:1026D000800206E0CE4804E0C920C00101E0CC48F9
:1026E00080300A78855C002D0BD0845C9C72521C73
:1026F000D2B20A70805C5873521C0A70FFF726FC35
:1027000070BD9C7370BDF0B5C04901201C39C87004
:10271000C048C14F067808462038417A407B4900BE
:10272000CD19BE4CBE4A0D2E03D0BE4B0F2E0DD080
:1027300045E0795C6B78C9000919C95C002802D0B2
:10274000FE205054F0BDFD205054F0BD002836D07E
:10275000785C6978B44D695CB44E355C0D43355492
:102760001D5C0D431D540120374639182039CD7F9B
:102770003E5C3543CD771321091ACE18203E5D5CAF
:10278000F67F35435D54401CC0B21328EDD30021C1
:10279000FF25A648435CA348405C03430020CE00CD
:1027A0003619DF0701D0375CD5555B08401CC0B235
:1027B0000628F6D3491CC9B21329EAD3F0BD0E2E60
:1027C00002D0112E0DD03FE0795C6B78C900091959
:1027D000C95C002802D000205054F0BD01205054A4
:1027E000F0BD002830D0785C69788F4D6D5C8F49E2
:1027F0000E5C2E430E541E5C2E431E548C4F3E5CCA
:102800002E433E548B4E375C2F433754002087496C
:10281000884D0B5C83492D5C095C0B438449095C42
:1028200029430B430021C5002D19DE0702D06F5C40
:10283000FF26D6555B08491CC9B20629F5D3401CB2
:10284000C0B21328E3D3F0BD132E11D100280FD04E
:10285000794800780128F6D1785C6978774C0125B1
:10286000235C2A468A405340235475480570F0BDC6
:10287000102E1ED100281CD0785C6C4D3F212954AD
:1028800019540021FF256948445C585C044300202A
:10289000624FCE00F619E70701D0375CD5556408C2
:1028A000401CC0B20628F6D3491CC9B21329EAD38A
:1028B000F0BD122EFCD10028FAD0795C6878FE2396
:1028C000CD002D192E5C9355002909D04E1EF6001F
:1028D0003619375CD355052802D2361876789355C9
:1028E000002803D02E18203EF67F9355052802D2EB
:1028F0002D186D7853551229DAD2491CC9000919CF
:102900000C5C13550028D3D008182038C07F13540E
:10291000F0BD70B53D4C3C493C3CE279A0781139A2
:102920008854002525722079C00712D0E079217AD9
:10293000C000401860726573A078C00701D0012004
:102940006073FFF7E0FE3F48617A405CA072FFF7DA
:10295000FDFAA0784008A070207940082071207A04
:10296000401CC0B220720828DDD370BD10B5274CC2
:102970003C3C6078002805D0FFF7CBFFFFF78CFECA
:102980000020607010BD30484168090C09044160A6
:102990002E484168490849004160704700B51B480E
:1029A00001223C38C17928480B0002F05FFB110A74
:1029B0000E13181D222751565C62686E74797F854C
:1029C0000D00416A1143416200BD416A0222114378
:1029D000416200BD416A04221143416200BD416A67
:1029E00008221143416200BD416A10221143416235
:1029F00000BD416A20221143416200BD416A40226C
:102A00001143416200BD0000910100205C000020E4
:102A1000406400009800002063560000B357000097
:102A2000FC030020710200206C5500005E020020B3
:102A30008402002097020020AF000020D402002072
:102A4000A7000020205300000040044000A00440E4
:102A5000416A80221143416200BD416AFF22013276
:102A60001143416200BD416A012252021143416299
:102A700000BD416A012292021143416200BD416AD8
:102A80000122D2021143416200BD416A01221203B8
:102A90001143416200BD8548416A1143416200BD56
:102AA000416A012252031143416200BD416A012281
:102AB00092031143416200BD416A0122D2031143D6
:102AC000416200BD7A480168090C09040160774839
:102AD0000168490849000160704775484168754AB6
:102AE00011434160714841680122114341607047C0
:102AF00010B50024FFF7F1FFFFF7E4FFFFF74EFFEB
:102B00000A2002F073F86C480168090700D5012417
:102B10000168C90601D502210C430168890601D567
:102B200004210C430168490601D508210C430168C2
:102B3000090601D510210C430068C00501D52020ED
:102B40000443204610BD5A4801685A4A11430160A7
:102B500056480168012211430160704700B557488B
:102B60000122C17952480B0002F080FA110A0E13BB
:102B7000181D22272C31373D43494F545A600D0010
:102B800041681143416000BD416802221143416028
:102B900000BD416804221143416000BD4168082224
:102BA0001143416000BD416810221143416000BDE6
:102BB000416820221143416000BD41684022114319
:102BC000416000BD416880221143416000BD416801
:102BD000FF2201321143416000BD416801225202CF
:102BE0001143416000BD41680122920211434160DE
:102BF00000BD41680122D2021143416000BD41681D
:102C0000012212031143416000BD2848416811436D
:102C1000416000BD4168012252031143416000BD83
:102C20004168012292031143416000BD41680122C5
:102C3000D2031143416000BDF0B5204A2049937A88
:102C40005807400F095CD8081E4E557B5C0017469C
:102C5000A3193437002D0AD015462C352D5C0D42B2
:102C600002D0957C002D1BD0305D9072F0BD134DCD
:102C700034352D5C0D4208D0104CFF2634347140A1
:102C80000D40255458789072F0BD137B012B04D170
:102C90000A4B2C331D5C0D431D54305D9072F0BD0A
:102CA0003C5C0C433C5458789072F0BD00A004404A
:102CB00000400440FFFF000000800440200000208E
:102CC0006C550000C8530000F8B5002034490026B8
:102CD00042008E52401C80B28A28F9D3022001F0B3
:102CE0009AFF002403272F4D7F030020A1010A181B
:102CF000D21912782A54401C80B24028F7D33120D0
:102D000040020818274A402102F091F801281CD0FF
:102D1000641CA4B2082CE8D324492348C8600020CE
:102D20002E54401C80B24028FAD300241925AD024D
:102D3000A00140191B4A402102F079F8012805D072
:102D4000641CA4B2042CF3D3F8BDFEE7FEE770B513
:102D50000B4614460021134A03E05D5C5554491CA0
:102D600089B2A142F9D30F4A214602F060F8012846
:102D700000D1FEE770BD70B50B4614460021094A2C
:102D800003E05D5C5554491C89B2A142F9D3054A60
:102D9000214602F04CF8012800D1FEE770BD00008A
:102DA000E802002086040020AA55FA5A00000140DB
:102DB000FE4932200880FE4900200870FD480121AC
:102DC00001724B21C90041627047F9490020087027
:102DD000F8490120C871FF20F4492D300880704760
:102DE000F0B5F548F34A0778F4485678F44CF54DB9
:102DF00000210123002F2AD0002E28D0EE4E317062
:102E0000466A02273E43466209209071A120208035
:102E10000020ED4C265C401CE94C4700E653C0B254
:102E20000828F6D3E868C006FCD42868C0242043EC
:102E3000286028680006800F0328FAD0E048008840
:102E4000E8619361D1615170C8209070B1E0DF4FAB
:102E50003F78002F2AD0002E28D0DC4E3170466AF1
:102E600002273E43466210209071A220208001205C
:102E7000D74C4700265CD24CE653401CC0B2102809
:102E8000F6D3E868C006FCD42868C0242043286034
:102E900028680006800F0328FAD0C9480088E86136
:102EA0009361D1615170C820907082E0C94F3F7822
:102EB000002F23D0002E21D0C64E3170466A022743
:102EC0003E43466203209071A3202080C24E777853
:102ED000A780B6786680EC68E406FCD42C68C0262F
:102EE00034432C602C682406A40F032CFAD0E8612C
:102EF0009361D1615170C82090705AE0B74F3F780C
:102F0000002F29D0002E27D0B44E3170476A0226F8
:102F1000374347629671A42020800120B04C4700BF
:102F2000265CA74CE653401CC0B20228F6D3E868E2
:102F3000C006FCD42868C024204328602868000606
:102F4000800F0328FAD09E480088E8619361D16120
:102F50005170C82090702CE05779002F29D0002E96
:102F600027D05171466A02273E4346620320907182
:102F7000A620208000208F4C1234265C401C904CF0
:102F80004700E653C0B20228F5D3E868C006FCD477
:102F90002868C0242043286028680006800F032882
:102FA000FAD087480088E8619361D1615170C820E8
:102FB00090701078002814D081488A4F40300488DF
:102FC0004088B12C02D1D569022D05D07C4D403509
:102FD000AD88B62C06D00CE01170D1614007400FCF
:102FE0003870F0BD5A2804D1062D02D1D669032EBF
:102FF00002D0B62C08D00EE01170D1614B20C00079
:103000009082FFF7E2FEF0BD5A2804D1072D02D1CD
:10301000D669032E02D0B62C04D00AE01170D1611B
:10302000D373F0BD5A2804D10A2D02D1D669032EDC
:1030300002D0B62C07D00DE01170D161D171918210
:1030400069480170F0BD512804D1772D02D1D669AD
:10305000032E02D0B62C07D00DE039701170D1705C
:10306000D161FFF7A5FEF0BD512804D1762D02D124
:10307000D669032E02D0B62C0BD011E01170D161AD
:1030800011725162137359480170137158481062DC
:10309000F0BD512804D1782D02D1D369032B02D081
:1030A000B62C08D00EE01170D161FF209130106273
:1030B00051621171F0BD512804D1792D02D1D0692E
:1030C000032805D0D0690328F4D9D1611170F0BD6F
:1030D0001170D161F0BD704730B53848416A0222A5
:1030E00011434162334903208871354AA62010807C
:1030F00051200B4612331870887B012825D00228F6
:1031000026D08320587000201C5C401C450054537E
:10311000C0B20228F8D32B48C368DB06FCD403688E
:10312000C0242343036003681B069B0F032BFAD0C4
:103130001288C261012088610022CA614A70C823D6
:103140008B7088720A73C87230BD81205870DAE7BC
:1031500082205870D7E730B51848416A02221143DF
:103160004162144A032090711549A620088051201D
:103170001346123318707420587000201C5C401CD9
:1031800045004C53C0B20228F8D30E48C368DB0692
:10319000FCD40368C0242343036003681B069B0F11
:1031A000032BFAD00988C161012023E0BE00002072
:1031B000A5000020680000203C00002000600440C2
:1031C000DE01002000C001405C0000203F00002024
:1031D000910100203D000020490000203E00002019
:1031E0004700002028010020B40000203400002007
:1031F0007017000090610020D0615070C82090705E
:1032000030BD30B58F48416A0222114341628E4A77
:10321000032090718D49A620088051201346123357
:1032200018707520587000201C5C401C45004C53E1
:10323000C0B20228F8D38648C368DB06FCD4036812
:10324000C0242343036003681B069B0F032BFAD0A3
:103250000988C161012090610020D0615070C820B0
:10326000907030BD30B57748416A02221143416207
:10327000754A032090717549A62008805120134695
:10328000123318706520587000201C5C401C4500EB
:103290004C53C0B20228F8D36D48C368DB06FCD497
:1032A0000368C0242343036003681B069B0F032BA2
:1032B000FAD00988C161012090610020D06150706E
:1032C000C820907030BD30B55E48416A022211437B
:1032D00041625D4A032090715C49A620088051201C
:1032E0001346123318706820587000201C5C401C74
:1032F00045004C53C0B20228F8D35548C368DB06DA
:10330000FCD40368C0242343036003681B069B0F9F
:10331000032BFAD00988C161012090610020D0619F
:103320005070C820907030BD30B54648416A0222C6
:1033300011434162444A032090714449A620088009
:1033400051201346123318707020587000201C5CF6
:10335000401C45004C53C0B20228F8D33C48C36817
:10336000DB06FCD40368C0242343036003681B0608
:103370009B0F032BFAD00988C161012090610020C6
:10338000D0615070C821917014211182107230BD2B
:103390002D498878002815D0401EC0B288704A7820
:1033A00010430FD1012048702648816A0222114340
:1033B0008162274801690822914301610169042261
:1033C000114301617047F0B51E4F38680124C007F2
:1033D000022504261C491E4A002810D050694007C7
:1033E0000CD5D369C869471CCF61184F40004037DE
:1033F0003B520C704D73906930439061F0BD506941
:103400004007FBD58B798869984206D3B86A284370
:10341000B8624C700020886105E0431C8B610B4949
:103420004000085AD061D069906930439061F0BD86
:1034300008497820088008490020087002490120C6
:10344000487270470060044068000020DE010020E0
:1034500000C00140BE000020A5000020FE48FD493C
:10346000427C895C817470470020FC4A0021115421
:10347000401C80B28A28FAD3704700B5FFF7F4FFEA
:10348000FF21F548913141840122427500210170EC
:10349000C17181710272C17200BD10B5FFF7E4FF06
:1034A000FFF7EBFF31235B02D878EB4C607418799F
:1034B000E074FFF7D3FF01206075D879E849087000
:1034C0009879E8490870E849002008702077197A4F
:1034D000E64A1170597AE64A1170E649087060763A
:1034E000E549087010BDDC48417D01290BD1002160
:1034F0004175E249C27C895C0175428C4A431103E3
:10350000090C018581847047F0B5D34E0024307FCB
:10351000DB4A01280AD03046317B2030037801296C
:103520000CD000207E253F281BD025E00020410044
:103530005452401CC0B28A28F9D3F0BD980607D572
:10354000002041005452401CC0B28A28F9D3F0BD7B
:1035500000207F214300D152401CC0B28A28F9D3F9
:10356000F0BDC5490978002906D0990702D5FF2189
:1035700051530AE0545308E0B849095C002902D0CD
:10358000777E002F06D041005452401CC0B28A28DA
:10359000C9D3F0BDB77C7943C9084700D153F4E7DC
:1035A000AD480F21203001707047AB48002120301A
:1035B00001707047F0B5A84C00262046417BC38CB3
:1035C000491C257BCAB2203078270178012D0ED006
:1035D000A84D2D78002D23D0002B07D13223E38472
:1035E0006273D20718D0102211430170F0BD002B76
:1035F000FCD1E7846273D507DF23002D02D0194088
:10360000017002E0202529430170072AEED12673BC
:10361000017819400170F0BDEF2211400170F0BD3A
:10362000E17D00290BD0002BF9D1E7846273D0072C
:1036300002D0FFF7BAFFF0BDFFF7B2FFF0BD067092
:1036400090490A78D20701D0012202700A789207C5
:1036500003D5027802231A4302700978490703D57B
:1036600001780422114301707F4909780029E5D0CF
:103670000178082211430170F0BD10B5764C072285
:10368000A256764BD00707D0002000211954401CC9
:10369000C0B28A28FAD306E00020FF211954401C4A
:1036A000C0B28A28FAD3521C50B2E0710A2805DB56
:1036B000FFF7DAFEFFF708FBFFF7EFFE10BDD3E6DA
:1036C000F0B5FFF7D1FE00216F4F644DFF236F4827
:1036D000425C0020CC00E419D60701D0265CAB5533
:1036E0005208401CC0B20628F6D3491CC9B213299F
:1036F000EDD3F0BD0020594A115C002901D0491ECC
:103700001154401CC0B28A28F6D37047F0B55F4D03
:10371000763D2878400828702F46393738784000A1
:103720003870012029182039CB7F2A5C1343CB77CE
:10373000510829543A18203AD37F395C0B43D37788
:1037400049003954401C40B21328EBDB4F4E633E16
:10375000B07C4008B07432461332907C40009074C4
:10376000112033185C78315C0C435C70490831548B
:1037700013185C78115C0C435C7049001154401EB6
:1037800040B20028EDDA00204049404B7639633BD7
:10379000095C1B5C3D4C19433D3C135C245C23439A
:1037A00019434BB20021384EFF25C400A4192B4EFB
:1037B000DF0701D0675CF5555B10491C49B206294B
:1037C000F6DB401C40B21328DEDBF0BDF0B5FFF79E
:1037D0004BFE01202D4A1323763AD7181418115C9A
:1037E000203CE177191ACC19203CE47F7C54401C22
:1037F00040B21328F2DB0020907438700021FF23C0
:1038000022487A5C7638405C104342B200201E4D5C
:10381000CC006419114DD60701D0265CAB5552106F
:10382000401C40B20628F6DB491C49B21329E7DBED
:10383000F0BDF0B50120154A1323763AD7181418B5
:10384000115C203CE177191ACC19203CE47F7C54B0
:10385000401C1DE02C5C000098000020FC030020B0
:103860003B000020760000202F0000206400002094
:10387000380000207000002065000020345C00004B
:10388000E802002028010020B3570000D4020020E5
:10389000C0B21328D3D30020907438700021FF23C6
:1038A000FE48425C785C02430020FD4DCC00641968
:1038B000FC4DD60701D0265CAB555208401CC0B267
:1038C0000628F6D3491CC9B21329E9D3F0BD00205C
:1038D000F44A115CFE2903D0002901D0491C11547F
:1038E000401CC0B28A28F4D370470020ED4A115C16
:1038F000FE2903D0002901D0491E1154401CC0B23A
:103900008A28F4D37047F0B5E749C87A401CC872DA
:103910000020897EE14D8C466146002907D0295C54
:1039200049002954490609D50121295406E0295C9A
:1039300049082954002901D1202129542A5C002159
:10394000D74EFF24C3009B19D64ED70701D05F5C2A
:10395000F4555208491CC9B20629F6D3401CC0B21E
:103960001328D9D3F0BD10B50020CE4AFF23CF4C89
:1039700006E0115C002907D0491E1154401CC0B25A
:1039800021788842F5D310BD1354F7E7F0B5C64946
:10399000C87A401CC8720020C04F395C4906090E25
:1039A0003954C90901D0012139543A5C0021BC4D78
:1039B000FF23C4006419BB4DD60701D0665CAB552C
:1039C0005208491CC9B20629F6D3401CC0B21328BC
:1039D000E3D3F0BDF0B5B649B3480A78807E521EF5
:1039E000B44DB04ED4B200282FD00020AB4A4C3298
:1039F000115C491CC9B21154AD4B1B78994201D3DB
:103A000000211154A54B195C002915D0491E1954E9
:103A10000021A34BC200D218CB070FD09F4B575C9D
:103A20001B5CEB5CF355491CC9B20629F4D3401C5E
:103A3000C0B21328DAD3F0BD1C54E9E7974B575CAA
:103A40004C331B5CEB5CF355EDE70020934A4C32A2
:103A5000115C491CC9B21154954B1B78994201D392
:103A6000002111548D4B195C00290ED0491E1954A8
:103A700000218B4BC200D218CB0708D0874B575C74
:103A80004C331B5CEB5CF35506E01C54F0E7834BB6
:103A9000575C1B5CEB5CF355491CC9B20629EBD3A0
:103AA000401CC0B21328D1D3F0BDF0B500207B4C30
:103AB0007F4F4C3423E07C49897E002909D0215C6A
:103AC000491CC9B221543A78914207D300212154AC
:103AD00004E0215C002917D0491E215400210C224A
:103AE000754B4243D318734E225C6E4DB25C5E5CE4
:103AF000AA55491CC9B20C29F9D3401CC0B26F4960
:103B000009788842D7D3F0BD3978491E2154E5E7BA
:103B1000F0B50020614C664F4C3423E06249897E49
:103B2000002909D0215C491CC9B221543A7891423C
:103B300007D30021215404E0215C002917D0491E3D
:103B40002154002142005E4B8218D318594E225C4A
:103B5000544DB25C5E5CAA55491CC9B20329F9D325
:103B6000401CC0B2574909788842D7D3F0BD397894
:103B7000491E2154E5E7F0B500204B49474D8F7EA3
:103B8000474B484E4C35002F0AD0295C491CC9B21E
:103B90002954474A1278914207D30021295404E05E
:103BA000295C002912D0491E29540021414C2A5C6D
:103BB000A25CCC00E418245C3255491CC9B213291C
:103BC000F7D3401CC0B20628DDD3F0BD38490978D0
:103BD000491E2954E9E7F0B5002033492F4C8F7E68
:103BE000304D4C34002F0AD0215C491CC9B22154FD
:103BF0002F4A1278914207D30021215404E0215C1E
:103C0000002913D0491E21540021254BC200D3188E
:103C1000284E225CB25C5E5CAA55491CC9B20629DA
:103C2000F9D3401CC0B21328DCD3F0BD2049097879
:103C3000491E2154E8E7F0B5FFF716FC0020174FA6
:103C4000391849783954401CC0B20928F8D31220D9
:103C5000395C3A185170401EC0B20928F8D2124996
:103C6000C87E012834D0787A40087872C00701D025
:103C70000120C8760021FF23785C42080020084D0F
:103C8000CC006419074DD60701D0265CAB5552080D
:103C9000401CC0B20628F6D3491C15E05E02002085
:103CA000B3570000FC030020980000202B5C0000AC
:103CB000AB5800004B580000EA5500006256000067
:103CC0003D5B0000A05B0000C9B21329D4D3F0BD56
:103CD000787A4006000E7872C009CBD00020C876F2
:103CE000C8E7F949F94A8B7E0846C07A002B08D00C
:103CF000002802D0401EC8720BE01078401EC87227
:103D000007E0401CC0B2C8721278904201D1002076
:103D1000C872EF48C97A405CEE4AFF2111547047DF
:103D2000E94AED49D07A095C401CC0B2D0728028C3
:103D300001D30020D0720020E64A1154401CC0B2CA
:103D40008A28FAD3704770B5DF4DE44807216956D9
:103D50000078FF24DF4B81420DDA0020E04E0C2278
:103D60004A439219165C9C55401CC0B20C28F9D3EA
:103D7000491CE97170BD00201C54401CC0B28A2847
:103D8000FAD370BDF0B5D04C00252572FFF76CFB5F
:103D90002078132804D0132020700120E073E575EB
:103DA000A07D012812D0022812D0032813D00428A5
:103DB00014D0052815D0062816D0072817D00828B3
:103DC00018D0092819D0002819D01AE0C54B18E0DE
:103DD000C44B203315E0C523DB0112E0C14B603337
:103DE0000FE0C04B80330CE0BE4BA03309E06323EF
:103DF0001B0206E0BB4BE03303E0BB4B01E0BA4BD8
:103E000020330021FF245A5CB84842540020B84EA9
:103E1000CD00AD19AF4ED70701D02F5CF455520835
:103E2000401CC0B20628F6D3491CC9B21329EAD3F4
:103E3000F0BD00B5FFF718FBA348282141840121FC
:103E4000417512210170002101720020A14A115414
:103E5000401CC0B28A28FAD300BD30B5FFF704FB7E
:103E6000FF2199482D3141840121417511220270B1
:103E7000017200209D4A0021763A134614461333FE
:103E80002634154639351154195421542954401CEF
:103E9000C0B21328F7D330BD00B5FFF7E5FAFF2114
:103EA000894891314184012141750021C17210225C
:103EB00002700172C17100208C4B763B1A4613329E
:103EC00019541154401CC0B21328F9D300BD00B5D9
:103ED000FFF7CAFA7C48C8214184012242750021BB
:103EE000C1720F23037002720020804A633A1346A6
:103EF000133B11541954401CC0B21328F9D300BD10
:103F000000B5FFF7B1FA70482821418401214175BD
:103F10000E2101700021017200206E4AFE21115411
:103F2000401CC0B28A28FAD300BD00B5FFF79CFA46
:103F3000654828214184012141750D21017000212E
:103F400001720020634A1154401CC0B28A28FAD37F
:103F500000BDF0B5FFF788FA4B215B48C9004184EA
:103F6000012242750021C1720C2303700272817616
:103F70005F4F584DFF235F48425C5C48763842549F
:103F80000020CC00E419D60701D0265CAB555208BE
:103F9000401CC0B20628F6D3491CC9B21329EAD383
:103FA000F0BD10B5FFF760FAFF2147489131418419
:103FB000012141750021C1720B22027001720020A3
:103FC0004D4A44494D4B03E0145C0C54401CC0B2B4
:103FD0001C78A042F8D310BDF0B5FFF745FA4B218D
:103FE0003948C9004184012141750022C2720A2268
:103FF0000270017200213E4F364DFF234048425C63
:104000003A48763842540020CC00E419D60701D053
:10401000265CAB555208401CC0B20628F6D3491C9A
:10402000C9B21329EAD3F0BDF0B5FFF71DFA26484F
:1040300050214184012141750021C1720922027081
:10404000017200202F4D234E2F490C5C27492A393D
:104050000C544C390C540021254BC200D218575C2B
:104060002B5DF355491CC9B20629F8D3401CC0B2D8
:104070001328E9D3F0BDF0B5FFF7F6F91248A021F7
:104080004184012141750021C17208220270017230
:104090001C4D104E12E01D48445C14482A3844540C
:1040A00000200C220E4B4A43D218175C2B5DF355AF
:1040B000401CC0B20C28F8D3491CC9B2074800788C
:1040C0008142E8D3F0BD000098000020E9550000CF
:1040D00091550000FC0300203B590000625600008F
:1040E000EA5500004062000040630000D402002056
:1040F000B357000024590000A15B00002B5C0000B6
:104100000D5900004B580000AC580000EA58000060
:10411000F0B5FFF7A9F9F9486421418401214175FF
:104120000021C172072202700172F54DF54E11E0B7
:10413000F548445CF548445400204A00F44B8A1882
:10414000D218175C2B5DF355401CC0B20328F8D37E
:10415000491CC9B2EF4800788142E9D3B2E7F0B513
:10416000FFF782F9E548642141840121417500216E
:10417000C1720622027001720020E14EE64AE14F50
:10418000E6490D5CE1490D540021CC00A418245CE3
:10419000735D3B55491CC9B21329F6D3401CC0B20C
:1041A0000628EDD38EE7F0B5FFF75EF9D34864211A
:1041B0004184012141750021C17205220270017202
:1041C000CF4DD04ED648445CD04844540020D24B0A
:1041D000CA00D218175C2B5DF355401CC0B20628EC
:1041E000F8D3491CC9B21329ECD36BE7F0B5FFF73C
:1041F0003BF9FF20C14FF53078840120787500200D
:10420000F8720421397038720021FF23C548425CDE
:10421000BE484C3842540020BF4DCC006419B94D03
:10422000960701D5265CAB555208401CC0B2062843
:10423000F6D3491CC9B21329E8D30120F87641E727
:1042400000B5FFF711F9FF21AC48913141840122FB
:104250004275032101700021C171C1728171027226
:1042600000BD00B5FFF700F9FF21A44819314184D2
:10427000012141750221017000210172C17200BD4E
:1042800000B59E4B187801280AD0FFF7EDF8FF2003
:10429000F530588401205875187000201872D871B4
:1042A00000BD00B595480021C1754179112903D998
:1042B00031214902497841714079030000F0D6FE6E
:1042C0001A0E111A1D202C2329142F263235173EC1
:1042D000383B44101010101010104110FFF7D0FFA1
:1042E00000BDFFF7BEFF00BDFFF7AAFF00BDFFF74F
:1042F0007DFF00BDFFF757FF00BDFFF730FF00BD9A
:10430000FFF706FF00BDFFF7B6FE00BDFFF78CFE0E
:1043100000BDFFF761FE00BDFFF743FE00BDFFF7E4
:1043200018FE00BDFFF701FE00BDFFF7E9FD00BD6F
:10433000FFF7CDFD00BDFFF7AFFD00BDFFF78DFD21
:1043400000BDFFF776FD00BDFFF71CFD00BDF8B511
:104350006A4C01252146C97AA0794A1CD3B2FF22B2
:10436000684E002812D001280FD16F480078814292
:1043700021D200206D4D0C27794349190D5C7255EF
:10438000401CC0B20C28F9D3E372F8BD684800782D
:10439000814208D2674D4800295C72544019407828
:1043A0003254E372F8BD5748403040790028F9D1C3
:1043B000A571E072F8BD30780028FBD1FFF754F802
:1043C000312676023078A52801D0FEF77DFC707882
:1043D0006071B078A075F07860743079E0746575BC
:1043E000FFF73CF8FFF75DFFF8BD4448007A00286E
:1043F0000AD00020434A115C002901D0491E115403
:10440000401CC0B28A28F6D3704770B53B4B0025DC
:10441000587A002806D0187E002803D15D72FFF775
:10442000E4FF0124187C002829D05878002826D1E0
:104430001D749878401CC0B298703F490A78904229
:1044400000D39D70D878401CC0B2D8700A789042D2
:1044500000D3DD701879401CC0B218710978884209
:1044600000D31D7135489978354A415C1170D9786F
:10447000425C34490A701979405C33490870D87B32
:1044800000287ED0187E00287BD1DD7318780300C9
:1044900000F0ECFD160C0F1215181B1E2124272A04
:1044A0002D305C5F6265686B6E747176FFF74FFF4D
:1044B00066E0FFF748FC63E0FFF732FC60E0FFF7DF
:1044C00010FC5DE0FFF7B7FB5AE0FFF784FB57E015
:1044D000FFF751FB54E0FFF71BFB51E0FFF7E5FA54
:1044E0004EE0FFF777FA4BE0FFF750FA48E0FFF7AE
:1044F0003AFA45E0FFF707FA42E042E09800002070
:104500004B580000FC030020C9580000AA020020FC
:104510003D5B0000A05B0000B3570000C3580000E3
:10452000AC580000F658000062560000EA55000042
:1045300090550000745500007B5A0000BB590000E4
:10454000D4000020D5000020D6000020FFF7CDF9D0
:1045500016E0FFF7BCF913E0FFF76BF910E0FFF787
:1045600035F90DE0FFF7D2F80AE0FFF7C3F807E0EE
:10457000FFF7A6F804E0FFF7A2F801E0FFF77DF8E7
:104580000124FFF717F8002C01D0FEF7BDFFFEF75E
:10459000AAFF70BDF0B5F84E00207778FF25F749E7
:1045A000F74AF84C3B0000F061FD09060C101418A6
:1045B0001C2024280B00B0704020F0708020307147
:1045C00080E50D70107020707CE50870157020700B
:1045D00078E508701070257074E50D701570207006
:1045E00070E50D70107025706CE508701570257001
:1045F00068E50D701570257064E508701070207006
:1046000060E5F0B50020E049DB4C09782A34491E0A
:10461000221DC9B2131D1DE0255C002D1FD06D1E8B
:104620002554155C002D1CD06D1E15541D5C002DED
:1046300019D06D1E1D54265CD44DD54FAE5D3E5431
:10464000165CD44FAE5D3E541E5CAD5DD24E35540B
:10465000401CC0B2D14D2D78A842DDD332E52154A3
:10466000DFE71154E2E71954E5E7F0B5C24F787F70
:10467000401CC0B27877C44A00211378984200D316
:104680007977B87F401CC0B2B8771378984200D3CE
:10469000B977F87F401CC0B2F8771278904200D307
:1046A000F9770020B94D797FBC7FFF7F695C2C5D75
:1046B000B74AB84EB84BED5D115434541D54401CEC
:1046C000C0B20328F8D3FDE4F0B5AB484078002829
:1046D00002D0012805D102E0FFF7C7FF01E0FFF794
:1046E00090FF0020AA4CAE49AA4DAE4EAA4FAE4A4A
:1046F000235C0B542B5C33543B5C1354401CC0B202
:104700000328F5D3DEE4F0B59B490120487004206E
:104710003631488000200F46A44E0C3F2DE0325C1D
:10472000994D11462B789A4202D32B78D21A92B225
:10473000D2B23A540C4640342B789C4202D32B78A8
:10474000E31A9CB2E3B28C4C2E34235480312C7883
:10475000A14202D32C78091B89B2874CC9B23234EA
:1047600021548A4C8A4DA25C2A54E25C894B1A542B
:10477000894A615C1154401CC0B28849097888425A
:10478000CDD39FE47C48002141774022827780226C
:10479000C277417078490F2036314880704770B534
:1047A00075490A203631488073483F2640780021F9
:1047B000774C784A784D030000F058FC0A06090C43
:1047C000151E27303A434C08FFF7DCFF70BDFFF79A
:1047D0009AFF70BD0020265411542954401CC0B2C9
:1047E0000328F8D370BD0020215416542954401CCE
:1047F000C0B20328F8D370BD0020215411542E54A8
:10480000401CC0B20328F8D370BD002026541654B3
:104810002954401CC0B20328F8D370BD0020334691
:10482000235411542B54401CC0B20328F8D370BD3C
:104830000020215416542E54401CC0B20328F8D333
:1048400070BD0020265416542E54401CC0B20328BC
:10485000F8D370BD0020215411542954401CC0B21B
:104860000328F8D370BD4449887A401CC0B28872CE
:10487000022803D90020887201204872704700B5D1
:10488000FEF7F2FDFF213C48913141840121417541
:104890000021C172152202700172C17100BD00B504
:1048A000FEF7E2FD3448424941840121417500216F
:1048B000C172142202700172C171017700BD01281A
:1048C0000FD002280FD004280FD008280FD01028AE
:1048D0000FD020280FD040280FD080280FD00020E4
:1048E0007047002070470120704702207047032066
:1048F0007047042070470520704706207047072046
:1049000070470EB5A5206A4610701B48417951705A
:10491000817D9170417CD170C07C107125480078F8
:10492000507125480078907124480078D07124484F
:104930000078107223480078507231200C226946AA
:104940004002FEF718FA0EBD0B49088D401E000408
:10495000000C088503D1888C08850120C873704736
:104960000549887B401CC0B288730F2803D90020FA
:10497000887301200874704798000020D40000203C
:10498000D5000020D60000203C5B00007C5A0000CF
:10499000D7000020DA000020DD000020C25800000F
:1049A000E0000020E3000020E6000020BF580000E7
:1049B0006C07000094000020760000203B000020DF
:1049C00064000020380000200B49C88C0028D2D099
:1049D000401EC884CFE70848017B0029CBD1C184A1
:1049E000417301210173C6E703480021C18441736B
:1049F0000121C175BFE700009800002000B55848AC
:104A0000017858480B0000F031FB0604090E131919
:104A10001F08416A01221143416200BD416A02221E
:104A20001143416200BD416A04221143416200BD4D
:104A30004D48416A10221143416200BD416A012282
:104A400052021143416200BD416A012292021143A8
:104A5000416200BD00B5424909780B0000F006FB39
:104A6000060406090C0F121440480DE03F482A3096
:104A70000AE03E48543007E03C487E3004E03B48C2
:104A8000A83001E03948D230394902880A624288A8
:104A90004A6282888A62C288CA6202890A6342893B
:104AA0004A6382898A63C289CA633149028A403172
:104AB0000A60428A4A60828A8A60C28ACA60028B1D
:104AC0000A61428B0A62828B4A61C28B8A61008CC6
:104AD000C86100BD284927484860086022484268EC
:104AE00001210A43426002680A43026070471D4880
:104AF0000168224A114001601B480168102291435D
:104B00000160704770B51A4E00247460FFF7EFFF24
:104B10001B48134D0078002812D16878401CC0B2A1
:104B200068700A280CD36C7000F0F4F8FDF72BFFC6
:104B3000FDF7DEFF13490870FCF74BFD00F0B7F8F6
:104B4000FFF788FFFFF75AFF306801210843306004
:104B50002878401CC0B22870062800D32C7070BD85
:104B6000D20000200080044000A00440E8020020A1
:104B700000200040FFFF000000400440F8F9FFFF64
:104B8000210000202200002050214843401E411CEB
:104B9000FCD1704710B50246284C294B03E0DC607D
:104BA0006420FFF7F1FF521E501CF8D110BD5021B8
:104BB0004843401E411CFCD1704710B502461F4CB3
:104BC0001F4B03E0DC606420FFF7F1FF521E501C16
:104BD000F8D110BD0D20401E80B20028FBD17047D7
:104BE0000220401E80B20028FBD1704700B540086B
:104BF000401E81B203E0FFF7EDFF491E89B2002994
:104C0000F9D100BD00B53121FFF7E4FF491E89B29B
:104C10000029F9D100BD30B50346084C084D07E026
:104C2000EC600922FFF7EEFF521E92B2002AF9D182
:104C300018465B1E9BB20028F2D130BDAA55FA5A25
:104C4000000001400F490E4808600020886048605D
:104C50000B4A0D49921E0A6088602E224A600B4959
:104C600008600B4888600B4848600C480A4901609E
:104C7000012149038160FF211F314160704700001D
:104C8000FFFF00000040044000600440008004403A
:104C900080AA02000706000001FE000000A00440F8
:104CA00001202649400408602549086070472648CD
:104CB00024490162C161704700B52448016880221F
:104CC0001143016020481721803881600021416133
:104CD000816107214902C1611B4AFF21403AD1632A
:104CE0000221016001688907FCD401680122114397
:104CF0000160FFF7DCFFFFF7D3FF00BD0120104983
:104D00004004803108607047104801688022914358
:104D10000160F3E70C4900200862704710B50A4CA7
:104D2000606A09498039C969890506D5000204D538
:104D3000FFF7E8FE0120C005A06210BD80E200E0A0
:104D400000E100E0FFFF01008020004000E005409E
:104D5000084807494161FF218161072101617047CE
:104D600010B50449FF208861FBF726FC10BD000048
:104D70001017000000E000E01E481D49C1600168F6
:104D8000042291431C4A11430160704701201B49D2
:104D9000400608601A4908601A490868FF22120292
:104DA00090430860704714490843124988601048CE
:104DB000C8607047104908430E494860704700B505
:104DC0000220FFF7F7FF0C480A4B18603D20FFF761
:104DD000EAFFFFF7DBFF18680749491C0843186022
:104DE00000BD012006494006803108607047000080
:104DF000AA55FA5A000001400000FA5A80E200E089
:104E000000E100E018E400E02B4902228A6008611A
:104E100000E000BF4868C007FBD18868402210430B
:104E2000886000E000BF4868C007FBD1704710B53C
:104E3000214B01249C60186100E000BF5868C00746
:104E4000FBD111E0147850780002204394782404B8
:104E50000443D07800062043D86000E000BF5868C3
:104E6000C007FBD1121D091F0029EBD1586840076C
:104E7000002802DA5960012010BD986840221043D2
:104E8000986000E000BF5868C007FBD15868400731
:104E900002D55960012010BD002010BD10B50020C2
:104EA00000210F23DB0204C994B22018120C101841
:104EB0009942F8D310BD00000020064034480F216D
:104EC000816104210161704710B5324801680122F7
:104ED0001203114301602E4A10680F210902884312
:104EE000072109024018106010680821084310606B
:104EF0001068022188431060106804218843106004
:104F000010680721C903884310601068C9108843DE
:104F100010609068000A0002801C906000205060C1
:104F2000106801218904884310601068C02108437B
:104F30001060FFF7C3FF01231749580308601749A2
:104F4000086017490868FF242402A043086010681D
:104F50001843106010BD0F4801680122120311436D
:104F600001600B4801680122114301600168C02201
:104F70001143016070470648016849084900016013
:104F80000448016801221203914301607047000048
:104F900000C0014000E0054080E200E000E100E0E8
:104FA0000CE400E010B51748C068174C4006400FED
:104FB00002D0012806D102E01448206002E07D20E2
:104FC000000220600121206800F028F82060104ACB
:104FD0001049904202D91048086010BD0E48401F89
:104FE000086010BD0C490B48491E0160491C016056
:104FF000044800210161C160C1684906490FFBD125
:105000007047000000000640EC000020006CDC024D
:1050100000366E01002006400500FA5A30B50B46F6
:10502000014600202022012409E00D46D5409D4282
:1050300005D31D469540491B254695404019154608
:10504000521E002DF1DC30BD064C0125064E05E058
:10505000E36807CC2B430C3C98471034B442F7D399
:10506000FBF732F83C5C00005C5C000030B4744636
:10507000641E2578641CAB4200D21D46635D5B0054
:10508000E31830BC184702E008C8121F08C1002A04
:10509000FAD17047002001E001C1121F002AFBD1A4
:1050A00070471201000200000040AC054F024201AF
:1050B0000102000105010906A101050719E029E720
:1050C000150025017501950881029501750881017A
:1050D00095057501050819012905910295017503CA
:1050E0009101050719002AFF00950575081500268E
:1050F000FF00810005FF0903750895018102050C79
:1051000009001580257F95407508B102C0050C097E
:1051100001A101850319002A3C031500263C0395D3
:105120000175108100C005010980A10185020501FA
:1051300019812983150025019503750181029501C7
:1051400075058101C005010906A101850105071545
:1051500000250119002977957875018102C0050C99
:105160000901A1018501150025019520750109B5E9
:1051700009B609B709CD09E009E209E309E409E53F
:1051800009E909EA0A52010A53010A54010A5501C0
:105190000A8A010A21020A23020A24020A25020AB3
:1051A00026020A27020A2A020A92010A94010A83A5
:1051B000010A02020A03020A07020A18020A1A0274
:1051C00009B88102C005010980A101850219812960
:1051D00083150025017501950381027505950181EF
:1051E00001C00600FF0901A10185031AF1002AF898
:1051F0000015002501750895028102C009023B00D7
:10520000020100A03209040000010301010009218C
:10521000110100012259000705810308000109045A
:1052200001000103010200092111010001225100C6
:10523000070582031000010403090418034B0065ED
:105240000079006300680072006F006E0020004B60
:1052500000310018034B0031002D004B0065007930
:105260000062006F00610072006400000100000035
:1052700012000000A2500000020000003B000000ED
:10528000FC51000003000000040000003752000041
:105290000309000004000000375200000300010071
:1052A000180000003B520000030901001800000034
:1052B0003B5200000300020018000000535200009F
:1052C000030902001800000053520000050000000E
:1052D0000700000017520000050000000700000052
:1052E0001752000021000000090000000E520000CB
:1052F00021010000090000002752000022000000E8
:1053000059000000B45000002201000051000000CC
:105310000D510000220200009E0000005E510000BE
:1053200029352B39A1A00000001E140464A300003D
:105330003A1F1A161DA200003B2008071B000000A0
:105340003C211509060000003D22170A192C000017
:105350003E231C0B050000003F24180D1100000027
:1053600040250C0E100000004126120F36000000F0
:105370004227133337A60000432D2F3438A70000EF
:10538000442E300000AF0000452A3128A5A40000BB
:1053900046494C0000500000F44A4D0052510000B4
:1053A000D34B4E00004F0000000000000000000042
:1053B00000000000000000000000000000000000ED
:1053C000000000000000000029293ACF3BCE3C86B7
:1053D0003D873ED53FD440B141B342B043B544BA16
:1053E00045B92DD72ED6A3A35050525251514F4FED
:1053F0001E971F9820991BAB0FE31DAC0DE516AD52
:1054000012E20EE606E4D3E739E013E12929CF3AA8
:10541000CE3B863C873DD53ED43FB140B341B04200
:10542000B543BA44B9452DD72ED6A3A350505252F6
:1054300051514F4F1E971F9820991BAB0FE31DAC86
:105440000DE516AD12E20EE606E4D3E739E013E10E
:1054500029293A3A3B3B3C3C3D3D3E3E3F3F4040A4
:10546000414142424343444445452DD72ED6A3A350
:105470005050525251514F4F1E971F9820991BABBD
:105480000FE31DAC0DE516AD12E20EE606E4D3E720
:1054900039E013E129293A3A3B3B3C3C3D3DD53EBE
:1054A000D43F4040414142424343444445452DD7C7
:1054B0002ED6A3A35050525251514F4F1E971F98B2
:1054C00020991BAB0FE31DAC0DE516AD12E20EE605
:1054D00006E4D3E739E013E129293A3A3B3B3C3C67
:1054E0003D3D3ED53FD44040414142424343444488
:1054F00045452DD72ED6A3A35050525251514F4F50
:105500001E971F9820991BAB0FE31DAC0DE516AD40
:1055100012E20EE606E4D3E739E013E11A1A0404B6
:10552000161607075252505051514F4FB500B60052
:10553000B700CD00E000E200E300E400E500E90090
:10554000EA0052015301540155018A01210223024C
:1055500024022502260227022A02920194018301D5
:1055600002020302070218026F0070000102040821
:10557000102040803F3A4039413842374336443565
:105580004534461F5C1E5D1D5E3149324833474736
:105590000E0002030405060708090A0B0C0D0E0F86
:1055A0001015161718191A1B1C1D1E1F2021222347
:1055B00024252A2B2C2D2E2F3031323334353637FB
:1055C00038393A3F404142434445464748494A4BAF
:1055D0004C54565758595A5B5C5D5E5F6163696A0B
:1055E0006B6E7374757677787958321414141414BA
:1055F0001414141414141D1E3133464714141414B7
:1056000014140708091C1F303445485B5C5D061BF9
:10561000202F3544495E5A1414141A2E43596E0A29
:1056200021364A5F731405192D42580B22374C61FD
:10563000741404182C41570C0D7614141414031709
:105640002B4056750E2338776B1402162A3F546A86
:105650000F243963781400156910253A791414144D
:1056600014140A01000101010201030004000500F5
:105670000000000000020102020203000001050018
:1056800000000003000301030203030204020500FB
:1056900000000004000401040204030304000000ED
:1056A00000000005000501050205030404000000D8
:1056B00000000006000601060206030504060500B8
:1056C00000000008000701070207030604000000AD
:1056D0000000000900080108020803070400000098
:1056E0000000000A00090109020903080400000083
:1056F0000000000B000A010A020A0309040000006E
:105700000000000C000B010B020B030A040A050049
:105710000000000D000C010C020C030B040B050033
:105720000000000E000D010D020D030C040C05001D
:105730000000000F000E010E020E030D040D050007
:105740000000001000100110020000000010050011
:1057500000000011001101110200001104110500E8
:1057600000000012001201120200000000120500E9
:1057700000000000001301130213031304000000D3
:1057800000000000001401140214031404140500A6
:105790000000000000150115021503150415050091
:1057A00000000000001601160200001604000000B0
:1057B000000000141414145469141400152A3F1422
:1057C0006A141414162B40566B141402172C4157EC
:1057D00014141403182D425814141404192E435988
:1057E000141414051A2F445A6E1414141B30455BFC
:1057F000141414061C31465C141414071D32475D42
:10580000141414081E33485E731414091F34495FBE
:105810007414140A20354A147514140B21364B6184
:105820007614140C22374C141414140D141414147C
:105830001414140E233814147714140F2439146319
:1058400078141410253A1414791414181A1D2023EE
:1058500026292C2F3235393D4145494D5155595E48
:1058600063686D72777C81868C92989EA4AAB0B68C
:10587000BCC3CAD1D8DFE6EDF4FBFFFFFBF4EDE6D5
:10588000DFD8D1CAC3BCB6B0AAA49E98928C868138
:105890007C77726D68635E5955514D4945413D397C
:1058A00035322F2C292623201D1A186000060B11D3
:1058B000161C21272C32373C41464B50555A5D006F
:1058C000183003001020304048000306090C0F1266
:1058D00015181B1E2124272A2D303336393C3F4210
:1058E00045484B4E515456625A5D00081018202806
:1058F00030384048505803060C183060C0603018EB
:105900000C0603060C183060C06030180C0104103F
:10591000024008200208401001044002080104105F
:105920002040020101020408102001020408102096
:1059300001020408102001020408100001020304FF
:10594000050607080A0C0E10121416181A1D20233B
:1059500026292C2F3235393D4145494D5155595E47
:1059600063686D72777C81868C92989EA4AAB0B68B
:10597000BCC3CAD1D8DFE6EDF4FBFFFFFBF4EDE6D4
:10598000DFD8D1CAC3BCB6B0AAA49E98928C868137
:105990007C77726D68635E5955514D4945413D397B
:1059A00035322F2C292623201D1A18161412100EFA
:1059B0000C0A080706050403020100FFFFFFFFFFB2
:1059C000FFFFFFFFFFFFFFFFFFFFFFFFFFFFFFFFE7
:1059D000FFFFFFFFFFFFFFFFFFFFFFFFF0E2D4C766
:1059E000BAADA1958A7E746A60564E453D352E2724
:1059F000211C16120D0A060402010000000000001E
:105A00000000000000000000000000000000000096
:105A10000000000000000000000000000000000086
:105A20000000000000000000000000000000000076
:105A30000000000000000000000000000102040659
:105A40000A0D12161C21272E353D454E56606A74EC
:105A50007E8A95A1ADBAC7D4E2F0FFFFFFFFFFFF3A
:105A6000FFFFFFFFFFFFFFFFFFFFFFFFFFFFFFFF46
:105A7000FFFFFFFFFFFFFFFFFFFFFFC03F3F3F3F75
:105A80003F3F3F3F3F3F3F3F3F3F3F3F3F3F3F3F26
:105A90003F3F3F3F3F3F3F3F3F3F3F3F3F3C38352A
:105AA000322E2B28262422201E1C1A1816141210FF
:105AB0000E0C0A080706050403020100000000009E
:105AC00000000000000000000000000000000000D6
:105AD00000000000000000000000000000000000C6
