:020000040000FA
:10000000C8060020D9000000E10000002106000021
:1000100000000000000000000000000000000000E0
:10002000000000000000000000000000E5000000EB
:100030000000000000000000E7000000254E000066
:10004000EB0000002108000000000000000000009C
:1000500000000000000000000000000000000000A0
:100060000000000000000000000000000000000090
:10007000000000006F34000000000000EB000000F2
:10008000EB000000E14D0000000000000000000057
:100090000000000000000000000000000000000060
:1000A000000000003D4E0000EB00000000000000DA
:1000B000EB00000063070000EB000000EB00000015
:1000C0000348854605F022F8004800479D040000DB
:1000D000C806002070472200044800470448004733
:1000E000FEE7FEE7FEE7FEE7FEE7FEE70178000039
:1000F000C1000000004800470900FF1FF8B502F0EA
:10010000C3FEF848017800297ED000240470F64A26
:10011000F6491068002806D0401E1060002802D161
:100120000C70F3480470F34A1078002808D0401E81
:10013000C0B21070002803D1EF480460EF4804708B
:10014000EF4A01261088002813D0401E80B210808C
:1001500000280ED1EB485123037089234370EA48ED
:100160000670EA4B1878002803D0401E1870022051
:100170001080E74D2868002856D0E648007800280F
:1001800000D02E60E44A09781278114301D000288B
:1001900002D02868401E28602868002844D104F056
:1001A0001BFE04F013FEDD48046104F002FD02F0C2
:1001B000E4FC02F018FDDA480168DA4A490849000F
:1001C00011430160642004F088FD00F0E0FAD64895
:1001D0000461C660C168C906FCD5D44E30690927E0
:1001E000FF06B8433061CF48D149801C086003F056
:1001F00034FA3461CF480221016030BF0460C54841
:1002000000780028FDD100E00EE000F0F8FA306937
:100210003843306104F0FEFD04F033FE02F029FCA7
:1002200004F0ACFDC4482860F8BD70B5AD48C349C2
:1002300002780024002A05D004700888002801D024
:10024000401E0880BE480069800718D5088800282D
:1002500015D1C82004F041FD04F0BEFD04F0B6FD48
:10026000AF480168AF4A490849001143016000F0F6
:100270005BFB04F006FE04F0CDFD04F07FFDB14D04
:100280002878012806D10822AF4900F0D7F90028C4
:1002900000D12C70AD4D2878012807D11022AC492F
:1002A000022000F0CBF9002800D12C70A94D28784D
:1002B00001280CD0A84D2878012807D10222A7498F
:1002C000104600F0BBF9002800D12C7070BD03224D
:1002D000A349022000F0B2F90028F7D12C7070BDBC
:1002E000F8B5A0488178002975D00025857004F004
:1002F00095FB9D499D4E0888002818D0401E80B26D
:100300000880002813D13078002802D0012803D0BB
:100310000DE002F034FF0AE002F032FF944800786A
:10032000002802D002F06BFF01E002F0BEFF91490D
:100330000878401CC0B20870322821D30D7069487B
:10034000012404708C490878002819D0401EC0B2DE
:100350000870002814D1894F3878C0438207884834
:100360000FD10278002A0CD004F0F1FA854804700D
:100370003D703078012803D103F02AF882480570D7
:1003800089E0824A1378DB439B070FD10378002B67
:100390000CD0157004F081FB7D480178012903D051
:1003A000047004F006FB76E00570FAE7794A1378EA
:1003B000DB439B0716D10378002B13D0157004F094
:1003C0006CFB55480178002906D0057004F0F1FA5D
:1003D00002F0CDFF5FE060E0047004F0EAFA02F0A2
:1003E00095FF58E06C4A1378DB439B070FD10378E5
:1003F000002B0CD0157004F050FB684801780029E0
:1004000001D0057000E0047004F0D3FA43E0644BBF
:100410001A78D743BF0711D10778002F0ED01D706F
:1004200004F03BFB5F480178012903D0047004F01D
:10043000C0FA30E0057004F0BCFA2CE005279743C1
:100440000FD1007800280CD01D7004F026FB564810
:100450000178012903D0047004F0ABFA1BE00570A9
:10046000FAE752480078972803D0982801D09928B5
:1004700011D1307801280ED1244A107800280AD0F2
:10048000401E1070032008701E4851210170892100
:1004900041701D48047001F063F8F8BD04F004FEDB
:1004A00000F022F9204C206A01210843206204F068
:1004B00065FC04F0E6FC04F0ADFC04F025FC03F060
:1004C00040F801F03FF804F061FD3948A061274C85
:1004D0002078012801D100F03BF9364D104E364FFF
:1004E0007BE00000960000208C00002070000020BF
:1004F00074000020750000208400002068000020A7
:10050000920000207A0000206D0000206B00002087
:1005100088000020770000206500002000E000E057
:10052000000001400000FA5A0000064000C00540EB
:100530000020064040200340701700007800002093
:10054000140100203D0000205D000020400000203C
:10055000910100203E0000203F00002048000020C4
:100560004A0000200000002090000020940000209D
:1005700033000020950000203400002035000020CA
:100580002C000020760000206C00002039000020A4
:1005900038000020370000203A00002066000020CC
:1005A000360000203C0000203B0000202A000020F4
:1005B00002C00000AA55FA5A9800002002F04DFA35
:1005C00003F078FF2078002802D0012805D102E04E
:1005D000FFF72BFE01E0FFF791FDF560FFF780FECE
:1005E00038780028ECD0E9E770B5114C6078401CF1
:1005F000C0B26070042812D30025657004F08BF936
:1006000004F000FA02F018FF2078401CC0B22070FD
:10061000042804D325700120A07004F037FA70BDBF
:10062000BFF34F8F04490348C860BFF34F8FFEE705
:10063000000000200400FA0500ED00E0F8B50646D1
:100640000D4617462448B10008180268002A01DB4D
:100650000220F8BD002E03D0042E01D8402F01D96E
:100660000420F8BD0068400F042801D00120F8BD27
:100670001A48805D002804D0304600F0AFF803200F
:10068000F8BD174808180068B84201D20520F8BD27
:10069000701E1449800008580090002414E0295D61
:1006A000641C285D00020843641C295D09040143A1
:1006B000641C285D00060843641C0146009800F095
:1006C000D7F90098001D0090BC42E8D3F9B230463B
:1006D00000F092F90020F8BD18C005400400002089
:1006E00000010020F0000020F8B500F076FD00F0D9
:1006F000EAFEF7480168102211430160F54C4021E1
:10070000A1608023E360C0252561E0266661F24890
:10071000016043608560C660F04801600821416067
:100720008260C1600161EB4DED48403D28600226CA
:100730006E611F27FF06322004F0A1FA2F61E948FD
:10074000E06240076062E8480660E8480660F8BD7D
:10075000E049002040390861E44902208031086006
:10076000704730B50124E04960070860FF22E04986
:10077000F9320A62DF4A1369C5122B431361002262
:100780008A61DA4980310860DB48047030BDD8489E
:100790000021C1604161491E0162FF21F93181617F
:1007A000D14980030860D149086070470120C949D8
:1007B000C0024039886070470120C6498002403934
:1007C000886070470120C349400240398860704703
:1007D000FF20C049013040398860704704280DD897
:1007E000BC4A8100283A8918002804D1B948403809
:1007F0004068C00102D4072040070860704710B568
:10080000BE480168012211430160BD48006800072D
:10081000000F052801D004F047FC00F0C5F910BD19
:1008200070B5AC4D403D6C680020C043A860002C02
:100830000DD0A0000ED5FFF7E2FF00F0ACF9E0010B
:1008400008D5022004F002FA00F001FC70BDFFF7A9
:10085000D6FF70BD2868A00F0BD0002C04DAFFF77C
:10086000CEFF00F07DF970BD6000FCD500F08DF981
:1008700070BD2002C00E18D0200202D500F0E7FBA8
:1008800070BD600202D500F026FC70BDA00202D54A
:1008900000F062FC70BDE002800FFBD00320C004BA
:1008A000A8600020FFF79AFF70BD2005000FFBD065
:1008B000E00501D5FFF78CFFA00501D5FFF782FF0A
:1008C000600501D5FFF778FF2005EDD5FFF76EFF36
:1008D00070BD00208B49401C8842FCD370471E200D
:1008E000401E411CFCD1704700B57A4A0620403AB0
:1008F0005061FFF7F4FF05205061FFF7EAFF5069F0
:1009000004218843506100BD7C480121C160002161
:1009100001617B4A7C491160C168C906FCD5016848
:100920007A4A114001607047F8B5724C2069022183
:1009300088432061674D403D6868400022D502F041
:100940008CFE04F036F902F018F902F04CF9704808
:10095000002707615E480168802291430160286991
:100960000921C90688432861634E3770FFF70FFFDE
:100970000A2004F07EF9FFF7C7FF6868400002D440
:10098000FFF73DFFF8BD63490420086030BFFFF763
:1009900036FF30780028F5D0377021695E488843EB
:1009A00007D120690121890488432061A0680128BA
:1009B00005D05A4914200880FFF796FFF8BDFFF7CD
:1009C00093FFF8BD43494039CA6B012383409A43E2
:1009D000CA637047042805D83E498000283940186A
:1009E000002101607047042805D83A498000283961
:1009F0004018090701607047042807D8354A80006D
:100A0000283A801805225207891801607047314939
:100A1000403148600220C860C8688007FCD48868FC
:100A20003F490860704700B50A46402A0ED2401E72
:100A300029498000085891084018FFF7E8FF9007FF
:100A4000C10E37480068C840C0B200BD002000BDDC
:100A500000B510290AD2401E1F4A80001058890094
:100A60004018FFF7D4FF2E48006800BD002000BDED
:100A7000184A4032506091600120D060D068C007B1
:100A8000FCD1704730B50B46402B15D2401E1249A1
:100A900080000858990845182846FFF7B8FF2048F5
:100AA00004689807C30EFF2098408443114699407C
:100AB00021432846FFF7DCFF30BD102932D2401E0B
:100AC000054B80001858890040181146D0E70000F7
:100AD00000E0054040C00540F0000020000100207B
:100AE000100000B00440000080E200E000E100E0FF
:100AF0000080044014010020030000200000064094
:100B000000200640145000000000FA5AFEFFFF0FBC
:100B100000E000E040200340800004007800002056
:100B20001C00002070470C4A90630B4802214030A3
:100B3000016001688907FCD4D06B084908607047E0
:100B4000054A9063D1630448012140300160016887
:100B5000C907FCD17047000040C0054018000020C4
:100B600010B50020FE4AC0439060FE490120086194
:100B700000208860D060FFF731FE01242046FFF797
:100B800029FF641C042CF9D910BDF6480169022222
:100B9000114301617047F348016904221143016167
:100BA000EF49D00688607047ED4801690922D206F6
:100BB0001143016101214906816070470120E84924
:100BC00080068860704710B5E64CA06801280CD1FB
:100BD000E54A002000211154401C0428FBD920794B
:100BE000012802D8A278002A03D00020FFF7F6FDE2
:100BF00010BDDE4A1154FFF7E5FE2069012109040A
:100C00000843206100210846FFF7F6FE10BD10B52D
:100C1000D44CA068012814D12078812811D12079E2
:100C200001280ED8D149095C0020FFF789FF20690F
:100C30000121C9030843206101210020FFF7DCFEE8
:100C400010BD0020FFF7CAFD10BDF8B5C64DC54E5A
:100C50003069800607D5B0781021012400270028CC
:100C600005D0012819D00020FFF7B8FDF8BDB76006
:100C70003069084330610127EC553846FFF7AAFE7A
:100C80007F1C042FF8D93069012109040843306121
:100C900000210846FFF7B0FEF8BDB4603069884314
:100CA000306100242F55002C0CD02046FFF79BFE0E
:100CB000AB480069611EC840C00703D00021204630
:100CC000FFF79AFE641C022CECD93069012109045B
:100CD0000843306100210846FFF78EFEF8BD70B56D
:100CE000A04DA9680020FFF72BFFA868012806D1B6
:100CF00001242046FFF777FE641C022CF9D99C489A
:100D0000002101602869032189030843286101212A
:100D10000020FFF771FE70BD10B50020FFF75EFDEB
:100D200010BD10B50446180612041043090208430A
:100D3000204310BDF8B58F4F3C688A488C4EC08860
:100D40003168884200D23060306800281DD000250C
:100D5000E378A27861782078FFF7E3FF0146A800E6
:100D6000FFF7EEFE241D6D1CEDB2102DF0D33068A0
:100D700040280FD340210020FFF73EFE3868403066
:100D80003860306840383060F8BD00210846FFF711
:100D900033FEF8BD3068C1B20020FFF72DFE002001
:100DA0003060F8BDF8B5002400206E49724BCA7857
:100DB0000D798F780C26014671435E5CB24211D1E9
:100DC000C9184E78B5420DD18E78B7420AD10C229F
:100DD0005043C0188288664802606648896801608E
:100DE000012402E0401C1028E4D3002C08D05D4907
:100DF00008690122D20310430861FFF79BFFF8BD89
:100E00000020FFF7EBFCF8BD10B556480169202320
:100E100099430161016940221143016181780029F0
:100E200002D002691A4302610173016901221204AE
:100E30001143016100210846FFF7DEFD10BD70B5CA
:100E4000484D28784406640E000602D50020FFF7BE
:100E5000C5FC002C05D0022C0FD00020FFF7BEFCF3
:100E600070BDA8780128FBD128694449084328614E
:100E700000210846FFF7C0FD70BDA8780028FBD10F
:100E800028794006400E411E0129F5D8A96801299C
:100E9000F2D1354A1154FFF7A1FC28690121090458
:100EA0000843286100210846FFF7A6FD70BD70B514
:100EB0002C4D28784406640E000602D50020FFF76A
:100EC0008DFC002C1AD0022C17D1A878002814D140
:100ED00028794006400E0022234BE10300281ED053
:100EE00002280AD8AC68012C07D11A542869084393
:100EF000286100210846FFF77FFD70BDA878012812
:100F0000FBD1286980218843286128691B498039E1
:100F10000843286100210846FFF76EFD70BD28696F
:100F20008006FBD51A70286908432861002108460D
:100F3000FFF762FD70BD70B50A4D28784406640E57
:100F4000C00901D1FFF74AFC0126F603002C26D088
:100F5000012C38D0022C21D128794006400E0FE018
:100F600000C00540140100200400002014000020EF
:100F7000100000200C000020305300008001010010
:100F800002280BD8A349095C0020FFF7D9FD286986
:100F90003043286102210020FFF72EFD70BD286933
:100FA000000604D502210020FFF7CAFD03E000215E
:100FB0000846FFF7C5FD286930432861022100205B
:100FC000FFF71AFD70BDA8680128FBD168790028D9
:100FD000F8D128790128F5D800210846FFF7B0FD9F
:100FE00028693043286102210020FFF705FD70BD0C
:100FF00010B589484078030004F09AF80C070A25D8
:101000000D25101316191C1F2225FFF794FF10BD84
:10101000FFF74DFF10BDFFF712FF10BDFFF7F4FE05
:1010200010BDFFF7BFFE10BDFFF776FE10BDFFF746
:1010300056FE10BDFFF709FE10BDFFF7E8FD10BD1D
:10104000FFF7C1FD10BD0020FFF7C8FB10BD7CB548
:101050003320724CC004A0600020FFF7C4FC60681D
:10106000400331D46C4C20690321C90388432061BB
:101070000020FFF758FD6A4D286801900420FFF713
:1010800052FD286800900198C0B220700199090AA9
:1010900061700199090CA1700199090EE170009924
:1010A00021710099090A61710099090CE1806021A0
:1010B0000840002802D0202803D008E0FFF798FF5E
:1010C0007CBD00F0CEF97CBD01208004A060002032
:1010D000FFF784FB7CBD70B50120504E8005B060E9
:1010E000504DA87C022815D10020A87468694E498B
:1010F00088420DD1A8694D49884209D10024A00039
:101100000021FFF71DFD641C402CF8D3FEF7F2FF11
:101110000420A874404C2069454D40060CD5206938
:10112000402188432061207BF0600020FFF756FBC0
:101130002069A843206170BDE088002808D020699C
:10114000C00305D4FFF7F6FD2069A843206170BDF8
:101150000020FFF743FB70BDF8B501212F4849057A
:101160008160304DA87C2E4E012819D0686D800515
:101170000DD5686D0913884368650020FFF7D3FC1F
:1011800030682870686D0121490308436865224C66
:101190002069000412D400210846FFF72DFC16E058
:1011A0000024A0000746FFF7BEFC306879194861AB
:1011B000641C102CF5D30220A874E8E71748416896
:1011C000C90104D481690122D206114381612069D9
:1011D0000121C90388432061F8BD00200D4A002188
:1011E0001154401C0528FBD30020124A1154401C06
:1011F0000428FBD30848017041708170C1700171EF
:101200004171C1808160017301690122520411435F
:1012100001617047040000201401002000C0054057
:101220001800002028010020AA42895AFF7162CCD0
:10123000000001001400002010B5A74A10782128F2
:101240001BD1A649486D01231B031843486510793B
:10125000012812D89078002804D14B6D0324A402F1
:10126000A3434B65487410690121090408431061C8
:1012700000210846FFF7C0FB10BD0020FFF7AEFAC3
:1012800010BD10B594480178212914D101690122BB
:1012900012041143016191494A6D0123DB021A4393
:1012A0004A650279012A06D8C078087400210846E8
:1012B000FFF7A2FB10BD0020FFF790FA10BD10B59C
:1012C00086490120887400210846FFF795FB10BD70
:1012D00010B58148016901221204114301617F4860
:1012E000416DD2111143416500210846FFF784FB8F
:1012F00010BD10B578480178212907D1017900295E
:1013000004D1C078022805D0032806D00020FFF7BA
:1013100065FA10BDFFF7DCFF10BDFFF7D0FF10BD71
:1013200010B56D4C2078A12816D16C48416DC904C8
:1013300001D401214174217901290DD8417C00207B
:10134000FFF7FEFB20690121C90308432061012149
:101350000020FFF751FB10BD0020FFF73FFA10BD42
:1013600010B55D4C2078A12808D15C48416D012260
:10137000D202114341652179002903D00020FFF7F3
:101380002DFA10BD017C0020FFF7DAFB2069012156
:10139000C9030843206101210020FFF72DFB10BD88
:1013A00010B54F49002008604B4801690122D20363
:1013B0001143016105210020FFF71EFB10BD10B590
:1013C00000210846FFF718FB10BD10B5434801780F
:1013D0000020FFF7B5FB404801690122D203114309
:1013E000016101210020FFF707FB10BD10B53C494A
:1013F00000200860384801690122D20311430161CD
:1014000008210020FFF7F8FA10BD10B53248017826
:10141000A1291FD1816801291CD10179C078002937
:1014200002D0012910D015E0012804D0022805D0EF
:10143000032806D00EE0FFF7D9FF10BDFFF7C5FF68
:1014400010BDFFF7BCFF10BD2449497C012901D123
:10145000012803D00020FFF7C1F910BDFFF7A0FF5E
:1014600010BD10B51C484078030003F061FE0C1954
:10147000070A0D191919191910131619FFF7C5FFC5
:1014800010BDFFF76DFF10BDFFF74AFF10BDFFF75E
:1014900030FF10BDFFF7F5FE10BDFFF7CDFE10BD0C
:1014A0000020FFF79BF910BD10B50D490020086022
:1014B000094801690122D20311430161052100207D
:1014C000FFF79AFA10BD05487D210174012141748E
:1014D000002181744165704714010020280100201B
:1014E00010000020F8B51420FC4EFD4D0127401ED1
:1014F000C0B200243168490600D5012431680906CC
:1015000001D502210C436979A14204D0022003F0E5
:10151000E4FB6C7114200028E9D16879F149C30714
:101520000022002B01D00F7000E00A70EC49203936
:10153000CF74830700D5CA74CB7C002B00D0CA734C
:10154000A871F8BDE64900201D3148700320133909
:1015500008700220891E0870E34901200870C1E765
:10156000F8B50020DD490A68520600D50120096857
:10157000090601D502210843D94C6179814203D083
:101580000A21E1716071F8BDE0790028FBD0401EAE
:10159000C0B2E0710028F6D1A0790D464540002D7B
:1015A000F1D0A171E8070026CE4F002813D0C8075C
:1015B0000AD00120387003F0FCF901F0E1FDFFF7DB
:1015C000C7F8CA48067006E03E7003F0F2F901F071
:1015D000D6FDFFF789F8A807D5D5C14801212038E5
:1015E000C1746179890700D5C67439780129CAD1D7
:1015F000C07C002802D001F002FEF8BD01F055FECB
:10160000F8BD30B5B848B64B1138203BDA79815C6B
:101610009878414019710024002915D05979022287
:1016200000290BD0DD7885420BD1491EC8B2587114
:10163000002802D1DC700120587030BD5A71D8707A
:1016400030BD5A71D87030BD5C71521CD0B2D871A7
:101650001128F8D3DC7130BD10B5A148A249C37878
:1016600000221031002B10D0C27042780A708078AE
:10167000002816D001281CD0022822D0032803D12C
:1016800040229B4801F0B7FB10BD42700123C3709C
:101690009848028000200A54401CC0B23C28FAD36B
:1016A00010BD9149192040221031800201F0A3FBA6
:1016B00010BD8D498E4840221031803801F09BFBCF
:1016C00010BD8949C92040221031C00101F093FBAF
:1016D00010BDFEB5824A00241646D378203E317BE9
:1016E000707B9C46002B1DD000291BD1B57AAF2DF5
:1016F0000DD03A2D0BD03B2D09D03C2D07D03D2DE0
:1017000005D053783C2B03D3B47203F0C6F9FEBD69
:101710005B1CDBB2744F1037FD545B1CDBB25370A3
:10172000F854B47263460125002B03D0002901D080
:10173000012855D00128EAD1B07A4D286DD09C28D7
:1017400078D0F22872D066496B4B2039C97E01915E
:101750006A49374609781E788C46D32867D03946BF
:10176000E8286FD0E9286ED0EA286DD00F4664498A
:10177000EB28097800916349097872D0EC2871D080
:10178000ED2870D0EE286FD05F4ED02837786CD01F
:10179000534E203ED82869D0D92868D0F12867D088
:1017A0005A4ED72836786FD0D6286ED04C4E203E71
:1017B000D4286BD0D5286AD0932869D0942868D0D3
:1017C000952867D096287DD0DC287CD0DD287BD07A
:1017D000DE287AD0DF289AD14A48042976D18BE2D4
:1017E000B07A932806D0942808D095280AD0962855
:1017F0000DD010E09470FFF72FFF0CE09570FFF70D
:101800002BFF08E002209070FFF726FF03E0032083
:101810009070FFF721FFB472FEBD0129FCD1B472B4
:10182000B07C002804D0B474FEBD03E00DE020E0DD
:10183000B574F9E736480178002901D00470F3E760
:101840000570F1E771E082E095E0B4723149087803
:10185000401CC0B20870092800D30C7002F0F2FEE0
:10186000E2E79CE00EE121E134E147E1B1E1B4E1DE
:10187000B7E1BC72284800780028D5D1019800282B
:1018800009D003F00AF9CFE7AFE1C2E1D5E1E3E126
:10189000F1E1F4E1F7E1761CF0B21870112800D301
:1018A0001C703121154862464902012A3AD0CA7893
:1018B000027009791548017001F024FE174805707F
:1018C000174804E0E4E1E8E1F6E105E216E204701D
:1018D00002F03CFD03F06DF8A6E7000000A0044014
:1018E0004000002094000020910100206C000020A6
:1018F000C0640000BE0000209D000020A900002060
:10190000AF000020AE00002098000020AB000020B7
:10191000B000002099000020B1000020AD000020A0
:10192000B200002005220270C3E78C72002E09D09D
:10193000012E09D01C70F748047002F007FD03F077
:1019400038F871E71D70F6E719201870F3E78C720C
:10195000022E0AD0042E0BD002201870ED4804701D
:1019600002F0F4FC03F025F85EE704201870F5E7B8
:1019700003201870F2E78C720D2E0AD00B2E0BD0BC
:101980000D201870E348047002F0E0FC03F011F839
:101990004AE70B201870F5E70C201870F2E7BC72CC
:1019A000112E02D01120187067E0009ADA48002A40
:1019B00015D0047001291DD0022921D0032926D079
:1019C00004292BD0052930D0062935D007293AD053
:1019D00008293FD0092944D0002948D04DE005709E
:1019E000CE4804800020CE490C54401CC0B21328BD
:1019F000FAD319E71822CA49CA4801F0FCF93CE0B9
:101A0000C8481822C649203001F0F5F935E0C52054
:101A10001822C349C00101F0EEF92EE0C148182296
:101A2000BF49603001F0E7F927E0BE481822BC4901
:101A3000803001F0E0F920E0BA481822B849A0301F
:101A400001F0D9F919E063201822B549000201F02C
:101A5000D2F912E0B3481822B149E03001F0CBF9D5
:101A60000BE01822AE49B04801F0C5F905E0AE48D8
:101A70001822AB49203001F0BEF902F067FC02F0F9
:101A800098FFD1E6BC72082E0AD0092E0BD0082090
:101A90001870A048047002F059FC02F08AFFC3E6F7
:101AA00009201870F5E70A201870F2E7BC720E2EB4
:101AB0000AD00F2E0BD00E2018709648047002F03A
:101AC00045FC02F076FFAFE60F201870F5E7102016
:101AD0001870F2E7BC72052E0AD0072E0BD0052035
:101AE00018708C48047002F031FC02F062FF9BE633
:101AF00007201870F5E706201870F2E78B4884720B
:101B0000132FBED1009A8448002A1BD004700129EB
:101B100022D0022926D003292BD0042930D0052930
:101B200035D006293AD007293FD0082944D00929C1
:101B300049D00029A5D17C4818227949203001F0EC
:101B40005AF971E602F0B2FF002075490C54401CAE
:101B5000C0B21328FAD367E618227149714801F020
:101B60004AF961E66F4818226D49203001F043F9C7
:101B70005AE6C52018226A49C00101F03CF953E633
:101B8000684818226649603001F035F94CE665482E
:101B900018226349803001F02EF945E66248182288
:101BA0005F49603801F027F93EE6632018225C495E
:101BB000000201F020F937E65B4818225849203826
:101BC00001F019F930E618225549574801F013F988
:101BD0002AE6B4724F48057026E6B4724D48047088
:101BE00022E6B472B57354701EE650488472504CAD
:101BF000012E0BD9761E26704E48057002F0D9FED4
:101C0000207801289DD102F048FF0DE602F045FF43
:101C10000AE646488472464C052E0BD2761C267086
:101C20004448057002F0C5FE2078052889D102F0ED
:101C300034FFF9E502F031FFF6E5B47201980028AF
:101C400089D13D486146052985D2491C017001F0C2
:101C500059FC02F0AEFEE7E5B4720198002887D186
:101C60003548614601298AD9491E017001F04AFCB4
:101C700002F09FFED8E59470FFF7EEFCD4E5957076
:101C8000FFF7EAFCD0E502209070FFF7E5FCCBE51A
:101C900003209070FFF7E0FCC6E52848012901D138
:101CA000132F88D00570264804701120187002F098
:101CB0004DFB02F07EFEB7E52048022901D1132F2B
:101CC00086D0022101701E4804701120187002F0A5
:101CD0003DFB02F06EFEA7E51848032901D1132F42
:101CE00093D003210170164804701120187002F07F
:101CF0002DFB02F05EFE97E5132F86D004210170C4
:101D00000F4804701120187002F020FB02F051FE01
:101D10008AE50000B2000020AF000020BE000020D5
:101D2000D402002040620000406300002000002038
:101D3000AB000020AD000020A9000020AE00002074
:101D400098000020F8B5F64900248B7A08461E2535
:101D5000407BD22B0CD0F34A0126F34F097D127839
:101D6000972B0CD0982B26D0992B41D00120F8BD71
:101D7000002801D00D7500E00C750020F8BD012A87
:101D800017D1002811D0E948067002F012FEE4488D
:101D90000575E7490320087051203870812078705C
:101DA000E4480670E448047003E0DD48002900D0F0
:101DB00004750020F8BD012A18D1002812D0DB4894
:101DC0000221017002F0F5FDD5480575D8480321C0
:101DD00001705120387082207870D6480670D6483D
:101DE000047003E0CE48002900D004750020F8BD3F
:101DF000012A18D1002812D0CC480421017002F029
:101E0000D8FDC7480575CA490320087051203870AD
:101E100083207870C7480670C748047003E0C04844
:101E2000002900D004750020F8BD10B50020BC4981
:101E3000C24B897AC24A05E044001C5D8C4205D041
:101E4000401CC0B21488A042F6D3FF2010BDF0B5EC
:101E5000B34CBC4D607BBC4EBC4F002852D0FFF74A
:101E6000E4FFFF2817D0E17C002915D0217B002951
:101E70003CD0217E002934D0B54942005118497820
:101E8000A172A74AC10835324407B248640F535CB7
:101E9000005D03435354F0BD217B002916D0217F00
:101EA00000290ED0410089194978A1729C4AC108C5
:101EB00035324407A748640F535C005D0343535415
:101EC000F0BD410049194978A172EFE7217F00294F
:101ED00003D04000305CA072F0BD4000285CA072CE
:101EE000F0BD4100C9194978A172CAE7217E0029D5
:101EF00004D041009648405CA072F0BD4000385CC0
:101F0000A072F0BDFFF791FFFF28FAD0844AC10804
:101F10008C463532515C43078E4A5B0FD25C1142CE
:101F200022D0E37C002B0DD0237E002B17D0430062
:101F3000874818184078A072794835309143624636
:101F40008154F0BD237F002B04D0400080194078DD
:101F5000A072F1E7400040194078A072ECE7400021
:101F6000C0194078A072E7E7E17C002907D0217E04
:101F700000290FD041007648405CA072F0BD217F5F
:101F8000002903D04000305CA072F0BD4000285C06
:101F9000A072F0BD4000385CA072F0BDF8B56E488C
:101FA00000250580644801786C48002902D06C49FE
:101FB000016002E0FF2191310160594CA07A0028B4
:101FC00066D0E17C26463D36002925D0A32808D0DE
:101FD000A22809D0A7280AD0A6280BD046280CD0C2
:101FE0001AE0A220A07217E0A320A07214E0A6209D
:101FF000A07211E0A720A0720EE02120A072484834
:10200000617B3D300078002903D00A2108433070FD
:1020100002E0F52108403070FFF719FF2146A07A51
:102020000124AE282DD01E27E52834D0AC2846D078
:10203000E32859D0AB286BD0E7286AD0E22869D0D2
:10204000AD2868D0E42867D0E62866D0E02865D0BF
:10205000E12864D0FFF776FE002819D0304F3D7597
:10206000FFF737FBBB7A002B12D039469A2B79D079
:10207000D12B78D0F7200822862B75D0872B74D0EF
:102080006BE1487B012803D1487C012801D04C74C6
:10209000F8BD4D74F8BD487B00280AD0087B0028A5
:1020A000F8D0487D20434875C0438007F2D10F75B2
:1020B000F8BD487D4008400048750D75F8BD487B67
:1020C00000280BD0087B0028F8D0487D022210435E
:1020D0004875C0438007F1D10F75F8BD487D800871
:1020E000800048750D75F8BD487B00280AD0087B34
:1020F0000028F8D0887D20438875C0438007F2D13E
:102100000F75F8BD887D4008400088750D75F8BDD5
:102110002CE040E063E07AE092E0A5E0B9E0CCE0BA
:1021200020000020940000207A000020760000208B
:102130006B0000206D0000206C0000201455000092
:10214000D60000008C540000D05400005855000008
:102150009C550000305600009200002088000020AE
:1021600070170000BFE0DAE0E3E0EFE0487B002812
:102170000BD0087B0028CAD0887D022210438875C6
:10218000C0438007C3D10F75F8BD887D80088000EB
:1021900088750D75F8BD487B00281DD00E46887DDA
:1021A00004210843B075052211468143FD4807D03C
:1021B000F17E0029EED1017800290BD00570F8BD21
:1021C0000570F9480178012902D1027001F09AF9ED
:1021D0003775F8BD0470F8BD8D750D75F8BD487B79
:1021E00000280ED0087B0028F8D0C87D2043C87591
:1021F000C0438007F2D1ED4800780128EED10F7579
:10220000F8BDC87D40084000C8750D75F8BD487B15
:1022100000280FD0087B0028F8D0C87D0222104388
:10222000C875C0438007F1D1E04800780128EDD19E
:102230000F75F8BDC87D80088000C8750D75F8BDA4
:10224000487B00280AD0087B0028F8D0487E20432D
:102250004876C0438007F2D10F75F8BD487E40082C
:10226000400048760D75F8BD487B00280BD0087BF0
:102270000028F8D0487E022210434876C0438007E9
:10228000F1D10F75F8BD487E8008800048760D7545
:10229000F8BD487B00280AD0087B0028F8D0887E4B
:1022A00020438876C0438007F2D10F75F8BD887E41
:1022B0004008400088760D75F8BDBD49487B002870
:1022C0000BD0087B0028F7D0887E02221043887646
:1022D000C0438007F0D10F75F8BD887E800880006C
:1022E00088760D75F8BD8D72487B0128FAD1AF490B
:1022F0000878002809D00128F4D10D7002F059FBAC
:1023000000F03DFFFEF7F0F9F8BD0C7002F051FB54
:1023100000F036FFA7480570FEF71AFAF8BD487BB3
:102320000128FBD1C87B012801D0CC73F8BDCD7347
:10233000F8BD4B7B012B05D03378034033702B2045
:1023400088720AE0307810433070F8E74B7B012B3D
:1023500007D03378034033708A72C87B012804D0D9
:102360000AE0307810433070F6E7887AA328DFD08F
:10237000A728DDD06528DBD0887AF72816D0F82882
:1023800008D30B7C8C4F002B1AD04007000FC019CC
:1023900040788872887AAF2817D0F32824D0F428A0
:1023A00072D0864A1278132A6FD019E1487B01282F
:1023B000BED1087C002801D00D74F8BD0C74F8BDA6
:1023C0004007000F385C8872E4E78C710D73487B1E
:1023D000012800D10C73CA7C002AF0D04C77F5712B
:1023E0000028ECD0F471F8BD487B0128FBD1C87CF3
:1023F00000284BD00F464C77F4716C4800780028C9
:1024000026D000F041FD0A2002F067FC7C77002016
:10241000F071664D2878002821D000F035FD0A20A3
:1024200002F05BFC7C77F471287800281ED000F065
:102430002BFD0A2002F051FC7C770020F0712878F7
:1024400000281AD000F020FD0A2002F046FCF8BD5A
:10245000574908223D310120FEF7F0F8D3E75449EF
:1024600008223D310120FEF7E9F8D8E7504908225B
:102470003D310120FEF7E2F8DBE74D4908223D310E
:102480000120FEF7DBF8DFE72AE0A5E001200C469B
:10249000487732700B20B070444F3878002811D044
:1024A00000F0F2FC0A2002F018FC01206077357081
:1024B000B570387800280CD000F0E6FC0A2002F055
:1024C0000CFCF8BD3A4908223D310120FEF7B6F870
:1024D000E8E7374908223D310120FEF7AFF8EDE784
:1024E000487B0128EDD1C87C00283BD04C77B570E3
:1024F000F4712E48007800281FD000F0C5FC0A2097
:1025000002F0EBFB2A4844772C20B070F471274F7F
:102510003878002818D000F0B7FC0A2002F0DDFB64
:1025200023484477B570F5713878002813D000F04F
:10253000ABFC0A2002F0D1FBF8BD1D4908223D3159
:102540000120FEF77BF8DAE7194908223D31012026
:10255000FEF774F8E1E7164908223D310120FEF745
:102560006DF8E6E727460C464F7711483D3002707C
:10257000062181700D4E3078002821D000F084FCB7
:102580000A2002F0AAFB677709483D300570857084
:10259000307800281AD000F077FC0A2002F09DFB6A
:1025A000F8BD0000B1000020A90000209400002028
:1025B0002000002072000020E0550000980000205C
:1025C0000822FE490120FEF739F8D9E70822FB4925
:1025D0000120FEF733F8E0E7F94A1278012ADFD04C
:1025E000F64A133AB02810D3032313708C77497B33
:1025F000012902D055709570D2E7B038F1494000FA
:10260000085A5070000A9070CAE7EF4FA82817D3F5
:10261000CC77022313704A7BE8491539012A08D088
:102620003818C038007E4A78FF23584002404A706C
:10263000B6E73818C0384A78007E02434A70AFE7E0
:10264000A02813D34C77497B012908D04007400FBD
:10265000385C3278FF21484002403270A0E74007E2
:10266000400F3178385C0143317099E7D34B4A7B96
:102670001D3B9C46012A0DD0CA7A002A4DD01D333D
:102680000E4699188B7883422CD18D707477521E28
:10269000F27242E0CA7A052A11D2002A09D0002338
:1026A00005E0F518AD788542A6D05B1C9BB293423D
:1026B000F7D3B3189870521CCA724C7770E7C349AD
:1026C0000978012998D0782896D261460C70C049C3
:1026D0000C70C20851184007400F4A78385C02431A
:1026E0004A705DE70021B54B15E05E18B67886426A
:1026F0000FD1B24F3D3F04E05818C6788670491C90
:1027000089B29142F8D3581885707C77521EFA72BC
:1027100046E7491C89B29142E7D3782888D2AB4971
:102720000978012984D061460C70A9490C70C2084F
:1027300051184007400F385C4B78FF22504003404F
:102740004B702DE770B500209C4B3D3B1978491C20
:10275000C9B219701E2929D300241C70997B012944
:1027600024D1194620318A78002A06D0012A07D0C0
:10277000022A07D0032A08D009E01920800206E0C7
:10278000944804E0C920C00101E0924880304A78B2
:10279000855C002D0BD0845C9C72521CD2B24A70B6
:1027A000805C5873521C4A70FFF7F8FB70BD9C7335
:1027B00070BDF0B5814901201D3908718648874FE9
:1027C000067808462038417A407B4900CD19844C70
:1027D000844A0D2E03D0844B0F2E0DD045E0795C3A
:1027E0006B78C9000919C95C002802D0FE2050543A
:1027F000F0BDFD205054F0BD002836D0785C6978DB
:10280000714D695C794E355C0D4335541D5C0D434B
:102810001D540120374639182039CD7F3E5C3543A1
:10282000CD771321091ACE18203E5D5CF67F354323
:102830005D54401CC0B21328EDD30021FF256B4826
:10284000435C6948405C03430020CE003619DF0733
:1028500001D0375CD5555B08401CC0B20628F6D3C2
:10286000491CC9B21329EAD3F0BD0E2E02D0112E95
:102870000DD03FE0795C6B78C9000919C95C00286C
:1028800002D000205054F0BD01205054F0BD00286B
:1028900030D0785C69784C4D6D5C54490E5C2E43A9
:1028A0000E541E5C2E431E54514F3E5C2E433E542C
:1028B000504E375C2F43375400204C494D4D0B5C34
:1028C00049492D5C095C0B434949095C29430B4389
:1028D0000021C5002D19DE0702D06F5CFF26D655FA
:1028E0005B08491CC9B20629F5D3401CC0B21328A5
:1028F000E3D3F0BD132E11D100280FD0304800785B
:102900000128F6D1785C69783B4C0125235C2A4686
:102910008A405340235439480570F0BD102E1ED113
:1029200000281CD0785C314D3F21295419540021D6
:10293000FF252E48445C585C04430020284FCE00FD
:10294000F619E70701D0375CD5556408401CC0B2C2
:102950000628F6D3491CC9B21329EAD3F0BD122EBA
:10296000FCD10028FAD0795C6878FE23CD002D19BF
:102970002E5C9355002909D04E1EF6003619375C9F
:10298000D355052802D2361876789355002803D0FF
:102990002E18203EF67F9355052802D22D186D780B
:1029A00053551229DAD2491CC90009190C5C135578
:1029B0000028D3D008182038C07F21E05D00002017
:1029C000AF000020F05500003056000094000020B9
:1029D000910100204064000098000020275700006B
:1029E00077580000FC030020710200205E020020E6
:1029F0008402002097020020D4020020A7000020BB
:102A00001354F0BD70B5D14CD149E279A078885407
:102A1000002525722079C00712D0E079217AC00004
:102A2000401860726573A078C00701D00120607300
:102A3000FFF7BFFEC748617A405CA072FFF7AEFAAD
:102A4000A0784008A070207940082071207A401CAE
:102A5000C0B220720828DDD370BD10B5BB4C6078C1
:102A6000002805D0FFF7CEFFFFF76CFE0020607056
:102A700010BDB9484168090C09044160B748416874
:102A8000490849004160704700B5B0480122C1794A
:102A9000B1480B0002F04CFB110A0E13181D22273F
:102AA0002C31373D43494F545A600D00416A114360
:102AB000416200BD416A02221143416200BD416A88
:102AC00004221143416200BD416A08221143416260
:102AD00000BD416A10221143416200BD416A2022BB
:102AE0001143416200BD416A40221143416200BD71
:102AF000416A80221143416200BD416AFF220132D6
:102B00001143416200BD416A0122520211434162F8
:102B100000BD416A012292021143416200BD416A37
:102B20000122D2021143416200BD416A0122120317
:102B30001143416200BD8948416A1143416200BDB1
:102B4000416A012252031143416200BD416A0122E0
:102B500092031143416200BD416A0122D203114335
:102B6000416200BD7C480168090C090401607B4892
:102B70000168490849000160704777484168784A10
:102B8000114341607548416801221143416070471B
:102B900010B50024FFF7F1FFFFF7E4FFFFF774FF24
:102BA0000A2002F085F86F480168090700D5012462
:102BB0000168C90601D502210C430168890601D5C7
:102BC00004210C430168490601D508210C43016822
:102BD000090601D510210C430068C00501D520204D
:102BE0000443204610BD5C4801685D4A1143016002
:102BF0005A480168012211430160704700B55348EB
:102C00000122C17954480B0002F092FA110A0E1306
:102C1000181D22272C31373D43494F545A600D006F
:102C200041681143416000BD416802221143416087
:102C300000BD416804221143416000BD4168082283
:102C40001143416000BD416810221143416000BD45
:102C5000416820221143416000BD41684022114378
:102C6000416000BD416880221143416000BD416860
:102C7000FF2201321143416000BD4168012252022E
:102C80001143416000BD416801229202114341603D
:102C900000BD41680122D2021143416000BD41687C
:102CA000012212031143416000BD2C4841681143C9
:102CB000416000BD4168012252031143416000BDE3
:102CC0004168012292031143416000BD4168012225
:102CD000D2031143416000BDF0B51C4A2249937AEA
:102CE0005807400F095CD808204E557B5C001746FA
:102CF000A3193537002D0AD015462D352D5C0D4210
:102D000002D0957C002D1BD0305D9072F0BD0F4D30
:102D100035352D5C0D4208D00C4CFF263534714002
:102D20000D40255458789072F0BD137B012B04D1CF
:102D3000064B2D331D5C0D431D54305D9072F0BD6C
:102D40003C5C0C433C5458789072F0BD200000204D
:102D500080010020E45300000040044000A0044033
:102D6000FFFF000000800440305600008C5400003B
:102D7000F8B500203449002642008E52401C80B233
:102D80008A28F9D3022001F0A8FF002403272F4D41
:102D90007F030020A1010A18D21912782A54401C7E
:102DA00080B24028F7D3312040020818274A40213A
:102DB00002F09FF801281CD0641CA4B2082CE8D3B0
:102DC00024492348C86000202E54401C80B240286B
:102DD000FAD300241925AD02A00140191B4A402155
:102DE00002F087F8012805D0641CA4B2042CF3D3A8
:102DF000F8BDFEE7FEE770B50B4614460021134A06
:102E000003E05D5C5554491C89B2A142F9D30F4AD5
:102E1000214602F06EF8012800D1FEE770BD70B5C2
:102E20000B4614460021094A03E05D5C5554491CD9
:102E300089B2A142F9D3054A214602F05AF8012885
:102E400000D1FEE770BD0000E802002086040020EB
:102E5000AA55FA5A00000140FE4932200880FE4976
:102E600000200870FD48012101724B21C900416218
:102E70007047F94900200870F8490120C871FF2007
:102E8000F4492D3008807047F0B5F548F34A0778CB
:102E9000F4485678F44CF54D00210123002F2AD038
:102EA000002E28D0EE4E3170466A02273E4346621D
:102EB00009209071A12020800020ED4C265C401C50
:102EC000E94C4700E653C0B20828F6D3E868C006CC
:102ED000FCD42868C0242043286028680006800F9E
:102EE0000328FAD0E0480088E8619361D16151700D
:102EF000C8209070B1E0DF4F3F78002F2AD0002E1D
:102F000028D0DC4E3170466A02273E4346621020CC
:102F10009071A22020800120D74C4700265CD24C23
:102F2000E653401CC0B21028F6D3E868C006FCD4B3
:102F30002868C0242043286028680006800F0328E2
:102F4000FAD0C9480088E8619361D1615170C82006
:102F5000907082E0C94F3F78002F23D0002E21D0FF
:102F6000C64E3170466A02273E4346620320907186
:102F7000A3202080C24E7778A780B6786680EC6860
:102F8000E406FCD42C68C02634432C602C6824064C
:102F9000A40F032CFAD0E8619361D1615170C8206D
:102FA00090705AE0B74F3F78002F29D0002E27D0DD
:102FB000B44E3170476A0226374347629671A420A7
:102FC00020800120B04C4700265CA74CE653401CF3
:102FD000C0B20228F6D3E868C006FCD42868C02432
:102FE0002043286028680006800F0328FAD09E48F6
:102FF0000088E8619361D1615170C82090702CE025
:103000005779002F29D0002E27D05171466A022708
:103010003E43466203209071A620208000208F4C02
:103020001234265C401C904C4700E653C0B2022884
:10303000F5D3E868C006FCD42868C0242043286083
:1030400028680006800F0328FAD087480088E861C6
:103050009361D1615170C82090701078002814D00D
:1030600081488A4F403004884088B12C02D1D5690C
:10307000022D05D07C4D4035AD88B62C06D00CE035
:103080001170D1614007400F3870F0BD5A2804D14B
:10309000062D02D1D669032E02D0B62C08D00EE040
:1030A0001170D1614B20C0009082FFF7E2FEF0BDAD
:1030B0005A2804D1072D02D1D669032E02D0B62C8E
:1030C00004D00AE01170D161D373F0BD5A2804D145
:1030D0000A2D02D1D669032E02D0B62C07D00DE0FE
:1030E0001170D161D171918269480170F0BD512890
:1030F00004D1772D02D1D669032E02D0B62C07D089
:103100000DE039701170D170D161FFF7A5FEF0BDEF
:10311000512804D1762D02D1D669032E02D0B62CC7
:103120000BD011E01170D1611172516213735948C3
:103130000170137158481062F0BD512804D1782DE8
:1031400002D1D369032B02D0B62C08D00EE0117047
:10315000D161FF209130106251621171F0BD512890
:1031600004D1792D02D1D069032805D0D069032874
:10317000F4D9D1611170F0BD1170D161F0BD70470B
:1031800030B53848416A0222114341623349032075
:103190008871354AA620108051200B4612331870D2
:1031A000887B012825D0022826D083205870002053
:1031B0001C5C401C45005453C0B20228F8D32B4875
:1031C000C368DB06FCD40368C024234303600368A0
:1031D0001B069B0F032BFAD01288C2610120886165
:1031E0000022CA614A70C8238B7088720A73C87241
:1031F00030BD81205870DAE782205870D7E730B5AB
:103200001848416A022211434162144A0320907116
:103210001549A620088051201346123318707420D7
:10322000587000201C5C401C45004C53C0B2022862
:10323000F8D30E48C368DB06FCD40368C0242343DC
:10324000036003681B069B0F032BFAD00988C1613A
:10325000012023E0BE000020A5000020680000201F
:103260003D00002000600440DE01002000C001405D
:103270005D00002040000020910100203E00002061
:103280004A0000203F0000204800002028010020C4
:10329000B40000203400002070170000906100206E
:1032A000D0615070C820907030BD30B58F48416AF1
:1032B0000222114341628E4A032090718D49A6205B
:1032C0000880512013461233187075205870002062
:1032D0001C5C401C45004C53C0B20228F8D3864801
:1032E000C368DB06FCD40368C0242343036003687F
:1032F0001B069B0F032BFAD00988C1610120906146
:103300000020D0615070C820907030BD30B5774833
:10331000416A022211434162754A03209071754946
:10332000A62008805120134612331870652058706B
:1033300000201C5C401C45004C53C0B20228F8D34E
:103340006D48C368DB06FCD40368C02423430360D4
:1033500003681B069B0F032BFAD00988C16101206B
:1033600090610020D0615070C820907030BD30B5A1
:103370005E48416A0222114341625D4A0320907116
:103380005C49A6200880512013461233187068202B
:10339000587000201C5C401C45004C53C0B20228F1
:1033A000F8D35548C368DB06FCD40368C024234324
:1033B000036003681B069B0F032BFAD00988C161C9
:1033C000012090610020D0615070C820907030BD05
:1033D00030B54648416A022211434162444A032003
:1033E00090714449A620088051201346123318706A
:1033F0007020587000201C5C401C45004C53C0B22B
:103400000228F8D33C48C368DB06FCD40368C02418
:103410002343036003681B069B0F032BFAD0098824
:10342000C161012090610020D0615070C82191706D
:1034300014211182107230BD2D498878002815D0D2
:10344000401EC0B288704A7810430FD101204870E6
:103450002648816A022211438162274801690822B5
:103460009143016101690422114301617047F0B584
:103470001E4F38680124C007022504261C491E4A35
:10348000002810D0506940070CD5D369C869471C83
:10349000CF61184F400040373B520C704D7390691C
:1034A00030439061F0BD50694007FBD58B79886946
:1034B000984206D3B86A2843B8624C7000208861ED
:1034C00005E0431C8B610B494000085AD061D0696C
:1034D000906930439061F0BD084978200880084920
:1034E00000200870024901204872704700600440C3
:1034F00068000020DE01002000C00140BE00002066
:10350000A5000020F848F749427C895C8174704727
:103510000020F64A00211154401C80B28A28FAD3B8
:10352000704700B5FFF7F4FFFF21EF489131418468
:103530000122427500210170C17181710272C17254
:1035400000BD10B5FFF7E4FFFFF7EBFF31235B028F
:10355000D878E54C60741879E074FFF7D3FF012048
:103560006075D879E24908709879E2490870E249B3
:10357000002008702077197AE04A1170597AE04AE1
:103580001170997ADF4A1170D97ADF4A1170DF49D8
:103590000870607610BDD448417D01290BD100210F
:1035A0004175DB49C27C895C0175428C4A43110339
:1035B000090C018581847047F0B5CB4E0024307F23
:1035C000D44A01280AD03046317B203003780129C3
:1035D0000CD000207E253F281BD025E00020410094
:1035E0005452401CC0B28A28F9D3F0BD980607D5C2
:1035F000002041005452401CC0B28A28F9D3F0BDCB
:1036000000207F214300D152401CC0B28A28F9D348
:10361000F0BDBC490978002906D0990702D5FF21E1
:1036200051530AE0545308E0B049095C002902D024
:10363000777E002F06D041005452401CC0B28A2829
:10364000C9D3F0BDB77C7943C9084700D153F4E72B
:10365000A5480F21203001707047A3480021203079
:1036600001707047F0B5A04C00262046417BC38C0A
:10367000491C257BCAB2203078270178012D0ED055
:10368000A24D2D78002D23D0002B07D13223E384C7
:103690006273D20718D0102211430170F0BD002BC5
:1036A000FCD1E7846273D507DF23002D02D01940D7
:1036B000017002E0202529430170072AEED126730C
:1036C000017819400170F0BDEF2211400170F0BD8A
:1036D000E17D00290BD0002BF9D1E7846273D0077C
:1036E00002D0FFF7BAFFF0BDFFF7B2FFF0BD0670E2
:1036F00089490A78D20701D0012202700A7892071C
:1037000003D5027802231A4302700978490703D5CA
:103710000178042211430170774909780029E5D026
:103720000178082211430170F0BD10B56E4C0722DC
:10373000A2566E4BD00707D0002000211954401C20
:10374000C0B28A28FAD306E00020FF211954401C99
:10375000C0B28A28FAD3521C50B2E0710A2805DBA5
:10376000FFF7D6FEFFF704FBFFF7EBFE10BDCFE639
:10377000F0B5FFF7CDFE0021684F5C4DFF23684890
:10378000425C0020CC00E419D60701D0265CAB5582
:103790005208401CC0B20628F6D3491CC9B21329EE
:1037A000EDD3F0BD0020514A115C002901D0491E23
:1037B0001154401CC0B28A28F6D37047F0B5584D5A
:1037C000763D2878400828702F46393738784000F1
:1037D0003870012029182039CB7F2A5C1343CB771E
:1037E000510829543A18203AD37F395C0B43D377D8
:1037F00049003954401C40B21328EBDB484E633E6D
:10380000B07C4008B07432461332907C4000907413
:10381000112033185C78315C0C435C7049083154DA
:1038200013185C78115C0C435C7049001154401E05
:1038300040B20028EDDA00203949394B7639633B34
:10384000095C1B5C364C19433D3C135C245C2343F0
:1038500019434BB20021314EFF25C400A419234E59
:10386000DF0701D0675CF5555B10491C49B206299A
:10387000F6DB401C40B21328DEDBF0BDF0B5FFF7ED
:1038800047FE0120264A1323763AD7181418115CF4
:10389000203CE177191ACC19203CE47F7C54401C71
:1038A00040B21328F2DB0020907438700021FF230F
:1038B0001B487A5C7638405C104342B20020174DBA
:1038C000CC006419094DD60701D0265CAB555210C7
:1038D000401C40B20628F6DB491C49B21329E7DB3D
:1038E000F0BD0000F05C000098000020FC03002008
:1038F0003C000020760000202F0000206500002002
:1039000038000020660000203B00002070000020EE
:10391000F85C0000E8020020280100207758000031
:10392000D4020020F0B50120FE4A1323D718141842
:10393000115C203CE177191ACC19203CE47F7C54BF
:10394000401CC0B21328F2D30020907438700021BC
:10395000FF23F448425C785C02430020F24DCC0027
:103960006419F24DD60701D0265CAB555208401CB5
:10397000C0B20628F6D3491CC9B21329E9D3AFE770
:103980000020EA4A115CFE2903D0002901D0491C1D
:103990001154401CC0B28A28F4D370470020E34A77
:1039A000115CFE2903D0002901D0491E1154401C8E
:1039B000C0B28A28F4D37047F0B5DD49C87A401CFC
:1039C000C8720020897ED74D8C466146002907D0F9
:1039D000295C49002954490609D50121295406E0EA
:1039E000295C49082954002901D1202129542A5C45
:1039F0000021CD4EFF24C3009B19CC4ED70701D028
:103A00005F5CF4555208491CC9B20629F6D3401C24
:103A1000C0B21328D9D363E710B50020C34AFF23EF
:103A2000C44C06E0115C002907D0491E1154401C0B
:103A3000C0B221788842F5D310BD1354F7E7F0B532
:103A4000BB49C87A401CC8720020B64F395C490691
:103A5000090E3954C90901D0012139543A5C0021B9
:103A6000B14DFF23C4006419B04DD60701D0665C88
:103A7000AB555208491CC9B20629F6D3401CC0B246
:103A80001328E3D32CE7F0B5AB49A9480A78807E28
:103A9000521EAA4DA54ED4B200282FD00020A14A14
:103AA0004C32115C491CC9B21154A34B1B7899428A
:103AB00001D3002111549B4B195C002915D0491EDC
:103AC00019540021984BC200D218CB070FD0954B48
:103AD000575C1B5CEB5CF355491CC9B20629F4D357
:103AE000401CC0B21328DAD3FAE61C54E9E78D4B28
:103AF000575C4C331B5CEB5CF355EDE70020894AC7
:103B00004C32115C491CC9B211548B4B1B78994241
:103B100001D300211154834B195C00290ED0491E9A
:103B200019540021804BC200D218CB0708D07D4B1E
:103B3000575C4C331B5CEB5CF35506E01C54F0E720
:103B4000784B575C1B5CEB5CF355491CC9B20629EA
:103B5000EBD3401CC0B21328D1D3C1E6F0B500208E
:103B6000704C754F4C3423E07149897E002909D08F
:103B7000215C491CC9B221543A78914207D30021F3
:103B8000215404E0215C002917D0491E2154002152
:103B90000C226B4B4243D318684E225C634DB25CDF
:103BA0005E5CAA55491CC9B20C29F9D3401CC0B2AD
:103BB000644909788842D7D392E63978491E21545E
:103BC000E5E7F0B50020574C5B4F4C3423E05849F3
:103BD000897E002909D0215C491CC9B221543A7858
:103BE000914207D30021215404E0215C002917D021
:103BF000491E215400214200534B8218D3184F4EC6
:103C0000225C4A4DB25C5E5CAA55491CC9B20329CC
:103C1000F9D3401CC0B24D4909788842D7D35FE63A
:103C20003978491E2154E5E7F0B5002040493D4D63
:103C30008F7E3D4B3D4E4C35002F0AD0295C491CF0
:103C4000C9B229543C4A1278914207D30021295421
:103C500004E0295C002912D0491E29540021374C68
:103C60002A5CA25CCC00E418245C3255491CC9B221
:103C70001329F7D3401CC0B20628DDD330E62E4905
:103C80000978491E2954E9E7F0B500202849254C58
:103C90008F7E264D4C34002F0AD0215C491CC9B2BE
:103CA0002154254A1278914207D30021215404E07F
:103CB000215C002913D0491E215400211A4BC20057
:103CC000D3181E4E225CB25C5E5CAA55491CC9B278
:103CD0000629F9D3401CC0B21328DCD300E61649EC
:103CE0000978491E2154E8E7F0B5FFF711FC0020E0
:103CF0000C4F391849783954401CC0B20928F8D300
:103D00001220395C3A185170401EC0B20928F8D20E
:103D10000749C87E012834D0787A40087872C007F5
:103D200018D015E05E02002077580000FC03002048
:103D300098000020EF5C00006F5900000F59000050
:103D4000AE56000026570000015C0000645C0000D5
:103D50000120C8760021FF23785C42080020FA4D3C
:103D6000CC006419F94DD60701D0265CAB5552083A
:103D7000401CC0B20628F6D3491CC9B21329EBD3A4
:103D8000AEE5787A4006000E7872C009E2D00020D5
:103D9000C876DFE7EE49EF4A8B7E0846C07A002BF3
:103DA00008D0002802D0401EC8720BE01078401ED8
:103DB000C87207E0401CC0B2C8721278904201D1AC
:103DC0000020C872E448C97A405CE04AFF211154DF
:103DD0007047DF4AE149D07A095C401CC0B2D0721A
:103DE000802801D30020D0720020D84A1154401CF2
:103DF000C0B28A28FAD3704770B5D54DD84807218C
:103E000069560078FF24D14B81420DDA0020D54E4F
:103E10000C224A439219165C9C55401CC0B20C28D7
:103E2000F9D3491CE97170BD00201C54401CC0B27C
:103E30008A28FAD370BDF0B5C54C00252572FFF76E
:103E400067FB2078132804D0132020700120E07332
:103E5000E575A07D012812D0022812D0032813D0C6
:103E6000042814D0052815D0062816D0072817D006
:103E7000082818D0092819D0002819D01AE0BA4B00
:103E800018E0B94B203315E0C523DB0112E0B64B37
:103E900060330FE0B44B80330CE0B34BA03309E048
:103EA00063231B0206E0B04BE03303E0AF4B01E0BD
:103EB000AE4B20330021FF245A5CAD484254002011
:103EC000A14ECD00AD19A14ED70701D02F5CF455FE
:103ED0005208401CC0B20628F6D3491CC9B21329A7
:103EE000EAD3FDE400B5FFF713FB9948282141848C
:103EF0000121417512210170002101720020934AB5
:103F00001154401CC0B28A28FAD300BD30B5FFF767
:103F1000FFFAFF218E482D31418401214175112284
:103F2000027001720020924A0021763A134614462C
:103F30001333263415463935115419542154295454
:103F4000401CC0B21328F7D330BD00B5FFF7E0FA2C
:103F5000FF217F4891314184012141750021C172C7
:103F6000102202700172C1710020814B763B1A460B
:103F7000133219541154401CC0B21328F9D300BD98
:103F800000B5FFF7C5FA7248C82141840122427585
:103F90000021C1720F23037002720020744A633A39
:103FA0001346133B11541954401CC0B21328F9D3C3
:103FB00000BD00B5FFF7ACFA654828214184012116
:103FC00041750E2101700021017200205F4AFE211F
:103FD0001154401CC0B28A28FAD300BD00B5FFF7C7
:103FE00097FA5B4828214184012141750D21017018
:103FF000002101720020554A1154401CC0B28A2889
:10400000FAD300BDF0B5FFF783FA4B215048C90041
:104010004184012242750021C1720C230370027297
:104020008176494F494DFF235248425C50487638CB
:1040300042540020CC00E419D60701D0265CAB55D1
:104040005208401CC0B20628F6D3491CC9B2132935
:10405000EAD345E410B5FFF75BFAFF213C48913104
:104060004184012141750021C1720B22027001724D
:104070000020414A3549414B03E0145C0C54401C7C
:10408000C0B21C78A042F8D310BDF0B5FFF740FADB
:104090004B212F48C9004184012141750022C27281
:1040A0000A22027001720021274F284DFF23344855
:1040B000425C2F48763842540020CC00E419D607E1
:1040C00001D0265CAB555208401CC0B20628F6D37E
:1040D000491CC9B21329EAD351E4F0B5FFF718FA25
:1040E0001B4850214184012141750021C1720922E0
:1040F000027001720020234D144E23490C5C1C49B0
:104100002A390C544C390C5400210F4BC200D218E0
:10411000575C2B5DF355491CC9B20629F8D3401CE6
:10412000C0B21328E9D32AE4F0B5FFF7F1F9084843
:10413000A0214184012141750021C1720822027031
:104140000172104D014E33E077580000FC0300204F
:1041500098000020AD56000055560000FF590000A1
:1041600026570000AE560000406200004063000089
:10417000D4020020E8590000655C0000EF5C0000FC
:10418000D15900000F59000070590000F848445CF4
:10419000F848445400200C22F74B4A43D218175CCD
:1041A0002B5DF355401CC0B20C28F8D3491CC9B292
:1041B000F24800788142E9D32DE4F0B5FFF7A8F981
:1041C000EF4864214184012141750021C172072219
:1041D00002700172EB4DEC4E11E0EC48445CE54896
:1041E000445400204A00EA4B8A18D218175C2B5D11
:1041F000F355401CC0B20328F8D3491CC9B2E548A6
:1042000000788142E9D306E4F0B5FFF781F9DC4894
:1042100064214184012141750021C172062202708E
:1042200001720020D74EDC4AD74FDC490D5CD149E2
:104230000D540021CC00A418245C735D3B55491C2F
:10424000C9B21329F6D3401CC0B20628EDD319E435
:10425000F0B5FFF75DF9CA48642141840121417539
:104260000021C172052202700172C64DC64ECC48B3
:10427000445CC04844540020C74BCA00D218175CA5
:104280002B5DF355401CC0B20628F8D3491CC9B2B7
:104290001329ECD328E4F0B5FFF73AF9FF20B84F23
:1042A000F5307884012078750020F8720421397087
:1042B00038720021FF23BB48425CAE484C38425460
:1042C0000020B54DCC006419AF4D960701D5265C92
:1042D000AB555208401CC0B20628F6D3491CC9B2DF
:1042E0001329E8D30120F87637E400B5FFF710F979
:1042F000FF21A348913141840122427503210170BD
:104300000021C171C1728171027200BD00B5FFF759
:10431000FFF8FF219A48193141840121417502219A
:10432000017000210172C17200BD00B5944B187874
:1043300001280AD0FFF7ECF8FF20F530588401205F
:104340005875187000201872D87100BD00B58C48DF
:104350000021C1754179112903D9312149024978D8
:1043600041714079030000F0E3FE1A0E111A1D207E
:104370002C2329142F263235173E383B44101010B9
:10438000101010104110FFF7D0FF00BDFFF7BEFF67
:1043900000BDFFF7AAFF00BDFFF77DFF00BDFFF7DF
:1043A00057FF00BDFFF730FF00BDFFF706FF00BD60
:1043B000FFF7BAFE00BDFFF790FE00BDFFF765FEF8
:1043C00000BDFFF747FE00BDFFF71CFE00BDFFF775
:1043D00005FE00BDFFF7EDFD00BDFFF7D1FD00BDFF
:1043E000FFF7B3FD00BDFFF791FD00BDFFF77AFDBC
:1043F00000BDFFF720FD00BDF8B5614C0125214649
:10440000C97AA0794A1CD3B2FF225F4E002812D08D
:1044100001280FD159480078814221D20020564D01
:104420000C27794349190D5C7255401CC0B20C2809
:10443000F9D3E372F8BD5C480078814208D25B4D45
:104440004800295C7254401940783254E372F8BD38
:104450004D48403040790028F9D1A571E072F8BD8F
:1044600030780028FBD1FFF753F8312676023078F8
:10447000A52801D0FEF77CFC70786071B078A0753B
:10448000F07860743079E0746575FFF73BF8FFF7FA
:104490005DFFF8BD3A48007A00280AD000203A4A69
:1044A000115C002901D0491E1154401CC0B28A2859
:1044B000F6D3704770B5324B0025587A002806D0E5
:1044C000187E002803D15D72FFF7E4FF0124187CF9
:1044D000002829D05878002826D11D749878401CCF
:1044E000C0B2987032490A78904200D39D70D87853
:1044F000401CC0B2D8700A78904200D3DD701879A1
:10450000401CC0B218710978884200D31D71294837
:104510009978294A415C1170D978425C27490A7020
:104520001979405C26490870D87B002871D0187E24
:1045300000287ED1DD731878030000F0F9FD160C19
:104540000F12154346494C4F5255585B5E616467E4
:104550006B6E71777479FFF74FFF69E0FFF74CFCE2
:1045600066E0FFF736FC63E0FFF714FC60E0000054
:10457000AE590000AA020020AE56000026570000E7
:10458000980000200F590000FC0300208D59000006
:10459000015C0000645C000077580000875900004F
:1045A00070590000BA5900005456000038560000F7
:1045B0003F5B00007F5A0000D4000020D50000209F
:1045C000D6000020FFF790FB32E0FFF75DFB2FE005
:1045D000FFF72AFB2CE0FFF7F4FA29E0FFF7BEFA19
:1045E00026E0FFF750FA23E0FFF729FA20E0FFF773
:1045F00013FA1DE0FFF7E0F91AE0FFF7CFF917E033
:10460000FFF7BEF914E0FFF78DF911E0FFF736F977
:104610000EE00EE0FFF7D2F80AE0FFF7C3F807E07C
:10462000FFF7A6F804E0FFF7A2F801E0FFF77DF836
:104630000124FFF717F8002C01D0FEF7BDFFFEF7AD
:10464000AAFF70BDF0B5FB4E00207778FF25FA4930
:10465000FA4AFB4C3B0000F06BFD09060C101418E5
:104660001C2024280B00B0704020F0708020307196
:1046700037E40D701070207033E4087015702070EE
:104680002FE40870107025702BE40D7015702070E9
:1046900027E40D701070257023E4087015702570E4
:1046A0001FE40D70157025701BE4087010702070E9
:1046B00017E4F0B50020E349DE4C09782A34491E9E
:1046C000221DC9B2131D1DE0255C002D1FD06D1EDB
:1046D0002554155C002D1CD06D1E15541D5C002D3D
:1046E00019D06D1E1D54265CD74DD84FAE5D3E547B
:1046F000165CD74FAE5D3E541E5CAD5DD54E355455
:10470000401CC0B2D44D2D78A842DDD3A1E4215481
:10471000DFE71154E2E71954E5E7F0B5C54F787FBC
:10472000401CC0B27877C74A00211378984200D362
:104730007977B87F401CC0B2B8771378984200D31D
:10474000B977F87F401CC0B2F8771278904200D356
:10475000F9770020BC4D797FBC7FFF7F695C2C5DC1
:10476000BA4ABB4EBB4BED5D115434541D54401C32
:10477000C0B20328F8D36CE4F0B5AE484078002806
:1047800002D0012805D102E0FFF7C7FF01E0FFF7E3
:1047900090FF0020AD4CB149AD4DB14EAD4FB14A87
:1047A000235C0B542B5C33543B5C1354401CC0B251
:1047B0000328F5D34DE4F0B59E490120487004204C
:1047C0003631488000200F46A74E0C3F2DE0325C6A
:1047D0009C4D11462B789A4202D32B78D21A92B272
:1047E000D2B23A540C4640342B789C4202D32B78F8
:1047F000E31A9CB2E3B28F4C2E34235480312C78D0
:10480000A14202D32C78091B89B28A4CC9B2323436
:1048100021548D4C8D4DA25C2A54E25C8C4B1A5471
:104820008C4A615C1154401CC0B28B4909788842A3
:10483000CDD30EE47F480021417740228277802249
:10484000C27741707B490F2036314880704770B580
:1048500078490A203631488076483F264078002142
:104860007A4C7B4A7B4D030000F062FC0A06090C7F
:10487000151E27303A434C08FFF7DCFF70BDFFF7E9
:104880009AFF70BD0020265411542954401CC0B218
:104890000328F8D370BD0020215416542954401C1D
:1048A000C0B20328F8D370BD0020215411542E54F7
:1048B000401CC0B20328F8D370BD00202654165403
:1048C0002954401CC0B20328F8D370BD00203346E1
:1048D000235411542B54401CC0B20328F8D370BD8C
:1048E0000020215416542E54401CC0B20328F8D383
:1048F00070BD0020265416542E54401CC0B203280C
:10490000F8D370BD0020215411542954401CC0B26A
:104910000328F8D370BD4749887A401CC0B288721A
:10492000022803D90020887201204872704700B520
:10493000FEF7EEFDFF213F48913141840121417591
:104940000021C172152202700172C17100BD00B553
:10495000FEF7DEFD374845494184012141750021BC
:10496000C172142202700172C171017700BD012869
:104970000FD002280FD004280FD008280FD01028FD
:104980000FD020280FD040280FD080280FD0002033
:1049900070470020704701207047022070470320B5
:1049A0007047042070470520704706207047072095
:1049B00070471FB5A5206A4610701E484179517096
:1049C000817D9170417CD170C07C10712848007845
:1049D000507128480078907127480078D071274896
:1049E000007810722648007850722648007890723D
:1049F00025480078D0723120102269464002FEF727
:104A00000EFA1FBD0B49088D401E0004000C0885DE
:104A100003D1888C08850120C87370470549887BBD
:104A2000401CC0B288730F2803D90020887301206E
:104A30000874704798000020D4000020D5000020A2
:104A4000D6000020005C0000405B0000D700002082
:104A5000DA000020DD00002086590000E000002080
:104A6000E3000020E6000020835900006C070000EE
:104A700094000020760000203C000020650000200B
:104A800038000020660000203B0000200B49C88C45
:104A90000028CED0401EC884CBE70848017B0029FF
:104AA000C7D1C184417301210173C2E703480021CA
:104AB000C18441730121C175BBE70000980000204B
:104AC00000B55848017858480B0000F031FB060447
:104AD000090E13191F08416A01221143416200BDEA
:104AE000416A02221143416200BD416A042211431E
:104AF000416200BD4D48416A10221143416200BD30
:104B0000416A012252021143416200BD416A012201
:104B100092021143416200BD00B5424909780B0081
:104B200000F006FB060406090C0F121440480DE0C5
:104B30003F482A300AE03E48543007E03C487E3087
:104B400004E03B48A83001E03948D23039490288B6
:104B50000A6242884A6282888A62C288CA6202897C
:104B60000A6342894A6382898A63C289CA63314976
:104B7000028A40310A60428A4A60828A8A60C28A16
:104B8000CA60028B0A61428B0A62828B4A61C28BC5
:104B90008A61008CC86100BD2849274848600860C8
:104BA0002248426801210A43426002680A430260C7
:104BB00070471D480168224A114001601B48016886
:104BC000102291430160704770B51A4E0024746042
:104BD000FFF7EFFF1B48134D0078002812D16878CB
:104BE000401CC0B268700A280CD36C7000F0F4F856
:104BF000FDF73FFFFDF7CCFF13490870FCF701FDFF
:104C000000F0B7F8FFF788FFFFF75AFF306801217F
:104C1000084330602878401CC0B22870062800D3B2
:104C20002C7070BDD20000200080044000A0044021
:104C3000E802002000200040FFFF00000040044088
:104C4000F8F9FFFF210000202200002050214843F6
:104C5000401E411CFCD1704710B50246284C294B20
:104C600003E0DC606420FFF7F1FF521E501CF8D116
:104C700010BD50214843401E411CFCD1704710B567
:104C800002461F4C1F4B03E0DC606420FFF7F1FF7E
:104C9000521E501CF8D110BD0D20401E80B20028BD
:104CA000FBD170470220401E80B20028FBD1704724
:104CB00000B54008401E81B203E0FFF7EDFF491E3A
:104CC00089B20029F9D100BD00B53121FFF7E4FF19
:104CD000491E89B20029F9D100BD30B50346084C00
:104CE000084D07E0EC600922FFF7EEFF521E92B27A
:104CF000002AF9D118465B1E9BB20028F2D130BDC4
:104D0000AA55FA5A000001400F490E4808600020D9
:104D1000886048600B4A0D49921E0A6088602E2206
:104D20004A600B4908600B4888600B4848600C4893
:104D30000A490160012149038160FF211F3141605F
:104D400070470000FFFF0000004004400060044086
:104D50000080044080AA02000706000001FE000057
:104D600000A004400120264940040860254908604D
:104D70007047264824490162C161704700B5244844
:104D8000016880221143016020481721803881602A
:104D900000214161816107214902C1611B4AFF2154
:104DA000403AD1630221016001688907FCD401689F
:104DB000012211430160FFF7DCFFFFF7D3FF00BDC5
:104DC0000120104940048031086070471048016894
:104DD000802291430160F3E70C490020086270478C
:104DE00010B50A4C606A09498039C969890506D538
:104DF000000204D5FFF7E8FE0120C005A06210BD47
:104E000080E200E000E100E0FFFF010080200040C0
:104E100000E00540084807494161FF218161072101
:104E20000161704710B50449FF208861FBF7DCFB86
:104E300010BD00001017000000E000E01E481D49F2
:104E4000C1600168042291431C4A1143016070470C
:104E500001201B49400608601A4908601A49086881
:104E6000FF22120290430860704714490843124918
:104E700088601048C8607047104908430E49486070
:104E8000704700B50220FFF7F7FF0C480A4B186087
:104E90003D20FFF7EAFFFFF7DBFF18680749491CD1
:104EA0000843186000BD01200649400680310860B3
:104EB00070470000AA55FA5A000001400000FA5A53
:104EC00080E200E000E100E018E400E02B4902226B
:104ED0008A60086100E000BF4868C007FBD18868AD
:104EE00040221043886000E000BF4868C007FBD143
:104EF000704710B5214B01249C60186100E000BF91
:104F00005868C007FBD111E01478507800022043A4
:104F1000947824040443D07800062043D86000E04D
:104F200000BF5868C007FBD1121D091F0029EBD133
:104F300058684007002802DA5960012010BD9868BF
:104F400040221043986000E000BF5868C007FBD1C2
:104F50005868400702D55960012010BD002010BDDF
:104F600010B5002000210F23DB0204C994B22018E1
:104F7000120C10189942F8D310BD00000020064012
:104F800034480F21816104210161704710B5324816
:104F9000016801221203114301602E4A10680F219B
:104FA000090288430721090240181060106808218F
:104FB00008431060106802218843106010680421C3
:104FC0008843106010680721C90388431060106887
:104FD000C910884310609068000A0002801C90602D
:104FE0000020506010680121890488431060106817
:104FF000C02108431060FFF7C3FF0123174958037E
:1050000008601749086017490868FF242402A04374
:10501000086010681843106010BD0F480168012235
:105020001203114301600B48016801221143016022
:105030000168C022114301607047064801684908B1
:105040004900016004480168012212039143016094
:105050007047000000C0014000E0054080E200E031
:1050600000E100E00CE400E010B51748C068174C00
:105070004006400F02D0012806D102E0144820600B
:1050800002E07D20000220600121206800F028F865
:105090002060104A1049904202D91048086010BDA3
:1050A0000E48401F086010BD0C490B48491E0160A6
:1050B000491C0160044800210161C160C1684906C2
:1050C000490FFBD17047000000000640EC000020B3
:1050D000006CDC0200366E01002006400500FA5A22
:1050E00030B50B46014600202022012409E00D4680
:1050F000D5409D4205D31D469540491B2546954008
:1051000040191546521E002DF1DC30BD064C01251C
:10511000064E05E0E36807CC2B430C3C984710345F
:10512000B442F7D3FAF7D0FF005D0000205D000025
:1051300030B47446641E2578641CAB4200D21D4610
:10514000635D5B00E31830BC184702E008C8121F1B
:1051500008C1002AFAD17047002001E001C1121FE6
:10516000002AFBD170471201000200000040AC058C
:105170004F0243010102000105010906A1010507D3
:1051800019E029E7150025017501950881029501AF
:105190007508810195057501050819012905910218
:1051A000950175039101050719002AFF0095057502
:1051B00008150026FF00810005FF09037508950109
:1051C0008102050C09001580257F95407508B10204
:1051D000C0050C0901A101850319002A3C03150033
:1051E000263C03950175108100C005010980A101CD
:1051F0008502050119812983150025019503750193
:105200008102950175058101C005010906A101858D
:105210000105071500250119002977957875018189
:1052200002C0050C0901A101850115002501952089
:10523000750109B509B609B709CD09E009E209E325
:1052400009E409E509E909EA0A52010A53010A5485
:10525000010A55010A8A010A21020A23020A2402CC
:105260000A25020A26020A27020A2A020A92010ACB
:1052700094010A83010A02020A03020A07020A18B9
:10528000020A1A0209B88102C005010980A101853C
:105290000219812983150025017501950381027585
:1052A0000595018101C00600FF0901A10185031ACE
:1052B000F1002AF80015002501750895028102C049
:1052C00009023B00020100A03209040000010301B1
:1052D000010009211101000122590007058103087D
:1052E000000109040100010301020009211101006C
:1052F000012251000705820310000104030904186C
:10530000034B00650079006300680072006F006E57
:105310000020004B00310018034B0065007900634A
:1053200000680072006F006E0020004B003100002A
:1053300001000000120000006651000002000000A1
:105340003B000000C0520000030000000400000009
:10535000FB5200000309000004000000FB520000A3
:105360000300010018000000FF52000003090100C3
:1053700018000000FF5200000300020018000000A7
:105380001753000003090200180000001753000023
:105390000500000007000000DB52000005000000CF
:1053A00007000000DB52000021000000090000009F
:1053B000D25200002101000009000000EB52000061
:1053C0002200000059000000785100002201000076
:1053D00051000000D1510000220200009E00000098
:1053E0002252000029352B39A1A00000001E140410
:1053F00064A300003A1F1A161DA200003B200807F4
:105400001B0000003C211509060000003D22170A80
:10541000192C00003E231C0B050000003F24180D32
:105420001100000040250C0E100000004126120F54
:10543000360000004227133337A60000432D2F34D7
:1054400038A70000442E300000AF0000452A312864
:10545000A5A4000046494C0000500000F44A4D004D
:1054600052510000D34B4E00004F000000000000DE
:10547000000000000000000000000000000000002C
:1054800000000000000000000000000029293ACFC1
:105490003BCE3C863D873ED53FD440B141B342B080
:1054A00043B544BA45B92DD72ED6A3A35050525276
:1054B00051514F4F1E971F9820991BAB0FE31DAC06
:1054C0000DE516AD12E20EE606E4D3E739E013E18E
:1054D0002929CF3ACE3B863C873DD53ED43FB140CB
:1054E000B341B042B543BA44B9452DD72ED6A3A394
:1054F0005050525251514F4F1E971F9820991BAB3D
:105500000FE31DAC0DE516AD12E20EE606E4D3E79F
:1055100039E013E129293A3A3B3B3C3C3D3D3E3ED4
:105520003F3F4040414142424343444445452DD7DB
:105530002ED6A3A35050525251514F4F1E971F9831
:1055400020991BAB0FE31DAC0DE516AD12E20EE684
:1055500006E4D3E739E013E129293A3A3B3B3C3CE6
:105560003D3DD53ED43F4040414142424343444407
:1055700045452DD72ED6A3A35050525251514F4FCF
:105580001E971F9820991BAB0FE31DAC0DE516ADC0
:1055900012E20EE606E4D3E739E013E129293A3AAC
:1055A0003B3B3C3C3D3D3ED53FD4404041414242E7
:1055B0004343444445452DD72ED6A3A350505252C1
:1055C00051514F4F1E971F9820991BAB0FE31DACF5
:1055D0000DE516AD12E20EE606E4D3E739E013E17D
:1055E0001A1A0404161607075252505051514F4FC1
:1055F000B500B600B700CD00E000E200E300E40033
:10560000E500E900EA0052015301540155018A0105
:105610002102230224022502260227022A029201E5
:105620009401830102020302070218026F00700056
:1056300001020408102040803F3A40394138423787
:10564000433644354534461F5C1E5D1D5E3149328C
:10565000483347470E0002030405060708090A0BF2
:105660000C0D0E0F1015161718191A1B1C1D1E1FD6
:105670002021222324252A2B2C2D2E2F303132338A
:105680003435363738393A3F40414243444546473E
:1056900048494A4B4C54565758595A5B5C5D5E5FBB
:1056A0006163696A6B6E73747576777879583214B2
:1056B000141414141414141414141D1E31334647F6
:1056C0001414141414140708091C1F303445485BC3
:1056D0005C5D061B202F3544495E5A1414141A2EA3
:1056E00043596E0A21364A5F731405192D42580B2F
:1056F00022374C61741404182C41570C0D76141485
:10570000141403172B4056750E2338776B140216AA
:105710002A3F546A0F243963781400156910253A1A
:105720007914141414140A01000101010201030088
:105730000400050000000000000201020202030054
:10574000000105000000000300030103020303023F
:105750000402050000000004000401040204030325
:105760000400000000000005000501050205030417
:105770000400000000000006000601060206030502
:1057800004060500000000080007010702070306E1
:1057900004000000000000090008010802080307D7
:1057A000040000000000000A0009010902090308C2
:1057B000040000000000000B000A010A020A0309AD
:1057C000040000000000000C000B010B020B030A98
:1057D000040A05000000000D000C010C020C030B74
:1057E000040B05000000000E000D010D020D030C5E
:1057F000040C05000000000F000E010E020E030D48
:10580000040D05000000001000100110020000004F
:10581000001005000000001100110111020000112C
:105820000411050000000012001201120200000025
:1058300000120500000000000013011302130313FF
:1058400004000000000000000014011402140314FE
:1058500004140500000000000015011502150315D1
:1058600004150500000000000016011602000016D5
:1058700004000000000000141414145469141400EF
:10588000152A3F146A141414162B40566B14140274
:10589000172C415714141403182D425814141404CF
:1058A000192E4359141414051A2F445A6E14141443
:1058B0001B30455B141414061C31465C1414140789
:1058C0001D32475D141414081E33485E7314140906
:1058D0001F34495F7414140A20354A147514140BCC
:1058E00021364B617614140C22374C141414140D09
:1058F000141414141414140E233814147714140FDD
:105900002439146378141410253A141479141418D3
:105910001A1D202326292C2F3235393D4145494D6A
:105920005155595E63686D72777C81868C92989E22
:10593000A4AAB0B6BCC3CAD1D8DFE6EDF4FBFFFF22
:10594000FBF4EDE6DFD8D1CAC3BCB6B0AAA49E98DA
:10595000928C86817C77726D68635E5955514D4992
:1059600045413D3935322F2C292623201D1A186038
:1059700000060B11161C21272C32373C41464B5098
:10598000555A5D00183003001020304048000306CF
:10599000090C0F1215181B1E2124272A2D3033360F
:1059A000393C3F4245484B4E515456625A5D0008BF
:1059B0001018202830384048505803060C18306022
:1059C000C06030180C0603060C183060C060301838
:1059D0000C0104100240082002084010010440029B
:1059E00008010410204002010102040810200102F5
:1059F000040810200102040810200102040810000D
:105A000001020304050607080A0C0E1012141618EA
:105A10001A1D202326292C2F3235393D4145494D69
:105A20005155595E63686D72777C81868C92989E21
:105A3000A4AAB0B6BCC3CAD1D8DFE6EDF4FBFFFF21
:105A4000FBF4EDE6DFD8D1CAC3BCB6B0AAA49E98D9
:105A5000928C86817C77726D68635E5955514D4991
:105A600045413D3935322F2C292623201D1A181681
:105A70001412100E0C0A080706050403020100FFA9
:105A8000FFFFFFFFFFFFFFFFFFFFFFFFFFFFFFFF26
:105A9000FFFFFFFFFFFFFFFFFFFFFFFFFFFFFFFF16
:105AA000F0E2D4C7BAADA1958A7E746A60564E45BD
:105AB0003D352E27211C16120D0A06040201000096
:105AC00000000000000000000000000000000000D6
:105AD00000000000000000000000000000000000C6
