:020000040000FA
:10000000D0060020D9000000E100000099060000A1
:1000100000000000000000000000000000000000E0
:10002000000000000000000000000000E5000000EB
:100030000000000000000000E7000000395200004E
:10004000EB000000B9080000000000000000000004
:1000500000000000000000000000000000000000A0
:100060000000000000000000000000000000000090
:10007000000000001936000000000000EB00000046
:10008000EB000000F551000000000000000000003F
:100090000000000000000000000000000000000060
:1000A0000000000051520000EB00000000000000C2
:1000B000EB000000FB070000EB000000EB0000007D
:1000C0000348854605F02CFA00480047DB05000090
:1000D000D006002070472400044800470448004729
:1000E000FEE7FEE7FEE7FEE7FEE7FEE70178000039
:1000F000C1000000004800470900FF1FF8B502F0EA
:100100002BFFF7480178002974D000240470F54AC9
:10011000F5491068002806D0401E1060002802D162
:100120000C70F2480470F24A1078002808D0401E83
:10013000C0B21070002803D1EE480460EE4804708D
:10014000EE4D2868002855D0ED480126007800289B
:1001500000D02E60EB4A09781278114301D00028B4
:1001600002D02868401E28602868002842D105F087
:100170003DF805F035F8E448046104F025FF02F08D
:100180006EFD02F0A0FDE1490868E14A4008400028
:1001900010430860642004F0ACFF00F044FBDD482D
:1001A0000461C660C168C906FCD5DB4E3069092709
:1001B000FF06B8433061D648D849801C086003F078
:1001C000EBFB3461D6480221016030BF0460CC48AB
:1001D00000780028FDD100F05EFB306938433061C3
:1001E00005F022F805F057F802F0BFFC04F0D0FF4C
:1001F000CC482860F8BD70B5B948CB4902780024D6
:10020000002A05D004700888002801D0401E08800C
:10021000C6480069800718D50888002815D1C8206D
:1002200004F067FF04F0E2FF04F0DAFFB74801686A
:10023000B74A490849001143016000F0C1FB05F0CD
:100240002AF804F0F1FF04F0A3FFB94D2878012843
:1002500006D10822B74900F03DFA002800D12C70E1
:10026000B54D2878012807D11022B449022000F0AA
:1002700031FA002800D12C70B14D287801280CD01B
:10028000B04D2878012807D10222AF49104600F06E
:1002900021FA002800D12C7070BD0322AB49022046
:1002A00000F018FA0028F7D12C7070BDF8B5A848F6
:1002B000817800296FD00024847004F0BAFDA5492C
:1002C000A54E0888002818D0401E80B2088000285B
:1002D00013D13078002802D0012803D00DE002F0BD
:1002E000EDFF0AE002F0EBFF9C480078002802D006
:1002F00003F0E1F801E003F00FF999490878401C98
:10030000C0B20870322831D30C70754801250570D1
:100310009449087800280AD0401EC0B2087000280E
:1003200005D191480078002801D190480470904F81
:10033000387800281AD0401EC0B23870002815D175
:100340008C480078C04381078B4810D10178002980
:100350000DD004F008FD8948057086480470307897
:10036000012803D103F009F9854804709AE0854912
:100370000978C943890711D1017800290ED004F00A
:100380006BFD8048047080480178012904D0057015
:1003900004F01DFD86E01FE10470F9E77B490A784F
:1003A000D3439B070FD10378002B0CD00C7004F0C3
:1003B0005CFD77480178012903D0057004F007FD42
:1003C00070E00470FAE7052393430FD10278002A06
:1003D0000CD00C7004F040FD6E480178012903D068
:1003E000057004F0F4FC5DE00470FAE76A490A78ED
:1003F000D243920715D10278002A12D00C7004F073
:100400002BFD40480178002905D0047004F0DFFC82
:1004100003F020F846E0057004F0D9FC02F0E9FF93
:1004200040E05E490978C94389070CD10178002969
:1004300009D05B480178012903D0057004F00CFD58
:1004400030E00470FAE757490A78D24392070FD197
:10045000007800280CD00C7004F0FEFC52480178A3
:10046000002901D0047000E0057004F0B0FC19E030
:100470004E480078972803D0982801D0992811D1A8
:10048000307801280ED14A49087800280AD0401E49
:10049000087003203870474851210170892141704C
:1004A00045480570454A1078401CC0B21070444958
:1004B00080230D784349002D06D0FA2803D3147009
:1004C00008785840087085E03F4D2D78002D7DD08C
:1004D0004B287FD314700878584008707AE075E094
:1004E000A500002098000020780000207C0000205B
:1004F0007E0000209000002070000020940000206A
:10050000800000206D00002000E000E000000140BD
:100510000000FA5A0000064000C0054000200640D6
:1005200040200340701700008400002024010020B8
:10053000440000206400002047000020A0010020AB
:1005400045000020460000204F0000205100002000
:10055000000000209E000020A200002032000020A9
:10056000A3000020380000207D000020C3000020F0
:1005700033000020340000202B0000207F000020EA
:10058000740000203A0000203B00002035000020CD
:100590003700002043000020360000203D000020EE
:1005A0003E0000203C0000206E00002029000020BA
:1005B000730000208600002075000020A4000020A9
:1005C0009C000020C9000020770000200878400629
:1005D000400E087001F014F8F8BD04F06FFF00F051
:1005E000CFF8314C206A01252843206204F0D0FD69
:1005F00004F051FE04F018FE04F092FD03F077F8C9
:1006000000F0F0FF04F0CCFE2848A061284800214B
:100610000170312149028989264A914200D1057031
:10062000254C2078012801D100F0DEF8234D244E1E
:10063000244F0EE002F08DFA04F080F920780028B3
:1006400002D0012805D102E0FFF7D5FD01E0FFF758
:1006500055FDF560FFF72AFE38780028ECD0E9E771
:1006600070B5194C6078401CC0B26070042812D379
:100670000025657004F05BFB04F0CFFB02F0B1FFD6
:100680002078401CC0B22070042804D325700120BB
:10069000A07004F0DAFB70BDBFF34F8F0C490B481C
:1006A000C860BFF34F8FFEE70000064002C00000A5
:1006B00039000020AAAA0000A2000020AA55FA5A78
:1006C00000000140A6000020000000200400FA0500
:1006D00000ED00E0F8B506460D4617462448B10087
:1006E00008180268002A01DB0220F8BD002E03D0A2
:1006F000042E01D8402F01D90420F8BD0068400F16
:10070000042801D00120F8BD1A48805D002804D0DB
:10071000304600F0AFF80320F8BD1748081800680D
:10072000B84201D20520F8BD701E14498000085857
:100730000090002414E0295D641C285D0002084339
:10074000641C295D09040143641C285D00060843FC
:10075000641C0146009800F0D7F90098001D009035
:10076000BC42E8D3F9B2304600F092F90020F8BD5F
:1007700018C00540040000201001002000010020E6
:10078000F8B500F076FD00F0EAFEF74801681022A7
:1007900011430160F54C4021A1608023E360C02536
:1007A0002561E0266661F248016043608560C660AD
:1007B000F0480160082141608260C1600161EB4D39
:1007C000ED48403D286002266E611F27FF0632205B
:1007D00004F061FC2F61E948E06240076062E8488C
:1007E0000660E8480660F8BDE0490020403908612D
:1007F000E449022080310860704730B50124E049A7
:1008000060070860FF22E049F9320A62DF4A136993
:10081000C5122B43136100228A61DA4980310860D6
:10082000DB48047030BDD8480021C1604161491ED9
:100830000162FF21F9318161D14980030860D1490A
:10084000086070470120C949C0024039886070477C
:100850000120C64980024039886070470120C349A1
:100860004002403988607047FF20C049013040395C
:100870008860704704280DD8BC4A8100283A89183E
:10088000002804D1B94840384068C00102D407208C
:1008900040070860704710B5BE4801680122114347
:1008A0000160BD4800680007000F052801D004F072
:1008B00005FE00F0C5F910BD70B5AC4D403D6C684B
:1008C0000020C043A860002C0DD0A0000ED5FFF77B
:1008D000E2FF00F0ACF9E00108D5022004F0C2FB11
:1008E00000F001FC70BDFFF7D6FF70BD2868A00FB7
:1008F0000BD0002C04DAFFF7CEFF00F07DF970BDBD
:100900006000FCD500F08DF970BD2002C00E18D03B
:10091000200202D500F0E7FB70BD600202D500F0B6
:1009200026FC70BDA00202D500F062FC70BDE002A2
:10093000800FFBD00320C004A8600020FFF79AFFBF
:1009400070BD2005000FFBD0E00501D5FFF78CFF3F
:10095000A00501D5FFF782FF600501D5FFF778FFFD
:100960002005EDD5FFF76EFF70BD00208B49401CC0
:100970008842FCD370471E20401E411CFCD17047AA
:1009800000B57A4A0620403A5061FFF7F4FF05208F
:100990005061FFF7EAFF506904218843506100BDB0
:1009A0007C480121C160002101617B4A7C491160C2
:1009B000C168C906FCD501687A4A114001607047D8
:1009C000F8B5724C2069022188432061674D403D93
:1009D0006868400022D502F0DFFF04F0F5FA02F06B
:1009E0003EF902F070F97048002707615E4801681F
:1009F00080229143016028690921C9068843286142
:100A0000634E3770FFF70FFF0A2004F03EFBFFF73D
:100A1000C7FF6868400002D4FFF73DFFF8BD634997
:100A20000420086030BFFFF736FF30780028F5D08B
:100A3000377021695E48884307D120690121890404
:100A400088432061A068012805D05A4914200880F5
:100A5000FFF796FFF8BDFFF793FFF8BD4349403914
:100A6000CA6B012383409A43CA637047042805D8A0
:100A70003E49800028394018002101607047042851
:100A800005D83A49800028394018090701607047A5
:100A9000042807D8354A8000283A801805225207D2
:100AA0008918016070473149403148600220C860B0
:100AB000C8688007FCD488683F490860704700B563
:100AC0000A46402A0ED2401E294980000858910843
:100AD0004018FFF7E8FF9007C10E37480068C8408C
:100AE000C0B200BD002000BD00B510290AD2401ED2
:100AF0001F4A8000105889004018FFF7D4FF2E4885
:100B0000006800BD002000BD184A4032506091606E
:100B10000120D060D068C007FCD1704730B50B46CB
:100B2000402B15D2401E12498000085899084518DC
:100B30002846FFF7B8FF204804689807C30EFF2037
:100B4000984084431146994021432846FFF7DCFF33
:100B500030BD102932D2401E054B80001858890044
:100B600040181146D0E7000000E0054040C00540B5
:100B70000001002010010020100000B0044000001F
:100B800080E200E000E100E0008004402401002059
:100B90000300002000000640002006401450000022
:100BA0000000FA5AFEFFFF0F00E000E04020034083
:100BB00080000400840000201C00002070470C4AC4
:100BC00090630B4802214030016001688907FCD422
:100BD000D06B084908607047054A9063D1630448A8
:100BE0000121403001600168C907FCD17047000055
:100BF00040C005401800002010B50020FE4AC04348
:100C00009060FE490120086100208860D060FFF7F5
:100C100031FE01242046FFF729FF641C042CF9D97A
:100C200010BDF64801690222114301617047F34883
:100C30000169042211430161EF49D00688607047C1
:100C4000ED4801690922D2061143016101214906DB
:100C5000816070470120E84980068860704710B5C0
:100C6000E64CA06801280CD1E54A0020002111546F
:100C7000401C0428FBD92079012802D8A278002A38
:100C800003D00020FFF7F6FD10BDDE4A1154FFF738
:100C9000E5FE20690121090408432061002108467E
:100CA000FFF7F6FE10BD10B5D44CA068012814D192
:100CB0002078812811D1207901280ED8D149095CEA
:100CC0000020FFF789FF20690121C9030843206143
:100CD00001210020FFF7DCFE10BD0020FFF7CAFD58
:100CE00010BDF8B5C64DC54E3069800607D5B07841
:100CF000102101240027002805D0012819D0002048
:100D0000FFF7B8FDF8BDB7603069084330610127CF
:100D1000EC553846FFF7AAFE7F1C042FF8D930693E
:100D2000012109040843306100210846FFF7B0FEA5
:100D3000F8BDB46030698843306100242F55002C21
:100D40000CD02046FFF79BFEAB480069611EC840EF
:100D5000C00703D000212046FFF79AFE641C022C36
:100D6000ECD93069012109040843306100210846AB
:100D7000FFF78EFEF8BD70B5A04DA9680020FFF703
:100D80002BFFA868012806D101242046FFF777FE33
:100D9000641C022CF9D99C480021016028690321B8
:100DA00089030843286101210020FFF771FE70BD0F
:100DB00010B50020FFF75EFD10BD10B50446180603
:100DC0001204104309020843204310BDF8B58F4FA9
:100DD0003C688A488C4EC0883168884200D23060B6
:100DE000306800281DD00025E378A278617820784B
:100DF000FFF7E3FF0146A800FFF7EEFE241D6D1C80
:100E0000EDB2102DF0D3306840280FD340210020E0
:100E1000FFF73EFE38684030386030684038306058
:100E2000F8BD00210846FFF733FEF8BD3068C1B2B7
:100E30000020FFF72DFE00203060F8BDF8B500243B
:100E400000206E49724BCA780D798F780C260146C6
:100E500071435E5CB24211D1C9184E78B5420DD1D2
:100E60008E78B7420AD10C225043C0188288664857
:100E70000260664889680160012402E0401C102875
:100E8000E4D3002C08D05D4908690122D203104345
:100E90000861FFF79BFFF8BD0020FFF7EBFCF8BDF2
:100EA00010B5564801692023994301610169402228
:100EB000114301618178002902D002691A4302615D
:100EC00001730169012212041143016100210846E6
:100ED000FFF7DEFD10BD70B5484D28784406640E5E
:100EE000000602D50020FFF7C5FC002C05D0022C1F
:100EF0000FD00020FFF7BEFC70BDA8780128FBD101
:100F0000286944490843286100210846FFF7C0FDCD
:100F100070BDA8780028FBD128794006400E411EFC
:100F20000129F5D8A9680129F2D1354A1154FFF7F2
:100F3000A1FC286901210904084328610021084611
:100F4000FFF7A6FD70BD70B52C4D28784406640EE1
:100F5000000602D50020FFF78DFC002C1AD0022CD1
:100F600017D1A878002814D128794006400E002215
:100F7000234BE10300281ED002280AD8AC68012CBC
:100F800007D11A5428690843286100210846FFF751
:100F90007FFD70BDA8780128FBD128698021884396
:100FA000286128691B4980390843286100210846C7
:100FB000FFF76EFD70BD28698006FBD51A702869A1
:100FC0000843286100210846FFF762FD70BD70B537
:100FD0000A4D28784406640EC00901D1FFF74AFC87
:100FE0000126F603002C26D0012C38D0022C21D16A
:100FF00028794006400E0FE000C005402401002083
:101000000400002014000020100000200C0000202C
:101010003C5700008001010002280BD8A349095C5D
:101020000020FFF7D9FD2869304328610221002004
:10103000FFF72EFD70BD2869000604D502210020AF
:10104000FFF7CAFD03E000210846FFF7C5FD286948
:101050003043286102210020FFF71AFD70BDA86807
:101060000128FBD168790028F8D128790128F5D822
:1010700000210846FFF7B0FD2869304328610221AE
:101080000020FFF705FD70BD10B5894840780300CA
:1010900004F058FA0C070A250D25101316191C1F09
:1010A0002225FFF794FF10BDFFF74DFF10BDFFF79E
:1010B00012FF10BDFFF7F4FE10BDFFF7BFFE10BD1D
:1010C000FFF776FE10BDFFF756FE10BDFFF709FED5
:1010D00010BDFFF7E8FD10BDFFF7C1FD10BD0020FA
:1010E000FFF7C8FB10BD7CB53320724CC004A06074
:1010F0000020FFF7C4FC6068400331D46C4C2069C9
:101100000321C903884320610020FFF758FD6A4D81
:10111000286801900420FFF752FD2868009001988C
:10112000C0B220700199090A61700199090CA1707F
:101130000199090EE170009921710099090A617104
:101140000099090CE18060210840002802D0202885
:1011500003D008E0FFF798FF7CBD00F0CEF97CBD1E
:1011600001208004A0600020FFF784FB7CBD70B5E7
:101170000120504E8005B060504DA87C022815D14A
:101180000020A87468694E4988420DD1A8694D496C
:10119000884209D10024A0000021FFF71DFD641C36
:1011A000402CF8D3FEF7A6FF0420A874404C206919
:1011B000454D40060CD52069402188432061207BA5
:1011C000F0600020FFF756FB2069A843206170BD46
:1011D000E088002808D02069C00305D4FFF7F6FD99
:1011E0002069A843206170BD0020FFF743FB70BD5C
:1011F000F8B501212F4849058160304DA87C2E4E5D
:10120000012819D0686D80050DD5686D09138843D4
:1012100068650020FFF7D3FC30682870686D0121F5
:10122000490308436865224C2069000412D4002158
:101230000846FFF72DFC16E00024A0000746FFF744
:10124000BEFC306879194861641C102CF5D302206B
:10125000A874E8E717484168C90104D481690122EC
:10126000D2061143816120690121C90388432061AD
:10127000F8BD00200D4A00211154401C0528FBD365
:101280000020124A1154401C0428FBD30848017066
:1012900041708170C17001714171C18081600173C1
:1012A00001690122520411430161704704000020CA
:1012B0002401002000C00540180000203801002053
:1012C000AA42895AFF7162CC00000100140000207C
:1012D00010B5A74A107821281BD1A649486D0123D3
:1012E0001B03184348651079012812D8907800280C
:1012F00004D14B6D0324A402A3434B6548741069C9
:10130000012109040843106100210846FFF7C0FBD2
:1013100010BD0020FFF7AEFA10BD10B5944801785B
:10132000212914D10169012212041143016191495B
:101330004A6D0123DB021A434A650279012A06D865
:10134000C078087400210846FFF7A2FB10BD0020FA
:10135000FFF790FA10BD10B586490120887400216E
:101360000846FFF795FB10BD10B5814801690122C1
:101370001204114301617F48416DD211114341654F
:1013800000210846FFF784FB10BD10B578480178AE
:10139000212907D10179002904D1C078022805D07C
:1013A000032806D00020FFF765FA10BDFFF7DCFF29
:1013B00010BDFFF7D0FF10BD10B56D4C2078A128EF
:1013C00016D16C48416DC90401D4012141742179C1
:1013D00001290DD8417C0020FFF7FEFB2069012187
:1013E000C9030843206101210020FFF751FB10BD14
:1013F0000020FFF73FFA10BD10B55D4C2078A12802
:1014000008D15C48416D0122D20211434165217926
:10141000002903D00020FFF72DFA10BD017C002029
:10142000FFF7DAFB20690121C9030843206101218C
:101430000020FFF72DFB10BD10B54F4900200860BC
:101440004B4801690122D2031143016105210020AB
:10145000FFF71EFB10BD10B500210846FFF718FB73
:1014600010BD10B5434801780020FFF7B5FB404898
:1014700001690122D2031143016101210020FFF71C
:1014800007FB10BD10B53C490020086038480169D1
:101490000122D2031143016108210020FFF7F8FA6D
:1014A00010BD10B532480178A1291FD181680129EA
:1014B0001CD10179C078002902D0012910D015E093
:1014C000012804D0022805D0032806D00EE0FFF73B
:1014D000D9FF10BDFFF7C5FF10BDFFF7BCFF10BD62
:1014E0002449497C012901D1012803D00020FFF7BC
:1014F000C1F910BDFFF7A0FF10BD10B51C48407822
:10150000030004F01FF80C19070A0D19191919190D
:1015100010131619FFF7C5FF10BDFFF76DFF10BDC3
:10152000FFF74AFF10BDFFF730FF10BDFFF7F5FED4
:1015300010BDFFF7CDFE10BD0020FFF79BF910BDD9
:1015400010B50D4900200860094801690122D20345
:101550001143016105210020FFF79AFA10BD0548EB
:101560007D2101740121417400218174416570471E
:10157000240100203801002010000020F8B51420BC
:10158000FD4EFE4D0127401EC0B2002431684906C1
:1015900000D501243168090601D502210C43297BBD
:1015A000A14204D0022003F0A4FD2C7314200028D3
:1015B000E9D1287BF249C3070022002B05D00F7028
:1015C000FF21F04B9131196000E00A70EB4920399E
:1015D0008F74830700D58A748B7C002B00D08A73AC
:1015E0006873F8BDE54900202431487003201339A1
:1015F00008700220891E0870E34901200870BDE7C9
:1016000070B50021DC48026801235206002A00DA86
:1016100001210068000601D502200143D748027B62
:101620008A4203D00A228273017370BD817B002934
:10163000FBD0491EC9B281730029F6D1447B114603
:1016400061400029F1D04273CD070024CC48002D21
:1016500019D0D1070DD0037003F0B9FB01F02FFEB4
:10166000FFF7C2F8C9480470FF20C64991300860EE
:1016700070BD047003F0ABFB01F020FEC4480470A1
:10168000FFF77EF870BD8907FCD5BC4920398B7403
:10169000920700D58C7400780128F3D1887C00284B
:1016A00002D001F008FF70BD01F036FF70BD30B50B
:1016B000B548B24B1038203B9A79815C587841404C
:1016C000D9700024002915D01979022200290BD0E5
:1016D0009D7885420BD1491EC8B21871002802D1ED
:1016E0009C700120187030BD1A71987030BD1A714D
:1016F000987030BD1C71521CD0B298711028F8D36C
:101700009C7130BD70477047F8B59C4B002419465A
:101710009A7A2039CE7A087B9446002A1BD0002E74
:1017200019D14D7AAF2D0BD03A2D09D03B2D07D0D2
:101730003C2D05D03D2D03D01A7A3C2A01D34C72A2
:10174000F8BD521CD2B2904F1037BD54521CD2B2C9
:101750001A72B8544C7262460125002A03D0002E3A
:1017600001D0012848D00128EAD1487A9C2860D0CD
:10177000F22867D0814A3127203A567E20320096DF
:10178000D278854E9446834A7F0212783678D328E1
:1017900064D0E62872D0E82871D0E92870D0EA2811
:1017A0006FD07E49EB280F787D4909786AD0EC2804
:1017B00069D0ED2868D0EE2867D0704A203AD0284A
:1017C0007ED0D8287DD0F1287CD07649D7280978DA
:1017D00079D0D62878D0D42877D0D52876D0932839
:1017E00075D0942874D0952873D09628A8D103205A
:1017F0005872FFF788FFF8BD487A932806D09428DE
:1018000008D095280AD096280DD010E05C72FFF71A
:101810007AFF0CE05D72FFF776FF08E00220587255
:10182000FFF771FF03E003205872FFF76CFF4C7263
:10183000F8BD4C725C480178002901D00470F8BDF5
:101840000570F8BD4C7259490878401CC0B2087048
:10185000092800D30C7003F0E0F8F8BD4C72BB8986
:101860005348834205D14C7601F0EAFA01F03FFF7C
:10187000F8BD0098002809D04C76F8BD38E043E068
:1018800055E069E0A2E015E12AE13FE1494800782E
:101890000028F2D16046002802D003F0DDFAECE720
:1018A0003C49521CD0B20870112800D30C703A4841
:1018B000012E1AD0F978017039793A48017009E09F
:1018C0003AE1A4E1ACE1AFE1B9E1C3E1D0E1DDE1AE
:1018D000E0E1E3E101F0ECFE3748057037480470C1
:1018E00002F078FF03F073FAC7E705210170E3E720
:1018F0004C727A892E488242BFD00098002801D0CD
:101900004C76BAE74D76B8E74C722248002A09D0E7
:10191000012A09D004702948047002F05BFF03F02B
:1019200056FAAAE70570F6E719210170F3E74C7241
:101930001848022A0AD0042A0BD0022101701F483D
:10194000047002F047FF03F042FA96E704210170A9
:10195000F5E703210170F2E74C720E480D2A2FD0F3
:101960000B2A30D00D2101701448047002F032FFB0
:1019700003F02DFA81E7000000A0044040000020A1
:10198000A200002094000020A0010020740000208C
:1019900078000020AB000020B8000020BE0000202E
:1019A000BD000020BA000020BF000020A7000020DA
:1019B000AAAA0000C4000020BC000020C000002033
:1019C0000B210170D0E70C210170CDE7F84844727B
:1019D000F848112A02D01121017066E0F648002F64
:1019E00015D0047001291DD0022921D0032926D049
:1019F00004292BD0052930D0062935D007293AD023
:101A000008293FD0092944D0002948D04DE005706D
:101A1000EA4804800020EA490C54401CC0B2112856
:101A2000FAD32AE71822E649E64801F04CFA3CE0EE
:101A3000E4481822E249203001F045FA35E0C5209B
:101A40001822DF49C00101F03EFA2EE0DD481822DD
:101A5000DB49603001F037FA27E0DA481822D8492C
:101A6000803001F030FA20E0D6481822D449A03066
:101A700001F029FA19E063201822D149000201F08F
:101A800022FA12E0CF481822CD49E03001F01BFACB
:101A90000BE01822CA49CC4801F015FA05E0CA4803
:101AA0001822C749203001F00EFA02F093FE03F02D
:101AB0008EF9E2E6BE484472BE48082A0AD0092AD6
:101AC0000BD008210170C148047002F083FE03F0BE
:101AD0007EF9D2E609210170F5E70A210170F2E7EB
:101AE000B3484472B3480E2A0AD00F2A0BD00E21F5
:101AF0000170B648047002F06DFE03F068F9BCE6B0
:101B00000F210170F5E710210170F2E7A848447237
:101B1000A848052A0AD0072A0BD005210170AB4836
:101B2000047002F057FE03F052F9A6E60721017097
:101B3000F5E706210170F2E75472A54800781328F2
:101B4000B7D19D48002F1BD00470012922D0022953
:101B500026D003292BD0042930D0052935D00629D9
:101B60003AD007293FD0082944D0092949D0002973
:101B70009FD1954818229249203001F0A4F97CE6C3
:101B800003F07EF900208E490C54401CC0B211288D
:101B9000FAD372E618228A498A4801F094F96CE671
:101BA000884818228649203001F08DF965E6C52065
:101BB00018228349C00101F086F95EE681481822A7
:101BC0007F49603001F07FF957E67E4818227C4952
:101BD000803001F078F950E67B4818227849603867
:101BE00001F071F949E6632018227549000201F0FD
:101BF0006AF942E6744818227149203801F063F905
:101C00003BE618226E49704801F05DF935E65472E2
:101C10006E480178002901D004702EE605702CE68C
:101C2000547255731C7228E654726A480129A6D969
:101C3000491E01706848057003F0C9F81DE654722A
:101C4000644805299BD2491C01706348057003F064
:101C5000BEF812E654726046002890D15F48052E07
:101C60008DD2761C067001F023FD03F0B0F804E677
:101C70005472604600288CD15848012E89D9761EAE
:101C8000067001F015FD03F0A2F8F6E55C72FFF7AF
:101C90003AFDF2E55D72FFF736FDEEE5022058727F
:101CA000FFF731FDE9E5F8B5414900244B7A0846D4
:101CB0001E25007BD22B0CD0494A0126494FC97CF6
:101CC0001278972B0CD0982B2ED0992B51D0012025
:101CD000D3E5002801D0CD7400E0CC740020CCE521
:101CE000012A1FD1002819D03F48067003F06FF871
:101CF0003E4806702E481F210176C5743C490320DA
:101D0000087051203870812078703A4806703A483F
:101D100004703A4804703A48047003E024480029EB
:101D200000D0C4740020A8E5012A20D100281AD0D0
:101D30002D480221017003F04AF82C4806701C4817
:101D40001F210176C5742A48032101705120387083
:101D5000822078702748067027480470274804704E
:101D60002748047003E01248002900D0C474002002
:101D700083E5012A4AD1002844D01B480421017080
:101D800003F025F81948067009481F210176C5742B
:101D9000174803210170512038708320787015484E
:101DA00006701548047015480470154804702DE03D
:101DB00020000020AB000020BE000020CE0000204C
:101DC000DA0200204062000040630000C0000020F2
:101DD000A6000020BA000020BC000020B8000020AF
:101DE000A2000020860000207F000020C300002009
:101DF0007300002075000020780000207C00002087
:101E000074000020FC48002900D0C474002034E590
:101E100010B50020F849F94B497AF94A05E0440029
:101E20001C5D8C4205D0401CC0B21488A042F6D381
:101E3000FF2010BDF0B5F04CF24D207BF24EF34F79
:101E4000002852D0FFF7E4FFFF2817D0A17C00291B
:101E500015D0E17A00293CD0E17E002934D0EC494C
:101E60004200511849786172E34AC1083C32440784
:101E7000E848640F535C005D03435354F0BDE17ABE
:101E8000002916D0E17D00290ED04100891949783A
:101E90006172D94AC1083C324407DE48640F535C82
:101EA000005D03435354F0BD410049194978617204
:101EB000EFE7E17D002903D04000305C6072F0BDA7
:101EC0004000285C6072F0BD4100C9194978617218
:101ED000CAE7E17E002904D04100CD48405C607231
:101EE000F0BD4000385C6072F0BDFFF791FFFF2845
:101EF000FAD0C14AC1088C463C32515C4307C54AFE
:101F00005B0FD25C114222D0A37C002B0DD0E37E6C
:101F1000002B17D04300BE48181840786072B648AE
:101F20003C30914362468154F0BDE37D002B04D0E8
:101F30004000801940786072F1E740004019407815
:101F40006072ECE74000C01940786072E7E7A17C5E
:101F5000002907D0E17E00290FD04100AC48405C49
:101F60006072F0BDE17D002903D04000305C6072FA
:101F7000F0BD4000285C6072F0BD4000385C6072CB
:101F8000F0BDF8B5A44800260680A4480178A4480E
:101F9000002902D0A349016002E0FF2191310160D4
:101FA000954C617A002968D0A07C274644370028E8
:101FB00025D0A32908D0A22909D0A7290AD0A6296B
:101FC0000BD046290CD01AE0A220607217E0A320A3
:101FD000607214E0A620607211E0A72060720EE02B
:101FE000212060728448217B44300078002903D08E
:101FF0000A210843387002E0F52108403870FFF7E5
:1020000019FF617A01252046EF291FD0AB293BD06B
:10201000F02958D0AC296BD0774C2034E32977D005
:10202000E42976D0E72975D0E52974D0AD2973D09D
:10203000DC2972D0DD2971D0DE2970D0DF296FD084
:10204000827F002A01D04C296BD06BE1017B0029F3
:1020500014D0C17A002910D0017D29430175C943EC
:1020600089070AD10446407E002804D0667600F035
:10207000E7FE01F03CFB1E20E07410E4017D4908FE
:1020800049000175C6740AE4017B002915D0C17AA4
:102090000029F2D0017D022211430175C94389074D
:1020A000EBD10446407E002804D0667600F0C8FEDE
:1020B00001F01DFB1E20E07416E4017D89088900F3
:1020C0000175C67410E4017B00290BD0C17A002988
:1020D000F2D0417D29434175C9438907ECD11E21C6
:1020E000C1740EE4417D490849004175C67408E495
:1020F000017B002916D0C17A0029F2D0417D02224D
:1021000011434175C9438907EBD11E21C17408E40D
:102110000EE032E046E05BE092E0ABE0BFE0D4E00E
:10212000E8E0FDE0417D890889004175C6740CE452
:10213000017B00291ED00746407D042108437875A5
:10214000052211468143384807D0E1780029EED1B5
:10215000017800290CD006700CE406703348017831
:10216000012902D1027001F0A3FA1E20F87458E48C
:10217000057056E44675C67453E4017B00290BD004
:10218000C17A0029F3D0817E29438176C94389072A
:10219000EDD11E21C17444E4817E49084900817655
:1021A000C6743EE4017B00290CD0C17A0029DED040
:1021B000817E022211438176C9438907D7D11E212E
:1021C000C1742EE4817E890889008176C67428E472
:1021D000017B00292ED0C17A0029C8D0817D2943F6
:1021E0008175C9438907C2D1114909780129BED136
:1021F0001E21C17415E400002000002028590000B1
:10220000D600000098580000E05800007059000007
:10221000B8590000505A0000A000002074000020AF
:102220009400002070170000C4000020B8000020B7
:10223000A2000020817D490849008175C67438E4F8
:10224000017B002910D0C17A0029F8D0817D0222BB
:1022500011438175C9438907F1D1FA4909780129E8
:10226000EDD11E21C17424E4817D89088900817526
:10227000C6741EE4017B00290BD0C17A0029DED090
:10228000417F29434177C9438907D8D11E21C174B1
:102290000FE4417F490849004177C67409E4017B96
:1022A00000290CD0C17A0029C9D0417F02221143F4
:1022B0004177C9438907C2D11E21C17409E4417F16
:1022C000890889004177C67403E4017B00290BD09B
:1022D000C17A0029F2D0017F29430177C9438907D8
:1022E000ECD11E21C1740AE4017F4908490001773D
:1022F000C67404E4017B00290CD0C17A0029F2D015
:10230000017F022211430177C9438907EBD11E21C6
:10231000C1740AE4017F890889000177C67404E466
:1023200049214172C848C07A002811D1C64A517A61
:102330004C2905D1137B002B01D0657000E066703D
:10234000492905D1117B002901D0A57000E0A670B4
:10235000A178627811431DD1BB4A517A8C464C2931
:102360000BD1D17F03460B4307D04920507200297F
:1023700001D0D6770EE0D5770CE06146492909D126
:102380002178084306D04C205072002901D02670D5
:1023900000E02570FFF787FC0028BAD0AA48407AF1
:1023A000F62818D1A848017B01292BD0C17C00292F
:1023B0002BD0C674022002F09CFE4C20B870A248BC
:1023C000857225719F480078002821D000F0C4FD57
:1023D0009D484C2141729C48C674FFF795F99A4874
:1023E000417A002995D00246AE2918D09A2920D0EA
:1023F000E1293AD0D1294CD0F720862953D087291A
:102400005FD066E00A21C17407E4CD214172E2E7A2
:102410008D49082244310120FEF75CF9D8E7107B92
:102420000128F1D1107C012801D0157406E416743E
:1024300004E45672107B0128F8D1824908780028FC
:1024400009D00128F2D10E7002F0C1FC00F036FF75
:10245000FEF796F90BE40D7002F0B9FC00F02FFFC7
:102460007A480670FEF7C0F90FE456727548007896
:102470000128F9D1107B764C012803D026707548CD
:10248000067006E400F084FF0A2002F032FE257098
:1024900003E4107B0128FBD1907B012801D09573C8
:1024A00016E4967314E4117B012905D039780140B4
:1024B00039702B2050720CE03878082108433870AE
:1024C000F7E7117B012908D03978014039700820DD
:1024D0005072907B012805D00BE038780821084322
:1024E0003870F4E7507AA328DAD0A728D8D0652826
:1024F000D6D0507AF72816D0F82808D3D17B564B7F
:1025000000291AD04007000FC01840785072507A46
:10251000AF2817D0F32824D0F42874D04F49097875
:10252000132971D012E1107B0128B9D1D07B00288A
:1025300001D0D6731CE4D5731AE44007000F185C71
:102540005072E4E75571D672107B012800D1D57224
:10255000917C0029EED02571FE710028EAD0FD7132
:1025600006E4107B0128E5D1907C00284DD0257130
:1025700035484430C571334F3878002827D000F0F3
:10258000EBFC0A2002F0B5FD25712F4E00204436E9
:10259000F0713878002821D000F0DEFC0A2002F02B
:1025A000A8FD2571F571387800281ED000F0D4FC04
:1025B0000A2002F09EFD25710020F0713878002875
:1025C0001AD000F0C9FC0A2002F093FD1FE41E4956
:1025D000082244310120FEF77DF8D2E71A4908228B
:1025E00044310120FEF776F8D8E717490822443134
:1025F0000120FEF76FF8DBE7134908224431012080
:10260000FEF768F8DFE737E09CE001202071082042
:1026100038700B20B8700B4D2878002820D000F0BF
:102620009BFC0A2002F065FD012020713E70BE7007
:10263000287800281AD000F08FFC0A2002F059FDFB
:102640001BE50000A2000020200000207A000020EE
:10265000C500002081000020005A0000A6000020D4
:102660000822FE490120FEF735F8DAE70822FB4987
:102670000120FEF72FF8E0E7107B0128E0D1907CE5
:10268000002837D025710020B870FD71F44E3078E5
:1026900000281DD000F060FC0A2002F02AFD257100
:1026A0002C20B870FD713078002817D000F054FC51
:1026B0000A2002F01EFD25710020B870F8713078F4
:1026C000002811D000F048FC0A2002F012FDD4E4EA
:1026D0000822E2490120FDF7FDFFDDE70822DF497E
:1026E0000120FDF7F7FFE3E70822DC490120FDF7B1
:1026F000F1FFE9E701202071082038700620B8704A
:10270000D74D2878002811D000F026FC0A2002F0CE
:10271000F0FC012020713E70BE70287800280BD09C
:1027200000F01AFC0A2002F0E4FCA6E40822CB49DF
:102730000120FDF7CFFFE9E70822C8490120FDF796
:10274000C9FFEFE7C74909780129C0D0C349133948
:10275000B02810D303230B706571127B012A02D0BD
:102760004E708E7089E4B038BF4A4000105A4870ED
:10277000000A887081E4A82819D3A57102230B7080
:10278000B649127B1539012A09D0B84B4A78181876
:10279000C038037EFF2043401A404A706DE4B34BBB
:1027A0004A781818C038007E02434A7065E4A028B1
:1027B00015D32571117B012909D04207AB48520F6F
:1027C000805C3978FF2250400140397055E442075F
:1027D000A648520F3978805C014339704DE4117B73
:1027E00001290DD0917A00294DD09C4B17465A18DB
:1027F000937883422CD196702571491EB97242E0BC
:10280000937A052B11D2002B09D0002105E07E1808
:10281000B678864289D0491C89B29942F7D3F91813
:1028200088705B1C9372257127E48D490978012912
:1028300098D0782896D2E5718D490D70C20851184C
:1028400043078A485B0F4A78C05C02434A7014E42D
:10285000002216E0814FBB189B78834205D00EE022
:10286000B818C3788370521C92B28A42F8D3B81851
:102870008670257179484438491E817203E4521CE0
:1028800092B28A42E6D37828F8D2754909780129AC
:10289000F4D0E57176490D70C208511843077348AA
:1028A0005B0FC05C4A78FF23584002404A7003E443
:1028B000F0B56A4901202439C8726E486E4F067817
:1028C00008462038017A007B4900CD196B4C6C4AD0
:1028D0000D2E03D06B4B0F2E0DD045E0795C6B783D
:1028E000C9000919C95C002802D0FE205054F0BD6F
:1028F000FD205054F0BD002836D0785C69785B4DDF
:10290000695C614E355C0D4335541D5C0D431D54AF
:102910000120374639182039CD7F3E5C3543CD77CD
:102920001121091ACE18203E5D5CF67F35435D54B7
:10293000401CC0B21128EDD30021FF255248435C52
:102940005048405C03430020CE003619DF0701D019
:10295000375CD5555B08401CC0B20628F6D3491C2D
:10296000C9B21129EAD3F0BD0E2E02D0112E0DD01E
:102970003FE0795C6B78C9000919C95C002802D076
:1029800000205054F0BD01205054F0BD002830D03C
:10299000785C6978354D6D5C3B490E5C2E430E5476
:1029A0001E5C2E431E54394F3E5C2E433E54384E1F
:1029B000375C2F43375400203349354D0B5C314988
:1029C0002D5C095C0B433149095C29430B43002111
:1029D000C5002D19DE0702D06F5CFF26D6555B08B7
:1029E000491CC9B20629F5D3401CC0B21128E3D353
:1029F000F0BD132E11D100280FD01A4800780128FD
:102A0000F6D1785C6978234C0125235C2A468A40FC
:102A10005340235420480570F0BD102E3ED10028AD
:102A20003CD0785C184D3F21295419540021FF25D2
:102A30001548445C585C04430020104FCE00F61942
:102A4000E70701D0375CD5556408401CC0B20628A2
:102A5000F6D3491CC9B21129EAD3F0BD64000020A5
:102A6000A2000020BE000020105A0000505A0000B2
:102A7000A0010020A6000020435B0000435C000092
:102A8000000400207D0200206C0200208E02002045
:102A90009F020020DA020020B6000020122EDCD1B6
:102AA0000028DAD0795C6878FE23CD002D192E5CE1
:102AB0009355002909D04E1EF6003619375CD355C0
:102AC000052802D2361876789355002803D02E18A0
:102AD000203EF67F9355052802D22D186D78535568
:102AE0001029BAD2491CC90009190C5C13550028D9
:102AF000B3D008182038C07F1354F0BD70B5C74C50
:102B0000C749A279607888540025E571E078C0074C
:102B100012D0A079E179C000401820722573607846
:102B2000C00701D001202073FFF7C2FEBD48217A03
:102B3000405C6072FFF725FA607840086070E078CA
:102B40004008E070E079401CC0B2E0710828DDD395
:102B500070BD10B5B14C2078002805D0FFF7CEFF2E
:102B6000FEF7D0FD0020207010BDAF484168090C71
:102B700009044160AD4841684160704700B5A7480D
:102B80008179A9480B0002F0DDFC10090E13181D15
:102B900022272C31373D43494F555B0D416A0122B5
:102BA0001143416200BD416A02221143416200BDEE
:102BB000416A04221143416200BD416A0822114367
:102BC000416200BD416A10221143416200BD416A69
:102BD00020221143416200BD416A402211434162FB
:102BE00000BD416A80221143416200BD416AFF225B
:102BF00001321143416200BD416A01225202114378
:102C0000416200BD416A012292021143416200BD4E
:102C1000416A0122D2021143416200BD416A012290
:102C200012031143416200BD416A01225203114364
:102C3000416200BD416A012292031143416200BD1D
:102C4000416A0122D2031143416200BD7648016806
:102C5000090C0904016075480168016070477248F9
:102C60004168734A11434160704841684160704750
:102C700010B50024FFF7F3FFFFF7E8FFFFF77EFF33
:102C80000A2002F021FA6B480168090700D50124E7
:102C90000168C90601D502210C430168890601D5E6
:102CA00004210C430168490601D508210C43016841
:102CB000090601D510210C430068C00501D520206C
:102CC0000443204610BD58480168594A1143016029
:102CD000564801680160704700B5504881795248F4
:102CE0000B0002F02FFC10090E13181D22272C31A7
:102CF000373D43494F555B0D416801221143416007
:102D000000BD416802221143416000BD41680422B8
:102D10001143416000BD416808221143416000BD7C
:102D2000416810221143416000BD416820221143D7
:102D3000416000BD416840221143416000BD4168CF
:102D400080221143416000BD4168FF2201321143DE
:102D5000416000BD4168012252021143416000BD43
:102D60004168012292021143416000BD4168012285
:102D7000D2021143416000BD416801221203114398
:102D8000416000BD4168012252031143416000BD12
:102D90004168012292031143416000BD4168012254
:102DA000D2031143416000BDF0B51C4A2249537A59
:102DB0005807400F095CD808204E157B5C00174669
:102DC000A3193C37002D0AD0154634352D5C0D4231
:102DD00002D0557C002D1BD0305D5072F0BD0F4DE0
:102DE0003C352D5C0D4208D00C4CFF263C34714024
:102DF0000D40255458785072F0BDD37A012B04D180
:102E0000064B34331D5C0D431D54305D5072F0BDD4
:102E10003C5C0C433C5458785072F0BD20000020BC
:102E200090010020F05700000040044000A0044042
:102E3000FFFF000000800440505A00009858000036
:102E4000F8B500203449002642008E52401C80B262
:102E50008A28F9D3022002F04CF9002403272F4DD1
:102E60007F030020A1010A18D21912782A54401CAD
:102E700080B24028F7D3312040020818274A402169
:102E800002F041FA01281CD0641CA4B2082CE8D33B
:102E900024492348C86000202E54401C80B240289A
:102EA000FAD300241925AD02A00140191B4A402184
:102EB00002F029FA012805D0641CA4B2042CF3D333
:102EC000F8BDFEE7FEE770B50B4614460021134A35
:102ED00003E05D5C5554491C89B2A142F9D30F4A05
:102EE000214602F010FA012800D1FEE770BD70B54E
:102EF0000B4614460021094A03E05D5C5554491C09
:102F000089B2A142F9D3054A214602F0FCF9012811
:102F100000D1FEE770BD0000EC0200208A04002012
:102F2000AA55FA5A00000140FE4964200880FE4973
:102F300000200870FD4801210172E121C900816271
:102F40007047F94900200870F8490120C871FF2036
:102F5000F4492D3008807047F0B5F548F34B0778F9
:102F60005E780225F34C00220121002F2AD0002E8A
:102F700028D00270F04E706A284370620920987160
:102F8000A12020800020ED4C265C401CE94C47002D
:102F9000E653C0B20828F6D3E94EF068C006FCD468
:102FA0003068C0242043306030680006800F03285A
:102FB000FAD0E0480088F061D9611A625A70C820DE
:102FC0009870B2E0DF480778002F2AD0002E28D072
:102FD0000270D94E706A2843706210209871A22046
:102FE00020800120D84C4700265CD24CE653401C80
:102FF000C0B21028F6D3D24EF068C006FCD43068B8
:10300000C0242043306030680006800F0328FAD0C7
:10301000C8480088F061D9611A625A70C820987057
:1030200083E0CA480778002F23D0002E21D00270F9
:10303000C14E706A2843706203209871A3262680CF
:10304000C3484778A78080786080BD48C468E4069C
:10305000FCD40468C0273C43046004682406A40F21
:10306000032CFAD0C661D9611A625A70C8209870D0
:103070005BE0B8480778002F29D0002E27D00270D7
:10308000AD4E706A284370629D71A420208001209B
:10309000B14C4700265CA74CE653401CC0B2022846
:1030A000F6D3A74EF068C006FCD43068C024204395
:1030B000306030680006800F0328FAD09D480088F1
:1030C000F061D9611A625A70C82098702DE0587961
:1030D00000282AD0002E28D05A719748466A2E43DD
:1030E000466203209871A620208000208F4C163461
:1030F000265C401C8F4C4700E653C0B20228F5D333
:103100008F4EF068C006FCD43068C0242043306085
:1031100030680006800F0328FAD086480088F061E6
:10312000D9611A625A70C82098701878002814D093
:103130008048403004884088B12C02D11E6A022E9B
:1031400005D07C4E4036B688B62C07D00DE01A70FC
:103150001A6241078148490F0170F0BD5A2804D115
:10316000012E02D11F6A032F02D0B62C05D00BE02E
:103170001A701A6299745974F0BD5A2804D1022E3B
:1031800002D11F6A032F02D0B62C06D00CE01A70B1
:103190001A62032098745974F0BD5A2804D1042E81
:1031A00002D11F6A032F02D0B62C05D00BE01A7093
:1031B0001A629D745974F0BD5A2804D1062E02D1AA
:1031C0001D6A032D02D0B62C05D00BE01A701A62CE
:1031D000FFF7B7FEF0BD5A2804D1072E02D11D6AB1
:1031E000032D02D0B62C04D00AE01A701A621974AA
:1031F000F0BD5A2804D10A2E02D11D6A032D03D036
:10320000574DB62C07D00DE01A701A62DA711A8386
:1032100054480270F0BD512804D1772E02D11F6AA4
:10322000032F02D0B62C09D00FE04C4802701A7060
:10323000DA701A62FFF778FE2A70F0BD512804D1C7
:10324000762E02D11F6A032F02D0B62C0FD015E0C4
:103250001A701A621A725A739A621973314802808C
:103260003148027019712A703F485862F0BD5128E8
:1032700004D1782E02D11F6A032F02D0B62C07D0BA
:103280000DE01A701A62FF20913058621A71F0BD79
:10329000512804D1792E02D1186A032805D0186A62
:1032A0000328F4D91A621A70F0BD1A7059732F48A6
:1032B00002701C4802801A622A70F0BD704730B557
:1032C0001D48416A02221143416218490320887156
:1032D000184AA620108051200B4616331870C87B60
:1032E000012804D0022805D0042806D007E0812058
:1032F000587004E08220587001E08320587000204C
:103300001C5C401C45005453C0B20228F8D30C4842
:10331000C368DB06FCD40368C0242343036003684E
:103320001B0625E0CE000020B30000207000002026
:1033300044000020EC0100200060044064000020F4
:1033400000C0014047000020A001002045000020EF
:1033500051000020460000204F00002038010020CE
:10336000C3000020C200002070170000B40000203D
:103370009B0F032BD3D01288C2610120C8610022A9
:103380000A624A70C8238B7088720A73C87230BD93
:1033900030B5C148416A022211434162BF4A03204D
:1033A0009071BF49A620088051201346163318702B
:1033B0006120587000201C5C401C45004C53C0B27A
:1033C0000228F8D3B748C368DB06FCD40368C024DE
:1033D0002343036003681B069B0F032BFAD0098865
:1033E000C1610120D061002010625070C82090702F
:1033F00030BD30B5A848416A022211434162A74A54
:1034000003209071A649A620088051201346163348
:1034100018706520587000201C5C401C45004C53FF
:10342000C0B20228F8D39F48C368DB06FCD4036807
:10343000C0242343036003681B069B0F032BFAD0B1
:103440000988C1610120D061002010625070C8203D
:10345000907030BD30B59048416A022211434162FC
:103460008E4A032090718E49A62008805120134671
:10347000163318706820587000201C5C401C4500F2
:103480004C53C0B20228F8D38648C368DB06FCD48C
:103490000368C0242343036003681B069B0F032BB0
:1034A000FAD00988C1610120D061002010625070FB
:1034B000C820907030BD30B57748416A0222114370
:1034C0004162764A032090717549A62008805120F8
:1034D0001346163318707420587000201C5C401C72
:1034E00045004C53C0B20228F8D36E48C368DB06CF
:1034F000FCD40368C0242343036003681B069B0FAE
:10350000032BFAD00988C1610120D061002010622C
:103510005070C820907030BD30B55F48416A0222BB
:10352000114341625D4A032090715D49A6200880E5
:1035300051201346163318707520587000201C5CFB
:10354000401C45004C53C0B20228F8D35548C3680C
:10355000DB06FCD40368C0242343036003681B0616
:103560009B0F032BFAD00988C1610120D061002094
:1035700010625070C820907030BD30B54648416A26
:10358000022211434162454A032090714449A6201A
:103590000880512013461633187070205870002090
:1035A0001C5C401C45004C53C0B20228F8D33D4877
:1035B000C368DB06FCD40368C024234303600368AC
:1035C0001B069B0F032BFAD00988C1610120D06133
:1035D000002010625070C8219170142191821072E5
:1035E00030BD2E498878002815D0401EC0B28870A2
:1035F0004A7810430FD1012048702748816A02227F
:1036000011438162274801690822914301610169E0
:103610000422114301617047F0B51F4F386801243F
:10362000C007022504261D491E4A002810D05069F3
:1036300040070CD5D369086A471C0F62184F400039
:1036400040373B520C708D73906930439061F0BDF0
:1036500050694007FBD58B79C869984206D3B86A90
:103660002843B8624C700020C86105E0431CCB6160
:103670000B494000085AD061D0699069304390618D
:10368000F0BD09493C200880084900200870034922
:103690000120487270470000006004407000002064
:1036A000EC01002000C00140CE000020B30000204B
:1036B000F848F749827C895CC17470470020F64A5B
:1036C00000211154401C80B28A28FAD3704700B5FB
:1036D000FFF7F4FFFF21EF489131818401228275C9
:1036E00000210170C17181710272C17200BD10B5FB
:1036F000FFF7E4FFFFF7EBFF31235B02D878E54CDF
:10370000A07418792075FFF7D3FF0120A075E34955
:103710000020087020779979E14A1170D979E14A3F
:103720001170197AE04A1170597AE04A1170997A49
:10373000DF4A1170D97ADF4A1170DF490870A0772B
:103740006077DE49087010BDD248817D01290BD118
:1037500000218175DA49027D895C4175828C4A437A
:103760001103090C4185C1847047F8B5D548002480
:103770000378C848D44A2030C178012B25D020389E
:10378000037B012B21D0407F012831D0CF48007826
:10379000012835D0CE48FF250378CE48002B00788D
:1037A000009006D0BB48C07F002802D000980128B6
:1037B0002FD00020C04EBA4B36781B78B446C64E88
:1037C0003678B6463F285CD067E0880607D50020EB
:1037D00041005452401CC0B28A28F9D3F8BD0020E1
:1037E0007F214300D152401CC0B28A28F9D3F8BDD2
:1037F000002041005452401CC0B28A28F9D3F8BDC1
:103800000020AA214300D152401CC0B28A28F9D31B
:10381000F8BD0021B148B24E03780020022B04D03D
:10382000032B08D0012B14D022E0CF00BF193F5C3E
:103830007F00D5531CE0002805D0CF00BF193F5CA6
:103840007F00D55314E0CF00BF193F787F00D453D9
:103850000EE0002807D0012805D0CF00BF193F5C3B
:103860007F00D55304E0CF00BF193F5C7F00D453E5
:10387000401CC0B20628D1D3491CC9B21129CCD3EF
:10388000F8BD8B4E3678002E07D08E0702D57E26E7
:1038900095536FE07E2694536CE0162807D1012BD8
:1038A00005D17646012E02D1009E012E02D01728A6
:1038B00006D00DE00E0701D595855BE0948559E0B3
:1038C000022B05D17646012E02D1009E012E02D098
:1038D000182806D00DE00E0701D5D5854AE0D4851D
:1038E00048E0042B05D17646012E02D1009E012E20
:1038F00002D0162806D00AE00E0701D5158639E059
:10390000148637E06646012E01D1012B02D017281C
:1039100006D00AE0CE0601D595852BE0948529E0F6
:103920006646012E01D1022B02D0182806D00AE0EB
:10393000CE0601D5D5851DE0D4851BE06646012E57
:1039400001D1042B08D0544E365C002E10D0514FBC
:10395000BF7F002F06D00BE0CE0601D5158609E00B
:10396000148607E06746002F02D17746002F07D064
:1039700046009453401CC0B28A2800D222E7F8BD0A
:10398000444FFF7C7E43F6084700D653F2E7414898
:1039900001212030C17070473E4800212030C170A5
:1039A0007047F0B53B4C20262246507B118D401CC1
:1039B000C3B22032D078277BDF2505400643012F94
:1039C00006D0454F3F78002F31D0002913D0C7E0F3
:1039D00000290FD1782020856373D80701D0D570D6
:1039E00000E0D670072B05D1D178DF200140D170DF
:1039F00000202073B4E03C212185A17B491CC9B281
:103A0000A173CD07F723002D03D008252843D070DC
:103A100001E01840D070304D012F07D10F2905D19A
:103A2000D0781840D07000202870A07398E0254FFF
:103A30003F78012F06D02B4D2D78002D56D0002930
:103A400014D08DE0002910D1782020856373D80729
:103A500001D0D67000E0D5701A4C0F2B05D1D1786B
:103A6000DF200140D1700020207079E0FF202D3050
:103A700020856373D80705D01B48436A01210B4397
:103A800043626DE01848816A01231943816267E04F
:103A9000E55F0000A6000020000400202E000020AA
:103AA0007F000020370000206D0000203B00002038
:103AB0006E00002043000020780000203E0000201F
:103AC000ED5F00006C000020EC02002039000020B7
:103AD00081000020A20000207D0000208200002044
:103AE000435C00007700002000A00440F74D2D78D3
:103AF000002D0ED0002933D1642121856373D907AD
:103B000003D010210843D0702AE0EF210840D07084
:103B100026E0257E002D0CD0002921D13C202085D7
:103B20006373D80702D0FFF737FF19E0FFF72FFFC5
:103B300016E0E7490B789B0703D502231843D070A2
:103B400002E0FD231840D0700878400704D5D078F3
:103B500004210843D07003E0D078FB210840D070E6
:103B6000DC480078002804D1DB498B6A0124234318
:103B70008B62012808D1D9480078012804D0D648A2
:103B8000816A012319438162D0480078012807D057
:103B9000D3480078012803D0D078E7210840D070BE
:103BA000F0BD10B5CF4C0722A256CF4BD00707D09F
:103BB000002000211954401CC0B28A28FAD306E024
:103BC0000020FF211954401CC0B28A28FAD3521C8D
:103BD00050B2E071062805DBFFF770FDFFF730F902
:103BE000FFF785FD10BD00B5FFF768FD00BDF0B51E
:103BF000FFF764FD0021BD4FBB4DFF23BC48425C75
:103C00000020CC00E419D60701D0265CAB55520841
:103C1000401CC0B20628F6D3491CC9B21129EDD305
:103C2000F0BD0020B04A115C002901D0491E11549A
:103C3000401CC0B28A28F6D37047F0B5AC4D6E3D3B
:103C40002878400828702F4633373878400038707D
:103C5000012029182039CB7F2A5C1343CB775108E8
:103C600029543A18203AD37F395C0B43D377490063
:103C70003954401C40B21128EBDB9D4E5D3E307C38
:103C80004008307432461132107C400010740F200E
:103C900033185C78315C0C435C704908315413185C
:103CA0005C78115C0C435C7049001154401E40B2BA
:103CB0000028EDDA00208E498D4B6E395D3B095CA2
:103CC0001B5C8B4C19433B3C135C245C2343194322
:103CD0004BB20021854EFF25C400A419824EDF0798
:103CE00001D0675CF5555B10491C49B20629F6DB2B
:103CF000401C40B21128DEDBF0BDF0B5FFF7DEFC62
:103D000001207B4A11236E3AD7181418115C203C0D
:103D1000E177191ACC19203CE47F7C54401C40B256
:103D20001128F2DB0020107438700021FF23704846
:103D30007A5C6E38405C104342B200206B4DCC0080
:103D40006419694DD60701D0265CAB555210401C52
:103D500040B20628F6DB491C49B21129E7DBF0BD69
:103D6000F0B50120624A11236E3AD7181418115C7D
:103D7000203CE177191ACC19203CE47F7C54401C8C
:103D8000C0B21128F2D30020107438700021FF2334
:103D900057486E38425C785C02430020534DCC009B
:103DA0006419514DD60701D0265CAB555208401C12
:103DB000C0B20628F6D3491CC9B21129E8D3F0BD18
:103DC0000020494A115CFE2903D0002901D0491C7A
:103DD0001154401CC0B28A28F4D370470020424AD4
:103DE000115CFE2903D0002901D0491E1154401C4A
:103DF000C0B28A28F4D37047F0B53A49C87A401C5B
:103E0000C8720020897E3A4D8C466E3D614600297D
:103E100007D0295C49002954490609D501212954B4
:103E200006E0295C49082954002901D120212954A0
:103E30002A5C00212D4EFF24C3009B192A4ED70770
:103E400001D05F5CF4555208491CC9B20629F6D36B
:103E5000401CC0B21128D9D3F0BD10B50020224AB1
:103E6000FF23244C06E0115C002907D0491E1154A1
:103E7000401CC0B221788842F5D310BD1354F7E737
:103E8000F0B51849C87A401CC8720020184F6E3F20
:103E9000395C4906090E3954C90901D00121395448
:103EA0003A5C0021114DFF23C40064190E4DD60762
:103EB00001D0665CAB555208491CC9B20629F6D33D
:103EC000401CC0B21128E3D3F0BD000078000020F0
:103ED00038010020A200002000A00440770000204C
:103EE0007D000020A600002000040020435C0000AC
:103EF000DA020020E45F0000F0B5F849F6480A78DD
:103F0000807E521EF64DF74ED4B200282FD00020EE
:103F1000F54A115C491CC9B21154F04B1B78994207
:103F200001D300211154F04B443B195C002916D0F9
:103F3000491E19540021ED4BC200D218CB0710D0F6
:103F4000E94B575C443B1B5CEB5CF355491CC9B225
:103F50000629F3D3401CC0B21128D9D3B4E71C54AE
:103F6000E8E7E14B575C1B5CEB5CF355EEE70020A8
:103F7000DD4A115C491CC9B21154D84B1B789942D7
:103F800001D300211154D84B443B195C00290DD0BA
:103F9000491E19540021D54BC200D218CB0707D0B7
:103FA000D14B575C1B5CEB5CF35507E01C54F1E70D
:103FB000CD4B575C443B1B5CEB5CF355491CC9B2D1
:103FC0000629EBD3401CC0B21128D1D37CE7F0B551
:103FD0000020C24FC44C23E0BF49897E002909D08C
:103FE000215C491CC9B221543A78914207D300217F
:103FF000215404E0215C002917D0491E21540021DE
:104000000C22BB4B4243D318B54E225CB54DB25C7B
:104010005E5CAA55491CC9B20C29F9D3401CC0B238
:10402000B44909788842D7D34EE73978491E2154DC
:10403000E5E7F0B50020A94FAB4C23E0A649897E07
:10404000002909D0215C491CC9B221543A78914217
:1040500007D30021215404E0215C002917D0491E18
:10406000215400214200A44B8218D3189C4E225C9C
:104070009C4DB25C5E5CAA55491CC9B20329F9D3B8
:10408000401CC0B29D4909788842D7D31CE73978D3
:10409000491E2154E5E7F0B500208F49924D8F7EEF
:1040A000924B904E002F0AD0295C491CC9B229546A
:1040B0008A4A1278914207D30021295404E0295CEE
:1040C000002912D0491E29540021854C2A5CA25C8B
:1040D000CC00E418245C3255491CC9B21129F7D32D
:1040E000401CC0B20628DDD3EEE67C490978491EA3
:1040F0002954E9E7F0B5002077497B4C8F7E794D54
:10410000002F0AD0215C491CC9B22154734A12788D
:10411000914207D30021215404E0215C002913D0EF
:10412000491E21540021714BC200D3186C4E225CF1
:10413000B25C5E5CAA55491CC9B20629F9D3401C81
:10414000C0B21128DCD3BFE664490978491E215466
:10415000E8E7F0B5FFF7B2FA0020634F443F3918A3
:1041600049783954401CC0B20928F8D31020395C72
:104170003A185170401EC0B20928F8D25649C87E7C
:1041800001281DD0787A40087872C00701D001203C
:10419000C8760021FF23785C42080020534DCC00F4
:1041A0006419504DD60701D0265CAB555208401C0F
:1041B000C0B20628F6D3491CC9B21129EBD383E655
:1041C000787A4006000E7872C009E2D00020C876E6
:1041D000DFE741494A4A8B7E0846C07A002B08D067
:1041E000002802D0401EC8720BE01078401EC87232
:1041F00007E0401CC0B2C8721278904201D1002082
:10420000C8724048C97A405C364AFF211154704751
:10421000314A3D49D07A095C401CC0B2D072802836
:1042200001D30020D07200202E4A1154401CC0B28D
:104230008A28FAD3704770B5274D2E480721695652
:104240000078FF24274B81420DDA0020284E0C22F3
:104250004A439219165C9C55401CC0B20C28F9D3F5
:10426000491CE97170BD00201C54401CC0B28A2852
:10427000FAD370BDF0B5184C00252572FFF71EFA71
:104280002078132804D01320207001202074257674
:10429000E07D012812D0022812D0032813D0042870
:1042A00014D0052815D0062832D0072832D0082887
:1042B00033D0092834D0002835D036E0134B34E011
:1042C000124B203331E0C523DB012EE00F4B60336E
:1042D0002BE00E4B803328E0A60000202B5D000071
:1042E000CB5C000000040020B0020020435C000012
:1042F000CA5A0000425B0000F95E0000595F0000EE
:10430000C95A0000735A0000B85D00004062000006
:10431000FE4B0AE063231B0207E0FC4B403304E042
:10432000FA4B603301E0F94B80330021FF245A5CE3
:10433000F74842540020F74ECD00AD19F64ED7078E
:1043400001D02F5CF4555208401CC0B20628F6D3A9
:10435000491CC9B21129EAD3B6E500B5FFF7AEF999
:10436000EE482821818401218175122101700021EC
:1043700001720020E84A1154401CC0B28A28FAD3C6
:1043800000BD30B5FFF79AF9FF21E4482D31818453
:10439000012181751122027001720020DC4A002186
:1043A0006E3A1346144611332234154633351154F0
:1043B000195421542954401CC0B21128F7D330BDE0
:1043C00000B5FFF77BF9FF21D448913181840121A9
:1043D00081750021C172102202700172C17100202A
:1043E000CB4B6E3B1A46113219541154401CC0B2CB
:1043F0001128F9D300BD00B5FFF760F9C748C821FF
:104400008184012282750021C1720F230370027220
:104410000020BF4A5D3A1346113B11541954401C09
:10442000C0B21128F9D300BD00B5FFF747F9BB486A
:1044300028218184012181750E21017000210172E2
:104440000020B54AFE211154401CC0B28A28FAD37C
:1044500000BD00B5FFF732F9B04828218184012161
:1044600081750D210170002101720020AA4A1154AA
:10447000401CC0B28A28FAD300BDF0B5FFF71EF980
:104480004B21A648C9008184012282750021C17296
:104490000C230370027281769E4F9F4DFF23A0482C
:1044A000425C9B486E3842540020CC00E419D60789
:1044B00001D0265CAB555208401CC0B20628F6D38A
:1044C000491CC9B21129EAD3FEE410B5FFF7F6F88A
:1044D000FF21924891318184012181750021C172AF
:1044E0000B220270017200208E4A8B498E4B03E032
:1044F000145C0C54401CC0B21C78A042F8D310BD10
:10450000F0B5FFF7DBF84B218448C9008184012115
:1045100081750022C2720A220270017200217D4F51
:104520007D4DFF238148425C79486E38425400201B
:10453000CC00E419D60701D0265CAB555208401CCC
:10454000C0B20628F6D3491CC9B21129EAD3BBE48C
:10455000F0B5FFF7B3F871485021818401218175CE
:104560000021C1720922027001720020704D6A4E52
:1045700070490C5C66492A390C5444390C540021AA
:10458000644BC200D218575C2B5DF355491CC9B26D
:104590000629F8D3401CC0B21128E9D394E4F0B541
:1045A000FFF78CF85D48A0218184012181750021ED
:1045B000C1720822027001725D4D574E12E05E48D2
:1045C000445C53482A38445400200C225B4B4A4335
:1045D000D218175C2B5DF355401CC0B20C28F8D3E1
:1045E000491CC9B2564800788142E8D36CE4F0B562
:1045F000FFF764F849486421818401218175002115
:10460000C172072202700172494D434E12E04D48BB
:10461000445C3F482A38445400204A004A4B8A18D8
:10462000D218175C2B5DF355401CC0B20328F8D399
:10463000491CC9B2454800788142E8D344E4F0B54A
:10464000FFF73CF835486421818401218175002100
:10465000C1720622027001720020354E2D4A2E4F83
:104660003B490D5C2A492A390D540021CC00A4187D
:10467000245C735D3B55491CC9B21129F6D3401C1B
:10468000C0B20628ECD31FE4F0B5FFF717F82348B3
:1046900064218184012181750021C172052202708B
:1046A0000172234D1C4E2348445C19482A38445457
:1046B0000020184BCA00D218175C2B5DF355401C24
:1046C000C0B20628F8D3491CC9B21129EBD345E47E
:1046D000F0B5FEF7F3FFFF20104FF530B88401204E
:1046E000B8750020F8720421397038720021FF2358
:1046F0001848425C06486E3842540020054DCC00F4
:104700006419054D960728D5265C25E0E062000077
:10471000DA020020435C000000040020A600002014
:10472000A15D00005A5F0000E45F00008A5D0000A8
:10473000CB5C00002C5D0000675D0000CA5A0000E1
:10474000425B0000475D0000F95E0000595F000019
:10475000415D0000735D0000AB555208401CC0B2C3
:104760000628CFD3491CC9B21129C1D30120F8763C
:104770002CE400B5FEF7A2FFFF21F94891318184B6
:1047800001228275032101700021C171C172817102
:10479000027200BD00B5FEF791FFFF21F04819310C
:1047A0008184012181750221017000210172C17291
:1047B00000BD00B5EA4B187801280AD0FEF77EFF4D
:1047C000FF20F53098840120987518700020187229
:1047D000D87100BD00B5E248002101764179112968
:1047E00003D931214902497841714079030000F031
:1047F000A9FE1A0E111A1D202C2329142F2632353A
:10480000173E383B44101010101010104110FFF7E5
:10481000D0FF00BDFFF7BEFF00BDFFF7AAFF00BD40
:10482000FFF756FF00BDFFF72FFF00BDFFF707FFA3
:1048300000BDFFF7DCFE00BDFFF7B1FE00BDFFF7D6
:1048400087FE00BDFFF75CFE00BDFFF73EFE00BD2A
:10485000FFF713FE00BDFFF7FCFD00BDFFF7E4FD11
:1048600000BDFFF7C8FD00BDFFF7AAFD00BDFFF7C3
:1048700088FD00BDFFF771FD00BDFFF7FBFC00BD2B
:10488000F8B5B74C01252146C97AA0794A1CD3B2A4
:10489000FF22B44E002812D001280FD1B248007870
:1048A000814221D20020B14D0C27794349190D5C7A
:1048B0007255401CC0B20C28F9D3E372F8BDAC4865
:1048C0000078814208D2AB4D4800295C72544019EF
:1048D00040783254E372F8BDA24840304079002855
:1048E000F9D1A571E072F8BD30780028FBD1FEF750
:1048F000E5FE312676023078A52801D0FEF7A0FA31
:1049000070786071B078E075F078A07430792075B7
:10491000A575FEF7CDFEFFF75DFFF8BD9048007A64
:1049200000280AD000208F4A115C002901D0491EBE
:104930001154401CC0B28A28F6D3704770B5884B1A
:104940000025587A002806D0587E002803D15D72D1
:10495000FFF7E4FF0124187C002855D0587E00287A
:1049600052D11D741878030000F0ECFD160C0F12E4
:1049700015181B1E2124272A2D303336393C3F427F
:10498000454B484DFFF77CFF3DE0FFF754FC3AE014
:10499000FFF73EFC37E0FFF71CFC34E0FFF7D9FBE4
:1049A00031E0FFF7A7FB2EE0FFF775FB2BE0FFF7E9
:1049B00040FB28E0FFF70BFB25E0FFF79DFA22E024
:1049C000FFF75EFA1FE0FFF748FA1CE0FFF714FA62
:1049D00019E0FFF703FA16E0FFF7F2F913E0FFF72B
:1049E000BFF910E0FFF789F90DE0FFF726F90AE0BB
:1049F000FFF717F907E0FFF7FAF804E0FFF7F3F81D
:104A000001E0FFF7CEF80124FEF7CBFF002C01D028
:104A1000FEF7ABFEFEF798FE70BDF0B5504E0020DD
:104A20007778FF255449554A554C3B0000F08AFDE4
:104A300009060C1014181C2024280B00B07040200C
:104A4000F0708020307187E40D701070207083E466
:104A50000870157020707FE40870107025707BE47A
:104A60000D701570207077E40D701070257073E470
:104A70000870157025706FE40D70157025706BE46B
:104A800008701070207067E4F0B500203D49344C88
:104A900009782C34491E221DC9B2131D1DE0255C66
:104AA000002D1FD06D1E2554155C002D1CD06D1ED1
:104AB00015541D5C002D19D06D1E1D54265C324D01
:104AC000324FAE5D3E54165C314FAE5D3E541E5CBF
:104AD000AD5D304E3554401CC0B22F4D2D78A842EC
:104AE000DDD339E42154DFE71154E2E71954E5E757
:104AF000F0B51B4F20373878401CC0B23870214ABF
:104B000000211378984200D339707878401CC0B2E5
:104B100078701378984200D37970B878401CC0B28E
:104B2000B8701278904200D3B9700020164D3978D1
:104B30007C78BF78695C2C5D144A154E154BED5D91
:104B4000115434541D54401CC0B20328F8D303E45C
:104B5000F0B503484078002820D0012823D120E078
:104B6000A600002000040020425B0000CA5A00009A
:104B7000725A0000585A0000E4000020E5000020AE
:104B8000E6000020F85E0000385E0000E70000202C
:104B9000EA000020ED000020405D0000FFF7A8FFC4
:104BA00001E0FFF771FF0020B94CBA49BA4DBB4E86
:104BB000BB4FBC4A235C0B542B5C33543B5C1354FB
:104BC000401CC0B20328F5D37EE4F0B5B6490120FD
:104BD000487004203831488000200F46B34E0C3F07
:104BE0002DE0325CB24D11462B789A4202D32B78DD
:104BF000D21A92B2D2B23A540C4640342B789C422C
:104C000002D32B78E31A9CB2E3B2A74C303423547E
:104C100080312C78A14202D32C78091B89B2A24C96
:104C2000C9B234342154A34C994DA25C2A54E25C9D
:104C3000994B1A549A4A615C1154401CC0B29E4967
:104C400009788842CDD33FE4974800212030017095
:104C500040224270802282702038417092490F2099
:104C600038314880704770B58F490A203831488004
:104C70008D483F2640780021854C874A884D0300A7
:104C800000F060FC0A06090C151E27303A434C0858
:104C9000FFF7DAFF70BDFFF798FF70BD00202654C4
:104CA00011542954401CC0B20328F8D370BD002011
:104CB000215416542954401CC0B20328F8D370BDA7
:104CC0000020215411542E54401CC0B20328F8D3A4
:104CD00070BD0020265416542954401CC0B203282D
:104CE000F8D370BD00203346235411542B54401C7C
:104CF000C0B20328F8D370BD0020215416542E549E
:104D0000401CC0B20328F8D370BD002026541654AE
:104D10002E54401CC0B20328F8D370BD002021548B
:104D200011542954401CC0B20328F8D370BD5E4909
:104D3000887A401CC0B28872022803D90020887289
:104D400001204872704700B5FEF7B8FCFF215648B5
:104D500091318184012181750021C1721522027077
:104D60000172C17100BD00B5FEF7A8FC4E48534961
:104D70008184012181750021C172142202700172A7
:104D80004F4A1170C171017700BD01280FD0022870
:104D90000FD004280FD008280FD010280FD02028BB
:104DA0000FD040280FD080280FD00020704700205F
:104DB000704701207047022070470320704704208D
:104DC00070470520704706207047072070471FB5C1
:104DD000A5206A461070344841795170C17D9170A8
:104DE000817CD170007D1071364800789071364812
:104DF0000078D071354800781072354800785072CC
:104E000034480078907234480078D07231201022F3
:104E100069464002FEF76BF81FBD2349488D401ECE
:104E20000004000C488503D1C88C48850120087413
:104E300070471D49C87B401CC0B2C8730F2803D9F6
:104E40000020C8730120487470471749088D002856
:104E500001D0401E088570471348017B002903D10B
:104E6000018541730121017370471C4A10780028A5
:104E700005D10D4800210185417301201070704754
:104E80000948002101854173012101767047000026
:104E9000E7000020F0000020EA000020F3000020DE
:104EA000ED000020F6000020A60000203D5D00007F
:104EB000F85E0000385E0000405D00006C070000F6
:104EC000390000207F000020370000206D00002006
:104ED0003B0000206E000020430000206C000020FA
:104EE00000B55648017856480B0000F02BFB06042D
:104EF000090E13191F08416A01221143416200BDC6
:104F0000416A02221143416200BD416A04221143F9
:104F1000416200BD4B48416A10221143416200BD0D
:104F2000416A012252021143416200BD416A0122DD
:104F300092021143416200BD00B5404909780B005F
:104F400000F000FB060406090C0F12143E480DE0A9
:104F50003D482A300AE03C48543007E03A487E3069
:104F600004E03948A83001E03748D2303749028898
:104F70000A6242884A6282888A62C288CA62028958
:104F80000A6342894A6382898A63C289CA632F4954
:104F9000028A40310A60428A4A60828A8A60C28AF2
:104FA000CA60028B0A61428B4A61828B8A61C08B24
:104FB000C86100BD27482649416001602148416819
:104FC00041600168016070471D480168224A114034
:104FD00001601C480168102291430160704770B560
:104FE0001A4E00247460FFF7EFFF1C48134D007841
:104FF000002812D16878401CC0B268700A280CD30F
:105000006C7000F0F3F8FDF7B0FDFDF731FE1449C8
:105010000870FCF74CFB00F0B6F8FFF78DFFFFF7C8
:105020005FFF30680121084330602878401CC0B21F
:105030002870062800D32C7070BD0000E20000200C
:105040000080044000A00440EC020020002000404A
:10505000FFFF000000400440F8F9FFFF200000209F
:105060002100002050214843401E411CFCD17047C4
:1050700010B50246284C294B03E0DC606420FFF7A2
:10508000F1FF521E501CF8D110BD50214843401E64
:10509000411CFCD1704710B502461F4C1F4B03E06A
:1050A000DC606420FFF7F1FF521E501CF8D110BDE8
:1050B0000D20401E80B20028FBD170470220401E08
:1050C00080B20028FBD1704700B54008401E81B275
:1050D00003E0FFF7EDFF491E89B20029F9D100BDB9
:1050E00000B53121FFF7E4FF491E89B20029F9D14B
:1050F00000BD30B50346084C084D07E0EC600922BE
:10510000FFF7EEFF521E92B2002AF9D118465B1E3D
:105110009BB20028F2D130BDAA55FA5A00000140D6
:105120000F490E4808600020886048600B4A0D490E
:10513000921E0A6088602E224A600B4908600B4864
:1051400088600B4848607F210A48490201600121BC
:1051500049038160FF21203141607047FFFF00005B
:1051600000400440006004400080044080AA020027
:105170000706000000A00440012026494004086002
:10518000254908607047264824490162C16170477B
:1051900000B524480168802211430160204817218E
:1051A0008038816000214161816107214902C1612C
:1051B0001B4AFF21403AD16302210160016889073F
:1051C000FCD40168012211430160FFF7DCFFFFF707
:1051D000D3FF00BD012010494004803108607047B2
:1051E00010480168802291430160F3E70C490020D8
:1051F0000862704710B50A4C606A09498039C9696C
:10520000890506D5000204D5FFF7E9FE0120C00597
:10521000A06210BD80E200E000E100E0FFFF0000BE
:105220008020004000E00540084807494161FF2117
:10523000816107210161704710B50449FF20886131
:10524000FBF70EFA10BD00001017000000E000E0B0
:105250001E481D49C1600168042291431C4A114344
:105260000160704701201B49400608601A49086028
:105270001A490868FF2212029043086070471449D7
:105280000843124988601048C860704710490843B5
:105290000E494860704700B50220FFF7F7FF0C4841
:1052A0000A4B18603D20FFF7EAFFFFF7DBFF1868A5
:1052B0000749491C0843186000BD01200649400603
:1052C0008031086070470000AA55FA5A000001407A
:1052D0000000FA5A80E200E000E100E018E400E09B
:1052E0002B4902228A60086100E000BF4868C007BD
:1052F000FBD1886840221043886000E000BF486806
:10530000C007FBD1704710B5214B01249C60186188
:1053100000E000BF5868C007FBD111E01478507856
:1053200000022043947824040443D07800062043EC
:10533000D86000E000BF5868C007FBD1121D091FEC
:105340000029EBD158684007002802DA5960012093
:1053500010BD986840221043986000E000BF586874
:10536000C007FBD15868400702D55960012010BD25
:10537000002010BD10B5002000210F23DB0204C95E
:1053800094B22018120C10189942F8D310BD0000E6
:105390000020064034480F218161042101617047DB
:1053A00010B53248016801221203114301602E4AF0
:1053B00010680F2109028843072109024018106074
:1053C00010680821084310601068022188431060AB
:1053D000106804218843106010680721C9038843BE
:1053E00010601068C910884310609068000A0002BD
:1053F000801C90600020506010680121890488435F
:1054000010601068C02108431060FFF7C3FF01233C
:105410001749580308601749086017490868FF24AE
:105420002402A043086010681843106010BD0F48A4
:10543000016801221203114301600B480168012237
:10544000114301600168C0221143016070470648A2
:1054500001684908490001600448016801221203FB
:10546000914301607047000000C0014000E005402A
:1054700080E200E000E100E00CE400E010B5174835
:10548000C068174C4006400F02D0012806D102E048
:105490001448206002E07D20000220600121206885
:1054A00000F028F82060104A1049904202D91048B4
:1054B000086010BD0E48401F086010BD0C490B4825
:1054C000491E0160491C0160044800210161C1605E
:1054D000C1684906490FFBD1704700000000064033
:1054E000FC000020006CDC0200366E01002006404B
:1054F0000500FA5A30B50B4601460020202201244F
:1055000009E00D46D5409D4205D31D469540491BF7
:105510002546954040191546521E002DF1DC30BD40
:10552000064C0125064E05E0E36807CC2B430C3CF6
:1055300098471034B442F7D3FAF7C6FD006500006F
:105540002065000030B47446641E2578641CAB42AC
:1055500000D21D46635D5B00E31830BC184702E0D3
:1055600008C8121F08C1002AFAD17047002001E0C4
:1055700001C1121F002AFBD1704712010002000076
:105580000040AC054F02240101020001050109069B
:10559000A101050719E029E7150025017501950806
:1055A00081029501750881019505750105081901AC
:1055B00029059102950175039101050719002AFF3C
:1055C0000095057508150026FF00810005FF0903F9
:1055D000750895018102050C09001580257F95400D
:1055E0007508B102C0050C0901A101850319002A43
:1055F0003C031500263C03950175108100C0050190
:105600000980A10185020501198129831500250161
:10561000950375018102950175058101C005010998
:1056200006A10185010507150025011900297795B7
:105630007875018102C0050C0901A10185011500E1
:1056400025019520750109B509B609B709CD09E00D
:1056500009E209E309E409E509E909EA0A52010A4C
:1056600053010A54010A55010A8A010A21020A2338
:10567000020A24020A25020A26020A27020A2A022C
:105680000A92010A94010A83010A02020A03020A29
:1056900007020A18020A1A0209B88102C0050109A4
:1056A00080A10185021981298315002501750195C5
:1056B000038102750595018101C00600FF0901A162
:1056C0000185031AF1002AF80015002501750895D7
:1056D000028102C009023B00020100A0320904005D
:1056E00000010301010009211101000122590007F5
:1056F00005810308000109040100010301020009FA
:10570000211101000122510007058203100001044C
:1057100003090410034B0065007900740072006FE8
:10572000006E0018034B006500790063006800728A
:10573000006F006E0020004B0032000001000000EE
:10574000120000007A550000020000003B0000003B
:10575000D456000003000000040000000F570000B2
:1057600003090000040000000F57000003000100BF
:105770001000000013570000030901001000000092
:105780001357000003000200180000002357000018
:105790000309020018000000235700000500000064
:1057A00007000000EF5600000500000007000000A1
:1057B000EF5600002100000009000000E65600003E
:1057C0002101000009000000FF5600002200000037
:1057D000590000008C55000022010000510000001B
:1057E000E5550000220200009E0000003656000031
:1057F00029352B39A1A000003A1E14F964A300003A
:105800003B1FF8FA1DA200003C2008FB1B00000013
:105810003D211509060000003E22170A190000006C
:105820003F231C0B052C00004024180D1100000024
:1058300041250C0E100000004226120F3600000019
:105840004327133337A60000442D2F3438AF000010
:10585000452E300000A40000462A3128A5FD000096
:105860004C000000FCFE0000D34B4E4A4DFF0000F0
:105870000000000000000000000000000000000028
:105880000000000000000000000000000000000018
:10589000000000000000000029293ACF3BCE3C86E2
:1058A0003D873ED53FD440B141B342B043B544BA41
:1058B00045B91DAB0DEF2DD72ED6A3A35252515192
:1058C0001E971F9820991BAC0FF0FAAD12E54DE61C
:1058D0000EE706E4D3E30CDCFBDD39DE13DF05E184
:1058E0002929CF3ACE3B863C873DD53ED43FB140B7
:1058F000B341B042B543BA44B9451DAB0DEF2DD706
:105900002ED6A3A3525251511E971F9820991BAC1B
:105910000FF0FAAD12E54DE60EE706E4D3E30CDC3A
:10592000FBDD39DE13DF05E129293A3A3B3B3C3CFC
:105930003D3D3E3E3F3F404041414242434344445F
:1059400045451DAB0DEF2DD72ED6A3A35252515175
:105950001E971F9820991BAC0FF0FAAD12E54DE68B
:105960000EE706E4D3E30CDCFBDD39DE13DF05E1F3
:1059700029293A3A3B3B3C3C3D3DD53ED43F404053
:10598000414142424343444445451DAB0DEF2DD7B1
:105990002ED6A3A3525251511E971F9820991BAC8B
:1059A0000FF0FAAD12E54DE60EE706E4D3E30CDCAA
:1059B000FBDD39DE13DF05E129293A3A3B3B3C3C6C
:1059C0003D3D3ED53FD440404141424243434444A3
:1059D00045451DAB0DEF2DD72ED6A3A352525151E5
:1059E0001E971F9820991BAC0FF0FAAD12E54DE6FB
:1059F0000EE706E4D3E30CDCFBDD39DE13DF05E163
:105A00001A1A0404161607075252505051514F4F9C
:105A1000B500B600B700CD00E000E200E300E4000E
:105A2000E500E900EA0052015301540155018A01E1
:105A30002102230224022502260227022A029201C1
:105A40009401830102020302070218026F00700032
:105A500001020408102040803F394037413642356A
:105A6000433444335A325B1D5C1C471B462F453080
:105A700031310D000102030405060708090A0B0C69
:105A80000D0E0F15161718191A1B1C1D1E1F20218D
:105A900022242A2B2C2D2E2F303132333435363719
:105AA000393F404142434445464748494A4B4C4EA2
:105AB0005455565758595A5B5C5D5E5F6162636925
:105AC0006A6B6F73747576777856311414141414E6
:105AD0001414141414141C1D3032454614141414D8
