:020000040000FA
:10000000D8060020D9000000E10000007B060000B7
:1000100000000000000000000000000000000000E0
:10002000000000000000000000000000E5000000EB
:100030000000000000000000E70000006551000023
:10004000EB00000099080000000000000000000024
:1000500000000000000000000000000000000000A0
:100060000000000000000000000000000000000090
:10007000000000005B35000000000000EB00000005
:10008000EB00000021510000000000000000000013
:100090000000000000000000000000000000000060
:1000A000000000007D510000EB0000000000000097
:1000B000EB000000DB070000EB000000EB0000009D
:1000C0000348854605F0C2F900480047BD05000019
:1000D000D806002070472100044800470448004724
:1000E000FEE7FEE7FEE7FEE7FEE7FEE70178000039
:1000F000C1000000004800470900FF1FF8B502F0EA
:1001000035FFF848017800297ED000240470F649B4
:10011000F64E0868002808D0401E0860002804D168
:10012000347003F06BFA03F072FAF1490878002892
:1001300008D0401EC0B20870002803D1ED4804600A
:10014000ED480470ED4901270888002813D0401EAF
:1001500080B2088000280ED1E9485122027089221D
:100160004270E8480770E84A1078002803D0401E23
:10017000107002200880E54D2868002853D0E44A1A
:1001800031781278114301D1401E28602868E14E71
:10019000002802D03078002845D004F0BDFF04F0DC
:1001A000B5FFDD48046104F0A6FE02F054FD02F044
:1001B00088FDDA480168DA4A4908490011430160BC
:1001C000642004F02CFF00F01EFBD6480461C760D9
:1001D000C168C906FCD5D44F38690921C9068843CE
:1001E0003861CF48D149801C086003F0BBFB3C61FB
:1001F000CF480221016030BF046030780028FDD173
:1002000000F039FB386900E00DE00921C906084318
:10021000386104F09FFF04F0D4FF02F08FFC04F07B
:100220004DFFC4482860F8BD70B5AE48C249027899
:100230000024002A05D004700888002801D0401E40
:100240000880BE480069800718D50888002815D1A5
:10025000C82004F0E4FE04F05FFF04F057FFAF484D
:100260000168AF4A490849001143016000F098FB5A
:1002700004F0A7FF04F06EFF04F020FFB04D2878D3
:10028000012806D10822AF4900F014FA002800D155
:100290002C70AD4D2878012807D11022AB490220DF
:1002A00000F008FA002800D12C70A94D2878012808
:1002B0000CD0A84D2878012807D10222A649104663
:1002C00000F0F8F9002800D12C7070BD0322A3497A
:1002D000022000F0EFF90028F7D12C7070BDF8B5BE
:1002E0009F488178002978D00024847004F043FD71
:1002F0009C499D4E088800280FD0401E80B208807F
:1003000000280AD13078002802D0012803D004E068
:1003100002F0DCFF01E002F0DAFF94490878401CAB
:10032000C0B2087032282DD30C706E4801250570BC
:100330008F490878401EC0B20870002804D18D484B
:100340000178002900D004708B4A1078002819D059
:10035000401EC0B21070002814D1884F3878C043B6
:10036000810787480FD1017800290CD004F099FC4F
:10037000844804703C703078012803D103F09EF863
:1003800081480470ABE081490B78DB439B070FD1B8
:100390000378002B0CD00C7004F002FD7C4801782F
:1003A000012903D0057004F0AFFC98E00470FAE76F
:1003B00078490B78DB439B0716D10378002B13D0C9
:1003C0000C7004F0EDFC52480178002906D004704E
:1003D00004F09AFC03F010F881E082E0057004F06C
:1003E00093FC02F0D8FF7AE06B490B78DB439B0764
:1003F0000DD10378002B0AD00C7004F0D1FC6748B3
:100400000178012901D0057069E0047067E0644952
:100410000B78DB439B070FD10378002B0CD00C70BB
:1004200004F0BEFC5F480178002901D0047000E0B0
:10043000057004F069FC52E05B4B1978CF43BF07AD
:100440000FD10778002F0CD01C7004F0A9FC57487E
:100450000178012903D0057004F056FC3FE00470D8
:10046000FAE705278F430FD1017800290CD01C70C3
:1004700004F096FC4E480178012903D0057004F081
:1004800043FC2CE00470FAE74A490978DD290ED1D3
:10049000007800280BD004F083FC4748017800293D
:1004A00001D0047000E0057004F02EFC17E09729DD
:1004B00003D0982901D0992911D1307801280ED183
:1004C0001149087800280AD0401E087003201070D7
:1004D0000B4851210170892141700A48057001F0D3
:1004E0007BF8F8BDA00000209800002074000020D8
:1004F00079000020900000206C0000208600002081
:1005000084000020710000206F0000209400002073
:10051000670000207B00002000E000E000000140B8
:100520000000FA5A0000064000C0054000200640C6
:1005300040200340701700008200002020010020AE
:10054000430000205F000020460000209F010020A3
:1005500044000020450000204E00002050000020F4
:10056000000000209C0000209E0000209F00002032
:100570007F0000207800002033000020340000209D
:100580002B0000207A00002070000020370000209F
:100590003B00002036000020380000203C000020F6
:1005A0003900002068000020350000203A000020BB
:1005B00041000020290000204200002004F014FF28
:1005C00000F0CEF8314C206A01252843206204F067
:1005D00075FD04F0F6FD04F0BDFD04F037FD2C4878
:1005E0000021C1703121490289892A4A914200D1F2
:1005F000C57003F02DF800F0E1FF04F067FE264817
:10060000A061264C2078012801D100F0DDF8244DAE
:10061000244E254F0EE002F085FA04F029F92078E7
:10062000002802D0012805D102E0FFF7FDFD01E01E
:10063000FFF764FDF560FFF752FE38780028ECD034
:10064000E9E770B5124C6078401CC0B260700428B5
:1006500012D30025657004F006FB04F07FFB02F066
:1006600061FF2078401CC0B22070042804D325709C
:100670000120A07004F08CFB70BDBFF34F8F0C49BC
:100680000A48C860BFF34F8FFEE700000000064035
:1006900000000020AAAA000002C000009E00002066
:1006A000AA55FA5A00000140A20000200400FA05F1
:1006B00000ED00E0F8B506460D4617462448B100A7
:1006C00008180268002A01DB0220F8BD002E03D0C2
:1006D000042E01D8402F01D90420F8BD0068400F36
:1006E000042801D00120F8BD1A48805D002804D0FC
:1006F000304600F0AFF80320F8BD1748081800682E
:10070000B84201D20520F8BD701E14498000085877
:100710000090002414E0295D641C285D0002084359
:10072000641C295D09040143641C285D000608431C
:10073000641C0146009800F0D7F90098001D009055
:10074000BC42E8D3F9B2304600F092F90020F8BD7F
:1007500018C00540050000200C010020FC0000200E
:10076000F8B500F076FD00F0EAFEF74801681022C7
:1007700011430160F54C4021A1608023E360C02556
:100780002561E0266661F248016043608560C660CD
:10079000F0480160082141608260C1600161EB4D59
:1007A000ED48403D286002266E611F27FF0632207B
:1007B00004F007FC2F61E948E06240076062E84806
:1007C0000660E8480660F8BDE0490020403908614D
:1007D000E449022080310860704730B50124E049C7
:1007E00060070860FF22E049F9320A62DF4A1369B4
:1007F000C5122B43136100228A61DA4980310860F7
:10080000DB48047030BDD8480021C1604161491EF9
:100810000162FF21F9318161D14980030860D1492A
:10082000086070470120C949C0024039886070479C
:100830000120C64980024039886070470120C349C1
:100840004002403988607047FF20C049013040397C
:100850008860704704280DD8BC4A8100283A89185E
:10086000002804D1B94840384068C00102D40720AC
:1008700040070860704710B5BE4801680122114367
:100880000160BD4800680007000F052801D004F092
:10089000ABFD00F0C5F910BD70B5AC4D403D6C68C6
:1008A0000020C043A860002C0DD0A0000ED5FFF79B
:1008B000E2FF00F0ACF9E00108D5022004F068FB8B
:1008C00000F001FC70BDFFF7D6FF70BD2868A00FD7
:1008D0000BD0002C04DAFFF7CEFF00F07DF970BDDD
:1008E0006000FCD500F08DF970BD2002C00E18D05C
:1008F000200202D500F0E7FB70BD600202D500F0D7
:1009000026FC70BDA00202D500F062FC70BDE002C2
:10091000800FFBD00320C004A8600020FFF79AFFDF
:1009200070BD2005000FFBD0E00501D5FFF78CFF5F
:10093000A00501D5FFF782FF600501D5FFF778FF1D
:100940002005EDD5FFF76EFF70BD00208B49401CE0
:100950008842FCD370471E20401E411CFCD17047CA
:1009600000B57A4A0620403A5061FFF7F4FF0520AF
:100970005061FFF7EAFF506904218843506100BDD0
:100980007C480121C160002101617B4A7C491160E2
:10099000C168C906FCD501687A4A114001607047F8
:1009A000F8B5724C2069022188432061674D403DB3
:1009B0006868400022D502F0D5FF04F09CFA02F0EE
:1009C0004AF902F07EF97048002707615E48016825
:1009D00080229143016028690921C9068843286162
:1009E000634E3770FFF70FFF0A2004F0E4FAFFF7B9
:1009F000C7FF6868400002D4FFF73DFFF8BD6349B8
:100A00000420086030BFFFF736FF30780028F5D0AB
:100A1000377021695E48884307D120690121890424
:100A200088432061A068012805D05A491420088015
:100A3000FFF796FFF8BDFFF793FFF8BD4349403934
:100A4000CA6B012383409A43CA637047042805D8C0
:100A50003E49800028394018002101607047042871
:100A600005D83A49800028394018090701607047C5
:100A7000042807D8354A8000283A801805225207F2
:100A80008918016070473149403148600220C860D0
:100A9000C8688007FCD488683F490860704700B583
:100AA0000A46402A0ED2401E294980000858910863
:100AB0004018FFF7E8FF9007C10E37480068C840AC
:100AC000C0B200BD002000BD00B510290AD2401EF2
:100AD0001F4A8000105889004018FFF7D4FF2E48A5
:100AE000006800BD002000BD184A4032506091608F
:100AF0000120D060D068C007FCD1704730B50B46EC
:100B0000402B15D2401E12498000085899084518FC
:100B10002846FFF7B8FF204804689807C30EFF2057
:100B2000984084431146994021432846FFF7DCFF53
:100B300030BD102932D2401E054B80001858890064
:100B400040181146D0E7000000E0054040C00540D5
:100B5000FC0000200C010020100000B00440000048
:100B600080E200E000E100E000800440200100207D
:100B70000400002000000640002006401450000041
:100B80000000FA5AFEFFFF0F00E000E040200340A3
:100B900080000400820000201C00002070470C4AE6
:100BA00090630B4802214030016001688907FCD442
:100BB000D06B084908607047054A9063D1630448C8
:100BC0000121403001600168C907FCD17047000075
:100BD00040C005401800002010B50020FE4AC04368
:100BE0009060FE490120086100208860D060FFF716
:100BF00031FE01242046FFF729FF641C042CF9D99B
:100C000010BDF64801690222114301617047F348A3
:100C10000169042211430161EF49D00688607047E1
:100C2000ED4801690922D2061143016101214906FB
:100C3000816070470120E84980068860704710B5E0
:100C4000E64CA06801280CD1E54A0020002111548F
:100C5000401C0428FBD92079012802D8A278002A58
:100C600003D00020FFF7F6FD10BDDE4A1154FFF758
:100C7000E5FE20690121090408432061002108469E
:100C8000FFF7F6FE10BD10B5D44CA068012814D1B2
:100C90002078812811D1207901280ED8D149095C0A
:100CA0000020FFF789FF20690121C9030843206163
:100CB00001210020FFF7DCFE10BD0020FFF7CAFD78
:100CC00010BDF8B5C64DC54E3069800607D5B07861
:100CD000102101240027002805D0012819D0002068
:100CE000FFF7B8FDF8BDB7603069084330610127F0
:100CF000EC553846FFF7AAFE7F1C042FF8D930695F
:100D0000012109040843306100210846FFF7B0FEC5
:100D1000F8BDB46030698843306100242F55002C41
:100D20000CD02046FFF79BFEAB480069611EC8400F
:100D3000C00703D000212046FFF79AFE641C022C56
:100D4000ECD93069012109040843306100210846CB
:100D5000FFF78EFEF8BD70B5A04DA9680020FFF723
:100D60002BFFA868012806D101242046FFF777FE53
:100D7000641C022CF9D99C480021016028690321D8
:100D800089030843286101210020FFF771FE70BD2F
:100D900010B50020FFF75EFD10BD10B50446180623
:100DA0001204104309020843204310BDF8B58F4FC9
:100DB0003C688A488C4EC0883168884200D23060D6
:100DC000306800281DD00025E378A278617820786B
:100DD000FFF7E3FF0146A800FFF7EEFE241D6D1CA0
:100DE000EDB2102DF0D3306840280FD34021002001
:100DF000FFF73EFE38684030386030684038306079
:100E0000F8BD00210846FFF733FEF8BD3068C1B2D7
:100E10000020FFF72DFE00203060F8BDF8B500245B
:100E200000206E49724BCA780D798F780C260146E6
:100E300071435E5CB24211D1C9184E78B5420DD1F2
:100E40008E78B7420AD10C225043C0188288664877
:100E50000260664889680160012402E0401C102895
:100E6000E4D3002C08D05D4908690122D203104365
:100E70000861FFF79BFFF8BD0020FFF7EBFCF8BD12
:100E800010B5564801692023994301610169402248
:100E9000114301618178002902D002691A4302617D
:100EA0000173016901221204114301610021084606
:100EB000FFF7DEFD10BD70B5484D28784406640E7E
:100EC000000602D50020FFF7C5FC002C05D0022C3F
:100ED0000FD00020FFF7BEFC70BDA8780128FBD121
:100EE000286944490843286100210846FFF7C0FDEE
:100EF00070BDA8780028FBD128794006400E411E1D
:100F00000129F5D8A9680129F2D1354A1154FFF712
:100F1000A1FC286901210904084328610021084631
:100F2000FFF7A6FD70BD70B52C4D28784406640E01
:100F3000000602D50020FFF78DFC002C1AD0022CF1
:100F400017D1A878002814D128794006400E002235
:100F5000234BE10300281ED002280AD8AC68012CDC
:100F600007D11A5428690843286100210846FFF771
:100F70007FFD70BDA8780128FBD1286980218843B6
:100F8000286128691B4980390843286100210846E7
:100F9000FFF76EFD70BD28698006FBD51A702869C1
:100FA0000843286100210846FFF762FD70BD70B557
:100FB0000A4D28784406640EC00901D1FFF74AFCA7
:100FC0000126F603002C26D0012C38D0022C21D18A
:100FD00028794006400E0FE000C0054020010020A7
:100FE0000500002014000020100000200C0000204C
:100FF000705600008001010002280BD8A349095C4B
:101000000020FFF7D9FD2869304328610221002024
:10101000FFF72EFD70BD2869000604D502210020CF
:10102000FFF7CAFD03E000210846FFF7C5FD286968
:101030003043286102210020FFF71AFD70BDA86827
:101040000128FBD168790028F8D128790128F5D842
:1010500000210846FFF7B0FD2869304328610221CE
:101060000020FFF705FD70BD10B5894840780300EA
:1010700004F0FEF90C070A250D25101316191C1F84
:101080002225FFF794FF10BDFFF74DFF10BDFFF7BE
:1010900012FF10BDFFF7F4FE10BDFFF7BFFE10BD3D
:1010A000FFF776FE10BDFFF756FE10BDFFF709FEF5
:1010B00010BDFFF7E8FD10BDFFF7C1FD10BD00201A
:1010C000FFF7C8FB10BD7CB53320724CC004A06094
:1010D0000020FFF7C4FC6068400331D46C4C2069E9
:1010E0000321C903884320610020FFF758FD6A4DA2
:1010F000286801900420FFF752FD286800900198AD
:10110000C0B220700199090A61700199090CA1709F
:101110000199090EE170009921710099090A617124
:101120000099090CE18060210840002802D02028A5
:1011300003D008E0FFF798FF7CBD00F0CEF97CBD3E
:1011400001208004A0600020FFF784FB7CBD70B507
:101150000120504E8005B060504DA87C022815D16A
:101160000020A87468694E4988420DD1A8694D498C
:10117000884209D10024A0000021FFF71DFD641C56
:10118000402CF8D3FEF7B6FF0420A874404C206929
:10119000454D40060CD52069402188432061207BC5
:1011A000F0600020FFF756FB2069A843206170BD66
:1011B000E088002808D02069C00305D4FFF7F6FDB9
:1011C0002069A843206170BD0020FFF743FB70BD7C
:1011D000F8B501212F4849058160304DA87C2E4E7D
:1011E000012819D0686D80050DD5686D09138843F5
:1011F00068650020FFF7D3FC30682870686D012116
:10120000490308436865224C2069000412D4002178
:101210000846FFF72DFC16E00024A0000746FFF764
:10122000BEFC306879194861641C102CF5D302208B
:10123000A874E8E717484168C90104D4816901220C
:10124000D2061143816120690121C90388432061CD
:10125000F8BD00200D4A00211154401C0528FBD385
:101260000020124A1154401C0428FBD30848017086
:1012700041708170C17001714171C18081600173E1
:1012800001690122520411430161704705000020E9
:101290002001002000C0054018000020340100207B
:1012A000AA42895AFF7162CC00000100140000209C
:1012B00010B5A74A107821281BD1A649486D0123F3
:1012C0001B03184348651079012812D8907800282C
:1012D00004D14B6D0324A402A3434B6548741069E9
:1012E000012109040843106100210846FFF7C0FBF3
:1012F00010BD0020FFF7AEFA10BD10B5944801787C
:10130000212914D10169012212041143016191497B
:101310004A6D0123DB021A434A650279012A06D885
:10132000C078087400210846FFF7A2FB10BD00201A
:10133000FFF790FA10BD10B586490120887400218E
:101340000846FFF795FB10BD10B5814801690122E1
:101350001204114301617F48416DD211114341656F
:1013600000210846FFF784FB10BD10B578480178CE
:10137000212907D10179002904D1C078022805D09C
:10138000032806D00020FFF765FA10BDFFF7DCFF49
:1013900010BDFFF7D0FF10BD10B56D4C2078A1280F
:1013A00016D16C48416DC90401D4012141742179E1
:1013B00001290DD8417C0020FFF7FEFB20690121A7
:1013C000C9030843206101210020FFF751FB10BD34
:1013D0000020FFF73FFA10BD10B55D4C2078A12822
:1013E00008D15C48416D0122D20211434165217947
:1013F000002903D00020FFF72DFA10BD017C00204A
:10140000FFF7DAFB20690121C903084320610121AC
:101410000020FFF72DFB10BD10B54F4900200860DC
:101420004B4801690122D2031143016105210020CB
:10143000FFF71EFB10BD10B500210846FFF718FB93
:1014400010BD10B5434801780020FFF7B5FB4048B8
:1014500001690122D2031143016101210020FFF73C
:1014600007FB10BD10B53C490020086038480169F1
:101470000122D2031143016108210020FFF7F8FA8D
:1014800010BD10B532480178A1291FD1816801290A
:101490001CD10179C078002902D0012910D015E0B3
:1014A000012804D0022805D0032806D00EE0FFF75B
:1014B000D9FF10BDFFF7C5FF10BDFFF7BCFF10BD82
:1014C0002449497C012901D1012803D00020FFF7DC
:1014D000C1F910BDFFF7A0FF10BD10B51C48407842
:1014E000030003F0C5FF0C19070A0D191919191982
:1014F00010131619FFF7C5FF10BDFFF76DFF10BDE4
:10150000FFF74AFF10BDFFF730FF10BDFFF7F5FEF4
:1015100010BDFFF7CDFE10BD0020FFF79BF910BDF9
:1015200010B50D4900200860094801690122D20365
:101530001143016105210020FFF79AFA10BD05480B
:101540007D2101740121417400218174416570473E
:10155000200100203401002010000020F8B51420E4
:10156000F94EFA4D0127401EC0B2002431684906E9
:1015700000D501243168090601D502210C43E97A1E
:10158000A14204D0022003F04AFDEC72142000288E
:10159000E9D1E87AEE49C3070022002B01D00F7091
:1015A00000E00A70E94920398F74830700D58A74F6
:1015B0008B7C002B00D08A732873F8BDE349002090
:1015C0001F31487003200F3908700220891E0870EF
:1015D000E04901200870C1E7F8B50020DA490A683F
:1015E00001265206002A00DA01200968090601D501
:1015F00002210843D54CE17A814203D00A2161736C
:10160000E072F8BD607B0028FBD0401EC0B2607362
:101610000028F6D1207B0D464540002DF1D02173E6
:10162000E8070027002813D0C948C90709D0067069
:1016300003F06AFB01F04BFEFFF7C6F8C6480770DF
:1016400006E0077003F060FB01F040FEFFF788F84A
:10165000A807D6D5BD4820388674E17A8907D0D549
:101660008774F8BD30B5BB48B84B1338203B9A7926
:10167000815C58784140D9700024002915D019792F
:10168000022200290BD09D7885420BD1491EC8B299
:101690001871002802D19C700120187030BD1A7199
:1016A000987030BD1A71987030BD1C71521CD0B248
:1016B00098711328F8D39C7130BD70477047F8B506
:1016C000A24A00241146557A2039CB7A087BAC46D1
:1016D000002D1BD0002B19D14E7AAF2E0BD03A2EF5
:1016E00009D03B2E07D03C2E05D03D2E03D0D57916
:1016F0003C2D01D34C72F8BD6D1CEDB2954F1037E7
:101700007E556D1CEDB2D57178554C72664601253B
:10171000002E03D0002B01D001284BD00128EAD1A4
:10172000487A4D2863D09C286BD0F22873D0874B21
:10173000D3285B789C46894B1E78894B1B787ED0DA
:10174000E82874D0E92873D0EA2872D00F4685497A
:10175000EB2809780091844909786BD0EC286AD08D
:10176000ED2869D0EE2868D0F52867D07F4ED028C4
:1017700037786FD0754E203ED8286CD0F1286BD0CA
:101780007B4ED728367868D0D62867D06F4E203E5B
:10179000D4286ED0D5286DD093286CD094286BD0E7
:1017A00095286AD0962869D0DC28A4D16E480129F2
:1017B0007DD159E2487A932806D0942808D09528FC
:1017C0000AD096280DD010E01472FFF777FF0CE0D6
:1017D0001572FFF773FF08E002201072FFF76EFF2B
:1017E00003E003201072FFF769FF4C72F8BD012B74
:1017F000FCD14C72487C002801D04C74F8BD4D746B
:10180000F8BD5C480178002903D00470F8BD02E0FF
:1018100015E00570FAE74C7257490878401CC0B2D1
:101820000870092800D30C7003F091F8EEE747E048
:1018300059E06DE081E016E12AE13EE152E14C72AF
:101840004E48017800290AD0047001F003FB01F032
:10185000FFFEDBE74AE1B4E1BCE1BFE1CAE1484891
:1018600000780028D2D16046002808D003F098FA0A
:10187000CCE7CBE1D8E1E5E1E8E1EBE1EFE13749A5
:10188000761CF0B20870112800D30C700321344884
:101890004903012B11D0CA780270097934480170CC
:1018A00001F0A6FE374805703748047000E0DDE11E
:1018B00002F02AFF03F028FAA8E705220270ECE7FD
:1018C0004C722648002E09D0012E09D004702E48F3
:1018D000047002F019FF03F017FA97E70570F6E7B6
:1018E00019210170F3E74C721C48022E0AD0042E15
:1018F0000BD0022101702448047002F005FF03F0B0
:1019000003FA83E704210170F5E703210170F2E790
:101910004C7212480D2E0AD00B2E0BD00D210170E7
:101920001948047002F0F0FE03F0EEF96EE70B21A7
:101930000170F5E70C210170F2E77C720748112E67
:1019400024D01121017089E000A004404000002053
:101950009E0000209F01002070000020A7000020B2
:10196000B3000020B9000020B8000020A200002031
:10197000B5000020BB000020A300002003000020D1
:10198000BA000020B7000020BC000020009AFE48EA
:10199000002A15D0047001291DD0022921D0032965
:1019A00026D004292BD0052930D0062935D0072987
:1019B0003AD008293FD0092944D0002948D04DE029
:1019C0000570F24804800020F1490C54401CC0B25C
:1019D0001428FAD31AE71822ED49EE4801F07DFAEF
:1019E0003CE0EC481822EA49203001F076FA35E074
:1019F000C5201822E649C00101F06FFA2EE0E54843
:101A00001822E349603001F068FA27E0E148182223
:101A1000DF49803001F061FA20E0DE481822DC491D
:101A2000A03001F05AFA19E063201822D8490002C8
:101A300001F053FA12E0D7481822D549E03001F0FE
:101A40004CFA0BE01822D249D34801F046FA05E0DF
:101A5000D1481822CE49203001F03FFA02F054FE5E
:101A600003F052F9D2E67C72CC48082E0AD0092E37
:101A70000BD008210170CA48047002F045FE03F043
:101A800043F9C3E609210170F5E70A210170F2E785
:101A90007C72C2480E2E0AD00F2E0BD00E21017080
:101AA000BF48047002F030FE03F02EF9AEE60F21BD
:101AB0000170F5E710210170F2E77C72B748052E3E
:101AC0000AD0072E0BD005210170B548047002F032
:101AD0001BFE03F019F999E607210170F5E70621CD
:101AE0000170F2E77C72AF4805708FE6AE48447231
:101AF000132FB7D1009AA448002A1BD004700129E3
:101B000022D0022926D003292BD0042930D0052940
:101B100035D006293AD007293FD0082944D00929D1
:101B200049D000299ED19C4818229949203001F0C3
:101B3000D4F96BE603F03EF9002095490C54401CA3
:101B4000C0B21428FAD361E618229149914801F0F5
:101B5000C4F95BE68F4818228D49203001F0BDF9A9
:101B600054E6C52018228A49C00101F0B6F94DE6B5
:101B7000884818228649603001F0AFF946E685486A
:101B800018228349803001F0A8F93FE682481822E4
:101B90007F49603801F0A1F938E6632018227C49BA
:101BA000000201F09AF931E67B4818227849203882
:101BB00001F093F92AE618227549774801F08DF96A
:101BC00024E6747276480178002901D004701DE67D
:101BD00005701BE674727573D47117E6724844720F
:101BE0007248012EA5D9761E06707148057003F063
:101BF0008BF80BE66C4844726C48052E99D2761C23
:101C000006706B48057003F07FF8FFE5747260465C
:101C100000288ED16748052B8BD25B1C037001F026
:101C2000E7FC03F071F8F1E57472604600288AD190
:101C30006048012B87D95B1E037001F0D9FC03F0CB
:101C400063F8E3E51472FFF739FDDFE51572FFF77E
:101C500035FDDBE502201072FFF730FDD6E50320ED
:101C60001072FFF72BFDD1E5132F87D00570524876
:101C700004704A491120087002F046FD03F044F850
:101C8000C4E5F8B5484A1E27517A1046007B002467
:101C9000D2290CD0494B4A4ED27C1B7835789729F3
:101CA0000CD098292DD099294FD00120AEE50028DD
:101CB00001D0D77400E0D4740020A7E5012B1ED119
:101CC000002818D0012D01D03E4804700125357040
:101CD00003F01AF83448C7743B48032101703B48AD
:101CE00051210170812141703948057039480470D3
:101CF0003948047003E02C48002A00D0C474002046
:101D000084E5012B1FD1002819D0022D01D02D48C8
:101D100004700220307002F0F7FF2348C7742A498C
:101D20000320087029485121017082214170284800
:101D300001210170274804702748047003E01A4805
:101D4000002A00D0C474002060E5012B4AD100288D
:101D500044D0042D01D01B4804700420307002F0E0
:101D6000D3FF1148C7741848032101701748512147
:101D700001708321417016490120087015480470D4
:101D8000154804702EE00000B9000020CA000020B1
:101D9000E60200204062000040630000A70000202F
:101DA000BC000020BF00002020000020B500002063
:101DB000B7000020B3000020A20000209E000020F9
:101DC0007A000020740000206F00002084000020B2
:101DD000710000207800002070000020FA48002ADE
:101DE00000D0C474002011E510B50020F649F74B6F
:101DF000497AF74A05E044001C5D8C4205D0401C3E
:101E0000C0B21488A042F6D3FF2010BDF0B5EE4C4E
:101E1000F04D207BF04EF14F002852D0FFF7E4FF49
:101E2000FF2817D0A17C002915D0E17A00293CD0E9
:101E3000E17E002934D0EA494200511849786172A4
:101E4000E14AC10839324407E648640F535C005D3B
:101E500003435354F0BDE17A002916D0A17E002936
:101E60000ED04100891949786172D74AC1083932C8
:101E70004407DC48640F535C005D03435354F0BDDA
:101E80004100491949786172EFE7A17E002903D02A
:101E90004000305C6072F0BD4000285C6072F0BDB4
:101EA0004100C91949786172CAE7E17E002904D06E
:101EB0004100CB48405C6072F0BD4000385C60720D
:101EC000F0BDFFF791FFFF28FAD0BF4AC1088C464A
:101ED0003932515C4307C34A5B0FD25C114222D0B6
:101EE000A37C002B0DD0E37E002B17D04300BC4811
:101EF000181840786072B448393091436246815472
:101F0000F0BDA37E002B04D04000801940786072A1
:101F1000F1E74000401940786072ECE74000C019DA
:101F200040786072E7E7A17C002907D0E17E0029B4
:101F30000FD04100AA48405C6072F0BDA17E00292C
:101F400003D04000305C6072F0BD4000285C6072DD
:101F5000F0BD4000385C6072F0BDF8B5A2480026C4
:101F60000680994D287B002801D0A0480670A04823
:101F70000178A048002902D09F49016002E0FF21BA
:101F800091310160687A00284CD0FFF73FFF8E4CFA
:101F90002034A078002804D0687A4B2801D146204C
:101FA0006872894FAB7C3F372846002B25D0417A99
:101FB000A32908D0A22909D0A7290AD0A6290BD085
:101FC00046290CD019E0A221417216E0A3214172EA
:101FD00013E0A621417210E0A72141720DE02121FA
:101FE0004172017B002904D039780A2211433970EB
:101FF00003E03978F52211403970417A01250D2925
:1020000002D0AB291ED012E0027B002A0BD0C27A8C
:10201000002A0CD0027D2A430275D243920706D1D2
:102020001E21C17415E4027D520852000275DE299A
:1020300018D0AC292BD0E4293FD0FA2962D0AD29A1
:102040007ED078E0017B002907D0C17A0029E9D051
:10205000017D0222114301750AE4017DFD22114038
:10206000017505E4017B00290BD0C17A0029F3D06A
:10207000417D29434175C9438907EDD11E21C174B2
:102080001AE4417D490849004175C67414E4017B96
:1020900000290CD0C17A0029F2D0417D02221143DF
:1020A0004175C9438907EBD11E21C17404E4417D08
:1020B000890889004175C6740FE4017B00291ED090
:1020C0000746407D04210843787505210A4682436E
:1020D0004A4807D061780029EED1017800290CD058
:1020E00006700EE4067046480278012A02D101709B
:1020F00001F07EFA1E20F87403E4057016E44675BC
:10210000C67413E4027B002A10D0C27A002A12D0CF
:10211000827D2A438275D24392070CD1394A1278C4
:10212000012A08D11E21C17454E409E0827D5208BD
:1021300052008275C67406291CD0E52939D02FE0DB
:10214000017B002910D0C17A0029EDD0817D0222C7
:1021500011438175C9438907E6D12A4909780129C4
:10216000E2D11E21C17435E4817D89088900817521
:10217000C6742FE4002B13D0027B002A0BD0C27A46
:10218000002A0DD0C27D2A43C275D243920707D1DF
:102190001E21C1741EE4C27D52085200C275C6746D
:1021A000DF2936D0E32949D013295DD0E22975D043
:1021B0006DE0017B002927D0C17A0029B4D0C17D10
:1021C00002221143C17505E4200000205058000090
:1021D000D6000000CC5700000E58000092580000B6
:1021E000D45800006659000086000020BF0000207F
:1021F000700000209400002070170000BA0000203A
:10220000B30000209E000020C17D89088900C175AF
:1022100028E4017B00290BD0C17A0029F8D0017E87
:1022200029430176C9438907F2D11E21C17419E4FB
:10223000017E490849000176C67413E4017B002938
:102240000CD0C17A0029E3D0017E0222114301762D
:10225000C9438907DCD11E21C17403E4027EFD213C
:102260000A400276C6740CE4027B002A0BD0C27AC4
:10227000002A0CD0427E2A434276D243920706D1EE
:102280001E21C17412E4427E520852004276027F3F
:10229000002A15D04C2911D012E0FFE7017B00295C
:1022A00007D0C17A0029EDD0417E02221143417648
:1022B00011E4417E8908890041760CE4492141728C
:1022C0000246C07A002810D1517A4C2905D1137BDF
:1022D000002B01D0D57700E0D677492905D1117BB5
:1022E000002901D0257000E02670FC4A2178D27FB9
:1022F00011431DD1F94A517A8C464C290BD1517F9B
:1023000003460B4307D049205072002901D056776D
:102310000EE055770CE06146492909D1917F0843C9
:1023200006D04C205072002901D0967700E09577B6
:10233000EA48407ADD2804D0E9490978012909D022
:102340000AE0E648017B002902D01E21C17407E49F
:10235000C67405E45328FAD0FFF793FC0028F6D0A2
:10236000DE48407AF62818D1DC48017B01292BD0C1
:10237000C17C00292BD0C674022002F050FE4C20F4
:10238000B870D6488572E570D5480078002821D00D
:1023900000F0ECFDD1494C204872D048C674FFF7DC
:1023A0008EF9CE48427A002AD1D00146AE2A18D002
:1023B0009A2A20D0E12A3AD0D12A4CD0F720862A76
:1023C00053D0872A5FD066E00A21C17405E4CD218D
:1023D0004172E2E7C14908223F310120FEF76AF964
:1023E000D8E7087B0128F1D1087C012801D00D74C1
:1023F0000BE40E7409E44E72087B0128F8D1B84949
:102400000878002809D00128F2D10E7002F07CFC77
:1024100000F05CFFFEF7A4F905E40D7002F074FC17
:1024200000F055FFAF480670FEF7CEF909E44E7292
:10243000AB4800780128F9D1087BAB4C012803D0C8
:102440002670AA48067004E401F007F80A2002F09A
:10245000E6FD257007E4087B0128FBD1887B012875
:1024600001D08D730CE48E730AE40A7B012A05D037
:102470003A7802403A702B2048720CE038780822F3
:1024800010433870F7E70A7B012A08D03A780240F7
:102490003A7008204872887B012805D00BE03A7812
:1024A000082002433A70F4E7487AA328DAD0A72834
:1024B000D8D06528D6D0487AF72816D0F82808D37F
:1024C000CA7B8B4B002A1AD04007000FC0184078F7
:1024D0004872487AAF2817D0F32824D0F42874D053
:1024E000844A1278132A71D016E1087B0128B9D1E9
:1024F000C87B002801D0CE7326E4CD7324E44007C6
:10250000000F185C4872E4E74D71CE72087B012819
:1025100000D1CD72897C0029EED0E570FE710028D3
:10252000EAD0FD7110E4087B0128E5D1887C002801
:102530004DD0E57069483F30C571694F3878002843
:1025400027D000F013FD0A2002F069FDE570634E0C
:1025500000203F36F0713878002821D000F006FDC9
:102560000A2002F05CFDE570F571387800281ED075
:1025700000F0FCFC0A2002F052FDE5700020F07132
:10258000387800281AD000F0F1FC0A2002F047FD4C
:1025900029E4524908223F310120FEF78BF8D2E7A7
:1025A0004E4908223F310120FEF784F8D8E74B4915
:1025B00008223F310120FEF77DF8DBE7474908227A
:1025C0003F310120FEF776F8DFE72AE0A0E00120A6
:1025D000E070082038700B20B870414D2878002832
:1025E00011D000F0C3FC0A2002F019FD0120E070B8
:1025F0003E70BE70287800280CD000F0B7FC0A208E
:1026000002F00DFD0EE5354908223F310120FEF7AD
:1026100051F8E8E7314908223F310120FEF74AF836
:10262000EDE7087B0128EDD1887C00283AD0E570E1
:10263000BE70FD712A48007800281ED000F096FC7C
:102640000A2002F0ECFCE5702C20B870FD712448E3
:102650000078002818D000F089FC0A2002F0DFFC86
:10266000E570BE70FE711E480078002813D000F09F
:102670007DFC0A2002F0D3FCD4E4184908223F3143
:102680000120FEF717F8DBE7144908223F3101204B
:10269000FEF710F8E1E7114908223F310120FEF76B
:1026A00009F8E6E70120E070082038700620B870CD
:1026B0000B4D287800281FD000F058FC0A2002F0AB
:1026C000AEFC0120E0703E70BE702878002819D062
:1026D00000F04CFC0A2002F0A2FCA3E42000002041
:1026E0009E00002076000020C00000207C0000201A
:1026F00016590000A20000200822F9490120FDF728
:10270000D9FFDBE70822F6490120FDF7D3FFE1E717
:10271000F44A1278012AAFD0F14A0F3AB02810D308
:10272000032313702571097B012902D0567096701E
:1027300078E4B0384100EC48405A5070000A90707C
:1027400070E4A82819D36571022313700A7BE44949
:102750001139012A09D0E54B4A781818C038007E93
:10276000FF23584002404A705CE4E04B4A78181856
:10277000C038007E02434A7054E4A02815D3E570A7
:10278000097B012909D04207D848520F805C39786B
:10279000FF2250400140397044E44207D348520FB1
:1027A0003978805C014339703CE40A7B012A0DD002
:1027B0008A7A002A4CD0B9188B7883422ED1C84B24
:1027C0008E703F3BE570521E9A7241E08B7A052B6A
:1027D00011D2002B09D0002205E0BE18B67886423F
:1027E000A6D0521C92B29A42F7D3FA1890705B1C92
:1027F0008B72E57016E4BE490978012998D07828D3
:1028000096D2A571BB490D70C20851184307B7484D
:102810005B0F4A78C05C02434A7003E4002115E074
:102820007B189B78834205D00EE07818C3788370BC
:10283000491C89B29142F8D378188670E570A8488F
:102840003F38521E827207E4491C89B29142E7D395
:102850007828F8D2A64909780129F4D0A571A549AC
:102860000D70C20851184307A0485B0FC05C4A783E
:10287000FF23584002404A7008E4F0B5984901200F
:102880001F3988729C489D4F067808462038017A87
:10289000007B4900CD199A4C9A4A0D2E03D09A4BD1
:1028A0000F2E0DD045E0795C6B78C9000919C95C21
:1028B000002802D0FE205054F0BDFD205054F0BD41
:1028C000002836D0785C6978884D695C8F4E355C1D
:1028D0000D4335541D5C0D431D54012037463918F6
:1028E0002039CD7F3E5C3543CD771421091ACE18AF
:1028F000203E5D5CF67F35435D54401CC0B2142819
:10290000EDD30021FF258148435C7F48405C0343B1
:102910000020CE003619DF0701D0375CD5555B08A3
:10292000401CC0B20628F6D3491CC9B21429EAD308
:10293000F0BD0E2E02D0112E0DD03FE0795C6B78E9
:10294000C9000919C95C002802D000205054F0BD0C
:1029500001205054F0BD002830D0785C6978634D78
:102960006D5C6A490E5C2E430E541E5C2E431E5451
:10297000674F3E5C2E433E54664E375C2F433754C0
:1029800000206249634D0B5C5F492D5C095C0B4381
:102990005F49095C29430B430021C5002D19DE075F
:1029A00002D06F5CFF26D6555B08491CC9B20629C8
:1029B000F5D3401CC0B21428E3D3F0BD132E11D1BF
:1029C00000280FD0474800780128F6D1785C697854
:1029D000514C0125235C2A468A40534023544F48DA
:1029E0000570F0BD102E1ED100281CD0785C474D1C
:1029F0003F21295419540021FF254448445C585C68
:102A0000044300203E4FCE00F619E70701D0375CA3
:102A1000D5556408401CC0B20628F6D3491CC9B27B
:102A20001429EAD3F0BD122EFCD10028FAD0795C2B
:102A30006878FE23CD002D192E5C9355002909D00E
:102A40004E1EF6003619375CD355052802D23618CB
:102A500076789355002803D02E18203EF67F9355A4
:102A6000052802D22D186D7853551329DAD2491C46
:102A7000C90009190C5C13550028D3D00818203858
:102A8000C07F1354F0BD70B5154C1A493F3CA27974
:102A90006078133988540025E571E078C00712D0BA
:102AA000A079E179C0004018207225736078C007D2
:102AB00001D001202073FFF7E0FE1948217A405C25
:102AC0006072FFF74AFA607840086070E07840086A
:102AD000E070E079401CC0B2E0710828DDD370BD21
:102AE0005F000020B9000020265900006659000050
:102AF0009E0000209F010020A2000020705A0000CC
:102B0000C05B00000E040020800200206C02002048
:102B100094020020A8020020E6020020B10000205C
:102B20002457000010B5C44C2078002805D0FFF7CA
:102B3000AAFFFEF7C2FD0020207010BDBF4841680B
:102B4000090C09044160BE484168C908C9004160D8
:102B5000704770B5B8480425867902220124B74829
:102B6000B749330002F084FC130B0F13171C212606
:102B70002B30363C42484E545A6064680E00416A1D
:102B800021434162ABE7416A11434162A7E7416AD1
:102B900029434162A3E7416A0822114341629EE74B
:102BA000416A10221143416299E7416A2022114390
:102BB000416294E7416A4022114341628FE7416AD2
:102BC0008022114341628AE7416AFF2201321143A8
:102BD000416284E7416A01225202114341627EE769
:102BE000416A012292021143416278E7416A01225F
:102BF000D2021143416272E7416A0122120311437A
:102C000041626CE7416A012252031143416266E767
:102C1000416A012292031143416260E7416A012245
:102C2000D203114341625AE7486A2043486256E79B
:102C3000486A1043486252E7486A284348624EE7B0
:102C40007E480168090C090401607D480168C908D3
:102C5000C90001607047794841687A4A1143416070
:102C600077484168072211434160704710B500243E
:102C7000FFF7F1FFFFF7E4FFFFF76BFF0A2002F019
:102C8000B9F971480168090700D501240168C9062E
:102C900001D502210C430168890601D504210C43AA
:102CA0000168490601D508210C430168090601D5D0
:102CB00010210C430068C00501D5202004432046A4
:102CC00010BD5E4801685F4A114301605C480168BD
:102CD000072211430160704770B557480425867973
:102CE0000222012455485649330002F0C1FB130B60
:102CF0000F13171C21262B30363C42484E545A6085
:102D000064680E00416821434160E8E64168114370
:102D10004160E4E6416829434160E0E641680822F9
:102D200011434160DBE64168102211434160D6E661
:102D30004168202211434160D1E64168402211439D
:102D40004160CCE64168802211434160C7E641689A
:102D5000FF22013211434160C1E641680122520263
:102D600011434160BBE64168012292021143416078
:102D7000B5E641680122D20211434160AFE64168E5
:102D80000122120311434160A9E641680122520366
:102D900011434160A3E6416801229203114341605F
:102DA0009DE641680122D2031143416097E64868DD
:102DB0002043486093E64868104348608FE64868BF
:102DC000284348608BE6F0B51B4A2049537A5807E0
:102DD000400F095CD8081E4E157B5C001746A319EE
:102DE0003937002D09D0BD1F2D5C0D4202D0557C16
:102DF000002D1BD0305D5072F0BD0F4D39352D5C6C
:102E00000D4208D00C4CFF26393471400D4025543A
:102E100058785072F0BDD37A012B04D1064B33336E
:102E20001D5C0D431D54305D5072F0BD3C5C0C4385
:102E30003C5458785072F0BD2000002000400440FF
:102E400000A00440FFFF000000800440665900001D
:102E5000CC570000F8B500203449002642008E52BD
:102E6000401C80B28A28F9D3022002F0D8F800244E
:102E700003272F4D7F030020A1010A18D2191278D1
:102E80002A54401C80B24028F7D331204002081851
:102E9000274A402102F0CDF901281CD0641CA4B2BD
:102EA000082CE8D324492348C86000202E54401C35
:102EB00080B24028FAD300241925AD02A0014019A0
:102EC0001B4A402102F0B5F9012805D0641CA4B2C8
:102ED000042CF3D3F8BDFEE7FEE770B50B461446AD
:102EE0000021134A03E05D5C5554491C89B2A1429C
:102EF000F9D30F4A214602F09CF9012800D1FEE7E0
:102F000070BD70B50B4614460021094A03E05D5CB4
:102F10005554491C89B2A142F9D3054A214602F011
:102F200088F9012800D1FEE770BD0000FA020020F8
:102F300098040020AA55FA5A00000140FE49FA20E0
:102F40000880FE4900200870FD4801210172E1213E
:102F5000C900C1627047F94900200870F849012092
:102F6000C871FF20F4492D3008807047F0B5F5484E
:102F7000F34B07785E780225F34C00210122002FE5
:102F80002AD0002E28D00170F04E706A284370625B
:102F900009209871A12020800020ED4C265C401C67
:102FA000E94C4700E653C0B20828F6D3E94EF06872
:102FB000C006FCD43068C02420433060306800066E
:102FC000800F0328FAD0E0480088F0611A62596245
:102FD0005970C8209870B2E0DF480778002F2AD0D7
:102FE000002E28D00170D94E706A284370621020DC
:102FF0009871A22020800120D84C4700265CD24C3A
:10300000E653401CC0B21028F6D3D24EF068C0067A
:10301000FCD43068C0242043306030680006800F44
:103020000328FAD0C8480088F0611A6259625970C2
:10303000C820987083E0CA480778002F23D0002E5C
:1030400021D00170C14E706A2843706203209871CC
:10305000A3262680C3484778A78080786080BD4833
:10306000C468E406FCD40468C0273C4304600468D8
:103070002406A40F032CFAD0C6611A625962597053
:10308000C82098705BE0B8480778002F29D0002E40
:1030900027D00170AD4E706A284370629D71A420E4
:1030A00020800120B14C4700265CA74CE653401C11
:1030B000C0B20228F6D3A74EF068C006FCD4306830
:1030C000C0242043306030680006800F0328FAD007
:1030D0009D480088F0611A6259625970C820987042
:1030E0002DE0587900282AD0002E28D05971974811
:1030F000466A2E43466203209871A6202080002055
:103100008F4C1834265C401C8F4C4700E653C0B2ED
:103110000228F5D38F4EF068C006FCD43068C02476
:103120002043306030680006800F0328FAD08648BC
:103130000088F0611A6259625970C8209870187836
:10314000002814D08048403004884088B12C02D137
:103150005E6A022E05D07C4E4036B688B62C07D06B
:103160000DE01970596241078148490F0170F0BDA7
:103170005A2804D1012E02D15F6A032F02D0B62C47
:1031800005D00BE0197059625A741A74F0BD5A28B0
:1031900004D1022E02D15F6A032F02D0B62C06D0D2
:1031A0000CE019705962032058741A74F0BD5A2843
:1031B00004D1042E02D15F6A032F02D0B62C05D0B1
:1031C0000BE0197059625D741A74F0BD5A2804D16D
:1031D000062E02D15D6A032D02D0B62C05D00BE07D
:1031E00019705962FFF7B7FEF0BD5A2804D1072EB7
:1031F00002D15D6A032D02D0B62C04D00AE019700A
:103200005962DA73F0BD5A2804D10A2E02D15D6AE0
:10321000032D02D0B62C07D00DE019705962D97178
:10322000998354480170F0BD512804D1772E02D102
:103230005D6A032D02D0B62C08D00EE04C48017018
:103240001970D9705962FFF779FEF0BD512804D189
:10325000762E02D15D6A032D02D0B62C0DD013E07C
:10326000197059621972D96259831A714248986269
:1032700099741A732320D874F0BD512804D1782E84
:1032800002D15D6A032D02D0B62C0CD012E0197069
:103290005962FF2091309862D962598319711A7569
:1032A00026480170F0BD512804D1792E02D1586A08
:1032B000032805D0586A0328F4D959621970F0BD63
:1032C000197059629A742D480170F0BD704730B57D
:1032D0001E48416A02221143416219490320887144
:1032E000194AA620108051200B4618331870887B8D
:1032F00001284AD002284BD08320587000201C5C43
:10330000401C45005453C0B20228F8D31148C3688A
:10331000DB06FCD40368C0242343036003681B0658
:103320009B0F032BFAD01288C26101200862002291
:103330004A624A70C82323E0CA000020AF00002080
:103340006C00002043000020EC01002000600440DD
:103350005F00002000C00140460000209F010020C7
:103360004400002050000020450000204E000020B6
:1033700034010020BE00002070170000C1000020B2
:103380008B7088720A73C87230BD81205870B5E79F
:1033900082205870B2E730B58F48416A022211434B
:1033A00041628E4A032090718D49A62008805120E9
:1033B0001346183318706520587000201C5C401CA0
:1033C00045004C53C0B20228F8D38648C368DB06D8
:1033D000FCD40368C0242343036003681B069B0FCF
:1033E000032BFAD00988C1610120106200205062CD
:1033F0005070C820907030BD30B57748416A0222C5
:1034000011434162754A032090717549A6200880D6
:1034100051201346183318706820587000201C5C27
:10342000401C45004C53C0B20228F8D36D48C36815
:10343000DB06FCD40368C0242343036003681B0637
:103440009B0F032BFAD00988C16101201062002074
:1034500050625070C820907030BD30B55E48416AEF
:103460000222114341625D4A032090715C49A6200B
:1034700008805120134618331870612058700020BE
:103480001C5C401C45004C53C0B20228F8D3554880
:10349000C368DB06FCD40368C024234303600368CD
:1034A0001B069B0F032BFAD00988C1610120106213
:1034B000002050625070C820907030BD30B5464832
:1034C000416A022211434162444A032090714449F7
:1034D000A6200880512013461833187070205870A9
:1034E00000201C5C401C45004C53C0B20228F8D39D
:1034F0003C48C368DB06FCD40368C0242343036054
:1035000003681B069B0F032BFAD00988C1610120B9
:103510001062002050625070C82191701421D18235
:10352000107230BD2D498878002815D0401EC0B2D9
:1035300088704A7810430FD1012048702648816A6C
:1035400002221143816227480169082291430161E7
:1035500001690422114301617047F0B51E4F3868BC
:103560000124C007022504261C491E4A002810D049
:10357000506940070CD5D369486A471C4F62184F01
:10358000400040373B520C704D739069304390615E
:10359000F0BD50694007FBD58B79086A984206D385
:1035A000B86A2843B8624C700020086205E0431CEA
:1035B0000B620B494000085AD061D06990693043D2
:1035C0009061F0BD08493C2008800849002008703F
:1035D0000249012048727047006004406C000020DE
:1035E000EC01002000C00140CA000020AF00002014
:1035F000F748F649427C895C817470470020F54A9F
:1036000000211154401C80B28A28FAD3704700B5BB
:10361000FFF7F4FFFF21EE489131818401224275CA
:1036200000210170C17181710272C17200BD00B5CB
:10363000E74B187801280AD0FFF7E0FFFF20F530AC
:10364000988401205875187000201872D87100BD38
:1036500010B5FFF7D3FFE0480078002802D0FFF74D
:10366000E6FF01E0FFF7D3FF03204003C178D84B0A
:1036700059740079D874FFF7BBFF01205875D748FB
:1036800000210170197731204002C279D44C227098
:10369000027AD44C22708279D34C2270427AD34C75
:1036A0002270827AD24C2270C27AD24C2270407937
:1036B000D14A1070D1480170197610BDC448417DBF
:1036C00001290BD100214175CD49C27C895C01756E
:1036D000828C4A431103090C4185C1847047F0B5BF
:1036E00086B0BB4B7F22184620301D7BC17800245A
:1036F000C448012D0ED01D7F012D1DD05B7F002BF6
:1037000022D000214B00C252491CC9B28A29F9D3E8
:1037100006B0F0BD890607D500214A008452491C35
:10372000C9B28A29F9D3F3E700214B00C252491CE0
:10373000C9B28A29F9D3EBE700214A008452491C17
:10374000C9B28A29F9D3E3E7AF4AFF231578AF4A14
:10375000002D1278059206D09D4A927F002A02D051
:10376000059A012A15D000229F4DAB4F2D78049564
:10377000A74D2E78A74D02962D783F782E433E43D5
:1037800001979E4F3F783E43BC4603963F2A38D070
:1037900043E00022A149A24E0D780021022D04D061
:1037A000032D08D0012D14D022E0D700BF197F5C73
:1037B0007F00C3531CE0002905D0D700BF197F5CF0
:1037C0007F00C35314E0D700BF193F787F00C45374
:1037D0000EE0002907D0012905D0D700BF197F5C72
:1037E0007F00C35304E0D700BF197F5C7F00C45340
:1037F000491CC9B20629D1D3521CD2B2142ACCD347
:1038000086E77B4E3678002E07D08E0702D57E26BF
:10381000835393E07E26845390E0162A27D1049E9A
:10382000012E24D1059E012E21D1039E002E1ED0F3
:10383000002D01D0838581E0029E002E05D04E0729
:1038400001D583857AE0848578E0019E002E05D03D
:103850000E0601D5838571E084856FE06646002EF3
:103860006CD0CE0601D5838568E0848566E0172A92
:1038700027D1049E022E24D1059E012E21D1039E24
:10388000002E1ED0002D01D0C38557E0029E002ED1
:1038900005D04E0701D5C38550E0C4854EE0019E9A
:1038A000002E05D00E0601D5C38547E0C48545E04E
:1038B0006646002E42D0CE0601D5C3853EE0C485C3
:1038C0003CE0182A27D1049E042E24D1059E012E07
:1038D00021D1039E002E1ED0002D01D003862DE0A5
:1038E000029E002E05D04E0701D5038626E00486F1
:1038F00024E0019E002E05D00E0601D503861DE0B2
:1039000004861BE06646002E18D0CE0601D503863D
:1039100014E0048612E02F4EB65C0096002E0BD009
:103920002B4E377E002F07D16746002F04D1019F11
:10393000002F01D1002D07D056008453521CD2B263
:103940008A2A00D222E7E3E6B67C009F7743FE088E
:103950005700C653F2E71E480F222030C1781143AA
:10396000C17070471A482030C17809090901C17037
:103970007047F0B5164C00252046417B028D491C4E
:10398000267BCBB22030C178012E11D0224E377861
:103990003C26002F5CD0002A4CD12685E27F521CA9
:1039A000D2B2E277D30746D080231943C17045E0F5
:1039B000002A3FD1782222856373DE07DF22002EA2
:1039C00030D020263143C1702EE00000955F00000A
:1039D000A20000200E040020030000202E00002082
:1039E0003A000020670000207A0000203B00002001
:1039F00068000020410000204200002074000020E8
:103A00009D5F0000FA0200207C0000209E00002044
:103A100080000020780000207E0000207D00002033
:103A2000C05B00001140C170072B03D1C178114069
:103A3000C1702573F0BD4906490EC170172AF9D32C
:103A4000C1784906490EC170FE480570E577F0BDA2
:103A5000FD4F3F78002F15D0002AF8D126856373DB
:103A6000DC07FB22002C03D004242143C17001E0B9
:103A70001140C170072BEAD3C1781140C170F248E0
:103A80000570F0BDF14F3F78002F0ED0002AF8D11D
:103A9000FA2222856373DA0703D010221143C17022
:103AA000F0BDEF221140C170F0BDE17D00290BD0C7
:103AB000002AF9D126856373D80702D0FFF752FF99
:103AC000F0BDFFF748FFF0BDC570E1490A78D207A5
:103AD00001D00122C2700978890703D5C17802227A
:103AE0001143C170DB4909780029ECD0C178082264
:103AF0001143C170F0BD10B5D74C0722A256D74B69
:103B0000D00707D0002000211954401CC0B28A28D9
:103B1000FAD306E00020FF211954401CC0B28A28C5
:103B2000FAD3521C50B2E071062805DBFFF766FDA0
:103B3000FFF790F9FFF78CFD10BD00B5FFF75EFDB4
:103B400000BDF0B5FFF75AFD0021C54FC34DFF235F
:103B5000C448425C0020CC00E419D60701D0265CA2
:103B6000AB555208401CC0B20628F6D3491CC9B256
:103B70001429EDD3F0BD0020B84A115C002901D012
:103B8000491E1154401CC0B28A28F6D37047F0B5C4
:103B9000B44D7A3D2878400828702F463C37387855
:103BA00040003870012029182039CB7F2A5C13434C
:103BB000CB77510829543A18203AD37F395C0B430C
:103BC000D37749003954401C40B21428EBDBA54E92
:103BD000663EF07C4008F07432461432D07C4000DF
:103BE000D074122033185C78315C0C435C70490847
:103BF000315413185C78115C0C435C70490011540B
:103C0000401E40B20028EDDA00209649954B7A39E3
:103C1000663B095C1B5C934C19433E3C135C245C83
:103C2000234319434BB200218D4EFF25C400A41934
:103C30008A4EDF0701D0675CF5555B10491C49B21D
:103C40000629F6DB401C40B21428DEDBF0BDF0B5DF
:103C5000FFF7D4FC0120834A14237A3AD7181418AA
:103C6000115C203CE177191ACC19203CE47F7C548C
:103C7000401C40B21428F2DB0020D07438700021C0
:103C8000FF2378487A5C7A38405C104342B20020C7
:103C9000734DCC006419714DD60701D0265CAB552D
:103CA0005210401C40B20628F6DB491C49B21429C8
:103CB000E7DBF0BDF0B501206A4A14237A3AD71841
:103CC0001418115C203CE177191ACC19203CE47FD0
:103CD0007C54401CC0B21428F2D30020D074387039
:103CE0000021FF235F487A38425C785C0243002061
:103CF0005B4DCC006419594DD60701D0265CAB55FD
:103D00005208401CC0B20628F6D3491CC9B2142977
:103D1000E8D3F0BD0020514A115CFE2903D00029F0
:103D200001D0491C1154401CC0B28A28F4D37047FA
:103D300000204A4A115CFE2903D0002901D0491E07
:103D40001154401CC0B28A28F4D37047F0B54249E0
:103D5000C87A401CC8720020897E424D8C467A3D4C
:103D60006146002907D0295C49002954490609D534
:103D70000121295406E0295C49082954002901D170
:103D8000202129542A5C0021354EFF24C3009B19B1
:103D9000324ED70701D05F5CF4555208491CC9B2B6
:103DA0000629F6D3401CC0B21428D9D3F0BD10B5F3
:103DB00000202A4AFF232C4C06E0115C002907D082
:103DC000491E1154401CC0B221788842F5D310BD61
:103DD0001354F7E7F0B52049C87A401CC872002098
:103DE000204F7A3F395C4906090E3954C90901D080
:103DF000012139543A5C0021194DFF23C400641994
:103E0000164DD60701D0665CAB555208491CC9B2A5
:103E10000629F6D3401CC0B21428E3D3F0BDF0B598
:103E200012490D480A78807E521E114D0B4ED4B2B5
:103E3000002848D000200B4A2A3A115C491CC9B21C
:103E4000115417E07E000020800000207400002044
:103E5000340100202E000020A20000200E040020CB
:103E6000C05B0000E6020020945F0000C05C000020
:103E7000605C0000FE4B1B78994201D30021115475
:103E8000FC4B195C002915D0491E19540021FA4B2E
:103E9000C200D218CB070FD0F64B575C1B5CEB5C13
:103EA000F355491CC9B20629F4D3401CC0B21428EA
:103EB000C1D3F0BD1C54E9E7EE4B575C50331B5C9B
:103EC000EB5CF355EDE70020EA4A5032115C491CE7
:103ED000C9B21154E64B1B78994201D30021115409
:103EE000E44B195C00290ED0491E19540021E24B05
:103EF000C200D218CB0708D0DE4B575C50331B5C96
:103F0000EB5CF35506E01C54F0E7DA4B575C1B5CA6
:103F1000EB5CF355491CC9B20629EBD3401CC0B277
:103F20001428D1D3F0BDF0B50020D24CD04F50347E
:103F300023E0D249897E002909D0215C491CC9B2FD
:103F400021543A78914207D30021215404E0215CA6
:103F5000002917D0491E215400210C22C94B42438D
:103F6000D318C74E225CC84DB25C5E5CAA55491C92
:103F7000C9B20C29F9D3401CC0B2C449097888429F
:103F8000D7D3F0BD3978491E2154E5E7F0B50020BC
:103F9000B84CB74F503423E0B849897E002909D086
:103FA000215C491CC9B221543A78914207D30021BF
:103FB000215404E0215C002917D0491E215400211E
:103FC0004200B34B8218D318AD4E225CAE4DB25CAA
:103FD0005E5CAA55491CC9B20329F9D3401CC0B282
:103FE000AC4909788842D7D3F0BD3978491E2154AD
:103FF000E5E7F0B50020A1499E4D8F7E9E4BA24E75
:104000005035002F0AD0295C491CC9B22954984A5E
:104010001278914207D30021295404E0295C002939
:1040200012D0491E29540021954C2A5CA25CCC0078
:10403000E418245C3255491CC9B21429F7D3401C3A
:10404000C0B20628DDD3F0BD89490978491E29543C
:10405000E9E7F0B500208949864C8F7E8A4D5034BF
:10406000002F0AD0215C491CC9B22154804A127821
:10407000914207D30021215404E0215C002913D090
:10408000491E215400217C4BC200D3187C4E225C77
:10409000B25C5E5CAA55491CC9B20629F9D3401C22
:1040A000C0B21428DCD3F0BD71490978491E2154EF
:1040B000E8E7F0B5FFF7A2FA00206E4F391849780B
:1040C0003954401CC0B20928F8D31320395C3A187F
:1040D0005170401EC0B20928F8D26849C87E012834
:1040E0001DD0787A40087872C00701D00120C876C8
:1040F0000021FF23785C420800205F4DCC0064194A
:10410000614DD60701D0265CAB555208401CC0B2A9
:104110000628F6D3491CC9B21429EBD3F0BD787A2E
:104120004006000E7872C009E2D00020C876DFE7B2
:104130005249594A8B7E0846C07A002B08D0002885
:1041400002D0401EC8720BE01078401EC87207E013
:10415000401CC0B2C8721278904201D10020C872CF
:104160004E48C97A405C484AFF2111547047434A7F
:104170004B49D07A095C401CC0B2D072802801D370
:104180000020D0720020404A1154401CC0B28A283E
:10419000FAD3704770B5394D3C480721695600780D
:1041A000FF24394B81420DDA0020364E0C224A435F
:1041B0009219165C9C55401CC0B20C28F9D3491CBE
:1041C000E97170BD00201C54401CC0B28A28FAD38B
:1041D00070BDF0B5294C00252572FFF70FFA207845
:1041E000132804D0132020700120E073E575A07D12
:1041F000012812D0022812D0032813D0042814D08A
:10420000052815D0062816D0072817D0082818D05A
:10421000092819D0002819D01AE0224B18E0214BA8
:10422000203315E0C523DB0112E01E4B60330FE0A5
:104230001C4B80330CE01B4BA03309E063231B02B3
:1042400006E0184BE03303E0174B01E0164B203338
:104250000021FF245A5C07487A3042540020064E61
:10426000CD00AD19084ED70701D02F5CF4551DE0E5
:10427000C05C00006C020020C05B0000A2000020B7
:10428000605C0000EB5900000E0400206F5A000033
:10429000975E0000095F0000EA59000085590000A0
:1042A000565D000040620000406300005208401C60
:1042B000C0B20628D7D3491CC9B21429CAD3F0BD4D
:1042C00000B5FFF79BF9FE48282181840121417543
:1042D00012210170002101720020FA4A1154401C81
:1042E000C0B28A28FAD300BD30B5FFF787F9FF21A5
:1042F000F3482D3181840121417511220270017230
:104300000020F14A00211346144614332834154680
:104310003C351154195421542954401CC0B214285E
:10432000F7D330BD00B5FFF769F9FF21E4489131BB
:104330008184012141750021C17210220270017235
:10434000C1710020E04B1A46143219541154401C1C
:10435000C0B21428F9D300BD00B5FFF74FF9D84813
:10436000C8218184012242750021C1720F2303708C
:1043700002720020D44AD44B143211541954401CF8
:10438000C0B21428F9D300BD00B5FFF737F9CC4807
:1043900028218184012141750E21017000210172C3
:1043A0000020C84AFE211154401CC0B28A28FAD30A
:1043B00000BD00B5FFF722F9C14828218184012101
:1043C00041750D210170002101720020BD4A115478
:1043D000401CC0B28A28FAD300BDF0B5FFF70EF931
:1043E0004B21B748C9008184012242750021C17266
:1043F0000C23037002728176B44FB24DFF23B44890
:10440000425CB14842540020CC00E419D60701D0E8
:10441000265CAB555208401CC0B20628F6D3491C96
:10442000C9B21429EBD3F0BD10B5FFF7E7F8FF21AF
:10443000A34891318184012141750021C1720B2271
:10444000027001720020A34A9E49A34B03E0145C52
:104450000C54401CC0B21C78A042F8D310BDF0B57B
:10446000FFF7CCF84B219648C900818401214175A2
:104470000022C2720A22027001720021934F914DF4
:10448000FF239648425C904842540020CC00E41937
:10449000D60701D0265CAB555208401CC0B2062896
:1044A000F6D3491CC9B21429EBD3F0BDF0B5FFF720
:1044B000A5F8834850218184012141750021C172F2
:1044C0000922027001720020854D7E4E85490C5CE8
:1044D0007D4950310C5450390C5400217B4BC200A3
:1044E000D218575C2B5DF355491CC9B20629F8D385
:1044F000401CC0B21428E9D3F0BDF0B5FFF77EF838
:104500006F48A0218184012141750021C1720822D8
:1045100002700172724D6B4E12E07348445C6A483F
:104520005030445400200C22704B4A43D218175C80
:104530002B5DF355401CC0B20C28F8D3491CC9B2FE
:104540006B4800788142E8D3F0BDF0B5FFF756F82C
:104550005B4864218184012141750021C1720722D9
:10456000027001725E4D574E12E06248445C56483C
:104570005030445400204A005F4B8A18D218175C10
:104580002B5DF355401CC0B20328F8D3491CC9B2B7
:104590005A4800788142E8D3F0BDF0B5FFF72EF815
:1045A000474864218184012141750021C17206229E
:1045B0000270017200204A4E444A424F50490D5C3D
:1045C000414950310D540021CC00A418245C735D86
:1045D0003B55491CC9B21429F6D3401CC0B2062869
:1045E000ECD3F0BDF0B5FFF709F8354864218184BC
:1045F000012141750021C172052202700172384DFE
:10460000304E3848445C30485030445400202F4BE2
:10461000CA00D218175C2B5DF355401CC0B20628A7
:10462000F8D3491CC9B21429EBD3F0BDF0B5FEF79D
:10463000E5FFFF20224FF530B88401207875002077
:10464000F8720421397038720021FF232D48425C32
:104650001D48425400201D4DCC006419194D960789
:1046600001D5265CAB555208401CC0B20628F6D3D3
:10467000491CC9B21429E9D30120F876F0BD00B570
:10468000FEF7BCFFFF210E48913181840122427563
:10469000032101700021C171C1728171027200BDDC
:1046A00000B5FEF7ABFFFF210548193181840121D8
:1046B00041750221017000210172C17200BD00002C
:1046C000A20000200E0400206C020020C05B00004D
:1046D0003F5D00000A5F0000945F0000285D00005D
:1046E000605C0000C15C0000055D0000EB5900004B
:1046F0006F5A0000DF5C0000975E0000095F000059
:10470000D95C0000115D000000B5FF480021C175B3
:104710004179112903D93121490249784171407900
:10472000030000F0A5FE1A0E111A1D202C232914D7
:104730002F263235173E383B441010101010101041
:104740004110FEF774FFB9E7FFF7AAFFB6E7FFF7DE
:1047500096FFB3E7FFF76AFFB0E7FFF743FFADE768
:10476000FFF71BFFAAE7FFF7F0FEA7E7FFF7C5FE7D
:10477000A4E7FFF79BFEA1E7FFF771FE9EE7FFF7B7
:1047800053FE9BE7FFF729FE98E7FFF712FE95E738
:10479000FFF7FAFD92E7FFF7DFFD8FE7FFF7C2FDB6
:1047A0008CE7FFF7A1FD89E7FFF78AFD86E7FFF7B2
:1047B00010FD83E7F8B5D44C01252146C97AA079CC
:1047C0004A1CD3B2FF22D14E002812D001280FD1AB
:1047D000CF480078814221D20020CE4D0C2779436A
:1047E00049190D5C7255401CC0B20C28F9D3E37214
:1047F000F8BDC9480078814208D2C84D4800295CFC
:104800007254401940783254E372F8BDBF484030CA
:1048100040790028F9D1A571E072F8BD3078002800
:10482000FBD1FEF7EBFE312676023078A52801D0C9
:10483000FEF710FB70786071B078A075F078607446
:104840003079E0746575FEF7D3FEFFF75DFFF8BDC4
:10485000AD48007A00280AD00020AC4A115C00293B
:1048600001D0491E1154401CC0B28A28F6D37047AB
:1048700070B5A54B0025587A002806D0587E002830
:1048800003D15D72FFF7E4FF0124D87B002855D0E7
:10489000587E002852D1DD731878030000F0E8FD3F
:1048A000160C0F1215181B1E2124272A2D30333603
:1048B000393C3F42454B484DFFF77CFF3DE0FFF759
:1048C00069FC3AE0FFF753FC37E0FFF731FC34E0D6
:1048D000FFF7EFFB31E0FFF7BCFB2EE0FFF789FBB2
:1048E0002BE0FFF753FB28E0FFF71DFB25E0FFF768
:1048F00096FA22E0FFF76EFA1FE0FFF758FA1CE085
:10490000FFF724FA19E0FFF713FA16E0FFF702FAAF
:1049100013E0FFF7CFF910E0FFF799F90DE0FFF78B
:1049200036F90AE0FFF727F907E0FFF70AF904E094
:10493000FFF703F901E0FFF7DEF80124FFF719F8AC
:10494000002C01D0FEF7CBFEFEF7B8FE70BDF0B52F
:104950006D4E00207778FF257149724A724C3B00FA
:1049600000F086FD09060C1014181C2024280B00EA
:10497000B0704020F07080203071F0BD0D7010706C
:104980002070F0BD087015702070F0BD08701070B8
:104990002570F0BD0D7015702070F0BD0D70107099
:1049A0002570F0BD087015702570F0BD0D70157084
:1049B0002570F0BD087010702070F0BDF0B50020BB
:1049C0005A49514C09782C34491E221DC9B2131D75
:1049D0001DE0255C002D1FD06D1E2554155C002D9B
:1049E0001CD06D1E15541D5C002D19D06D1E1D545C
:1049F000265C4F4D4F4FAE5D3E54165C4E4FAE5D44
:104A00003E541E5CAD5D4D4E3554401CC0B24C4D05
:104A10002D78A842DDD3F0BD2154DFE71154E2E741
:104A20001954E5E7F0B5384F20373878401CC0B24C
:104A300038703E4A00211378984200D33970787854
:104A4000401CC0B278701378984200D37970B8785F
:104A5000401CC0B2B8701278904200D3B9700020E8
:104A6000334D39787C78BF78695C2C5D314A324EA1
:104A7000324BED5D115434541D54401CC0B2032818
:104A8000F8D3F0BDF0B520484078002802D00128C6
:104A900005D102E0FFF7C6FF01E0FFF78FFF00201E
:104AA000244C2849244D284E244F284A235C0B547B
:104AB0002B5C33543B5C1354401CC0B20328F5D329
:104AC000F0BDF0B510490120487000200F46204E7F
:104AD0002C3753E0325C154D11462B789A4202D3A5
:104AE0002B78D21A92B2D2B23A540C4640342B7878
:104AF0009C4202D32B78E31A9CB2E3B2024C3034CE
:104B0000235480312C7825E0A20000200E040020E0
:104B10006F5A0000EB590000845900006E590000E4
:104B2000E0000020E1000020E2000020965E00008E
:104B3000D65D0000E3000020E6000020E900002030
:104B4000D85C0000EC000020EF000020F200002004
:104B5000D55C0000A14202D32C78091B89B2994C84
:104B6000C9B22154984C994DA25C2A54E25C984BEE
:104B70001A54984A615C1154401CC0B29649097895
:104B80008842A7D3F0BD8F4800211438017040221D
:104B9000427080228270203841708A490F20091D9E
:104BA0004880704770B587483F26343840780021E8
:104BB000864C874A874D030000F05AFC0A06090C10
:104BC000151E27303A434C08FFF7DDFF70BDFFF795
:104BD00078FF70BD0020265411542954401CC0B2E7
:104BE0000328F8D370BD0020215416542954401CCA
:104BF000C0B20328F8D370BD0020215411542E54A4
:104C0000401CC0B20328F8D370BD002026541654AF
:104C10002954401CC0B20328F8D370BD002033468D
:104C2000235411542B54401CC0B20328F8D370BD38
:104C30000020215416542E54401CC0B20328F8D32F
:104C400070BD0020265416542E54401CC0B20328B8
:104C5000F8D370BD0020215411542954401CC0B217
:104C60000328F8D370BD57493439887A401CC0B244
:104C70008872022803D90020887201204872704788
:104C800000B5FEF7BBFCFF214E48913134388184DA
:104C9000012141750021C172152202700172C1719A
:104CA0000CE500B5FEF7AAFC46484C49343881842F
:104CB000012141750021C172142202700172C1717B
:104CC0000177FBE401280FD002280FD004280FD071
:104CD00008280FD010280FD020280FD040280FD040
:104CE00080280FD0002070470020704701207047B7
:104CF000022070470320704704207047052070474A
:104D000006207047072070471FB5A5206A4610701F
:104D10002C48343841795170817D9170417CD1703B
:104D2000C07C10712E48007850712E480078907128
:104D30002D480078D0712D48007810722C480078EA
:104D400050722C48007890722B480078D072312035
:104D5000102269464002FEF7D4F81FBD19493439C4
:104D6000488D401E0004000C488503D1C88C48853E
:104D70000120C873704713493439887B401CC0B286
:104D800088730F2803D900208873012008747047A6
:104D90000C493439088D002801D0401E0885704721
:104DA00008483438017B002903D101854173012172
:104DB0000173704703480021343801854173012194
:104DC000C1757047D6000020D65D0000E3000020CA
:104DD000E6000020E9000020D85C00006C0700001D
:104DE000420000207A0000203A00002067000020E6
:104DF0003B000020680000204100002000B55A4818
:104E000001785A480B0000F033FB0604090E131911
:104E10001F08416A01221143416200BD416A02221A
:104E20001143416200BD416A04221143416200BD49
:104E30004F48416A10221143416200BD416A01227C
:104E400052021143416200BD416A012292021143A4
:104E5000416200BD00B5444909780B0000F008FB31
:104E6000060406090C0F121442480DE041482A308E
:104E70000AE04048543007E03E487E3004E03D48B8
:104E8000A83001E03B48D2303B4902880A624288A0
:104E90004A6282888A62C288CA6202890A63428937
:104EA0004A6382898A63C289CA633349028A40316C
:104EB0000A60428A4A60828A8A60C28ACA60028B19
:104EC0000A61428B4A61828B8A61C28BCA61028C01
:104ED0000A62428C4A62808C886200BD2849274859
:104EE000486008602248426807210A43426002681D
:104EF0000A43026070471D480168224A1140016060
:104F00001B480168102291430160704770B51A4E2A
:104F100000247460FFF7EFFF1B48134D0078002852
:104F200012D16878401CC0B268700A280CD36C702B
:104F300000F0F2F8FDF702FEFDF798FE1349087045
:104F4000FCF790FB00F0B5F8FFF784FFFFF756FF82
:104F500030680121084330602878401CC0B22870B6
:104F6000062800D32C7070BDDE00002000800440B5
:104F700000A00440FA02002000200040FFFF0000D3
:104F800000400440F8F9FFFF20000020210000202D
:104F900050214843401E411CFCD1704710B50246C9
:104FA000284C294B03E0DC606420FFF7F1FF521E20
:104FB000501CF8D110BD50214843401E411CFCD16B
:104FC000704710B502461F4C1F4B03E0DC606420A5
:104FD000FFF7F1FF521E501CF8D110BD0D20401EEE
:104FE00080B20028FBD170470220401E80B200280A
:104FF000FBD1704700B54008401E81B203E0FFF7C7
:10500000EDFF491E89B20029F9D100BD00B531215B
:10501000FFF7E4FF491E89B20029F9D100BD30B580
:105020000346084C084D07E0EC600922FFF7EEFF4D
:10503000521E92B2002AF9D118465B1E9BB200287C
:10504000F2D130BDAA55FA5A000001400F490E486E
:1050500008600020886048600B4A0D49921E0A6073
:1050600088602E224A600B4908600B4888600B4814
:1050700048607F210A48490201600121490381609B
:10508000FF21203141607047FFFF000000400440D5
:10509000006004400080044080AA0200070600006F
:1050A00000A004400120264940040860254908600A
:1050B0007047264824490162C161704700B5244801
:1050C00001688022114301602048172180388160E7
:1050D00000214161816107214902C1611B4AFF2111
:1050E000403AD1630221016001688907FCD401685C
:1050F000012211430160FFF7DCFFFFF7D3FF00BD82
:105100000120104940048031086070471048016850
:10511000802291430160F3E70C4900200862704748
:1051200010B50A4C606A09498039C969890506D5F4
:10513000000204D5FFF7EAFE0120C005A06210BD01
:1051400080E200E000E100E0FFFF07008020004077
:1051500000E00540084807494161FF2181610721BE
:105160000161704710B50449FF208861FBF769FAB7
:1051700010BD00001017000000E000E01E481D49AF
:10518000C1600168042291431C4A114301607047C9
:1051900001201B49400608601A4908601A4908683E
:1051A000FF221202904308607047144908431249D5
:1051B00088601048C8607047104908430E4948602D
:1051C000704700B50220FFF7F7FF0C480A4B186044
:1051D0003D20FFF7EAFFFFF7DBFF18680749491C8E
:1051E0000843186000BD0120064940068031086070
:1051F00070470000AA55FA5A000001400000FA5A10
:1052000080E200E000E100E018E400E02B49022227
:105210008A60086100E000BF4868C007FBD1886869
:1052200040221043886000E000BF4868C007FBD1FF
:10523000704710B5214B01249C60186100E000BF4D
:105240005868C007FBD111E0147850780002204361
:10525000947824040443D07800062043D86000E00A
:1052600000BF5868C007FBD1121D091F0029EBD1F0
:1052700058684007002802DA5960012010BD98687C
:1052800040221043986000E000BF5868C007FBD17F
:105290005868400702D55960012010BD002010BD9C
:1052A00010B5002000210F23DB0204C994B220189E
:1052B000120C10189942F8D310BD000000200640CF
:1052C00034480F21816104210161704710B53248D3
:1052D000016801221203114301602E4A10680F2158
:1052E000090288430721090240181060106808214C
:1052F0000843106010680221884310601068042180
:105300008843106010680721C90388431060106843
:10531000C910884310609068000A0002801C9060E9
:1053200000205060106801218904884310601068D3
:10533000C02108431060FFF7C3FF0123174958033A
:1053400008601749086017490868FF242402A04331
:10535000086010681843106010BD0F4801680122F2
:105360001203114301600B480168012211430160DF
:105370000168C0221143016070470648016849086E
:105380004900016004480168012212039143016051
:105390007047000000C0014000E0054080E200E0EE
:1053A00000E100E00CE400E010B51748C068174CBD
:1053B0004006400F02D0012806D102E014482060C8
:1053C00002E07D20000220600121206800F028F822
:1053D0002060104A1049904202D91048086010BD60
:1053E0000E48401F086010BD0C490B48491E016063
:1053F000491C0160044800210161C160C16849067F
:10540000490FFBD17047000000000640F800002063
:10541000006CDC0200366E01002006400500FA5ADE
:1054200030B50B46014600202022012409E00D463C
:10543000D5409D4205D31D469540491B25469540C4
:1054400040191546521E002DF1DC30BD064C0125D9
:10545000064E05E0E36807CC2B430C3C984710341C
:10546000B442F7D3FAF730FEA85F0000C85F00002F
:1054700030B47446641E2578641CAB4200D21D46CD
:10548000635D5B00E31830BC184702E008C8121FD8
:1054900008C1002AFAD17047002001E001C1121FA3
:1054A000002AFBD170471201000200000040AC0549
:1054B0004F0217010102000105010906A1010507BC
:1054C00019E029E71500250175019508810295016C
:1054D00075088101950575010508190129059102D5
:1054E000950175039101050719002AFF00950575BF
:1054F00008150026FF00810005FF090375089501C6
:105500008102050C09001580257F95407508B102C0
:10551000C0050C0901A101850319002A3C031500EF
:10552000263C03950175108100C005010980A10189
:10553000850205011981298315002501950375014F
:105540008102950175058101C005010906A101854A
:105550000105071500250119002977957875018146
:1055600002C0050C0901A101850115002501952046
:10557000750109B509B609B709CD09E009E209E3E2
:1055800009E409E509E909EA0A52010A53010A5442
:10559000010A55010A8A010A21020A23020A240289
:1055A0000A25020A26020A27020A2A020A92010A88
:1055B00094010A83010A02020A03020A07020A1876
:1055C000020A1A0209B88102C005010980A10185F9
:1055D0000219812983150025017501950381027542
:1055E0000595018101C00600FF0901A10185031A8B
:1055F000F1002AF80015002501750895028102C006
:1056000009023B00020100A032090400000103016D
:105610000100092111010001225900070581030839
:105620000001090401000103010200092111010028
:105630000122510007058203100001040309041828
:10564000034B00650079006300680072006F006E14
:105650000020004B00340018034B00650079006304
:1056600000680072006F006E0020004B00340000E4
:105670000100000012000000A6540000020000001B
:105680003B00000000560000030000000400000082
:105690003B56000003090000040000003B560000D8
:1056A00003000100180000003F560000030901003C
:1056B000180000003F560000030002001800000020
:1056C000575600000309020018000000575600005A
:1056D00005000000070000001B5600000500000048
:1056E000070000001B560000210000000900000018
:1056F0001256000021010000090000002B56000096
:105700002200000059000000B854000022010000EF
:105710005100000011550000220200009E00000010
:105720006255000029352B39A1A000003A1E14F95A
:1057300000A300003B1FF8FA1DA200003C2008FB5C
:105740001B0000003D211509060000003E22170A3B
:10575000190000003F231C0B052C00004024180DED
:105760001100000041250C0E100000004226120F0F
:10577000360000004327133337A60000442D2F3492
:1057800038AF0000452E300000A400004A2A31281E
:10579000A5FD00004D000000FCFE00004B535F5CC7
:1057A00059FF00004E54605D5A6200004C55615E26
:1057B0005B630000D3565700580000000000000053
:1057C00000000000000000000000000029293ACF7E
:1057D0003BCE3C863D873ED53FD440B141B342B03D
:1057E00043B544BA45B91DAB2DD72ED6A3A352520B
:1057F00051511E971F9820991BAC0FDE0EE512AD7C
:105800000CE3FBDF39E205E163F5D3E44BDD292945
:10581000CF3ACE3B863C873DD53ED43FB140B341E5
:10582000B042B543BA44B9451DAB2DD72ED6A3A37C
:10583000525251511E971F9820991BAC0FDE0EE556
:1058400012AD0CE3FBDF39E205E163F5D3E44BDD98
:1058500029293A3A3B3B3C3C3D3D3E3E3F3F4040A0
:10586000414142424343444445451DAB2DD72ED6CA
:10587000A3A3525251511E971F9820991BAC0FDEC3
:105880000EE512AD0CE3FBDF39E205E163F5D3E48D
:105890004BDD29293A3A3B3B3C3C3D3DD53ED43F8C
:1058A0004040414142424343444445451DAB2DD70E
:1058B0002ED6A3A3525251511E971F9820991BAC6C
:1058C0000FDE0EE512AD0CE3FBDF39E205E163F517
:1058D000D3E44BDD29293A3A3B3B3C3C3D3D3ED5A8
:1058E0003FD44040414142424343444445451DABBF
:1058F0002DD72ED6A3A3525251511E971F982099EF
:105900001BAC0FDE0EE512AD0CE3FBDF39E205E167
:1059100063F5D3E44BDD1A1A040416160707525236
:10592000505051514F4FB500B600B700CD00E000C8
:10593000E200E300E400E500E900EA00520153015F
:10594000540155018A012102230224022502260264
:1059500027022A0292019401830102020302070234
:1059600018026F00700001020408102040803F27D9
:10597000402641254222431444214520461F471E0C
:10598000331D32310B000102030405060708090A22
:105990000B0C0D0E0F10111215161718191A1B1CCF
:1059A0001D1E1F202122242526272A2B2C2D2E2F99
:1059B0003031323334353637393A3B3C3F4041425F
:1059C000434445464748494A4B4C4E4F505456571E
:1059D00058595A5B5C5D5E5F616263646566696AC3
:1059E0006B6F737475767778797A65321414141442
:1059F000141414141414141D1E31334647141414B3
:105A00001414141408091C30455B5C5D48341F07EE
:105A10001B2F445A735E4935200A6F061A2E4359CC
:105A2000745F4A36210B1405192D42581475614CC8
:105A3000370C1404182C4157767762220D0E14038C
:105A4000172B40566B78634E39240F02162A3F54A9
:105A50006A79644F3A2510011569117A65503B2621
:105A60001414140012273C6614503B261414140B13
:105A70000100010101020103000400050006000607
:105A800002000201020202030006010500060006F0
:105A900003000301030203030204020500060006DB
:105AA00004000401040204030304000600060006C7
:105AB00005000501050205030404000600060006B2
:105AC000060006010602060305040006000600069D
:105AD0000700070107020703060406050006000683
