:020000040000FA
:10000000D0060020D9000000E10000006F060000CB
:1000100000000000000000000000000000000000E0
:10002000000000000000000000000000E5000000EB
:100030000000000000000000E70000007D5100000B
:10004000EB00000085080000000000000000000038
:1000500000000000000000000000000000000000A0
:100060000000000000000000000000000000000090
:10007000000000006D35000000000000EB000000F3
:10008000EB000000395100000000000000000000FB
:100090000000000000000000000000000000000060
:1000A0000000000095510000EB000000000000007F
:1000B000EB000000C7070000EB000000EB000000B1
:1000C0000348854605F0CEF900480047BF0400000C
:1000D000D006002070472400044800470448004729
:1000E000FEE7FEE7FEE7FEE7FEE7FEE70178000039
:1000F000C1000000004800470900FF1FF8B502F0EA
:10010000D1FEFE480178002974D000240470FC4A16
:10011000FC491068002806D0401E1060002802D15B
:100120000C70F9480470F94A1078002808D0401E75
:10013000C0B21070002803D1F5480460F54804707F
:10014000F54D2868002855D0F4480126007800288D
:1001500000D02E60F24A09781278114301D00028AD
:1001600002D02868401E28602868002842D104F088
:10017000DFFF04F0D7FFEB48046104F0C7FE02F094
:1001800017FD02F049FDE8490868E84A40084000C8
:1001900010430860642004F04EFF00F02AFBE4489E
:1001A0000461C660C168C906FCD5E24E3069092702
:1001B000FF06B8433061DD48DF49801C086003F06A
:1001C00091FB3461DD480221016030BF0460D348F7
:1001D00000780028FDD100F044FB306938433061DD
:1001E00004F0C4FF04F0F9FF02F068FC04F072FFB1
:1001F000D3482860F8BD70B5C048D24902780024C1
:10020000002A05D004700888002801D0401E08800C
:10021000CD480069800718D50888002815D1C82066
:1002200004F009FF04F084FF04F07CFFBE4801687D
:10023000BE4A490849001143016000F0A7FB04F0E1
:10024000CCFF04F093FF04F045FFC04D287801284F
:1002500006D10822BE4900F023FA002800D12C70F4
:10026000BC4D2878012807D11022BB49022000F09C
:1002700017FA002800D12C70B84D287801280CD02E
:10028000B74D2878012807D10222B649104600F060
:1002900007FA002800D12C7070BD0322B249022059
:1002A00000F0FEF90028F7D12C7070BDF8B5AF480A
:1002B000817800296FD00024847004F066FDAC4979
:1002C000AC4E0888002818D0401E80B20880002854
:1002D00013D13078002802D0012803D00DE002F0BD
:1002E00095FF0AE002F093FFA3480078002802D0AF
:1002F00003F08BF801E003F0B9F8A0490878401C3E
:10030000C0B20870322830D30C707C4801250570CB
:100310009B49087800280AD0401EC0B20870002807
:1003200005D198480078002801D197480470974972
:100330000878002819D0401EC0B20870002814D1D7
:10034000934F3878C043820792480FD10278002A31
:100350000CD004F0B7FC904805703C703078012850
:1003600003D103F0B4F88D48047084E08C4F3A78E0
:10037000D243920710D10278002A0DD004F01AFD62
:100380003C7088480178012903D0057004F0CFFC47
:1003900071E00470FAE791E0834A1378DB439B072E
:1003A0000FD10378002B0CD0147004F00DFD7F48A2
:1003B0000178012903D0057004F0B9FC5BE00470FA
:1003C000FAE77B4A1378DB439B0715D10378002BB0
:1003D00012D0147004F0EEFC51480178002905D0C9
:1003E000047004F0A4FC02F0DFFF44E0057004F0A8
:1003F0009EFC02F0A8FF3EE06E4A1278D2439207BC
:100400000CD10278002A09D06B480178012903D069
:10041000057004F0CFFC2EE00470FAE7674A137809
:10042000DB439B070DD1007800280AD0147004F03C
:10043000C1FC63480178002901D004701BE00570FD
:1004400019E060480078972803D0982801D09928AF
:1004500011D1307801280ED15B4A107800280AD0DB
:10046000401E1070032008705848512101708921E6
:10047000417057480570574A1078401CC0B2107040
:10048000554980230D785549002D06D0FA2813D3FD
:1004900014700878584008700EE0514D2D78002DEA
:1004A00006D04B2808D3147008785840087003E031
:1004B00008784006400E087001F088F8F8BD04F096
:1004C0009FFF00F043F91A4C206A0125284320625F
:1004D00004F000FE04F081FE04F048FE04F0C2FDCA
:1004E00003F0AFF801F064F804F0FCFE3D48A061B1
:1004F0003D48002101703121490277E0A50000202C
:1005000098000020780000207C0000207E00002061
:100510009000002070000020940000208000002047
:100520006C00002000E000E0000001400000FA5AEA
:100530000000064000C00540002006404020034067
:1005400070170000840000202401002043000020D8
:100550006300002046000020A0010020440000208D
:10056000450000204E000020500000200000002028
:100570009E000020A200002032000020A3000020E6
:10058000380000207D000020C30000203300002040
:10059000340000202B0000207F0000207400002089
:1005A0003A0000203B0000203500002037000020EA
:1005B000360000203D0000203E0000203C000020CE
:1005C0006D0000202900002073000020860000201C
:1005D00075000020A40000209C000020C90000201D
:1005E0007700002002C00000390000204989244A19
:1005F000914200D10570234C2078012801D100F0F0
:10060000D9F8214D214E224F0EE002F04BFA04F0B2
:1006100039F92078002802D0012805D102E0FFF73F
:10062000EAFD01E0FFF76AFDF560FFF73FFE38786D
:100630000028ECD0E9E770B5164C6078401CC0B2D9
:100640006070042812D30025657004F01DFB04F0CF
:100650008FFB02F070FF2078401CC0B2207004288D
:1006600004D325700120A07004F09CFB70BDBFF383
:100670004F8F0A490848C860BFF34F8FFEE700005C
:10068000AAAA0000A2000020AA55FA5A00000140C0
:10069000A6000020000000200400FA0500ED00E0A4
:1006A000F8B506460D4617462448B10008180268FA
:1006B000002A01DB0220F8BD002E03D0042E01D851
:1006C000402F01D90420F8BD0068400F042801D054
:1006D0000120F8BD1A48805D002804D0304600F0A3
:1006E000AFF80320F8BD174808180068B84201D2D7
:1006F0000520F8BD701E14498000085800900024A1
:1007000014E0295D641C285D00020843641C295D17
:1007100009040143641C285D00060843641C01466B
:10072000009800F0D7F90098001D0090BC42E8D373
:10073000F9B2304600F092F90020F8BD18C005402B
:10074000040000201001002000010020F8B500F096
:1007500076FD00F0EAFEF7480168102211430160BF
:10076000F54C4021A1608023E360C0252561E0268F
:100770006661F248016043608560C660F0480160D0
:10078000082141608260C1600161EB4DED48403D50
:10079000286002266E611F27FF06322004F01DFC30
:1007A0002F61E948E06240076062E8480660E84877
:1007B0000660F8BDE049002040390861E4490220A4
:1007C00080310860704730B50124E0496007086057
:1007D000FF22E049F9320A62DF4A1369C5122B434E
:1007E000136100228A61DA4980310860DB480470B5
:1007F00030BDD8480021C1604161491E0162FF211E
:10080000F9318161D14980030860D149086070479E
:100810000120C949C0024039886070470120C6499B
:1008200080024039886070470120C3494002403946
:1008300088607047FF20C0490130403988607047A8
:1008400004280DD8BC4A8100283A8918002804D110
:10085000B94840384068C00102D40720400708600A
:10086000704710B5BE480168012211430160BD48C0
:1008700000680007000F052801D004F0C1FD00F05A
:10088000C5F910BD70B5AC4D403D6C680020C0434B
:10089000A860002C0DD0A0000ED5FFF7E2FF00F0FD
:1008A000ACF9E00108D5022004F07EFB00F001FC69
:1008B00070BDFFF7D6FF70BD2868A00F0BD0002CCD
:1008C00004DAFFF7CEFF00F07DF970BD6000FCD5C3
:1008D00000F08DF970BD2002C00E18D0200202D5A4
:1008E00000F0E7FB70BD600202D500F026FC70BD91
:1008F000A00202D500F062FC70BDE002800FFBD0C8
:100900000320C004A8600020FFF79AFF70BD2005F7
:10091000000FFBD0E00501D5FFF78CFFA00501D546
:10092000FFF782FF600501D5FFF778FF2005EDD5C1
:10093000FFF76EFF70BD00208B49401C8842FCD33E
:1009400070471E20401E411CFCD1704700B57A4AFA
:100950000620403A5061FFF7F4FF05205061FFF791
:10096000EAFF506904218843506100BD7C480121A1
:10097000C160002101617B4A7C491160C168C906E0
:10098000FCD501687A4A114001607047F8B5724C95
:1009900020690227B8432061674D403D68684000E8
:1009A00022D502F09FFF04F0B1FA02F001F902F043
:1009B00033F97048002606615E4A1068802188433A
:1009C000106028690921C9068843286163480670B8
:1009D000FFF70FFF0A2004F0FAFAFFF7C7FF686875
:1009E000400002D4FFF73DFFF8BD6348076030BF09
:1009F000FFF737FF594801780029F5D006702169C3
:100A00005E48884307D12069012189048843206119
:100A1000A068012805D05A4914200880FFF796FFE6
:100A2000F8BDFFF793FFF8BD43494039CA6B012376
:100A300083409A43CA637047042805D83E49800022
:100A400028394018002101607047042805D83A4928
:100A5000800028394018090701607047042807D82A
:100A6000354A8000283A801805225207891801600B
:100A700070473149403148600220C860C86880072B
:100A8000FCD488683F490860704700B50A46402A90
:100A90000ED2401E29498000085891084018FFF7DF
:100AA000E8FF9007C10E37480068C840C0B200BDDB
:100AB000002000BD00B510290AD2401E1F4A800048
:100AC000105889004018FFF7D4FF2E48006800BD79
:100AD000002000BD184A4032506091600120D06073
:100AE000D068C007FCD1704730B50B46402B15D2FB
:100AF000401E124980000858990845182846FFF7FB
:100B0000B8FF204804689807C30EFF20984084432C
:100B10001146994021432846FFF7DCFF30BD1029DC
:100B200032D2401E054B80001858890040181146EB
:100B3000D0E7000000E0054040C005400001002073
:100B400010010020100000B00440000080E200E02E
:100B500000E100E0008004402401002003000020A8
:100B60000000064000200640145000000000FA5A21
:100B7000FEFFFF0F00E000E0402003408000040083
:100B8000840000201C00002070470C4A90630B4832
:100B900002214030016001688907FCD4D06B08490C
:100BA00008607047054A9063D163044801214030D2
:100BB00001600168C907FCD17047000040C00540D2
:100BC0001800002010B50020FE4AC0439060FE4986
:100BD0000120086100208860D060FFF731FE012409
:100BE0002046FFF729FF641C042CF9D910BDF648F4
:100BF00001690222114301617047F348016904222F
:100C000011430161EF49D00688607047ED480169E2
:100C10000922D20611430161012149068160704712
:100C20000120E84980068860704710B5E64CA0684E
:100C300001280CD1E54A002000211154401C042851
:100C4000FBD92079012802D8A278002A03D00020FD
:100C5000FFF7F6FD10BDDE4A1154FFF7E5FE2069EF
:100C6000012109040843206100210846FFF7F6FE30
:100C700010BD10B5D44CA068012814D1207881286B
:100C800011D1207901280ED8D149095C0020FFF745
:100C900089FF20690121C903084320610121002047
:100CA000FFF7DCFE10BD0020FFF7CAFD10BDF8B550
:100CB000C64DC54E3069800607D5B0781021012495
:100CC0000027002805D0012819D00020FFF7B8FD23
:100CD000F8BDB7603069084330610127EC553846EC
:100CE000FFF7AAFE7F1C042FF8D9306901210904FF
:100CF0000843306100210846FFF7B0FEF8BDB4603C
:100D000030698843306100242F55002C0CD02046D8
:100D1000FFF79BFEAB480069611EC840C00703D0C7
:100D200000212046FFF79AFE641C022CECD93069A2
:100D3000012109040843306100210846FFF78EFEB7
:100D4000F8BD70B5A04DA9680020FFF72BFFA8687B
:100D5000012806D101242046FFF777FE641C022CEF
:100D6000F9D99C48002101602869032189030843BF
:100D7000286101210020FFF771FE70BD10B5002031
:100D8000FFF75EFD10BD10B50446180612041043AF
:100D900009020843204310BDF8B58F4F3C688A48CC
:100DA0008C4EC0883168884200D23060306800289C
:100DB0001DD00025E378A27861782078FFF7E3FF63
:100DC0000146A800FFF7EEFE241D6D1CEDB2102DAC
:100DD000F0D3306840280FD340210020FFF73EFEBB
:100DE000386840303860306840383060F8BD0021E5
:100DF0000846FFF733FEF8BD3068C1B20020FFF7A8
:100E00002DFE00203060F8BDF8B5002400206E49AA
:100E1000724BCA780D798F780C26014671435E5C5F
:100E2000B24211D1C9184E78B5420DD18E78B74271
:100E30000AD10C225043C018828866480260664876
:100E400089680160012402E0401C1028E4D3002CD2
:100E500008D05D4908690122D20310430861FFF7F9
:100E60009BFFF8BD0020FFF7EBFCF8BD10B556481E
:100E70000169202399430161016940221143016105
:100E80008178002902D002691A4302610173016965
:100E9000012212041143016100210846FFF7DEFD23
:100EA00010BD70B5484D28784406640E000602D582
:100EB0000020FFF7C5FC002C05D0022C0FD000202D
:100EC000FFF7BEFC70BDA8780128FBD12869444912
:100ED0000843286100210846FFF7C0FD70BDA878CF
:100EE0000028FBD128794006400E411E0129F5D883
:100EF000A9680129F2D1354A1154FFF7A1FC2869EC
:100F0000012109040843286100210846FFF7A6FDD6
:100F100070BD70B52C4D28784406640E000602D5CD
:100F20000020FFF78DFC002C1AD0022C17D1A878D6
:100F3000002814D128794006400E0022234BE103FB
:100F400000281ED002280AD8AC68012C07D11A54F8
:100F500028690843286100210846FFF77FFD70BD1E
:100F6000A8780128FBD12869802188432861286955
:100F70001B4980390843286100210846FFF76EFDB0
:100F800070BD28698006FBD51A702869084328615E
:100F900000210846FFF762FD70BD70B50A4D287844
:100FA0004406640EC00901D1FFF74AFC0126F6038E
:100FB000002C26D0012C38D0022C21D128794006D3
:100FC000400E0FE000C00540240100200400002076
:100FD00014000020100000200C000020905600009B
:100FE0008001010002280BD8A349095C0020FFF70B
:100FF000D9FD28693043286102210020FFF72EFD2A
:1010000070BD2869000604D502210020FFF7CAFD43
:1010100003E000210846FFF7C5FD28693043286139
:1010200002210020FFF71AFD70BDA8680128FBD13E
:1010300068790028F8D128790128F5D800210846D8
:10104000FFF7B0FD28693043286102210020FFF737
:1010500005FD70BD10B589484078030004F014FA0E
:101060000C070A250D25101316191C1F2225FFF742
:1010700094FF10BDFFF74DFF10BDFFF712FF10BD2D
:10108000FFF7F4FE10BDFFF7BFFE10BDFFF776FEC1
:1010900010BDFFF756FE10BDFFF709FE10BDFFF7AC
:1010A000E8FD10BDFFF7C1FD10BD0020FFF7C8FB34
:1010B00010BD7CB53320724CC004A0600020FFF747
:1010C000C4FC6068400331D46C4C20690321C9031F
:1010D000884320610020FFF758FD6A4D2868019081
:1010E0000420FFF752FD286800900198C0B22070DC
:1010F0000199090A61700199090CA1700199090E01
:10110000E170009921710099090A61710099090C37
:10111000E18060210840002802D0202803D008E0A8
:10112000FFF798FF7CBD00F0CEF97CBD0120800464
:10113000A0600020FFF784FB7CBD70B50120504EFD
:101140008005B060504DA87C022815D10020A874FD
:1011500068694E4988420DD1A8694D49884209D134
:101160000024A0000021FFF71DFD641C402CF8D3D3
:10117000FEF7C0FF0420A874404C2069454D40068E
:101180000CD52069402188432061207BF06000203D
:10119000FFF756FB2069A843206170BDE088002856
:1011A00008D02069C00305D4FFF7F6FD2069A843E5
:1011B000206170BD0020FFF743FB70BDF8B5012131
:1011C0002F4849058160304DA87C2E4E012819D04A
:1011D000686D80050DD5686D09138843686500202A
:1011E000FFF7D3FC30682870686D0121490308437C
:1011F0006865224C2069000412D400210846FFF7DC
:101200002DFC16E00024A0000746FFF7BEFC306866
:1012100079194861641C102CF5D30220A874E8E702
:1012200017484168C90104D481690122D2061143DB
:10123000816120690121C90388432061F8BD002034
:101240000D4A00211154401C0528FBD30020124AEE
:101250001154401C0428FBD3084801704170817070
:10126000C17001714171C180816001730169012206
:101270005204114301617047040000202401002042
:1012800000C005401800002038010020AA42895AF9
:10129000FF7162CC000001001400002010B5A74AC5
:1012A000107821281BD1A649486D01231B03184340
:1012B00048651079012812D89078002804D14B6D28
:1012C0000324A402A3434B65487410690121090457
:1012D0000843106100210846FFF7C0FB10BD002045
:1012E000FFF7AEFA10BD10B594480178212914D14A
:1012F0000169012212041143016191494A6D0123E0
:10130000DB021A434A650279012A06D8C0780874BC
:1013100000210846FFF7A2FB10BD0020FFF790FA5E
:1013200010BD10B586490120887400210846FFF7DA
:1013300095FB10BD10B581480169012212041143CB
:1013400001617F48416DD21111434165002108467A
:10135000FFF784FB10BD10B578480178212907D12B
:101360000179002904D1C078022805D0032806D0CD
:101370000020FFF765FA10BDFFF7DCFF10BDFFF797
:10138000D0FF10BD10B56D4C2078A12816D16C4847
:10139000416DC90401D401214174217901290DD87D
:1013A000417C0020FFF7FEFB20690121C9030843AF
:1013B000206101210020FFF751FB10BD0020FFF745
:1013C0003FFA10BD10B55D4C2078A12808D15C48CB
:1013D000416D0122D202114341652179002903D0D8
:1013E0000020FFF72DFA10BD017C0020FFF7DAFB8B
:1013F00020690121C9030843206101210020FFF772
:101400002DFB10BD10B54F49002008604B48016905
:101410000122D2031143016105210020FFF71EFBC9
:1014200010BD10B500210846FFF718FB10BD10B520
:10143000434801780020FFF7B5FB404801690122CD
:10144000D2031143016101210020FFF707FB10BD0A
:1014500010B53C4900200860384801690122D203D8
:101460001143016108210020FFF7F8FA10BD10B503
:1014700032480178A1291FD1816801291CD1017945
:10148000C078002902D0012910D015E0012804D02D
:10149000022805D0032806D00EE0FFF7D9FF10BDC3
:1014A000FFF7C5FF10BDFFF7BCFF10BD2449497C05
:1014B000012901D1012803D00020FFF7C1F910BD97
:1014C000FFF7A0FF10BD10B51C484078030003F0E3
:1014D000DBFF0C19070A0D19191919191013161920
:1014E000FFF7C5FF10BDFFF76DFF10BDFFF74AFF07
:1014F00010BDFFF730FF10BDFFF7F5FE10BDFFF781
:10150000CDFE10BD0020FFF79BF910BD10B50D49B1
:1015100000200860094801690122D20311430161DA
:1015200005210020FFF79AFA10BD05487D210174BE
:10153000012141740021817441657047240100201C
:101540003801002010000020F8B51420F74EF84DA7
:101550000127401EC0B200243168490600D501248D
:101560003168090601D502210C43E97AA14204D071
:10157000022003F060FDEC7214200028E9D1E87A23
:10158000EC49C3070022002B05D00F70FF21EA4B66
:101590009131196000E00A70E54920398F748307A2
:1015A00000D58A748B7C002B00D08A732873F8BD19
:1015B000DF490020233148700320133908700220CE
:1015C000891E0870DD4901200870BDE770B5002153
:1015D000D648026801235206002A00DA0121006879
:1015E000000601D502200143D148C27A8A4203D0C5
:1015F0000A224273C17270BD417B0029FBD0491E93
:10160000C9B241730029F6D1047B1146614000291B
:10161000F1D00273CD070024C648002D19D0D107A0
:101620000DD0037003F083FB01F0F1FDFFF7C2F86A
:10163000C3480470FF20C0499130086070BD047039
:1016400003F075FB01F0E2FDBE480470FFF77EF881
:1016500070BD8907FCD5B64920398B74920700D537
:101660008C7400780128F3D1887C002802D001F026
:10167000CCFE70BD01F0FAFE70BD30B5AF48AC4B8A
:101680001038203B9A79815C58784140D970002409
:10169000002915D01979022200290BD09D788542A6
:1016A0000BD1491EC8B21871002802D19C700120CC
:1016B000187030BD1A71987030BD1A71987030BDB5
:1016C0001C71521CD0B298711028F8D39C7130BD97
:1016D00070477047F8B5964B002418465A7A203860
:1016E000C67A017B9446002A1BD0002E19D1457A78
:1016F000AF2D0BD03A2D09D03B2D07D03C2D05D076
:101700003D2D03D0DA793C2A01D34472F8BD521C36
:10171000D2B28A4F1037BD54521CD2B2DA71B954CA
:10172000447262460125002A03D0002E01D001290F
:101730004AD00129EAD1417A024608469C2960D064
:10174000814EE328317865D0F2286AD0784A7F4EFE
:10175000203A577E3278D32874D075492039E6284C
:101760006CD0E8286BD0E9286AD0EA2869D078499B
:10177000EB280F787749097875D0EC2874D0ED28DC
:1017800073D0EE2872D06A4A203AD0286FD0D82879
:101790006ED0F1286DD07049D72809786AD0D62844
:1017A00069D06E49D42809787DD0D5287CD093287B
:1017B0007BD094287AD0952879D09628A6D103207A
:1017C0001872FFF786FFF8BD417A932906D0942955
:1017D00008D095290AD096290DD010E01C72FFF789
:1017E00078FF0CE01D72FFF774FF08E00221197208
:1017F000FFF76FFF03E003211972FFF76AFF4472DE
:10180000F8BD547256480178002901D00470F8BD23
:101810000570F8BD5472002901D03470F8BD3570E0
:10182000F8BD54724F490878401CC0B208700928AE
:1018300000D30C7003F095F8F8BD03E043E04FE0EF
:1018400060E097E03A4820384472312040024389F2
:101850004548834210D136482038447601F096FA44
:1018600001F0EFFEE8E799E00BE11FE133E147E12A
:10187000B1E1B9E1BCE1C6E12D482038002F01D02B
:101880004476D9E70029D7D1521CD0B23070112844
:1018900000D3347031204002C27830490A70017997
:1018A0002D48017004E0B9E1C3E1CDE1D0E1D3E11D
:1018B00001F0A8FE2D4805702D48047002F02EFF9F
:1018C00003F035FAB8E74C723120400242892648CD
:1018D0008242B1D0002F01D04C76ADE74D76ABE718
:1018E0004C72002A09D0012A09D0347020480470B3
:1018F00002F014FF03F01BFA9EE73570F6E719209B
:101900003070F3E74C72022A0AD0042A0BD002206E
:1019100030701748047002F001FF03F008FA8BE7FB
:1019200004203070F5E703203070F2E700A0044097
:1019300040000020A200002094000020A001002010
:101940007400002078000020C4000020AB000020BC
:10195000BE000020BD000020BA000020B80000201A
:10196000BF000020A7000020AAAA0000BC000020A1
:10197000C00000204C720D2A0AD00B2A0BD00D207B
:101980003070F948047002F0C9FE03F0D0F953E753
:101990000B203070F5E70C203070F2E7F34844720A
:1019A000112A02D01120307066E0F148002F15D0C6
:1019B000047001291DD0022921D0032926D0042931
:1019C0002BD0052930D0062935D007293AD008294F
:1019D0003FD0092944D0002948D04DE00570E548A2
:1019E00004800020E4490C54401CC0B21128FAD3F2
:1019F00022E71822E049E14801F00BFA3CE0DF4819
:101A00001822DD49203001F004FA35E0C520182203
:101A1000D949C00101F0FDF92EE0D8481822D64975
:101A2000603001F0F6F927E0D4481822D24980301E
:101A300001F0EFF920E0D1481822CF49A03001F0A1
:101A4000E8F919E063201822CB49000201F0E1F91E
:101A500012E0CA481822C849E03001F0DAF90BE078
:101A60001822C549C64801F0D4F905E0C448182237
:101A7000C149203001F0CDF902F050FE03F057F9D2
:101A8000DAE6BA484472082A0AD0092A0BD008209C
:101A90003070B548047002F041FE03F048F9CBE61F
:101AA00009203070F5E70A203070F2E7AF48447241
:101AB0000E2A0AD00F2A0BD00E203070AA480470CC
:101AC00002F02CFE03F033F9B6E60F203070F5E794
:101AD00010203070F2E7A5484472052A0AD0072A80
:101AE0000BD005203070A048047002F017FE03F000
:101AF0001EF9A1E607203070F5E706203070F2E706
:101B00005472A04800781328BAD19948002F1BD0EE
:101B10000470012922D0022926D003292BD00429C0
:101B200030D0052935D006293AD007293FD00829D9
:101B300044D0092949D00029A2D1914818228E49C0
:101B4000203001F066F977E603F04AF900208A496F
:101B50000C54401CC0B21128FAD36DE618228649F5
:101B6000864801F056F967E68448182282492030F9
:101B700001F04FF960E6C52018227F49C00101F04D
:101B800048F959E67D4818227B49603001F041F957
:101B900052E67A4818227849803001F03AF94BE64B
:101BA000774818227449603801F033F944E663201D
:101BB00018227149000201F02CF93DE67048182204
:101BC0006D49203801F025F936E618226A496C483B
:101BD00001F01FF930E6547263480178002901D002
:101BE000047029E6057027E654725573DC7123E60C
:101BF000547265480129A6D9491E017063480570D1
:101C000003F095F818E654725F4805299BD2491CE9
:101C100001705E48057003F08AF80DE654725C4866
:101C2000052990D2491C017001F0ECFC03F07FF80B
:101C300002E654725648012985D9491E017001F007
:101C4000E1FC03F074F8F7E51C72FFF742FDF3E5E1
:101C50001D72FFF73EFDEFE502201872FFF739FD18
:101C6000EAE5F8B5414A0024517A10461E25007B6A
:101C7000D2290CD0474B0127474ED27C1B7897299D
:101C80000CD098292DD099294FD00120D4E50028D7
:101C900001D0D57400E0D4740020CDE5012B1ED115
:101CA0003249002818D03D4807701F200876CD74AF
:101CB0003B490320087051203070812070703948F2
:101CC000077039480470394804703948077003F0C8
:101CD0002EF83848047002E0002A00D0CC740020AE
:101CE000AAE5012B1FD12149002819D02B480770E4
:101CF0001F200876CD742A490320087051203070C7
:101D000082207070274807702748047027480470A5
:101D100027480221017003F00AF82648047002E007
:101D2000002A00D0CC74002086E5012B47D10F4952
:101D3000002841D0194807701F200876CD74184933
:101D40000320087051203070832070701548077090
:101D5000154804701548047015480421017002F0FC
:101D6000E6FF144804702AE0C00000202000002094
:101D7000BE000020CE000020DA02002040620000F9
:101D800040630000A6000020BA000020BC00002034
:101D9000B8000020A200002086000020C300002020
:101DA0007300002075000020780000207C000020D7
:101DB0007F00002074000020002A00D0CC74002096
:101DC0003AE510B50020F849F64B497AF74A05E0A4
:101DD00044001C5D8C4205D0401CC0B21488A04257
:101DE000F6D3FF2010BDF0B5EF4CF14D207BF14E46
:101DF000F14F002852D0FFF7E4FFFF2817D0A17C55
:101E0000002915D0E17A00293CD0E17E002934D0A8
:101E1000EA494200511849786172E34AC1083B32ED
:101E20004407E748640F535C005D03435354F0BD1F
:101E3000E17A002916D0E17D00290ED041008919F0
:101E400049786172D84AC1083B324407DC48640FC4
:101E5000535C005D03435354F0BD41004919497878
:101E60006172EFE7E17D002903D04000305C6072D1
:101E7000F0BD4000285C6072F0BD4100C91949788E
:101E80006172CAE7E17E002904D04100CB48405C82
:101E90006072F0BD4000385C6072F0BDFFF791FFEA
:101EA000FF28FAD0C04AC1088C463B32515C430738
:101EB000C34A5B0FD25C114222D0A37C002B0DD011
:101EC000E37E002B17D04300BC481818407860729E
:101ED000B5483B30914362468154F0BDE37D002B11
:101EE00004D04000801940786072F1E7400040194A
:101EF00040786072ECE74000C01940786072E7E714
:101F0000A17C002907D0E17E00290FD04100AB4819
:101F1000405C6072F0BDE17D002903D04000305C80
:101F20006072F0BD4000285C6072F0BD4000385C1B
:101F30006072F0BDF8B5A34800260680A24801787B
:101F4000A248002902D0A249016002E0FF2191319C
:101F50000160954C607A002865D0A17C2746433704
:101F6000002925D0A32808D0A22809D0A7280AD064
:101F7000A6280BD046280CD01AE0A220607217E0E9
:101F8000A320607214E0A620607211E0A7206072A6
:101F90000EE0212060728448217B433000780029C4
:101FA00003D00A210843387002E0F5210840387058
:101FB000FFF719FF2046617A1E240125EF291CD066
:101FC000AB2937D0F02953D00246AC2964D0E4299C
:101FD0007FD0E72970D0E5296FD0AD296ED0DC29FC
:101FE0006DD0DD296CD0DE296BD0DF296AD0907FDF
:101FF000002801D04C297AD034E1017B002913D08C
:10200000C17A00290FD0017D29430175C943890791
:1020100009D10546407E002804D06E7600F0B6FE59
:1020200001F00FFBEC7407E4017D490849000175DC
:10203000C67417E4017B002914D0C17A0029F8D0B6
:10204000017D022211430175C9438907F1D105467B
:10205000407E002804D06E7600F098FE01F0F1FA80
:10206000EC740EE4017D890889000175C67408E4EA
:10207000017B00290AD0C17A0029F2D0417D294391
:102080004175C9438907ECD1C4741BE4417D4908FB
:1020900049004175C67415E4107B002813D0D07A2E
:1020A0000028F2D0507D022108435075C0438007BC
:1020B000EBD1D47406E40CE020E034E04BE063E0C4
:1020C00090E0A4E0B7E0507D800880005075D674A1
:1020D00003E4107B00280BD0D07A0028F8D0907E43
:1020E00028439076C0438007F2D1D47404E4B7E06B
:1020F000907E400840009076D67410E4107B002853
:102100000BD0D07A0028F8D0907E02210843907638
:10211000C0438007F1D1D47439E4907E80088000F8
:102120009076D67433E4107B00280ED0D07A002845
:10213000F2D0907D28439075C0438007ECD12548AC
:1021400000780128E8D1D47421E4907D4008400053
:102150009075D6741BE4107B00280FD0D07A00282D
:10216000DAD0907D022108439075C0438007D3D117
:10217000184800780128CFD1D47408E4907D8008F5
:1021800080009075D67433E4107B002824D0D07A78
:102190000028F8D0507F28435077C0438007F2D101
:1021A000D47425E47C58000020000020D6000000F4
:1021B000EC57000034580000C45800000C590000CF
:1021C000A4590000A000002074000020940000200A
:1021D00070170000A2000020507F40084000507798
:1021E000D67405E4107B00280BD0D07A0028CAD022
:1021F000507F022108435077C0438007C3D1D47475
:102200003EE4507F800880005077D67438E4107B1D
:1022100000280AD0D07A0028F2D0107F2843107707
:10222000C0438007ECD1D4742AE4107F40084000FA
:102230001077D67424E4107B00280BD0D07A0028C5
:10224000DED0107F022108431077C0438007D7D12A
:10225000D47415E4107F800880001077D6740FE4E2
:1022600049205072FD48FD4CC07A2034002811D11D
:10227000FA4A517A4C2905D1137B002B01D06570A5
:1022800000E06670492905D1117B002901D0A570B5
:1022900000E0A670A178627811431DD1EF4A517A0F
:1022A0008C464C290BD1D17F03460B4307D04920E4
:1022B0005072002901D0D6770EE0D5770CE0614648
:1022C000492909D12178084306D04C2050720029B1
:1022D00001D0267000E02570FFF7C3FC00288FD0E6
:1022E000DE48407AF62818D1DC48017B01292AD043
:1022F000C17C00292AD0C674022002F09CFE4C202A
:10230000B870D6488572E570D5480078002820D08E
:1023100000F0C8FDD1494C204872D048C674FFF780
:10232000D9F9CE48427A002A84D0AE2A18D09A2A07
:1023300020D0E12A3AD0D12A4CD0F721862A53D096
:10234000872A5FD066E00A21C17406E4CD2141727C
:10235000E3E7C249082243310120FEF7A1F9D9E79A
:10236000017B0129F1D1017C012901D0057408E428
:10237000067406E44672007B0128F8D1B849087853
:10238000002809D00128F2D10E7002F0D0FC00F034
:102390003DFFFEF7DBF909E40D7002F0C8FC00F028
:1023A00036FFB0480670FEF705FA06E44672AC49FF
:1023B00009780129F9D1007BAB4C012803D02670A4
:1023C000AA48067006E400F08DFF0A2002F033FEF2
:1023D000257006E4017B0129FBD1817B012901D015
:1023E000857304E486730DE4027B012A05D03A78F4
:1023F0000A403A702B2141720CE0397808221143CF
:102400003970F7E7027B012A08D03A780A403A701F
:1024100008214172817B012905D00BE0397808221F
:1024200011433970F4E7417AA329DCD0A729DAD027
:102430006529D8D0417AF72916D0F82908D3C27B6C
:102440008B4B002A1AD04907090FC91849784172E5
:10245000417AAF2917D0F32924D0F42974D0854AC2
:102460001278132A71D017E1017B0129BBD1C17BFE
:10247000002901D0C67309E4C57307E44907090FB1
:10248000595C4172E4E74571C672017B012900D1B4
:10249000C572807C0028EED0E570FE710029EAD07C
:1024A000FD711DE4017B0129FBD1807C00284DD00A
:1024B000E5706A484330C571694F3878002827D0E5
:1024C00000F0F0FC0A2002F0B6FDE570634E00203B
:1024D0004336F0713878002821D000F0E3FC0A2060
:1024E00002F0A9FDE570F571387800281ED000F0E3
:1024F000D9FC0A2002F09FFDE5700020F0713878C9
:1025000000281AD000F0CEFC0A2002F094FD0BE463
:102510005249082243310120FEF7C2F8D2E74F4961
:10252000082243310120FEF7BBF8D8E74B490822C7
:1025300043310120FEF7B4F8DBE748490822433174
:102540000120FEF7ADF8DFE72AE0A1E00120E0700E
:10255000082038700B20B870414D2878002811D021
:1025600000F0A0FC0A2002F066FD0120E0703E7041
:10257000BE70287800280CD000F094FC0A2002F0ED
:102580005AFD1DE43549082243310120FEF788F841
:10259000E8E73249082243310120FEF781F8EDE7F0
:1025A000017B0129EDD1807C00283BD00120E07027
:1025B000BE70F8712A4D287800281ED000F072FCF9
:1025C0000A2002F038FD0121E1702C20B870F97169
:1025D0002878002818D000F065FC0A2002F02BFDB6
:1025E0000120E070BE70FE712878002813D000F042
:1025F00059FC0A2002F01FFD15E518490822433155
:102600000120FEF74DF8DBE7144908224331012091
:10261000FEF746F8E1E71149082243310120FEF7B1
:102620003FF8E6E7E570082038700620B8700C48DF
:102630000078002820D000F035FC0A2002F0FBFCD6
:10264000E5703E70BE700648007800281AD000F091
:1026500029FC0A2002F0EFFCE5E400002000002045
:10266000A20000207A000020C50000208100002088
:1026700054590000A60000200822F9490120FEF765
:102680000FF8DAE70822F6490120FEF709F8E0E73B
:10269000F44A1278012AAFD0F14A133AB02910D384
:1026A000032313702571007B012802D056709670A9
:1026B000B9E4B0394800EC49085A5070000A9070EB
:1026C000B1E4A82919D3657102231370027BE44891
:1026D0001538012A09D0E54A43785118C0390A7ED5
:1026E000FF214A40134043709DE4E04B4278591863
:1026F000C039097E0A43427095E4A02915D3E570DC
:10270000007B012809D04A07D849520F895C3878E4
:10271000FF2251400840387085E44A07D349520FE0
:102720003878895C084338707DE4027B012A0DD03B
:10273000827A002A4CD0B81883788B422ED1C84BAD
:102740008670433BE570521E9A7241E0837A052BF6
:1027500011D2002B09D0002205E0BE18B6788E42B7
:10276000A6D0521C92B29A42F7D3FA1891705B1C11
:102770008372E57057E4BE480078012898D0782924
:1027800096D2A571BB480570CA0810184B07B74907
:102790005B0F4278C95C0A43427044E4002015E0B4
:1027A0003B189B788B4205D00EE03918CB788B70A4
:1027B000401C80B29042F8D338188670E570A84863
:1027C0004338521E82722EE4401C80B29042E7D3FE
:1027D000782989D2A6480078012885D0A571A54816
:1027E0000570CA0810184B07A0495B0FC95C4278F6
:1027F000FF2359400A40427015E4F0B59849012082
:10280000233988729C489D4F067808462038017A03
:10281000007B4900CD199A4C9A4A0D2E03D09A4B51
:102820000F2E0DD045E0795C6B78C9000919C95CA1
:10283000002802D0FE205054F0BDFD205054F0BDC1
:10284000002836D0785C6978884D695C8F4E355C9D
:102850000D4335541D5C0D431D5401203746391876
:102860002039CD7F3E5C3543CD771121091ACE1832
:10287000203E5D5CF67F35435D54401CC0B211289C
:10288000EDD30021FF258148435C7F48405C034332
:102890000020CE003619DF0701D0375CD5555B0824
:1028A000401CC0B20628F6D3491CC9B21129EAD38C
:1028B000F0BD0E2E02D0112E0DD03FE0795C6B786A
:1028C000C9000919C95C002802D000205054F0BD8D
:1028D00001205054F0BD002830D0785C6978634DF9
:1028E0006D5C6A490E5C2E430E541E5C2E431E54D2
:1028F000674F3E5C2E433E54664E375C2F43375441
:1029000000206249634D0B5C5F492D5C095C0B4301
:102910005F49095C29430B430021C5002D19DE07DF
:1029200002D06F5CFF26D6555B08491CC9B2062948
:10293000F5D3401CC0B21128E3D3F0BD132E11D142
:1029400000280FD0474800780128F6D1785C6978D4
:10295000514C0125235C2A468A40534023544F485A
:102960000570F0BD102E1ED100281CD0785C474D9C
:102970003F21295419540021FF254448445C585CE8
:10298000044300203E4FCE00F619E70701D0375C24
:10299000D5556408401CC0B20628F6D3491CC9B2FC
:1029A0001129EAD3F0BD122EFCD10028FAD0795CAF
:1029B0006878FE23CD002D192E5C9355002909D08F
:1029C0004E1EF6003619375CD355052802D236184C
:1029D00076789355002803D02E18203EF67F935525
:1029E000052802D22D186D7853551029DAD2491CCA
:1029F000C90009190C5C13550028D3D008182038D9
:102A0000C07F1354F0BD70B5154C1A49433CA279F0
:102A10006078103988540025E571E078C00712D03D
:102A2000A079E179C0004018207225736078C00752
:102A300001D001202073FFF7E0FE1948217A405CA5
:102A40006072FFF777FA607840086070E0784008BD
:102A5000E070E079401CC0B2E0710828DDD370BDA1
:102A600063000020BE00002064590000A45900004B
:102A7000A2000020A0010020A6000020975A00001C
:102A8000975B0000000400207D0200206C02002003
:102A90008E0200209F020020DA020020B6000020F3
:102AA0004457000010B5B24C2078002805D0FFF73D
:102AB000AAFFFEF70DFE0020207010BDAD48416852
:102AC000090C09044160AC4841684160704700B599
:102AD000A7488179A7480B0002F0D6FC10090E1315
:102AE000181D22272C31373D43494F555B0D416A54
:102AF00001221143416200BD416A02221143416239
:102B000000BD416A04221143416200BD416A0822AE
:102B10001143416200BD416A10221143416200BD70
:102B2000416A20221143416200BD416A40221143A3
:102B3000416200BD416A80221143416200BD416A89
:102B4000FF2201321143416200BD416A012252025B
:102B50001143416200BD416A012292021143416268
:102B600000BD416A0122D2021143416200BD416AA7
:102B7000012212031143416200BD416A0122520346
:102B80001143416200BD416A012292031143416237
:102B900000BD416A0122D2031143416200BD754864
:102BA0000168090C090401607348016801607047FD
:102BB00070484168714A114341606F484168416003
:102BC000704710B50024FFF7F3FFFFF7E8FFFFF7AA
:102BD0007EFF0A2002F01AFA69480168090700D549
:102BE00001240168C90601D502210C430168890648
:102BF00001D504210C430168490601D508210C4385
:102C00000168090601D510210C430068C00501D5F3
:102C100020200443204610BD56480168574A1143FE
:102C20000160554801680160704700B550488179DE
:102C300050480B0002F028FC10090E13181D222723
:102C40002C31373D43494F555B0D416801221143FB
:102C5000416000BD416802221143416000BD4168EE
:102C600004221143416000BD4168082211434160C4
:102C700000BD416810221143416000BD416820221F
:102C80001143416000BD416840221143416000BDD5
:102C9000416880221143416000BD4168FF2201323A
:102CA0001143416000BD416801225202114341605D
:102CB00000BD4168012292021143416000BD41689C
:102CC0000122D2021143416000BD4168012212037A
:102CD0001143416000BD416801225203114341602C
:102CE00000BD4168012292031143416000BD41686B
:102CF0000122D2031143416000BDF0B51C4A2149B5
:102D0000537A5807400F095CD8081F4E157B5C00AA
:102D10001746A3193B37002D0AD0154633352D5CD5
:102D20000D4202D0557C002D1BD0305D5072F0BD9D
:102D30000F4D3B352D5C0D4208D00D4CFF263B342A
:102D400071400D40255458785072F0BDD37A012B54
:102D500004D1074B33331D5C0D431D54305D50725D
:102D6000F0BD3C5C0C433C5458785072F0BD000000
:102D7000200000200040044000A00440FFFF0000AD
:102D800000800440A4590000EC570000F8B5002072
:102D90003449002642008E52401C80B28A28F9D362
:102DA000022002F048F9002403272F4D7F03002062
:102DB000A1010A18D21912782A54401C80B2402866
:102DC000F7D3312040020818274A402102F03DFA8B
:102DD00001281CD0641CA4B2082CE8D32449234841
:102DE000C86000202E54401C80B24028FAD3002432
:102DF0001925AD02A00140191B4A402102F025FA15
:102E0000012805D0641CA4B2042CF3D3F8BDFEE75E
:102E1000FEE770B50B4614460021134A03E05D5CE3
:102E20005554491C89B2A142F9D30F4A214602F0F8
:102E30000CFA012800D1FEE770BD70B50B461446B0
:102E40000021094A03E05D5C5554491C89B2A14246
:102E5000F9D3054A214602F0F8F9012800D1FEE72E
:102E600070BD0000EC0200208A040020AA55FA5A26
:102E700000000140FE4964200880FE4900200870DF
:102E8000FD4801210172E121C90081627047F949C1
:102E900000200870F8490120C871FF20F4492D3046
:102EA00008807047F0B5F54CF34B2678F4485D7810
:102EB000022700220121002E2AD0002D28D02270C6
:102EC000446A3C43446209209871EE4CA120208062
:102ED0000020ED4C255C401CEA4C4600A553C0B2D6
:102EE0000828F6D3E94DE868C006FCD42868C02459
:102EF0002043286028680006800F0328FAD0E148A4
:102F00000088E861D9611A625A70C8209870B2E0EE
:102F1000DF4C2678002E2AD0002D28D02270446A5B
:102F20003C43446210209871D64CA220208001209E
:102F3000D84C4600255CD34CA553401CC0B2102889
:102F4000F6D3D24DE868C006FCD42868C0242043DC
:102F5000286028680006800F0328FAD0C948008836
:102F6000E861D9611A625A70C820987083E0CA4C2F
:102F70002678002E23D0002D21D02270446A3C43B5
:102F8000446203209871BF48A3240480C34D6E7827
:102F90008680AD784580BD48C568ED06FCD40568DF
:102FA000C0263543056005682D06AD0F032DFAD008
:102FB000C461D9611A625A70C82098705BE0B84C3D
:102FC0002678002E29D0002D27D02270446A3C4359
:102FD00044629F71AB4CA42020800120B14C46007C
:102FE000255CA84CA553401CC0B20228F6D3A74DBF
:102FF000E868C006FCD42868C024204328602868FC
:103000000006800F0328FAD09E480088E861D96145
:103010001A625A70C82098702DE05C79002C2AD072
:10302000002D28D05A71446A3C43446203209871B1
:10303000944CA620208000208F4C1634255C401C28
:10304000904C4600A553C0B20228F5D38F4DE868D6
:10305000C006FCD42868C0242043286028680006E5
:10306000800F0328FAD087480088E861D9611A6286
:103070005A70C82098701878002814D081484030C1
:1030800004884088B12C02D11D6A022D05D07D4DE7
:103090004035AE88B62C07D00DE01A701A62410791
:1030A0008148490F0170F0BD5A2804D1012E02D188
:1030B0001D6A032D02D0B62C05D00BE01A701A62DF
:1030C00099745974F0BD5A2804D1022E02D11D6A98
:1030D000032D02D0B62C06D00CE01A701A62032021
:1030E00098745974F0BD5A2804D1042E02D11D6A77
:1030F000032D02D0B62C05D00BE01A701A629F7413
:103100005974F0BD5A2804D1062E02D11D6A032D30
:1031100002D0B62C05D00BE01A701A62FFF7B7FE8A
:10312000F0BD5A2804D1072E02D11D6A032D02D00A
:10313000B62C04D00AE01A701A621974F0BD5A282D
:1031400004D10A2E02D11D6A032D03D0574DB62C8F
:1031500007D00DE01A701A62DA711A8354480270AF
:10316000F0BD512804D1772E02D11F6A032F02D05F
:10317000B62C09D00FE04C4802701A70DA701A624F
:10318000FFF778FE2A70F0BD512804D1762E02D1C7
:103190001F6A032F02D0B62C11D017E01A701A62E2
:1031A0001A725A739A621973314802803148027058
:1031B0004048027019712A703F485862F0BD51288A
:1031C00004D1782E02D11F6A032F02D0B62C07D06B
:1031D0000DE01A701A62FF20913058621A71F0BD2A
:1031E000512804D1792E02D1186A032805D0186A13
:1031F0000328F4D91A621A70F0BD1A7059732F4857
:1032000002701B4802801A622A70F0BD704730B508
:103210001B48416A02221143416217490320887109
:10322000184AA620108051200B4616331870C87B10
:10323000012804D0022805D0042806D007E0812008
:10324000587004E08220587001E0832058700020FC
:103250001C5C401C45005453C0B20228F8D30B48F4
:10326000C368DB06FCD40368C0242343036027E063
:10327000CE000020B300002070000020430000209A
:1032800000600440EC0100206300002000C0014009
:1032900046000020A0010020440000205000002033
:1032A000450000204E00002038010020C30000200F
:1032B000C20000203300002070170000B40000207E
:1032C00003681B069B0F032BD1D01288C26101201B
:1032D000C86100220A624A70C8238B7088720A7320
:1032E000C87230BD30B5C148416A02221143416203
:1032F000BF4A03209071BF49A62008805120134681
:10330000163318706120587000201C5C401C45006A
:103310004C53C0B20228F8D3B748C368DB06FCD4CC
:103320000368C0242343036003681B069B0F032B21
:10333000FAD00988C1610120D0610020106250706C
:10334000C820907030BD30B5A848416A02221143B0
:103350004162A74A03209071A649A6200880512007
:103360001346163318706520587000201C5C401CF2
:1033700045004C53C0B20228F8D39F48C368DB060F
:10338000FCD40368C0242343036003681B069B0F1F
:10339000032BFAD00988C1610120D061002010629E
:1033A0005070C820907030BD30B59048416A0222FC
:1033B000114341628E4A032090718E49A6200880F5
:1033C00051201346163318706820587000201C5C7A
:1033D000401C45004C53C0B20228F8D38648C3684D
:1033E000DB06FCD40368C0242343036003681B0688
:1033F0009B0F032BFAD00988C1610120D061002006
:1034000010625070C820907030BD30B57748416A66
:10341000022211434162764A032090717549A62029
:1034200008805120134616331870742058700020FD
:103430001C5C401C45004C53C0B20228F8D36E48B7
:10344000C368DB06FCD40368C0242343036003681D
:103450001B069B0F032BFAD00988C1610120D061A4
:10346000002010625070C820907030BD30B55F48A9
:10347000416A0222114341625D4A032090715D4915
:10348000A6200880512013461633187075205870F6
:1034900000201C5C401C45004C53C0B20228F8D3ED
:1034A0005548C368DB06FCD40368C024234303608B
:1034B00003681B069B0F032BFAD00988C16101200A
:1034C000D061002010625070C820907030BD30B5BF
:1034D0004648416A022211434162454A03209071E5
:1034E0004449A620088051201346163318707020D6
:1034F000587000201C5C401C45004C53C0B2022890
:10350000F8D33D48C368DB06FCD40368C0242343DA
:10351000036003681B069B0F032BFAD00988C16167
:103520000120D061002010625070C82191701421D8
:103530009182107230BD2E498878002815D0401E27
:10354000C0B288704A7810430FD1012048702748D4
:10355000816A02221143816227480169082291434E
:10356000016101690422114301617047F0B51F4FE9
:1035700038680124C007022504261D491E4A002878
:1035800010D0506940070CD5D369086A471C0F62F8
:10359000184F400040373B520C708D739069304398
:1035A0009061F0BD50694007FBD58B79C86998429E
:1035B00006D3B86A2843B8624C700020C86105E0A1
:1035C000431CCB610B494000085AD061D069906917
:1035D00030439061F0BD09493C2008800849002033
:1035E00008700349012048727047000000600440E1
:1035F00070000020EC01002000C00140CE0000203F
:10360000B3000020FE48FD49827C895CC17470478C
:103610000020FC4A00211154401C80B28A28FAD3B1
:10362000704700B5FFF7F4FFFF21F5489131818421
:103630000122827500210170C17181710272C17213
:1036400000BD10B5FFF7E4FFFFF7EBFF31235B028E
:10365000D878EB4CA07418792075FFF7D3FF0120C0
:10366000A075E9490020087020779979E74A117020
:10367000D979E74A1170197AE64A1170597AE64AFF
:103680001170E6490870A0776077E5490870E54950
:10369000087010BDDA48817D01290BD100218175A8
:1036A000E149027D895C4175828C4A431103090C12
:1036B0004185C1847047F8B5DC4800240378D048C0
:1036C000DB4A2030C178012B25D02038037B012B29
:1036D00021D0407F012831D0D6480078012835D04C
:1036E000D548FF250378D548002B0078009006D0F8
:1036F000C348C07F002802D0009801282FD00020A6
:10370000C64EC24B36781B78B446CD4E3678B64698
:103710003F285CD067E0880607D50020410054525E
:10372000401CC0B28A28F9D3F8BD00207F21430095
:10373000D152401CC0B28A28F9D3F8BD0020410004
:103740005452401CC0B28A28F9D3F8BD0020AA21E7
:103750004300D152401CC0B28A28F9D3F8BD0021E1
:10376000B848B94E03780020022B04D0032B08D0B0
:10377000012B14D022E0CF00BF193F5C7F00D5534E
:103780001CE0002805D0CF00BF193F5C7F00D55357
:1037900014E0CF00BF193F787F00D4530EE000281B
:1037A00007D0012805D0CF00BF193F5C7F00D5535B
:1037B00004E0CF00BF193F5C7F00D453401CC0B26F
:1037C0000628D1D3491CC9B21129CCD3F8BD954ED6
:1037D0003678002E07D08E0702D57E2695536FE0EF
:1037E0007E2694536CE0162807D1012B05D176462E
:1037F000012E02D1009E012E02D0172806D00DE026
:103800000E0701D595855BE0948559E0022B05D123
:103810007646012E02D1009E012E02D0182806D035
:103820000DE00E0701D5D5854AE0D48548E0042B8C
:1038300005D17646012E02D1009E012E02D0162817
:1038400006D00AE00E0701D5158639E0148637E068
:103850006646012E01D1012B02D0172806D00AE0BE
:10386000CE0601D595852BE0948529E06646012E8C
:1038700001D1022B02D0182806D00AE0CE0601D5CD
:10388000D5851DE0D4851BE06646012E01D1042BB1
:1038900008D05C4E365C002E10D0594FBF7F002FF1
:1038A00006D00BE0CE0601D5158609E0148607E0A8
:1038B0006746002F02D17746002F07D04600945369
:1038C000401CC0B28A2800D222E7F8BD4C4FFF7CD2
:1038D0007E43F6084700D653F2E7494801212030DD
:1038E000C1707047464800212030C1707047F0B564
:1038F000434C20262246507B118D401CC3B22032FF
:10390000D078277BDF2505400643012F06D04C4F9A
:103910003F78002F31D0002913D0C6E000290FD105
:10392000782020856373D80701D0D57000E0D67069
:10393000072B05D1D178DF200140D1700020207302
:10394000B3E03C212185A17B491CC9B2A173CD07FD
:10395000F723002D03D008252843D07001E018403C
:10396000D070374D012F07D10F2905D1D0781840DD
:10397000D07000202870A07397E02C4F3F78012F63
:1039800006D0324D2D78002D28D0002914D08CE09F
:10399000002910D1782020856373D80701D0D67014
:1039A00000E0D570214C0F2B7FD1D178DF20014072
:1039B000D1700020207078E0FF202D3020856373C7
:1039C000D80705D02248436A01210B4343626CE0CB
:1039D0001F48816A01231943816266E00F4D2D78EB
:1039E000002D3BD0002960D1642121856373D90764
:1039F00030D010210843D07057E00000395F00003C
:103A0000A6000020000400202E0000207F000020DF
:103A1000370000206C0000203B00002078000020D0
:103A20003E0000206D000020415F00006B00002080
:103A3000EC0200203900002081000020A2000020BC
:103A40007D00002082000020975B000077000020AE
:103A500000A00440EF210840D07026E0257E002D14
:103A60000CD0002921D13C2020856373D80702D0D7
:103A7000FFF738FF19E0FFF730FF16E0FE490B783B
:103A80009B0703D502231843D07002E0FD231840A2
:103A9000D0700878400704D5D07804210843D0704E
:103AA00003E0D078FB210840D070F448007800286B
:103AB00004D1F3498B6A012423438B62012808D186
:103AC000F0480078012804D0ED48816A01231943A9
:103AD0008162ED480078012807D0EC480078012881
:103AE00003D0D078E7210840D070F0BD10B5E84C85
:103AF0000722A256E74BD00707D000200021195417
:103B0000401CC0B28A28FAD306E00020FF211954D5
:103B1000401CC0B28A28FAD3521C50B2E071062869
:103B200005DBFFF775FDFFF731F9FFF78AFD10BDE3
:103B300000B5FFF76DFD00BDF0B5FFF769FD002191
:103B4000D54FD44DFF23D548425C0020CC00E4196A
:103B5000D60701D0265CAB555208401CC0B20628DF
:103B6000F6D3491CC9B21129EDD3F0BD0020C94AD2
:103B7000115C002901D0491E1154401CC0B28A2892
:103B8000F6D37047F0B5C54D6E3D287840082870D3
:103B90002F463337387840003870012029182039F3
:103BA000CB7F2A5C1343CB77510829543A18203A2B
:103BB000D37F395C0B43D37749003954401C40B262
:103BC0001128EBDBB54E5D3E307C40083074324648
:103BD0001132107C400010740F2033185C78315C77
:103BE0000C435C704908315413185C78115C0C4329
:103BF0005C7049001154401E40B20028EDDA0020EC
:103C0000A649A64B6E395D3B095C1B5CA34C19436E
:103C10003B3C135C245C234319434BB200219E4E72
:103C2000FF25C400A4199B4EDF0701D0675CF55542
:103C30005B10491C49B20629F6DB401C40B2112832
:103C4000DEDBF0BDF0B5FFF7E3FC0120934A112362
:103C50006E3AD7181418115C203CE177191ACC1968
:103C6000203CE47F7C54401C40B21128F2DB002051
:103C7000107438700021FF2388487A5C6E38405CED
:103C8000104342B20020844DCC006419814DD60708
:103C900001D0265CAB555210401C40B20628F6DB22
:103CA000491C49B21129E7DBF0BDF0B501207B4A80
:103CB00011236E3AD7181418115C203CE177191AB9
:103CC000CC19203CE47F7C54401CC0B21128F2D3B4
:103CD0000020107438700021FF2370486E38425C59
:103CE000785C024300206C4DCC006419694DD60706
:103CF00001D0265CAB555208401CC0B20628F6D352
:103D0000491CC9B21129E8D3F0BD0020614A115CF9
:103D1000FE2903D0002901D0491C1154401CC0B217
:103D20008A28F4D3704700205A4A115CFE2903D038
:103D3000002901D0491E1154401CC0B28A28F4D376
:103D40007047F0B55249C87A401CC8720020897E7D
:103D5000524D8C466E3D6146002907D0295C4900D2
:103D60002954490609D50121295406E0295C49084E
:103D70002954002901D1202129542A5C0021464ED2
:103D8000FF24C3009B19434ED70701D05F5CF45555
:103D90005208491CC9B20629F6D3401CC0B21128EA
:103DA000D9D3F0BD10B500203A4AFF233C4C06E0C1
:103DB000115C002907D0491E1154401CC0B2217863
:103DC0008842F5D310BD1354F7E7F0B53049C87AEF
:103DD000401CC8720020314F6E3F395C4906090E05
:103DE0003954C90901D0012139543A5C00212A4DC6
:103DF000FF23C4006419274DD60701D0665CAB557C
:103E00005208491CC9B20629F6D3401CC0B2112879
:103E1000E3D3F0BDF0B523491D480A78807E521ED9
:103E2000214D1C4ED4B200284BD000201B4A2A3A08
:103E3000115C491CC9B211541A4B1B78994201D329
:103E400000211154154B6E3B195C002931D0491EDD
:103E500019540021104BC200D218CB072BD00F4BA6
:103E6000575C6E3B1B5CEB5CF355491CC9B20629E1
:103E7000F3D3401CC0B219E038010020A20000209A
:103E800000A0044077000020780000207D00002082
:103E9000A600002000040020975B0000DA0200204A
:103EA000385F00007F5C00001F5C00001128BDD35C
:103EB000F0BD1C54CDE7FA4B575C1B5CEB5CF35533
:103EC000D3E70020F64A115C491CC9B21154F54BE6
:103ED0001B78994201D300211154F14B443B195CEA
:103EE00000290DD0491E19540021EF4BC200D218F1
:103EF000CB0707D0EA4B575C1B5CEB5CF35507E044
:103F00001C54F1E7E64B575C443B1B5CEB5CF35500
:103F1000491CC9B20629EBD3401CC0B21128D1D329
:103F2000F0BDF0B50020DF4FDD4C23E0DF49897E96
:103F3000002909D0215C491CC9B221543A78914228
:103F400007D30021215404E0215C002917D0491E29
:103F5000215400210C22D74B4243D318D44E225C6B
:103F6000D54DB25C5E5CAA55491CC9B20C29F9D387
:103F7000401CC0B2D14909788842D7D3F0BD397806
:103F8000491E2154E5E7F0B50020C64FC44C23E09C
:103F9000C649897E002909D0215C491CC9B2215437
:103FA0003A78914207D30021215404E0215C002992
:103FB00017D0491E215400214200C14B8218D3184A
:103FC000BB4E225CBC4DB25C5E5CAA55491CC9B2BA
:103FD0000329F9D3401CC0B2BA4909788842D7D323
:103FE000F0BD3978491E2154E5E7F0B50020AF490E
:103FF000AB4D8F7EAC4BB04E002F0AD0295C491CD4
:10400000C9B22954A74A1278914207D300212954F2
:1040100004E0295C002912D0491E29540021A44C37
:104020002A5CA25CCC00E418245C3255491CC9B25D
:104030001129F7D3401CC0B20628DDD3F0BD994941
:104040000978491E2954E9E7F0B500209749944CB6
:104050008F7E994D002F0AD0215C491CC9B2215492
:10406000904A1278914207D30021215404E0215C48
:10407000002913D0491E215400218B4BC200D318B4
:104080008B4E225CB25C5E5CAA55491CC9B2062903
:10409000F9D3401CC0B21128DCD3F0BD81490978A6
:1040A000491E2154E8E7F0B5FFF7B2FA00207C4F33
:1040B000443F391849783954401CC0B20928F8D314
:1040C0001020395C3A185170401EC0B20928F8D24D
:1040D0007649C87E01281DD0787A40087872C007DA
:1040E00001D00120C8760021FF23785C420800201F
:1040F0006D4DCC006419704DD60701D0265CAB55D0
:104100005208401CC0B20628F6D3491CC9B2112976
:10411000EBD3F0BD787A4006000E7872C009E2D089
:104120000020C876DFE76149674A8B7E0846C07A7F
:10413000002B08D0002802D0401EC8720BE0107877
:10414000401EC87207E0401CC0B2C872127890428C
:1041500001D10020C8725D48C97A405C564AFF21EF
:1041600011547047514A5A49D07A095C401CC0B278
:10417000D072802801D30020D07200204E4A115402
:10418000401CC0B28A28FAD3704770B5474D4B48DF
:10419000072169560078FF24474B81420DDA002041
:1041A000444E0C224A439219165C9C55401CC0B2E6
:1041B0000C28F9D3491CE97170BD00201C54401C27
:1041C000C0B28A28FAD370BDF0B5384C00252572EC
:1041D000FFF71EFA2078132804D013202070012046
:1041E00020742576E07D012812D0022812D0032801
:1041F00013D0042814D0052815D0062816D0072877
:1042000017D0082818D0092819D0002819D01AE08A
:10421000304B18E02F4B203315E0C523DB0112E0B3
:104220002C4B60330FE02B4B80330CE0294BA03339
:1042300009E063231B0206E0264BE03303E0264B34
:1042400001E0254B20330021FF245A5C14482A301A
:1042500042540020144ECD00AD19174ED70701D09F
:104260002F5CF4555208401CC0B20628F6D3491CF6
:10427000C9B21129E9D3F0BD00B5FFF7C9F90B4860
:104280002821818401218175122101700021017290
:104290000020094A1154401CC0B28A28FAD300BD3C
:1042A000B00200207F5C0000975B0000A6000020A9
:1042B0001F5C00001E5A000000040020965A0000F7
:1042C0004D5E0000AD5E00001D5A0000C7590000A1
:1042D0000C5D0000406200004063000030B5FFF755
:1042E00097F9FF21FB482D3181840121817511222D
:1042F000027001720020F84A00211346144611335F
:104300002234154633351154195421542954401C74
:10431000C0B21128F7D330BD00B5FFF779F9FF21FE
:10432000EC4891318184012181750021C1721022F4
:1043300002700172C1710020E74B1A461132195404
:104340001154401CC0B21128F9D3A8E700B5FFF7FB
:104350005FF9E048C8218184012282750021C17281
:104360000F23037002720020DB4ADB4B1132115421
:104370001954401CC0B21128F9D390E700B5FFF7DB
:1043800047F9D44828218184012181750E210170CB
:10439000002101720020D14AFE211154401CC0B2FC
:1043A0008A28FAD37BE700B5FFF732F9C9482821FC
:1043B0008184012181750D2101700021017200208D
:1043C000C64A1154401CC0B28A28FAD367E7F0B538
:1043D000FFF71EF94B21BF48C90081840122827575
:1043E0000021C1720C23037002728176BC4FBB4D59
:1043F000FF23BC48425CB84842540020CC00E4197A
:10440000D60701D0265CAB555208401CC0B2062826
:10441000F6D3491CC9B21129EBD3F0BD10B5FFF793
:10442000F7F8FF21AB48913181840121817500218A
:10443000C1720B22027001720020AB4AA749AB4B3C
:1044400003E0145C0C54401CC0B21C78A042F8D3AA
:1044500010BDF0B5FFF7DCF84B219E48C900818400
:10446000012181750022C2720A22027001720021AC
:104470009B4F9A4DFF239E48425C97484254002030
:10448000CC00E419D60701D0265CAB555208401C7D
:10449000C0B20628F6D3491CC9B21129EBD3F0BD2E
:1044A000F0B5FFF7B5F88B48502181840121817563
:1044B0000021C17209220270017200208D4D874EC9
:1044C0008D490C5C844944310C5444390C5400210E
:1044D000834BC200D218575C2B5DF355491CC9B2FF
:1044E0000629F8D3401CC0B21128E9D3F0BDF0B5BD
:1044F000FFF78EF87748A021818401218175002182
:10450000C1720822027001727A4D744E12E07B482B
:10451000445C71484430445400200C22784B4A4398
:10452000D218175C2B5DF355401CC0B20C28F8D391
:10453000491CC9B2734800788142E8D3F0BDF0B598
:10454000FFF766F8634864218184012181750021A9
:10455000C172072202700172664D604E12E06A4815
:10456000445C5D484430445400204A00674B8A183C
:10457000D218175C2B5DF355401CC0B20328F8D34A
:10458000491CC9B2624800788142E8D3F0BDF0B559
:10459000FFF73EF84F486421818401218175002195
:1045A000C1720622027001720020524E4C4A4B4FDB
:1045B00058490D5C484944310D540021CC00A418E1
:1045C000245C735D3B55491CC9B21129F6D3401CCC
:1045D000C0B20628ECD3F0BDF0B5FFF719F83D489E
:1045E00064218184012181750021C172052202703C
:1045F0000172404D394E4048445C37484430445481
:104600000020374BCA00D218175C2B5DF355401CB5
:10461000C0B20628F8D3491CC9B21129EBD3F0BDAA
:10462000F0B5FEF7F5FFFF202A4FF530B8840120E2
:10463000B8750020F8720421397038720021FF2308
:104640003548425C244842540020254DCC00641972
:10465000224D960701D5265CAB555208401CC0B2CE
:104660000628F6D3491CC9B21129E9D30120F876EE
:10467000F0BD00B5FEF7CCFFFF21164891318184D3
:1046800001228275032101700021C171C172817103
:10469000027204E600B5FEF7BBFFFF210D48193199
:1046A0008184012181750221017000210172C17292
:1046B000F5E500B5074B187801280AD0FEF7A8FFEA
:1046C000FF20F5309884012098751870002018722A
:1046D000D871E4E5A60000206C0200200004002050
:1046E000975B0000F55C0000AE5E0000385F0000E4
:1046F000DE5C00001F5C0000805C0000BB5C000012
:104700001E5A0000965A00009B5C00004D5E00009F
:10471000AD5E0000955C0000C75C000000B5FF487E
:10472000002101764179112903D9312149024978C3
:1047300041714079030000F0A7FE1A0E111A1D20E6
:104740002C2329142F263235173E383B44101010E5
:10475000101010104110FFF7ACFFA0E5FFF79AFF13
:104760009DE5FFF786FF9AE5FFF75AFF97E5FFF70C
:1047700033FF94E5FFF70BFF91E5FFF7E0FE8EE5D1
:10478000FFF7B5FE8BE5FFF78BFE88E5FFF761FECF
:1047900085E5FFF743FE82E5FFF719FE7FE5FFF7AA
:1047A00002FE7CE5FFF7EAFD79E5FFF7CFFD76E550
:1047B000FFF7B2FD73E5FFF791FD70E5FFF75CFDD4
:1047C0006DE5FFF701FD6AE5F8B5D44C01252146FA
:1047D000C97AA0794A1CD3B2FF22D14E002812D048
:1047E00001280FD1CF480078814221D20020CE4D40
:1047F0000C27794349190D5C7255401CC0B20C2836
:10480000F9D3E372F8BDC9480078814208D2C84D97
:104810004800295C7254401940783254E372F8BD64
:10482000BF48403040790028F9D1A571E072F8BD49
:1048300030780028FBD1FEF7EBFE31267602307887
:10484000A52801D0FEF7A2FA70786071B078E07503
:10485000F078A07430792075A575FEF7D3FEFFF7C8
:104860005DFFF8BDAD48007A00280AD00020AC4AB0
:10487000115C002901D0491E1154401CC0B28A2885
:10488000F6D3704770B5A54B0025587A002806D09E
:10489000587E002803D15D72FFF7E4FF0124187CE5
:1048A000002855D0587E002852D11D741878030076
:1048B00000F0EAFD160C0F1215181B1E2124272AE2
:1048C0002D303336393C3F42454B484DFFF77CFF96
:1048D0003DE0FFF75AFC3AE0FFF744FC37E0FFF712
:1048E00022FC34E0FFF7DFFB31E0FFF7ADFB2EE009
:1048F000FFF77BFB2BE0FFF746FB28E0FFF711FB00
:1049000025E0FFF787FA22E0FFF75FFA1FE0FFF7E5
:1049100049FA1CE0FFF715FA19E0FFF704FA16E070
:10492000FFF7F3F913E0FFF7C0F910E0FFF78AF99A
:104930000DE0FFF727F90AE0FFF718F907E0FFF7A6
:10494000FBF804E0FFF7F4F801E0FFF7CFF80124EB
:10495000FEF7CDFF002C01D0FEF7ADFEFEF79AFE6C
:1049600070BDF0B56D4E00207778FF257149724A11
:10497000724C3B0000F088FD09060C1014181C2036
:1049800024280B00B0704020F07080203071F0BD02
:104990000D7010702070F0BD087015702070F0BDA3
:1049A000087010702570F0BD0D7015702070F0BD8E
:1049B0000D7010702570F0BD087015702570F0BD79
:1049C0000D7015702570F0BD087010702070F0BD6E
:1049D000F0B500205A49514C09782C34491E221D4B
:1049E000C9B2131D1DE0255C002D1FD06D1E25547E
:1049F000155C002D1CD06D1E15541D5C002D19D0AA
:104A00006D1E1D54265C4F4D4F4FAE5D3E54165CDF
:104A10004E4FAE5D3E541E5CAD5D4D4E3554401C58
:104A2000C0B24C4D2D78A842DDD3F0BD2154DFE754
:104A30001154E2E71954E5E7F0B5384F20373878DC
:104A4000401CC0B238703E4A00211378984200D30F
:104A500039707878401CC0B278701378984200D3CF
:104A60007970B878401CC0B2B8701278904200D308
:104A7000B9700020334D39787C78BF78695C2C5D43
:104A8000314A324E324BED5D115434541D54401CAA
:104A9000C0B20328F8D3F0BDF0B520484078002814
:104AA00002D0012805D102E0FFF7C6FF01E0FFF7C1
:104AB0008FFF0020244C2849244D284E244F284A9B
:104AC000235C0B542B5C33543B5C1354401CC0B22E
:104AD0000328F5D3F0BDF0B510490120487004203B
:104AE0003831488000200F461E4E0C3F53E0325CA8
:104AF000134D11462B789A4202D32B78D21A92B2D8
:104B0000D2B23A540C4640342B789C4202D32B78D4
:104B1000E31A9CB2E3B2014C303425E0A600002039
:104B200000040020965A00001E5A0000C6590000DA
:104B3000AC590000E4000020E5000020E600002061
:104B40004C5E00008C5D0000E7000020EA000020C1
:104B5000ED000020945C0000F0000020F300002035
:104B6000F6000020915C0000235480312C78A14293
:104B700002D32C78091B89B29D4CC9B221549D4C9B
:104B80009D4DA25C2A54E25C9C4B1A549C4A615C89
:104B90001154401CC0B29B4909788842A7D3F0BD8C
:104BA00093480021143801704022427080228270A4
:104BB000203841708E490F20091D4880704770B51C
:104BC0008B490A20091D48800846383840783F261E
:104BD0000021894C894A8A4D030000F055FC0A06E1
:104BE000090C151E27303A434C08FFF7D9FF70BD5A
:104BF000FFF771FF70BD0020265411542954401C4A
:104C0000C0B20328F8D370BD002021541654295493
:104C1000401CC0B20328F8D370BD002021541154A9
:104C20002E54401CC0B20328F8D370BD0020265477
:104C300016542954401CC0B20328F8D370BD00207C
:104C40003346235411542B54401CC0B20328F8D3CC
:104C500070BD0020215416542E54401CC0B20328AD
:104C6000F8D370BD0020265416542E54401CC0B2F8
:104C70000328F8D370BD0020215411542954401C3E
:104C8000C0B20328F8D370BD59493439887A401C22
:104C9000C0B28872022803D90020887201204872AD
:104CA000704700B5FEF7B4FCFF215148913134380C
:104CB0008184012181750021C17215220270017267
:104CC000C171E6E400B5FEF7A3FC49484E4934380B
:104CD0008184012181750021C17214220270017248
:104CE0004A4A1170C1710177D3E401280FD002281C
:104CF0000FD004280FD008280FD010280FD020285C
:104D00000FD040280FD080280FD0002070470020FF
:104D1000704701207047022070470320704704202D
:104D200070470520704706207047072070470EB572
:104D3000A5206A4610702E48343841795170C17DE3
:104D40009170817CD170007D107131480078907134
:104D500030480078D0713048007810722F480078C1
:104D6000507231200C2269464002FEF766F80EBDF3
:104D70001F493439488D401E0004000C488503D17A
:104D8000C88C488501200874704719493439C87B9C
:104D9000401CC0B2C8730F2803D90020C87301207B
:104DA0004874704712493439088D002801D0401EDC
:104DB000088570470E483438017B002903D10185EE
:104DC0004173012101737047154A1078002806D1FC
:104DD0000748002134380185417301201070704765
:104DE0000348002134380185417301210176704761
:104DF000DA0000208C5D0000E7000020EA000020BF
:104E0000ED000020945C00006C07000039000020D9
:104E10007F000020370000206C0000203B000020B5
:104E20006B00002000B55648017856480B0000F092
:104E30002BFB0604090E13191F08416A01221143B6
:104E4000416200BD416A02221143416200BD416AD4
:104E500004221143416200BD4B48416A10221143B4
:104E6000416200BD416A012252021143416200BD0C
:104E7000416A012292021143416200BD00B54049DE
:104E800009780B0000F000FB060406090C0F121451
:104E90003E480DE03D482A300AE03C48543007E0E7
:104EA0003A487E3004E03948A83001E03748D23033
:104EB000374902880A6242884A6282888A62C288C6
:104EC000CA6202890A6342894A6382898A63C28903
:104ED000CA632F49028A40310A60428A4A60828A44
:104EE0008A60C28ACA60028B0A61428B4A61828BE5
:104EF0008A61C08BC86100BD2748264941600160B6
:104F00002148416841600168016070471D4801689F
:104F1000224A114001601C4801681022914301603F
:104F2000704770B51A4E00247460FFF7EFFF1C48FD
:104F3000134D0078002812D16878401CC0B2687008
:104F40000A280CD36C7000F0F3F8FDF7B7FDFDF7FD
:104F500038FE14490870FCF790FB00F0B6F8FFF734
:104F60008DFFFFF75FFF306801210843306028782C
:104F7000401CC0B22870062800D32C7070BD000001
:104F8000E20000200080044000A00440EC02002069
:104F900000200040FFFF000000400440F8F9FFFF40
:104FA000200000202100002050214843401E411CC9
:104FB000FCD1704710B50246284C294B03E0DC6059
:104FC0006420FFF7F1FF521E501CF8D110BD502194
:104FD0004843401E411CFCD1704710B502461F4C8F
:104FE0001F4B03E0DC606420FFF7F1FF521E501CF2
:104FF000F8D110BD0D20401E80B20028FBD17047B3
:105000000220401E80B20028FBD1704700B5400846
:10501000401E81B203E0FFF7EDFF491E89B200296F
:10502000F9D100BD00B53121FFF7E4FF491E89B277
:105030000029F9D100BD30B50346084C084D07E002
:10504000EC600922FFF7EEFF521E92B2002AF9D15E
:1050500018465B1E9BB20028F2D130BDAA55FA5A01
:10506000000001400F490E48086000208860486039
:105070000B4A0D49921E0A6088602E224A600B4935
:1050800008600B4888600B4848607F210A48490245
:105090000160012149038160FF2120314160704797
:1050A000FFFF000000400440006004400080044016
:1050B00080AA02000706000000A004400120264943
:1050C0004004086025490860704726482449016269
:1050D000C161704700B52448016880221143016016
:1050E00020481721803881600021416181610721BA
:1050F0004902C1611B4AFF21403AD163022101608C
:1051000001688907FCD40168012211430160FFF79F
:10511000DCFFFFF7D3FF00BD0120104940048031C0
:105120000860704710480168802291430160F3E7EE
:105130000C4900200862704710B50A4C606A0949A2
:105140008039C969890506D5000204D5FFF7E9FE53
:105150000120C005A06210BD80E200E000E100E097
:10516000FFFF00008020004000E00540084807499C
:105170004161FF21816107210161704710B5044938
:10518000FF208861FBF757FA10BD000010170000E0
:1051900000E000E01E481D49C160016804229143FF
:1051A0001C4A11430160704701201B4940060860FA
:1051B0001A4908601A490868FF22120290430860E1
:1051C000704714490843124988601048C860704706
:1051D000104908430E494860704700B50220FFF7A8
:1051E000F7FF0C480A4B18603D20FFF7EAFFFFF776
:1051F000DBFF18680749491C0843186000BD0120FF
:10520000064940068031086070470000AA55FA5AE6
:10521000000001400000FA5A80E200E000E100E0F6
:1052200018E400E02B4902228A60086100E000BF18
:105230004868C007FBD1886840221043886000E0BE
:1052400000BF4868C007FBD1704710B5214B01244F
:105250009C60186100E000BF5868C007FBD111E0F6
:105260001478507800022043947824040443D078C2
:1052700000062043D86000E000BF5868C007FBD19B
:10528000121D091F0029EBD158684007002802DAD7
:105290005960012010BD986840221043986000E0DA
:1052A00000BF5868C007FBD15868400702D5596055
:1052B000012010BD002010BD10B5002000210F23DB
:1052C000DB0204C994B22018120C10189942F8D3CA
:1052D00010BD00000020064034480F2181610421E8
:1052E0000161704710B53248016801221203114371
:1052F00001602E4A10680F21090288430721090224
:1053000040181060106808210843106010680221DE
:1053100088431060106804218843106010680721DA
:10532000C903884310601068C910884310609068F2
:10533000000A0002801C906000205060106801216B
:105340008904884310601068C02108431060FFF78B
:10535000C3FF01231749580308601749086017491C
:105360000868FF242402A0430860106818431060F6
:1053700010BD0F48016801221203114301600B4860
:1053800001680122114301600168C02211430160DC
:1053900070470648016849084900016004480168EF
:1053A00001221203914301607047000000C00140D8
:1053B00000E0054080E200E000E100E00CE400E0F5
:1053C00010B51748C068174C4006400F02D001289E
:1053D00006D102E01448206002E07D200002206037
:1053E0000121206800F028F82060104A10499042FE
:1053F00002D91048086010BD0E48401F086010BD5B
:105400000C490B48491E0160491C016004480021F9
:105410000161C160C1684906490FFBD170470000B6
:1054200000000640FC000020006CDC0200366E012B
:10543000002006400500FA5A30B50B460146002010
:105440002022012409E00D46D5409D4205D31D468A
:105450009540491B2546954040191546521E002D82
:10546000F1DC30BD064C0125064E05E0E36807CCB3
:105470002B430C3C98471034B442F7D3FAF724FE80
:105480004C5F00006C5F000030B47446641E2578E9
:10549000641CAB4200D21D46635D5B00E31830BC68
:1054A000184702E008C8121F08C1002AFAD1704745
:1054B000002001E001C1121F002AFBD17047120138
:1054C000000200000040AC054F0221010102000172
:1054D00005010906A101050719E029E715002501C5
:1054E0007501950881029501750881019505750181
:1054F0000508190129059102950175039101050718
:1055000019002AFF0095057508150026FF00810087
:1055100005FF0903750895018102050C0900158036
:10552000257F95407508B102C0050C0901A10185D0
:105530000319002A3C031500263C039501751081D0
:1055400000C005010980A101850205011981298397
:1055500015002501950375018102950175058101ED
:10556000C005010906A101850105071500250119DE
:10557000002977957875018102C0050C0901A10108
:105580008501150025019520750109B509B609B7F2
:1055900009CD09E009E209E309E409E509E909EAB5
:1055A0000A52010A53010A54010A55010A8A010AE2
:1055B00021020A23020A24020A25020A26020A27D5
:1055C000020A2A020A92010A94010A83010A0202CB
:1055D0000A03020A07020A18020A1A0209B881021B
:1055E000C005010980A101850219812983150025C3
:1055F00001750195038102750595018101C00600C1
:10560000FF0901A10185031AF1002AF80015002500
:1056100001750895028102C009023B00020100A049
:1056200032090400000103010100092111010001F8
:105630002259000705810308000109040100010344
:105640000102000921110100012251000705820316
:1056500010000104030904200355005300420020F8
:10566000004B00650079006300680072006F006EF7
:105670000020004B0032001603550053004200206A
:10568000004400450056004900430045000000006A
:105690000100000012000000BE54000002000000E3
:1056A0003B0000001856000003000000040000004A
:1056B0005356000003090000040000005356000088
:1056C00003000100200000005756000003090100FC
:1056D00020000000575600000300020016000000E2
:1056E00077560000030902001600000077560000FC
:1056F0000500000007000000335600000500000010
:1057000007000000335600002100000009000000DF
:105710002A56000021010000090000004356000045
:105720002200000059000000D054000022010000B7
:105730005100000029550000220200009E000000D8
:105740007A55000029352B39A1A000003A1E14F922
:1057500064A300003B1FF8FA1DA200003C2008FBD8
:105760001B0000003D211509060000003E22170A1B
:10577000190000003F231C0B052C00004024180DCD
:105780001100000041250C0E100000004226120FEF
:10579000360000004327133337A60000442D2F3472
:1057A00038AF0000452E300000A40000462A312802
:1057B000A5FD00004C000000FCFE0000D34B4E4A4B
:1057C0004DFF00000000000000000000000000008D
:1057D00000000000000000000000000000000000C9
:1057E00000000000000000000000000029293ACF5E
:1057F0003BCE3C863D873ED53FD440B141B342B01D
:1058000043B544BA45B91DAB0DEF2DD72ED6A3A392
:10581000525251511E971F9820991BAC0FF0FAADB0
:1058200012E54DE60EE706E4D3E30CDCFBDD39DEE2
:1058300013DF05E12929CF3ACE3B863C873DD53E93
:10584000D43FB140B341B042B543BA44B9451DABB2
:105850000DEF2DD72ED6A3A3525251511E971F984C
:1058600020991BAC0FF0FAAD12E54DE60EE706E409
:10587000D3E30CDCFBDD39DE13DF05E129293A3AFD
:105880003B3B3C3C3D3D3E3E3F3F40404141424230
:105890004343444445451DAB0DEF2DD72ED6A3A35E
:1058A000525251511E971F9820991BAC0FF0FAAD20
:1058B00012E54DE60EE706E4D3E30CDCFBDD39DE52
:1058C00013DF05E129293A3A3B3B3C3C3D3DD53EBF
:1058D000D43F4040414142424343444445451DABCF
:1058E0000DEF2DD72ED6A3A3525251511E971F98BC
:1058F00020991BAC0FF0FAAD12E54DE60EE706E479
:10590000D3E30CDCFBDD39DE13DF05E129293A3A6C
:105910003B3B3C3C3D3D3ED53FD440404141424273
:105920004343444445451DAB0DEF2DD72ED6A3A3CD
:10593000525251511E971F9820991BAC0FF0FAAD8F
:1059400012E54DE60EE706E4D3E30CDCFBDD39DEC1
:1059500013DF05E11A1A04041616070752525050B5
:1059600051514F4FB500B600B700CD00E000E20046
:10597000E300E400E500E900EA00520153015401AC
:1059800055018A0121022302240225022602270250
:105990002A02920194018301020203020702180203
:1059A0006F00700001020408102040803F3940372A
:1059B00041364235433444335A325B1D5C1C471B2D
:1059C000462F453031310D0001020304050607085A
:1059D000090A0B0C0D0E0F15161718191A1B1C1D92
:1059E0001E1F202122242A2B2C2D2E2F3031323322
:1059F00034353637393F40414243444546474849AC
:105A00004A4B4C4E5455565758595A5B5C5D5E5F35
:105A1000616263696A6B6F73747576777856311457
:105A2000141414141414141414141C1D3032454688
:105A300014141414141407081B2F445A5B5C4733C6
:105A40001E14061A2E43596F091F34485D14051998
:105A50002D42580A2035495E731404182C41570B07
:105A600021364A5F741403172B40566B0C374C6178
:105A7000751402162A3F6A0D22394E6276140115FA
:105A800054690E24637714141414000F781414143A
:105A90001414141414140A0100010101020103007A
:105AA00004000500000000020002010202020301DE
:105AB00004010500000000030003010302030302C8
:105AC00004020500000000040004010402040303B2
:105AD00004000000000000050005010502050304A4
