:020000040000FA
:10000000C0060020D9000000E100000091060000B9
:1000100000000000000000000000000000000000E0
:10002000000000000000000000000000E5000000EB
:100030000000000000000000E70000008D4F0000FD
:10004000EB000000B108000000000000000000000C
:1000500000000000000000000000000000000000A0
:100060000000000000000000000000000000000090
:10007000000000008134000000000000EB000000E0
:10008000EB000000494F00000000000000000000ED
:100090000000000000000000000000000000000060
:1000A00000000000A54F0000EB0000000000000071
:1000B000EB000000F3070000EB000000EB00000085
:1000C0000348854605F0D6F800480047D3050000F0
:1000D000C006002070471F0004480047044800473E
:1000E000FEE7FEE7FEE7FEE7FEE7FEE70178000039
:1000F000C1000000004800470900FF1FF8B502F0EA
:10010000B9FEF748017800297ED000250570F54A30
:10011000F5491068002806D0401E1060002802D162
:100120000D70F2480570F24A1078002808D0401E81
:10013000C0B21070002803D1EE480560EE4805708B
:10014000EE4A01241088002813D0401E80B210808F
:1001500000280ED1EA485123037089234370E948EF
:100160000470E94B1878002803D0401E1870022054
:100170001080E64A1088002806D0401E80B2108009
:10018000002801D1E2480470E24E3068002855D0C2
:10019000E14F3A78002A01D0346006E0DF4A09785E
:1001A0001278114301D1401E30603068002845D1DB
:1001B00004F0C6FE04F0BEFED948056104F0AEFDB1
:1001C00002F0DFFC02F011FDD6480168D64A49086A
:1001D000490011430160642004F035FE00F01FFB6C
:1001E000D2480561C460C168C906FCD5D04C2169FC
:1001F0000920C00681432161CB49CE48891C01609A
:1002000003F0B4FA256100E018E0CB480221016058
:1002100030BF056038780028FDD100F038FB206938
:100220000921C9060843206104F0A8FE04F0DDFEA0
:1002300002F00AFC04F056FEC0483060F8BD70B50C
:10024000A748BF4902780024002A05D00470088816
:10025000002801D0401E0880BA480069800718D5E0
:100260000888002815D1C82004F0EDFD04F068FED0
:1002700004F060FEAB480168AB4A490849001143ED
:10028000016000F099FB04F0B0FE04F077FE04F08A
:1002900029FEAD4D2878012806D10822AB4900F08F
:1002A00015FA002800D12C70A94D2878012807D113
:1002B0001022A849022000F009FA002800D12C7071
:1002C000A54D287801280CD0A44D2878012807D105
:1002D0000222A349104600F0F9F9002800D12C7041
:1002E00070BD03229F49022000F0F0F90028F7D1E9
:1002F0002C7070BDF8B59C48817800296FD000241F
:10030000847004F058FC9949994E0888002818D048
:10031000401E80B20880002813D13078002802D017
:10032000012803D00DE002F02EFF0AE002F02CFFBE
:1003300090480078002802D002F0F1FF01E003F0BD
:100340001FF88D490878401CC0B20870322830D39D
:100350000C706348012505708849087800280AD088
:10036000401EC0B20870002805D1854800780028DA
:1003700001D18448047084490878002819D0401EAF
:10038000C0B20870002814D1804F3878C04382076B
:100390007F480FD10278002A0CD004F0ACFB7D48D6
:1003A00004703C70307801287CD103F01AF87A4848
:1003B000047077E0794F3A78D243920710D10278EF
:1003C000002A0DD004F00AFC3C7075480178012920
:1003D00003D0057004F0C3FB64E00470FAE7F7E0B3
:1003E000704A1378DB439B070FD10378002B0CD0A6
:1003F000147004F0FCFB6C480178012903D00570EF
:1004000004F0ADFB4EE00470FAE7684A1378DB4372
:100410009B0715D10078002812D0147004F0DEFB81
:100420003E480178002905D0047004F098FB02F0E2
:1004300045FF37E0057004F092FB02F0E7FE31E083
:100440005B4A1078F62806D0972819D0982817D03C
:10045000992815D026E0CD2010703F490D704148F5
:100460003022427084703078002802D002F002FD01
:1004700018E00C7003223B49022000F027F911E03C
:10048000307801280ED1204A107800280AD0401E6A
:100490001070032008701A485121017089214170A1
:1004A00018480570434A1078401CC0B21070424989
:1004B00080230D784149002D06D0FA2803D314700B
:1004C00008785840087081E03D4D2D78002D79D096
:1004D0004B287BD3147008785840087076E071E0A0
:1004E000970000208C0000206C000020700000208D
:1004F0007200002084000020640000207A000020A8
:100500007800002069000020670000207C000020A7
:10051000B40000208800002074000020610000204A
:1005200000E000E0000001400000FA5A0000064030
:1005300000C0054000200640402003407017000026
:1005400076000020140100203C000020580000200C
:100550003F000020900100203D0000203E000020D0
:1005600047000020490000200000002092000020E9
:100570009400002032000020950000203800002068
:1005800071000020B500002033000020340000205E
:100590002B00002073000020680000203A0000209B
:1005A0003B000020350000203700002036000020EE
:1005B000290000209600002090000020BA000020B2
:1005C0006B00002008784006400E087001F014F817
:1005D000F8BD04F01DFE00F0CFF8314C206A012573
:1005E0002843206204F07EFC04F0FFFC04F0C6FC0B
:1005F00004F040FC02F0AFFF00F0F0FF04F07AFDE1
:100600002848A06128480021017031214902498908
:10061000264A914200D10570254C2078012801D14D
:1006200000F0DEF8234D244E244F0EE002F000FAD5
:1006300004F048F82078002802D0012805D102E013
:10064000FFF7FDFD01E0FFF759FDF560FFF752FEF2
:1006500038780028ECD0E9E770B5194C6078401C78
:10066000C0B26070042812D30025657004F027FA28
:1006700004F095FA02F0E9FE2078401CC0B2207028
:10068000042804D325700120A07004F0A0FA70BDE6
:10069000BFF34F8F0C490B48C860BFF34F8FFEE785
:1006A0000000064002C0000039000020AAAA000095
:1006B00094000020AA55FA5A00000140980000203A
:1006C000000000200400FA0500ED00E0F8B5064641
:1006D0000D4617462448B10008180268002A01DBBD
:1006E0000220F8BD002E03D0042E01D8402F01D9DE
:1006F0000420F8BD0068400F042801D00120F8BD97
:100700001A48805D002804D0304600F0AFF803207E
:10071000F8BD174808180068B84201D20520F8BD96
:10072000701E1449800008580090002414E0295DD0
:10073000641C285D00020843641C295D0904014310
:10074000641C285D00060843641C0146009800F004
:10075000D7F90098001D0090BC42E8D3F9B23046AA
:1007600000F092F90020F8BD18C0054004000020F8
:1007700000010020F0000020F8B500F076FD00F048
:10078000EAFEF7480168102211430160F54C402150
:10079000A1608023E360C0252561E0266661F24800
:1007A000016043608560C660F048016008214160D7
:1007B0008260C1600161EB4DED48403D286002263A
:1007C0006E611F27FF06322004F00FFB2F61E948FE
:1007D000E06240076062E8480660E8480660F8BDED
:1007E000E049002040390861E44902208031086076
:1007F000704730B50124E04960070860FF22E049F6
:10080000F9320A62DF4A1369C5122B4313610022D1
:100810008A61DA4980310860DB48047030BDD8480D
:100820000021C1604161491E0162FF21F9318161EE
:10083000D14980030860D149086070470120C94947
:10084000C0024039886070470120C64980024039A3
:10085000886070470120C349400240398860704772
:10086000FF20C049013040398860704704280DD806
:10087000BC4A8100283A8918002804D1B948403878
:100880004068C00102D4072040070860704710B5D7
:10089000BE480168012211430160BD48006800079D
:1008A000000F052801D004F0B3FC00F0C5F910BD1D
:1008B00070B5AC4D403D6C680020C043A860002C72
:1008C0000DD0A0000ED5FFF7E2FF00F0ACF9E0017B
:1008D00008D5022004F070FA00F001FC70BDFFF7AB
:1008E000D6FF70BD2868A00F0BD0002C04DAFFF7EC
:1008F000CEFF00F07DF970BD6000FCD500F08DF9F1
:1009000070BD2002C00E18D0200202D500F0E7FB17
:1009100070BD600202D500F026FC70BDA00202D5B9
:1009200000F062FC70BDE002800FFBD00320C00429
:10093000A8600020FFF79AFF70BD2005000FFBD0D4
:10094000E00501D5FFF78CFFA00501D5FFF782FF79
:10095000600501D5FFF778FF2005EDD5FFF76EFFA5
:1009600070BD00208B49401C8842FCD370471E207C
:10097000401E411CFCD1704700B57A4A0620403A1F
:100980005061FFF7F4FF05205061FFF7EAFF50695F
:1009900004218843506100BD7C480121C1600021D1
:1009A00001617B4A7C491160C168C906FCD50168B8
:1009B0007A4A114001607047F8B5724C20690221F3
:1009C00088432061674D403D6868400022D502F0B1
:1009D000CDFE04F0A3F902F0D4F802F006F9704855
:1009E000002707615E480168802291430160286901
:1009F0000921C90688432861634E3770FFF70FFF4E
:100A00000A2004F0ECF9FFF7C7FF6868400002D441
:100A1000FFF73DFFF8BD63490420086030BFFFF7D2
:100A200036FF30780028F5D0377021695E4888435A
:100A300007D120690121890488432061A068012829
:100A400005D05A4914200880FFF796FFF8BDFFF73C
:100A500093FFF8BD43494039CA6B012383409A4351
:100A6000CA637047042805D83E49800028394018D9
:100A7000002101607047042805D83A4980002839D0
:100A80004018090701607047042807D8354A8000DC
:100A9000283A8018052252078918016070473149A9
:100AA000403148600220C860C8688007FCD488686C
:100AB0003F490860704700B50A46402A0ED2401EE2
:100AC00029498000085891084018FFF7E8FF90076F
:100AD000C10E37480068C840C0B200BD002000BD4C
:100AE00000B510290AD2401E1F4A80001058890004
:100AF0004018FFF7D4FF2E48006800BD002000BD5D
:100B0000184A4032506091600120D060D068C00720
:100B1000FCD1704730B50B46402B15D2401E124910
:100B200080000858990845182846FFF7B8FF204864
:100B300004689807C30EFF209840844311469940EB
:100B400021432846FFF7DCFF30BD102932D2401E7A
:100B5000054B80001858890040181146D0E7000066
:100B600000E0054040C00540F000002000010020EA
:100B7000100000B00440000080E200E000E100E06E
:100B80000080044014010020030000200000064003
:100B900000200640145000000000FA5AFEFFFF0F2C
:100BA00000E000E0402003408000040076000020C8
:100BB0001C00002070470C4A90630B480221403013
:100BC000016001688907FCD4D06B08490860704750
:100BD000054A9063D16304480121403001600168F7
:100BE000C907FCD17047000040C005401800002034
:100BF00010B50020FE4AC0439060FE490120086104
:100C000000208860D060FFF731FE01242046FFF706
:100C100029FF641C042CF9D910BDF6480169022291
:100C2000114301617047F3480169042211430161D6
:100C3000EF49D00688607047ED4801690922D20665
:100C40001143016101214906816070470120E84993
:100C500080068860704710B5E64CA06801280CD16A
:100C6000E54A002000211154401C0428FBD92079BA
:100C7000012802D8A278002A03D00020FFF7F6FD51
:100C800010BDDE4A1154FFF7E5FE20690121090479
:100C90000843206100210846FFF7F6FE10BD10B59D
:100CA000D44CA068012814D12078812811D1207952
:100CB00001280ED8D149095C0020FFF789FF20697F
:100CC0000121C9030843206101210020FFF7DCFE58
:100CD00010BD0020FFF7CAFD10BDF8B5C64DC54ECA
:100CE0003069800607D5B07810210124002700283C
:100CF00005D0012819D00020FFF7B8FDF8BDB76076
:100D00003069084330610127EC553846FFF7AAFEE9
:100D10007F1C042FF8D93069012109040843306190
:100D200000210846FFF7B0FEF8BDB4603069884383
:100D3000306100242F55002C0CD02046FFF79BFE7D
:100D4000AB480069611EC840C00703D0002120469F
:100D5000FFF79AFE641C022CECD9306901210904CA
:100D60000843306100210846FFF78EFEF8BD70B5DC
:100D7000A04DA9680020FFF72BFFA868012806D125
:100D800001242046FFF777FE641C022CF9D99C4809
:100D9000002101602869032189030843286101219A
:100DA0000020FFF771FE70BD10B50020FFF75EFD5B
:100DB00010BD10B50446180612041043090208437A
:100DC000204310BDF8B58F4F3C688A488C4EC088D0
:100DD0003168884200D23060306800281DD000257C
:100DE000E378A27861782078FFF7E3FF0146A80056
:100DF000FFF7EEFE241D6D1CEDB2102DF0D3306810
:100E000040280FD340210020FFF73EFE38684030D5
:100E10003860306840383060F8BD00210846FFF780
:100E200033FEF8BD3068C1B20020FFF72DFE002070
:100E30003060F8BDF8B5002400206E49724BCA78C6
:100E40000D798F780C26014671435E5CB24211D158
:100E5000C9184E78B5420DD18E78B7420AD10C220E
:100E60005043C018828866480260664889680160FD
:100E7000012402E0401C1028E4D3002C08D05D4976
:100E800008690122D20310430861FFF79BFFF8BDF8
:100E90000020FFF7EBFCF8BD10B556480169202390
:100EA0009943016101694022114301618178002960
:100EB00002D002691A43026101730169012212041E
:100EC0001143016100210846FFF7DEFD10BD70B53A
:100ED000484D28784406640E000602D50020FFF72E
:100EE000C5FC002C05D0022C0FD00020FFF7BEFC63
:100EF00070BDA8780128FBD12869444908432861BE
:100F000000210846FFF7C0FD70BDA8780028FBD17E
:100F100028794006400E411E0129F5D8A96801290B
:100F2000F2D1354A1154FFF7A1FC286901210904C7
:100F30000843286100210846FFF7A6FD70BD70B583
:100F40002C4D28784406640E000602D50020FFF7D9
:100F50008DFC002C1AD0022C17D1A878002814D1AF
:100F600028794006400E0022234BE10300281ED0C2
:100F700002280AD8AC68012C07D11A542869084302
:100F8000286100210846FFF77FFD70BDA878012881
:100F9000FBD1286980218843286128691B49803951
:100FA0000843286100210846FFF76EFD70BD2869DF
:100FB0008006FBD51A70286908432861002108467D
:100FC000FFF762FD70BD70B50A4D28784406640EC7
:100FD000C00901D1FFF74AFC0126F603002C26D0F8
:100FE000012C38D0022C21D128794006400E0FE088
:100FF00000C005401401002004000020140000205F
:10100000100000200C000020A0540000800101000E
:1010100002280BD8A349095C0020FFF7D9FD2869F5
:101020003043286102210020FFF72EFD70BD2869A2
:10103000000604D502210020FFF7CAFD03E00021CD
:101040000846FFF7C5FD28693043286102210020CA
:10105000FFF71AFD70BDA8680128FBD16879002848
:10106000F8D128790128F5D800210846FFF7B0FD0E
:1010700028693043286102210020FFF705FD70BD7B
:1010800010B589484078030004F006F90C070A25DA
:101090000D25101316191C1F2225FFF794FF10BDF4
:1010A000FFF74DFF10BDFFF712FF10BDFFF7F4FE75
:1010B00010BDFFF7BFFE10BDFFF776FE10BDFFF7B6
:1010C00056FE10BDFFF709FE10BDFFF7E8FD10BD8D
:1010D000FFF7C1FD10BD0020FFF7C8FB10BD7CB5B8
:1010E0003320724CC004A0600020FFF7C4FC60688D
:1010F000400331D46C4C20690321C903884320612B
:101100000020FFF758FD6A4D286801900420FFF782
:1011100052FD286800900198C0B220700199090A18
:1011200061700199090CA1700199090EE170009993
:1011300021710099090A61710099090CE18060210F
:101140000840002802D0202803D008E0FFF798FFCD
:101150007CBD00F0CEF97CBD01208004A0600020A1
:10116000FFF784FB7CBD70B50120504E8005B06058
:10117000504DA87C022815D10020A87468694E49FA
:1011800088420DD1A8694D49884209D10024A000A8
:101190000021FFF71DFD641C402CF8D3FEF7AAFFC9
:1011A0000420A874404C2069454D40060CD52069A8
:1011B000402188432061207BF0600020FFF756FB30
:1011C0002069A843206170BDE088002808D020690C
:1011D000C00305D4FFF7F6FD2069A843206170BD68
:1011E0000020FFF743FB70BDF8B501212F484905EA
:1011F0008160304DA87C2E4E012819D0686D800585
:101200000DD5686D0913884368650020FFF7D3FC8E
:1012100030682870686D0121490308436865224CD5
:101220002069000412D400210846FFF72DFC16E0C7
:101230000024A0000746FFF7BEFC3068791948611A
:10124000641C102CF5D30220A874E8E71748416805
:10125000C90104D481690122D20611438161206948
:101260000121C90388432061F8BD00200D4A0021F7
:101270001154401C0528FBD30020124A1154401C75
:101280000428FBD30848017041708170C17001715E
:101290004171C180816001730169012252041143CF
:1012A00001617047040000201401002000C00540C7
:1012B0001800002028010020AA42895AFF7162CC40
:1012C000000001001400002010B5A74A1078212862
:1012D0001BD1A649486D01231B03184348651079AB
:1012E000012812D89078002804D14B6D0324A40261
:1012F000A3434B6548741069012109040843106138
:1013000000210846FFF7C0FB10BD0020FFF7AEFA32
:1013100010BD10B594480178212914D1016901222A
:1013200012041143016191494A6D0123DB021A4302
:101330004A650279012A06D8C07808740021084657
:10134000FFF7A2FB10BD0020FFF790FA10BD10B50B
:1013500086490120887400210846FFF795FB10BDDF
:1013600010B58148016901221204114301617F48CF
:10137000416DD2111143416500210846FFF784FBFE
:1013800010BD10B578480178212907D101790029CD
:1013900004D1C078022805D0032806D00020FFF72A
:1013A00065FA10BDFFF7DCFF10BDFFF7D0FF10BDE1
:1013B00010B56D4C2078A12816D16C48416DC90438
:1013C00001D401214174217901290DD8417C0020EB
:1013D000FFF7FEFB20690121C903084320610121B9
:1013E0000020FFF751FB10BD0020FFF73FFA10BDB2
:1013F00010B55D4C2078A12808D15C48416D0122D0
:10140000D202114341652179002903D00020FFF762
:101410002DFA10BD017C0020FFF7DAFB20690121C5
:10142000C9030843206101210020FFF72DFB10BDF7
:1014300010B54F49002008604B4801690122D203D2
:101440001143016105210020FFF71EFB10BD10B5FF
:1014500000210846FFF718FB10BD10B5434801787E
:101460000020FFF7B5FB404801690122D203114378
:10147000016101210020FFF707FB10BD10B53C49B9
:1014800000200860384801690122D203114301613C
:1014900008210020FFF7F8FA10BD10B53248017896
:1014A000A1291FD1816801291CD10179C0780029A7
:1014B00002D0012910D015E0012804D0022805D05F
:1014C000032806D00EE0FFF7D9FF10BDFFF7C5FFD8
:1014D00010BDFFF7BCFF10BD2449497C012901D193
:1014E000012803D00020FFF7C1F910BDFFF7A0FFCE
:1014F00010BD10B51C484078030003F0CDFE0C1958
:10150000070A0D191919191910131619FFF7C5FF34
:1015100010BDFFF76DFF10BDFFF74AFF10BDFFF7CD
:1015200030FF10BDFFF7F5FE10BDFFF7CDFE10BD7B
:101530000020FFF79BF910BD10B50D490020086091
:10154000094801690122D2031143016105210020EC
:10155000FFF79AFA10BD05487D21017401214174FD
:10156000002181744165704714010020280100208A
:1015700010000020F8B51420FB4EFC4D0127401E42
:10158000C0B200243168490600D50124316809063B
:1015900001D502210C432979A14204D0022003F095
:1015A00052FC2C7114200028E9D12879F049C30796
:1015B0000022002B05D00F70FF21EE4B91311960F6
:1015C00000E00A70E94920398F74830700D58A74D6
:1015D0008B7C002B00D08A736871F8BDE349002032
:1015E0001831487003200F3908700220891E0870D6
:1015F000E14901200870BDE770B50021DA480268B2
:1016000001235206002A00DA01210068000601D5F4
:1016100002200143D54802798A4203D00A2282710E
:10162000017170BD81790029FBD0491EC9B2817159
:101630000029F6D14479114661400029F1D0427168
:10164000CD070024CA48002D19D0D1070DD0037052
:1016500003F085FA01F098FDFFF7C2F8C74804705F
:10166000FF20C4499130086070BD047003F077FA20
:1016700001F089FDC2480470FFF77EF870BD89074C
:10168000FCD5BA4920398B74920700D58C74007848
:101690000128F3D1887C002802D001F040FE70BD03
:1016A00001F06EFE70BD30B5B348B04B1038203B32
:1016B0009A79815C58784140D9700024002915D06E
:1016C0001979022200290BD09D7885420BD1491E41
:1016D000C8B21871002802D19C700120187030BD6A
:1016E0001A71987030BD1A71987030BD1C71521CFF
:1016F000D0B298711028F8D39C7130BD70477047F4
:10170000F8B59A4A0024114693782039CD7A087B9F
:101710009C46002B1BD0002D19D14E7AAF2E0BD03A
:101720003A2E09D03B2E07D03C2E05D03D2E03D0BB
:1017300013783C2B01D34C72F8BD5B1CDBB28E4F8F
:101740001037FE545B1CDBB21370F8544C726346C6
:101750000127002B03D0002D01D0012853D00128F0
:10176000EAD1487A9C286BD0E32877D0F2286FD052
:101770007E4B844D203B5E7E2B78D32869D0E628B3
:1017800068D0E82867D0E9286FD0EA286ED07E4973
:10179000EB280E787D49097869D0EC2868D0ED28CF
:1017A00067D0EE2874D07A4BD0281B7871D06F4E5A
:1017B000203ED8286ED0F1286DD0764ED7283678C6
:1017C0006AD0D62869D0744ED428367873D0D528FC
:1017D00072D0932871D0942870D095286FD0962815
:1017E0006ED0DC286DD0DD286CD0DE286BD0DF28F1
:1017F0006AD0E02869D0E12868D0E2289CD163480B
:1018000007297DD1BAE2487A932806D0942808D0D7
:1018100095280AD096280DD010E05470FFF76FFF7E
:101820000CE05770FFF76BFF08E002205070FFF7E5
:1018300066FF03E003205070FFF761FF4C72F8BDB4
:101840004C7256480178002906D00470F8BD05E0B6
:1018500012E023E05AE066E00770F7E74C72504868
:101860000178002906D00470F0E76EE0A8E0BBE044
:101870002DE141E10770E9E74C724A490878401CC4
:10188000C0B20870092800D30C7002F08AFFDDE7AF
:1018900047E15BE1C4E1CCE1CFE1DAE14C72312018
:1018A000400242894048824211D14C7601F056FAFA
:1018B00001F051FECAE7D8E1E3E1EEE1F1E1F4E144
:1018C000F8E1FCE10AE219E228E237E246E2002E02
:1018D00001D04C76BAE75B1CD8B22870112800D32F
:1018E0002C7031204002C2782B490A7001792948B6
:1018F000017001F011FE2D4807702D48047000E0C2
:101900003EE202F006FE03F02AF99FE74C72312016
:10191000400242892448824298D0002E01D04C7661
:1019200094E74F7692E74C72002B09D0012B09D037
:101930002C701F48047002F0ECFD03F010F985E7ED
:101940002F70F6E719202870F3E74C72022B31D084
:10195000042B32D0022028701548047002F0D9FD03
:1019600003F0FDF872E7000000A0044040000020F2
:1019700094000020880000209001002068000020D2
:101980006C0000209D000020B0000020AF0000206F
:1019900098000020AC000020AA000020B100002028
:1019A000B600002099000020AAAA0000AE00002086
:1019B000B200002004202870CEE703202870CBE777
:1019C0004C720D2B0AD00B2B0BD00D202870FD482C
:1019D000047002F09EFD03F0C2F837E70B20287078
:1019E000F5E70C202870F2E7F7484472112B02D07B
:1019F0001120287066E0F548002E15D004700129EA
:101A00001DD0022921D0032926D004292BD0052955
:101A100030D0062935D007293AD008293FD00929E6
:101A200044D0002948D04DE00770E94804800020E8
:101A3000E8490C54401CC0B21128FAD306E718221A
:101A4000E449E54801F0CDF93CE0E3481822E149DA
:101A5000203001F0C6F935E0C5201822DD49C0016B
:101A600001F0BFF92EE0DC481822DA49603001F0BD
:101A7000B8F927E0D8481822D649803001F0B1F9EA
:101A800020E0D5481822D349A03001F0AAF919E086
:101A900063201822CF49000201F0A3F912E0CE48DA
:101AA0001822CC49E03001F09CF90BE01822C9491A
:101AB000CA4801F096F905E0C8481822C549203007
:101AC00001F08FF902F025FD03F049F8BEE6BE48AB
:101AD0004472082B0AD0092B0BD008202870B94873
:101AE000047002F016FD03F03AF8AFE60920287002
:101AF000F5E70A202870F2E7B34844720E2B0AD0AB
:101B00000F2B0BD00E202870AE48047002F001FDA0
:101B100003F025F89AE60F202870F5E710202870CA
:101B2000F2E7A9484472052B0AD0072B0BD00520F9
:101B30002870A448047002F0ECFC03F010F885E66D
:101B400007202870F5E706202870F2E79E484472C7
:101B5000132BBBD19D48002E1BD00470012922D02D
:101B6000022926D003292BD0042930D0052935D0CD
:101B700006293AD007293FD0082944D0092949D05D
:101B80000029A3D1954818229249203001F029F963
:101B90005CE603F037F800208E490C54401CC0B2BC
:101BA0001128FAD352E618228A498B4801F019F914
:101BB0004CE6894818228749203001F012F945E6A1
:101BC000C52018228349C00101F00BF93EE6824886
:101BD00018228049603001F004F937E67E48182267
:101BE0007C49803001F0FDF830E67C4818227949C4
:101BF000603801F0F6F829E66320182275490002E2
:101C000001F0EFF822E6754818227249203801F0F9
:101C1000E8F81BE618226F49704801F0E2F815E673
:101C2000747268480178002901D004700EE60770CC
:101C30000CE674727773147008E66348447268485F
:101C4000012EA5D9761E06706648077002F087FF40
:101C5000FCE55D4844726248052E99D2761C0670F8
:101C60006048077002F07BFFF0E5574844725E4819
:101C7000052E8DD2761C067001F04EFC02F06FFF2F
:101C8000E4E5514844725848012E8BD9761E0670FF
:101C900001F042FC02F063FFD8E55470FFF72FFD1E
:101CA000D4E55770FFF72BFDD0E502205070FFF709
:101CB00026FDCBE503205070FFF721FDC6E54B481C
:101CC000012901D1132B88D00770494804701120D5
:101CD000287002F01EFC02F042FFB7E543480229DB
:101CE00001D1132B87D002210170414804701120CB
:101CF000287002F00EFC02F032FFA7E53B480329F2
:101D000001D1132B85D003210170394804701120B3
:101D1000287002F0FEFB02F022FF97E53348042909
:101D200001D1132B84D0042101703148047011209B
:101D3000287002F0EEFB02F012FF87E52B48052920
:101D400001D1132B84D00521017029480470112082
:101D5000287002F0DEFB02F002FF77E52348062937
:101D600001D1132B8CD00621017021480470112061
:101D7000287002F0CEFB02F0F2FE67E5132B8BD049
:101D8000072101701A4804701120287002F0C1FB6D
:101D900002F0E5FE5AE5F8B50B4A0024517A1046E8
:101DA0001E25007BD22929D0124B0127124ED27C4E
:101DB0001B78972929D098294AD099296CD00120DD
:101DC00044E50000B200002020000020B000002008
:101DD000C0000020CA0200204062000040630000F2
:101DE000AC000020AE000020AA000020AF000020C0
:101DF000980000209400002078000020002801D0E6
:101E0000D57400E0D474002020E5012B1ED1FD49DB
:101E1000002818D0FC4807701F200876CD74FB49B5
:101E2000032008705120307081207070F8480770CE
:101E3000F8480470F8480470F848077002F08FFE04
:101E4000F748047002E0002A00D0CC740020FDE4C2
:101E5000012B1FD1EB49002819D0EB4807701F2038
:101E60000876CD74E9490320087051203070822033
:101E70007070E7480770E7480470E7480470E74867
:101E80000221017002F06BFEE548047002E0002AB6
:101E900000D0CC740020D9E4012B1FD1D9490028EF
:101EA00019D0D94807701F200876CD74D749032070
:101EB00008705120307083207070D5480770D54865
:101EC0000470D5480470D5480421017002F047FE23
:101ED000D348047002E0002A00D0CC740020B5E49E
:101EE00010B50020C749CF4B497ACF4A05E04400DE
:101EF0001C5D8C4205D0401CC0B21488A042F6D3B1
:101F0000FF2010BDF0B5BF4CC84D207BC84EC94F57
:101F1000002852D0FFF7E4FFFF2817D0A17C00294A
:101F200015D0E17A00293CD0E17E002934D0C249A5
:101F30004200511849786172B24AC10832324407EE
:101F4000BE48640F535C005D03435354F0BDE17A17
:101F5000002916D0E17D00290ED041008919497869
:101F60006172A84AC10832324407B448640F535C16
:101F7000005D03435354F0BD410049194978617233
:101F8000EFE7E17D002903D04000305C6072F0BDD6
:101F90004000285C6072F0BD4100C9194978617247
:101FA000CAE7E17E002904D04100A348405C60728A
:101FB000F0BD4000385C6072F0BDFFF791FFFF2874
:101FC000FAD0904AC1088C463232515C43079B4A92
:101FD0005B0FD25C114222D0A37C002B0DD0E37E9C
:101FE000002B17D043009448181840786072854839
:101FF0003230914362468154F0BDE37D002B04D022
:102000004000801940786072F1E740004019407844
:102010006072ECE74000C01940786072E7E7A17C8D
:10202000002907D0E17E00290FD041008248405CA2
:102030006072F0BDE17D002903D04000305C607229
:10204000F0BD4000285C6072F0BD4000385C6072FA
:10205000F0BDF8B57A4800260680714801787948C5
:10206000002902D07849016002E0FF21913101602E
:10207000644C617A002960D0A07C25463835002860
:1020800025D0A32908D0A22909D0A7290AD0A6299A
:102090000BD046290CD01AE0A220607217E0A320D2
:1020A000607214E0A620607211E0A72060720EE05A
:1020B000212060725348217B38300078002903D0FA
:1020C0000A210843287002E0F52108402870FFF734
:1020D00019FF2046617A0124EF2917D0AB2933D0AC
:1020E000F02950D0AC2963D0E4297BD0E72970D007
:1020F000564FE5296ED0AD296DD0FFF74CFE002874
:102100001BD04048407AF6287BD007E10546007B8B
:10211000002813D0E87A00280FD0297D21432975A3
:10212000C843800709D1687E002804D06E7600F08D
:1021300015FE01F010FA1E20E87413E4287D400813
:1021400040002875EE740DE4017B002915D0C17A9A
:102150000029F2D0017D022211430175C94389078C
:10216000EBD10446407E002804D0667600F0F6FDF0
:1021700001F0F1F91E20E0742FE4017D8908890047
:102180000175C67429E4017B00290BD0C17A0029AE
:10219000F2D0417D21434175C9438907ECD11E210D
:1021A000C1741AE4417D490849004175C67414E4BC
:1021B000017B002910D0C17A0029DDD0417D0222A7
:1021C00011434175C9438907D6D11E21C17404E466
:1021D00008E043E058E06FE0417D890889004175DF
:1021E000C6742BE4017B002932D0C17A0029F8D0D3
:1021F000817E21438176C9438907F2D11E21C174B2
:102200001CE473E020000020B500002067000020DF
:10221000690000206C000020700000207300002086
:102220006800002078560000D6000000FC55000031
:102230003A560000B6560000F456000082570000DF
:102240007A00002088000020701700009400002011
:10225000817E490849008176C67437E4017B0029F4
:102260000CD0C17A0029F8D0817E022211438176F8
:10227000C9438907F1D11E21C17427E4817E8908F1
:1022800089008176C67421E4017B00290ED0C17AD1
:102290000029E2D0817D21438175C9438907DCD1C2
:1022A00039780129D9D11E21C1740FE4817D4908F3
:1022B00049008175C67409E4F949087B00280FD0EC
:1022C000C87A0028C9D0887D022210438875C0438F
:1022D0008007C2D138780128BFD11E20C87404E419
:1022E000887D800880008875CE7413E4EC48017BFB
:1022F000012928D0C17C002928D0C674022002F010
:10230000A2FD4C20A870E648847204773878002833
:102310001FD000F0AFFDE2484C214172E048C67486
:10232000FFF7EEF9DE48437A002BDED0AE2B17D054
:102330009A2B1FD0D12B38D0F7220821862B3ED0E4
:10234000872B49D04FE00A21C17421E4CD2141728D
:10235000E4E7D349082238310120FEF7B7F9DAE77C
:10236000017B0129F1D1017C012901D004740FE422
:1023700006740DE44672007B0128E6D13878002807
:1023800009D00128E1D13E7002F0E9FB00F0FBFE2C
:10239000FEF7F2F906E43C7002F0E1FB00F0F4FE17
:1023A000C0480670FEF71CFA09E4017B0129FBD145
:1023B000817B012901D0847308E4867306E4037BE2
:1023C000012B05D02B7813402B702B2242720AE090
:1023D0002A780A432A70F8E7037B012B07D02B7871
:1023E00013402B704172827B012A04D00AE02A78C4
:1023F0000A432A70F6E7427AA32ADDD0A72ADBD067
:10240000652AD9D0427AF72A17D0F82A08D3C37B95
:10241000002B1CD05207130FA34A9A18527842720D
:102420000346407AAF2818D0F32825D0F4286FD07F
:102430009E49097813296CD009E1017B0129BBD1A0
:10244000C17B002901D0C6730EE4C4730CE45207AB
:10245000130F954AD25C4272E2E75C71DE72187B20
:10246000012800D1DC72997C0029EDD01C77EE7137
:102470000028E9D0EC7103E41A7B1846012AFAD14E
:10248000827C002A4DD0012104460177E9718848F9
:102490000078002827D000F0EDFC0A2002F0D3FCE1
:1024A000012727770020E871814E3078002821D05D
:1024B00000F0E0FC0A2002F0C6FC2777EF713078CC
:1024C00000281ED000F0D6FC0A2002F0BCFC2777C2
:1024D0000020E871307800281CD000F0CBFC0A20E6
:1024E00002F0B1FC09E46E49082238310120FEF700
:1024F000EDF8D2E76A49082238310120FEF7E6F804
:10250000D8E76749082238310120FEF7DFF8DBE71A
:102510002FE098E06249082238310120FEF7D6F812
:10252000DDE75F48047729700B20A8703878002811
:1025300011D000F09FFC0A2002F085FC5848047777
:102540002E70AE70387800280CD000F093FC0A2072
:1025500002F079FC11E45249082238310120FEF7DB
:10256000B5F8E8E74E49082238310120FEF7AEF809
:10257000EDE71A7B012AEDD1987C00283AD0484833
:102580000477AE70EC71387800281ED000F072FC31
:102590000A2002F058FC424804772C20A870EC7105
:1025A0003878002818D000F065FC0A2002F04BFCB7
:1025B0003B480477AE70EE713878002813D000F0F5
:1025C00059FC0A2002F03FFC1EE43549082238314C
:1025D0000120FEF77BF8DBE7314908223831012082
:1025E000FEF774F8E1E72E49082238310120FEF7A2
:1025F0006DF8E6E701201C46187729700620A870C0
:102600003878002811D000F035FC0A2002F01BFCBD
:10261000012020772E70AE70387800280CD000F0A2
:1026200029FC0A2002F00FFC11E41D490822383170
:102630000120FEF74BF8E8E719490822383101205C
:10264000FEF744F8EDE71B4909780129ECD014495D
:102650002931B02810D303220A705C771A7B012A33
:1026600002D04E708E7016E4B038134A4000105AF3
:102670004870000A88700EE4104AA82827D39C7777
:1026800002240C7006491B7B2731012B18D010182F
:10269000C038007E4B78FF22504003404B701EE450
:1026A000200000206E00002032570000980000201B
:1026B00094000020B0000020425700008257000024
:1026C0001018C0384B78007E03434B7007E4A028F5
:1026D00013D31C77197B012908D04007400F105CE9
:1026E0002978FF2250400140297026E54007400F1D
:1026F0002978105C014329701FE5197B01290FD04F
:10270000F849897A00294ED0F64B38335B189D780A
:1027100085422BD1F34D9E702C77491EA97242E061
:102720009E7A052E11D2002E09D0002105E06A18EC
:1027300092788242D9D0491C89B2B142F7D3A91903
:102740008870761C9E721C77F7E439780129CCD00A
:102750007828CAD2DC77E4490C70C30859184007BE
:10276000400F4B78105C03434B70E6E4002318E005
:10277000DC4D3835ED18AD78854210D1D94DD94FA3
:10278000383504E0E818C27882705B1C9BB28B423B
:10279000F8D3E81886703C77491EB972CDE45B1C0B
:1027A0009BB28B42E4D3CF4978289ED23B78012B51
:1027B0009BD0CC77CC490C70C30859184007400F08
:1027C000105C4B78FF22504003404B70B5E4F0B5ED
:1027D000C44901202031C870C448C54F0678C1489B
:1027E000C44C017A007B4900CD19C34A0D2E03D099
:1027F000C24B0F2E0DD045E0795C6B78C9000919EA
:10280000C95C002802D0FE205054F0BDFD20505479
:10281000F0BD002836D0785C6978B94D695CB94E56
:10282000355C0D4335541D5C0D431D540120374666
:1028300039182039CD7F3E5C3543CD771121091AF7
:10284000CE18203E5D5CF67F35435D54401CC0B21F
:102850001128EDD30021FF25AA48435CA748405C1E
:1028600003430020CE003619DF0701D0375CD55571
:102870005B08401CC0B20628F6D3491CC9B2112916
:10288000EAD3F0BD0E2E02D0112E0DD03FE0795CC0
:102890006B78C9000919C95C002802D00020505487
:1028A000F0BD01205054F0BD002830D0785C69782C
:1028B000934D6D5C93490E5C2E430E541E5C2E436B
:1028C0001E54914F3E5C2E433E54904E375C2F4336
:1028D000375400208B498D4D0B5C88492D5C095C79
:1028E0000B438949095C29430B430021C5002D197D
:1028F000DE0702D06F5CFF26D6555B08491CC9B2C3
:102900000629F5D3401CC0B21128E3D3F0BD132E25
:1029100011D100280FD07E4800780128F6D1785CCC
:1029200069787C4C0125235C2A468A405340235415
:1029300079480570F0BD102E1ED100281CD0785C9F
:10294000704D3F21295419540021FF256D48445CE6
:10295000585C04430020674FCE00F619E70701D00A
:10296000375CD5556408401CC0B20628F6D3491C14
:10297000C9B21129EAD3F0BD122EFCD10028FAD039
:10298000795C6878FE23CD002D192E5C93550029C3
:1029900009D04E1EF6003619375CD355052802D2F1
:1029A000361876789355002803D02E18203EF67FEF
:1029B0009355052802D22D186D7853551029DAD277
:1029C000491CC90009190C5C13550028D3D00818FC
:1029D0002038C07F1354F0BD70B5424C4249A279F3
:1029E0006078103988540025E571E078C00712D06E
:1029F000A079E179C0004018207225736078C00783
:102A000001D001202073FFF7E2FE4448217A405CA8
:102A10006072FFF71EFB607840086070E078400845
:102A2000E070E079401CC0B2E0710828DDD370BDD1
:102A300010B52C4C2078002805D0FFF7CDFFFEF70D
:102A40005DFE0020207010BD35484168090C090466
:102A50004160344841684160704700B52148817940
:102A60002F480B0002F018FC10090E13181D222726
:102A70002C313760666C72787E0D416A01221143F9
:102A8000416200BD416A02221143416200BD416AB8
:102A900004221143416200BD416A08221143416290
:102AA00000BD416A10221143416200BD416A2022EB
:102AB0001143416200BD416A40221143416200BDA1
:102AC000416A80221143416200BD416AFF22013206
:102AD0001143416200BD416A012252021143416229
:102AE00000BD000020000020900100209800002080
:102AF0007558000075590000F00300206D02002099
:102B0000825700005C0200207E0200208F0200201D
:102B1000B0000020CA020020A80000205455000088
:102B20000040044000A00440416A01229202114387
:102B3000416200BD416A0122D2021143416200BDDF
:102B4000416A012212031143416200BD416A012220
:102B500052031143416200BD416A012292031143B5
:102B6000416200BD416A0122D2031143416200BDAE
:102B700073480168090C090401607248016801602A
:102B800070476F484168704A114341606D48416821
:102B90004160704710B50024FFF7F3FFFFF7E8FF2F
:102BA000FFF75BFF0A2002F039F96848016809075E
:102BB00000D501240168C90601D502210C43016832
:102BC000890601D504210C430168490601D5082175
:102BD0000C430168090601D510210C430068C005AB
:102BE00001D520200443204610BD55480168564AAF
:102BF00011430160534801680160704700B55448B3
:102C000081794F480B0002F047FB10090E13181D85
:102C100022272C31373D43494F555B0D4168012236
:102C20001143416000BD416802221143416000BD73
:102C3000416804221143416000BD416808221143EC
:102C4000416000BD416810221143416000BD4168F0
:102C500020221143416000BD416840221143416080
:102C600000BD416880221143416000BD4168FF22E0
:102C700001321143416000BD4168012252021143FB
:102C8000416000BD4168012292021143416000BDD4
:102C900041680122D2021143416000BD4168012216
:102CA00012031143416000BD4168012252031143E8
:102CB000416000BD4168012292031143416000BDA3
:102CC00041680122D2031143416000BDF0B5204AA2
:102CD0002049537A5807400F095CD8081E4E157BCF
:102CE0005C001746A3193237002D09D0BD1F2D5C9B
:102CF0000D4202D0557C002D1BD0305D5072F0BDCE
:102D0000134D32352D5C0D4208D0114CFF26323464
:102D100071400D40255458785072F0BDD37A012B84
:102D200004D10B4B2C331D5C0D431D54305D507290
:102D3000F0BD3C5C0C433C5458785072F0BD000030
:102D40000040044000A00440FFFF00000080044059
:102D50002000002082570000FC550000F8B500203C
:102D60003449002642008E52401C80B28A28F9D392
:102D7000022002F068F8002403272F4D7F03002073
:102D8000A1010A18D21912782A54401C80B2402896
:102D9000F7D3312040020818274A402102F05DF99C
:102DA00001281CD0641CA4B2082CE8D32449234871
:102DB000C86000202E54401C80B24028FAD3002462
:102DC0001925AD02A00140191B4A402102F045F926
:102DD000012805D0641CA4B2042CF3D3F8BDFEE78F
:102DE000FEE770B50B4614460021134A03E05D5C14
:102DF0005554491C89B2A142F9D30F4A214602F029
:102E00002CF9012800D1FEE770BD70B50B461446C1
:102E10000021094A03E05D5C5554491C89B2A14276
:102E2000F9D3054A214602F018F9012800D1FEE73E
:102E300070BD0000DC0200207A040020AA55FA5A76
:102E400000000140FE4964200880FE49002008700F
:102E5000FD4801210172E121C90081627047F949F1
:102E600000200870F8490120C871FF20F4492D3076
:102E700008807047F0B5F548F34B0778F4485E7862
:102E8000F44CF54D00220121002F2AD0002E28D02D
:102E9000EE4E3270466A02273E4346620920987120
:102EA000A12020800020ED4C265C401CE94C47000E
:102EB000E653C0B20828F6D3E868C006FCD42868F8
:102EC000C0242043286028680006800F0328FAD019
:102ED000E0480088E861D9611A625A70C820987089
:102EE000B1E0DF4F3F78002F2AD0002E28D0DC4EF3
:102EF0003270466A02273E43466210209871A22033
:102F000020800120D74C4700265CD24CE653401C61
:102F1000C0B21028F6D3E868C006FCD42868C024E4
:102F20002043286028680006800F0328FAD0C9488B
:102F30000088E861D9611A625A70C820987082E0EE
:102F4000C94F3F78002F23D0002E21D0C64E3270BB
:102F5000466A02273E43466203209871A3202080E0
:102F6000C24E7778A780B6786680EC68E406FCD419
:102F70002C68C02634432C602C682406A40F032C34
:102F8000FAD0E861D9611A625A70C82098705AE084
:102F9000B74F3F78002F29D0002E27D0B44E327083
:102FA000476A0226374347629E71A4202080012091
:102FB000B04C4700265CA74CE653401CC0B2022828
:102FC000F6D3E868C006FCD42868C02420432860F3
:102FD00028680006800F0328FAD09E480088E86120
:102FE000D9611A625A70C82098702CE05F79002F5E
:102FF00029D0002E27D05A71466A02273E434662E6
:1030000003209871A620208000208F4C1434265C69
:10301000401C904C4700E653C0B20228F5D3E86844
:10302000C006FCD42868C024204328602868000615
:10303000800F0328FAD087480088E861D9611A62B6
:103040005A70C82098701878002814D081484030F1
:1030500004884088B12C02D11D6A022D05D07D4D17
:103060004035AE88B62C07D00DE01A701A624107C1
:103070008148490F0170F0BD5A2804D1062E02D1B3
:103080001D6A032D02D0B62C08D00EE01A701A6209
:103090004B20C0001883FFF7E2FEF0BD5A2804D190
:1030A000072E02D11D6A032D02D0B62C04D00AE0EF
:1030B0001A701A621974F0BD5A2804D10A2E02D16E
:1030C0001D6A032D03D06D4DB62C07D00DE01A708C
:1030D0001A62DA711A836A480270F0BD512804D16D
:1030E000772E02D11F6A032F02D0B62C09D00FE031
:1030F000614802701A70DA701A62FFF7A3FE2A7034
:10310000F0BD512804D1762E02D11F6A032F02D0C0
:10311000B62C10D016E01A701A621A725A739A629C
:1031200019734748028047480270DA8219712A7081
:1031300054485862F0BD512804D1782E02D11F6A3C
:10314000032F02D0B62C08D00EE01A701A62FF20AE
:1031500091305862DA821A71F0BD512804D1792E6B
:1031600002D1186A032805D0186A0328F4D91A6214
:103170001A70F0BD1A7059734348027030480280CB
:103180001A622A70F0BD704730B53148416A022298
:10319000114341622C49032088712E4AA6201080D9
:1031A00051200B4614331870C87B012804D0022824
:1031B00005D0042806D007E08120587004E0822062
:1031C000587001E08320587000201C5C401C4500B2
:1031D0005453C0B20228F8D31F48C368DB06FCD49E
:1031E0000368C0242343036003681B069B0F032B63
:1031F000FAD01288C2610120C86100220A624A70B6
:10320000C8238B7088720A73C87230BD30B51048FD
:10321000416A0222114341620B4A032090710D4919
:10322000A62008805120134614331870652058706A
:1032300000201C5C401C45004C53C0B2022825E015
:10324000C0000020A5000020640000203C000020F9
:1032500000600440DC01002000C001405800002054
:103260003F000020900100203D0000204900002088
:103270003E0000204700002028010020B50000206B
:10328000B400002070170000A6000020D1D39C4895
:10329000C368DB06FCD40368C024234303600368CF
:1032A0001B069B0F032BFAD00988C1610120D06156
:1032B000002010625070C820907030BD30B5914829
:1032C000416A0222114341628F4A032090718F4963
:1032D000A6200880512013461433187068205870B7
:1032E00000201C5C401C45004C53C0B20228F8D39F
:1032F0008348C368DB06FCD40368C024234303600F
:1033000003681B069B0F032BFAD00988C1610120BB
:10331000D061002010625070C820907030BD30B570
:103320007848416A022211434162774A0320907132
:103330007649A62008805120134614331870742053
:10334000587000201C5C401C45004C53C0B2022841
:10335000F8D36B48C368DB06FCD40368C02423435E
:10336000036003681B069B0F032BFAD00988C16119
:103370000120D061002010625070C820907030BDD4
:1033800030B56048416A0222114341625E4A03201F
:1033900090715E49A620088051201346143318709E
:1033A0007520587000201C5C401C45004C53C0B276
:1033B0000228F8D35248C368DB06FCD40368C02453
:1033C0002343036003681B069B0F032BFAD0098875
:1033D000C1610120D061002010625070C82090703F
:1033E00030BD30B54748416A022211434162464A26
:1033F000032090714549A6200880512013461433BC
:1034000018707020587000201C5C401C45004C5304
:10341000C0B20228F8D33A48C368DB06FCD403687C
:10342000C0242343036003681B069B0F032BFAD0C1
:103430000988C1610120D061002010625070C8214C
:10344000917014215182107230BD2F498878002864
:1034500015D0401EC0B288704A7810430FD10120A9
:1034600048702848816A0222114381622448016918
:1034700008229143016101690422114301617047EF
:10348000F0B5204F38680124C007022504261E49E4
:103490001B4A002810D0506940070CD5D369086A30
:1034A000471C0F62194F400040373B520C708D7320
:1034B000906930439061F0BD50694007FBD58B792E
:1034C000C869984206D3B86A2843B8624C70002095
:1034D000C86105E0431CCB610C494000085AD0612B
:1034E000D069906930439061F0BD09493C20088063
:1034F0000849002008700449012048727047000004
:1035000000C001400060044064000020DC01002095
:10351000C0000020A5000020FC48FB49827C895C9B
:10352000C17470470020FA4A00211154401C80B237
:103530008A28FAD3704700B5FFF7F4FFFF21F3485C
:10354000913181840122827500210170C1718171E4
:103550000272C17200BD10B5FFF7E4FFFFF7EBFF89
:1035600031235B02D878E94CA07418792075FFF7F5
:10357000D3FF0120A075E7490020087020779979D2
:10358000E54A1170D979E54A1170197AE44A117047
:10359000597AE44A1170E4490870A07710BDDB48FD
:1035A000817D01290BD100218175E049027D895C73
:1035B0004175828C4A431103090C4185C1847047CF
:1035C000F0B5DB48DB4A0378D04820308178012B06
:1035D0001AD02038037B012B16D0037F012B27D074
:1035E000407F01282DD0D4480078012832D0002017
:1035F000D24BCD4C1B78D24D9C46C74B24781B78C0
:103600002D7816282FD035E0880608D50020002117
:103610004300D152401CC0B28A28F9D3F0BD00202B
:103620007F214300D152401CC0B28A28F9D3F0BD9B
:10363000002000214300D152401CC0B28A28F9D397
:10364000F0BD002000214300D152401CC0B28A28A6
:10365000F9D3F0BD0020AA214300D152401CC0B2D2
:103660008A28F9D3F0BD012B04D1012D02D1664681
:10367000012E02D0172808D00EE00E0702D5FF2633
:10368000968561E0002696855EE0022B04D1012D2F
:1036900002D16646012E02D0182808D00EE00E078F
:1036A00002D5FF26D6854FE00026D6854CE0042BB8
:1036B00004D1012D02D16646012E02D0162808D071
:1036C0000BE00E0702D5FF2616863DE00026168683
:1036D0003AE0012C01D1012B02D0172808D00BE0D1
:1036E000CE0602D5FF2696852EE0002696852BE095
:1036F000012C01D1022B02D0182808D00BE0CE06F5
:1037000002D5FF26D6851FE00026D6851CE0012CB9
:1037100001D1042B09D07E4E365CB646002E10D067
:103720007A4FBE7F002E08D00BE0CE0602D5FF26D2
:10373000168609E00026168606E0002C01D1002D31
:1037400008D000264700D653401CC0B28A2800D2B9
:1037500057E7F0BDFF7C76467E43F6084700D65318
:10376000F2E76A48012120308170704767480021E4
:10377000203081707047F0B5644C20262246517B82
:10378000108D20329378277B491CDF251D401E4376
:10379000C9B2012F06D06A4F3F78002F31D00028E0
:1037A00013D081E000287FD1782020856173C8077D
:1037B00001D0957000E09670072975D19078DF21CF
:1037C00008409070002020736EE03C202085A07B94
:1037D000401CC0B2A073C507F721002D03D00825F7
:1037E0002B43937001E00B409370554B012F5BD13D
:1037F0000F2859D190780840907000201870A0735D
:1038000052E04B4F3F78012F06D04E4D2D78002DC2
:1038100028D0002814D047E0002845D17820208502
:103820006173C80701D0967000E09570404B0F2976
:103830003AD19078DF21084090700020187033E072
:10384000FF202D3020856173C80705D03E48416AAE
:1038500001231943416227E03B48816A0123194350
:10386000816221E0304D2D78002D0ED000281BD133
:10387000642020856173C80703D010200343937030
:1038800012E0EF20034093700EE0237E002B0BD05C
:10389000002809D13C2020856173C80702D0FFF7BA
:1038A00065FF01E0FFF75DFF24480078002804D1A0
:1038B00025498B6A012423438B62012808D12148C2
:1038C0000078012804D02048816A012319438162CD
:1038D00015480078012807D019480078012803D03E
:1038E0009078E72108409070F0BD10B5074C072292
:1038F000A256074BD00729D0002000211954401CA4
:10390000C0B28A28FAD328E01A5D0000980000208F
:10391000F00300202E00002073000020370000205C
:10392000610000203B0000206C000020225D0000B0
:1039300060000020DC0200203900002094000020FC
:10394000710000206B00002000A004400020FF2137
:103950001954401CC0B28A28FAD3521C50B2E071EC
:10396000062805DBFFF7DEFDFFF7F8F9FFF7F3FDAB
:1039700010BD00B5FFF7D6FD00BDF0B5FFF7D2FDD5
:103980000021FE4FFE4DFF23FE48425C0020CC008C
:10399000E419D60701D0265CAB555208401CC0B2D2
:1039A0000628F6D3491CC9B21129EDD3F0BD002079
:1039B000F34A115C002901D0491E1154401CC0B2C9
:1039C0008A28F6D37047F0B5EE4D6E3D2878400852
:1039D00028702F4633373878400038700120291876
:1039E0002039CB7F2A5C1343CB77510829543A18EE
:1039F000203AD37F395C0B43D37749003954401CBC
:103A000040B21128EBDBDF4E5D3E307C4008307465
:103A100032461132107C400010740F2033185C784D
:103A2000315C0C435C704908315413185C78115CAC
:103A30000C435C7049001154401E40B20028EDDA7E
:103A40000020D049CF4B6E395D3B095C1B5CCD4CEF
:103A500019433B3C135C245C234319434BB20021C4
:103A6000C64EFF25C400A419C54EDF0701D0675C10
:103A7000F5555B10491C49B20629F6DB401C40B2E3
:103A80001128DEDBF0BDF0B5FFF74CFD0120BD4A8B
:103A900011236E3AD7181418115C203CE177191ADB
:103AA000CC19203CE47F7C54401C40B21128F2DB4E
:103AB0000020107438700021FF23B2487A5C6E3801
:103AC000405C104342B20020AC4DCC006419AC4DB8
:103AD000D60701D0265CAB555210401C40B20628D8
:103AE000F6DB491C49B21129E7DBF0BDF0B5012036
:103AF000A44A11236E3AD7181418115C203CE177C0
:103B0000191ACC19203CE47F7C54401CC0B2112807
:103B1000F2D30020107438700021FF2399486E38CA
:103B2000425C785C02430020944DCC006419944DB3
:103B3000D60701D0265CAB555208401CC0B20628FF
:103B4000F6D3491CC9B21129E8D3F0BD00208C4A34
:103B5000115CFE2903D0002901D0491C1154401CDE
:103B6000C0B28A28F4D370470020854A115CFE2930
:103B700003D0002901D0491E1154401CC0B28A282C
:103B8000F4D37047F0B58049C87A401CC872002051
:103B9000897E7C4D8C466E3D6146002907D0295CAC
:103BA00049002954490609D50121295406E0295C18
:103BB00049082954002901D1202129542A5C0021D7
:103BC0006E4EFF24C3009B196D4ED70701D05F5C7A
:103BD000F4555208491CC9B20629F6D3401CC0B29C
:103BE0001128D9D3F0BD10B50020654AFF23674CDA
:103BF00006E0115C002907D0491E1154401CC0B2D8
:103C000021788842F5D310BD1354F7E7F0B55E492B
:103C1000C87A401CC87200205A4F6E3F395C490672
:103C2000090E3954C90901D0012139543A5C0021E7
:103C3000524DFF23C4006419514DD60701D0665C74
:103C4000AB555208491CC9B20629F6D3401CC0B274
:103C50001128E3D3F0BDF0B54D494B480A78807E7A
:103C6000521E4C4D464ED4B2002831D00020454A59
:103C70002A3A115C491CC9B21154454B1B78994230
:103C800001D3002111543F4B6E3B195C002916D023
:103C9000491E19540021394BC200D218CB0710D04D
:103CA000384B575C6E3B1B5CEB5CF355491CC9B24F
:103CB0000629F3D3401CC0B21128D8D3F0BD1C5440
:103CC000E8E7304B575C2A3B1B5CEB5CF355EDE7B8
:103CD00000202C4A2A3A115C491CC9B211542C4BC1
:103CE0001B78994201D300211154264B6E3B195C7D
:103CF00000290ED0491E19540021204BC200D218B1
:103D0000CB0708D01F4B575C2A3B1B5CEB5CF35581
:103D100007E01C54F0E71B4B575C6E3B1B5CEB5CF5
:103D2000F355491CC9B20629EAD3401CC0B2112878
:103D3000CFD3F0BDF0B50020124C154F2A3C34E033
:103D40001149897E002909D0215C491CC9B221543E
:103D50003A78914207D30021215404E0215C0029E4
:103D600028D0491E215400210C220B4B4243D3186A
:103D7000084E225C024DB25C5E5C0FE0755900009B
:103D8000F0030020CA02002098000020195D000006
:103D90005D5A0000FD590000FC570000AA55491C5F
:103DA000C9B20C29E8D3401CC0B2FE490978884248
:103DB000C6D3F0BD3978491E2154D4E7F0B50020B0
:103DC000F94FFA4C23E0FA49897E002909D0215C99
:103DD000491CC9B221543A78914207D30021215499
:103DE00004E0215C002917D0491E21540021420023
:103DF000F14B8218D318EF4E225CF04DB25C5E5C42
:103E0000AA55491CC9B20329F9D3401CC0B2EC49D8
:103E100009788842D7D3F0BD3978491E2154E5E7A7
:103E2000F0B50020E249E14D8F7EE64BE34E002FD6
:103E30000AD0295C491CC9B22954DB4A1278914244
:103E400007D30021295404E0295C002912D0491E1F
:103E500029540021D74C2A5CA25CCC00E418245CD5
:103E60003255491CC9B21129F7D3401CC0B20628EB
:103E7000DDD3F0BDCC490978491E2954E9E7F0B5F6
:103E80000020CB49C94C8F7ECC4D002F0AD0215C3D
:103E9000491CC9B22154C44A1278914207D3002167
:103EA000215404E0215C002913D0491E2154002133
:103EB000C44BC200D318BF4E225CB25C5E5CAA55F4
:103EC000491CC9B20629F9D3401CC0B21128DCD361
:103ED000F0BDB5490978491E2154E8E7F0B5FFF770
:103EE00021FB0020B14F443F391849783954401C18
:103EF000C0B20928F8D31020395C3A185170401E1E
:103F0000C0B20928F8D2AA49C87E01281DD0787A03
:103F100040087872C00701D00120C8760021FF2335
:103F2000785C42080020A74DCC006419A34DD60749
:103F300001D0265CAB555208401CC0B20628F6D30F
:103F4000491CC9B21129EBD3F0BD787A4006000EA6
:103F50007872C009E2D00020C876DFE794499A4A17
:103F60008B7E0846C07A002B08D0002802D0401E65
:103F7000C8720BE01078401EC87207E0401CC0B247
:103F8000C8721278904201D10020C8728F48C97A55
:103F9000405C8A4AFF2111547047854A8C49D07A87
:103FA000095C401CC0B2D072802801D30020D072BE
:103FB0000020824A1154401CC0B28A28FAD37047AC
:103FC00070B57B4D7748072169560078FF247B4BFD
:103FD00081420DDA00207F4E0C224A439219165C72
:103FE0009C55401CC0B20C28F9D3491CE97170BD26
:103FF00000201C54401CC0B28A28FAD370BDF0B512
:104000006B4C00252572FFF78DFA2078132804D019
:1040100013202070012020742576E07D012812D025
:10402000022812D0032813D0042814D0052815D054
:10403000062816D0072817D0082818D0092819D024
:10404000002819D01AE0644B18E0634B203315E0C8
:10405000C523DB0112E0604B60330FE05E4B803321
:104060000CE05D4BA03309E063231B0206E05A4BD2
:10407000E03303E0594B01E0584B20330021FF248B
:104080005A5C4A482A30425400204E4ECD00AD19A9
:104090004A4ED70701D02F5CF4555208401CC0B2DD
:1040A0000628F6D3491CC9B21129E9D3F0BD00B5E1
:1040B000FFF738FA3E4828218184012181751221B9
:1040C00001700021017200203C4A1154401CC0B212
:1040D0008A28FAD300BD30B5FFF724FAFF2134480F
:1040E0002D3181840121817511220270017200201D
:1040F0002E4A0021443A1346144611332234154601
:1041000033351154195421542954401CC0B211287C
:10411000F7D330BD00B5FFF705FAFF2124489131F0
:104120008184012181750021C17210220270017207
:10413000C17100201D4B443B1A46113219541154D1
:10414000401CC0B21128F9D300BD00B5FFF7EAF951
:104150001748C8218184012282750021C1720F2372
:10416000037002720020114A333A1346113B115476
:104170001954401CC0B21128F9D300BD00B5FFF797
:10418000D1F90B4828218184012181750E2101700C
:10419000002101720020094AFE211154401CC0B2C6
:1041A0008A281DE0745800005D5A0000A00200201B
:1041B00098000020FD5900002E5C0000F003002054
:1041C0008E5C000075590000FB570000A5570000E9
:1041D000ED5A0000FC570000406200004063000000
:1041E000DBD300BD00B5FFF79DF9FF48282181848E
:1041F000012181750D210170002101720020FB4A0F
:104200001154401CC0B28A28FAD300BDF0B5FFF7A4
:1042100089F94B21F448C90081840122827500216B
:10422000C1720C23037002728176F14FEF4DFF23B0
:10423000F048425CF04842540020CC00E419D60714
:1042400001D0265CAB555208401CC0B20628F6D3FC
:10425000491CC9B21129EBD3F0BD10B5FFF762F9C3
:10426000FF21E14891318184012181750021C172D2
:104270000B22027001720020E04ADC49E04B03E0AF
:10428000145C0C54401CC0B21C78A042F8D310BD82
:10429000F0B5FFF747F94B21D348C90081840121CC
:1042A00081750022C2720A22027001720021D04F71
:1042B000CE4DFF23D348425CCF4842540020CC006F
:1042C000E419D60701D0265CAB555208401CC0B299
:1042D0000628F6D3491CC9B21129EBD3F0BDF0B5BD
:1042E000FFF720F9C0485021818401218175002108
:1042F000C1720922027001720020C34DBB4EC34936
:104300000C5CBD4944310C5444390C540021B84B69
:10431000C200D218575C2B5DF355491CC9B206295F
:10432000F8D3401CC0B21128E9D3F0BDF0B5FFF7B7
:10433000F9F8AD48A0218184012181750021C17265
:10434000082202700172B04DA84E12E0B048445CE1
:10435000A9484430445400200C22AE4B4A43D218A2
:10436000175C2B5DF355401CC0B20C28F8D3491CD8
:10437000C9B2A94800788142E8D3F0BDF0B5FFF793
:10438000D1F8994864218184012181750021C1728D
:104390000722027001729C4D944E12E09F48445CCB
:1043A00095484430445400204A009D4B8A18D21846
:1043B000175C2B5DF355401CC0B20328F8D3491C91
:1043C000C9B2984800788142E8D3F0BDF0B5FFF754
:1043D000A9F8854864218184012181750021C17279
:1043E0000622027001720020874E814A7F4F8E495B
:1043F0000D5C814944310D540021CC00A418245C8B
:10440000735D3B55491CC9B21129F6D3401CC0B29B
:104410000628ECD3F0BDF0B5FFF784F872486421AC
:104420008184012181750021C1720522027001720F
:10443000754D6E4E7548445C6F48443044540020BE
:104440006B4BCA00D218175C2B5DF355401CC0B2F1
:104450000628F8D3491CC9B21129EBD3F0BDF0B539
:10446000FFF760F8FF20604FF530B8840120B87581
:104470000020F8720421397038720021FF236B4844
:10448000425C5D4842540020594DCC006419574DA0
:10449000960701D5265CAB555208401CC0B20628D1
:1044A000F6D3491CC9B21129E9D30120F876F0BD31
:1044B00000B5FFF737F8FF214B4891318184012285
:1044C0008275032101700021C171C1728171027274
:1044D00000BD00B5FFF726F8FF214348193181845C
:1044E000012181750221017000210172C17200BD9C
:1044F00000B53D4B187801280AD0FFF713F8FF20CC
:10450000F530988401209875187000201872D871C1
:1045100000BD00B53448002101764179112903D945
:1045200031214902497841714079030000F0B4FE1D
:104530001A0E111A1D202C2329142F263235173E4E
:10454000383B44101010101010104110FFF7D0FF2E
:1045500000BDFFF7BEFF00BDFFF7AAFF00BDFFF7DC
:104560007EFF00BDFFF757FF00BDFFF72FFF00BD27
:10457000FFF704FF00BDFFF7D9FE00BDFFF7AFFE58
:1045800000BDFFF785FE00BDFFF767FE00BDFFF72A
:104590003DFE00BDFFF726FE00BDFFF7EFFD00BDAD
:1045A000FFF7D3FD00BDFFF7B5FD00BDFFF793FD9D
:1045B00000BDFFF77CFD00BDFFF721FD00BDF8B594
:1045C000094C01252146C97AA0794A1CD3B2FF22A1
:1045D000064E002837D0012834D10F480078814298
:1045E00045D200200B4D23E098000020F00300206E
:1045F00075590000D65A00005C0200208F5C000054
:10460000195D0000BF5A0000FD5900005E5A00000D
:104610009C5A0000FC570000745800007B5A0000B0
:104620002E5C00008E5C0000755A0000A85A000045
:104630000C27794349190D5C7255401CC0B20C28F7
:10464000F9D3E372F8BDFA480078814208D2F94DF7
:104650004800295C7254401940783254E372F8BD26
:10466000F54840790028FAD1A571E072F8BD30789C
:104670000028FBD1FEF756FF312676023078A528B8
:1046800001D0FEF76BFB70786071B078E075F07860
:10469000A07430792075A575FEF73EFFFFF739FF4E
:1046A000F8BDE648007A00280BD00020E24A403AE4
:1046B000115C002901D0491E1154401CC0B28A2847
:1046C000F6D3704770B5DD4B0025587A002806D028
:1046D000587E002803D15D72FFF7E3FF0124187CA8
:1046E000002855D0587E002852D11D741878030038
:1046F00000F0D2FD160C0F1215181B1E2124272ABC
:104700002D303336393C3F42454B484DFFF757FF7C
:104710003DE0FFF755FC3AE0FFF73FFC37E0FFF7DD
:104720001DFC34E0FFF7DAFB31E0FFF7A8FB2EE0D9
:10473000FFF776FB2BE0FFF741FB28E0FFF7FAFAE3
:1047400025E0FFF788FA22E0FFF760FA1FE0FFF7A5
:104750004AFA1CE0FFF716FA19E0FFF705FA16E02F
:10476000FFF7F4F913E0FFF7C1F910E0FFF78BF959
:104770000DE0FFF728F90AE0FFF719F907E0FFF766
:10478000FCF804E0FFF7F5F801E0FFF7AEF80124CC
:10479000FEF7F1FF002C01D0FEF712FFFEF7FFFE3F
:1047A00070BDF0B5A54E00207778FF25A449A54A35
:1047B000A54C3B0000F070FD09060C1014181C20DD
:1047C00024280B00B0704020F07080203071F0BDC4
:1047D0000D7010702070F0BD087015702070F0BD65
:1047E000087010702570F0BD0D7015702070F0BD50
:1047F0000D7010702570F0BD087015702570F0BD3B
:104800000D7015702570F0BD087010702070F0BD2F
:10481000F0B500208D49894C09782C34491E221DA1
:10482000C9B2131D1DE0255C002D1FD06D1E25543F
:10483000155C002D1CD06D1E15541D5C002D19D06B
:104840006D1E1D54265C824D824FAE5D3E54165C3B
:10485000814FAE5D3E541E5CAD5D804E3554401CB4
:10486000C0B27F4D2D78A842DDD3F0BD2154DFE7E3
:104870001154E2E71954E5E7F0B57049C87F401CD0
:10488000C0B2C877714B00221C78A04200D3CA770F
:104890006A4F20373878401CC0B238701C78A0426C
:1048A00000D33A707878401CC0B278701B78984278
:1048B00000D37A700020664DC97F3C787F78695CB0
:1048C0002C5D644A644E654BED5D115434541D54A7
:1048D000401CC0B20328F8D3F0BDF0B5574840786B
:1048E000002802D0012805D102E0FFF7C5FF01E052
:1048F000FFF78EFF0020574C5A49574D5A4E574FDD
:104900005A4A235C0B542B5C33543B5C1354401CBD
:10491000C0B20328F5D3F0BDF0B548490120487076
:1049200004203831488000200F46514E0C3F2DE0C6
:10493000325C464D11462B789A4202D32B78D21A1C
:1049400092B2D2B23A540C4640342B789C4202D3F5
:104950002B78E31A9CB2E3B2384C303423548031C4
:104960002C78A14202D32C78091B89B2334CC9B2EE
:1049700034342154364C374DA25C2A54E25C364B19
:104980001A54364A615C1154401CC0B2344909784B
:104990008842CDD3F0BD29490022CA77402308467A
:1049A00020300370802343704A700F2038314880D4
:1049B000704770B521490A20383148801F483F268A
:1049C00040780021234C244A244D030000F064FC6D
:1049D0000A06090C151E27525C656E08FFF7DBFFFF
:1049E00070BDFFF799FF70BD002026541154295463
:1049F000401CC0B20328F8D370BD002021541654C7
:104A00002954401CC0B20328F8D370BD00202154A3
:104A100011542E54401CC0B20328F8D370BD00209E
:104A2000265416542954401CC0B20328F8D370BD34
:104A3000A45700008A57000030040020980000208E
:104A4000D6000020D7000020D80000202D5C0000F8
:104A50006D5B0000D9000020DC000020DF0000209A
:104A6000745A0000E2000020E5000020E800002069
:104A7000715A000000203346235411542B54401C1B
:104A8000C0B20328F8D370BD0020215416542E5410
:104A9000401CC0B20328F8D370BD00202654165421
:104AA0002E54401CC0B20328F8D370BD00202154FE
:104AB00011542954401CC0B20328F8D370BD554985
:104AC000887A401CC0B28872022803D900208872FC
:104AD00001204872704700B5FEF724FDFF214D48C4
:104AE00091318184012181750021C17215220270EA
:104AF0000172C17100BD00B5FEF714FD454846497D
:104B00008184012181750021C17214220270017219
:104B1000424A1170C171017700BD01280FD00228EF
:104B20000FD004280FD008280FD010280FD020282D
:104B30000FD040280FD080280FD0002070470020D1
:104B400070470120704702207047032070470420FF
:104B500070470520704706207047072070470EB544
:104B6000A5206A4610702B4841795170C17D917023
:104B7000817CD170007D107129480078907129489E
:104B80000078D07128480078107228480078507258
:104B900031200C2269464002FEF737F90EBD1D494F
:104BA000488D401E0004000C488503D1C88C488500
:104BB0000120087470471749C87B401CC0B2C873F5
:104BC0000F2803D90020C873012048747047114989
:104BD000088D002801D0401E088570470D48017BD4
:104BE000002903D101854173012101737047104AE7
:104BF0001078002805D10748002101854173012064
:104C0000107070470348002101854173012101762E
:104C100070470000980000206C0700003900002059
:104C20007300002037000020610000203B000020BE
:104C30006000002000B55648017856480B0000F08F
:104C40002BFB0604090E13191F08416A01221143A8
:104C5000416200BD416A02221143416200BD416AC6
:104C600004221143416200BD4B48416A10221143A6
:104C7000416200BD416A012252021143416200BDFE
:104C8000416A012292021143416200BD00B54049D0
:104C900009780B0000F000FB060406090C0F121443
:104CA0003E480DE03D482A300AE03C48543007E0D9
:104CB0003A487E3004E03948A83001E03748D23025
:104CC000374902880A6242884A6282888A62C288B8
:104CD000CA6202890A6342894A6382898A63C289F5
:104CE000CA632F49028A40310A60428A4A60828A36
:104CF0008A60C28ACA60028B0A61428B4A61828BD7
:104D00008A61C08BC86100BD2748264941600160A7
:104D10002148416841600168016070471D48016891
:104D2000224A114001601C48016810229143016031
:104D3000704770B51A4E00247460FFF7EFFF1C48EF
:104D4000134D0078002812D16878401CC0B26870FA
:104D50000A280CD36C7000F0F3F8FDF775FEFDF730
:104D600019FF14490870FCF79EFC00F0B6F8FFF735
:104D70008DFFFFF75FFF306801210843306028781E
:104D8000401CC0B22870062800D32C7070BD0000F3
:104D9000D40000200080044000A00440DC02002079
:104DA00000200040FFFF000000400440F8F9FFFF32
:104DB000200000202100002050214843401E411CBB
:104DC000FCD1704710B50246284C294B03E0DC604B
:104DD0006420FFF7F1FF521E501CF8D110BD502186
:104DE0004843401E411CFCD1704710B502461F4C81
:104DF0001F4B03E0DC606420FFF7F1FF521E501CE4
:104E0000F8D110BD0D20401E80B20028FBD17047A4
:104E10000220401E80B20028FBD1704700B5400838
:104E2000401E81B203E0FFF7EDFF491E89B2002961
:104E3000F9D100BD00B53121FFF7E4FF491E89B269
:104E40000029F9D100BD30B50346084C084D07E0F4
:104E5000EC600922FFF7EEFF521E92B2002AF9D150
:104E600018465B1E9BB20028F2D130BDAA55FA5AF3
:104E7000000001400F490E4808600020886048602B
:104E80000B4A0D49921E0A6088602E224A600B4927
:104E900008600B4888600B4848607F210A48490237
:104EA0000160012149038160FF2120314160704789
:104EB000FFFF000000400440006004400080044008
:104EC00080AA02000706000000A004400120264935
:104ED000400408602549086070472648244901625B
:104EE000C161704700B52448016880221143016008
:104EF00020481721803881600021416181610721AC
:104F00004902C1611B4AFF21403AD163022101607D
:104F100001688907FCD40168012211430160FFF791
:104F2000DCFFFFF7D3FF00BD0120104940048031B2
:104F30000860704710480168802291430160F3E7E0
:104F40000C4900200862704710B50A4C606A094994
:104F50008039C969890506D5000204D5FFF7E9FE45
:104F60000120C005A06210BD80E200E000E100E089
:104F7000FFFF00008020004000E00540084807498E
:104F80004161FF21816107210161704710B504492A
:104F9000FF208861FBF760FB10BD000010170000C8
:104FA00000E000E01E481D49C160016804229143F1
:104FB0001C4A11430160704701201B4940060860EC
:104FC0001A4908601A490868FF22120290430860D3
:104FD000704714490843124988601048C8607047F8
:104FE000104908430E494860704700B50220FFF79A
:104FF000F7FF0C480A4B18603D20FFF7EAFFFFF768
:10500000DBFF18680749491C0843186000BD0120F0
:10501000064940068031086070470000AA55FA5AD8
:10502000000001400000FA5A80E200E000E100E0E8
:1050300018E400E02B4902228A60086100E000BF0A
:105040004868C007FBD1886840221043886000E0B0
:1050500000BF4868C007FBD1704710B5214B012441
:105060009C60186100E000BF5868C007FBD111E0E8
:105070001478507800022043947824040443D078B4
:1050800000062043D86000E000BF5868C007FBD18D
:10509000121D091F0029EBD158684007002802DAC9
:1050A0005960012010BD986840221043986000E0CC
:1050B00000BF5868C007FBD15868400702D5596047
:1050C000012010BD002010BD10B5002000210F23CD
:1050D000DB0204C994B22018120C10189942F8D3BC
:1050E00010BD00000020064034480F2181610421DA
:1050F0000161704710B53248016801221203114363
:1051000001602E4A10680F21090288430721090215
:1051100040181060106808210843106010680221D0
:1051200088431060106804218843106010680721CC
:10513000C903884310601068C910884310609068E4
:10514000000A0002801C906000205060106801215D
:105150008904884310601068C02108431060FFF77D
:10516000C3FF01231749580308601749086017490E
:105170000868FF242402A0430860106818431060E8
:1051800010BD0F48016801221203114301600B4852
:1051900001680122114301600168C02211430160CE
:1051A00070470648016849084900016004480168E1
:1051B00001221203914301607047000000C00140CA
:1051C00000E0054080E200E000E100E00CE400E0E7
:1051D00010B51748C068174C4006400F02D0012890
:1051E00006D102E01448206002E07D200002206029
:1051F0000121206800F028F82060104A10499042F0
:1052000002D91048086010BD0E48401F086010BD4C
:105210000C490B48491E0160491C016004480021EB
:105220000161C160C1684906490FFBD170470000A8
:1052300000000640EC000020006CDC0200366E012D
:10524000002006400500FA5A30B50B460146002002
:105250002022012409E00D46D5409D4205D31D467C
:105260009540491B2546954040191546521E002D74
:10527000F1DC30BD064C0125064E05E0E36807CCA5
:105280002B430C3C98471034B442F7D3FAF71CFF79
:105290002C5D00004C5D000030B47446641E25781F
:1052A000641CAB4200D21D46635D5B00E31830BC5A
:1052B000184702E008C8121F08C1002AFAD1704737
:1052C000002001E001C1121F002AFBD1704712012A
:1052D000000200000040AC054F021601010200016F
:1052E00005010906A101050719E029E715002501B7
:1052F0007501950881029501750881019505750173
:105300000508190129059102950175039101050709
:1053100019002AFF0095057508150026FF00810079
:1053200005FF0903750895018102050C0900158028
:10533000257F95407508B102C0050C0901A10185C2
:105340000319002A3C031500263C039501751081C2
:1053500000C005010980A101850205011981298389
:1053600015002501950375018102950175058101DF
:10537000C005010906A101850105071500250119D0
:10538000002977957875018102C0050C0901A101FA
:105390008501150025019520750109B509B609B7E4
:1053A00009CD09E009E209E309E409E509E909EAA7
:1053B0000A52010A53010A54010A55010A8A010AD4
:1053C00021020A23020A24020A25020A26020A27C7
:1053D000020A2A020A92010A94010A83010A0202BD
:1053E0000A03020A07020A18020A1A0209B881020D
:1053F000C005010980A101850219812983150025B5
:1054000001750195038102750595018101C00600B2
:10541000FF0901A10185031AF1002AF800150025F2
:1054200001750895028102C009023B00020100A03B
:1054300032090400000103010100092111010001EA
:105440002259000705810308000109040100010336
:105450000102000921110100012251000705820308
:1054600010000104030904200355005300420020EA
:10547000004B00650079006300680072006F006EE9
:105480000020004B0032001603550053004200205C
:10549000004400450056004900430045000000005C
:1054A0000100000012000000CE52000002000000C7
:1054B0003B0000002854000003000000040000002E
:1054C000635400000309000004000000635400005E
:1054D00003000100200000006754000003090100E0
:1054E00020000000675400000300020016000000C6
:1054F00087540000030902001600000087540000D2
:1055000005000000070000004354000005000000F3
:1055100007000000435400002100000009000000C3
:105520003A5400002101000009000000535400001B
:105530002200000059000000E0520000220100009B
:105540005100000039530000220200009E000000BC
:105550008A53000029352B39A1A000003A1E14F906
:1055600064A300003B1FF8FA1DA200003C2008FBCA
:105570001B0000003D211509060000003E22170A0D
:10558000190000003F231C0B052C00004024180DBF
:105590001100000041250C0E100000004226120FE1
:1055A000360000004327133337A60000442D2F3464
:1055B00038AF0000452E300000A40000462A3128F4
:1055C000A5FD00004C000000FCFE0000D34B4E4A3D
:1055D0004DFF00000000000000000000000000007F
:1055E00000000000000000000000000000000000BB
:1055F00000000000000000000000000029293ACF50
:105600003BCE3C863D873ED53FD440B141B342B00E
:1056100043B544BA45B91DAB0DEF2DD72ED6A3A384
:10562000525251511E971F9820991BAC0FF0FAADA2
:1056300012E54DE60EE706E4D3E32929CF3ACE3B47
:10564000863C873DD53ED43FB140B341B042B543DF
:10565000BA44B9451DAB0DEF2DD72ED6A3A3525298
:1056600051511E971F9820991BAC0FF0FAAD12E50F
:105670004DE60EE706E4D3E329293A3A3B3B3C3CAE
:105680003D3D3E3E3F3F4040414142424343444412
:1056900045451DAB0DEF2DD72ED6A3A35252515128
:1056A0001E971F9820991BAC0FF0FAAD12E54DE63E
:1056B0000EE706E4D3E329293A3A3B3B3C3C3D3D27
:1056C000D53ED43F40404141424243434444454596
:1056D0001DAB0DEF2DD72ED6A3A3525251511E97BD
:1056E0001F9820991BAC0FF0FAAD12E54DE60EE7BE
:1056F00006E4D3E329293A3A3B3B3C3C3D3D3ED5C9
:105700003FD44040414142424343444445451DABA0
:105710000DEF2DD72ED6A3A3525251511E971F988D
:1057200020991BAC0FF0FAAD12E54DE60EE706E44A
:10573000D3E31A1A04041616070752525050515157
:105740004F4FB500B600B700CD00E000E200E30027
:10575000E400E500E900EA0052015301540155015B
:105760008A012102230224022502260227022A029C
:1057700092019401830102020302070218026F00E2
:10578000700001020408102040803F394037413644
:105790004235433444335A325B1D5C1C471B462F51
:1057A000453031310D000102030405060708090ADE
:1057B0000B0C0D0E0F15161718191A1B1C1D1E1F8A
:1057C000202122242A2B2C2D2E2F30313233343518
:1057D0003637393F404142434445464748494A4BA2
:1057E0004C4E5455565758595A5B5C5D5E5F61622A
:1057F00063696A6B6F737475767778563114141415
:1058000014141414141414141C1D303245461414AA
:105810001414141407081B2F445A5B5C47331E14DE
:10582000061A2E43596F091F34485D1405192D427D
:10583000580A2035495E731404182C41570B213641
:105840004A5F741403172B40566B0C374C61751468
:1058500002162A3F6A0D22394E62761401155469E8
:105860000E24637714141414000F781414141414F1
:10587000141414140A0100010101020103000400C0
:1058800005000000000200020102020203010401FF
:1058900005000000000300030103020303020402E9
:1058A00005000000000400040104020403030400D6
:1058B00000000000000500050105020503040400C6
:1058C00000000000000600060106020603050400B1
:1058D0000000000000070007010702070306040696
:1058E0000500000000080008010802080307040082
:1058F0000000000000090009010902090308040072
:1059000000000000000A000A010A020A030904005C
:1059100000000000000B000B010B020B030A040A3D
:1059200005000000000C000C010C020C030B040B22
:1059300005000000000D000D010D020D030C040C0C
:1059400005000000000E000E010E020E030D040DF6
:1059500005000000000F000000000000000E040E13
:1059600005000000001000100110021003100410C8
:105970000500000000141414145469000000152AD6
:105980003F556A141401162B40566B141402172C41
:10599000415714141403182D425814141404192ECA
:1059A0004359141414051A2F445A6F1414061B304B
:1059B000455B141414071C31465C141414081D3282
:1059C000475D141414091E33485E7314140A1F34FF
:1059D000495F7414140B20354A607514140C213679
:1059E0004B617614140D22374C627714140E141484
:1059F00014141414140F24394E63781414181A1D37
:105A0000202326292C2F3235393D4145494D51550A
:105A1000595E63686D72777C81868C92989EA4AA89
:105A2000B0B6BCC3CAD1D8DFE6EDF4FBFFFFFBF490
:105A3000EDE6DFD8D1CAC3BCB6B0AAA49E98928CBA
:105A400086817C77726D68635E5955514D49454139
:105A50003D3935322F2C292623201D1A18600006C7
:105A60000B11161C21272C32373C41464B50555AFE
:105A70005D00183003001020304048000306090C78
:105A80000F1215181B1E2124272A2D303336393CBE
:105A90003F4245484B4E515456625A5D000810181B
:105AA000202830384048505803060C183060C06039
:105AB00030180C0603060C183060C06030180C015A
:105AC00004100240082002084010010440020801AE
:105AD0000410204002010102040810200102040801
