:020000040000FA
:10000000F8060020D9000000E1000000DB04000039
:1000100000000000000000000000000000000000E0
:10002000000000000000000000000000E5000000EB
:100030000000000000000000E7000000C94A0000C6
:10004000EB00000095070000000000000000000029
:1000500000000000000000000000000000000000A0
:100060000000000000000000000000000000000090
:10007000000000008D2F000000000000EB000000D9
:10008000EB000000834A00000000000000000000B8
:100090000000000000000000000000000000000060
:1000A00000000000E14A0000EB000000000000003A
:1000B000EB000000D7060000EB000000EB000000A2
:1000C0000348854604F074FE004800471D04000004
:1000D000F8060020704735000448004704480047F0
:1000E000FEE7FEE7FEE7FEE7FEE7FEE70178000039
:1000F000C1000000004800470900FF1FF8B502F0EA
:1001000099FCFA48017800297ED000250570F8494D
:100110000868002807D0401E0860002803D1F54871
:100120000570F5480570F5490878002808D0401E8C
:10013000C0B20870002803D1F1480560F14805708D
:10014000F14901240888002813D0401E80B208809D
:1001500000280ED1ED4A107800280AD0401E1070F9
:1001600005200880EA485121017089214170E94841
:100170000470E9490888002806D0401E80B2088033
:10018000002801D1E5480470E54E306800285ED0B3
:10019000401E306000285AD104F06FFC04F064FC6B
:1001A000E048056104F0A9FA02F0C6FA02F0F5FA97
:1001B000DD48816A821511438162816A40221143C0
:1001C0008162816A802211438162426A02210A436C
:1001D0004262416A042211434162416A082211438A
:1001E0004162D2480168D24A49084900114301607E
:1001F000642004F0BEFB00F084FACE480561C460C0
:10020000C168C906FCD500E021E0CB4C2069092774
:10021000FF06B8432061C648C849801C086003F047
:100220009CF82561C6490220086030BF0D6000F0CF
:10023000A0FA20693843206104F03EFC04F073FC0E
:1002400002F0F6F904F0E8FB4B20C0003060F8BD86
:1002500070B5A648BB4902780024002A05D0047076
:100260000888002801D0401E0880B7480069800730
:1002700018D50888002815D1C82004F07AFB04F0AE
:10028000FCFB04F0F1FBA9480168A94A49084900B0
:100290001143016000F002FB04F045FC04F00CFC8B
:1002A00004F0BAFBA94D2878012806D10822A849F4
:1002B00000F07EF9002800D12C70A64D2878012886
:1002C00007D11022A449022000F072F9002800D1C1
:1002D0002C70A24D287801280CD0A14D2878012837
:1002E00007D102229F49104600F062F9002800D190
:1002F0002C7070BD03229C49022000F059F900289F
:10030000F7D12C7070BDF8B5984FB878002872D02E
:100310000024BC7004F01FF995497B4E0888012524
:10032000002822D0401E80B2088000281DD19148AC
:100330000078002802D0012803D016E002F004FD66
:1003400013E002F034FDF87800280ED0142004F0F9
:1003500010FB052030806D49032008706C48512146
:100360000170892141706B48057083490888002815
:1003700025D0401E80B20880002820D17F48007818
:10038000D22809D07E4993280BD094280DD09528E7
:100390000FD09E2812D012E004F07AF802F0A7FDE8
:1003A0000DE00C7001F086F909E00D7001F082F9A2
:1003B00005E00220087001F07DF900E03580714908
:1003C0000878401CC0B20870322802D30C7047482D
:1003D00005706D4A1078401CC0B210706B498023C4
:1003E0000D786B49002D07D0FA2814D314700878C3
:1003F000584008700FE010E0664D2D78002D06D0B3
:100400004B2808D3147008785840087003E0087827
:100410004006400E087002F039FAF8BD04F096FC70
:1004200000F01CF9434C206A01252843206204F0A7
:10043000F3FA04F078FB04F03FFB04F0B1FA4B4808
:100440000021C170312149028989534A914200D16A
:10045000C57002F0BCFE01F019F804F0E9FB4F484A
:10046000A061444C2078012801D100F02BF94C4DBB
:100470002E4E4C4F0EE002F0CEF803F082FF2078B3
:10048000002802D0012805D102E0FFF7E1FE01E0DB
:10049000FFF734FEF560FFF736FF38780028ECD020
:1004A000E9E770B5314C6078401CC0B26070042838
:1004B00012D30025657003F0DFFF04F040F802F06E
:1004C0004AFD2078401CC0B22070042804D3257057
:1004D0000120A07004F04BF870BDBFF34F8F33497B
:1004E0003148C860BFF34F8F00BFFDE78B0000208D
:1004F00080000020640000206800002069000020C7
:10050000780000205C000020700000205F000020C8
:100510006E0000206000002072000020A700002074
:100520007C00002000E000E000A00440000001404A
:100530000000FA5A0000064000C0054000200640B6
:10054000402003406C000020040100203700002000
:10055000510000203A0000208001002038000020D7
:10056000390000204200002046000020000000204A
:100570008600002088000020440000202A0000207F
:100580003C000020890000208A0000208400002018
:10059000AD00002063000020AAAA000002C00000F5
:1005A000AA55FA5A8C0000200400FA0500ED00E07C
:1005B000F8B506460D4617462448B10008180268EB
:1005C000002A01DB0220F8BD002E03D0042E01D842
:1005D000402F01D90420F8BD0068400F042801D045
:1005E0000120F8BD1A48805D002804D0304600F094
:1005F000AFF80320F8BD174808180068B84201D2C8
:100600000520F8BD701E1449800008580090002491
:1006100014E0295D641C285D00020843641C295D08
:1006200009040143641C285D00060843641C01465C
:10063000009800F0EEF90098001D0090BC42E8D34D
:10064000F9B2304600F0A9F90020F8BD18C0054005
:1006500005000020F0000020E0000020F8B500F0C8
:1006600090FD00F004FFFD48016810221143016075
:10067000FB4C4021A1608023E360C0252561E0267A
:100680006661F848016043608560C660F6480160B5
:10069000082141608260C1600161F14DF348403D35
:1006A000286002266E611F27FF06322004F033F90E
:1006B0002F61EF48E06240076062EE480660EE4856
:1006C0000660F8BDE649002040390861EA49022089
:1006D00080310860704730B50124E6496007086042
:1006E000FF22E649F9320A62E54A1369C5122B4333
:1006F000136100228A61E04980310860E14804709A
:1007000030BDDE480021C1604161491E0162FF2108
:10071000F9318161D74980030860D7490860704783
:100720000120CF49C0024039886070470120CC4980
:1007300080024039886070470120C9494002403931
:1007400088607047FF20C649013040398860704793
:1007500004280DD8C24A8100283A8918002804D1FB
:10076000BF4840384068C00102D4072040070860F5
:10077000704710B5C4480168012211430160C348A5
:1007800000680007000F052801D004F0DFFA00F030
:10079000DFF910BD70B5B24D403D6C680020C0431C
:1007A000A860002C0DD0A0000ED5FFF7E2FF00F0EE
:1007B000C6F9E00108D5022004F094F800F01BFC13
:1007C00070BDFFF7D6FF70BD2868A00F0BD0002CBE
:1007D00004DAFFF7CEFF00F097F970BD6000FCD59A
:1007E00000F0A7F970BD2002C00E18D0200202D57B
:1007F00000F001FC70BD600202D500F040FC70BD4D
:10080000A00202D500F07CFC70BDE002800FFBD09E
:100810000320C004A8600020FFF79AFF70BD2005E8
:10082000000FFBD0E00501D5FFF78CFFA00501D537
:10083000FFF782FF600501D5FFF778FF2005EDD5B2
:10084000FFF76EFF70BD00209149401C8842FCD329
:1008500070471E20401E411CFCD1704700B5804AE5
:100860000620403A5061FFF7F4FF05205061FFF782
:10087000EAFF506904218843506100BD824801218C
:10088000C16000210161814A82491160C168C906C5
:10089000FCD50168804A114001607047F8B578487E
:1008A00001690222914301616D4C403C6068400047
:1008B00039D57A48816A831519438162816A402358
:1008C00019438162816A802529438162416A11430B
:1008D0004162416A042631434162416A0822114360
:1008E000416202F03AFD03F008FF01F025FF01F03C
:1008F00054FF6B480027076158490868A8430860FF
:1009000020690921C906884320615E4D2F70FFF7D9
:10091000F8FE0A2003F0F9FFFFF7B0FF606840001F
:1009200002D4FFF726FFF8BD5E48066030BFFFF730
:1009300020FF28780028F6D02F70514802695A49C4
:10094000914307D1016901229204914301618068BA
:10095000012805D055491E200880FFF77FFFF8BD0C
:10096000FFF77CFFF8BD3E494039CA6B0123834045
:100970009A43CA637047042805D83949800028394A
:100980004018002101607047042805D834498000D0
:1009900028394018090701607047042807D8304AF1
:1009A0008000283A80180522520789180160704794
:1009B0002B49403148600220C860C8688007FCD4D9
:1009C00088683B490860704700B50A46402A0ED245
:1009D000401E24498000085891084018FFF7E8FF9E
:1009E0009007C10E32480068C840C0B200BD002068
:1009F00000BD00B510290AD2401E1A4A80001058C6
:100A000089004018FFF7D4FF2948006800BD002086
:100A100000BD134A4032506091600120D060D06820
:100A2000C007FCD1704730B50B46402B15D2401E95
:100A30000C4980000858990845182846FFF7B8FF68
:100A40001B4804689807C30EFF2098408443114652
:100A5000994021432846FFF7DCFF30BD00E0054008
:100A600040C00540E0000020F0000020100000B071
:100A70000440000080E200E000E100E0008004406B
:100A80000401002004000020000006400020064071
:100A9000145000000000FA5AFEFFFF0F00A00440AF
:100AA00000E000E040200340800004006C000020D3
:100AB0001C000020102907D2401E104B800018583F
:100AC000890040181146A4E770470D4A90630C480E
:100AD00002214030016001688907FCD4D06B0949CC
:100AE00008607047064A9063D16305480121403091
:100AF00001600168C907FCD170470000E0000020D8
:100B000040C005401800002010B50020FE4AC04338
:100B10009060FE490120086100208860D060FFF7E6
:100B200017FE01242046FFF726FF641C042CF9D988
:100B300010BDF64801690222114301617047F34874
:100B40000169042211430161EF49D00688607047B2
:100B5000ED4801690922D2061143016101214906CC
:100B6000816070470120E84980068860704710B5B1
:100B7000E64CA06801280CD1E54A00200021115460
:100B8000401C0428FBD92079012802D8A278002A29
:100B900003D00020FFF7DCFD10BDDE4A1154FFF743
:100BA000E2FE206901210904084320610021084672
:100BB000FFF7F3FE10BD10B5D44CA068012814D186
:100BC0002078812811D1207901280ED8D149095CDB
:100BD0000020FFF787FF20690121C9030843206136
:100BE00001210020FFF7D9FE10BD0020FFF7B0FD66
:100BF00010BDF8B5C64DC54E3069800607D5B07832
:100C0000102101240027002805D0012819D0002038
:100C1000FFF79EFDF8BDB7603069084330610127DA
:100C2000EC553846FFF7A7FE7F1C042FF8D9306932
:100C3000012109040843306100210846FFF7ADFE99
:100C4000F8BDB46030698843306100242F55002C12
:100C50000CD02046FFF798FEAB480069611EC840E3
:100C6000C00703D000212046FFF797FE641C022C2A
:100C7000ECD930690121090408433061002108469C
:100C8000FFF78BFEF8BD70B5A04DA9680020FFF7F7
:100C900029FFA868012806D101242046FFF774FE29
:100CA000641C022CF9D99C480021016028690321A9
:100CB00089030843286101210020FFF76EFE70BD03
:100CC00010B50020FFF744FD10BD10B5044618060E
:100CD0001204104309020843204310BDF8B58F4F9A
:100CE0003C688A488C4EC0883168884200D23060A7
:100CF000306800281DD00025E378A278617820783C
:100D0000FFF7E3FF0146A800FFF7ECFE241D6D1C72
:100D1000EDB2102DF0D3306840280FD340210020D1
:100D2000FFF73BFE3868403038603068403830604C
:100D3000F8BD00210846FFF730FEF8BD3068C1B2AB
:100D40000020FFF72AFE00203060F8BDF8B500242F
:100D500000206E49724BCA780D798F780C260146B7
:100D600071435E5CB24211D1C9184E78B5420DD1C3
:100D70008E78B7420AD10C225043C0188288664848
:100D80000260664889680160012402E0401C102866
:100D9000E4D3002C08D05D4908690122D203104336
:100DA0000861FFF79BFFF8BD0020FFF7D1FCF8BDFD
:100DB00010B5564801692023994301610169402219
:100DC000114301618178002902D002691A4302614E
:100DD00001730169012212041143016100210846D7
:100DE000FFF7DBFD10BD70B5484D28784406640E52
:100DF000000602D50020FFF7ABFC002C05D0022C2A
:100E00000FD00020FFF7A4FC70BDA8780128FBD10B
:100E1000286944490843286100210846FFF7BDFDC1
:100E200070BDA8780028FBD128794006400E411EED
:100E30000129F5D8A9680129F2D1354A1154FFF7E3
:100E400087FC28690121090408432861002108461C
:100E5000FFF7A3FD70BD70B52C4D28784406640ED5
:100E6000000602D50020FFF773FC002C1AD0022CDC
:100E700017D1A878002814D128794006400E002206
:100E8000234BE10300281ED002280AD8AC68012CAD
:100E900007D11A5428690843286100210846FFF742
:100EA0007CFD70BDA8780128FBD12869802188438A
:100EB000286128691B4980390843286100210846B8
:100EC000FFF76BFD70BD28698006FBD51A70286995
:100ED0000843286100210846FFF75FFD70BD70B52B
:100EE0000A4D28784406640EC00901D1FFF730FC92
:100EF0000126F603002C26D0012C38D0022C21D15B
:100F000028794006400E0FE000C005400401002093
:100F10000500002014000020100000200C0000201C
:100F2000C84F00008001010002280BD8A349095CCA
:100F30000020FFF7D7FD28693043286102210020F7
:100F4000FFF72BFD70BD2869000604D502210020A3
:100F5000FFF7C8FD03E000210846FFF7C3FD28693D
:100F60003043286102210020FFF717FD70BDA868FB
:100F70000128FBD168790028F8D128790128F5D813
:100F800000210846FFF7AEFD2869304328610221A1
:100F90000020FFF702FD70BD10B5894840780300BE
:100FA00003F018FF0C070A250D25101316191C1F36
:100FB0002225FFF794FF10BDFFF74DFF10BDFFF78F
:100FC00012FF10BDFFF7F4FE10BDFFF7BFFE10BD0E
:100FD000FFF776FE10BDFFF756FE10BDFFF709FEC6
:100FE00010BDFFF7E8FD10BDFFF7C1FD10BD0020EB
:100FF000FFF7AEFB10BD7CB53320724CC004A0607F
:101000000020FFF7C1FC6068400331D46C4C2069BC
:101010000321C903884320610020FFF756FD6A4D74
:10102000286801900420FFF750FD2868009001987F
:10103000C0B220700199090A61700199090CA17070
:101040000199090EE170009921710099090A6171F5
:101050000099090CE18060210840002802D0202876
:1010600003D008E0FFF798FF7CBD00F0CEF97CBD0F
:1010700001208004A0600020FFF76AFB7CBD70B5F2
:101080000120504E8005B060504DA87C022815D13B
:101090000020A87468694E4988420DD1A8694D495D
:1010A000884209D10024A0000021FFF71BFD641C29
:1010B000402CF8D3FFF71EF80420A874404C206998
:1010C000454D40060CD52069402188432061207B96
:1010D000F0600020FFF73CFB2069A843206170BD51
:1010E000E088002808D02069C00305D4FFF7F6FD8A
:1010F0002069A843206170BD0020FFF729FB70BD67
:10110000F8B501212F4849058160304DA87C2E4E4D
:10111000012819D0686D80050DD5686D09138843C5
:1011200068650020FFF7D1FC30682870686D0121E8
:10113000490308436865224C2069000412D4002149
:101140000846FFF72AFC16E00024A0000746FFF738
:10115000BCFC306879194861641C102CF5D302205E
:10116000A874E8E717484168C90104D481690122DD
:10117000D2061143816120690121C903884320619E
:10118000F8BD00200D4A00211154401C0528FBD356
:101190000020124A1154401C0428FBD30848017057
:1011A00041708170C17001714171C18081600173B2
:1011B00001690122520411430161704705000020BA
:1011C0000401002000C00540180000201801002084
:1011D000AA42895AFF7162CC00000100140000206D
:1011E00010B5A74A107821281BD1A649486D0123C4
:1011F0001B03184348651079012812D890780028FD
:1012000004D14B6D0324A402A3434B6548741069B9
:10121000012109040843106100210846FFF7BDFBC6
:1012200010BD0020FFF794FA10BD10B59448017866
:10123000212914D10169012212041143016191494C
:101240004A6D0123DB021A434A650279012A06D856
:10125000C078087400210846FFF79FFB10BD0020EE
:10126000FFF776FA10BD10B5864901208874002179
:101270000846FFF792FB10BD10B5814801690122B5
:101280001204114301617F48416DD2111143416540
:1012900000210846FFF781FB10BD10B578480178A2
:1012A000212907D10179002904D1C078022805D06D
:1012B000032806D00020FFF74BFA10BDFFF7DCFF34
:1012C00010BDFFF7D0FF10BD10B56D4C2078A128E0
:1012D00016D16C48416DC90401D4012141742179B2
:1012E00001290DD8417C0020FFF7FCFB206901217A
:1012F000C9030843206101210020FFF74EFB10BD08
:101300000020FFF725FA10BD10B55D4C2078A1280C
:1013100008D15C48416D0122D20211434165217917
:10132000002903D00020FFF713FA10BD017C002034
:10133000FFF7D8FB20690121C9030843206101217F
:101340000020FFF72AFB10BD10B54F4900200860B0
:101350004B4801690122D20311430161052100209C
:10136000FFF71BFB10BD10B500210846FFF715FB6A
:1013700010BD10B5434801780020FFF7B3FB40488B
:1013800001690122D2031143016101210020FFF70D
:1013900004FB10BD10B53C490020086038480169C5
:1013A0000122D2031143016108210020FFF7F5FA61
:1013B00010BD10B532480178A1291FD181680129DB
:1013C0001CD10179C078002902D0012910D015E084
:1013D000012804D0022805D0032806D00EE0FFF72C
:1013E000D9FF10BDFFF7C5FF10BDFFF7BCFF10BD53
:1013F0002449497C012901D1012803D00020FFF7AD
:10140000A7F910BDFFF7A0FF10BD10B51C4840782C
:10141000030003F0DFFC0C19070A0D19191919193B
:1014200010131619FFF7C5FF10BDFFF76DFF10BDB4
:10143000FFF74AFF10BDFFF730FF10BDFFF7F5FEC5
:1014400010BDFFF7CDFE10BD0020FFF781F910BDE4
:1014500010B50D4900200860094801690122D20336
:101460001143016105210020FFF797FA10BD0548DF
:101470007D2101740121417400218174416570470F
:10148000040100201801002010000020FE49002067
:10149000487003200B3908700220091F0870FB49AF
:1014A00001200870704730B5F848F74B1038313BD1
:1014B000DA79815C9878414019710024002915D0AF
:1014C0005979022200290BD0DD7885420BD1491EC3
:1014D000C8B25871002802D1DC700120587030BDAC
:1014E0005A71D87030BD5A71D87030BD5C71521CC1
:1014F000D0B2D8711028F8D3DC7130BD70B500249B
:101500000020E14D295C0C43401CC0B20828F9D3EF
:10151000DD4A0123313A0021002C07D0D375D17266
:1015200000202954401CC0B20828FAD3002401200E
:10153000D64D2E5C3443401CC0B21028F9D3002C89
:1015400006D0937601202954401CC0B21028FAD34B
:1015500000240120CC4D0B3D2E5C3443401CC0B216
:101560000328F9D3002C06D0137601202954401CFF
:10157000C0B20328FAD3C4480F384478002C01D0F5
:101580005376417070BDF8B50024BF48C14F313863
:10159000817ABF480678BC4831380346828C2033B4
:1015A0005D78407B93290BD0942918D0952925D0BC
:1015B000B54BB94D313BD2292FD09E2949D071E08E
:1015C0000124002E6ED0B0493139002801D08F841B
:1015D00068E0002A66D0012045405D7062E0012489
:1015E000002E5FD0A8493139002801D08F8459E0FE
:1015F000002A57D0022045405D7053E00124002EA0
:1016000050D0A1493139002801D08F844AE0002A06
:1016100048D0042045405D7044E00124002841D0BA
:101620009E480178002912D00021017001F076F95E
:1016300001F0CDFD2878012804D0FFF70FF801F064
:1016400083FB2FE0FFF73EF801F0B1FB2AE09F8417
:1016500028E00124002807D09F842878012821D180
:101660008F49032008701DE0002A1BD000269E84AD
:1016700002F084FF2878002802D001280BD011E066
:101680000120287002F036FF01F091FB85480670BA
:10169000FFF718F806E02E7002F02CFF01F054FB63
:1016A000FEF7DCFF78483138417B002900D1818486
:1016B0002046F8BD70B5744D0026313D687F2C463C
:1016C000203400281FD06E7720782A7F904219D1CD
:1016D0006E4C754D5034002A23D0C926F601012ADC
:1016E0002CD0714D8035022A34D0032A0AD14022F1
:1016F000A11A284601F055F9652040222146000232
:1017000001F04FF970BDEE7602F072FF00205F49E4
:1017100010310E54401CC0B28028FAD3287F2070AC
:1017200070BD5A49192040221031800201F039F968
:1017300040222146284601F034F970BD5349402229
:101740001031284601F02DF940222146304601F0A3
:1017500028F970BD4D4940221031304601F021F981
:1017600040222146284601F01CF970BDF8B54649D3
:10177000002431394B7F0846427B807A9C46002BFF
:1017800002D00B7B002B42D0012A49D10125F2283F
:1017900051D0464E464FD3285CD04649464B0A7836
:1017A0001978D02869D0D82868D0D92867D0364E83
:1017B000313EF12864D0414ED728367861D0D62802
:1017C00060D03F4ED42836785DD0D5287CD0122604
:1017D000DC287AD0DD2879D0DE2878D0DF2877D0D1
:1017E000E02876D0E12875D0E22874D0E32873D0C1
:1017F000E42872D0E52871D0234F2549313F3B467C
:101800002122D25C09789B7B1D2868D0BEE1AF28DD
:1018100006D00D46C97E802903D3FFF74BFFAC727B
:10182000F8BD1A4B10335854491CC8B21A54401C06
:10183000E876AC72F8BD22460C468A7221490878D7
:10184000401CC0B208700A2800D30A7001F03CFCAA
:10185000A575F8BD8C723878401CC0B2387012285B
:1018600000D33C7003204003C27815490A70017907
:101870001248017001F08CFC32E039E0A3E0A6E0F0
:10188000A9E0ACE0BEE0D0E05100002080010020E3
:10189000A9000020DC0500008800002003000020D3
:1018A0005F0000206600002040640000A5000020CA
:1018B000910000208C000020A20000209F0000204A
:1018C0009D0000208D000020C2E0CCE0D8E0E5E0E3
:1018D000F2E0FFE00CE119E126E133E140E14CE107
:1018E000F8480570347002F0ECFB02F003FEF8BD1E
:1018F000F5488472132AFAD1F4480278002A1AD0E3
:101900000470012921D0022925D003292AD00429D5
:101910002FD0052934D0062939D007293ED00829EF
:1019200043D0092948D00029E1D11822E849E948E3
:1019300001F037F8F8BD02F02AFE0020E4490C540B
:10194000401CC0B21228FAD3F8BD1822E049E24880
:1019500001F027F8F8BDE0481822DD49203001F0F9
:1019600020F8F8BDC5201822D949C00101F019F8A6
:10197000F8BDD9481822D649603001F012F8F8BDF8
:10198000D5481822D249803001F00BF8F8BDD14873
:101990001822CF49803801F004F8F8BD63201822DE
:1019A000CB49000200F0FDFFF8BDCA481822C84923
:1019B000403800F0F6FFF8BDC6481822C449203868
:1019C00000F0EFFFF8BDC04884723570F8BDBE4826
:1019D00084723470F8BDB472B573F476F8BDBA4A47
:1019E0009472BE49012E0AD9761EF0B20870B5492C
:1019F0000D7095750128F1D102F0C0FDF8BD02F01F
:101A0000BDFDF8BDB04A9472B449052E0AD2761CC9
:101A1000F0B20870AB490D7095750528F1D102F050
:101A2000ADFDF8BD02F0AAFDF8BDA74FBC72AC4CED
:101A3000052E0AD2761C267001F0AAFBBD7520780F
:101A40000528F1D102F09AFDF8BD02F097FDF8BD2E
:101A50009D4FBC72A248002EF9D0761E067001F090
:101A600097FBBD75F8BD012901D1132AFAD01D706D
:101A70009C4804703E7002F024FB02F03BFDF8BD70
:101A8000022901D1132AFAD0022018709548047057
:101A90003E7002F016FB02F02DFDF8BD032901D1C6
:101AA000132AFAD0032018708E4804703E7002F09A
:101AB00008FB02F01FFDF8BD042901D1132AFAD05A
:101AC00004201870874804703E7002F0FAFA02F0A1
:101AD00011FDF8BD052901D1132AFAD0052018708F
:101AE000804804703E7002F0ECFA02F003FDF8BD8D
:101AF000062901D1132AFAD00620187079480470FB
:101B00003E7002F0DEFA02F0F5FCF8BD072901D1C3
:101B1000132AFAD007201870724804703E7002F041
:101B2000D0FA02F0E7FCF8BD082901D1132AFAD057
:101B3000082018706B4804703E7002F0C2FA02F080
:101B4000D9FCF8BD092901D1132AFAD0092018704F
:101B5000644804703E7002F0B4FA02F0CBFCF8BDA9
:101B6000002901D1132AFAD01C705E4804703E701F
:101B700002F0A7FA02F0BEFCF8BD002906D0D60795
:101B800004D16646002E01D1002B02D01B280BD0B9
:101B900013E01920800200780028EDD03C70BD735E
:101BA0003C77BC72FC76F8BD002906D0960704D4B9
:101BB0006646002E01D1002B16D00628F3D100294D
:101BC000F1D05007EFD460460028ECD1002BEAD1C9
:101BD000C920C00100780028E5D03C70BD73022008
:101BE0003877BC72FC76F8BD3A48E03000780028BF
:101BF000F9D03C70BD733D77BC72FC76F8BD10B572
:101C000000203149384B897A384A05E044001C5D90
:101C10008C4205D0401CC0B21488A042F6D3FF20ED
:101C200010BDF0B5FFF7EBFFFF281ED026492E4B65
:101C30004F7B0A462E4C2F4D29322F4E002F33D08A
:101C40000F7B002F07D0CF7F002F17D0012F1AD086
:101C5000022F21D11CE0CA7F002A07D0012A09D017
:101C6000022A02D14000285C8872F0BD4000185C56
:101C70008872F0BD4000205C8872F0BD4400E3181B
:101C80005B788B7208E043001B195B788B7203E072
:101C900043005B195B788B72C1084007400F535CAF
:101CA000305C03435354F0BDCF7FBC46002F04D0BB
:101CB000012F23D0022F28D124E04700DF5D8F724F
:101CC00023E00000A100002020000020A30000204D
:101CD0000203002060630000406200009F000020BB
:101CE0009D0000208C00002024510000D600000040
:101CF0008E510000F8510000B25200004700E75D2D
:101D00008F7202E04700EF5D8F72C708F84ABE4647
:101D1000D25D47077F0FF65D3242C4D06746002F81
:101D200004D0012F07D0022F0ED109E04000C018C7
:101D30004078887208E0400000194078887203E01B
:101D40004000401940788872E948B24371464254D5
:101D5000F0BDF8B5E74E002434804B20E649C000C2
:101D60000860E34F293FB87A002832D0FFF759FFC7
:101D7000FFF7FCFCFFF707FC01282AD0B87A3946A8
:101D8000002826D08C84D122EF2802D0F62807D054
:101D90000AE08A72087D002806D0F620887203E0E7
:101DA000087D002800D08A72887A0125AE2809D0E3
:101DB000D24F9C2810D03A46127851279446012AD7
:101DC00027D031E0487B012803D1487C012801D08D
:101DD0004D74F8BD4C74F8BD8C72487B0128FAD163
:101DE00002F0CCFB3878002809D00128F3D13C70F0
:101DF00002F080FB00F0A8FFFEF730FCF8BD3D705C
:101E000002F078FB00F0D3FFBD480470FEF75AFCE7
:101E1000F8BDBC4A972820D0982834D0992849D0BA
:101E20009A285ED09B287AD0D12872D00E46F52809
:101E300070D0F6286FD09F286ED0717DA222A62385
:101E4000002909D0A32868D0A22867D0A6287DD071
:101E500065287CD0A4287BD0B9E0487B0128D7D165
:101E6000157002F047FBA848077081214170A74810
:101E7000057002F083FB1E203080A5490320087006
:101E8000A4480470F8BD487B0128FBD102201070E3
:101E900002F030FB9C480770822141709B4805701E
:101EA00002F06CFB1E20308099490320087099488D
:101EB0000470F8BD487B0128FBD10420107002F0AB
:101EC00019FB91480770832141709048057002F01A
:101ED00055FB1E2030808E48032101708D48047010
:101EE000F8BD487B0128FBD10820107002F002FBEE
:101EF00085480770842141708448057002F03EFBDC
:101F00001E20308082490320087082480470F8BD8A
:101F100005E01EE027E034E041E04DE04EE0487B84
:101F20000128F4D11020107002F0E4FA764807700E
:101F3000852141707548057002F020FB1E2030801D
:101F400073480321017073480470E0E739E03BE017
:101F50003CE0487B0128DAD1C87B012801D0CD7351
:101F6000D5E7CC73D3E7707B0128D0D102F006FB14
:101F7000F07C002803D0F47402F0BCFAC7E7F574D3
:101F8000FAE7707B0128C2D102F0F8FA307D002810
:101F900003D0347502F0AEFAB9E73575FAE7707B15
:101FA0000128B4D102F0EAFA5B480178002901D097
:101FB0000470ACE70570AAE7B27208E0A320B07223
:101FC00005E0A720B07202E0B37200E0B372F07CCB
:101FD000314600280AD0887A392802D0A02803D0B8
:101FE00004E0A020887201E039208872087D002872
:101FF00009D0887AA32802D0A22802D003E08A72EE
:1020000001E0A3208872C87B012806D1887AA32822
:102010009BD0A72899D0652897D0887AF7282AD00E
:10202000F32832D0F4283FD0314E0836E62849D084
:10203000E72875D0F82808D30A7C002A71D0400719
:10204000020F36481018407888720846897C0029AB
:1020500010D0817A382971D0652970D0A4296FD029
:10206000A6296ED052296DD051296CD04F296BD042
:1020700050296AD0A9E0487B01288DD1087C00282E
:1020800001D00C7443E70D7441E7487B0D460128ED
:1020900008D1E87F401CC0B2E877032800D3EC7772
:1020A000FFF72CFAAC7232E7487B0E46012807D1C5
:1020B000B07C002801D0B47400E0B574FFF71EFABC
:1020C000B47224E7487B0D460028DBD002F056FAB4
:1020D0006C7502F00FFA00203454401C80B20828BE
:1020E000FAD30648007800281CD0012820D021E02F
:1020F00049000020700000207C00002088000020A3
:10210000660000206A0000206E00002060000020B1
:102110005F00002068000020A9000020625200003B
:1021200014E037E00822FD490120FEF741FA01E002
:1021300000F0AFFE0A2002F01CFCE8E630E032E0DE
:1021400033E035E037E039E03BE03DE0487B0F46E7
:10215000002897D002F012FA7D753C7502F0CAF99A
:10216000FC7300203454401C80B20828FAD3EC4899
:102170000078002802D0012806D007E00822E749AD
:102180000120FEF715FA01E000F083FE0A2002F0BC
:10219000F0FBBCE64007020FE248805C887254E71F
:1021A0005221817211E087720FE04F2181720CE0A1
:1021B0005021817209E03821817206E06521817227
:1021C00003E0A421817200E083720146807AAF2887
:1021D00004D0D54A1278132A18D01BE00F468D710F
:1021E0003C73787B01280FD0B87D002802D0BC75E5
:1021F00002F080F9787D00289FD0FD75F471787B1E
:1022000000289AD0F57182E63D73F3E7C74A127849
:10221000012A92D0C14A0B3AB02810D3032313707D
:102220000D76497B012902D0547094706FE6B03866
:102230004100BF48405A5070000A907067E6BD4F99
:10224000A82817D34D76022313704A7BB3490F3960
:10225000012A08D03818C038037E4A78FF2043404E
:102260001A404A7053E63818C0384A78007E024354
:102270004A704CE6A02813D3CD75497B012908D0BC
:102280004007400F385C3178FF22504001403170E8
:102290003DE64007400F3178385C0143317036E647
:1022A0004A7B012A0FD09D493139CA7A002A4AD087
:1022B000B1188B7883422CD1984B8C70313BDD75F3
:1022C000521EDA723FE0CB7A052B11D2002B09D0D7
:1022D000002205E0B418A478844294D0521C92B233
:1022E0009A42F7D3F21890705B1CCB72CD750EE654
:1022F0006246012A87D0782885D28D768E490D7066
:10230000C20851184007400F4A78385C02434A70AF
:10231000FDE5002115E073189B7883420FD17F4FB4
:10232000521E313F04E07018C3788370491C89B293
:102330009142F8DB70188470FD75FA72E7E5491C6C
:1023400089B29142E7D37549313978288AD26246F9
:10235000012A87D08D7678490D70C2085118400740
:10236000400F385C4A78FF23584002404A70CEE55F
:10237000F0B56A490120313988776B486F4F06788C
:102380000846417A407B4900CD196D4C6D4A0D2EAF
:1023900003D06D4B0F2E0DD045E0795C6B78C900F2
:1023A0000919C95C002802D0FE205054F0BDFD2060
:1023B0005054F0BD002836D0785C69785D4D695C7A
:1023C000624E355C0D4335541D5C0D431D54012098
:1023D000374639182039CD7F3E5C3543CD77122101
:1023E000091ACE18203E5D5CF67F35435D54401CD3
:1023F000C0B21228EDD30021FF255448445C585C3C
:10240000044300204E4FCE00F619E70701D0375C99
:10241000D5556408401CC0B20628F6D3491CC9B281
:102420001229EAD3F0BD0E2E02D0112E0DD03FE0BE
:10243000795C6B78C9000919C95C002802D00020BA
:102440005054F0BD01205054F0BD002830D0785CCD
:102450006978384D695C3D4D2E5C0E432E541E5CF0
:102460000E431E543A4F3E5C0E433E54394E375C89
:102470000F43375400203549364D0B5C32492D5CF3
:10248000095C0B433249095C29430B430021C50019
:102490002D19DE0702D06F5CFF26D6555B08491C5C
:1024A000C9B20629F5D3401CC0B21228E3D3F0BD4F
:1024B000132E11D100280FD01C4800780128F6D126
:1024C000785C6978244C0125235C2A468A40534075
:1024D000235422480570F0BD102E41D100283FD072
:1024E000785C1A4D3F21295419540021FF251748C3
:1024F000445C585C04430020114FCE00F619E707F6
:1025000001D0375CD5556408401CC0B20628F6D30C
:10251000491CC9B21229EAD3F0BD000051000020C5
:1025200088000020625200008C000020A3000020E0
:1025300072520000B2520000800100209953000046
:102540009954000028040020A202002090020020DC
:10255000B4020020C6020020020300209B000020DD
:10256000122ED9D10028D7D0795C6878FE23CD000F
:102570002D192E5C9355002909D04E1EF6003619F0
:10258000375CD355052802D2361876789355002843
:1025900003D02E18203EF67F9355052802D22D1821
:1025A0006D7853551129B7D2491CC90009190C5C23
:1025B00013550028B0D008182038C07F1354F0BD40
:1025C00070B5CE4CCE49E279A078885400252572AA
:1025D0002079C00712D0E079217AC00040186072DB
:1025E0006573A078C00701D001206073FFF7C0FEBB
:1025F000C448617A405CA072FFF7ABFBA07840084A
:10260000A070207940082071207A401CC0B220724E
:102610000828DDD370BD10B5B84C6078002806D00E
:10262000A07B002803D1FFF7CBFF0020607010BD16
:10263000B5484168090C09044160B448416849083B
:1026400049004160704700B5AC480122C179AE48ED
:102650000B0002F0BFFB110A0E13181D22272C31AC
:10266000373D43494F545A600D00416A114341625E
:1026700000BD416A02221143416200BD416A042249
:102680001143416200BD416A08221143416200BD0D
:10269000416A10221143416200BD416A2022114368
:1026A000416200BD416A40221143416200BD416A5E
:1026B00080221143416200BD416AFF220132114371
:1026C000416200BD416A012252021143416200BDD4
:1026D000416A012292021143416200BD416A012216
:1026E000D2021143416200BD416A0122120311432B
:1026F000416200BD8548416A1143416200BD416AA3
:10270000012252031143416200BD416A012292033A
:102710001143416200BD416A0122D203114341626B
:1027200000BD79480168090C090401607748016817
:10273000490849000160704773484168744A114371
:10274000416072484168012211434160704710B5F1
:102750000024FFF7F1FFFFF7E4FFFFF774FF0A2003
:1027600002F0F2F86B480168C90600D5022401683E
:10277000890601D504210C430168490601D50821C9
:102780000C430168090601D510210C430068C005FF
:1027900001D520200443204610BD5B4801685C4AF7
:1027A00011430160594801680122114301607047DB
:1027B00000B552480122C17953480B0002F00AFBD0
:1027C000110A0E13181D22272C31373D43494F544F
:1027D0005A600D0041681143416000BD416802220A
:1027E0001143416000BD416804221143416000BDB6
:1027F000416808221143416000BD41681022114325
:10280000416000BD416820221143416000BD416824
:1028100040221143416000BD416880221143416064
:1028200000BD4168FF2201321143416000BD416893
:10283000012252021143416000BD4168012292020F
:102840001143416000BD41680122D2021143416041
:1028500000BD4168012212031143416000BD2B48B5
:1028600041681143416000BD416801225203114398
:10287000416000BD4168012292031143416000BDE7
:1028800041680122D2031143416000BD70B50020B0
:102890001A4C2178491CC9B221701E2929D3002560
:1028A0002570A17B012924D1217F002906D001298F
:1028B00007D0022907D0032908D009E01920800297
:1028C00006E0154804E0C920C00101E0124880304C
:1028D000E17E425C002A0DD080290BD2425CA272BC
:1028E000491CC9B2E176405C6073491CE176FFF790
:1028F00030FA70BDFEF702FEA57370BD2000002007
:10290000700100207C5000000040044000A0044002
:10291000FFFF00000080044040640000F8B5002084
:102920003449002642008E52401C80B28A28F9D3D6
:10293000022002F01EF8002403272F4D7F03002001
:10294000A1010A18D21912782A54401C80B24028DA
:10295000F7D3312040020818274A402102F01BF922
:1029600001281CD0641CA4B2082CE8D324492348B5
:10297000C86000202E54401C80B24028FAD30024A6
:102980001925AD02A00140191B4A402102F003F9AC
:10299000012805D0641CA4B2062CF3D3F8BDFEE7D1
:1029A000FEE770B50B4614460021134A03E05D5C58
:1029B0005554491C89B2A142F9D30F4A214602F06D
:1029C000EAF8012800D1FEE770BD70B50B46144649
:1029D0000021094A03E05D5C5554491C89B2A142BB
:1029E000F9D3054A214602F0D6F8012800D1FEE7C6
:1029F00070BD000014030020B2040020AA55FA5A4A
:102A000000000140F74932200880F7490020087093
:102A1000F648012101724B21C90041627047F24919
:102A200000200870F1490120C871FF20ED492D30C8
:102A300008807047F0B5EE4A10680121C3070020F6
:102A4000EA4E002B2FD1EB4BEC4F1D7833465C78D0
:102A5000E94B002D28D0002C26D0E64C2070546A7B
:102A600002252C4354620922B271A1221A8000224D
:102A7000E34CA45C521C55005C53D2B2082AF7D335
:102A8000FA68D206FCD43A68C02422433A603A6815
:102A90001206920F032AFAD01A88FA61B161F06126
:102AA0007070C822B270D2E0D64D2D78002D28D09B
:102AB000002C26D0D34C2070546A02252C4354623B
:102AC0001122B271A2221A800122CF4C5500A45CBF
:102AD0005C53521CD2B2102AF7D3FA68D206FCD447
:102AE0003A68C02422433A603A681206920F032AD9
:102AF000FAD01A88FA61B161F0617070C822B270C0
:102B0000A5E0C24D2D78002D23D0002C21D0BF4C44
:102B10002070546A02252C4354620322B271A3220E
:102B20001A80BB4C65789D80A4785C80FB68DB06CE
:102B3000FCD43B68C02423433B603B681B069B0FCF
:102B4000032BFAD0FA61B161F0617070C822B270E3
:102B50007DE0B04D2D78002D27D0002C25D0AD4C38
:102B60002070556A022425435562B471A4221A804C
:102B70000122A94C5500A45C5C53521CD2B2022A1B
:102B8000F7D3FA68D206FCD43A68C02422433A60EC
:102B90003A681206920F032AFAD01A88FA61B161D4
:102BA000F0617070C822B27051E03579002D28D0E4
:102BB000002C26D03071546A02252C435462032223
:102BC000B271A6221A800022884C1234A45C521CD6
:102BD00055005C53D2B2022AF6D3FA68D206FCD46E
:102BE0003A68C02422433A603A681206920F032AD8
:102BF000FAD01A88FA61B161F0617070C822B270BF
:102C000025E07579002D22D0002C20D07071556AF6
:102C1000022425435562B471A5221A8058807F4C46
:102C20002478002C01D003245C80FB68DB06FCD4F4
:102C30003B68C02423433B603B681B069B0F032B70
:102C4000FAD0FA61B161F0617070C822B270327866
:102C5000002A14D0684A403213885288B12B02D11E
:102C6000F469022C05D0644C4034A488B62B07D0FC
:102C70000DE03070F06150076949400F0870F0BDF9
:102C80005A2A04D1062C02D1F569032D03D0654FD1
:102C9000B62B08D00EE03070F0614B20C000F082FF
:102CA000FFF7BDFEF0BD5A2A04D10A2C02D1F56906
:102CB000032D02D0B62B06D00CE03070F061F0711D
:102CC000F0823870F0BD5A2A04D1072C02D1F56980
:102CD000032D02D0B62B06D00CE03070F0613970B5
:102CE00032203062F0BD512A04D1772C02D1F5692F
:102CF000032D02D0B62B06D00CE03070F070F061DE
:102D0000FFF780FEF0BD512A04D1762C02D1F5697F
:102D1000032D02D0B62B07D00DE03070F061307279
:102D200070623173B082F0BD512A04D1782C02D187
:102D3000F169032905D0F1690329F4D9F0613070F4
:102D4000F0BD3070F061F0BDF0B5284B00251D726C
:102D50002748416A02221143416203209871264AA2
:102D6000A620108058201C46123420700126667060
:102D70000020215C401C4700D153C0B20228F8D388
:102D80001E48C168C906FCD40168C0242143016003
:102D900001680906890F0329FAD01188C1619E6173
:102DA000DD615D70C82098701E201882F0BD30B5BE
:102DB0000F49486A0222104348620C490320887177
:102DC0000D4AA6201080887B0B465124123301281F
:102DD0002AD002282CD004282ED0082830D0102841
:102DE00032D034E0B2000020990000205C000020C6
:102DF00000600440370000201002002000C00140A5
:102E0000510000203A0000208001002038000020FE
:102E10004600002039000020420000202D00002044
:102E200018010020A70000201C70812058700EE0BF
:102E30001C70822058700AE01C708320587006E0D5
:102E40001C708420587002E01C708520587000208F
:102E50001C5C401C45005453C0B20228F8D36B4898
:102E6000C368DB06FCD40368C02423430360036803
:102E70001B069B0F032BFAD01288C26101208861C8
:102E80000022CA614A70C8238B7088720A73C872A4
:102E900030BD70B55E48002303705E48416A02226F
:102EA000114341625C4A092090715C49A12008806D
:102EB00000205B4D2C5C401C46008C53C0B208289F
:102EC000F8D35248C468E406FCD40468C0252C43F7
:102ED000046004682406A40F032CFAD00988C16199
:102EE00001209061D3615370C820907070BD30B5DF
:102EF0004848416A022211434162474A03209071C7
:102F00004649A620088051201346123318707020BD
:102F1000587000201C5C401C45004C53C0B2022875
:102F2000F8D33A48C368DB06FCD40368C0242343C3
:102F3000036003681B069B0F032BFAD00988C1614D
:102F4000012090610020D0615070C82191701E2135
:102F50001182107230BD30498878002815D0401E8B
:102F6000C0B288704A7810430FD1012048702948B8
:102F7000816A022211438162244801690822914337
:102F8000016101690422114301617047F0B5214FCD
:102F900038680124C007022504261F491B4A00285F
:102FA00010D0506940070CD5D369C869471CCF6160
:102FB0001A4F400040373B520C704D7390693043BC
:102FC0009061F0BD50694007FBD58B7988699842C4
:102FD00006D3B86A2843B8624C700020886105E0C7
:102FE000431C8B610D494000085AD061D06990693B
:102FF00030439061F0BD0B49782008800A490020D9
:1030000008700549012048727047000000C0014067
:1030100037000020006004405C0000201002002007
:1030200051000020B200002099000020F0B5FA49BC
:103030000120487004203631488000200F46F74EAA
:103040000C3F2DE0325CF64D11462B789A4202D3AC
:103050002B78D21A92B2D2B23A540C4640342B7822
:103060009C4202D32B78E31A9CB2E3B2EA4C2E3492
:10307000235480312C78A14202D32C78091B89B2C9
:10308000E54CC9B232342154E64CE74DA25C2A54D7
:10309000E25CE64B1A54E64A615C1154401CC0B233
:1030A000E44909788842CDD3F0BDDB48002181771F
:1030B0004022C277802302462032137041700F20D5
:1030C000114616314880704770B5D3490A20363111
:1030D0004880D1483F2640780021D34CD34AD44D74
:1030E000030001F077FE0A06090C151E27303A434B
:1030F0004C08FFF7DAFF70BDFFF798FF70BD0020A6
:10310000265411542954401CC0B20328F8D370BD72
:103110000020215416542954401CC0B20328F8D36F
:1031200070BD0020215411542E54401CC0B20328FD
:10313000F8D370BD0020265416542954401CC0B248
:103140000328F8D370BD00203346235411542B5468
:10315000401CC0B20328F8D370BD0020215416547F
:103160002E54401CC0B20328F8D370BD0020265452
:1031700016542E54401CC0B20328F8D370BD002052
:10318000215411542954401CC0B20328F8D370BDF7
:10319000A148A949427C895C817470470020A74AF4
:1031A00000211154401C80B28A28FAD3704700B520
:1031B000FFF7F4FFFF2198489131418401224275C5
:1031C00000210170C17181710272C17200BD30B500
:1031D000FFF7E4FFFFF7EBFF03204003C1788E4BBE
:1031E00059740079D874FFF7D3FF012058759448BB
:1031F00000240470DC761C779C70DC701C71914894
:10320000312500786D0201281CD0A87958708E48AD
:1032100004708E480470A87A8D490870687A8D49C8
:1032200008708D4804705C77287A8C490870FFF725
:103230004BFF68798A490870E8798A4908708A489A
:10324000047030BD08205870E1E77348417D0129C2
:103250000BD1002141758549C27C895C0175428C86
:103260004A431103090C018581847047F0B56A4C0B
:1032700000252046237B203041787D4A012B0AD04F
:103280002038C07E012819D000201646C036FF2401
:103290003F281BD01FE0880607D50020410055526B
:1032A000401CC0B28A28F9D3F0BD00207F21430022
:1032B000D152401CC0B28A28F9D3F0BD0020410091
:1032C0005552401CC0B28A28F9D3F0BD8B0702D5F5
:1032D0007E23D45235E00F2803D14B0701D5D48388
:1032E0002FE06A2804D10B0702D5D423D45228E05A
:1032F00074280BD15F4B604F1B783F783B4305D060
:103300000B0601D534851CE035851AE034280BD135
:10331000554B1B78002B07D0CB0602D56823D4521F
:103320000FE06823D5520CE0444B1B5C002B06D009
:10333000394FBF7C7B43DB084700D35301E0430098
:10334000D552401CC0B28A28A2D3F0BD32480F2209
:10335000203041781143417070472F482030417828
:103360000909090141707047F0B52B4C78262046B9
:10337000417BC38C491C257BCAB220304178012D8A
:103380000FD03D4D2D78002D25D0002B08D1FF23E7
:103390002D33E3846273D20719D040221143417068
:1033A000F0BD002BFCD1E6846273D507DF23002D2E
:1033B00002D01940417002E0202529434170052ABE
:1033C000EED100212173417819404170F0BDBF2238
:1033D00011404170F0BD244D2D78002D0ED0002BF2
:1033E000F8D13223E3846273D20703D01022114351
:1033F0004170F0BDEF2211404170F0BD1F4FE57DDF
:103400003F783D433FD0002BF7D1E6846273D0076D
:1034100036D0FFF7A2FFF0BD8C0000209D550000C4
:103420005957000099560000D3000020D600002014
:10343000D9000020A05500004958000028040020B1
:103440002F000020030000203F0000203200002059
:10345000330000203400002041000020350000200F
:10346000880000206A0000206400002051580000FD
:103470001403002084000020630000203D00002091
:10348000FFF764FFF0BD090909014170FE4A137896
:10349000DB0702D00123194341701178890703D556
:1034A00041780223194341701178490703D54178C7
:1034B000042211434170F54909780029E2D041788E
:1034C000082211434170F0BD10B5F14C0722A256FD
:1034D000F04BD00707D0002000211954401CC0B287
:1034E0008A28FAD306E00020FF211954401CC0B2FC
:1034F0008A28FAD3521C50B2E0710A2805DBFFF784
:103500004DFEFFF70BFAFFF762FE10BD46E6F0B581
:10351000FFF744FE0021E04FDE4DFF23DF48425C11
:103520000020CC00E419D60701D0265CAB55520828
:10353000401CC0B20628F6D3491CC9B21229EDD3EB
:10354000F0BD0020D34A115C002901D0491E11545E
:10355000401CC0B28A28F6D37047F0B5CF4D723DFB
:103560002878400828702F46363738784000387061
:10357000012029182039CB7F2A5C1343CB775108CF
:1035800029543A18203AD37F395C0B43D37749004A
:103590003954401C40B21228EBDBC04E603E707CB8
:1035A0004008707432461232507C40005074102033
:1035B00033185C78315C0C435C7049083154131843
:1035C0005C78115C0C435C7049001154401E40B2A1
:1035D0000028EDDA0020B149B04B7239603B095C3C
:1035E0001B5CAE4C19433C3C135C245C23431943E5
:1035F0004BB20021A84EFF25C400A419A54EDF0739
:1036000001D0675CF5555B10491C49B20629F6DB11
:10361000401C40B21228DEDBF0BDF0B5FFF7BEFD66
:1036200001209E4A1223723AD7181418115C203CCC
:10363000E177191ACC19203CE47F7C54401C40B23D
:103640001228F2DB0020507438700021FF239348C9
:103650007A5C7238405C104342B200208E4DCC0040
:1036600064198C4DD60701D0265CAB555210401C16
:1036700040B20628F6DB491C49B21229E7DBF0BD4F
:10368000F0B50120854A1223723AD7181418115C3C
:10369000203CE177191ACC19203CE47F7C54401C73
:1036A000C0B21228F2D30020507438700021FF23DA
:1036B0007A487238425C785C02430020764DCC0038
:1036C0006419744DD60701D0265CAB555208401CD6
:1036D000C0B20628F6D3491CC9B21229E8D3F0BDFE
:1036E00000206C4A115CFE2903D0002901D0491C3E
:1036F0001154401CC0B28A28F4D370470020654A98
:10370000115CFE2903D0002901D0491E1154401C30
:10371000C0B28A28F4D37047F0B55D49C87A401C1E
:10372000C8720020497E5D4D8C46723D614600297D
:1037300007D0295C49002954490609D5012129549B
:1037400006E0295C49082954002901D12021295487
:103750002A5C0021504EFF24C3009B194D4ED70711
:1037600001D05F5CF4555208491CC9B20629F6D352
:10377000401CC0B21228D9D3F0BD10B50020454A74
:10378000FF23474C06E0115C002907D0491E115465
:10379000401CC0B221788842F5D310BD1354F7E71E
:1037A000F0B53B49C87A401CC87200203B4F723FBD
:1037B000395C4906090E3954C90901D0012139542F
:1037C0003A5C0021344DFF23C4006419314DD60703
:1037D00001D0665CAB555208491CC9B20629F6D324
:1037E000401CC0B21228E3D3F0BDF0B52D492848E3
:1037F0000A78407E521E2C4D264ED4B2002831D07D
:103800000020264A2A3A115C491CC9B21154254BA2
:103810001B78994201D300211154204B723B195C53
:10382000002916D0491E195400211B4BC200D21882
:10383000CB0710D0194B575C723B1B5CEB5CF3550C
:10384000491CC9B20629F3D3401CC0B21228D8D3F0
:10385000F0BD1C54E8E7114B575C2A3B1B5CEB5C4A
:10386000F355EDE700200D4A2A3A115C491CC9B214
:1038700011540C4B1B78994201D300211154074B72
:10388000723B195C002911E0180100202F00002074
:103890008C0000202804002099540000020300201E
:1038A0004858000089550000295500000DD0491ED8
:1038B00019540021FE4BC200D218CB0707D0FD4B94
:1038C000575C1B5CEB5CF35507E01C54F1E7F94BCC
:1038D000575C483B1B5CEB5CF355491CC9B206299D
:1038E000EBD3401CC0B21228BDD3F0BDF0B5002010
:1038F000F14FF04C23E0F149497E002909D0215CC9
:10390000491CC9B221543A78914207D3002121546D
:1039100004E0215C002917D0491E215400210C220B
:10392000E84B4243D318E64E225CE74DB25C5E5C46
:10393000AA55491CC9B20C29F9D3401CC0B2E349AD
:1039400009788842D7D3F0BD3978491E2154E5E77C
:10395000F0B50020D84FD74C23E0D849497E002944
:1039600009D0215C491CC9B221543A78914207D34D
:103970000021215404E0215C002917D0491E215464
:1039800000214200D24B8218D318CD4E225CCE4D7E
:10399000B25C5E5CAA55491CC9B20329F9D3401C2C
:1039A000C0B2CC4909788842D7D3F0BD3978491ED6
:1039B0002154E5E7F0B50020C049BE4D4F7EBC4B19
:1039C000C14E002F0AD0295C491CC9B22954BA4AF9
:1039D0001278914207D30021295404E0295C002980
:1039E00012D0491E29540021B54C2A5CA25CCC009F
:1039F000E418245C3255491CC9B21229F7D3401C83
:103A0000C0B20628DDD3F0BDAB490978491E295460
:103A1000E9E7F0B50020A949A64C4F7EAA4D002F3A
:103A20000AD0215C491CC9B22154A34A12789142A0
:103A300007D30021215404E0215C002913D0491E42
:103A4000215400219A4BC200D3189D4E225CB25CD7
:103A50005E5CAA55491CC9B20629F9D3401CC0B204
:103A60001228DCD3F0BD94490978491E2154E8E7B7
:103A7000F0B5FFF793FB00208E4F483F3918497887
:103A80003954401CC0B20928F8D31120395C3A18C7
:103A90005170401EC0B20928F8D28849887E01289A
:103AA0001DD0787A40087872C00701D0012088764E
:103AB0000021FF23785C420800207D4DCC00641972
:103AC000814DD60701D0265CAB555208401CC0B2D0
:103AD0000628F6D3491CC9B21229EBD3F0BD787A77
:103AE0004006000E7872C009E2D000208876DFE739
:103AF0007249794A4B7E0846C07A002B08D00028CC
:103B000002D0401EC8720BE01078401EC87207E059
:103B1000401CC0B2C8721278904201D10020C87215
:103B20006E48C97A405C684AFF2111547047634A65
:103B30006B49D07A095C401CC0B2D072802801D396
:103B40000020D0720020604A1154401CC0B28A2864
:103B5000FAD3704770B5594D5C4807216956007813
:103B6000FF24594B81420DDA0020564E0C224A4365
:103B70009219165C9C55401CC0B20C28F9D3491C04
:103B8000E97170BD00201C54401CC0B28A28FAD3D1
:103B900070BDF0B5494C00252572FFF7FFFA20787B
:103BA000132804D0132020700120E073E575A07D58
:103BB000012812D0022812D0032813D0042814D0D0
:103BC000052815D0062816D0072817D0082818D0A1
:103BD000092819D0002819D01AE0424B18E0414BAF
:103BE000203315E0C523DB0112E03E4B60330FE0CC
:103BF0003C4B80330CE03B4BA03309E063231B02BA
:103C000006E0384BE03303E0374B01E0364B20331E
:103C10000021FF245A5C27482A3042540020244EB9
:103C2000CD00AD19284ED70701D02F5CF4555208AE
:103C3000401CC0B20628F6D3491CC9B21229E9D3E8
:103C4000F0BD00B5FFF7AAFAFF211C48913141846D
:103C5000012141750021C172152202700172C171EA
:103C600000BD00B5FFF79AFA1448282141840121CC
:103C7000417512210170002101720020124A115475
:103C8000401CC0B28A28FAD300BD30B5FFF786FACF
:103C9000FF210A482D314184012141751122027012
:103CA00001720020034A0021483A134612331DE0F6
:103CB00099540000D8020020895500008C00002093
:103CC00029550000205300002804002098530000CC
:103CD0005A570000BD5700001F530000D752000084
:103CE000195600004062000040630000144624346E
:103CF000154636351154195421542954401CC0B26C
:103D00001228F7D330BD00B5FFF748FAFF21FD4870
:103D100091314184012141750021C172102202704C
:103D20000172C1710020F84B1A4612321954115415
:103D3000401CC0B21228F9D300BD00B5FFF72EFA1F
:103D4000F048C8214184012242750021C1720F232D
:103D5000037002720020EC4AEB4B123211541954DA
:103D6000401CC0B21228F9D300BD00B5FFF716FA07
:103D7000E44828214184012141750E210170002170
:103D800001720020E14AFE211154401CC0B28A2871
:103D9000FAD300BD00B5FFF701FADA4828214184C3
:103DA000012141750D210170002101720020D74AC7
:103DB0001154401CC0B28A28FAD300BDF0B5FFF7F9
:103DC000EDF94B21CF48C900418401224275002101
:103DD000C1720C23037002724176CD4FCB4DFF238D
:103DE000CC48425CC84842540020CC00E419D607B5
:103DF00001D0265CAB555208401CC0B20628F6D351
:103E0000491CC9B21229EBD3F0BD10B5FFF7C6F9B2
:103E1000FF21BC4891314184012141750021C172CB
:103E20000B22027001720020BB4AB849BB4B03E071
:103E3000145C0C54401CC0B21C78A042F8D310BDD6
:103E4000F0B5FFF7ABF94B21AE48C9004184012121
:103E500041750022C2720A22027001720021AC4F29
:103E6000AA4DFF23AE48425CA74842540020CC0034
:103E7000E419D60701D0265CAB555208401CC0B2ED
:103E80000628F6D3491CC9B21229EBD3F0BDF0B510
:103E9000FFF784F99B48502141840121417500219D
:103EA000C17209220270017200209E4D974E9E49F8
:103EB0000C5C954948310C5448390C540021944B02
:103EC000C200D218575C2B5DF355491CC9B20629B4
:103ED000F8D3401CC0B21228E9D3F0BDF0B5FFF70B
:103EE0005DF98848A0214184012141750021C172FA
:103EF0000822027001728B4D844E12E08B48445CA4
:103F000081484830445400200C22894B4A43D2183F
:103F1000175C2B5DF355401CC0B20C28F8D3491C2C
:103F2000C9B2844800788142E8D3F0BDF0B5FFF70C
:103F300035F9744864214184012141750021C17221
:103F4000072202700172774D704E12E07A48445C8D
:103F50006D484830445400204A00784B8A18D218E3
:103F6000175C2B5DF355401CC0B20328F8D3491CE5
:103F7000C9B2734800788142E8D3F0BDF0B5FFF7CD
:103F80000DF9604864214184012141750021C1720D
:103F90000622027001720020624E5D4A5B4F694941
:103FA0000D5C594948310D540021CC00A418245C03
:103FB000735D3B55491CC9B21229F6D3401CC0B2EF
:103FC0000628ECD3F0BDF0B5FFF7E8F84D486421C2
:103FD0004184012141750021C172052202700172E4
:103FE000504D4A4E5048445C4748483044540020A5
:103FF000474BCA00D218175C2B5DF355401CC0B26A
:104000000628F8D3491CC9B21229EBD3F0BDF0B58C
:10401000FFF7C4F8FF203B4FF53078840120787516
:104020000020F8720421397038720021FF234648BD
:10403000425C354842540020354DCC006419334D64
:10404000960701D5265CAB555208401CC0B2062825
:10405000F6D3491CC9B21229E9D30120B876F0BDC4
:1040600000B5FFF79BF8FF212648913141840122DA
:104070004275032101700021C171C1728171027208
:1040800000BD00B5FFF78AF8FF211E4819314184B1
:10409000012141750221017000210172C17200BD30
:1040A00000B5184B187801280AD0FFF777F8FF20E1
:1040B000F530588401205875187000201872D87196
:1040C00000BD00B50F480021C1754179122903D9FF
:1040D00031214902497841714079030000F07AFEAC
:1040E0001A0E363F424551484E39544B575A3C639D
:1040F0005D60696C1010101010106610FFF7D0FF93
:1041000000BD00008C000020900200202804002048
:104110009954000002560000BE57000048580000A5
:10412000EB550000295500008A550000C8550000D5
:104130002053000098530000A75500005A57000074
:10414000BD570000A1550000D4550000FFF799FFAE
:10415000D6E7FFF785FFD3E7FFF759FFD0E7FFF773
:1041600032FFCDE7FFF70AFFCAE7FFF7DFFEC7E739
:10417000FFF7B4FEC4E7FFF78AFEC1E7FFF760FE72
:10418000BEE7FFF742FEBBE7FFF718FEB8E7FFF711
:1041900001FEB5E7FFF7E9FDB2E7FFF7CEFDAFE7B8
:1041A000FFF7B1FDACE7FFF770FDA9E7FFF759FD99
:1041B000A6E7FFF746FDA3E7FFF7EBFCA0E7F8B59E
:1041C000F64C01252146C97AA0794A1CD3B2FF22B8
:1041D000F34E002812D001280FD1F2480078814216
:1041E00021D20020F04D0C27794349190D5C7255FE
:1041F000401CC0B20C28F9D3E372F8BDEB4800783C
:10420000814208D2EA4D4800295C72544019407836
:104210003254E372F8BDE248403040790028F9D1C9
:10422000A571E072F8BD30780028FBD1FEF7B6FF2B
:10423000312676023078A52801D0FEF76FFB707822
:104240006071B078A075F07860743079E07465754D
:10425000FEF79EFFFFF735FFF8BDF0B50020D5490A
:10426000CE4C09782A34491E221DC9B2131D1DE007
:10427000255C002D1FD06D1E2554155C002D1CD013
:104280006D1E15541D5C002D19D06D1E1D54265C2D
:10429000C94DCA4FAE5D3E54165CC94FAE5D3E542B
:1042A0001E5CAD5DC74E3554401CC0B2C64D2D7866
:1042B000A842DDD3F0BD2154DFE71154E2E71954E1
:1042C000E5E7F0B5B54CA07F401CC0B2A077B94A75
:1042D00000211378984200D3A177E07F401CC0B240
:1042E000E0771378984200D3E177AC4F20373878E5
:1042F000401CC0B238701278904200D33970002050
:10430000A17FAD4DE47F3F78695C2C5DAB4AAC4E3C
:10431000AC4BED5D115434541D54401CC0B2032805
:10432000F8D3F0BDF0B59D484078002802D00128B0
:1043300005D102E0FFF7C5FF01E0FFF78EFF002087
:104340009E4CA2499E4DA24E9E4FA24A235C0B5406
:104350002B5C33543B5C1354401CC0B20328F5D390
:10436000F0BD8E48007A00280AD000208C4A115CEB
:10437000002901D0491E1154401CC0B28A28F6D32E
:10438000704770B5854D0026687A002812D0287EC7
:1043900000280FD16E72FFF7E4FF01242946363161
:1043A0000888401C80B208804A88904202D90E805A
:1043B000FFF7B8FFE87B002855D0287E002852D1AF
:1043C000EE732878030000F005FD160C0F12151887
:1043D0001B1E2124272A2D303336393C3F42454BC2
:1043E000484DFFF7ECFE3DE0FFF7B4FB3AE0FFF786
:1043F0009EFB37E0FFF77CFB34E0FFF739FB31E051
:10440000FFF707FB2EE0FFF7D5FA2BE0FFF7A0FA46
:1044100028E0FFF76BFA25E0FFF7E7F922E0FFF766
:10442000BFF91FE0FFF7A9F91CE0FFF775F919E0E4
:10443000FFF764F916E0FFF753F913E0FFF720F9EF
:1044400010E0FFF7EAF80DE0FFF787F80AE0FFF762
:1044500078F807E0FFF75BF804E0FFF757F801E0B2
:10446000FFF732F80124FEF77FFF002C01D0FEF7A2
:10447000FDFEFEF7EAFE70BD4849887A401CC0B2D6
:104480008872022803D90020887201204872704780
:1044900000B5FEF783FE41484F4941840121417533
:1044A0000021C172142202700172C171C17627E627
:1044B00001280FD002280FD004280FD008280FD0D1
:1044C00010280FD020280FD040280FD080280FD0E0
:1044D000002070470020704701207047022070477D
:1044E000032070470420704705207047062070475E
:1044F000072070470EB5A5206A46107027484179FD
:104500005170817D9170417CD170C17C11713349B2
:10451000097851714078907131480078D0713148F4
:1045200000781072304800785072304800789072ED
:1045300031200C2269464002FEF747FA0EBD1749AA
:10454000088D401E0004000C088503D1888C088566
:104550000120C87370471149887B401CC0B2887322
:104560000F2803D9002088730120087470470B4975
:10457000C88C002801D0401EC88470470748017BC2
:10458000002903D1C184417301210173704703489D
:104590000021C18441730121C17570478C00002046
:1045A000280400209853000020530000D652000039
:1045B000BA5200005957000099560000D30000205D
:1045C000D6000020D9000020A0550000CA0000201D
:1045D000CD000020D00000206C07000088000020E3
:1045E0006A00002035000020340000203300002045
:1045F00003480021C18441730249012008707047BB
:104600008C0000203D00002000B5AC480178AC488B
:104610000B0000F0DFFB0604090E13191F08416AA6
:1046200001221143416200BD416A022211434162ED
:1046300000BD416A04221143416200BDA148416AA4
:1046400010221143416200BD416A0122520211430E
:10465000416200BD416A012292021143416200BDE4
:1046600000B5964909780B0000F0B4FB0604060972
:104670000C0F121494480DE093482A300AE0924837
:10468000543007E090487E3004E08F48A83001E0C5
:104690008D48D2308D4902880A6242884A628288F7
:1046A0008A62C288CA6202890A6342894A6382892D
:1046B0008A63C289CA638549028A40310A60428A94
:1046C0004A60828A8A60C28ACA60028B0A61428B0F
:1046D0000A62828B4A61C28B8A61008CC86100BD0C
:1046E0007C497B48486008607648426801210A435B
:1046F000426002680A430260704771480168764A66
:10470000114001606F4801681022914301607047B9
:10471000F0B56A480222C178D50140270423082455
:10472000684E80788C46002904D001292ED00229B9
:1047300027D157E03146766A2E434E628D6A3D435B
:104740008D628D6A802635438D625C4E361D3578CC
:10475000854203D98D6A15438D6202E04D6A154387
:104760004D627278824203D98A6A1A438A6202E0F1
:104770004A6A1A434A62B278824203D98A6A224359
:104780008A625AE04A6A22434A6256E03146B66A71
:104790002E438E624D6A3D434D628D6A80263543BD
:1047A0008D62464EF61D3578854203D98D6A1543D4
:1047B0008D6202E04D6A15434D627278824203D9E0
:1047C0008A6A1A438A6202E04A6A1A434A62B278E3
:1047D000824203D98A6A22438A622EE04A6A2243CD
:1047E0004A622AE03146B66A2E438E628D6A3D43A4
:1047F0008D624D6A802635434D62304E0A363578DB
:10480000854203D98D6A15438D6202E04D6A1543D6
:104810004D627278824203D98A6A1A438A6202E040
:104820004A6A1A434A62B278824203D98A6A2243A8
:104830008A6202E04A6A22434A622049401CC0B2AE
:10484000887000223F2800D38A706046401CC0B2A6
:10485000C870032800D3CA70F0BD70B51B4E002489
:104860007460FFF74AFF1D48144D0078002812D1EC
:104870006878401CC0B268700A280CD36C7000F0D5
:10488000FCF8FDF7D5FEFDF762FF15490870FCF74F
:104890000AFE00F0B8F8FFF7E3FEFFF7B5FE306858
:1048A0000121084330602878401CC0B228700628D7
:1048B00000D32C70FFF72CFF70BD0000C600002055
:1048C0000080044000A004401403002000200040A9
:1048D000FFFF000000400440F8F9FFFF2100002026
:1048E0002200002050214843401E411CFCD170474B
:1048F00010B50246284C294B03E0DC606420FFF72A
:10490000F1FF521E501CF8D110BD50214843401EEB
:10491000411CFCD1704710B502461F4C1F4B03E0F1
:10492000DC606420FFF7F1FF521E501CF8D110BD6F
:104930000D20401E80B20028FBD170470220401E8F
:1049400080B20028FBD1704700B54008401E81B2FC
:1049500003E0FFF7EDFF491E89B20029F9D100BD40
:1049600000B53121FFF7E4FF491E89B20029F9D1D2
:1049700000BD30B50346084C084D07E0EC60092245
:10498000FFF7EEFF521E92B2002AF9D118465B1EC5
:104990009BB20028F2D130BDAA55FA5A000001405E
:1049A0000E490D4808600020886048600A4A0C499A
:1049B000921E0A6088602E224A600A4908600A4AEC
:1049C0008A600A4A4A600B49094A0A608860FF20E7
:1049D000DF30486070470000FFFF000000400440E7
:1049E000006004400080044080AA02000706000026
:1049F0000EFE000000A0044001202A494004086087
:104A0000294908607047294800214161542181618A
:104A100027490162C161704700B5264801688022BC
:104A200011430160214817218038816000214161D4
:104A3000816107214902C1611C4AFF21403AD163CB
:104A40000221016001688907FCD401680122114339
:104A50000160FFF7D8FFFFF7CFFF00BD012012492B
:104A6000400480310860704700B5FFF7F7FF114838
:104A7000016880229143016000BD0C49002008625A
:104A8000704710B5094C606A08498039C9698905C1
:104A900006D5000204D5FFF7E0FE0120C005A062A4
:104AA00010BD000080E200E000E100E08020004056
:104AB000FFFF010000E00540084807494161FF2170
:104AC000816107210161704710B50449FF208861A9
:104AD000FBF7E7FC10BD00001017000000E000E04D
:104AE0001E481D49C1600168042291431C4A1143BC
:104AF0000160704701201B49400608601A490860A0
:104B00001A490868FF22120290430860704714494E
:104B10000843124988601048C8607047104908432C
:104B20000E494860704700B50220FFF7F7FF0C48B8
:104B30000A4B18603D20FFF7EAFFFFF7DBFF18681C
:104B40000749491C0843186000BD0120064940067A
:104B50008031086070470000AA55FA5A00000140F1
:104B60000000FA5A80E200E000E100E018E400E012
:104B70002B4902228A60086100E000BF4868C00734
:104B8000FBD1886840221043886000E000BF48687D
:104B9000C007FBD1704710B5214B01249C60186100
:104BA00000E000BF5868C007FBD111E014785078CE
:104BB00000022043947824040443D0780006204364
:104BC000D86000E000BF5868C007FBD1121D091F64
:104BD0000029EBD158684007002802DA596001200B
:104BE00010BD986840221043986000E000BF5868EC
:104BF000C007FBD15868400702D55960012010BD9D
:104C0000002010BD10B5002000210F23DB0204C9D5
:104C100094B22018120C10189942F8D310BD00005D
:104C20000020064034480F21816104210161704752
:104C300010B53248016801221203114301602E4A67
:104C400010680F21090288430721090240181060EB
:104C50001068082108431060106802218843106022
:104C6000106804218843106010680721C903884335
:104C700010601068C910884310609068000A000234
:104C8000801C9060002050601068012189048843D6
:104C900010601068C02108431060FFF7C3FF0123B4
:104CA0001749580308601749086017490868FF2426
:104CB0002402A043086010681843106010BD0F481C
:104CC000016801221203114301600B4801680122AF
:104CD000114301600168C02211430160704706481A
:104CE0000168490849000160044801680122120373
:104CF000914301607047000000C0014000E00540A2
:104D000080E200E000E100E00CE400E010B51748AC
:104D1000C068174C4006400F02D0012806D102E0BF
:104D20001448206002E07D200002206001212068FC
:104D300000F028F82060104A1049904202D910482B
:104D4000086010BD0E48401F086010BD0C490B489C
:104D5000491E0160491C0160044800210161C160D5
:104D6000C1684906490FFBD17047000000000640AA
:104D7000DC000020006CDC0200366E0100200640E2
:104D80000500FA5A30B50B460146002020220124C6
:104D900009E00D46D5409D4205D31D469540491B6F
:104DA0002546954040191546521E002DF1DC30BDB8
:104DB000064C0125064E05E0E36807CC2B430C3C6E
:104DC00098471034B442F7D3FBF77EF95C580000E3
:104DD0007C58000030B47446641E2578641CAB42D5
:104DE00000D21D46635D5B00E31830BC184702E04B
:104DF00008C8121F08C1002AFAD17047002001E03C
:104E000001C1121F002AFBD17047120100020000ED
:104E10000040AC054F0245010102000105010906F1
:104E2000A101050719E029E715002501750195087D
:104E30008102950175088101950575010508190123
:104E400029059102950175039101050719002AFFB3
:104E50000095057508150026FF00810005FF090370
:104E6000750895018102050C09001580257F954084
:104E70007508B102C0050C0901A101850319002ABA
:104E80003C031500263C03950175108100C0050107
:104E90000980A101850205011981298315002501D9
:104EA000950375018102950175058101C005010910
:104EB00006A101850105071500250119002977952F
:104EC0007875018102C0050C0901A1018501150059
:104ED00025019520750109B509B609B709CD09E085
:104EE00009E209E309E409E509E909EA0A52010AC4
:104EF00053010A54010A55010A8A010A21020A23B0
:104F0000020A24020A25020A26020A27020A2A02A3
:104F10000A92010A94010A83010A02020A03020AA0
:104F200007020A18020A1A0209B88102C00501091B
:104F300080A101850219812983150025017501953C
:104F4000038102750595018101C00600FF0901A1D9
:104F50000185031AF1002AF800150025017508954E
:104F6000028102C009023B00020100A032090400D4
:104F7000000103010100092111010001225900076C
:104F80000581030800010904010001030102000971
:104F900021110100012251000705820310000104C4
:104FA0000309040C0353004F004E0069005800161B
:104FB00003550053004200200044004500560049BC
:104FC0000043004500000000010000001200000046
:104FD0000A4E0000020000003B000000644F000089
:104FE00003000000040000009F4F000003090000C0
:104FF000040000009F4F0000030001000C000000AF
:10500000A34F0000030901000C000000A34F0000A3
:105010000300020016000000AF4F00000309020069
:1050200016000000AF4F0000050000000700000060
:105030007F4F000005000000070000007F4F0000C8
:105040002100000009000000764F0000210100004F
:10505000090000008F4F00002200000059000000EE
:105060001C4E00002201000051000000754E00009F
:10507000220200009E000000C64E000029292B39A4
:10508000A1A000003A1E14041DA300003B1F1A1625
:105090001BA200003C200807060000003D21150966
:1050A000190000003E22170A052C00003F231C0BAC
:1050B000110000004024180D1000000041250C0EC6
:1050C000360000004226120F37000000432713333A
:1050D00038A60000442D2F3400AF0000452E3000CC
:1050E00000A40000002A3128A550000000494C48C7
:1050F00052510000004A4D4B4E4F0000000000008E
:10510000000000000000000000000000000000009F
:10511000000000000000000000000000000000008F
:10512000000000002935139E2B9F1E3A1F3BA3EF62
:10513000203C213D223E233F244025412642274357
:105140002D442E452A4C2CD214971A980899159A5A
:10515000179B1C1C18180C0C2F2F30300B0B0D0D2F
:105160000E0E11111010363650D752D451D54FD6DD
:105170004AD3373733333434A0F3A1A11D931B94A2
:10518000069539F5A2F649F2484604E616E73529B0
:10519000139E2B9F3AC83BC1A3EF3CBF3DC93EB114
:1051A0003FB040B341B242B943BA44B545C72A4CB7
:1051B0002CD214971A980899159A179B1C1C18182A
:1051C0000C0C2F2F30300B0B0D0D0E0E111110107B
:1051D000363650D752D451D54FD64AD337373333DA
:1051E0003434A0F3A1A11D931B94069539F5A2F6C2
:1051F00049F2484604E616E73529139E2B9C3AC827
:105200003BC1A3EF3CBF3DC93EB13FB040B341B24B
:1052100042B943BA44B545C72A4C2CD214971A98C0
:105220000899159A179B1C1C18180C0C2FD530D4F4
:105230000B0B0D0D0E0E11111010363650D752D427
:1052400051D54FD64AD3373733333434A0F3A1A1E5
:105250001D931B94069539F5A2F649F2484604E6DB
:1052600016E71A1A040416160707525250505151E5
:105270004F4FB500B600B700CD00E000E200E300FC
:10528000E400E500E900EA00520153015401550130
:105290008A012102230224022502260227022A0271
:1052A00092019401830102020302070218021A020A
:1052B000B80001020408102040803F4E40394138B8
:1052C0004237433644354534461F5B1E5C1D5D3115
:1052D0004932483347470E00161718191A1B1C1D70
:1052E0001E1F20212223242A2B2C2D2E2F30313239
:1052F000333435363738393F4041424344454647D9
:1053000048494A4B4C4D4E5455565758595A5B5C78
:105310005D5E616263696A6B6E73747576777848F7
:105320003214141414141414141414141D1E3133D0
:1053300046471414141414140607081C1F3034456F
:10534000485A5B5C051B202F3544495D59141414E1
:105350001A2E43586E0921364A5E731404192D42E1
:10536000570A22374C61741403182C41560B0C76E3
:105370001414141402172B405575142338776B142A
:1053800001162A3F546A0F243962781400156914F3
:105390004D4E6314141414140A000001010102019B
:1053A00003000400050000000003000201020202E5
:1053B00003020401050000000004000301030203CE
:1053C00003030402050000000005000401040204B8
:1053D00003040400000000000006000501050205AA
:1053E0000305040000000000000800060106020694
:1053F0000306040605000000000900070107020774
:105400000307040000000000000A00080108020869
:105410000308040000000000000B00090109020954
:105420000309040000000000000C000A010A020A3F
:10543000030A040000000000000D000B010B020B2A
:10544000030B040A05000000000E000C010C020C06
:105450000300000B05000000000F000D010D020D00
:10546000030C040C050000000000000E010E020EEB
:10547000030D040D050000000010001001100210C3
:1054800003100410050000000011001101110211A9
:1054900003110411050000000014141414546900D1
:1054A0000000152A3F146A141414162B40556B146F
:1054B0001414172C415614141414182D4257141494
:1054C0001414192E4358141414141A2F44596E141A
:1054D00014141B30455A141414141C31465B141454
:1054E00014141D32475C141414141E33485D7314D5
:1054F00014141F34495E7414141420354A5F751453
:10550000141421364B617614141422374C141414DD
:105510001414141414141414141423384D6277142E
:10552000141424394E63781414181A1D20232629C4
:105530002C2F3235393D4145494D5155595E6368EF
:105540006D72777C81868C92989EA4AAB0B6BCC3FB
:10555000CAD1D8DFE6EDF4FBFFFFFBF4EDE6DFD8C0
:10556000D1CAC3BCB6B0AAA49E98928C86817C771F
:10557000726D68635E5955514D4945413D3935322B
:105580002F2C292623201D1A186000060B11161C2B
:1055900021272C32373C41464B50555A5D0018307C
:1055A00003001020304048000306090C0F121518A4
:1055B0001B1E2124272A2D303336393C3F424548D3
:1055C0004B4E515456625A5D00081018202830384E
:1055D0004048505803060C183060C06030180C0664
:1055E00003060C183060C06030180C010410024033
:1055F0000820020840100104400208010410204065
:105600000201010204081020010204081020010216
:10561000040810200102040810000102030405061A
:1056200007080A0C0E10121416181A1D202326291A
:105630002C2F3235393D4145494D5155595E6368EE
:105640006D72777C81868C92989EA4AAB0B6BCC3FA
:10565000CAD1D8DFE6EDF4FBFFFFFBF4EDE6DFD8BF
:10566000D1CAC3BCB6B0AAA49E98928C86817C771E
:10567000726D68635E5955514D4945413D3935322A
:105680002F2C292623201D1A18161412100E0C0A6E
:105690000807060504030201003F3F3F3F3F3F3F2D
:1056A0003F3F3F3F3F3F3F3F3F3F3F3F3F3F3F3F0A
:1056B0003F3F3F3F3F3F3F3F3F3F3C3835322E2B40
:1056C00028262422201E1C1A18161412100E0C0A4A
:1056D00008070605040302010000000000000000A6
:1056E00000000000000000000000000000000000BA
:1056F00000000000000000000000000000000000AA
:105700000000000000000000000000000000000099
:105710000000000000000000000001020304050674
:1057200007080A0C0E10121416181A1C1E20222428
:1057300026282B2E3235383C3F3F3F3F3F3F3F3FEF
:105740003F3F3F3F3F3F3F3F3F3F3F3F3F3F3F3F69
:105750003F3F3F3F3F3F3F3F3FC000011400161710
:105760002A2B2C3F4041545556696B6A42571443CB
:10577000581444596E455A14465B14475C73485D8F
:1057800014495E144A14744C617576777862141467
:1057900038394E23244D0E0F630C14370B22140A94
:1057A0002136092035081F34071E33061D32051C1B
:1057B00031141B30041A2F03192E02182D21E6175D
:1057C0004F64C89B91632CB4D20A825010D22DB47E
:1057D00078D3FF1441645AAFF0643C0AF54CB4C866
:1057E000641EC8B423FA785A46C896238C0A7DEA08
:1057F000C3A04114D29BE6177864C84B3C592217CA
:10580000D20A8250B4F5965078E6FF1E1E645A966E
:10581000F0D33C0AF57AB4C8641EC850A5FA783CA7
:10582000AAF0D2096E0550D2BE963264D2500AC692
:105830001E50789614E1640AC84682FA1E055AA0E2
:10584000E4BE3CE90A98BE5F8A0002030406080829
:10585000080A0A08060403010100000000660000AF
:1058600000000020E0000000EE4D0000E0660000B7
:10587000E000002018060000FC4D000000000000C1
:105880000000000000000000000000000000000018
:105890000000000000000000000000000000000008
:1058A00000000000000000000000000000000000F8
:1058B00000000000000000000000000000000000E8
:10600000A500010404000101000000FFFFFFFFFFE5
:10601000FFFFFFFFFFFFFFFFFFFFFFFFFFFFFFFF90
:10602000FFFFFFFFFFFFFFFFFFFFFFFFFFFFFFFF80
:10603000FFFFFFFFFFFFFFFFFFFFFFFFFFFFFFFF70
:106040000000080C08000000000000000000000034
:1060500020302000000000000000000000000000D0
:1060600000000E0E0E0E02020000000000000000F4
:106070000000000000000000000000000000000020
:10608000001C1C1C1C1C1C1C1C1C1C2C0430002078
:106090000000000000000000000000000000000000
:1060A00000001C1C1C1C1C1C1C0C0C040000000010
:1060B00000000000000000000000000000000000E0
:1060C00001121C0C1C000000000000200030002009
:1060D00000000000000000000000000000000000C0
:1060E0000000080C08000000000000200030002024
:1060F00000000000000000000000000000000000A0
:10610000000000000000000000000000000000008F
:10611000000000000000000000000000000000007F
:10612000000000000000000000000000000000006F
:10613000000000000000000000000000000000005F
:10614000000000000000000000000000000000004F
:10615000000000000000000000000000000000003F
:10616000000000000000000000000000000000002F
:10617000000000000000000000000000000000001F
:10618000000000000000000000000000000000000F
:1061900000000000000000000000000000000000FF
:1061A00000000000000000000000000000000000EF
:1061B00000000000000000000000000000000000DF
:1061C00000000000000000000000000000000000CF
:1061D00000000000000000000000000000000000BF
:1061E00000000000000000000000000000000000AF
:1061F000000000000000000000000000000000009F
:10620000A500010404010101000000FFFFFFFFFFE2
:10621000FFFFFFFFFFFFFFFFFFFFFFFFFFFFFFFF8E
